:020000040800F2
:10000000E84D002085020008696400088D5500084D
:10001000B96300085D2C0008819000080000000012
:1000200000000000000000000000000085710008D2
:10003000FD4E0008000000009B0200089D02000821
:100040009F0200089F0200089F0200089F0200080C
:100050009F0200089F0200089F0200089F020008FC
:100060009F0200089F0200089F0200089F020008EC
:100070009F0200089F0200089F0200089F020008DC
:100080009F0200089F0200089F0200089F020008CC
:10009000612C00089F0200089F0200089F020008D0
:1000A0009F020008558000089F0200089F02000878
:1000B00071800008C5800008818100089F02000847
:1000C0009F0200089F0200089F0200089F0200088C
:1000D0009F020008C5880008C1890008B18A00088D
:1000E0009F0200089F0200089F0200089F0200086C
:1000F000C98100089F0200089F020008254C0008E3
:100100009F0200089F020008AD8100089F020008BE
:100110009F020008918500089F0200089F020008C6
:100120009F0200089F0200089F0200089F0200082B
:100130009F0200089F0200089F0200089F0200081B
:10014000952D00089F0200089F0200089F020008EA
:100150009F0200089F0200089F0200089F020008FB
:100160009F0200089F0200089F0200089F020008EB
:100170009F0200089F0200089F0200089F020008DB
:100180009F0200089F02000800F002F800F06AF8E1
:100190000AA090E8000C82448344AAF10107DA45E2
:1001A00001D100F05FF8AFF2090EBAE80F0013F0CA
:1001B000010F18BFFB1A43F001031847B8E4000011
:1001C000D8E400000A444FF0000C10F8013B13F093
:1001D000070408BF10F8014B1D1108BF10F8015BA0
:1001E000641E05D010F8016B641E01F8016BF9D193
:1001F00013F0080F1EBF10F8014BAD1C0C1B09D1EA
:100200006D1E58BF01F801CBFAD505E014F8016B5B
:1002100001F8016B6D1EF9D59142D6D370470000ED
:100220000023002400250026103A28BF78C1FBD8FF
:10023000520728BF30C148BF0B6070471FB50DF093
:1002400088FF00F0FDF80400002000210DF0E0F828
:10025000401C6060002000210DF0C4F8E0601FBD6C
:1002600010B510BD00F08DF91146FFF7E7FF0CF057
:1002700067FC00F005FC03B4FFF7F2FF03BC00F0DD
:1002800049FC00000948804709480047FEE7FEE7AF
:10029000FEE7FEE7FEE7FEE7FEE7FEE7FEE7FEE736
:1002A00004480549054A064B70470000ED7F0008E9
:1002B00089010008E8070020E84D0020E8490020F7
:1002C000E849002010B5203AC0F00B80B1E8185082
:1002D000203AA0E81850B1E81850A0E81850BFF430
:1002E000F5AF5FEA027C24BFB1E81850A0E81850CF
:1002F00044BF18C918C0BDE810405FEA827C24BF23
:1003000051F8043B40F8043B08BF7047D20728BFB0
:1003100031F8023B48BF11F8012B28BF20F8023BFF
:1003200048BF00F8012B70474FF0000200B513469C
:1003300094469646203922BFA0E80C50A0E80C5005
:10034000B1F12001BFF4F7AF090728BFA0E80C50B6
:1003500048BF0CC05DF804EB890028BF40F8042BAF
:1003600008BF704748BF20F8022B11F0804F18BF1C
:1003700000F8012B704770477047704710B500F0C8
:1003800063F8006810BD10B5044600F05DF8046025
:1003900010BD00000FB4002300B589B00CA9009176
:1003A0000B99CB60214B7B440693214B7B440793F5
:1003B00004236FF00042CDE901321E4A7A446B46B5
:1003C0000892024600200DF02EFF09B05DF814FBE4
:1003D00070B506464FF0FF3015460C46324686B0E3
:1003E0000091CDE9010169460020049004A8FFF7BF
:1003F000D1FF02460498211825B108B1084600E053
:1004000020462860049800280DD0002A02DD0098BC
:10041000884208D03246081B69460094CDE90104A1
:1004200004A8FFF7B7FF06B070BD0000B9000000D8
:10043000D1000000910000000048704788070020AC
:1004400000487047A8070020004870478807002030
:1004500010B5044600F0BAF80068005D00F0010035
:1004600010BD426842B1016811F8013B23B1521E30
:10047000C0E90012184670470121C160881E70470C
:1004800042685AB1C368016843B983688B4205D09A
:10049000491E521CC0E90012002070474FF0FF3087
:1004A000704700002DE9F047814616468AB0334870
:1004B00078440DC88DE80D0030487844801C03ACAA
:1004C0000DC884E80D0041F69B300844372190FBAD
:1004D000F1F290FBF1F5A5F1800501FB12041B3C44
:1004E00002D56442012000E00020DFF890A08046A1
:1004F0000027FA44AAF1BE0A0DE0E00709D032460F
:10050000684607EB47010AEB810100F0A6FF8DE882
:10051000070064107F1C002CEFD1184F7F44AC3FC4
:1005200018E0E80714D007EB04100DF1180A90E862
:100530000E008AE80E00C068F04201D198190890B8
:10054000324606A903A800F088FF03AB83E8070042
:100550006D10641C002DE4D132466946B8F1000FDD
:1005600003A802D000F051FF01E000F076FFC9E9D6
:100570000001C9F808200AB0BDE8F087A8E1000032
:1005800070477546FFF758FFAE460500694653466B
:1005900020F00700854618B020B5FFF781FEBDE8C2
:1005A00020404FF000064FF000074FF000084FF0DA
:1005B000000B21F00701AC46ACE8C009ACE8C0096B
:1005C000ACE8C009ACE8C0098D46704710B5FFF72C
:1005D00037FF001D10BD00BF39CE00002DE9FF4FD1
:1005E000064689B00878FF2806D0491C2D2805D07A
:1005F00000244FF0000908E000200CE00124F8E797
:1006000009EB8903491C00EB43090878FF28F7D15F
:1006100014B1C9F100008146107800252C46AA4685
:1006200029462D2801D02B2804D1521C2D2813D067
:10063000002082468B461078FF280FD04FF0000C28
:100640000A21521CA5FB017804FB018105FB0C115A
:10065000C5194BEB0104EEE70120EAE7002108464B
:100660004FF00000BAF1000F02D000EB800040080C
:10067000C0F38158B8F1010F01DD4FF0FF380C983D
:1006800009EB000755EA040009D04FF0020917F5FD
:10069000FA7F0BDA4FEACA70C6E900B012E04FEAFF
:1006A000CA70C6E900B00DB0BDE8F08FB7F5FA7FAB
:1006B0000DDDF0487844D0E90010C6E9001040EAAA
:1006C000CA707060FFF7C0FEC0F80090EBE7391EFB
:1006D00002DAC8F1000200E0424600DA794206A8D8
:1006E000FFF7E0FE06AB93E8070003AB83E80700E3
:1006F00044F23E005BEA04010090584604D144F203
:100700001E012C465D460091210C0904014306D1CF
:100710000099240444EA15442D041039009104F092
:100720007F41014306D10099240244EA15642D0259
:100730000839009104F07041014306D10099240169
:1007400044EA15742D01091F009104F04041014352
:1007500006D10099A40044EA9574AD00891E009169
:1007600004F00041084304D100986D196441401E13
:10077000009042466846002FCDE9014503A902DDFD
:1007800000F07FFE01E000F054FEBAF1000F0446D5
:100790000D4601D084F0004440F2FF7724F0004081
:1007A000284303D0C4F30A50B84212D1FFF74CFEDD
:1007B000C0F80090C4F30A50B8420AD1AE48784459
:1007C000D0E90010C6E9001004F000410843706051
:1007D00069E7C6E9005466E72DE9FF4F1F464FF071
:1007E000000A4FF0FF38454691B0D7E90146CDF8F1
:1007F0003CA0FFF725FEC0680168405C1090B96915
:1008000012986D1C8847396A814688470028F6D1BE
:10081000B9F1FF3F0AD0002E24F4D06411DDB9F104
:100820002B0F08D0B9F12D0F0BD102E0404615B0C7
:100830003AE744F48064B96912986D1C8847761EC3
:100840008146600504A901D52D2000E02B20002E53
:1008500001F1010B0DF130088DF810003FDDB9F109
:10086000690F08D0B9F1490F05D0B9F16E0F02D068
:10087000B9F14E0F1CD13B4601A8009580E850020B
:10088000DDE912126FF002000DF0D1FCC11CCED1D7
:100890000EE0B96912986D1C884781461398761E40
:1008A00044F4007405600F98401C002E0F9016DD74
:1008B000B9F1300FEDD0B9F1780F02D0B9F1580F7E
:1008C0000DD10F9801280AD13B46CDE90054DDE94E
:1008D0001212001F02960DF0A8FCC11CA7D110999E
:1008E00089453ED144F0800406E01399681CAAF1C2
:1008F000010A44F400740860B9696D1C1298761EF0
:10090000884730288146F0D02BE01099894505D1E1
:10091000200603D4761E44F0800418E048460BF00D
:1009200007F808B3761E0DF123018B4544F40074DB
:1009300008D2A9F130000BF8010B200607D5AAF167
:10094000010003E0200602D40AF101008246A0055E
:1009500002D51399681C0860B96912986D1C884704
:100960008146002ED1DC53E0002E51DDB9F1650F38
:1009700002D0B9F1450F4BD1A00549D5B9696D1C1D
:100980001298761E24F440748847002E81460CDDB0
:100990002B2804D0B9F12D0F07D144F48074B96924
:1009A00012986D1C8847761E8146E00501D52D21E1
:1009B00000E02B2108F8011BCDF8008021E0761E15
:1009C0000DF13901884544F400740CD2A9F13000CE
:1009D00010F0FF0088F8000002D10099884509D97D
:1009E00008F1010806E0E00501D5244801E042F2E3
:1009F0000F708246B96912986D1C8847814613981A
:100A00000560002E04DD48460AF092FF0028D6D18A
:100A1000F96912988847FF2053468BF8000088F840
:100A2000000000200A900B9004AA0CA90AA8FFF766
:100A3000D5FDA00502D46FF00100F8E614F0240FF4
:100A40000AD0E00714D13868DDE90A12031D3B60C3
:100A50000068C0E900120BE00AA968460AF058FED7
:100A6000E00705D13868009A011D3960006802600E
:100A70002846DCE6DCDF0000D2DE0000F1D8FFFF14
:100A800010B50446AFF300802046BDE81040FFF7E4
:100A9000F2BB00004FF0013C50F8042B51F8043B2E
:100AA0009A4221D1A2EB0C03934313EACC1317D142
:100AB00050F8042B51F8043B9A4215D1A2EB0C03D9
:100AC000934313EACC130BD150F8042B51F8043B99
:100AD0009A4209D1A2EB0C03934313EACC13DBD067
:100AE0004FF00000704700BFD01A01BAB1FA81F18F
:100AF00001F0180122FA01F0CB40C1F12001DBB274
:100B0000C0B2C01A2CFA01F3D11A914311EAC311F1
:100B1000E6D1704701491820ABBEFEE7260002006F
:100B20002DE9FF4F1F464FF03C0987B04FF00042C0
:100B3000DDE9141001F10108DDF858A002EA405087
:100B40000390002005908346054604460490B96949
:100B5000461E08988847AAF1010A0290BAF1000FD0
:100B60003BDD02982E2815D0102100F016FA00283F
:100B70002EDB4FF0010B0599014317D0B9F1000F9F
:100B80000BDB4A46C11700F0F5F905430C43A9F108
:100B9000040905E0012004900BE008B145F00105CF
:100BA00001200590049820B9361D02E0049800B198
:100BB000361FB969089808F101088847BBF1000F92
:100BC000AAF1010A0290C9D00999C1F80080C5E7CD
:100BD0000298702808D0502806D0F96908988847EC
:100BE000BBF1000F14D04FE0002002900120BBF1B8
:100BF000000F049009D0B969089808F101088847E6
:100C0000AAF10109B9F1000F07DCF96908988847D2
:100C10006FF001000BB0BDE8F08F2B2804D02D2819
:100C20000CD14FF0FF300490B969089808F1010821
:100C30008847A9F10109B9F1000FE6DD411CE4D0B4
:100C40000A2100F0AAF90028DFDB029908F1010867
:100C500001EB810100EB41000290B96908988847D7
:100C60000A2100F09AF9099AA9F10109B9F1000FD6
:100C7000C2F8008001DD0028E7DAF96908988847A2
:100C80000499029800FB016655EA040004D004F0C0
:100C90004041090002D006E0039898E0A40044EA2D
:100CA0009574AD00B61E04F00041080002D16D1924
:100CB0006441761E159810F0240F03D04FF00B09F5
:100CC0005C4803E04FF028096FF07D0082465645EE
:100CD00007DAAAEB06018944B9F1410F01DD4FF0B3
:100CE000410901200021A9F1010200F043F9024667
:100CF00028400B462140084301D0012100E000219B
:100D0000501E029143F1FF3128402140084301D099
:100D1000012000E000200299834651EA0B014FD0E8
:100D2000002108464FF00000039900F4400039B15B
:100D300000EB80004FF4400100EBD07001EA60004E
:100D40008015012802DD4FF0FF3000E013D0401C79
:100D500036D0029860B3BBF1000F0CD14A46012097
:100D6000002100F007F928402140084301D001206C
:100D700000E00020E0B101204A46002100F0FAF82E
:100D8000034640190A4661412D1A8C4111D3B9F12D
:100D9000400F09DD159810F0240F02D0AAF1340697
:100DA00003E0AAF1170600E0761C00254FF000448E
:100DB00006E05B1E42F1FF3220EA030521EA02044D
:100DC000CAF10100B04206DA1B49039808430190BA
:100DD000002000900EE0039AC4F3D321E80A0A43EE
:100DE000164940EA44500A433146CDE900026846BC
:100DF0000AF094FD159810F0240F0BD01598C00739
:100E000015D13868DDE90012031D3B600068C0E9B8
:100E100000120CE002A869460AF07AFC1598C00797
:100E200005D13868029A011D3960006802604046A9
:100E3000F0E6000002FCFFFF0000F07F0000F03F42
:100E40002DE9FF4F92461D4685B04FF00041DDE988
:100E5000124BDDE914727F1E01EA4B50414940F00C
:100E6000FF4940EA0108002122F0200049280491AE
:100E700002D04E2828D04CE03BA0012607C88DE8C0
:100E80000700A9690698641C88477F1E014606D49E
:100E90001DF8060018B121F0200181420BD0E9694C
:100EA00006988847032E34D0082E32D06FF0010008
:100EB00009B0BDE8F08F761C032E01D0082EE0D1DA
:100EC000601CCAF80000DCE7A9690698641C884722
:100ED0007F1E2AD420F02000412826D1A969069837
:100EE000641C88477F1E20D420F020004E281CD18F
:100EF000A9690698641C88477F1E48F4002849F4B5
:100F00008009CAF8004001D4282806D0E96906986B
:100F100088475FEACB7012D022E0A9690698641C6A
:100F200088477F1E01D4002803DAE96906988847BC
:100F3000BCE72928F1D1641CCAF80040E9E71BF09E
:100F4000240F07D028680499031D2B600068C0E9AE
:100F5000001805E02868021D2A600068C0F80090AB
:100F60002046A5E70000F07F494E46494E495459B6
:100F700000000000B2F120030AD5C2F1200301FAFB
:100F800002F120FA03F300FA02F041EA030170478C
:100F900000FA03F14FF0000070473A2800D23038D1
:100FA00020F02002412A01D3A2F13700884201D368
:100FB0004FF0FF30704720F07F4C80EA030023F0B1
:100FC0007F47ACEB070303F57C5300F0004003F1CF
:100FD000FF032DE980494FEA154B09B44FEA14434A
:100FE00025EA0B4E24EA03480FF2042606EB1327EA
:100FF00049083E785FEA320203FB0667C7F500073F
:1010000007FB06F64FEA54374FEAD64606F10206CA
:1010100007FB066CCCF1005C4FEA1C472CEA074C3E
:1010200007FB06F40CFB06F504EB15464FEA961693
:1010300034BF00204FF000404FEAD13706FB07FCD9
:101040004FEA1C4C0CFB0BF7D21B03FB0CF761EBBC
:1010500007010CFB0EF7B0EB074072EB17420CFBDD
:1010600008F734BFA2EB0742B2EB074261EB17412E
:101070004FEA0C444FEA910706FB07FC4FEA1C4C71
:101080000CFB0BF7B0EBC74072EB573203FB0CF7CE
:1010900034BFA2EBC742B2EBC74261EB57310CFB46
:1010A0000EF7B0EBC70072EB57720CFB08F734BFBA
:1010B000A2EBC702B2EBC70261EB5771039F4FEA85
:1010C000816141EA921104EBCC044FEAD1374FEA37
:1010D000826206FB07FC42EA90124FEA80604FEA08
:1010E0001C4C0CFB0BF7D21B03FB0CF761EB07014D
:1010F0000CFB0EF7B0EB074072EB17420CFB08F746
:1011000034BFA2EB0742B2EB074261EB17414FEA53
:101110008C554FEA910704EB9C2406FB07FC4FEA31
:101120001C4C0CFB0BF7B0EBC74072EB573203FBC8
:101130000CF734BFA2EBC742B2EBC74261EB5731A9
:101140000CFB0EF7B0EBC70072EB57720CFB08F705
:1011500034BFA2EBC702B2EBC70261EB577115EBCC
:101160004C254FEA816141EA92114FEA82624FEACF
:10117000D13742EA901206FB07FC44F100044FEA23
:1011800080604FEA1C4C0CFB0BF7D21B03FB0CF7E7
:1011900061EB07010CFB0EF7B0EB074072EB174257
:1011A0000CFB08F734BFA2EB0742B2EB074261EB3E
:1011B000174115EB1C154FEA813141EA92414FEA84
:1011C000823242EA90424FEA80304FEA0C7644F194
:1011D000000448EA03434EEA0B484FF0000EB2EB1E
:1011E000080C71EB030724BF624639464EEB0E0E26
:1011F0004FF0000B0018524149414BEB0B0BB2EB87
:10120000080C71EB03077BF1000B24BF62463946E3
:101210004EEB0E0E4FF0000B0018524149414BEBC4
:101220000B0BB2EB080C71EB03077BF1000B24BF37
:10123000624639464EEB0E0E51EA020718BF46F0E1
:10124000010616EB0E7655F1000254F1000103D5AC
:10125000BDE88901BDE80088BDE88901BDE8004816
:10126000B619524141EB0101A3F10103704780809F
:101270007F7E7D7C7B7A79787776767574737271F0
:1012800071706F6E6E6D6C6C6B6A6A6968686766A8
:1012900066656464636362616160605F5F5E5E5D3A
:1012A0005D5C5C5B5B5A5A595958585757565655AE
:1012B00055555454535352525251515050504F4F10
:1012C0004F4E4E4D4D4D4C4C4C4B4B4B4A4A4A4960
:1012D00049494848484747474746464645454544A3
:1012E000444444434343434242424241414100005B
:1012F00046EA0646A3F570534FEA164646EA4256BA
:101300004FEAD22242EA415210B54FEAD121A3F16D
:10131000010300F017F820F0004000F1010C00F08C
:10132000004701EB00501146BCF5006F40EA070092
:1013300000D210BD02484FF0000140EA070010BD86
:101340000000F07F002B26D4770021D01CB54FEA97
:10135000370703B44FF010004FF010014FF00000BA
:101360000FBCBDE810400BF1010BBBF1010F08BF32
:101370005FEA170722BF12F1010211F101014FF0DC
:10138000004143F1000300F0004043EA00007047D1
:10139000F9D35708DAE746EA064613F1400F4FEA59
:1013A00016461FDD13F1200FDFBF16430A4600214A
:1013B00020335B42C8D0C3F1200746EA064602FA52
:1013C00007F74FEA164646EA0706C3F1200722FA56
:1013D00003F201FA07F721FA03F14FF0000342EAA2
:1013E0000702B1E746EA020646EA06464FEA164613
:1013F00046EA0106BCBF46EA0646360C4FF000033B
:101400004FF000024FF000019EE72DE9C0489346DF
:1014100030B491E8380007C831EA400C48BF34EADC
:10142000430C03D5FFF7C7FDFFF78CFFF0BCBDE809
:1014300000882DE9C048934630B491E8380007C8C9
:1014400031EA400C48BF34EA430C03D5FFF7B3FD43
:10145000FFF74EFFF0BCBDE800882DE9C048934679
:1014600030B491E8380007C810F0804F08BF13F07F
:10147000804F03D100F019F8FFF764FFF0BCBDE81E
:1014800000882DE9C048934630B491E8380007C879
:1014900010F0804F08BF13F0804F03D100F005F823
:1014A000FFF726FFF0BCBDE8008820F07F4780EA08
:1014B000030023F07F4C07EB0C03A3F57C5300F0F3
:1014C0000040A3F1FE0392F0000F00F0B38095F00E
:1014D000000F00F077802DE901494FEA11404FEAF3
:1014E000144621EA004800FB06FC24EA064708FBF4
:1014F00006F607FB08F800FB07F718EB06484CEB6D
:10150000164C4FEA124B18EB07484FEA15464CEBC6
:10151000174022EA0B4E0BFB06FC25EA06470EFBA2
:1015200006F607FB0EFE0BFB07F71EEB064E4CEB19
:10153000164C4FF000061EEB074E4CEB174B18EB0A
:101540000B0840F1000018EB0E0B58EB000840F1BF
:1015500000008F1A4FF000013CBFC943661B14BF47
:10156000B5EB040C00213CBFC943F61B4FEA1744FE
:101570004EEA8E0E27EA04454FEA1C4704FB076239
:101580002CEA074C05FB07F70CFB05F604FB0CFCEB
:1015900016EB074642EB174216EB0C4642EB1C4299
:1015A0001BEB060658EB0202414146EA9E0601D5B6
:1015B000BDE80189B619524141EB0101A3F10103D4
:1015C000BDE801894FEA14454FEA114724EA054670
:1015D00021EA074C05FB07F406FB07F70CFB06F1B5
:1015E00005FB0CFC11EB074144EB17444FEA124793
:1015F00011EB0C4144EB1C4422EA074C05FB07F2BB
:1016000006FB07F70CFB06F605FB0CFC16EB074682
:1016100042EB174216EB0C4642EB1C456A1854F19C
:10162000000148BF7047B619524141EB0101A3F1D7
:101630000103704795F0000F37D04FEA11424FEA8F
:10164000144721EA024624EA074C02FB07F106FB95
:1016500007F70CFB06F402FB0CFC14EB074441EB10
:1016600017414FEA154714EB0C4441EB1C4125EAA6
:10167000074C02FB07F506FB07F70CFB06F602FB1F
:101680000CFC16EB074645EB174516EB0C4645EBF5
:101690001C42121951F1000148BF7047B61952415E
:1016A00041EB0101A3F1010370474FEA14454FEAF2
:1016B000114724EA054621EA074C05FB07F106FB22
:1016C00007F70CFB06F24FF0000605FB0CFC12EBD3
:1016D000074241EB174112EB0C4251EB1C4148BF52
:1016E0007047921841EB0101A3F10103704721B14A
:1016F000826842F00102826003E0826822F0010207
:10170000826070470021084A1168084A1140D0E9F8
:1017100000231A4383681A43C3681A431143044AD7
:10172000C2F804137047000004230140E030FCFFBE
:10173000002001400146C86C80B27047024600207C
:1017400013680B400BB1012000E00020704700003F
:1017500030B50246002000235068104C20400D791F
:101760000C6844EA05242043506090680C4C2040EB
:10177000D1E903542C438D682C434D7944EA450448
:1017800020439060D06A20F470000C7D641EE4B2A7
:10179000234340EA0350D06230BD0000FFFEFFFC4F
:1017A000FDF7FFC0F0B504460D4600200021092DCD
:1017B00011DDE068A5F10A0606EB4607072606FAE2
:1017C00007F18843A5F10A0606EB460603FA06F17F
:1017D0000843E0600CE0206905EB4507072606FAA0
:1017E00007F1884305EB450603FA06F1084320613B
:1017F000072A0FDA606B561E06EB86071F2606FACD
:1018000007F18843561E06EB860605FA06F10843E3
:10181000606322E00D2A0FDA206BD61F06EB8607E5
:101820001F2606FA07F18843D61F06EB860605FA3F
:1018300006F10843206310E0E06AA2F10D0606EB12
:1018400086071F2606FA07F18843A2F10D0606EB6C
:10185000860605FA06F10843E062F0BD816841F0B2
:10186000804181607047000010B51448007800F096
:10187000010010B106F074FB1EE01048007800F083
:10188000800010B105F0D6F816E00C48007800F0A2
:10189000100010B103F07EFB0EE00848007800F065
:1018A000080010B105F050FD06E00448007800F093
:1018B000020008B107F018FD10BD0000040500206B
:1018C00010B52148007800F0010010B106F076FB59
:1018D0001EE01D48007800F0800010B105F0D8F837
:1018E00016E01948007800F0100010B103F05CFB1E
:1018F0000EE01548007800F0080010B105F0ACFDCE
:1019000006E01148007800F0020008B101F098FFED
:101910000D480EA1D0F88021104807F013FB0A48AB
:1019200002780FA10D4807F00DFB074811A1D0F870
:1019300078210A4807F006FB034811A1D0F87C2162
:10194000064807F0FFFA10BD0405002073746174A7
:10195000757352656D3D256409000000005000401C
:1019600067526F626F742E7374617475733D256472
:10197000090000005369676E616C3D256409000031
:10198000636F6E74696E7565547269676765723DE1
:101990002564090D0A00000000B58DB00121042066
:1019A00005F05AFA0121080205F086FA30200B9062
:1019B00003208DF8300000208DF833000BA9164865
:1019C00003F000FD0121080205F086FA00214FF422
:1019D000807005F081FA002007900A9009904FF47A
:1019E0008030089007A8FFF78DFE002001908DF849
:1019F00008008DF8090003900490059001208DF8EF
:101A0000180001A90548FFF7A3FE01210348FFF7CD
:101A10006EFE0DB000BD0000000802400020014035
:101A200010B52DED048BF0EE408AB0EE609AB0EE6A
:101A3000418AF0EE490AB0EE680A09F081FF3948A0
:101A400080ED230A0421384803F027FDC8BB01219B
:101A5000364803F022FDA0BB3248D0ED230AB0EE99
:101A6000600A00F0A1F8DFED320A70EE209AB0EEC5
:101A7000480A00F067F839EEC00ABDEEC00A10EE61
:101A8000104A224601212B4807F034FB2548D0EDAF
:101A9000230AB0EE600A00F087F8DFED270A70EE47
:101AA000209AB0EE480A00F04DF839EE800ABDEEFB
:101AB000C00A10EE104A224602211E4807F01AFB07
:101AC0002DE0FFE70421184803F0E7FC012810D1BE
:101AD0000121164803F0E1FC58B9184A01211548C4
:101AE00007F008FB4FF47A620221124807F002FB6C
:101AF00015E004210C4803F0D0FC80B901210B480B
:101B000003F0CBFC01280AD10D4A0121094807F056
:101B1000F1FA42F6E0620221064807F0EBFABDEC6A
:101B2000048B10BD04050020001002400008024094
:101B300000409CC50068004000409C4520D1FFFF4C
:101B400060F0FFFFF0EE400A114890ED000A20EE31
:101B5000200A104890ED001AB8EEC11A30EEC11AF2
:101B60000D48D0ED001A01EE810A0C4890ED001AE4
:101B7000DFED0B1A01EE210A0A4880ED000ABDEEE6
:101B8000E00A044880ED000A064890ED000A70471C
:101B9000C8030020C4030020D0030020CC03002091
:101BA00000000000D4030020F0EE400A0E4890ED43
:101BB000000A20EE200A0D4890ED001AB8EEC11A76
:101BC00030EEC11A0A48D0ED001A01EE810A094828
:101BD00080ED000ABDEEE00A044880ED000A0548E9
:101BE00090ED000A70470000800300207C03002075
:101BF000840300208803002010B52DED028BB0EE89
:101C0000408A194890ED1E0AF0EE400AB0EE480AEC
:101C100009F096FE154880ED000A90ED000AFFF7E6
:101C2000C3FFDFED130A30EE200ABDEEC00A10EE4E
:101C3000104A224601210F4807F05CFA0B4890ED4C
:101C4000000AFFF7B1FFDFED0C0A30EE200ABDEE0F
:101C5000C00A10EE104A22460221064807F04AFA4E
:101C6000BDEC028B10BD0000040500205C000020CC
:101C700000C0DA450068004000C0DAC510B52DED9F
:101C8000028BB0EE408AF0EE608A1248D0F89800DD
:101C9000042802D0052816D10AE0DFED0F1A9FEDC7
:101CA0000F1AF0EE680AB0EE480A04F025FC0BE0CB
:101CB000DFED091A9FED091AF0EE680AB0EE480A46
:101CC00004F01AFC00E000BF00BF0120BDEC028B55
:101CD00010BD0000040500200000164500000000B3
:101CE00010B509F06DFE1F48D0F8A40010B900F03F
:101CF00041F826E01B48D0F8A40001280AD10421AD
:101D00001848C0F89810DFED180A9FED180AFFF781
:101D1000B5FF16E01348D0F8A40002280AD1052127
:101D20001048C0F89810DFED120A9FED100AFFF777
:101D3000A5FF06E00B48D0F8A400032801DB00F063
:101D400003F90848D0F8A400042809D10548007810
:101D500020F001000349087000210248C0F89810E3
:101D600010BD000004050020000048440000FA44B3
:101D70000080894410B501F007FF664890ED1F0A06
:101D8000D0ED300AB4EEE00AF1EE10FA0CDD90ED81
:101D9000200AD0ED310AB4EEE00AF1EE10FA03D2D7
:101DA0000021C0F8981075E05A4890ED1F0AD0ED58
:101DB000320AB4EEE00AF1EE10FA0CDD90ED200AE2
:101DC000D0ED310AB4EEE00AF1EE10FA03DD0121A4
:101DD000C0F898105EE04F4890ED1F0AD0ED320A2F
:101DE000B4EEE00AF1EE10FA0CD290ED200AD0ED3C
:101DF000330AB4EEE00AF1EE10FA03DD0221C0F876
:101E0000981047E0434890ED1F0AD0ED300AB4EE39
:101E1000E00AF1EE10FA0CD290ED200AD0ED330A70
:101E2000B4EEE00AF1EE10FA03D20321C0F89810E4
:101E300030E0384890ED200ADFED370AB4EEE00AD2
:101E4000F1EE10FA04DD9FED350AFFF7D5FE21E033
:101E5000304890ED200ADFED320AB4EEE00AF1EEF0
:101E600010FA04D29FED2F0AFFF7C6FE12E02948B0
:101E700090ED1F0ADFED2C0AB4EEE00AF1EE10FA45
:101E800004DD9FED2A0AFFF7B7FE03E09FED280A65
:101E9000FFF7B2FE1F48D0F8980030B1012810D0EB
:101EA00002281AD0032830D123E001221146002055
:101EB0009FED1E1ADFED1F0A9FED1F0A04F004F9C3
:101EC00024E00122114610469FED141ADFED190A95
:101ED0009FED1A0A04F0F8F818E00122911E002084
:101EE0009FED131ADFED160A9FED160A04F0ECF8C9
:101EF0000CE00122911E10469FED0A1ADFED100A38
:101F00009FED0D0A04F0E0F800E000BF00BF0120E3
:101F100010BD00000405002000803B450000B442D5
:101F20000080D4440000B4C20000834300000000DD
:101F30000000344300404E45000016440000FAC340
:101F40000000AF44000016C410B501F01DFE664845
:101F500090ED1F0AD0ED340AB4EEE00AF1EE10FA6B
:101F60000CDD90ED200AD0ED350AB4EEE00AF1EE7A
:101F700010FA03D20621C0F8981075E05A4890ED87
:101F80001F0AD0ED360AB4EEE00AF1EE10FA0CDDCD
:101F900090ED200AD0ED350AB4EEE00AF1EE10FA29
:101FA00003DD0721C0F898105EE04F4890ED1F0A4E
:101FB000D0ED360AB4EEE00AF1EE10FA0CD290ED54
:101FC000200AD0ED370AB4EEE00AF1EE10FA03DD94
:101FD0000821C0F8981047E0434890ED1F0AD0ED63
:101FE000340AB4EEE00AF1EE10FA0CD290ED200AB9
:101FF000D0ED370AB4EEE00AF1EE10FA03D209216F
:10200000C0F8981030E0384890ED200ADFED370A2C
:10201000B4EEE00AF1EE10FA04DD9FED350AFFF7A9
:10202000EBFD21E0304890ED200ADFED320AB4EEFE
:10203000E00AF1EE10FA04D29FED2F0AFFF7DCFD63
:1020400012E0294890ED1F0ADFED2C0AB4EEE00AF9
:10205000F1EE10FA04DD9FED2A0AFFF7CDFD03E053
:102060009FED280AFFF7C8FD1F48D0F89800062802
:1020700006D0072810D008281AD0092830D123E02C
:102080000422012100209FED1E1ADFED1F0A9FEDA3
:102090001F0A04F019F824E00422012108469FEDEC
:1020A000141ADFED1B0A9FED1B0A04F00DF818E06F
:1020B0000422511F00209FED131ADFED170A9FED38
:1020C000170A04F001F80CE00422511F01209FEDD3
:1020D0000A1ADFED130A9FED130A03F0F5FF00E083
:1020E00000BF00BF012010BD0405002000803B455B
:1020F0000000B4420080D4440000B4C20000834316
:1021000000000000000034430080544500400345B7
:1021100000A08C45000016C40000AF44004003C579
:10212000000096430000164410B501F02DFD6648EE
:1021300090ED1F0AD0ED340AB4EEE00AF1EE10FA89
:102140000CDD90ED200AD0ED350AB4EEE00AF1EE98
:1021500010FA03D20621C0F8981075E05A4890EDA5
:102160001F0AD0ED360AB4EEE00AF1EE10FA0CDDEB
:1021700090ED200AD0ED350AB4EEE00AF1EE10FA47
:1021800003DD0721C0F898105EE04F4890ED1F0A6C
:10219000D0ED360AB4EEE00AF1EE10FA0CD290ED72
:1021A000200AD0ED370AB4EEE00AF1EE10FA03DDB2
:1021B0000821C0F8981047E0434890ED1F0AD0ED81
:1021C000340AB4EEE00AF1EE10FA0CD290ED200AD7
:1021D000D0ED370AB4EEE00AF1EE10FA03D209218D
:1021E000C0F8981030E0384890ED200ADFED370A4B
:1021F000B4EEE00AF1EE10FA04DD9FED350AFFF7C8
:10220000FBFC21E0304890ED200ADFED320AB4EE0D
:10221000E00AF1EE10FA04D29FED2F0AFFF7ECFC72
:1022200012E0294890ED1F0ADFED2C0AB4EEE00A17
:10223000F1EE10FA04DD9FED2A0AFFF7DDFC03E062
:102240009FED280AFFF7D8FC1F48D0F89800062811
:1022500006D0072810D008281AD0092830D123E04A
:102260000422012100209FED1E1ADFED1F0A9FEDC1
:102270001F0A03F029FF24E00422012108469FEDF4
:10228000141ADFED1B0A9FED1B0A03F01DFF18E077
:102290000422511F00209FED131ADFED170A9FED56
:1022A000170A03F011FF0CE00422511F01209FEDDB
:1022B0000A1ADFED130A9FED130A03F005FF00E091
:1022C00000BF00BF012010BD0405002000803B4579
:1022D0000000B4420080D4440000B4C20000834334
:1022E0000000000000003443008054450080ED44AD
:1022F00000808945000016C40000AF440080EDC492
:102300000000FA430000164410B56048D0F8B00051
:1023100001285BD15E4890ED000ADFED5E0AB4EE65
:10232000E00AF1EE10FA23DD90ED000ADFED5A0A23
:10233000B4EEE00AF1EE10FA1AD2584890ED000A15
:10234000DFED570AB4EEE00AF1EE10FA10DD90ED81
:10235000000ADFED540AB4EEE00AF1EE10FA07D2FB
:102360004A48D0ED1E0AB0EE600A00F09DF88CE0FD
:10237000474890ED000ADFED470AB4EEE00AF1EEBF
:1023800010FA1BD390ED000ADFED430AB4EEE00A29
:10239000F1EE10FA12DC414890ED000ADFED400A40
:1023A000B4EEE00AF1EE10FA08D390ED000ADFED8A
:1023B0003D0AB4EEE00AF1EE10FA66DD3348D0EDE6
:1023C0001E0AB0EE600A00F051FA5EE02F48D0F825
:1023D000B00060BB2E4890ED000ADFED2E0AB4EE8F
:1023E000E00AF1EE10FA23DD90ED000ADFED2A0A93
:1023F000B4EEE00AF1EE10FA1AD2284890ED000A85
:10240000DFED270AB4EEE00AF1EE10FA10DD90EDF0
:10241000000ADFED240AB4EEE00AF1EE10FA07D26A
:102420001A48D0ED1E0AB0EE600A00F01FFA2CE048
:10243000174890ED000ADFED170AB4EEE00AF1EE5E
:1024400010FA1BD390ED000ADFED130AB4EEE00A98
:10245000F1EE10FA12DC114890ED000ADFED100ADF
:10246000B4EEE00AF1EE10FA08D390ED000ADFEDC9
:102470000D0AB4EEE00AF1EE10FA06DD0348D0EDE5
:102480001E0AB0EE600A00F00FF810BD040500202F
:10249000B40000200000AFC40000AF44B80000202A
:1024A0000000614400C0734510B52DED068BB0EE01
:1024B000408ACF480068401CCD490860CD4800687C
:1024C00030B1012879D0022876D0032872D123E1D7
:1024D0000020C7490860C84890ED1F0AC74880ED32
:1024E000000AC54890ED200AC54880ED000AC248A0
:1024F000D0F8B000012807D19FEDC20A38EE400A9B
:10250000C14880ED000A0AE0BB48D0F8B00030B9FD
:102510009FEDBC0A38EE000ABB4880ED000ABA48BD
:1025200090ED000ADFEDB90AB4EEE00AF1EE10FA20
:1025300008DD90ED000ADFEDB60A30EE600A80EDAE
:10254000000A11E0B04890ED000ADFEDB20AB4EEE7
:10255000E00AF1EE10FA07D290ED000ADFEDAC0AC6
:1025600030EE200A80ED000AA2480068401CA14914
:102570000860A54890ED000ABDEEC00A10EE102AD2
:10258000A5A1A74806F0DEFC9F4890ED000ABDEE2D
:10259000C00A10EE102AA0A1A14806F0D3FC9A4868
:1025A00090ED000ABDEEC00A10EE102A9AA19C48D8
:1025B00006F0C8FCF5E000E04FE000208C49086020
:1025C00098480068401C97490860974A012197483D
:1025D00006F090FD41F270720221944806F08AFDE7
:1025E00090480068642816DD00208E490860814804
:1025F0000068401C7F4908607F4890ED1F0A7F48B3
:1026000080ED000A7C4890ED200A7D4880ED000AAC
:102610000020774908607C4890ED000ABDEEC00AB2
:1026200010EE102A82A17E4806F08CFC764890EDD0
:10263000000ABDEEC00A10EE102A7DA1784806F00F
:1026400081FC714890ED000ABDEEC00A10EE102A20
:1026500077A1734806F076FCA3E0774890ED000A76
:10266000FFF7A2FABDEEC00A10EE104A2246012181
:102670006E4806F03FFD704890ED000AFFF794FAAF
:10268000BDEEC00A10EE104A22460221674806F04D
:1026900031FD694800680BF0EBFC41EC1A0BB0EE21
:1026A0004A0AF0EE6A0A07F0D3FBB0EE409AF0EE69
:1026B000609A9FED620B53EC102B51EC190B0BF051
:1026C000A5F907D24B480068401C4A490860002021
:1026D000474908604C4890ED000ABDEEC00A10EE74
:1026E000102A58A14E4806F02DFC474890ED000AEC
:1026F000BDEEC00A10EE102A52A1494806F022FC95
:10270000414890ED000ABDEEC00A10EE102A4DA11E
:10271000434806F017FC44E042F21072012143489E
:1027200006F0E8FC494A0221404806F0E3FC324842
:1027300090ED200AF0EE401A90ED1F0AB0EE401A1C
:102740002F48D0ED000A2D4890ED000A02F0D8FB8A
:10275000B0EE409AF0EE609A9FED3D0B53EC102BDB
:1027600051EC190B0BF08CFA0ED22348007820F0B4
:1027700020002149087000201E4908601C4908609B
:1027800001211D48C0F8881133A1254806F0DAFB65
:1027900031A1234806F0D6FB2FA1214806F0D2FB39
:1027A00000BF00BFF0EE480A174890ED000A09F09C
:1027B000C7F8214880ED000A0E4829A10268184890
:1027C00006F0C0FB0A480068FA280EDD0A480078C7
:1027D00020F02000084908700020064908600449DC
:1027E000086001210448C0F88811BDEC068B10BDBB
:1027F000EC000020E000002004050020D8000020AC
:10280000DC00002000003442E400002000003443DB
:102810000000B443000034C36765742564090000F8
:1028200000500040F000002090E8FFFF00680040EA
:102830006765743225640900E8000020000000008C
:10284000000014406765743325640900F0D8FFFF69
:102850000000000000C07240676574340900000089
:1028600065703D2564090D0A0000000010B52DEDCE
:10287000068BB0EE408ACC480068401CCA4908600C
:10288000F0EE480AC94890ED000A09F059F8C84826
:1028900080ED000AC748006830B1012876D00228D0
:1028A00073D003286FD11CE1C34890ED1F0AC348C1
:1028B00080ED000AC04890ED200AC14880ED000A72
:1028C000BD48D0F8B000012807D19FEDBE0A38EE10
:1028D000000AB64880ED000A0AE0B748D0F8B00018
:1028E00030B99FEDB80A38EE400AB04880ED000AD2
:1028F000AE4890ED000ADFEDB40AB4EEE00AF1EE66
:1029000010FA08DD90ED000ADFEDB00A30EE600A43
:1029100080ED000A11E0A54890ED000ADFEDAC0A59
:10292000B4EEE00AF1EE10FA07D290ED000ADFED06
:10293000A70A30EE200A80ED000A9E480068401C7D
:102940009C490860994890ED000ABDEEC00A10EE5F
:10295000102AA0A1A14806F0F5FA944890ED000ACB
:10296000BDEEC00A10EE102A9AA19C4806F0EAFAC1
:102970008E4890ED000ABDEEC00A10EE102A95A117
:10298000964806F0DFFAF1E000E04BE0944800687A
:10299000401C93490860934A0121934806F0AAFB22
:1029A00042F210720221904806F0A4FB8C480068A5
:1029B000642815DD7F480068401C7E4908607E4819
:1029C00090ED1F0A7D4880ED000A7B4890ED200ABB
:1029D0007B4880ED000A0020734908608049086048
:1029E000724890ED000ABDEEC00A10EE102A7FA1D9
:1029F0007A4806F0A7FA6D4890ED000ABDEEC00ACD
:102A000010EE102A79A1754806F09CFA674890EDFF
:102A1000000ABDEEC00A10EE102A74A16F4806F03D
:102A200091FAA3E0624890ED000AFFF7BDF8BDEE11
:102A3000C00A10EE104A224601216B4806F05AFBEC
:102A40005B4890ED000AFFF7AFF8BDEEC00A10EE4C
:102A5000104A22460221644806F04CFB54480068A4
:102A60000BF006FB41EC1A0BB0EE4A0AF0EE6A0AD4
:102A700007F0EEF9B0EE409AF0EE609A9FED5D0B34
:102A800053EC102B51EC190B0AF0C0FF07D2494848
:102A90000068401C474908600020434908604348DB
:102AA00090ED000ABDEEC00A10EE102A53A14B486B
:102AB00006F048FA3D4890ED000ABDEEC00A10EE5F
:102AC000102A4EA1454806F03DFA384890ED000A1C
:102AD000BDEEC00A10EE102A48A1404806F032FAB6
:102AE00044E042F2107201213F4806F003FB3D4AE8
:102AF00002213D4806F0FEFA2F4890ED200AF0EE44
:102B0000401A90ED1F0AB0EE401A2D48D0ED000A91
:102B10002A4890ED000A02F0F3F9B0EE409AF0EE88
:102B2000609A9FED380B53EC102B51EC190B0BF006
:102B3000A7F80ED22048007820F020001E49087027
:102B400000201C4908601849086001211A48C0F893
:102B500088112EA1214806F0F5F92CA11F4806F096
:102B6000F1F92AA11D4806F0EDF900BF00BF114898
:102B700028A10268194806F0E5F90B480068FA2810
:102B80000EDD0D48007820F020000B490870002071
:102B9000084908600449086001210748C0F8881105
:102BA000BDEC068B10BD00000801002000010020D4
:102BB00004010020FC00002004050020F400002097
:102BC000F800002000003442000034430000B44309
:102BD000000034C36765742564090000005000409C
:102BE0000C010020F0D8FFFF0068004067657432D8
:102BF000256409000000000000001440676574337C
:102C0000256409000000000000C07240676574344C
:102C10000900000065703D2564090D0A00000000F0
:102C20001CB50121102004F017F98020009001202C
:102C30008DF8040000208DF8060003208DF80500B3
:102C400002208DF807006946034802F0BBFB802193
:102C5000014802F02BFC1CBD0010024000BFFEE743
:102C600010B53F4803783F4A3F49404800F0B4FC64
:102C70003D480068302803D13A4908780AF0E6F95F
:102C80003948006840F28721884215D135480068EC
:102C900045F6500188420FD1324890ED010AB8EE56
:102CA000C00ADFED330A20EE200ADFED320A80EEA3
:102CB000201A314880ED061A2B480068B0F5227FB3
:102CC0000DD12848006845F65601884207D12548AD
:102CD00090ED010AB8EEC00A274880ED670A224845
:102CE000006840F2862188420DD11E48006845F6F2
:102CF0005001884207D11B4890ED010AB8EEC00A86
:102D00001D4880ED0B0A1D49184800F0B7F81B4913
:102D1000491C164800F0B2F81849C91C134800F0C5
:102D2000ADF81749114800F0A9F816490F4800F00E
:102D3000A5F815490D4800F0A1F8134908310B48D2
:102D400000F09CF81149094800F098F8104907482C
:102D500000F094F80E490831044800F08FF810BDD7
:102D60004004002038040020440400200064004097
:102D70000000B44200008045040500200100F0106E
:102D80007000F0300300001208000032030000144D
:102D9000080000341CB52E4803786A462D492E4899
:102DA00000F01AFC2B48006840F2822188420BD1C7
:102DB00045F656010098884206D19DED010AB8EE0D
:102DC000C00A264880ED180A2248006840F2812196
:102DD000884210D122480068401C2149086045F60D
:102DE00056010098884206D19DED010AB8EEC00A4E
:102DF0001A4880ED1B0A1B49174800F03FF8194993
:102E0000491C154800F03AF81649C91C124800F050
:102E100035F81549104800F031F814490E4800F013
:102E20002DF813490C4800F029F8114908310A48D7
:102E300000F024F80F49084800F020F80E49064831
:102E400000F01CF80C490831034800F017F81CBDCD
:102E50004C040020480400200068004004050020C5
:102E6000100400200100F0107000F0300300001288
:102E700008000032030000140800003400220C4B4C
:102E8000994202D10023836111E0C1F3130201F0E2
:102E900000730BB1C2600AE001F080630BB1026104
:102EA00005E001F000630BB1826000E04260704712
:102EB0007000F0302DE9F04F8BB006460F461446F7
:102EC0001D46DDF850804FF00009CA46CB46B5F5E7
:102ED000807F43D012DC102D34D008DC012D25D0AA
:102EE000022D26D0042D27D0082D4FD127E0202DEC
:102EF0002BD0402D2CD0802D48D12CE0B5F5805F13
:102F000038D009DCB5F5007F2BD0B5F5806F2BD01C
:102F1000B5F5006F3AD12AE0B5F5005F2DD0B5F5D3
:102F2000804F2DD0B5F5004F30D12CE04FF0000987
:102F30002DE04FF001092AE04FF0020927E04FF0A1
:102F4000030924E04FF0040921E04FF005091EE0D9
:102F50004FF006091BE04FF0070918E04FF0080991
:102F600015E04FF0090912E04FF00A090FE04FF0A9
:102F70000B090CE04FF00C0909E04FF00D0906E0D9
:102F80004FF00E0903E04FF00F0900E000BF00BF53
:102F9000B8F5807F4BD01ADCB8F1100F3BD00CDCB9
:102FA000B8F1010F2BD0B8F1020F2BD0B8F1040FFC
:102FB0002BD0B8F1080F52D12AE0B8F1200F2DD054
:102FC000B8F1400F2DD0B8F1800F48D12CE0B8F502
:102FD000805F38D009DCB8F5007F2BD0B8F5806F62
:102FE0002BD0B8F5006F3AD12AE0B8F5005F2DD0AC
:102FF000B8F5804F2DD0B8F5004F30D12CE04FF010
:10300000000A2DE04FF0010A2AE04FF0020A27E003
:103010004FF0030A24E04FF0040A21E04FF0050AC4
:103020001EE04FF0060A1BE04FF0070A18E04FF0D1
:10303000080A15E04FF0090A12E04FF00A0A0FE003
:103040004FF00B0A0CE04FF00C0A09E04FF00D0AAC
:1030500006E04FF00E0A03E04FF00F0A00E000BF59
:1030600000BF7F48304418B1B0F5806F1AD10CE032
:103070004FF0090B00208DF8120014208DF8040089
:103080000121480603F0F8FE0DE04FF0090B0E2079
:103090008DF8120040208DF804000121000503F096
:1030A000EBFE00E000BF00BFC4F3090078BBA01234
:1030B000A0F580108038092834D2DFE800F0050A36
:1030C0000F14191E23292E000121084603F0C4FE07
:1030D00029E00121022003F0BFFE24E001210420A9
:1030E00003F0BAFE1FE00121082003F0B5FE1AE04C
:1030F0000121102003F0B0FE15E00121202003F093
:10310000ABFE10E00121402003F0A6FE0BE009E039
:103110000121802003F0A0FE05E00121080203F058
:103120009BFE00E000BF00BF5A464946204602F021
:1031300091F95A465146204602F08CF945EA0800BA
:10314000099002208DF828008DF8290000208DF8C4
:103150002A0001208DF82B0009A9204602F032F93F
:10316000304600F07FF800208DF81E008DF81F001B
:103170008DF820008DF821008DF822008DF82300B5
:103180008DF81A008DF81B000B208DF81C0007200D
:103190008DF81D007D2F22D008DC0A2F0FD0142FB0
:1031A00011D0322F13D0642F29D114E0FA2F1AD066
:1031B000B7F5FA7F1BD0B7F57A7F20D11BE0C82086
:1031C000ADF818001CE06420ADF8180018E02820C5
:1031D000ADF8180014E01420ADF8180010E010202D
:1031E000ADF818000CE00820ADF8180008E0042045
:1031F000ADF8180004E00220ADF8180000E000BFB0
:1032000000BF06A9304600F0D6F800208DF8130064
:1032100001208DF814000020ADF80800ADF80A0078
:10322000ADF80C00ADF80E00ADF8100001208DF8DF
:10323000150002A800F032F802208DF805000320E6
:103240008DF8060001208DF8070001A803F00EF9A3
:1032500001220221304600F0A5F80BB0BDE8F08F46
:10326000009CFFBF10B504460B48844209D10121E0
:10327000480603F011FE00214FF0007003F00CFE31
:1032800008E00121880603F007FE00214FF080606E
:1032900003F002FE10BD00000064004010B50021E4
:1032A000837A012202FA03F13D4A126842F00102D8
:1032B0003B4B1A603A4A1C3212688A43384B1C3323
:1032C0001A60027BCAB9364A0C3212688A43344B00
:1032D0000C331A604288C38842EA0343304A4032C2
:1032E000847A42F834300288838842EA03432C4AC5
:1032F0004032847A02EBC4025360027B012A19D166
:10330000274A0C3212680A43254B0C331A60428854
:10331000038842EA0343224A4032847A42F8343036
:10332000C288838842EA03431D4A4032847A02EB12
:10333000C4025360C27A3AB9194A121D12688A430C
:10334000174B1B1D1A6006E0154A121D12680A432E
:10335000134B1B1D1A60028932B9114A14321268CC
:103360008A430F4B14331A600289012A06D10C4A92
:10337000143212680A430A4B14331A60427B012A42
:1033800006D1074A1C3212680A43054B1C331A60E7
:10339000034A126822F00102014B1A6010BD0000BE
:1033A000006600401AB143690B43436102E0436980
:1033B0008B434361704730B50246002000231468F8
:1033C00024F002041460146844F00104146000E066
:1033D0005B1C546804F001041CB94FF6FF74A3424F
:1033E000F6D1546804F001040CB900206CE08C792B
:1033F000012C04D1146844F08004146003E01468C4
:1034000024F080041460CC79012C04D1146844F0B9
:103410004004146003E0146824F0400414600C7A43
:10342000012C04D1146844F02004146003E01468F3
:1034300024F0200414604C7A012C04D1146844F068
:103440001004146003E0146824F0100414608C7AF3
:10345000012C04D1146844F00804146003E01468DB
:1034600024F008041460CC7A012C04D1146844F0D0
:103470000404146003E0146824F0040414608C78DD
:10348000A407CD7844EA05640D7944EA05444D79F2
:1034900044EA05540D886D1E2C43D461146824F051
:1034A00001041460002300E05B1C546804F0010474
:1034B0001CB14FF6FF74A342F6D1546804F0010426
:1034C0000CB1002000E0012030BD0246002019B9F7
:1034D000D36803F0030006E0012903D1136903F068
:1034E000030000E00020704710B500F5D87303EB2F
:1034F00001131B6803F004031372137A53B900F528
:10350000D87303EB01131B6840F2FF7404EA5353B2
:10351000136009E000F5D87303EB01131B686FF02B
:10352000604404EAD303536000F5D87303EB01133E
:103530001B6803F00203537200F5D87303EB011309
:103540005B6803F00F03937200F5D87303EB01136C
:103550005B681B0AD37400F5D87303EB01139B68F7
:10356000D37200F5D87303EB01139B681C0A147324
:1035700000F5D87303EB01139B681C0C547300F522
:10358000D87303EB01139B681B0E937300F5D8737C
:1035900003EB0113DB68D37300F5D87303EB01135E
:1035A000DB681C0A147400F5D87303EB0113DB68A5
:1035B0001C0C547400F5D87303EB0113DB681B0E6D
:1035C000937421B9C36843F02003C36003E0036927
:1035D00043F02003036110BD2DE9F04186B0804621
:1035E0000D4616461F46002400214046FFF76DFF9A
:1035F00018B9002006B0BDE8F08101AA00214046BC
:10360000FFF772FF002405E00DF10F00005D30555B
:10361000601CC4B2BC42F7DB019828600120E9E7D6
:1036200010B502460020936803F08063B3F1806F09
:1036300000D110E0936803F00063B3F1006F01D193
:10364000012008E0936803F08053B3F1805F01D15B
:10365000022000E00420042874D002F5C07303EBBC
:1036600000131B6803F0010402F5C07303EB0013A1
:103670001C600B7A7BB94B7A0C8843EA445302F501
:10368000C07404EB00142468234302F5C07404EBF7
:103690000014236010E00B7A4C6843EAC4034C7AB0
:1036A000234302F5C07404EB00142468234302F59D
:1036B000C07404EB001423608B7A03F00F038B7249
:1036C00002F5C07303EB00135B6823F00F0402F5EF
:1036D000C07303EB00135C6002F5C07303EB0013CF
:1036E0005B688C7A234302F5C07404EB00146360BA
:1036F0008B7B1C064B7B44EA03440B7B44EA03238D
:10370000CC7A234302F5C07404EB0014A3608B7CD5
:103710001C064B7C44EA03440B7C44EA0323CC7B29
:10372000234302F5C07404EB0014E36002F5C07398
:1037300003EB00131B6843F0010402F5C07303EBB5
:1037400000131C6010BD000010B50246002321B11B
:10375000012907D002290FD109E090681D4C00EA29
:1037600004030BE090681C4C00EA040306E0906838
:103770001A4C00EA040301E0002300BF00BF184C0C
:10378000181BA34216D007DC83B16FF08060184489
:1037900070B1022818D111E0B0F5007F10D0114CA3
:1037A000204448B1B0F5003F0ED10BE002230DE0FC
:1037B00000230BE0002309E0002307E0012305E0DC
:1037C000012303E0012301E0002300BF00BFD8B2C2
:1037D00010BD0000030000040003000800000310F7
:1037E000000100080001FFF72DE9F04385B0814694
:1037F0000D4690461E4600240095019500208DF848
:1038000008008DF809008DF80A6000BF06E018F87E
:1038100004100DF10B000155601C84B2B442F6DBBC
:1038200069464846FFF7FCFE0746002400BF3946BC
:103830004846FFF789FF0128F9D105B0BDE8F083BC
:1038400010B502F06FF801280ED100F085FB074992
:10385000C1F8B8010846007820F04000087008461A
:10386000007840F02000087010BD00000405002022
:1038700010B588B004460121082003F0EDFA0121BB
:10388000480403F0F9FA07220521244801F0E2FD7B
:1038900007220621214801F0DDFD6020069002206C
:1038A0008DF81C008DF81D0000208DF81E000120F1
:1038B0008DF81F0006A9194801F084FD029400202C
:1038C000ADF80C00ADF80E00ADF81000ADF8140026
:1038D0000C20ADF8120002A9114805F0C9FA4021E8
:1038E0000F4805F0E1F926208DF8040000208DF83E
:1038F000050002208DF8060001208DF8070001A8C0
:1039000002F0B4FD012240F22551054805F08BFA82
:103910000121034805F0E0F908B010BD000C024099
:103920000044004070B52DED0C8BB0EE409AF0EEE7
:10393000609AB0EE41AA04468C4890ED000A60EE11
:10394000000AB1EE001A80EE810A8948D0ED000A23
:1039500090ED001A00EE810A10EE105A28460AF087
:1039600087FB41EC1C0BB0EE4C0AF0EE6C0A07F042
:1039700037FAB0EE40BAF0EE60BA51EC1B0B09F02A
:1039800069FD0AEE900ADFED7B0A8AEE200ADFED80
:103990007A0A20EE200AB0EE40DA9FED780A3AEE7D
:1039A000000AB0EE408A9FED750A3AEE000AF0EE8A
:1039B000408A9FED700AB4EEC08AF1EE10FA06DB81
:1039C0009FED6F0A38EE400AB0EE408A0CE09FEDA2
:1039D0006D0AB4EEC08AF1EE10FA05D89FED680AC0
:1039E00038EE000AB0EE408A9FED620AF4EEC08A1B
:1039F000F1EE10FA06DB9FED620A38EEC00AF0EE37
:103A0000408A0CE09FED5F0AF4EEC08AF1EE10FAF6
:103A100005D89FED5B0A38EE800AF0EE408A5348E5
:103A2000D0ED000AB0EE001A80EE810A5048D0EDC9
:103A3000000A80EE201AB0EE41BAB0EE4B0A06F052
:103A40002FF89FED4C1AC8EE010A9FED4B1A10EEAD
:103A5000810AB0EE408A4548D0ED000AB0EE001A67
:103A600080EE810A4248D0ED000A80EE201AB0EEC6
:103A700041BAB0EE4B0A06F013F89FED3E1AC8EEBD
:103A8000810A9FED3D1A00EE810AF0EE408A374828
:103A900090ED000AF0EE000A80EE20BAB0EE4D0A7A
:103AA00006F02EF9F0EE490A4BEE400AC4ED020A88
:103AB0002E4890ED000AF0EE000A80EE20BAB0EE3B
:103AC0004D0A07F0C5F8F0EE690A4BEE400AC4ED66
:103AD000030A264890ED000AF0EE000A80EE20BAB4
:103AE000B0EE4D0A06F00CF9F0EE490A4BEE000A72
:103AF000C4ED040A1D4890ED000AF0EE000A80EEC5
:103B000020BAB0EE4D0A07F0A3F8F0EE690A4BEECA
:103B1000000AC4ED050AB0EE680A06F0F1F8F0EE0E
:103B2000490A4AEE800AC4ED000AB0EE680A07F0BE
:103B30008FF8F0EE690A4AEE800AC4ED010AB0EE91
:103B4000480A06F0DDF8F0EE490A4AEE800AC4EDB4
:103B5000060AB0EE480A07F07BF8F0EE690A4AEE72
:103B6000800AC4ED070ABDEC0C8B70BD3401002047
:103B70003001002000003443DB0F49400000B44214
:103B80000000B443000034C33048D0F8B00058BB44
:103B90002E48D0F8A40088B99FED2D0A2B4880ED5F
:103BA000300A9FED2C0A80ED310A9FED2B0A80ED43
:103BB000320A9FED2A0A80ED330A45E02348D0F807
:103BC000A40058B39FED260A204880ED340A9FEDEB
:103BD000250A80ED350A9FED240A80ED360A9FED17
:103BE000230A80ED370A2FE01848D0F8B0000128EA
:103BF0002AD11648D0F8A40088B99FED170A1348B7
:103C000080ED300A9FED130A80ED310A9FED100A16
:103C100080ED320A9FED110A80ED330A14E00B4863
:103C2000D0F8A40080B19FED120A084880ED340A54
:103C30009FED100A80ED350A9FED0F0A80ED360AE0
:103C40009FED0E0A80ED370A704700000405002042
:103C50000000C8C2004035450000C8420080ED4465
:103C600000C08AC400E05D4500C08A4400409C4416
:103C70000000614400404E45000061C40080BB4428
:103C800010B52DED048BA0480068401C9E490860CB
:103C900008F018FF9D48D0ED1F0A30EEC00A10EE64
:103CA000104A20460AF0E4F941EC190BB0EE490A3B
:103CB000F0EE690A06F0CCF8B0EE408AF0EE608AC9
:103CC0009FED930B53EC102B51EC180B09F09EFE5B
:103CD0003BD208F0FDFE8D48D0ED200A30EEC00A40
:103CE00010EE104A20460AF0C3F941EC190BB0EE71
:103CF000490AF0EE690A06F0ABF8B0EE408AF0EE41
:103D0000608A9FED830B53EC102B51EC180B09F0DC
:103D10007DFE1AD27D4890ED1D0AB5EEC00AF1EE87
:103D200010FA12D004217C4801F0B7FB20B1042125
:103D3000794801F0B2FB40B978480068401C7749E7
:103D4000086000207649086002E00020734908609E
:103D500008F0B8FE6D48D0ED1F0A30EEC00A10EE34
:103D6000104A20460AF084F941EC190BB0EE490ADA
:103D7000F0EE690A06F06CF8B0EE408AF0EE608A68
:103D80009FED630B53EC102B51EC180B09F03EFE2A
:103D90003DD208F09DFE5D48D0ED200A30EEC00A0D
:103DA00010EE104A20460AF063F941EC190BB0EE10
:103DB000490AF0EE690A06F04BF8B0EE408AF0EEE0
:103DC000608A9FED530B53EC102B51EC180B09F04C
:103DD0001DFE1CD24D4890ED1D0AB5EEC00AF1EE55
:103DE00010FA14D004214C4801F057FB01280ED1E1
:103DF00001214C4801F051FB012808D148480068D6
:103E0000401C4749086000204449086002E0002047
:103E100043490860424800681E2808DD00204049E8
:103E20000860394908600120BDEC048B10BD3B4897
:103E30000068B0F5AF7F06DD0020384908603249E0
:103E400008600220F0E7364837A102683A4805F0DA
:103E500079F8324839A10268374805F073F82A48E2
:103E60003AA10268344805F06DF827480068B0F5BB
:103E70007A7F46DD08F026FE2448D0ED1F0A30EE9A
:103E8000C00A10EE104A20460AF0F2F841EC190B75
:103E9000B0EE490AF0EE690A05F0DAFFB0EE408AAA
:103EA000F0EE608A9FED1A0B53EC102B51EC180BBF
:103EB00009F0ACFD25D208F00BFE1448D0ED200A25
:103EC00030EEC00A10EE104A20460AF0D1F841EC5C
:103ED000190BB0EE490AF0EE690A05F0B9FFB0EE31
:103EE000408AF0EE608A9FED0A0B53EC102B51ECE8
:103EF000180B09F08BFD04D2002003490860012053
:103F000092E7002090E70000100000200405002048
:103F10000000000000000840001002400C000020DB
:103F20000800002000080240616761696E737454E4
:103F3000696D652564090000005000406167616992
:103F40006E73744572726F7225640900746F7461C8
:103F50006C2564090D0A00002DE9F0432DED048B5A
:103F600091B0954890ED1F0AB0EE408A90ED200A7E
:103F7000F0EE408A90ED1E0AB0EE409A202109A88A
:103F8000FCF7D2F900200590069007900890019068
:103F90000290039004900024002609A8B0EE491A6C
:103FA000F0EE680AB0EE480AFFF7BCFC00274FF0BD
:103FB00003082CE000254FF0030924E0DFF8FCC1E2
:103FC0000CEBC9000CEBC5010DF1240C0CEBC80285
:103FD0000CEBC703D0ED013A90ED003AD1ED012A88
:103FE00091ED002AD2ED011A92ED001AD3ED010AEB
:103FF00093ED000A00F002F918B1012005A941F87B
:104000002500A9466D1C032DD8DDB8467F1C032F63
:10401000D0DD00274FF003082CE000254FF0030906
:1040200024E0DFF89CC10CEBC9000CEBC5010DF1DD
:10403000240C0CEBC8020CEBC703D0ED013A90ED59
:10404000003AD1ED012A91ED002AD2ED011A92ED4C
:10405000001AD3ED010A93ED000A00F0CFF818B171
:10406000012001A941F82500A9466D1C032DD8DDCA
:10407000B8467F1C032FD0DD0598012808D006988C
:10408000012805D00798012802D00898012801D1FD
:10409000022400E00024022C0ED00198012808D050
:1040A0000298012805D00398012802D0049801281D
:1040B00001D1012400E00024022C20D1DDE905011A
:1040C0000844079908440899084402283BD1DDE9CF
:1040D0000501084402280ED0DDE906010844022843
:1040E00009D0DDE907010844022804D005990898A1
:1040F0000844022801D1022625E0002623E0012CF5
:1041000020D1DDE9010108440399084404990844D9
:10411000022818D1DDE90101084402280ED0DDE9AA
:1041200002010844022809D0DDE9030108440228FD
:1041300004D0019904980844022801D1012602E024
:10414000002600E00026022C03D102201D49086051
:1041500009E0012C03D101201A49086003E014B9D9
:1041600003201849086026B91648006815490860F8
:104170000AE0012E03D104201249086004E0022E57
:1041800002D105200F49086032460FA1124804F001
:10419000D9FE224611A1104804F0D4FE094813A10B
:1041A00002680D4804F0CEFE0648006811B0BDEC70
:1041B000048BBDE8F083000004050020940000207B
:1041C00074000020BC000020737469636B436F723D
:1041D0006E6F723D2564090000500040696E746581
:1041E00072736563743D256409000000737469632C
:1041F0006B5374617475733D2564090010B52DED22
:10420000080B2DED048B9DED0A0ADDED060A30EE5C
:10421000600ADDED050A9DED071A70EEC10A20EE79
:10422000200ADDED040A9DED061A70EEC10A9DED2F
:104230000B1ADDED071A31EE611A00EEC10ADDED51
:10424000080A9DED061A70EEC10A9DED051ADDED16
:10425000071A31EE611A60EE810A9DED041ADDED58
:10426000061A31EE611ADDED091A9DED072A71EE8D
:10427000C21A41EE610A20EE200AB0EE408A9DED9E
:10428000040ADDED0A0A30EE600ADDED090A9DED53
:104290000B1A70EEC10A20EE200ADDED080A9DED32
:1042A0000A1A70EEC10A9DED051ADDED0B1A31EE0A
:1042B000611A00EEC10ADDED060A9DED0A1A70EEE4
:1042C000C10A9DED091ADDED0B1A31EE611A60EE9F
:1042D000810A9DED081ADDED0A1A31EE611ADDED55
:1042E000071A9DED0B2A71EEC21A41EE610A20EE0B
:1042F000200AF0EE408A9DED061AF0EE410A9DED8F
:10430000041AB0EE410A02F041F8B0EE409A9DED79
:104310000A1AF0EE410A9DED081AB0EE410A02F0C9
:104320004DF8B4EEC09AF1EE10FA5FDB9DED0A1A7B
:10433000F0EE410A9DED081AB0EE410A02F026F8AF
:10434000B0EE409A9DED061AF0EE410A9DED041A7A
:10435000B0EE410A02F032F8B4EEC09AF1EE10FA73
:1043600044DB9DED071AF0EE410A9DED051AB0EE13
:10437000410A02F00BF8B0EE409A9DED0B1AF0EEF8
:10438000410A9DED091AB0EE410A02F017F8B4EEA9
:10439000C09AF1EE10FA29DB9DED0B1AF0EE410AFE
:1043A0009DED091AB0EE410A01F0F0FFB0EE409A1F
:1043B0009DED071AF0EE410A9DED051AB0EE410A97
:1043C00001F0FCFFB4EEC09AF1EE10FA0EDBB5EE90
:1043D000C08AF1EE10FA09D8F5EEC08AF1EE10FAB3
:1043E00004D80120BDEC048B08B010BD0020F9E713
:1043F00010B52DED028BB0EE408AF0EE608A1248C7
:10440000D0F89800042802D0052816D10AE0DFED84
:104410000F1A9FED0F1AF0EE680AB0EE480A03F08B
:10442000B9F80BE0DFED091A9FED091AF0EE680A02
:10443000B0EE480A03F0AEF800E000BF00BF012074
:10444000BDEC028B10BD00000405002000001645E5
:1044500000000000F0EE400A0E4890ED000A20EE49
:10446000200A0D4890ED001AB8EEC11A30EEC11ABC
:104470000A48D0ED001A01EE810A094880ED000AD1
:10448000BDEEE00A044880ED000A054890ED000A00
:10449000704700006C0200206802002070020020BB
:1044A0007402002010B5FDF72FFF10BD10B507F006
:1044B00087FA1F48D0F8A40010B903F089FA26E063
:1044C0001B48D0F8A40001280AD104211848C0F8DC
:1044D0009810DFED180A9FED180AFFF789FF16E024
:1044E0001348D0F8A40002280AD105211048C0F8CA
:1044F0009810DFED120A9FED100AFFF779FF06E032
:104500000B48D0F8A400032801DB03F049FB08485E
:10451000D0F8A400042809D10548007820F0010053
:104520000349087000210248C0F8981010BD00002F
:1045300004050020000048440000FA44008089443B
:1045400010B52DED028BB0EE408AB0EE480A00F0B7
:104550000FF8BDEEC00A10EE104A224608210348AB
:1045600004F0C8FDBDEC028B10BD000000640040EB
:10457000F0EE400A9FED020A20EE800A704700002C
:1045800000008045024640F21220824201DB824256
:1045900003DA00200A4B186002E00120084B186083
:1045A00040F21220814201DB814203DA0020044BF9
:1045B000186002E00120024B186001480068704753
:1045C0004002002010B52DED048B5248006800BB5E
:1045D0005148D0F8B00050B94F4890ED1E0ADFEDB9
:1045E0004F0A30EE200A4E4880ED000A0EE04A489D
:1045F000D0F8B000012809D1474890ED1E0ADFED40
:10460000470A30EE600A464880ED000A0120414921
:104610000860414890ED1E0AF0EE400A404890EDD7
:10462000000A07F08DF93F4880ED000A3E48006817
:10463000401C3D4908600846006864280BDA3B4A84
:1046400001213B4804F056FD42F210720221384825
:1046500004F050FD49E034480068642845DB3148E7
:1046600090ED000AFDF7A0FABDEEC00A10EE104A68
:10467000224601212E4804F03DFD2A4890ED000A13
:10468000FDF792FABDEEC00A10EE104A2246022152
:10469000274804F02FFD2348006809F0E9FC41ECAD
:1046A000190BB0EE490AF0EE690A05F0D1FBB0EE45
:1046B000408AF0EE608A9FED1F0B53EC102B51ECFB
:1046C000180B09F0A3F910D200201249086016490E
:1046D000086001211048C0F88811007820F02000FF
:1046E0000D49087000201549086014480068FA2830
:1046F0000CDD0948007820F02000074908700020F0
:104700000E49086001210448C0F88811BDEC048BF3
:1047100010BD0000680100200405002000003442A4
:1047200060010020640100206C010020F0D8FFFF30
:1047300000680040000000000000144070010020EC
:1047400010B52DED048BC248007800F097000028CA
:104750007ED0C048006820B101281CD0022819D1A1
:10476000E5E0BB4890ED1F0ABB4880ED000AB84861
:1047700090ED200AB94880ED000AB54890ED1E0A78
:10478000B74880ED000A0120B2490860B5A1B748DA
:1047900004F0D8FB57E1B6480068401CB4490860F3
:1047A000AB4890ED1F0AAC48D0ED000A30EE600A2D
:1047B00010EE101A084609F05BFC41EC190BB0EE44
:1047C000490AF0EE690A05F043FBB0EE408AF0EECC
:1047D000608A9FEDA80B53EC102B51EC180B09F0DD
:1047E00015F94BD29A4890ED200A9C48D0ED000A6A
:1047F00030EE600A10EE101A084609F039FC41EC60
:10480000190BB0EE490AF0EE690A05F021FBB0EE93
:10481000408AF0EE608A9FED970B53EC102B51EC21
:10482000180B09F0F3F829D2894890ED1E0A8C483C
:10483000D0ED000A30EE600A10EE101A084609F0BA
:1048400017FC41EC190BB0EE490AF0EE690A00E0E2
:10485000FAE005F0FDFAB0EE408AF0EE608A9FEDD6
:10486000870B53EC102B51EC180B09F0CFF805D245
:1048700084480068401C8349086002E000208149A8
:1048800008607B480068322814DD00207849086001
:104890006F4890ED1F0A704880ED000A6C4890ED5B
:1048A000200A6E4880ED000A694890ED1E0A6C48A7
:1048B00080ED000A73480068B0F5FA7F05DB02203E
:1048C0006449086000206F4908606FA1674804F0E0
:1048D00039FB634890ED000ABDEEC00A10EE102AC5
:1048E0006BA1624804F02EFB5B4890ED000ABDEE20
:1048F000C00A10EE102A66A15C4804F023FB57485A
:1049000090ED000ABDEEC00A10EE102A60A15748D3
:1049100004F018FB5B485EA10268544804F012FBE7
:104920004C485CA10268514804F00CFB8BE05BA191
:104930004E4804F007FB464890ED1F0A4648D0ED6C
:10494000000A30EE600A10EE101A084609F090FBDB
:1049500041EC190BB0EE490AF0EE690A05F078FA5D
:10496000B0EE408AF0EE608A9FED420B53EC102BC4
:1049700051EC180B09F084F94CD2354890ED200A1F
:104980003648D0ED000A30EE600A10EE101A0846E4
:1049900009F06EFB41EC190BB0EE490AF0EE690A22
:1049A00005F056FAB0EE408AF0EE608A9FED310BCA
:1049B00053EC102B51EC180B09F062F92AD2244861
:1049C00090ED1E0A2648D0ED000A30EE600A10EE87
:1049D000101A084609F04CFB41EC190BB0EE490ADD
:1049E000F0EE690A05F034FAB0EE408AF0EE608A23
:1049F0009FED220B53EC102B51EC180B09F040F9F2
:104A000008D228480068401C264908600020114947
:104A1000086002E0002023490860224800680A2854
:104A200008DD00200B4908600948007840F01000BC
:104A3000074908700648007820F010000449087003
:104A400007F07CF900BF00BFBDEC048B10BD000077
:104A500004050020D8040020E4040020E80400201D
:104A6000EC04002063617365300D0A0000500040C3
:104A7000E0040020000000000000244000000000CE
:104A800000000840DC040020636173653109000008
:104A90002564090025640D0A000000006361736548
:104AA000320D0A00F004002010B52DED048B5248A1
:104AB000006800BB5148D0F8B00050B94F4890EDA5
:104AC0001E0ADFED4F0A30EE600A4E4880ED000A04
:104AD0000EE04A48D0F8B000012809D1474890EDCF
:104AE0001E0ADFED470A30EE200A464880ED000A34
:104AF000012041490860414890ED1E0AF0EE400A4D
:104B0000404890ED000A06F01BFF3F4880ED000A88
:104B10003E480068401C3D490860084600689628E9
:104B20000BDA3B4A01213B4804F0E4FA42F21072EE
:104B30000221384804F0DEFA4AE03448006896283A
:104B400046DB314890ED000AFDF72EF8BDEEC00AB5
:104B500010EE104A224601212E4804F0CBFA2A48D2
:104B600090ED000AFDF720F8BDEEC00A10EE104AE5
:104B700022460221274804F0BDFA2348006809F0C4
:104B800077FA41EC190BB0EE490AF0EE690A05F02C
:104B90005FF9B0EE408AF0EE608A9FED1F0B53EC98
:104BA000102B51EC180B08F031FF11D200201249E4
:104BB0000860164908601148007820F020000F496D
:104BC000087000201649086001210C48C0F88811BF
:104BD00013480068FA280CDD0848007820F020000F
:104BE0000649087000200E49086001210348C0F8FA
:104BF0008811BDEC048B10BD7C0100200405002051
:104C0000000034427401002078010020800100205F
:104C1000F0D8FFFF006800400000000000001440D2
:104C20008401002010B50749074800F0EBF838B1BF
:104C30000021054800F024F80249034800F006F876
:104C400010BD000000800028B86002400246094BF9
:104C50009A4201D2084801E00648103801F000539A
:104C60001BB1064B0B40C36002E0044B0B4083605A
:104C70007047000010640240006002407D0F7D0F0D
:104C800021B1026842F00102026003E0026822F0F2
:104C90000102026070470000016821F0010101601B
:104CA0000021016041608160C16001612121416199
:104CB0004A49884204D13D21484A103A91608CE02B
:104CC00046491831884205D14FF47461434A103A7D
:104CD000916082E041493031884205D14FF474112E
:104CE0003E4A103A916078E03C494831884205D10B
:104CF0004FF07461394A103A91606EE03749603183
:104D0000884204D13649354A103AD16065E03349CA
:104D10007831884204D13349304A103AD1605CE09E
:104D20002E499031884204D12F492C4A103AD16043
:104D300053E02A49A831884205D14FF03D51274A16
:104D4000103AD16049E02949884204D13D21274ADF
:104D5000083A116041E025491831884205D14FF4E5
:104D60007461224A083A116037E0204930318842A4
:104D700005D14FF474111D4A083A11602DE01B490A
:104D80004831884205D14FF07461184A083A1160E1
:104D900023E016496031884204D11149134A121F99
:104DA00011601AE011497831884204D10D490F4A47
:104DB000121F116011E00D499031884204D10A4957
:104DC0000A4A121F116008E00849A831884204D13C
:104DD0004FF03D51054A121F1160704710600240AC
:104DE0003D000020400F002000003D2010640240E4
:104DF000014600200A6802F001020AB1012000E029
:104E00000020704770B50246002000240025124E95
:104E1000B24201D2114B01E00F4B103B104E0E403D
:104E200036B11E2606EAD124166806EA040502E019
:104E3000566906F0800501F000560EB15C6800E08E
:104E40001C68084E344004EA010616B10DB1012079
:104E500000E0002070BD00001064024000600240CD
:104E60003C0F3C0F7D0F7D0F10B501F080034BB15F
:104E700022B1436943F08003436103E0436923F0B7
:104E80008003436180290BD02AB1036801F01E041E
:104E90002343036004E0036801F01E04A34303609E
:104EA00010BD000010B500220268134B1A40CC68F8
:104EB0000B6823434C6923438C692343CC69234308
:104EC0000C6A23434C6A23438C6A23434C6B234371
:104ED0008C6B23431A430260426922F00702D1E936
:104EE0000B3423431A4342610B6943604B68836070
:104EF0008B68C36010BD00003F801CF0704700004D
:104F000010B52DED0C8BB0EE408AF0EE608AB0EE5D
:104F1000419AF0EE619A38EEE90A10EE101A08464E
:104F200009F0A6F841EC1D0B9FED181BB0EE4D0AE1
:104F3000F0EE6D0A05F000F8B0EE40BAF0EE60BA9F
:104F400038EE490A10EE101A084609F091F841ECC3
:104F50001D0B9FED0E1BB0EE4D0AF0EE6D0A04F036
:104F6000EBFFB0EE40CAF0EE60CA53EC1B2B51ECE5
:104F70001C0B08F0A1FA41EC1A0BB0EE4A0AF0EE55
:104F80006A0A05F02DFFBDEC0C8B10BD000000007F
:104F9000000000400348007820F02000014908701C
:104FA0007047000004050020704700007FB5002016
:104FB0000290039007F05AFCBDEEC00A10EE104AB2
:104FC00007F068FCBDEEC00A10EE105AE348007806
:104FD00040F04000E14908700020C1F8B8019FEDA1
:104FE000E00A02F083F90020DC49C1F850012946AB
:104FF0002046FFF7C7FADB490860DB48007800F07D
:10500000010090B107F02EFBD8490860D64800682F
:1050100020F00100D4490860D448006807F0D6FBAE
:105020008DED020ACDED030AB1E0CF48007800F023
:105030000200002872D0CC48007800F00800002858
:10504000F2D0CA48006807F0C1FB8DED020ACDED31
:10505000030ADDED031AB0EE611AC048D0ED1E1A46
:10506000F0EE610ADDED021AB0EE610AFCF7D8FC41
:10507000FEF706FE01283AD100220121BC4804F0C7
:1050800039F800220221BA4804F034F8B548006823
:1050900050B1B648006807F08BF80120B5490860A8
:1050A0000020B149086072E0B048006807F03AFAA1
:1050B000B1480068401CB04908600020AD49086054
:1050C000AD480068022804DB012008600020AA49DE
:1050D00008600020A44908600846006840F001000C
:1050E00008600846006840F0040008604FE0FEF7E2
:1050F000C7FD02284BD100209B4908600846006884
:1051000040F0010008600846006840F004000860B4
:10511000964800689949086039E0FFE792480078AE
:1051200000F0040098B395480068904909688842E7
:105130000AD18E480068401C8C4908600846006807
:10514000032801DD002008608848006800F0DEF9CF
:105150008DED000ACDED010A9DED000A7F4880ED3E
:105160006A0A9DED010A80ED6B0A007840F080002C
:105170007A49087000207C4908600846006840F0C1
:10518000020008600846006840F00800086079489E
:10519000006801284FD17148007820F010006F4955
:1051A00008700846D0F87801012805D00846007834
:1051B00040F04000087012E06848D0F878010128FB
:1051C0000DD166480078654991F88011084363491C
:1051D000087000216148C0F87811C0F88011634858
:1051E00001685E48C0F8001107F074FB5B4880ED71
:1051F000120A07F0EBFB594880ED130A07F036FB63
:10520000BDEEC00A554880ED140A07F043FBBDEE21
:10521000C00A524880ED150A0B205349086000204F
:1052200054490860544908605549086048608860DE
:10523000C860524908604F4852A10268534803F0C1
:1052400081FE494850A10268504803F07BFE454862
:105250004DA102684D4803F075FE44484CA1026818
:105260004A4803F06FFE3D484BA1D0F8042147485F
:1052700003F068FE9DED020ABDEEC00A10EE102A92
:1052800041A1424803F05EFE454890ED000ABDEEA4
:10529000C00A10EE102A3CA13C4803F053FE4148DE
:1052A00090ED000ABDEEC00A10EE102A36A1374874
:1052B00003F048FE3C4890ED000ABDEEC00A10EE37
:1052C000102A31A1314803F03DFE244890ED1F0A19
:1052D000BDEEC00A10EE102A2BA12C4803F032FEBE
:1052E0001E4890ED200ABDEEC00A10EE102A26A13D
:1052F000264803F027FE194890ED6A0ABDEEC00A61
:1053000010EE102A29A1214803F01CFE134890ED4D
:105310006B0ABDEEC00A10EE102A26A11B4803F04E
:1053200011FE0E4890ED1E0ABDEEC00A10EE102AC6
:1053300015A1164803F006FE0F4813A10268134892
:1053400003F000FE224610A1104803F0FBFD2A46A0
:105350001AA10E4803F0F6FD7FBD000004050020F1
:10536000000070425C02002034020020580200203D
:10537000006800403002002054020020600200203B
:10538000000700206669783D256409000050004050
:105390006169423D25640900746F423D256409003E
:1053A00024020020280200202C02002050783D25F5
:1053B0006409000050793D25640900002564090D49
:1053C0000A000000F0B50A4600210023002400BFB7
:1053D0003DE0012505FA01F3156805EA03049C4246
:1053E00034D105684F000326BE40B54305601579EA
:1053F0004E00B5400668354305601579012D02D091
:105400001579022D16D185684F000326BE40B5439D
:10541000856055794E00B54086683543856045689E
:1054200001268E40B5434560456896798E40B6B2F8
:1054300035434560C5684F000326BE40B543C5608F
:10544000D5794E00B540C6683543C560491C102962
:10545000BFD3F0BDF0B5002300244D07ED0E02FAD6
:1054600005F3CE1000F1200555F826504E07F70E33
:105470000F26BE40B543CF1000F1200646F8275056
:10548000CE1000F1200555F8265045EA0304CE1051
:1054900000F1200545F82640F0BD024600201369C2
:1054A0000B400BB1012000E00020704741837047A2
:1054B0000183704710B5044607230122214608489E
:1054C000FCF770F90648FCF7C9F900BF022104484F
:1054D000FCF734F90028F9D00148FCF72BF910BD8E
:1054E000002001402DE9F04107460C46002500262A
:1054F00005E03846FFF7DEFF0544701CC6B2A64241
:10550000F7DBB5FBF4F080B2BDE8F0810CB530B14B
:1055100001280DD0022814D0032824D11AE09FEDD1
:10552000150A8DED000A9FED140A8DED010A1AE0AF
:105530009FED120A8DED000A9FED110A8DED010A13
:1055400011E09FED100A8DED000A9FED0B0A8DED25
:10555000010A08E09FED090A8DED000A9FED0A0A95
:105560008DED010A00BF00BF9DED000ADDED010ACF
:105570000CBD00000040CEC4000016450000000035
:1055800000803B440040CE4400207D4500BFFEE744
:1055900008B5002003465322632100904FF080405D
:1055A00002F04AFE0120002340F2473240F2E73188
:1055B00000901D4802F040FE0120002340F24732D7
:1055C00063210090194802F037FE4FF40070431039
:1055D000174A4FF4FA7100901648FDF76BFC402013
:1055E0002023134A4FF4FA7100901348FDF762FC30
:1055F000FCF7D2F9FDF714FB01F062FA02F040FF6C
:1056000001F0DEFB4FF4E13001F068FF4FF4E130D0
:10561000FEF72EF94FF4E13001F076FB4FF46120F4
:1056200002F060FF08BD00000004004000080040D8
:1056300000040240006400400068004010B50848C3
:10564000D0F8B00010B1012806D102E0FEF72EFF1D
:1056500003E0FCF745FB00E000BF00BF10BD000009
:105660000405002010B506F0ABF94F48D0F8B000A3
:10567000A8BB4E48006830B101280FD0022823D0C3
:10568000032830D12CE04848D0F8A40048490860ED
:1056900046480068401C4549086024E0042142480F
:1056A000C0F89810D0F8A000022806DCDFED410A0F
:1056B0009FED410AFEF79CFE05E0DFED3E0A9FEDFF
:1056C0003F0AFEF795FE0EE005213748C0F8981016
:1056D000DFED3B0A9FED390AFEF78AFE03E003E0A7
:1056E00002F05EFA00BF3EE02F48D0F8B00001287B
:1056F00039D12E48006830B101280FD0022823D0BC
:1057000003282FD12BE02848D0F8A40028490860AE
:1057100026480068401C2549086023E004212248EF
:10572000C0F89810D0F8A000022806DCDFED210AAE
:105730009FED210AFCF7A2FA05E0DFED210A9FEDBB
:105740001F0AFCF79BFA0DE005211748C0F89810D6
:10575000DFED1B0A9FED190AFCF790FA02E0FCF757
:10576000F3FB00BF00BF1048D0F8A400104909683F
:10577000884209D00D480068401C0C4908600A485E
:10578000D0F8A4000A4908600748D0F8A40003280C
:1057900009D10548007820F0010003490870002174
:1057A0000148C0F8981010BD0405002060000020DA
:1057B00064000020000048440000E1440000FA4476
:1057C0000080894410B506F0FBF84F48D0F8B000CF
:1057D000A8BB4E48006830B101280FD0022823D062
:1057E000032830D12CE04848D0F8A400484908608C
:1057F00046480068401C4549086024E005214248AD
:10580000C0F89810D0F8A000022806DCDFED410AAD
:105810009FED410AFEF7ECFD05E0DFED3E0A9FED4E
:105820003F0AFEF7E5FD0EE004213748C0F8981066
:10583000DFED3B0A9FED390AFEF7DAFD03E003E0F6
:1058400002F0AEF900BF3EE02F48D0F8B0000128CA
:1058500039D12E48006830B101280FD0022823D05A
:1058600003282FD12BE02848D0F8A400284908604D
:1058700026480068401C2549086023E0052122488D
:10588000C0F89810D0F8A000022806DCDFED210A4D
:105890009FED210AFCF7F2F905E0DFED1E0A9FED0E
:1058A0001E0AFCF7EBF90DE004211748C0F8981028
:1058B000DFED1B0A9FED180AFCF7E0F902E0FCF7A8
:1058C00043FB00BF00BF1048D0F8A400104909688E
:1058D000884209D00D480068401C0C4908600A48FD
:1058E000D0F8A4000A4908600748D0F8A4000328AB
:1058F00009D10548007820F0010003490870002113
:105900000148C0F8981010BD040500206800002070
:105910006C000020008089440000E1440000FA444B
:105920000000484410B52DED048B07F0CBF85A4821
:10593000D0ED1F0A30EEC00A584880ED000A07F08B
:10594000C7F85548D0ED200A30EEC00A544880ED23
:10595000000A06F0E9FE5048D0ED1E0A30EEC00AFB
:10596000504880ED000A4D48006808F081FB41EC8A
:10597000190BB0EE490AF0EE690A04F069FAB0EECC
:10598000408AF0EE608A9FED480B53EC102B51ECEF
:10599000180B08F03BF826D24148006808F068FB75
:1059A00041EC190BB0EE490AF0EE690A04F050FA26
:1059B000B0EE408AF0EE608A9FED3B0B53EC102B6B
:1059C00051EC180B08F022F80DD2334890ED1D0A67
:1059D000B5EEC00AF1EE10FA05D035480068401C5B
:1059E0003349086002E0002031490860304800680F
:1059F00024284FDD00202E490860274890ED1F0A1B
:105A00002C4880ED000A244890ED200A2A4880EDB9
:105A1000000A2148007820F040001F49087008461D
:105A2000007840F0200008700020C1F850010846BE
:105A3000D0F87C01401CC1F87C010846D0F87C01FC
:105A4000052823DB0846007820F02000087008466F
:105A5000D0F88001097808430F49C1F88001084651
:105A6000007800F0010020B10846007820F0010025
:105A700008700948007840F01000074908700021BC
:105A80000548C0F87C110121C0F878110120BDEC57
:105A9000048B10BD0020FAE704050020200100203F
:105AA0002401002028010020000000000000084020
:105AB0002C010020B4000020B800002010B52DED0E
:105AC000068B06F0D3FEB0EE408A06F0E3FEF0EE61
:105AD000408A53480068401C514908609FED510AB4
