:020000040800F2
:10000000504D00206902000815440008CD37000853
:10001000B9430008350B0008716B000800000000B0
:10002000000000000000000000000000ED52000889
:10003000AD320008000000007F02000881020008C5
:10004000830200088302000883020008830200087C
:10005000830200088302000883020008830200086C
:10006000830200088302000883020008830200085C
:10007000830200088302000883020008830200084C
:10008000830200088302000883020008830200083C
:10009000390B00088302000883020008830200086D
:1000A00083020008D15A0008830200088302000876
:1000B000ED5A0008415B0008E55B00088302000878
:1000C00083020008830200088302000883020008FC
:1000D0008302000889640008856500080966000835
:1000E00083020008830200088302000883020008DC
:1000F0002D5C00088302000883020008D52F000849
:100100008302000883020008115C000883020008D3
:10011000830200085162000883020008830200087D
:10012000830200088302000883020008830200089B
:10013000830200088302000883020008830200088B
:10014000550C00088302000883020008830200089F
:10015000830200088302000883020008830200086B
:10016000830200088302000883020008830200085B
:10017000830200088302000883020008830200084B
:10018000830200088302000800F002F800F05CF827
:100190000AA090E8000C82448344AAF10107DA45E2
:1001A00001D100F051F8AFF2090EBAE80F0013F0D8
:1001B000010F18BFFB1A43F00103184794B3000066
:1001C000B4B300000A444FF0000C10F8013B13F0E8
:1001D000070408BF10F8014B1D1108BF10F8015BA0
:1001E000641E05D010F8016B641E01F8016BF9D193
:1001F00013F0080F1EBF10F8014BAD1C0C1B09D1EA
:100200006D1E58BF01F801CBFAD505E014F8016B5B
:1002100001F8016B6D1EF9D59142D6D370470000ED
:100220000023002400250026103A28BF78C1FBD8FF
:10023000520728BF30C148BF0B6070471FB50AF096
:1002400048FF1FBD10B510BD00F045F81146FFF77F
:10025000F5FF09F009FE00F063F803B4FFF7F2FFC1
:1002600003BC00F067F800000948804709480047D0
:10027000FEE7FEE7FEE7FEE7FEE7FEE7FEE7FEE756
:10028000FEE7FEE704480549054A064B70470000B3
:10029000695A00088901000850070020504D0020CD
:1002A000504900205049002070477047704710B5F2
:1002B00000F00CF8006810BD10B5044600F006F818
:1002C000046010BD00487047EC06002000487047ED
:1002D000EC06002070477546FFF7F4FFAE460500B8
:1002E0006946534620F00700854618B020B5FFF751
:1002F000C9FFBDE820404FF000064FF000074FF067
:1003000000084FF0000B21F00701AC46ACE8C00933
:10031000ACE8C009ACE8C009ACE8C0098D4670473C
:1003200010B50446AFF300802046BDE81040FFF74B
:1003300094BF000001491820ABBEFEE72600020072
:1003400021B1826842F00102826003E0826822F0FB
:1003500001028260704700000021084A1168084AC3
:100360001140D0E900231A4383681A43C3681A4333
:100370001143044AC2F804137047000004230140EB
:10038000E030FCFF002001400146C86C80B270479D
:100390000246002013680B400BB1012000E0002052
:1003A0007047000030B50246002000235068104C12
:1003B00020400D790C6844EA052420435060906881
:1003C0000C4C2040D1E903542C438D682C434D79CB
:1003D00044EA450420439060D06A20F470000C7D0C
:1003E000641EE4B2234340EA0350D06230BD0000F3
:1003F000FFFEFFFCFDF7FFC0F0B504460D460020F0
:100400000021092D11DDE068A5F10A0606EB46077B
:10041000072606FA07F18843A5F10A0606EB460609
:1004200003FA06F10843E0600CE0206905EB45079C
:10043000072606FA07F1884305EB450603FA06F19D
:1004400008432061072A0FDA606B561E06EB860709
:100450001F2606FA07F18843561E06EB860605FAA4
:1004600006F10843606322E00D2A0FDA206BD61FE5
:1004700006EB86071F2606FA07F18843D61F06EB10
:10048000860605FA06F10843206310E0E06AA2F14F
:100490000D0606EB86071F2606FA07F18843A2F130
:1004A0000D0606EB860605FA06F10843E062F0BD8C
:1004B000816841F0804181607047000000B58DB0D7
:1004C0000121042004F0F0FD0121080204F01CFECB
:1004D00030200B9003208DF8300000208DF8330081
:1004E0000BA9164803F08EF80121080204F01CFE47
:1004F00000214FF4807004F017FE002007900A904E
:1005000009904FF48030089007A8FFF725FF0020DE
:1005100001908DF808008DF8090003900490059073
:1005200001208DF8180001A90548FFF73BFF0121C4
:100530000348FFF705FF0DB000BD000000080240B2
:100540000020014010B52DED048BF0EE408AB0EE96
:10055000609AB0EE418AF0EE490AB0EE680A08F0FF
:10056000B5FD1C4880ED140AD0ED140AB0EE600A07
:1005700000F06AF8DFED180A70EE209AB0EE480A33
:1005800000F030F839EEC00ABDEEC00A10EE104A95
:1005900022460121114806F027FB0E48D0ED140A2F
:1005A000B0EE600A00F050F8DFED0D0A70EE209A10
:1005B000B0EE480A00F016F839EE800ABDEEC00A27
:1005C00010EE104A22460221044806F00DFBBDEC55
:1005D000048B10BD2804002000409CC5006800402A
:1005E00000409C45F0EE400A114890ED000A20EED4
:1005F000200A104890ED001AB8EEC11A30EEC11A68
:100600000D48D0ED001A01EE810A0C4890ED001A59
:10061000DFED0B1A01EE210A0A4880ED000ABDEE5B
:10062000E00A044880ED000A064890ED000A704791
:100630002803002024030020300300202C03002086
:100640000000000034030020F0EE400A0E4890ED58
:10065000000A20EE200A0D4890ED001AB8EEC11AEB
:1006600030EEC11A0A48D0ED001A01EE810A09489D
:1006700080ED000ABDEEE00A044880ED000A05485E
:1006800090ED000A70470000E0020020DC0200202C
:10069000E4020020E802002010B51048C06D0428D4
:1006A00002D0052816D10AE0DFED0D1A9FED0D1AD4
:1006B000DFED0D0A9FED0D0A03F0F4FE0BE0DFED18
:1006C000081A9FED081ADFED0A0A9FED080A03F0E9
:1006D000E9FE00E000BF00BF012010BD280400209B
:1006E0000000164500000000008089440000E1443D
:1006F0000000C84410B53248C06D032802DC00F089
:1007000069F85BE02E48C06D032806DD2C48C06DFB
:10071000052802DCFFF7C0FF50E02948C06D05281E
:100720004CDD2748C06D092848DC2548C06D0628E7
:1007300012D12448006801280ED12148806E224938
:10074000086000201F4908601D49086F03F05AFD2A
:10075000401D1B49C86506E01948C06D092802DD27
:1007600006211748C1651648806E17490968081A9E
:10077000012821DB124890ED110ADFED140AB4EED6
:10078000E00AF1EE10FA17DD90ED110ADFED100A24
:10079000B4EEE00AF1EE10FA0ED290ED100AB5EECA
:1007A000C00AF1EE10FA07DD007820F001000449DC
:1007B000087000210248C16500F05EF810BD00001D
:1007C0002804002004000020080000200000FA4453
:1007D0000040034510B51F48C06D30B1012810D04E
:1007E00002281AD0032830D123E00122114600202C
:1007F0009FED191ADFED190A9FED190A03F0AEFA01
:1008000024E00122114610469FED161ADFED130A6F
:100810009FED150A03F0A2FA18E00122911E0020B4
:100820009FED121ADFED120A9FED0F0A03F096FA00
:100830000CE00122911E10469FED0E1ADFED0C0A0E
:100840009FED070A03F08AFA00E000BF00BF012015
:1008500010BD000028040020000000000080544566
:10086000000016440000B442000016C400003443E7
:100870000000AF440000B4C210B51F48C06D062888
:1008800006D0072810D008281AD0092830D123E034
:100890000422012100209FED191ADFED190A9FEDB6
:1008A000190A03F05BFA24E00422012108469FEDB7
:1008B000161ADFED130A9FED150A03F04FFA18E040
:1008C0000422511F00209FED121ADFED120A9FED46
:1008D0000F0A03F043FA0CE00422511F01209FEDA0
:1008E0000E1ADFED0C0A9FED070A03F037FA00E05D
:1008F00000BF00BF012010BD280400200000000040
:1009000000805445000016440000B442000016C4A4
:10091000000034430000AF440000B4C270B52DEDB8
:10092000068BB0EE408A0024624890ED000ADFEDAD
:10093000620AB4EEE00AF1EE10FA1DDD90ED000A55
:10094000DFED5E0AB4EEE00AF1EE10FA14D25C4874
:1009500090ED000ADFED5B0AB4EEE00AF1EE10FA6A
:100960000ADD90ED000ADFED580AB4EEE00AF1EE80
:1009700010FA01D2641E26E04E4890ED000ADFED29
:100980004E0AB4EEE00AF1EE10FA1BD390ED000A25
:10099000DFED4A0AB4EEE00AF1EE10FA12DC484844
:1009A00090ED000ADFED470AB4EEE00AF1EE10FA2E
:1009B00008D390ED000ADFED440AB4EEE00AF1EE50
:1009C00010FA00DD01244148006870B9C4EB04103E
:1009D000800000EE100AB8EEC00A30EE080A3C486B
:1009E00080ED000A012039490860F0EE480A3848D5
:1009F00090ED000A08F06AFB364880ED000A3648A0
:100A00000068401C344908600846006864280BDA16
:100A1000324A0121324806F0E7F841F2DB72022146
:100A20002F4806F0E1F841E02B48006864283DDBE0
:100A3000284890ED000AFFF707FEBDEEC00A10EE51
:100A4000105A2A460121264806F0CEF8214890ED9A
:100A5000000AFFF7F9FDBDEEC00A10EE105A2A4653
:100A600002211F4806F0C0F81A4800680AF0C0FAD0
:100A700041EC1A0BB0EE4A0AF0EE6A0A06F084FE68
:100A8000B0EE409AF0EE609A9FED160B53EC102BEF
:100A900051EC190B09F07AFF08D200200B490860CD
:100AA0000D4908601148007811490870BDEC068BAB
:100AB00070BD0000600000200000AFC40000AF4423
:100AC000640000200000614400C07345A0000020C5
:100AD000980000209C000020A400002025E8FFFFD3
:100AE0000068004000000000000014405C0000208E
:100AF000280400201CB50121022004F0D5FA4FF48F
:100B00008040009001208DF8040000208DF8060040
:100B100003208DF8050002208DF80700694604487F
:100B200002F070FD4FF48041014802F0DFFD1CBD72
:100B30000004024000BFFEE710B53B4803783B4A83
:100B40003B493C4800F0A8FC39480068302803D1F4
:100B50003649087809F09CFA3548006840F2872148
:100B600088420DD13148006845F65001884207D1CE
:100B70002E4890ED010AB8EEC00A2F4880ED040A15
:100B80002B480068B0F5227F0DD12848006845F653
:100B90005601884207D1254890ED010AB8EEC00AF7
:100BA000254880ED470A2248006840F286218842A5
:100BB0000DD11E48006845F65001884207D11B48F8
:100BC00090ED010AB8EEC00A1B4880ED4A0A1B49A5
:100BD000184800F0B3F81949491C164800F0AEF85F
:100BE0001649C91C134800F0A9F81549114800F02E
:100BF000A5F814490F4800F0A1F813490D4800F07A
:100C00009DF8114908310B4800F098F80F49094840
:100C100000F094F80E49074800F090F80C490831AC
:100C2000044800F08BF810BD9003002088030020DA
:100C30009403002000640040280400200100F0100C
:100C40007000F030030000120800003203000014AE
:100C5000080000341CB52E4803786A462D492E48FA
:100C600000F01AFC2B48006840F2822188420BD128
:100C700045F656010098884206D19DED010AB8EE6E
:100C8000C00A264880ED090A2248006840F2812106
:100C9000884210D122480068401C2149086045F66E
:100CA00056010098884206D19DED010AB8EEC00AAF
:100CB0001A4880ED0D0A1B49174800F03FF8194902
:100CC000491C154800F03AF81649C91C124800F0B2
:100CD00035F81549104800F031F814490E4800F075
:100CE0002DF813490C4800F029F8114908310A4839
:100CF00000F024F80F49084800F020F80E49064893
:100D000000F01CF80C490831034800F017F81CBD2E
:100D10009C03002098030020006800402804002065
:100D2000600300200100F0107000F030030000129A
:100D300008000032030000140800003400220C4BAD
:100D4000994202D10023836111E0C1F3130201F043
:100D500000730BB1C2600AE001F080630BB1026165
:100D600005E001F000630BB1826000E04260704773
:100D70007000F0302DE9F04F8BB006460F46144658
:100D80001D46DDF850804FF00009CA46CB46B5F548
:100D9000807F43D012DC102D34D008DC012D25D00B
:100DA000022D26D0042D27D0082D4FD127E0202D4D
:100DB0002BD0402D2CD0802D48D12CE0B5F5805F74
:100DC00038D009DCB5F5007F2BD0B5F5806F2BD07E
:100DD000B5F5006F3AD12AE0B5F5005F2DD0B5F535
:100DE000804F2DD0B5F5004F30D12CE04FF00009E9
:100DF0002DE04FF001092AE04FF0020927E04FF003
:100E0000030924E04FF0040921E04FF005091EE03A
:100E10004FF006091BE04FF0070918E04FF00809F2
:100E200015E04FF0090912E04FF00A090FE04FF00A
:100E30000B090CE04FF00C0909E04FF00D0906E03A
:100E40004FF00E0903E04FF00F0900E000BF00BFB4
:100E5000B8F5807F4BD01ADCB8F1100F3BD00CDC1A
:100E6000B8F1010F2BD0B8F1020F2BD0B8F1040F5D
:100E70002BD0B8F1080F52D12AE0B8F1200F2DD0B5
:100E8000B8F1400F2DD0B8F1800F48D12CE0B8F563
:100E9000805F38D009DCB8F5007F2BD0B8F5806FC3
:100EA0002BD0B8F5006F3AD12AE0B8F5005F2DD00D
:100EB000B8F5804F2DD0B8F5004F30D12CE04FF071
:100EC000000A2DE04FF0010A2AE04FF0020A27E065
:100ED0004FF0030A24E04FF0040A21E04FF0050A26
:100EE0001EE04FF0060A1BE04FF0070A18E04FF033
:100EF000080A15E04FF0090A12E04FF00A0A0FE065
:100F00004FF00B0A0CE04FF00C0A09E04FF00D0A0D
:100F100006E04FF00E0A03E04FF00F0A00E000BFBA
:100F200000BF7F48304418B1B0F5806F1AD10CE093
:100F30004FF0090B00208DF8120014208DF80400EA
:100F40000121480604F0C0F80DE04FF0090B0E2017
:100F50008DF8120040208DF804000121000504F0F6
:100F6000B3F800E000BF00BFC4F3090078BBA012D3
:100F7000A0F580108038092834D2DFE800F0050A97
:100F80000F14191E23292E000121084604F08CF8A5
:100F900029E00121022004F087F824E00121042047
:100FA00004F082F81FE00121082004F07DF81AE027
:100FB0000121102004F078F815E00121202004F030
:100FC00073F810E00121402004F06EF80BE009E016
:100FD0000121802004F068F805E00121080204F0F6
:100FE00063F800E000BF00BF5A464946204602F0C1
:100FF00051FB5A465146204602F04CFB45EA080098
:10100000099002208DF828008DF8290000208DF825
:101010002A0001208DF82B0009A9204602F0F2FADF
:10102000304600F07FF800208DF81E008DF81F007C
:101030008DF820008DF821008DF822008DF8230016
:101040008DF81A008DF81B000B208DF81C0007206E
:101050008DF81D007D2F22D008DC0A2F0FD0142F11
:1010600011D0322F13D0642F29D114E0FA2F1AD0C7
:10107000B7F5FA7F1BD0B7F57A7F20D11BE0C820E7
:10108000ADF818001CE06420ADF8180018E0282026
:10109000ADF8180014E01420ADF8180010E010208E
:1010A000ADF818000CE00820ADF8180008E00420A6
:1010B000ADF8180004E00220ADF8180000E000BF11
:1010C00000BF06A9304600F0D6F800208DF81300C6
:1010D00001208DF814000020ADF80800ADF80A00DA
:1010E000ADF80C00ADF80E00ADF8100001208DF841
:1010F000150002A800F032F802208DF80500032048
:101100008DF8060001208DF8070001A803F084F98E
:1011100001220221304600F0A5F80BB0BDE8F08FA7
:10112000009CFFBF10B504460B48844209D1012141
:10113000480603F0D9FF00214FF0007003F0D4FF00
:1011400008E00121880603F0CFFF00214FF0806006
:1011500003F0CAFF10BD00000064004010B500217C
:10116000837A012202FA03F13D4A126842F0010239
:101170003B4B1A603A4A1C3212688A43384B1C3384
:101180001A60027BCAB9364A0C3212688A43344B61
:101190000C331A604288C38842EA0343304A403223
:1011A000847A42F834300288838842EA03432C4A26
:1011B0004032847A02EBC4025360027B012A19D1C7
:1011C000274A0C3212680A43254B0C331A604288B6
:1011D000038842EA0343224A4032847A42F8343098
:1011E000C288838842EA03431D4A4032847A02EB74
:1011F000C4025360C27A3AB9194A121D12688A436E
:10120000174B1B1D1A6006E0154A121D12680A438F
:10121000134B1B1D1A60028932B9114A143212682D
:101220008A430F4B14331A600289012A06D10C4AF3
:10123000143212680A430A4B14331A60427B012AA3
:1012400006D1074A1C3212680A43054B1C331A6048
:10125000034A126822F00102014B1A6010BD00001F
:10126000006600401AB143690B43436102E04369E1
:101270008B434361704730B5024600200023146859
:1012800024F002041460146844F00104146000E0C7
:101290005B1C546804F001041CB94FF6FF74A342B0
:1012A000F6D1546804F001040CB900206CE08C798C
:1012B000012C04D1146844F08004146003E0146825
:1012C00024F080041460CC79012C04D1146844F01B
:1012D0004004146003E0146824F0400414600C7AA5
:1012E000012C04D1146844F02004146003E0146855
:1012F00024F0200414604C7A012C04D1146844F0CA
:101300001004146003E0146824F0100414608C7A54
:10131000012C04D1146844F00804146003E014683C
:1013200024F008041460CC7A012C04D1146844F031
:101330000404146003E0146824F0040414608C783E
:10134000A407CD7844EA05640D7944EA05444D7953
:1013500044EA05540D886D1E2C43D461146824F0B2
:1013600001041460002300E05B1C546804F00104D5
:101370001CB14FF6FF74A342F6D1546804F0010487
:101380000CB1002000E0012030BD0246002019B958
:10139000D36803F0030006E0012903D1136903F0C9
:1013A000030000E00020704710B500F5D87303EB90
:1013B00001131B6803F004031372137A53B900F589
:1013C000D87303EB01131B6840F2FF7404EA535314
:1013D000136009E000F5D87303EB01131B686FF08D
:1013E000604404EAD303536000F5D87303EB0113A0
:1013F0001B6803F00203537200F5D87303EB01136B
:101400005B6803F00F03937200F5D87303EB0113CD
:101410005B681B0AD37400F5D87303EB01139B6858
:10142000D37200F5D87303EB01139B681C0A147385
:1014300000F5D87303EB01139B681C0C547300F583
:10144000D87303EB01139B681B0E937300F5D873DD
:1014500003EB0113DB68D37300F5D87303EB0113BF
:10146000DB681C0A147400F5D87303EB0113DB6806
:101470001C0C547400F5D87303EB0113DB681B0ECE
:10148000937421B9C36843F02003C36003E0036988
:1014900043F02003036110BD2DE9F04186B0804682
:1014A0000D4616461F46002400214046FFF76DFFFB
:1014B00018B9002006B0BDE8F08101AA002140461D
:1014C000FFF772FF002405E00DF10F00005D3055BD
:1014D000601CC4B2BC42F7DB019828600120E9E738
:1014E00010B502460020936803F08063B3F1806F6B
:1014F00000D110E0936803F00063B3F1006F01D1F5
:10150000012008E0936803F08053B3F1805F01D1BC
:10151000022000E00420042874D002F5C07303EB1D
:1015200000131B6803F0010402F5C07303EB001302
:101530001C600B7A7BB94B7A0C8843EA445302F562
:10154000C07404EB00142468234302F5C07404EB58
:101550000014236010E00B7A4C6843EAC4034C7A11
:10156000234302F5C07404EB00142468234302F5FE
:10157000C07404EB001423608B7A03F00F038B72AA
:1015800002F5C07303EB00135B6823F00F0402F550
:10159000C07303EB00135C6002F5C07303EB001330
:1015A0005B688C7A234302F5C07404EB001463601B
:1015B0008B7B1C064B7B44EA03440B7B44EA0323EE
:1015C000CC7A234302F5C07404EB0014A3608B7C37
:1015D0001C064B7C44EA03440B7C44EA0323CC7B8B
:1015E000234302F5C07404EB0014E36002F5C073FA
:1015F00003EB00131B6843F0010402F5C07303EB17
:1016000000131C6010BD000010B50246002321B17C
:10161000012907D002290FD109E090681D4C00EA8A
:1016200004030BE090681C4C00EA040306E0906899
:101630001A4C00EA040301E0002300BF00BF184C6D
:10164000181BA34216D007DC83B16FF080601844EA
:1016500070B1022818D111E0B0F5007F10D0114C04
:10166000204448B1B0F5003F0ED10BE002230DE05D
:1016700000230BE0002309E0002307E0012305E03D
:10168000012303E0012301E0002300BF00BFD8B223
:1016900010BD000003000004000300080000031058
:1016A000000100080001FFF710B52DED028B9FED42
:1016B000FE0AFE4880ED0C0A9FEDFB0A80ED080A49
:1016C00090ED100AFA4880ED000AF84890ED110AF2
:1016D000F84880ED000AF54890ED0F0AF64880EDD5
:1016E000000AF24890ED0D0ADFEDF40AB4EEE00ACC
:1016F000F1EE10FA03DD0120EC49C1F8E400F048F6
:101700000068EC49D1ED000AE94991ED000A00F0CA
:1017100005FDEB4908600846006800EB4001C1EB9D
:10172000C010FA2101EB800000EE100AB8EEC00AEA
:10173000DF48D0ED000AB4EEE00AF1EE10FA1EDD4B
:10174000DF48006800EB801040F2A461A1EB80004C
:1017500000EE100AB8EEC00AD648D0ED000AB4EE8A
:10176000E00AF1EE10FA0ADD07F0F0FC0146CF487E
:10177000D0F8B8000144CD48C0F8B8109CE0D0487B
:10178000006800EB4001C1EBC010FA2101EB8000C2
:1017900000EE100AB8EEC00AC548D0ED000AB4EE5B
:1017A000E00AF1EE10FA1ED2C548006800EB801086
:1017B00040F61C4101EB800000EE100AB8EEC00AB2
:1017C000BC48D0ED000AB4EEE00AF1EE10FA0ADDF2
:1017D00007F0BCFC0146B548D0F8B8000144B34856
:1017E000C0F8B81068E0B648006800EB4001C1EBF3
:1017F000C0106FF0F901A1EB800000EE100AB8EE06
:10180000C00AAB48D0ED000AB4EEE00AF1EE10FADF
:101810001ED2AB48006800EB801040F61C4101EB83
:10182000800000EE100AB8EEC00AA248D0ED000A0F
:10183000B4EEE00AF1EE10FA0AD207F087FC014696
:101840009A48D0F8B80001449848C0F8B81033E07E
:101850009B48006800EB4001C1EBC0106FF0F9013C
:10186000A1EB800000EE100AB8EEC00A9048D0ED5F
:10187000000AB4EEE00AF1EE10FA1DDD90480068AF
:1018800000EB801040F2A461A1EB800000EE100A92
:10189000B8EEC00A8748D0ED000AB4EEE00AF1EED7
:1018A00010FA09D207F052FC01468048D0F8B8007F
:1018B00001447E48C0F8B8107C48D0F8B80030B178
:1018C00001287DD0022879D0032878D176E101F073
:1018D0007BFD7B48006800EB4001C1EBC01040F28B
:1018E0001451A1EB800000EE900AF8EEE00A30EE11
:1018F000200A7048D0ED000A30EEC00A6B4880ED37
:10190000350A9FED700A80ED340AD0ED340AB0EE4E
:10191000600A6948D0ED000A07F0D8FB634880ED03
:10192000360AD0ED350AB0EE600A08F06FFB5F486A
:10193000D0ED360A30EEC00AB0EE408AFEF784FEE3
:101940005A4880ED0E0AD0ED350AB0EE600A08F074
:101950005DFB5648D0ED360A30EEC00AB0EE408A44
:10196000FEF772FE514880ED0A0A90ED0C0AD0EDA8
:101970000E0A30EE200A80ED0B0A90ED080AB1EE57
:10198000400AD0ED0A0A30EE200A80ED070A90EDF9
:101990000B0ABDEEC00A10EE102A01214A4805F0DC
:1019A00023F9424890ED070ABDEEC00A10EE102A56
:1019B0000221454805F018F975E101E088E071E180
:1019C00001F002FD3E480068AF2148434FF4167114
:1019D00001EB800000EE900AF8EEE00A30EEC00A5B
:1019E0003348D0ED000A30EEC00A304880ED350AA9
:1019F0009FED360A80ED340AD0ED340AB0EE600A6D
:101A00002D48D0ED000A07F061FB284880ED360A2A
:101A1000D0ED350AB0EE600A08F0F8FA2348D0EDB0
:101A2000360A30EE200AB0EE408AFEF70DFE1F485F
:101A300080ED0E0AD0ED350AB0EE600A08F0E6FA45
:101A40001A48D0ED360A30EE200AB0EE408AFEF792
:101A5000FBFD164880ED0A0A90ED0C0AD0ED0E0A47
:101A600030EE200A80ED0B0A90ED080AB1EE400A34
:101A7000D0ED0A0A30EE200A80ED070A90ED0B0A3D
:101A8000BDEEC00A10EE102A01210F4805F0ACF897
:101A9000064890ED070ABDEEC00A10EE102A02219A
:101AA000094805F0A1F8FEE000D83E4628040020D1
:101AB00014010020180100201C01002000D8BE45A0
:101AC000200100200000B4C20068004000000000B7
:101AD00001F07AFCAA48006800EB4001C1EBC0109D
:101AE00040F6AC5101EB800000EE900AF8EEE00AFF
:101AF00030EEC00AA348D0ED000A30EEC00AA2487A
:101B000080ED350A9FEDA10A80ED340AD0ED340A4C
:101B1000B0EE600A9E48D0ED000A07F0D7FA9A4866
:101B200080ED360AD0ED350AB0EE600A08F06EFAA4
:101B30009548D0ED360A30EE200AB0EE408AFEF726
:101B400083FD914880ED0E0AD0ED350AB0EE600AB3
:101B500008F05CFA8C48D0ED360A30EE200AB0EE80
:101B6000408AFEF771FD884880ED0A0A90ED0C0A64
:101B7000D0ED0E0A30EE200A80ED0B0A90ED080A37
:101B8000B1EE400AD0ED0A0A30EE200A80ED070AD5
:101B900090ED0B0ABDEEC00A10EE102A01217D481F
:101BA00005F022F8784890ED070ABDEEC00A10EE65
:101BB000102A0221774805F017F874E001F004FCC0
:101BC0006F480068AF2148434FF4167101EB800065
:101BD00000EE900AF8EEE00A30EEC00A6E48D0ED52
:101BE000000A30EE200A684880ED350A9FED6B0A46
:101BF00080ED340AD0ED340AB0EE600A6448D0EDCE
:101C0000000A07F063FA604880ED360AD0ED350A25
:101C1000B0EE600A08F0FAF95B48D0ED360A30EE13
:101C2000C00AB0EE408AFEF70FFD574880ED0E0A5D
:101C3000D0ED350AB0EE600A08F0E8F95248D0ED70
:101C4000360A30EEC00AB0EE408AFEF7FDFC4E4880
:101C500080ED0A0A90ED0C0AD0ED0E0A30EE200A53
:101C600080ED0B0A90ED080AB1EE400AD0ED0A0AA9
:101C700030EE200A80ED070A90ED0B0ABDEEC00A97
:101C800010EE102A0121434804F0AEFF3E4890EDCB
:101C9000070ABDEEC00A10EE102A02213D4804F0EA
:101CA000A3FF00E000BF00BF3748D0F8C4000228FF
:101CB00002DD162034490870354890ED000ABDEE6B
:101CC000C00A10EE102A36A1364804F0B3FE2E48A2
:101CD00090ED100ABDEEC00A10EE102A30A1314876
:101CE00004F0A8FE284890ED110ABDEEC00A10EEDF
:101CF000102A2BA12B4804F09DFE2B4828A1026836
:101D0000284804F097FE1E4825A10268254804F0E3
:101D100091FE1D4890ED360ABDEEC00A10EE102A65
:101D20001FA1204804F086FE174890ED350ABDEE4D
:101D3000C00A10EE102A1AA11A4804F07BFE1248BD
:101D400090ED0D0ABDEEC00A10EE102A14A1154840
:101D500004F070FE0C4890ED0B0ABDEEC00A10EEC8
:101D6000102A0FA10F4804F065FE07480FA1D0F814
:101D7000B8200C4804F05EFEBDEC028B10BD0000E4
:101D80002001002018010020280400200000B44297
:101D90001C010020006800401401002000003443B2
:101DA0002564090000500040D80000202564090D7A
:101DB0000A00000010B588B004460121082003F095
:101DC00073F90121480403F07FF907220521244813
:101DD00001F060FC07220621214801F05BFC602035
:101DE000069002208DF81C008DF81D0000208DF853
:101DF0001E0001208DF81F0006A9194801F002FC01
:101E000002940020ADF80C00ADF80E00ADF8100003
:101E1000ADF814000C20ADF8120002A9114804F02E
:101E20009FFD40210F4804F0B7FC26208DF80400E8
:101E300000208DF8050002208DF8060001208DF8A5
:101E4000070001A802F0E8FA012240F225510548F6
:101E500004F061FD0121034804F0B6FC08B010BD98
:101E6000000C02400044004070B52DED0C8BB0EE2C
:101E7000409AF0EE609AB0EE41AA04468C4890ED8C
:101E8000000A60EE000AB1EE001A80EE810A89486D
:101E9000D0ED000A90ED001A00EE810A10EE105A03
:101EA000284609F0A5F841EC1C0BB0EE4C0AF0EE08
:101EB0006C0A06F0C9FBB0EE40BAF0EE60BA51EC25
:101EC0001B0B08F0C3FA0AEE900ADFED7B0A8AEEDC
:101ED000200ADFED7A0A20EE200AB0EE40DA9FED0C
:101EE000780A3AEE000AB0EE408A9FED750A3AEEA3
:101EF000000AF0EE408A9FED700AB4EEC08AF1EE5F
:101F000010FA06DB9FED6F0A38EE400AB0EE408A09
:101F10000CE09FED6D0AB4EEC08AF1EE10FA05D820
:101F20009FED680A38EE000AB0EE408A9FED620A23
:101F3000F4EEC08AF1EE10FA06DB9FED620A38EE8D
:101F4000C00AF0EE408A0CE09FED5F0AF4EEC08A12
:101F5000F1EE10FA05D89FED5B0A38EE800AF0EE3C
:101F6000408A5348D0ED000AB0EE001A80EE810A94
:101F70005048D0ED000A80EE201AB0EE41BAB0EE23
:101F80004B0A05F045FA9FED4C1AC8EE010A9FED89
:101F90004B1A10EE810AB0EE408A4548D0ED000A97
:101FA000B0EE001A80EE810A4248D0ED000A80EEC1
:101FB000201AB0EE41BAB0EE4B0A05F029FA9FEDB7
:101FC0003E1AC8EE810A9FED3D1A00EE810AF0EE3E
:101FD000408A374890ED000AF0EE000A80EE20BA01
:101FE000B0EE4D0A05F028FBF0EE490A4BEE400A30
:101FF000C4ED020A2E4890ED000AF0EE000A80EED1
:1020000020BAB0EE4D0A06F057FAF0EE690A4BEE30
:10201000400AC4ED030A264890ED000AF0EE000ADB
:1020200080EE20BAB0EE4D0A05F006FBF0EE490A4C
:102030004BEE000AC4ED040A1D4890ED000AF0EED4
:10204000000A80EE20BAB0EE4D0A06F035FAF0EE46
:10205000690A4BEE000AC4ED050AB0EE680A05F005
:10206000EBFAF0EE490A4AEE800AC4ED000AB0EE3F
:10207000680A06F021FAF0EE690A4AEE800AC4ED19
:10208000010AB0EE480A05F0D7FAF0EE490A4AEE26
:10209000800AC4ED060AB0EE480A06F00DFAF0EE2A
:1020A000690A4AEE800AC4ED070ABDEC0C8B70BDCC
:1020B000CC000020C800002000003443DB0F494062
:1020C0000000B4420000B443000034C310B5042142
:1020D0000F4801F002FB01280BD101210D4801F04E
:1020E000FCFA012805D10C480068401C0A49086028
:1020F00002E0002008490860074800681E2804DD47
:10210000002005490860012010BD0020FCE7000008
:1021100000100240000802400C000020F0B52DED38
:10212000068B83B0B0EE408AF0EE608A044600254C
:10213000002600200090019002909FEDF60AB4EE78
:10214000C08AF1EE10FA3FDB9FEDF30AF4EEC08A8D
:10215000F1EE10FA38D89FEDEF0A38EE400ADFEDC5
:10216000EF0A80EE201A11EE107A384608F040FF90
:1021700041EC1A0BB0EE4A0AF0EE6A0A05F004FBD5
:10218000B0EE409AF0EE609A51EC190B08F0A4FB07
:1021900005469FEDE30AC8EE800A10EE907A3846B5
:1021A00008F026FF41EC1A0BB0EE4A0AF0EE6A0A7C
:1021B00005F0EAFAB0EE409AF0EE609A51EC190B95
:1021C00008F08AFB0646DBE09FEDD60AB4EEC08A33
:1021D000F1EE10FA43DB9FEDD00AF4EEC08AF1EE87
:1021E00010FA3CDB9FEDCB0A38EE000ADFEDCE0A99
:1021F00080EE201A11EE107A384608F0F9FE41EC14
:102200001A0BB0EE4A0AF0EE6A0A05F0BDFAB0EE1B
:10221000409AF0EE609A51EC190B08F05DFB054610
:102220009FEDBD0A38EEC00ADFEDC00A80EE201A2D
:1022300011EE107A384608F0DBFE41EC1A0BB0EED6
:102240004A0AF0EE6A0A05F09FFAB0EE409AF0EE04
:10225000609A51EC190B08F03FFB064690E09FEDA9
:10226000B10AB4EEC08AF1EE10FA43D29FEDB00A83
:10227000F4EEC08AF1EE10FA3CDD9FEDA60A38EECE
:10228000000ADFEDA60A80EE201A11EE107A384619
:1022900008F0AEFE41EC1A0BB0EE4A0AF0EE6A0A04
:1022A00005F072FAB0EE409AF0EE609A51EC190B1C
:1022B00008F012FB05469FED9E0A38EEC00ADFEDDE
:1022C000980A80EE201A11EE107A384608F090FE37
:1022D00041EC1A0BB0EE4A0AF0EE6A0A05F054FA25
:1022E000B0EE409AF0EE609A51EC190B08F0F4FA57
:1022F000064645E09FED870AB4EEC08AF1EE10FA7B
:102300003ED29FED8B0AF4EEC08AF1EE10FA37D27E
:102310009FED800A38EE400ADFED830A80EE201A36
:1023200011EE107A384608F063FE41EC1A0BB0EE5D
:102330004A0AF0EE6A0A05F027FAB0EE409AF0EE8B
:10234000609A51EC190B08F0C7FA05469FED770A21
:10235000C8EE800A10EE907A384608F049FE41EC4B
:102360001A0BB0EE4A0AF0EE6A0A05F00DFAB0EE6A
:10237000409AF0EE609A51EC190B08F0ADFA06465F
:10238000032D00DB0225032E00DB022669480068CE
:10239000694908609FED5F0AB4EEC08AF1EE10FA59
:1023A0000DDB9FED5D0AF4EEC08AF1EE10FA06D85F
:1023B0000020604908600120604908603DE09FED11
:1023C000590AB4EEC08AF1EE10FA0DDB9FED520A05
:1023D000F4EEC08AF1EE10FA06DB012055490860E0
:1023E00002205649086028E09FED4E0AB4EEC08AEC
:1023F000F1EE10FA0DD29FED4E0AF4EEC08AF1EE26
:1024000010FA06DD02204B49086001204B490860A4
:1024100013E09FED400AB4EEC08AF1EE10FA0CD240
:102420009FED430AF4EEC08AF1EE10FA05D20320C4
:10243000404908600220414908603F4800683D4922
:102440000968884202D001203D4908603C48006884
:1024500000285ED039480068012802D0022876D1D1
:102460002BE0022017E0214612E0324A126802EB0C
:10247000C202344B03EB820201EB410302EB830205
:1024800052F820205DF820301A444DF82020491ED3
:102490000029EADA401E0028E5DA02200AE02A4A8A
:1024A00012685DF822105DF82020914201DD264976
:1024B0000860401E0028F2DA4AE0022017E02146B8
:1024C00012E01C4A126802EBC2021E4B03EB8202AE
:1024D00001EB410302EB830252F820205DF820302B
:1024E0001A444DF82020491E0029EADA401E00282F
:1024F000E5DA02200AE0144A12685DF822105DF85D
:102500002020914201DD10490860401E0028F2DAC7
:102510001EE021E000007A4300C0414500002F4446
:1025200000007A4400007AC30000614400000C44BB
:102530000080D4442C01002030010020380100200C
:1025400034010020BC05002028010020FFE700BF67
:1025500000BF00202949086001202949096801EBD2
:10256000C101284A02EB810106EB460201EB820120
:1025700041F82500BDEEC80A10EE102A22A123481A
:1025800004F058FABDEEE80A10EE102A1EA11F480A
:1025900004F050FA1E481CA102681C4804F04AFAD4
:1025A0001C4819A10268194804F044FA1A4816A1F7
:1025B0000268164804F03EFA184813A1026813484E
:1025C00004F038FA0E4810A10268104804F032FAFC
:1025D0002A460DA10D4804F02DFA32460AA10B48F7
:1025E00004F028FA05480EA10268084804F022FA0F
:1025F0000948006803B0BDEC068BF0BD3401002033
:102600002C010020BC05002025640900005000407A
:10261000D8000020DC000020280100203801002024
:102620002564090D0A0000002DE9F0472DED048B0B
:1026300088B0B0EE408AF0EE608AB0EE419A05466E
:102640000020049005900690079000900190029061
:102650000390002400279FEDA80AA84880ED000AF7
:102660009FEDA50A80ED020A9FEDA50A80ED010A03
:102670009FEDA40A80ED030A9FEDA30A80ED040AF2
:102680009FEDA10A80ED060A9FED9E0A80ED050AE6
:102690009FED9B0A80ED070A9FED9C0A9C4880ED08
:1026A000000A9FED9A0A80ED020A9FED9A0A80EDDA
:1026B000010A9FED990A80ED030A9FED980A80EDCB
:1026C000040A9FED960A80ED060A9FED930A80EDBD
:1026D000050A9FED900A80ED070A2846B0EE491AD8
:1026E000F0EE680AB0EE480AFFF7BEFBA0464FF0D6
:1026F00003092BE000264FF0030A22E0DFF8FCC1BB
:102700000CEBCA000CEBC60105EBC90205EBC803D4
:10271000D0ED013A90ED003AD1ED012A91ED002A79
:10272000D2ED011A92ED001AD3ED010A93ED000AE1
:1027300000F02EFA18B1012004A941F82600B24693
:10274000761C032EDADDC14608F10108B8F1030F4B
:10275000D0DD4FF000084FF003092AE000264FF0CB
:10276000030A21E0DFF8A8C10CEBCA000CEBC6019C
:1027700005EBC90205EBC803D0ED013A90ED003A34
:10278000D1ED012A91ED002AD2ED011A92ED001A45
:10279000D3ED010A93ED000A00F0FAF910B101201F
:1027A0004DF82600B246761C032EDBDDC14608F14B
:1027B0000108B8F1030FD1DD0498012808D005986D
:1027C000012805D00698012802D00798012801D1D8
:1027D000022400E00024022C0ED00098012808D02A
:1027E0000198012805D00298012802D003980128F9
:1027F00001D1012400E00024022C20D1DDE90401F4
:102800000844069908440799084402283BD1DDE9A9
:102810000401084402280ED0DDE90501084402281D
:1028200009D0DDE906010844022804D0049907987C
:102830000844022801D1022725E0002723E0012CCB
:1028400020D1DDE9000108440299084403990844B5
:10285000022818D1DDE90001084402280ED0DDE984
:1028600001010844022809D0DDE9020108440228D8
:1028700004D0009903980844022801D1012702E0FE
:10288000002700E00027022C03D102202449086021
:1028900009E0012C03D101202149086003E014B9AB
:1028A00003201F49086027B91D4800681C490860BB
:1028B0000AE0012F03D104201949086004E0022F27
:1028C00002D10520164908603A4616A1194804F0BD
:1028D000B1F8224618A1174804F0ACF810481AA124
:1028E0000268144804F0A6F80D48006808B0BDEC72
:1028F000048BBDE8F0870000000016C57C050020B1
:1029000000009645000000000000164500007AC354
:102910009C05002000C041450080D44400007A435B
:1029200068000020737469636B436F726E6F723D51
:102930002564090000500040696E74657273656318
:10294000743D256409000000737469636B537461FE
:102950007475733D2564090010B57C4800787C4986
:1029600008607C480068401C7A4908600846006896
:1029700005287CD100200860744890ED100A764844
:10298000D0ED000A30EE600AF1EE040A80EE201A63
:102990009FED720A21EE000A714880ED000A6B4833
:1029A00090ED110A6F48D0ED000A70EE600AB1EEAA
:1029B000041A80EE810ADFED690A20EE200A6A48D7
:1029C00080ED000A6148D0ED0C0A90ED081A70EE17
:1029D000810AB0EE600A02F03BFBF6EE000A20EE40
:1029E000200A624880ED000A5D4890ED000A20EE62
:1029F000000A5D48D0ED000A90ED001A00EE810A51
:102A0000F1EEC00A5148C0ED240A584890ED001A72
:102A1000DFED571A21EE211AF0EE410A4B4890EDF6
:102A2000241AB0EE410A03F0B3FB28B15148006804
:102A3000401C5049086002E000204E4908604D48A3
:102A400000681E2816D100204A49086007F0CEF918
:102A5000494880ED000A07F0CFF9484880ED000AA8
:102A600020203A4908700020C1F8E40000E06CE042
:102A700000F074FF354890ED100A374880ED000AE9
:102A8000324890ED110A374880ED000A344890ED45
:102A9000000ABDEEC00A10EE102A39A1394803F031
:102AA000C9FF314890ED000ABDEEC00A10EE102AB1
:102AB00033A1344803F0BEFF2C4890ED000ABDEE70
:102AC000C00A10EE102A2EA12E4803F0B3FF2448AE
:102AD00090ED000A20EE000A2348D0ED000A90EDA8
:102AE000001A00EE810AF1EEC00ABDEEE00A10EE17
:102AF000102A23A1234803F09DFF144890ED100AEB
:102B0000BDEEC00A10EE102A1DA11E4803F092FF70
:102B10000E4890ED110ABDEEC00A10EE102A18A161
:102B2000184803F087FF134815A10268154803F001
:102B300081FF0648027812A1124803F07BFF034888
:102B400011A1C26D0F4803F075FF10BD28040020CD
:102B50005C000020AC000020BC0000200000C84247
:102B6000B0000020C0000020B4000020B800002009
:102B7000CDCC4C3EC400002060000020640000204A
:102B8000256409000050004025640D0A0000000083
:102B900010B52DED080B2DED048B9DED0A0ADDED32
:102BA000060A30EE600ADDED050A9DED071A70EEAB
:102BB000C10A20EE200ADDED040A9DED061A70EE32
:102BC000C10A9DED0B1ADDED071A31EE611A00EE18
:102BD000C10ADDED080A9DED061A70EEC10A9DEDF1
:102BE000051ADDED071A31EE611A60EE810A9DEDDE
:102BF000041ADDED061A31EE611ADDED091A9DEDBC
:102C0000072A71EEC21A41EE610A20EE200AB0EEE8
:102C1000408A9DED040ADDED0A0A30EE600ADDED22
:102C2000090A9DED0B1A70EEC10A20EE200ADDEDB7
:102C3000080A9DED0A1A70EEC10A9DED051ADDED38
:102C40000B1A31EE611A00EEC10ADDED060A9DEDA8
:102C50000A1A70EEC10A9DED091ADDED0B1A31EE6C
:102C6000611A60EE810A9DED081ADDED0A1A31EE57
:102C7000611ADDED071A9DED0B2A71EEC21A41EEC5
:102C8000610A20EE200AF0EE408A9DED061AF0EE71
:102C9000410A9DED041AB0EE410A01F077FBB0EE57
:102CA000409A9DED0A1AF0EE410A9DED081AB0EE29
:102CB000410A01F083FBB4EEC09AF1EE10FA5FDB3B
:102CC0009DED0A1AF0EE410A9DED081AB0EE410A98
:102CD00001F05CFBB0EE409A9DED061AF0EE410A61
:102CE0009DED041AB0EE410A01F068FBB4EEC09A03
:102CF000F1EE10FA44DB9DED071AF0EE410A9DED6E
:102D0000051AB0EE410A01F041FBB0EE409A9DED8C
:102D10000B1AF0EE410A9DED091AB0EE410A01F0DE
:102D20004DFBB4EEC09AF1EE10FA29DB9DED0B1AC3
:102D3000F0EE410A9DED091AB0EE410A01F026FBC2
:102D4000B0EE409A9DED071AF0EE410A9DED051A8E
:102D5000B0EE410A01F032FBB4EEC09AF1EE10FA87
:102D60000EDBB5EEC08AF1EE10FA09D8F5EEC08A96
:102D7000F1EE10FA04D80120BDEC048B08B010BDB0
:102D80000020F9E710B51048C06D042802D00528CE
:102D900016D10AE0DFED0D1A9FED0D1ADFED0D0AD9
:102DA0009FED0D0A02F0A4FB0BE0DFED081A9FED8A
:102DB000081ADFED0A0A9FED080A02F099FB00E00D
:102DC00000BF00BF012010BD2804002000001645F0
:102DD00000000000008089440000E1440000C84475
:102DE000F0EE400A0E4890ED000A20EE200A0D4851
:102DF00090ED001AB8EEC11A30EEC11A0A48D0EDB3
:102E0000001A01EE810A094880ED000ABDEEE00AD1
:102E1000044880ED000A054890ED000A7047000064
:102E2000DC010020D8010020E0010020E4010020A6
:102E300010B53048C06D032802DC02F071FD57E088
:102E40002C48C06D032806DD2A48C06D052802DC29
:102E5000FFF798FF4CE02748C06D052848DD25485E
:102E6000C06D092844DC2348C06D06280ED12248D5
:102E7000006801280AD100201F4908601D49086F19
:102E800001F0C0F9401D1B49C86506E01948C06D36
:102E9000092802DD06211748C1651648806E1749CA
:102EA0000968081A012821DB124890ED110ADFEDAC
:102EB000140AB4EEE00AF1EE10FA17DD90ED110AF3
:102EC000DFED100AB4EEE00AF1EE10FA0ED290ED4A
:102ED000100AB5EEC00AF1EE10FA07DD007820F016
:102EE00001000449087000210248C16502F06AFD32
:102EF00010BD000028040020580000200800002019
:102F00000000FA440040034510B52DED028BB0EEF1
:102F1000408AB0EE480A00F00FF8BDEEC00A10EE8D
:102F2000104A22460821034803F05EFEBDEC028BE6
:102F300010BD000000640040F0EE400A9FED020A60
:102F400020EE800A7047000000008045024600EE37
:102F5000102AB8EEC00ADFED1C0AB4EEE00AF1EE6A
:102F600010FA0ADC00EE102AB8EEC00ADFED170AEC
:102F7000B4EEE00AF1EE10FA03D20020144B186010
:102F800002E00120124B186000EE101AB8EEC00AE1
:102F9000DFED0D0AB4EEE00AF1EE10FA0ADC00EE05
:102FA000101AB8EEC00ADFED090AB4EEE00AF1EE3D
:102FB00010FA03D20020064B186002E00120044BF7
:102FC000186003480068704700A8874500808E435A
:102FD000B401002010B50749074800F0EBF838B1FC
:102FE0000021054800F024F80249034800F006F8E3
:102FF00010BD000000800028B86002400246094B66
:103000009A4201D2084801E00648103801F0005306
:103010001BB1064B0B40C36002E0044B0B408360C6
:103020007047000010640240006002407D0F7D0F79
:1030300021B1026842F00102026003E0026822F05E
:103040000102026070470000016821F00101016087
:103050000021016041608160C16001612121416105
:103060004A49884204D13D21484A103A91608CE097
:1030700046491831884205D14FF47461434A103AE9
:10308000916082E041493031884205D14FF474119A
:103090003E4A103A916078E03C494831884205D177
:1030A0004FF07461394A103A91606EE037496031EF
:1030B000884204D13649354A103AD16065E0334937
:1030C0007831884204D13349304A103AD1605CE00B
:1030D0002E499031884204D12F492C4A103AD160B0
:1030E00053E02A49A831884205D14FF03D51274A83
:1030F000103AD16049E02949884204D13D21274A4C
:10310000083A116041E025491831884205D14FF451
:103110007461224A083A116037E020493031884210
:1031200005D14FF474111D4A083A11602DE01B4976
:103130004831884205D14FF07461184A083A11604D
:1031400023E016496031884204D11149134A121F05
:1031500011601AE011497831884204D10D490F4AB3
:10316000121F116011E00D499031884204D10A49C3
:103170000A4A121F116008E00849A831884204D1A8
:103180004FF03D51054A121F116070471060024018
:103190003D000020400F002000003D201064024050
:1031A000014600200A6802F001020AB1012000E095
:1031B0000020704770B50246002000240025124E02
:1031C000B24201D2114B01E00F4B103B104E0E40AA
:1031D00036B11E2606EAD124166806EA040502E086
:1031E000566906F0800501F000560EB15C6800E0FB
:1031F0001C68084E344004EA010616B10DB10120E6
:1032000000E0002070BD0000106402400060024039
:103210003C0F3C0F7D0F7D0F10B501F080034BB1CB
:1032200022B1436943F08003436103E0436923F023
:103230008003436180290BD02AB1036801F01E048A
:103240002343036004E0036801F01E04A34303600A
:1032500010BD000010B500220268134B1A40CC6864
:103260000B6823434C6923438C692343CC69234374
:103270000C6A23434C6A23438C6A23434C6B2343DD
:103280008C6B23431A430260426922F00702D1E9A2
:103290000B3423431A4342610B6943604B688360DC
:1032A0008B68C36010BD00003F801CF070470000B9
:1032B00010B52DED028B06F095FBB0EE408A30483C
:1032C00030A10268324803F0B5FB2D48006806289B
:1032D00051D2DFE800F050030C153E472DA12C48D9
:1032E00003F0A8FBB0EE480AFDF718FB44E02BA161
:1032F000274803F09FFBB0EE480AFDF70FFB3BE0C9
:1033000028A1234803F096FB28480068192817D104
:10331000274890ED0F0A80ED420A0121C0F8E8101D
:1033200090ED0F0ADFED230A30EE200A80ED3B0A14
:103330001E4800781E4908700846C16D016607E006
:103340001A480068062803D1B0EE480AFDF7E6FAED
:1033500012E019A10E4803F06DFBB0EE480AFDF72C
:10336000DDFA09E016A10A4803F064FBB0EE480A52
:10337000FDF7D4FA00E000BF00BFBDEC028B10BD2A
:1033800068000020737469636B3A25640D0A0000BD
:103390000050004063617365310000006361736534
:1033A0003200000063617365330000005C000020A0
:1033B000280400200000344363617365340000007A
:1033C000636173653500000010B51D48D0F8B80082
:1033D0001C490968884205D0B7EE000A1A4880EDFA
:1033E000000A04E01648D0F8B8001649086006F054
:1033F0004BFBF1EE040AB4EEE00AF1EE10FA09DD3F
:10340000114890ED000ADFED110A30EE200A80ED40
:10341000000A11E006F038FBF9EE040AB4EEE00A07
:10342000F1EE10FA08D2084890ED000ADFED070A25
:1034300030EE600A80ED000A034890ED000A10BDEE
:1034400028040020C4020020C0020020CDCCCC3DC6
:103450007FB500200290039006F070FB044606F052
:1034600097FB05469FED5E0A01F0B8FF00205D491D
:10347000C1F8E40029462046FFF768FD5A49086074
:103480005A48007800F0010050B106F049FA584956
:1034900008605648006820F001005449086087E041
:1034A0005248007800F0020000285BD04F480078B6
:1034B00000F0080000287BD04D48006806F0EEFAC6
:1034C0008DED020ACDED030ADDED031AB0EE611AAF
:1034D0004448D0ED0F1AF0EE610ADDED021AB0EEAD
:1034E000610AFDF72FF8FEF7F1FD002860D00022F9
:1034F0000121404803F078FB002202213D4803F0FF
:1035000073FB3948006850B13948006805F0CCFFBA
:1035100001203949086000203449086048E03448F7
:10352000006806F0A3F935480068401C334908607C
:1035300000203149086031480068022804DB01207E
:10354000086000202D4908600020284908600846CE
:10355000006840F0010008600846006840F0040080
:10356000086025E02148007800F0040000B32048FE
:10357000006800F0EBF88DED000ACDED010A9DED3D
:10358000011AF0EE410A9DED001AB0EE410A01F079
:10359000BBF901280CD100201449086008460068D6
:1035A00040F0020008600846006840F0080008602B
:1035B00011480068012812D10A48007820F0100054
:1035C000084908700B200949086000200A49086072
:1035D0000A4908600A49086048608860C8607FBD81
:1035E0000000704228040020D0010020A801002023
:1035F000CC01002000680040A4010020C801002088
:1036000064060020F0B50A4600210023002400BF14
:103610003DE0012505FA01F3156805EA03049C4223
:1036200034D105684F000326BE40B54305601579C7
:103630004E00B5400668354305601579012D02D06E
:103640001579022D16D185684F000326BE40B5437B
:10365000856055794E00B54086683543856045687C
:1036600001268E40B5434560456896798E40B6B2D6
:1036700035434560C5684F000326BE40B543C5606D
:10368000D5794E00B540C6683543C560491C102940
:10369000BFD3F0BDF0B5002300244D07ED0E02FAB4
:1036A00005F3CE1000F1200555F826504E07F70E11
:1036B0000F26BE40B543CF1000F1200646F8275034
:1036C000CE1000F1200555F8265045EA0304CE102F
:1036D00000F1200545F82640F0BD024600201369A0
:1036E0000B400BB1012000E0002070474183704780
:1036F0000183704710B5044607230122214608487C
:10370000FCF77AFE0648FCF7D3FE00BF022104480E
:10371000FCF73EFE0028F9D00148FCF735FE10BD4D
:10372000002001402DE9F04107460C460025002607
:1037300005E03846FFF7DEFF0544701CC6B2A6421E
:10374000F7DBB5FBF4F080B2BDE8F0810CB530B129
:1037500001280DD0022814D0032824D11AE09FEDAF
:10376000150A8DED000A9FED140A8DED010A1AE08D
:103770009FED120A8DED000A9FED0F0A8DED010AF3
:1037800011E09FED0F0A8DED000A9FED0E0A8DED01
:10379000010A08E09FED0A0A8DED000A9FED0A0A72
:1037A0008DED010A00BF00BF9DED000ADDED010AAD
:1037B0000CBD00000000E1C4000016450000E1441B
:1037C00000000000004083450000164400BFFEE7F3
:1037D00008B5002003465322632100904FF080403B
:1037E00002F05CFA0120002340F2473240F2E73158
:1037F0000090184802F052FA0120002340F24732AC
:1038000063210090144802F049FA4FF4007043100D
:10381000124A4FF4FA7100901148FDF7ABFAFCF729
:103820004DFEFDF767F901F057F802F05BFB01F080
:10383000EDFB4FF4E13001F0FFFD4FF4E130FEF716
:10384000B9FA4FF4E13001F085FB4FF4612002F04A
:10385000A9FC08BD0004004000080040000402402C
:103860000064004070B505460C4600F00DF814B138
:10387000012C06D102E0FFF7DBFA03E0FCF73AFF88
:1038800000E000BF00BF70BD10B5324890ED0D0ADA
:10389000DFED310AB4EEE00AF1EE10FA06DDD0F801
:1038A000E80018B901202B49C1F8E4002948D0F8F4
:1038B000E800012837D102F047FB80B32548006FAC
:1038C00008B9012100E0002122480167002141667A
:1038D000016EC1650021C0F8E810C06D032822DA2E
:1038E0001C48C06D18B902211A48C1651BE019486F
:1038F000C06D022803D100211648C16513E01548A8
:10390000C06D072803D109211248C1650BE0114899
:10391000C06D092807D107210E48C16503E0FFE704
:1039200064210C48C1650B48C06D03280ADD0948B5
:10393000C06D092806DA05F009FC0649C96D014485
:103940000448C1650348C06D062801DDFFF780FD0E
:1039500010BD00002804002000D8BE4510B52DED94
:10396000048B06F04BF9B0EE408A06F0C3F9F0EE96
:10397000408A06F037F8B0EE409A1748B0EE491A80
:10398000F0EE680AB0EE480AFEF76EFA1248B0EEA2
:10399000491AF0EE680AB0EE480AFEF745FE0F49F4
:1039A0000860BDEEC80A10EE102A0DA10E4803F003
:1039B00041F8BDEEE80A10EE102A0CA10A4803F007
:1039C00039F8BDEEC90A10EE102A0AA1064803F024
:1039D00031F8BDEC048B10BD5C05002068000020B0
:1039E000783D25640900000000500040793D2564C1
:1039F00009000000616E676C653D2564090D0A00D1
:103A000010B52A480068B0F5967F04DA27480068A8
:103A1000401C2649086006F091F8B0F5167F0FDAD1
:103A200022480068B0F5967F0AD14FF497701F497D
:103A3000086001211E48C16700210167002010BDF8
:103A400006F0A6F8B0F5167F0EDA18480068B0F553
:103A5000967F09D14FF497701449086001211448EA
:103A6000C16701670020EAE706F092F8B0F5167F1B
:103A700012DA06F063F8B0F5167F0DDA0B4800682D
:103A8000B0F5967F08D14FF497700849086002217D
:103A90000748C1670020D2E704480068B0F5967F68
:103AA00002DD0020014908600120C8E73C00002039
:103AB0002804002010B52DED0E8BF0EE408AB0EEFC
:103AC000608AB0EE419A044605F0D8FF0446642CA3
:103AD0000AD19FED890A894880ED000A9FED880A86
:103AE000884880ED000A0BE0012C09D19FED860A81
:103AF000824880ED000A9FED820A824880ED000A2C
:103B0000B0EE490A04F0D8FC9FED801AF0EE680A86
:103B100041EE400AF0EE608AB0EE490A03F08CFDF7
:103B20009FED7A1AF0EE480A41EE000AB0EE608A84
:103B3000724890ED000A38EEC00A20EE000A714883
:103B4000D0ED000A78EE600A90ED001A38EE411AC6
:103B500000EE810AF1EEC00A6D48C0ED000A90ED5A
:103B6000000ADFED6C0A20EE200AD0ED000A60EEBC
:103B7000200A694890ED000A654890ED001ADFEDD3
:103B8000671A11EE210A80EE801AB1EEC10A64486C
:103B900080ED000AD0ED000A9FED620A9FED621AE7
:103BA00011EE200AF0EE000A30EE200A5F4880EDA8
:103BB000000A524890ED000A30EE680A5C4880ED39
:103BC000000A504890ED000A30EE480A594880ED4E
:103BD000000A5748006807F00BFA41EC1D0B5548E6
:103BE000006807F005FA41EC1E0BB0EE4D1AF0EE3E
:103BF0006D1AB0EE4E0AF0EE6E0A03F011FBB0EE55
:103C000040CAF0EE60CA9FED4C0B53EC102B51EC08
:103C10001C0B06F0F7FE41EC1B0B9FED490B53EC20
:103C2000102B06F001FD41EC1A0B06F00FFC464983
:103C30000860084690ED000ADFED440A30EE600AA5
:103C400080ED000A90ED000ADFED410AB4EEE00AD3
:103C5000F1EE10FA08DD90ED000ADFED3E0A30EEDD
:103C6000600A80ED000A11E0374890ED000ADFEDB0
:103C70003A0AB4EEE00AF1EE10FA07D290ED000A2B
:103C8000DFED340A30EE200A80ED000A2E4890ED78
:103C9000000A39EE400A254880ED010A90ED010A3C
:103CA000DFED2B0AB4EEE00AF1EE10FA08DD90ED3C
:103CB000010ADFED280A30EE600A80ED010A11E00A
:103CC0001A4890ED010ADFED240AB4EEE00AF1EEA5
:103CD00010FA07D290ED010ADFED1E0A30EE200A3D
:103CE00080ED010A114890ED000AD0ED010A90ED37
:103CF000021ABDEC0E8B10BD008022C35C010020B7
:103D00009AF5114560010020008022436666C24298
:103D1000500100206E5141465401002034119E3F55
:103D200058010020BE9FAE4024B4653C4C060020E4
:103D3000640100206801002000000000008066404F
:103D400000000060FB2109406C0100200000B4422B
:103D5000000034430000B443000034C32DE9F041B7
:103D60002DED0A8BF0EE408AB0EE609AB0EE418AFB
:103D700006460C461546FE4890ED100AFD4880EDBB
:103D8000000AFB4890ED110AFB4880ED000AF84854
:103D900090ED0F0AF94880ED000AF54880ED428A5F
:103DA00080ED128A6D1E002002F0E4FE16B1012E95
:103DB0007DD13BE104FB05F04FF4EB71484300EE8D
:103DC000100AB8EEC00A30EE280AEA48D0ED000A20
:103DD00030EEC00AE64880ED130AE848D0ED000A4C
:103DE000B0EE480A05F072F9E14880ED140A04FBD0
:103DF00005F04FF4AF71484300EE100AB8EEC00A68
:103E000070EE090A00EE104AB8EEC00A60EE800AB1
:103E100000EE104AB8EEC00AD74890ED001A40EE06
:103E2000410AD348C0ED150A284606F0E6FA0746CF
:103E300006F081FD41EC1A0BCD4890ED150A10EE0D
:103E4000101A084607F0D4F841EC1C0BB0EE4C0AEF
:103E5000F0EE6C0A03F098FCB0EE40BAF0EE60BAF7
:103E600053EC1A2B51EC1B0B06F0CAFE7ED2012D2F
:103E700056DABF48D0ED130AB0EE600A06F0C6F875
:103E8000F0EE400ABA4890ED141A00EE104AB8EE6F
:103E9000C00A00EE201AB0EE412AB0EE420AFCF74A
:103EA000D3FBB348D0ED0C0A30EE200A00E09EE1CF
:103EB00080ED0B0AD0ED130AB0EE600A06F0A6F80A
:103EC000F0EE400AAA4890ED141A00EE104AB8EE3F
:103ED000C00A00EE201AB0EE412AB0EE420AFCF70A
:103EE000B3FBA348D0ED0C0AF1EE600A30EE200AD5
:103EF00080ED070A90ED0B0ABDEEC00A10EE102A05
:103F000001219F4802F070FE994890ED070ABDEE2E
:103F1000C00A10EE102A0221994802F065FE84E0E2
:103F2000012D55DB9248D0ED130AB0EE600A05F082
:103F300097F9F0EE400A8E4890ED141A00EE104A00
:103F4000B8EEC00A00EE201AB0EE412AB0EE420AE6
:103F5000FCF77AFB8648D0ED0C0A30EE200A80EDA3
:103F60000B0AD0ED130AB0EE600A00E031E005F074
:103F700077F9F0EE400A7E4890ED141A00EE104AF0
:103F8000B8EEC00A00EE201AB0EE412AB0EE420AA6
:103F9000FCF75AFB7648D0ED0C0AF1EE600A30EEE1
:103FA000200A80ED070A90ED0B0ABDEEC00A10EE64
:103FB000102A0121724802F017FE6D4890ED070AA1
:103FC000BDEEC00A10EE102A02216D4802F00CFE70
:103FD0002BE0284606F011FA074606F0ACFC41EC4F
:103FE0001A0B634890ED150A10EE101A084606F0F9
:103FF000FFFF41EC1C0BB0EE4C0AF0EE6C0A03F034
:10400000C3FBB0EE40BAF0EE60BA53EC1A2B51ECA1
:104010001B0B06F0BBFC08D29FED5A0A544880EDFA
:10402000150AC06D401C5249C865E1E004FB05F06B
:104030004FF4AF71484300EE100AB8EEC00A30EEFC
:10404000090A4D48D0ED000A30EEC00A484880ED1C
:10405000130A4A48D0ED000AB0EE480A05F036F8D7
:10406000434880ED140A04FB05F04FF4EB7148431C
:1040700000EE100AB8EEC00A38EEC00A3D48D0ED96
:10408000000A30EE600A3A4880ED150A284606F02C
:10409000B4F9074606F04FFC41EC1A0B344890ED9A
:1040A000150A10EE101A084606F0A2FF41EC1C0B90
:1040B000B0EE4C0AF0EE6C0A03F066FBB0EE40BACC
:1040C000F0EE60BA53EC1A2B51EC1B0B06F098FD86
:1040D00060D22748D0ED130AB0EE600A05F0C0F8B0
:1040E000F0EE400A224890ED141A00EE104AB8EEA5
:1040F000C00A00EE201AB0EE412AB0EE420AFCF7E8
:10410000A3FA1B48D0ED0C0A30EE200A80ED0B0A12
:10411000D0ED130AB0EE600A05F0A2F8F0EE400A06
:10412000134890ED141A00EE104AB8EEC00A00EEE3
:10413000201AB0EE412AB0EE420AFCF785FA0C488C
:10414000D0ED0C0AF1EE600A30EE200A80ED070A8D
:1041500090ED0B0ABDEEC00A10EE102A01210848AE
:1041600002F042FD024890ED070ABDEEC00A0BE0E6
:1041700028040020380300203C03002040030020D6
:10418000006800400000000010EE102A02211B48C9
:1041900002F02AFD284606F030F9074606F0CBFB70
:1041A00041EC1A0B164890ED150A10EE101A08464D
:1041B00006F01EFF41EC1C0BB0EE4C0AF0EE6C0A50
:1041C00003F0E2FAB0EE40BAF0EE60BA53EC1A2B0C
:1041D00051EC1B0B06F0DAFB08D21FED160A08485B
:1041E00080ED150AC06D401C0549C86500E000BFA0
:1041F00000BFBDEC0A8BBDE8F08100000068004004
:1042000028040020014611B101297DD154E058480D
:1042100090ED0F0ADFED570AB4EEE00AF1EE10FA66
:1042200008DC90ED0F0ADFED540AB4EEE00AF1EE7F
:1042300010FA01D2032070474D4890ED0F0ADFEDD0
:104240004F0AB4EEE00AF1EE10FA0ADD90ED0F0A23
:10425000DFED4B0AB4EEE00AF1EE10FA01D20220D3
:10426000E9E7434890ED0F0AFBEE040AB4EEE00ADA
:10427000F1EE10FA0ADD90ED0F0AF3EE040AB4EE47
:10428000E00AF1EE10FA01D20120D4E7384890EDAF
:104290000F0ADFED3C0AB4EEE00AF1EE10FA0ADD97
:1042A00090ED0F0ADFED380AB4EEE00AF1EE10FAF5
:1042B00001D20420BFE757E02D4890ED0F0ADFED53
:1042C0002F0AB4EEE00AF1EE10FA0ADD90ED0F0AC3
:1042D000DFED2B0AB4EEE00AF1EE10FA01D2042071
:1042E000A9E7234890ED0F0AFBEE040AB4EEE00ABA
:1042F000F1EE10FA0CDD90ED0F0AF3EE040AB4EEC5
:10430000E00AF1EE10FA00E02DE001D2012092E780
:10431000174890ED0F0ADFED1B0AB4EEE00AF1EE4C
:1043200010FA0ADD90ED0F0ADFED170AB4EEE00A8D
:10433000F1EE10FA01D202207DE70D4890ED0F0A50
:10434000DFED0C0AB4EEE00AF1EE10FA08DC90EDB5
:104350000F0ADFED090AB4EEE00AF1EE10FA01D21D
:10436000032068E700E000BF00BF002063E7000013
:104370002804002000002043000020C30000DCC20D
:1043800000008CC200008C420000DC42F0EE401ABB
:10439000B0EE601ABDEEE10AF0EE400AB8EEE00AB7
:1043A000B4EEC01AF1EE10FA03DDBDEEC10AF0EE74
:1043B000400AB8EEE00A704700BFFEE7F0EE401A90
:1043C000B0EE601ABDEEE10AF0EE400AB8EEE00A87
:1043D000B4EEC01AF1EE10FA03D2BDEEC10AF0EE4F
:1043E000400AB8EEE00A704710B508480068401C63
:1043F0000649086008460068052806DD01210448D2
:1044000000F016FF00200149086010BD10040020D4
:104410000068004000BFFEE770B5002100230F22B6
:10442000C4781CB3174C246804F4E064C4F5E06459
:10443000C4F30721C1F10404E3B20A4144789C406B
:10444000E1B28478144021430C07210E0E4C05780C
:104450006155047804F01F050124AC4005786D1106
:10446000AD0005F1E025C5F8004109E0047804F04D
:104470001F050124AC40054D0678761145F826400D
:1044800070BD00000CED00E000E400E080E100E021
:1044900002490143024A1160704700000000FA051A
:1044A0000CED00E010B52DED0C8BB0EE409AB0EEA7
:1044B000608AF0EE419AF0EE618A05F09FFBEA48CF
:1044C00080ED000A05F016FCE84880ED000A05F0D2
:1044D00089FAE74880ED000AE34890ED000A30EEE3
:1044E000690A20EE000AE148D0ED000A70EEE80A01
:1044F00090ED001A31EE681A00EE810A10EE101AE3
:10450000084606F075FD41EC1B0BB0EE4B0AF0EED1
:104510006B0A04F099F8B0EE40AAF0EE60AA51ECF4
:104520001A0B05F093FFD3490860084690ED000A86
:1045300030EE480AD04880ED000ACB4890ED000AE2
:1045400030EE690ACD4880ED000AC84890ED000AB7
:1045500030EE680ACA4880ED000A90ED000AC748AC
:10456000D0ED000A80EE201AC64880ED001A90EDCA
:10457000000AFFEE000A80EE801A11EE104A204673
:1045800006F036FD41EC1D0BB0EE4D0AF0EE6D0A63
:1045900002F0DAFCB0EE40CAF0EE60CA9FEDBA0B52
:1045A00053EC102B51EC1C0B06F02CFA41EC1B0BBE
:1045B0009FEDB70B53EC102B06F036F841EC1A0BBD
:1045C00005F044FFB4490860AD48006806F010FDEE
:1045D00041EC1B0BB0EE4B0AF0EE6B0A03F0D4F883
:1045E000B0EE40AAF0EE60AA9FEDAC0B53EC102B9E
:1045F00051EC1A0B06F0CAF91AD2A04890ED000A45
:10460000B5EEC00AF1EE10FA05DD9FEDA60AA64848
:1046100080ED000A0CE0994890ED000AB5EEC00A62
:10462000F1EE10FA04D29FEDA10A9F4880ED000A36
:104630009248006806F0DCFC41EC1B0BB0EE4B0A24
:10464000F0EE6B0A03F0A0F8B0EE40AAF0EE60AA1C
:104650009FED920B53EC102B51EC1A0B06F096F9D0
:104660001AD2874890ED000AB5EEC00AF1EE10FAB2
:1046700005DD9FED8F0A8C4880ED000A0CE0804834
:1046800090ED000AB5EEC00AF1EE10FA04D29FEDEB
:10469000890A854880ED000A784890ED000AB5EE59
:1046A000C00AF1EE10FA27DD754890ED000AB5EE6C
:1046B000C00AF1EE10FA0ADD774890ED000ADFED4E
:1046C0007C0A30EE200A784880ED000A43E06C480E
:1046D00090ED000AB5EEC00AF1EE10FA3BD26E483A
:1046E00090ED000ADFED720A30EEC00AB1EE400A2A
:1046F0006D4880ED000A2EE0604890ED000AB5EEAE
:10470000C00AF1EE10FA26D25D4890ED000AB5EE2F
:10471000C00AF1EE10FA0ADD5F4890ED000ADFED05
:10472000640A30EE200A604880ED000A13E0544825
:1047300090ED000AB5EEC00AF1EE10FA0BD2564821
:1047400090ED000ADFED5A0A30EEC00AB1EE400AE1
:10475000554880ED000A4648D0ED000A524890EDD9
:10476000000A04F0B3FC544880ED000A9FED530AA0
:1047700078EE000A80EE880A20EE090A504880EDA3
:10478000000A9FED4E0A78EE400A80EE880A20EE7D
:10479000090A4C4880ED000A494890ED000A9FED57
:1047A0004A1AC0EE010A9FED490A20EE800A4848E5
:1047B00080ED0C0A434890ED000A9FED431AC0EECD
:1047C000010A9FED420A20EE800A414880ED080A66
:1047D000294890ED000A05F0A7FD3748D0ED000A02
:1047E00030EE200AB0EE40AAFEF7FAFA384880ED23
:1047F0000E0A214890ED000A05F096FD2E48D0EDF6
:10480000000A30EE200AB0EE40AAFEF7E9FA30487E
:1048100080ED0A0A90ED0C0AD0ED0E0A30EE200A67
:1048200080ED0B0A90ED080AB1EE400AD0ED0A0ABD
:1048300030EE200A80ED070A90ED0B0ABDEEC00AAB
:1048400010EE102A0121234802F0CEF9204890ED05
:10485000070ABDEEC00A10EE102A02211D4802F020
:10486000C3F9BDEC0C8B10BDF0010020F401002059
:10487000F8010020040200200C0200201402002095
:10488000180200200802002000000000008066409E
:1048900000000060FB210940100200200000000021
:1048A0000000F03F00000000FC0100200000344345
:1048B0000000B4420000B4C20002002000005943CE
:1048C000E8010020EC0100206766BC430000804541
:1048D00028040020006800401CB50121102000F0D1
:1048E000E3FB4FF48070009000208DF8040003205B
:1048F0008DF8050001208DF8070069460148FEF794
:1049000081FE1CBD0010024010B52DED0C8BB0EEE9
:10491000408AF0EE608AFE4890ED100AFD4880ED76
:10492000000AFB4890ED110AFB4880ED000AF848A8
:1049300090ED0F0AF94880ED000AF74890ED000A63
:1049400030EE680A10EE101A084606F051FB41ECF2
:104950001D0B9FEDF31BB0EE4D0AF0EE6D0A02F059
:104960001FFFB0EE40BAF0EE60BAEA4890ED000AE0
:1049700030EE480A10EE101A084606F039FB41ECFA
:104980001D0B9FEDE71BB0EE4D0AF0EE6D0A02F035
:1049900007FFB0EE40CAF0EE60CA53EC1B2B51EC9F
:1049A0001C0B05F085FD41EC1A0BB0EE4A0AF0EE47
:1049B0006A0A03F049FEB0EE409AF0EE609A51ECBC
:1049C000190B05F043FDD8490860D24890ED000A64
:1049D00030EE480AD54880ED000ACF4890ED000A35
:1049E00030EE680AD24880ED000A90ED000ACF4808
:1049F000D0ED000A80EE201ACE4880ED001A006843
:104A000006F0F6FA41EC1C0BB0EE4C0AF0EE6C0A24
:104A100002F09AFAB0EE40BAF0EE60BA9FEDC60B23
:104A200053EC102B51EC1B0B05F0ECFF41EC1A0B77
:104A30009FEDC30B53EC102B05F0F6FD41EC190B69
:104A400005F004FDC0490860B84890ED000ADFEDAC
:104A5000BF0A20EE200AFFEE000AB4EEE00AF1EEF3
:104A600010FA27DB90ED000ADFEDB80A20EE200AED
:104A7000F7EE000AB4EEE00AF1EE10FA1AD8AC48EC
:104A800090ED000AB5EEC00AF1EE10FA05DD9FEDDB
:104A9000B00AB04880ED000A0CE0A54890ED000A8D
:104AA000B5EEC00AF1EE10FA04D29FEDAB0AA948A8
:104AB00080ED000A9D4890ED000AB5EEC00AF1EEC7
:104AC00010FA25DD9A4890ED000AB5EEC00AF1EE25
:104AD00010FA0ADD9C4890ED000ADFEDA00A30EEE6
:104AE000200A9C4880ED000A41E0914890ED000AC0
:104AF000B5EEC00AF1EE10FA39D2934890ED000AF3
:104B0000DFED960A30EE200A924880ED000A2EE092
:104B1000864890ED000AB5EEC00AF1EE10FA26D2F2
:104B2000834890ED000AB5EEC00AF1EE10FA0ADDF6
:104B3000854890ED000ADFED890A30EE600A85486D
:104B400080ED000A13E07A4890ED000AB5EEC00A45
:104B5000F1EE10FA0BD27C4890ED000ADFED7F0AEF
:104B600030EEC00AB1EE400A7A4880ED000A6B4888
:104B7000D0ED000A774890ED000A04F0A7FA7848D3
:104B800080ED000A6848006806F032FA41EC1A0B22
:104B9000B0EE4A0AF0EE6A0A02F0F6FDB0EE409A74
:104BA000F0EE609A9FED6F0B53EC102B51EC190B4C
:104BB00006F026F823D26A4890ED000AFBF744FD80
:104BC000DFED6A0A30EE200ABDEEC00A10EE104A90
:104BD00022460121664802F007F8614890ED000A7C
:104BE000FBF732FDDFED630A30EE200ABDEEC00AAE
:104BF00010EE104A224602215D4801F0F5FF4A48B6
:104C0000006806F0F5F941EC1A0BB0EE4A0AF0EE36
:104C10006A0A02F0B9FDB0EE409AF0EE609A9FED9C
:104C2000560B53EC102B51EC190B05F0E9FF3CD25D
:104C30003D48006806F0DCF941EC1A0BB0EE4A0A78
:104C4000F0EE6A0A02F0A0FDB0EE409AF0EE609A33
:104C50009FED440B53EC102B51EC190B05F096FE15
:104C600023D23F4890ED000AFBF7EEFCDFED440A4B
:104C700030EE200ABDEEC00A10EE104A2246012195
:104C80003B4801F0B1FF364890ED000AFBF7DCFC31
:104C9000DFED3C0A30EE200ABDEEC00A10EE104AED
:104CA00022460221324801F09FFF1F48006806F0AB
:104CB0009FF941EC1A0BB0EE4A0AF0EE6A0A02F0D4
:104CC00063FDB0EE409AF0EE609A9FED2B0B53EC33
:104CD000102B51EC190B05F059FE7FD212480068D9
:104CE00006F086F941EC1A0BB0EE4A0AF0EE6A0AB9
:104CF00002F04AFDB0EE409AF0EE609A9FED220B72
:104D000053EC102B51EC190B05F07AFF66D23FE003
:104D100028040020100000201400002018000020AB
:104D200000000000000000402800002030000020AB
:104D300034000020240000200000000000806640B5
:104D400000000060FB2109402C00002000007A4494
:104D5000000034C31C000020000000000000B4422A
:104D6000200000200000000000406F400080BB4594
:104D7000006800400080BBC50000000000006940E2
:104D800000007A4500007AC5000000000000544091
:104D9000334890ED000AFBF757FCDFED320A30EEA6
:104DA000200ABDEEC00A10EE104A224601212E480C
:104DB00001F01AFF2A4890ED000AFBF745FCDFEDF1
:104DC0002B0A30EE200ABDEEC00A10EE104A224631
:104DD0000221254800E001E001F006FF24480068B8
:104DE00006F006F941EC1A0BB0EE4A0AF0EE6A0A38
:104DF00002F0CAFCB0EE409AF0EE609A9FED1D0BF7
:104E000053EC102B51EC190B05F0FAFE26D2184882
:104E1000006806F0EDF841EC1A0BB0EE4A0AF0EE2D
:104E20006A0A02F0B1FCB0EE409AF0EE609A1FED13
:104E30002A0B53EC102B51EC190B05F0A7FD0DD2EA
:104E400000220121084801F0CFFE0022022106487D
:104E500001F0CAFE0120BDEC0C8B10BD0020FAE76A
:104E6000200000200000FA44006800400000FAC45E
:104E70002800002000000000000000002DE9F043A1
:104E800089B081460D46174698460024304B0FCB1B
:104E900005AE0FC605F540700090019000208DF81A
:104EA00008008DF8090008208DF80A001FB944F2A7
:104EB0005010059002E045F250200590CDF8188082
:104EC00000243FE005A810F834008DF80B0005A879
:104ED00030F83400010A8DF80C1005A850F83400A1
:104EE000010C8DF80D1005A850F83400000E8DF857
:104EF0000E0005A800EBC40001798DF80F1005A87D
:104F000000EBC4008088010A8DF8101005A800EBA2
:104F1000C4004068010C8DF8111005A800EBC40016
:104F20004068000E8DF8120069464846FCF7D8FA32
:104F3000064600BF31464846FCF766FB0128F9D11A
:104F4000601CC4B2022CBDDB09B0BDE8F0830000D8
:104F5000B8B2000810B588B004460121082000F05E
:104F6000A3F80121880400F0AFF8072208212548A2
:104F7000FEF790FB072209212248FEF78BFB4FF436
:104F80004070069002208DF81C008DF81D00002056
:104F90008DF81E0001208DF81F0006A91948FEF7A4
:104FA00031FB4FF4E13002900020ADF80C00ADF879
:104FB0000E00ADF81000ADF814000C20ADF8120092
:104FC00002A9114801F0CCFC01210F4801F0FCFBC3
:104FD00040210D4801F0E0FB012240F225510A4832
:104FE00001F099FC27208DF8040000208DF80500C1
:104FF00001208DF806008DF8070001A8FFF70CFAD4
:1050000008B010BD000C0240004800401CB5012152
:10501000102000F049F85020009001208DF8040085
:1050200000208DF8060003208DF8050002208DF881
:10503000070069460548FEF7E5FA10210348FEF728
:1050400057FB40210148FEF751FB1CBD00100240F8
:10505000F0EE400A9FED060A20EE800A9FED051A49
:10506000C0EE011A0448C0ED001A90ED000A704726
:10507000DD7EBC43000080451404002010B54FF4D1
:105080007A63002206210248FFF7F8FE10BD0000F7
:105090000064004010B50523002206210148FFF7F7
:1050A000EDFE10BD0064004029B1064A12680243BB
:1050B000044B1A6004E0034A12688243014B1A60F1
:1050C000704700003038024029B1064A1268024396
:1050D000044B1A6004E0034A12688243014B1A60D1
:1050E000704700004038024029B1064A1268024366
:1050F000044B1A6004E0034A12688243014B1A60B1
:10510000704700002038024029B1064A1268024365
:10511000044B1A6004E0034A12688243014B1A6090
:10512000704700004438024029B1064A1268024321
:10513000044B1A6004E0034A12688243014B1A6070
:105140007047000024380240F0B5002100220024FE
:10515000022500260223324F3F6807F00C0121B1DF
:10516000042905D0082937D105E02E4F076036E025
:105170002D4F076033E02A4F3F1F3F68C7F380562B
:10518000274F3F1F3F6807F03F036EB1264FB7FB25
:10519000F3F7DFF88CC0ACF1040CDCF800C0CCF302
:1051A000881C07FB0CF40CE01E4FB7FBF3F7DFF88D
:1051B00070C0ACF1040CDCF800C0CCF3881C07FB19
:1051C0000CF4174F3F1F3F68C7F301477F1C7D005A
:1051D000B4FBF5F7076002E0124F076000BF00BFA5
:1051E0000F4F3F6807F0F0010909104F7A5C07681C
:1051F000D74047600A4F3F6807F4E051890A0B4FD8
:105200007A5C4768D7408760054F3F6807F4604184
:10521000490B064F7A5C4768D740C760F0BD000075
:10522000083802400024F40000127A00180400201C
:1052300070B588B005460C461E4903C9CDE9060184
:1052400004F540700190029000208DF80C008DF85C
:105250000D0008208DF80E000698C0B28DF80F00E2
:105260000698010A8DF810100698010C8DF811109F
:105270000698000E8DF812000798C1B28DF8131031
:105280000798010A8DF814100798010C8DF8151075
:105290000798000E8DF8160001A92846FCF720F9A2
:1052A000064600BF31462846FCF7AEF90128F9D181
:1052B00008B070BDE0B2000810B50B48C06F0128FF
:1052C00004D0022808D003280AD108E00648016F5C
:1052D0000120FEF7C7FA04E001F0E8FC01E000E07D
:1052E00000BF00BF10BD0000280400207047000070
:1052F0000CB50020019000903448006840F48030E4
:105300003249086000BF3148006800F40030009066
:105310000198401C0190009818B90198B0F5A06F51
:10532000F1D12A48006800F4003010B1012000904B
:1053300001E0002000900098012846D12348403029
:10534000006840F0805021494031086020480068E2
:1053500040F480401E4908601C48083000681B4922
:10536000083108600846006840F4004008600846BC
:10537000006840F4A05008601648091F0860081F24
:10538000006840F08070091F086000BF0F48006887
:1053900000F000700028F9D040F205600E49086066
:1053A0000A480830006820F0030008490831086006
:1053B0000846006840F00200086000BF034808305B
:1053C000006800F00C000828F8D10CBD003802403D
:1053D0000070004008544007003C024000B52DED2D
:1053E000028B81B0B0EE408AB0EE480A04F08AFF2A
:1053F000009041210F4801F0A5FB9DF800100D48D9
:1054000001F0A0FB9DF801100A4801F09BFB9DF8FC
:105410000210084801F096FB9DF80310054801F0C2
:1054200091FB4A21034801F08DFB01B0BDEC028BDA
:1054300000BD00000010014010B588B004460121F5
:105440000846FFF731FE01211020FFF75DFE07221D
:1054500009212548FEF71EF907220A212248FEF7F6
:1054600019F94FF4C060069002208DF81C008DF8E9
:105470001D0000208DF81E0001208DF81F0006A9D8
:105480001948FEF7BFF802940020ADF80C00ADF803
:105490000E00ADF81000ADF814000C20ADF81200AD
:1054A00002A9124801F05CFA4021104801F074F999
:1054B00025208DF8040000208DF8050002208DF8CD
:1054C000060001208DF8070001A8FEF7A5FF0122C4
:1054D00040F22551054801F01EFA0121034801F070
:1054E00073F908B010BD0000000002400010014038
:1054F00010B52DED0C8BB0EE409AB0EE608AF0EE58
:10550000419AF0EE618A04F079FBE94880ED000AE7
:1055100004F0F0FBE74880ED000A04F063FAE64887
:1055200080ED000AE24890ED000A30EE690A20EEB4
:10553000000AE048D0ED000A70EEE80A90ED001A8B
:1055400031EE681A00EE810A10EE101A084605F0D6
:105550004FFD41EC1B0BB0EE4B0AF0EE6B0A03F073
:1055600073F8B0EE40AAF0EE60AA51EC1A0B04F00A
:105570006DFFD2490860084690ED000A30EE480AF7
:10558000CF4880ED000ACA4890ED000A30EE690A63
:10559000CC4880ED000AC74890ED000A30EE680A5A
:1055A000C94880ED000A90ED000AC648D0ED000A17
:1055B00080EE201AC54880ED001A90ED000AFFEE3B
:1055C000000A80EE801A11EE104A204605F010FD08
:1055D00041EC1D0BB0EE4D0AF0EE6D0A01F0B4FC8B
:1055E000B0EE40CAF0EE60CA9FEDB90B53EC102B41
:1055F00051EC1C0B05F006FA41EC1B0B9FEDB60BB2
:1056000053EC102B05F010F841EC1A0B04F01EFFC0
:10561000B3490860AC48006805F0EAFC41EC1B0B9C
:10562000B0EE4B0AF0EE6B0A02F0AEF8B0EE40AA14
:10563000F0EE60AA9FEDAB0B53EC102B51EC1A0B64
:1056400005F0A4F91BD29F4890ED000AB5EEC00A00
:10565000F1EE10FA05DD9FEDA50AA54880ED000AE0
:1056600041E0984890ED000AB5EEC00AF1EE10FA5C
:1056700039D29FEDA00A9E4880ED000A33E09148A0
:10568000006805F0B5FC41EC1B0BB0EE4B0AF0EEE8
:105690006B0A02F079F8B0EE40AAF0EE60AA9FED36
:1056A000910B53EC102B51EC1A0B05F06FF91AD239
:1056B000854890ED000AB5EEC00AF1EE10FA05DD5E
:1056C0009FED8D0A8A4880ED000A0CE07E4890ED3F
:1056D000000AB5EEC00AF1EE10FA04D29FED870A77
:1056E000834880ED000A774890ED000AB5EEC00AC5
:1056F000F1EE10FA25DD744890ED000AB5EEC00A0F
:10570000F1EE10FA0ADD764890ED000ADFED7B0A33
:1057100030EE600A764880ED000A3FE06A4890ED7E
:10572000000AB5EEC00AF1EE10FA37D26C4890EDDF
:10573000000ADFED720A30EE200A6D4880ED000AA3
:105740002CE0604890ED000AB5EEC00AF1EE10FAC8
:1057500024D25D4890ED000AB5EEC00AF1EE10FAD1
:105760000ADD5F4890ED000ADFED640A30EE600A62
:105770005F4880ED000A11E0534890ED000AB5EE55
:10578000C00AF1EE10FA09D2554890ED000ADFED9B
:105790005B0A30EE200A564880ED000A4648D0EDFC
:1057A000000A534890ED000A03F090FC544880ED45
:1057B000000A9FED540A78EE000A80EE880A20EE77
:1057C000090A514880ED000A9FED4E0A78EE400A22
:1057D00080EE880A20EE090A4C4880ED000A4A480B
:1057E00090ED000A9FED4A1AC0EE010A9FED490AAA
:1057F00020EE800A484880ED0C0A4448D0ED000AAB
:105800009FED431A80EE810ADFED420A20EE200A66
:10581000414880ED080A2A4890ED000A04F084FD12
:105820003748D0ED000A30EEC00AB0EE40AAFDF7CE
:10583000D7FA394880ED0E0A214890ED000A04F0AD
:1058400073FD2F48D0ED000A30EEC00AB0EE40AA3A
:10585000FDF7C6FA304880ED0A0A90ED080AD0ED4F
:105860000E0A30EE200A80ED0B0A90ED0C0AB1EE24
:10587000400AD0ED0A0A30EE200A80ED070A90EDCA
:105880000B0ABDEEC00A10EE102A0121234801F0D8
:10589000ABF9214890ED070ABDEEC00A10EE102AC0
:1058A00002211E4801F0A0F9BDEC0C8B10BD0000D8
:1058B00024020020280200202C02002038020020B0
:1058C00040020020480200204C0200203C02002040
:1058D000000000000080664000000060FB210940DD
:1058E000440200202D431CEBE2361A3F000034C373
:1058F00030020020000000000000B4C20000B442EA
:1059000034020020000059431C0200202002002025
:105910006766BC4300008045280400200068004002
:1059200010B51F48C06D30B1012810D002281AD020
:10593000032830D123E00122114600209FED191ADF
:10594000DFED190A9FED190AFEF708FA24E001229B
:10595000114610469FED161ADFED130A9FED150A4A
:10596000FEF7FCF918E00122911E00209FED121AAB
:10597000DFED120A9FED0F0AFEF7F0F90CE00122AD
:10598000911E10469FED0E1ADFED0C0A9FED070ADF
:10599000FEF7E4F900E000BF00BF012010BD0000E9
:1059A000280400200000000000805445000016C4B8
:1059B0000000B4C200001644000034430000AF44AD
:1059C0000000B44210B51F48C06D062806D0072855
:1059D00010D008281AD0092830D123E00422012150
:1059E00000209FED191ADFED190A9FED190AFEF745
:1059F000B5F924E00422012108469FED161ADFEDD7
:105A0000130A9FED150AFEF7A9F918E00422511FA9
:105A100000209FED121ADFED120A9FED0F0AFEF72C
:105A20009DF90CE00422511F01209FED0E1ADFEDBD
:105A30000C0A9FED070AFEF791F900E000BF00BFD6
:105A4000012010BD28040020000000000080544503
:105A5000000016C40000B4C2000016440000344325
:105A60000000AF440000B44210B51548006840F48F
:105A70007000134908601348006840F001001149A4
:105A8000086000200F49083108600E4800680E4980
:105A900008400C4908600D48091D0860081F00688F
:105AA00020F48020091F0860002006490C3108609E
:105AB000FFF71EFC4FF0006001498039086010BDFF
:105AC00088ED00E000380240FFFFF6FE10300024B1
:105AD00010B50121044800F0C6F8012803D10121C6
