:020000040800F2
:10000000184E00208502000835650008DD560008FE
:1000100089640008DD2700087591000800000000D1
:1000200000000000000000000000000079750008DA
:1000300099500008000000009B0200089D02000883
:100040009F0200089F0200089F0200089F0200080C
:100050009F0200089F0200089F0200089F020008FC
:100060009F0200089F0200089F0200089F020008EC
:100070009F0200089F0200089F0200089F020008DC
:100080009F0200089F0200089F0200089F020008CC
:10009000E12700089F0200089F0200089F02000855
:1000A0009F020008B18100089F0200089F0200081B
:1000B000CD81000821820008C58200089F02000847
:1000C0009F0200089F0200089F0200089F0200088C
:1000D0009F020008118A00080D8B0008FD8B0008A4
:1000E0009F0200089F0200089F0200089F0200086C
:1000F0000D8300089F0200089F020008C14D000800
:100100009F0200089F020008F18200089F02000879
:100110009F020008E98600089F0200089F0200086D
:100120009F0200089F0200089F0200089F0200082B
:100130009F0200089F0200089F0200089F0200081B
:10014000152900089F0200089F0200089F0200086E
:100150009F0200089F0200089F0200089F020008FB
:100160009F0200089F0200089F0200089F020008EB
:100170009F0200089F0200089F0200089F020008DB
:100180009F0200089F02000800F002F800F06AF8E1
:100190000AA090E8000C82448344AAF10107DA45E2
:1001A00001D100F05FF8AFF2090EBAE80F0013F0CA
:1001B000010F18BFFB1A43F00103184740E4000089
:1001C00060E400000A444FF0000C10F8013B13F00B
:1001D000070408BF10F8014B1D1108BF10F8015BA0
:1001E000641E05D010F8016B641E01F8016BF9D193
:1001F00013F0080F1EBF10F8014BAD1C0C1B09D1EA
:100200006D1E58BF01F801CBFAD505E014F8016B5B
:1002100001F8016B6D1EF9D59142D6D370470000ED
:100220000023002400250026103A28BF78C1FBD8FF
:10023000520728BF30C148BF0B6070471FB50DF093
:100240004EFF00F0FDF80400002000210DF0A6F89C
:10025000401C6060002000210DF08AF8E0601FBDA6
:1002600010B510BD00F08DF91146FFF7E7FF0CF057
:10027000D9FC00F005FC03B4FFF7F2FF03BC00F06B
:1002800049FC00000948804709480047FEE7FEE7AF
:10029000FEE7FEE7FEE7FEE7FEE7FEE7FEE7FEE736
:1002A00004480549054A064B70470000498100088B
:1002B0008901000818080020184E0020184A002064
:1002C000184A002010B5203AC0F00B80B1E8185051
:1002D000203AA0E81850B1E81850A0E81850BFF430
:1002E000F5AF5FEA027C24BFB1E81850A0E81850CF
:1002F00044BF18C918C0BDE810405FEA827C24BF23
:1003000051F8043B40F8043B08BF7047D20728BFB0
:1003100031F8023B48BF11F8012B28BF20F8023BFF
:1003200048BF00F8012B70474FF0000200B513469C
:1003300094469646203922BFA0E80C50A0E80C5005
:10034000B1F12001BFF4F7AF090728BFA0E80C50B6
:1003500048BF0CC05DF804EB890028BF40F8042BAF
:1003600008BF704748BF20F8022B11F0804F18BF1C
:1003700000F8012B704770477047704710B500F0C8
:1003800063F8006810BD10B5044600F05DF8046025
:1003900010BD00000FB4002300B589B00CA9009176
:1003A0000B99CB60214B7B440693214B7B440793F5
:1003B00004236FF00042CDE901321E4A7A446B46B5
:1003C0000892024600200DF0F4FE09B05DF814FB1F
:1003D00070B506464FF0FF3015460C46324686B0E3
:1003E0000091CDE9010169460020049004A8FFF7BF
:1003F000D1FF02460498211825B108B1084600E053
:1004000020462860049800280DD0002A02DD0098BC
:10041000884208D03246081B69460094CDE90104A1
:1004200004A8FFF7B7FF06B070BD0000B9000000D8
:10043000D10000009100000000487047B80700207C
:1004400000487047D807002000487047B8070020D0
:1004500010B5044600F0BAF80068005D00F0010035
:1004600010BD426842B1016811F8013B23B1521E30
:10047000C0E90012184670470121C160881E70470C
:1004800042685AB1C368016843B983688B4205D09A
:10049000491E521CC0E90012002070474FF0FF3087
:1004A000704700002DE9F047814616468AB0334870
:1004B00078440DC88DE80D0030487844801C03ACAA
:1004C0000DC884E80D0041F69B300844372190FBAD
:1004D000F1F290FBF1F5A5F1800501FB12041B3C44
:1004E00002D56442012000E00020DFF890A08046A1
:1004F0000027FA44AAF1BE0A0DE0E00709D032460F
:10050000684607EB47010AEB810100F0A6FF8DE882
:10051000070064107F1C002CEFD1184F7F44AC3FC4
:1005200018E0E80714D007EB04100DF1180A90E862
:100530000E008AE80E00C068F04201D198190890B8
:10054000324606A903A800F088FF03AB83E8070042
:100550006D10641C002DE4D132466946B8F1000FDD
:1005600003A802D000F051FF01E000F076FFC9E9D6
:100570000001C9F808200AB0BDE8F08730E10000AA
:1005800070477546FFF758FFAE460500694653466B
:1005900020F00700854618B020B5FFF781FEBDE8C2
:1005A00020404FF000064FF000074FF000084FF0DA
:1005B000000B21F00701AC46ACE8C009ACE8C0096B
:1005C000ACE8C009ACE8C0098D46704710B5FFF72C
:1005D00037FF001D10BD00BFC5CD00002DE9FF4F46
:1005E000064689B00878FF2806D0491C2D2805D07A
:1005F00000244FF0000908E000200CE00124F8E797
:1006000009EB8903491C00EB43090878FF28F7D15F
:1006100014B1C9F100008146107800252C46AA4685
:1006200029462D2801D02B2804D1521C2D2813D067
:10063000002082468B461078FF280FD04FF0000C28
:100640000A21521CA5FB017804FB018105FB0C115A
:10065000C5194BEB0104EEE70120EAE7002108464B
:100660004FF00000BAF1000F02D000EB800040080C
:10067000C0F38158B8F1010F01DD4FF0FF380C983D
:1006800009EB000755EA040009D04FF0020917F5FD
:10069000FA7F0BDA4FEACA70C6E900B012E04FEAFF
:1006A000CA70C6E900B00DB0BDE8F08FB7F5FA7FAB
:1006B0000DDDF0487844D0E90010C6E9001040EAAA
:1006C000CA707060FFF7C0FEC0F80090EBE7391EFB
:1006D00002DAC8F1000200E0424600DA794206A8D8
:1006E000FFF7E0FE06AB93E8070003AB83E80700E3
:1006F00044F23E005BEA04010090584604D144F203
:100700001E012C465D460091210C0904014306D1CF
:100710000099240444EA15442D041039009104F092
:100720007F41014306D10099240244EA15642D0259
:100730000839009104F07041014306D10099240169
:1007400044EA15742D01091F009104F04041014352
:1007500006D10099A40044EA9574AD00891E009169
:1007600004F00041084304D100986D196441401E13
:10077000009042466846002FCDE9014503A902DDFD
:1007800000F07FFE01E000F054FEBAF1000F0446D5
:100790000D4601D084F0004440F2FF7724F0004081
:1007A000284303D0C4F30A50B84212D1FFF74CFEDD
:1007B000C0F80090C4F30A50B8420AD1AE48784459
:1007C000D0E90010C6E9001004F000410843706051
:1007D00069E7C6E9005466E72DE9FF4F1F464FF071
:1007E000000A4FF0FF38454691B0D7E90146CDF8F1
:1007F0003CA0FFF725FEC0680168405C1090B96915
:1008000012986D1C8847396A814688470028F6D1BE
:10081000B9F1FF3F0AD0002E24F4D06411DDB9F104
:100820002B0F08D0B9F12D0F0BD102E0404615B0C7
:100830003AE744F48064B96912986D1C8847761EC3
:100840008146600504A901D52D2000E02B20002E53
:1008500001F1010B0DF130088DF810003FDDB9F109
:10086000690F08D0B9F1490F05D0B9F16E0F02D068
:10087000B9F14E0F1CD13B4601A8009580E850020B
:10088000DDE912126FF002000DF097FCC11CCED111
:100890000EE0B96912986D1C884781461398761E40
:1008A00044F4007405600F98401C002E0F9016DD74
:1008B000B9F1300FEDD0B9F1780F02D0B9F1580F7E
:1008C0000DD10F9801280AD13B46CDE90054DDE94E
:1008D0001212001F02960DF06EFCC11CA7D11099D8
:1008E00089453ED144F0800406E01399681CAAF1C2
:1008F000010A44F400740860B9696D1C1298761EF0
:10090000884730288146F0D02BE01099894505D1E1
:10091000200603D4761E44F0800418E048460BF00D
:100920007FF808B3761E0DF123018B4544F4007463
:1009300008D2A9F130000BF8010B200607D5AAF167
:10094000010003E0200602D40AF101008246A0055E
:1009500002D51399681C0860B96912986D1C884704
:100960008146002ED1DC53E0002E51DDB9F1650F38
:1009700002D0B9F1450F4BD1A00549D5B9696D1C1D
:100980001298761E24F440748847002E81460CDDB0
:100990002B2804D0B9F12D0F07D144F48074B96924
:1009A00012986D1C8847761E8146E00501D52D21E1
:1009B00000E02B2108F8011BCDF8008021E0761E15
:1009C0000DF13901884544F400740CD2A9F13000CE
:1009D00010F0FF0088F8000002D10099884509D97D
:1009E00008F1010806E0E00501D5244801E042F2E3
:1009F0000F708246B96912986D1C8847814613981A
:100A00000560002E04DD48460BF00AF80028D6D118
:100A1000F96912988847FF2053468BF8000088F840
:100A2000000000200A900B9004AA0CA90AA8FFF766
:100A3000D5FDA00502D46FF00100F8E614F0240FF4
:100A40000AD0E00714D13868DDE90A12031D3B60C3
:100A50000068C0E900120BE00AA968460AF0D0FE5F
:100A6000E00705D13868009A011D3960006802600E
:100A70002846DCE664DF00005ADE0000F1D8FFFF04
:100A800010B50446AFF300802046BDE81040FFF7E4
:100A9000F2BB00004FF0013C50F8042B51F8043B2E
:100AA0009A4221D1A2EB0C03934313EACC1317D142
:100AB00050F8042B51F8043B9A4215D1A2EB0C03D9
:100AC000934313EACC130BD150F8042B51F8043B99
:100AD0009A4209D1A2EB0C03934313EACC13DBD067
:100AE0004FF00000704700BFD01A01BAB1FA81F18F
:100AF00001F0180122FA01F0CB40C1F12001DBB274
:100B0000C0B2C01A2CFA01F3D11A914311EAC311F1
:100B1000E6D1704701491820ABBEFEE7260002006F
:100B20002DE9FF4F1F464FF03C0987B04FF00042C0
:100B3000DDE9141001F10108DDF858A002EA405087
:100B40000390002005908346054604460490B96949
:100B5000461E08988847AAF1010A0290BAF1000FD0
:100B60003BDD02982E2815D0102100F016FA00283F
:100B70002EDB4FF0010B0599014317D0B9F1000F9F
:100B80000BDB4A46C11700F0F5F905430C43A9F108
:100B9000040905E0012004900BE008B145F00105CF
:100BA00001200590049820B9361D02E0049800B198
:100BB000361FB969089808F101088847BBF1000F92
:100BC000AAF1010A0290C9D00999C1F80080C5E7CD
:100BD0000298702808D0502806D0F96908988847EC
:100BE000BBF1000F14D04FE0002002900120BBF1B8
:100BF000000F049009D0B969089808F101088847E6
:100C0000AAF10109B9F1000F07DCF96908988847D2
:100C10006FF001000BB0BDE8F08F2B2804D02D2819
:100C20000CD14FF0FF300490B969089808F1010821
:100C30008847A9F10109B9F1000FE6DD411CE4D0B4
:100C40000A2100F0AAF90028DFDB029908F1010867
:100C500001EB810100EB41000290B96908988847D7
:100C60000A2100F09AF9099AA9F10109B9F1000FD6
:100C7000C2F8008001DD0028E7DAF96908988847A2
:100C80000499029800FB016655EA040004D004F0C0
:100C90004041090002D006E0039898E0A40044EA2D
:100CA0009574AD00B61E04F00041080002D16D1924
:100CB0006441761E159810F0240F03D04FF00B09F5
:100CC0005C4803E04FF028096FF07D0082465645EE
:100CD00007DAAAEB06018944B9F1410F01DD4FF0B3
:100CE000410901200021A9F1010200F043F9024667
:100CF00028400B462140084301D0012100E000219B
:100D0000501E029143F1FF3128402140084301D099
:100D1000012000E000200299834651EA0B014FD0E8
:100D2000002108464FF00000039900F4400039B15B
:100D300000EB80004FF4400100EBD07001EA60004E
:100D40008015012802DD4FF0FF3000E013D0401C79
:100D500036D0029860B3BBF1000F0CD14A46012097
:100D6000002100F007F928402140084301D001206C
:100D700000E00020E0B101204A46002100F0FAF82E
:100D8000034640190A4661412D1A8C4111D3B9F12D
:100D9000400F09DD159810F0240F02D0AAF1340697
:100DA00003E0AAF1170600E0761C00254FF000448E
:100DB00006E05B1E42F1FF3220EA030521EA02044D
:100DC000CAF10100B04206DA1B49039808430190BA
:100DD000002000900EE0039AC4F3D321E80A0A43EE
:100DE000164940EA44500A433146CDE900026846BC
:100DF0000AF00CFE159810F0240F0BD01598C007C0
:100E000015D13868DDE90012031D3B600068C0E9B8
:100E100000120CE002A869460AF0F2FC1598C0071F
:100E200005D13868029A011D3960006802604046A9
:100E3000F0E6000002FCFFFF0000F07F0000F03F42
:100E40002DE9FF4F92461D4685B04FF00041DDE988
:100E5000124BDDE914727F1E01EA4B50414940F00C
:100E6000FF4940EA0108002122F0200049280491AE
:100E700002D04E2828D04CE03BA0012607C88DE8C0
:100E80000700A9690698641C88477F1E014606D49E
:100E90001DF8060018B121F0200181420BD0E9694C
:100EA00006988847032E34D0082E32D06FF0010008
:100EB00009B0BDE8F08F761C032E01D0082EE0D1DA
:100EC000601CCAF80000DCE7A9690698641C884722
:100ED0007F1E2AD420F02000412826D1A969069837
:100EE000641C88477F1E20D420F020004E281CD18F
:100EF000A9690698641C88477F1E48F4002849F4B5
:100F00008009CAF8004001D4282806D0E96906986B
:100F100088475FEACB7012D022E0A9690698641C6A
:100F200088477F1E01D4002803DAE96906988847BC
:100F3000BCE72928F1D1641CCAF80040E9E71BF09E
:100F4000240F07D028680499031D2B600068C0E9AE
:100F5000001805E02868021D2A600068C0F80090AB
:100F60002046A5E70000F07F494E46494E495459B6
:100F700000000000B2F120030AD5C2F1200301FAFB
:100F800002F120FA03F300FA02F041EA030170478C
:100F900000FA03F14FF0000070473A2800D23038D1
:100FA00020F02002412A01D3A2F13700884201D368
:100FB0004FF0FF30704720F07F4C80EA030023F0B1
:100FC0007F47ACEB070303F57C5300F0004003F1CF
:100FD000FF032DE980494FEA154B09B44FEA14434A
:100FE00025EA0B4E24EA03480FF2042606EB1327EA
:100FF00049083E785FEA320203FB0667C7F500073F
:1010000007FB06F64FEA54374FEAD64606F10206CA
:1010100007FB066CCCF1005C4FEA1C472CEA074C3E
:1010200007FB06F40CFB06F504EB15464FEA961693
:1010300034BF00204FF000404FEAD13706FB07FCD9
:101040004FEA1C4C0CFB0BF7D21B03FB0CF761EBBC
:1010500007010CFB0EF7B0EB074072EB17420CFBDD
:1010600008F734BFA2EB0742B2EB074261EB17412E
:101070004FEA0C444FEA910706FB07FC4FEA1C4C71
:101080000CFB0BF7B0EBC74072EB573203FB0CF7CE
:1010900034BFA2EBC742B2EBC74261EB57310CFB46
:1010A0000EF7B0EBC70072EB57720CFB08F734BFBA
:1010B000A2EBC702B2EBC70261EB5771039F4FEA85
:1010C000816141EA921104EBCC044FEAD1374FEA37
:1010D000826206FB07FC42EA90124FEA80604FEA08
:1010E0001C4C0CFB0BF7D21B03FB0CF761EB07014D
:1010F0000CFB0EF7B0EB074072EB17420CFB08F746
:1011000034BFA2EB0742B2EB074261EB17414FEA53
:101110008C554FEA910704EB9C2406FB07FC4FEA31
:101120001C4C0CFB0BF7B0EBC74072EB573203FBC8
:101130000CF734BFA2EBC742B2EBC74261EB5731A9
:101140000CFB0EF7B0EBC70072EB57720CFB08F705
:1011500034BFA2EBC702B2EBC70261EB577115EBCC
:101160004C254FEA816141EA92114FEA82624FEACF
:10117000D13742EA901206FB07FC44F100044FEA23
:1011800080604FEA1C4C0CFB0BF7D21B03FB0CF7E7
:1011900061EB07010CFB0EF7B0EB074072EB174257
:1011A0000CFB08F734BFA2EB0742B2EB074261EB3E
:1011B000174115EB1C154FEA813141EA92414FEA84
:1011C000823242EA90424FEA80304FEA0C7644F194
:1011D000000448EA03434EEA0B484FF0000EB2EB1E
:1011E000080C71EB030724BF624639464EEB0E0E26
:1011F0004FF0000B0018524149414BEB0B0BB2EB87
:10120000080C71EB03077BF1000B24BF62463946E3
:101210004EEB0E0E4FF0000B0018524149414BEBC4
:101220000B0BB2EB080C71EB03077BF1000B24BF37
:10123000624639464EEB0E0E51EA020718BF46F0E1
:10124000010616EB0E7655F1000254F1000103D5AC
:10125000BDE88901BDE80088BDE88901BDE8004816
:10126000B619524141EB0101A3F10103704780809F
:101270007F7E7D7C7B7A79787776767574737271F0
:1012800071706F6E6E6D6C6C6B6A6A6968686766A8
:1012900066656464636362616160605F5F5E5E5D3A
:1012A0005D5C5C5B5B5A5A595958585757565655AE
:1012B00055555454535352525251515050504F4F10
:1012C0004F4E4E4D4D4D4C4C4C4B4B4B4A4A4A4960
:1012D00049494848484747474746464645454544A3
:1012E000444444434343434242424241414100005B
:1012F00046EA0646A3F570534FEA164646EA4256BA
:101300004FEAD22242EA415210B54FEAD121A3F16D
:10131000010300F017F820F0004000F1010C00F08C
:10132000004701EB00501146BCF5006F40EA070092
:1013300000D210BD02484FF0000140EA070010BD86
:101340000000F07F002B26D4770021D01CB54FEA97
:10135000370703B44FF010004FF010014FF00000BA
:101360000FBCBDE810400BF1010BBBF1010F08BF32
:101370005FEA170722BF12F1010211F101014FF0DC
:10138000004143F1000300F0004043EA00007047D1
:10139000F9D35708DAE746EA064613F1400F4FEA59
:1013A00016461FDD13F1200FDFBF16430A4600214A
:1013B00020335B42C8D0C3F1200746EA064602FA52
:1013C00007F74FEA164646EA0706C3F1200722FA56
:1013D00003F201FA07F721FA03F14FF0000342EAA2
:1013E0000702B1E746EA020646EA06464FEA164613
:1013F00046EA0106BCBF46EA0646360C4FF000033B
:101400004FF000024FF000019EE72DE9C0489346DF
:1014100030B491E8380007C831EA400C48BF34EADC
:10142000430C03D5FFF7C7FDFFF78CFFF0BCBDE809
:1014300000882DE9C048934630B491E8380007C8C9
:1014400031EA400C48BF34EA430C03D5FFF7B3FD43
:10145000FFF74EFFF0BCBDE800882DE9C048934679
:1014600030B491E8380007C810F0804F08BF13F07F
:10147000804F03D100F019F8FFF764FFF0BCBDE81E
:1014800000882DE9C048934630B491E8380007C879
:1014900010F0804F08BF13F0804F03D100F005F823
:1014A000FFF726FFF0BCBDE8008820F07F4780EA08
:1014B000030023F07F4C07EB0C03A3F57C5300F0F3
:1014C0000040A3F1FE0392F0000F00F0B38095F00E
:1014D000000F00F077802DE901494FEA11404FEAF3
:1014E000144621EA004800FB06FC24EA064708FBF4
:1014F00006F607FB08F800FB07F718EB06484CEB6D
:10150000164C4FEA124B18EB07484FEA15464CEBC6
:10151000174022EA0B4E0BFB06FC25EA06470EFBA2
:1015200006F607FB0EFE0BFB07F71EEB064E4CEB19
:10153000164C4FF000061EEB074E4CEB174B18EB0A
:101540000B0840F1000018EB0E0B58EB000840F1BF
:1015500000008F1A4FF000013CBFC943661B14BF47
:10156000B5EB040C00213CBFC943F61B4FEA1744FE
:101570004EEA8E0E27EA04454FEA1C4704FB076239
:101580002CEA074C05FB07F70CFB05F604FB0CFCEB
:1015900016EB074642EB174216EB0C4642EB1C4299
:1015A0001BEB060658EB0202414146EA9E0601D5B6
:1015B000BDE80189B619524141EB0101A3F10103D4
:1015C000BDE801894FEA14454FEA114724EA054670
:1015D00021EA074C05FB07F406FB07F70CFB06F1B5
:1015E00005FB0CFC11EB074144EB17444FEA124793
:1015F00011EB0C4144EB1C4422EA074C05FB07F2BB
:1016000006FB07F70CFB06F605FB0CFC16EB074682
:1016100042EB174216EB0C4642EB1C456A1854F19C
:10162000000148BF7047B619524141EB0101A3F1D7
:101630000103704795F0000F37D04FEA11424FEA8F
:10164000144721EA024624EA074C02FB07F106FB95
:1016500007F70CFB06F402FB0CFC14EB074441EB10
:1016600017414FEA154714EB0C4441EB1C4125EAA6
:10167000074C02FB07F506FB07F70CFB06F602FB1F
:101680000CFC16EB074645EB174516EB0C4645EBF5
:101690001C42121951F1000148BF7047B61952415E
:1016A00041EB0101A3F1010370474FEA14454FEAF2
:1016B000114724EA054621EA074C05FB07F106FB22
:1016C00007F70CFB06F24FF0000605FB0CFC12EBD3
:1016D000074241EB174112EB0C4251EB1C4148BF52
:1016E0007047921841EB0101A3F10103704721B14A
:1016F000826842F00102826003E0826822F0010207
:10170000826070470021084A1168084A1140D0E9F8
:1017100000231A4383681A43C3681A431143044AD7
:10172000C2F804137047000004230140E030FCFFBE
:10173000002001400146C86C80B27047024600207C
:1017400013680B400BB1012000E00020704700003F
:1017500030B50246002000235068104C20400D791F
:101760000C6844EA05242043506090680C4C2040EB
:10177000D1E903542C438D682C434D7944EA450448
:1017800020439060D06A20F470000C7D641EE4B2A7
:10179000234340EA0350D06230BD0000FFFEFFFC4F
:1017A000FDF7FFC0F0B504460D4600200021092DCD
:1017B00011DDE068A5F10A0606EB4607072606FAE2
:1017C00007F18843A5F10A0606EB460603FA06F17F
:1017D0000843E0600CE0206905EB4507072606FAA0
:1017E00007F1884305EB450603FA06F1084320613B
:1017F000072A0FDA606B561E06EB86071F2606FACD
:1018000007F18843561E06EB860605FA06F10843E3
:10181000606322E00D2A0FDA206BD61F06EB8607E5
:101820001F2606FA07F18843D61F06EB860605FA3F
:1018300006F10843206310E0E06AA2F10D0606EB12
:1018400086071F2606FA07F18843A2F10D0606EB6C
:10185000860605FA06F10843E062F0BD816841F0B2
:10186000804181607047000010B50E48007800F09C
:10187000010010B106F022FC13E00A48007800F0E5
:10188000100070B90748007800F0080010B105F0AA
:1018900019FF06E00348007800F0020008B107F0E5
:1018A00099FD10BDEC04002010B51048007800F040
:1018B000010010B106F030FC16E00C48007800F092
:1018C000100010B103F078FC0EE00848007800F03A
:1018D000080010B105F06EFF06E00448007800F043
:1018E000020008B101F06CFD10BD0000EC04002006
:1018F00000B58DB00121042005F0AAFC01210802E9
:1019000005F0D6FC30200B9003208DF8300000202D
:101910008DF833000BA9164803F0FCFD01210802E5
:1019200005F0D6FC00214FF4807005F0D1FC0020BA
:1019300007900A9009904FF48030089007A8FFF7AD
:10194000E1FE002001908DF808008DF80900039059
:101950000490059001208DF8180001A90548FFF7B3
:10196000F7FE01210348FFF7C2FE0DB000BD0000E5
:10197000000802400020014010B52DED048BF0EE70
:10198000408AB0EE609AB0EE418AF0EE490AB0EEBD
:10199000680A0AF04DF8394880ED1C0A04213848DD
:1019A00003F023FEC8BB0121364803F01EFEA0BB96
:1019B0003248D0ED1C0AB0EE600A00F0A1F8DFED6D
:1019C000320A70EE209AB0EE480A00F067F839EE5D
:1019D000C00ABDEEC00A10EE104A224601212B4873
:1019E00007F0FEFB2548D0ED1C0AB0EE600A00F0BF
:1019F00087F8DFED270A70EE209AB0EE480A00F073
:101A00004DF839EE800ABDEEC00A10EE104A2246AB
:101A100002211E4807F0E4FB2DE0FFE704211848EF
:101A200003F0E3FD012810D10121164803F0DDFD8C
:101A300058B9184A0121154807F0D2FB4FF47A62D1
:101A40000221124807F0CCFB15E004210C4803F0FA
:101A5000CCFD80B901210B4803F0C7FD01280AD154
:101A60000D4A0121094807F0BBFB42F6E062022162
:101A7000064807F0B5FBBDEC048B10BDEC0400205C
:101A8000001002400008024000409CC50068004071
:101A900000409C4520D1FFFF60F0FFFFF0EE400AC0
:101AA000114890ED000A20EE200A104890ED001A2F
:101AB000B8EEC11A30EEC11A0D48D0ED001A01EE91
:101AC000810A0C4890ED001ADFED0B1A01EE210A95
:101AD0000A4880ED000ABDEEE00A044880ED000AE5
:101AE000064890ED000A7047E4030020E003002060
:101AF000EC030020E803002000000000F0030020B9
:101B0000F0EE400A0E4890ED000A20EE200A0D4843
:101B100090ED001AB8EEC11A30EEC11A0A48D0EDA5
:101B2000001A01EE810A094880ED000ABDEEE00AC4
:101B3000044880ED000A054890ED000A7047000057
:101B40009C03002098030020A0030020A403002091
:101B500010B52DED028BB0EE408A194890ED170AB2
:101B6000F0EE400AB0EE480A09F062FF154880ED39
:101B7000000A90ED000AFFF7C3FFDFED130A30EE15
:101B8000200ABDEEC00A10EE104A224601210F487D
:101B900007F026FB0B4890ED000AFFF7B1FFDFEDE1
:101BA0000C0A30EE200ABDEEC00A10EE104A2246A2
:101BB0000221064807F014FBBDEC028B10BD0000AB
:101BC000EC0400205C00002000C0DA450068004002
:101BD00000C0DAC510B51048C06F042802D005282F
:101BE00016D10AE0DFED0D1A9FED0D1ADFED0D0A9B
:101BF0009FED0D0A04F0E6FC0BE0DFED081A9FED07
:101C0000081ADFED0A0A9FED050A04F0DBFC00E08C
:101C100000BF00BF012010BDEC04002000001645ED
:101C20000000000000004844008009450000964480
:101C300010B509F03DFF2748D0F8880010B900F032
:101C40004BF81CE02348D0F88800012805D1042176
:101C50002048C167FFF7BEFF11E01E48D0F888009A
:101C6000022805D105211B48C167FFF7B3FF06E035
:101C70001848D0F88800032801DB00F011F9154856
:101C8000D0F89010D0F88C0081420FDA1148D0F8CB
:101C9000900001280AD00F48D0F88C00042805D005
:101CA0000C48D0F88410891EC0F884100948D0F878
:101CB0009010C0F88C10D0F88800042808D105488E
:101CC000007820F001000349087000210148C16735
:101CD00010BD0000EC04002010B502F06DF8634860
:101CE00090ED180AD0ED290AB4EEE00AF1EE10FAF0
:101CF0000BDD90ED190AD0ED2A0AB4EEE00AF1EE00
:101D000010FA02D20021C16772E0584890ED180A1B
:101D1000D0ED2B0AB4EEE00AF1EE10FA0BDD90EDF7
:101D2000190AD0ED2A0AB4EEE00AF1EE10FA02DD4B
:101D30000121C1675CE04D4890ED180AD0ED2B0AF7
:101D4000B4EEE00AF1EE10FA0BD290ED190AD0EDE4
:101D50002C0AB4EEE00AF1EE10FA02DD0221C167AE
:101D600046E0424890ED180AD0ED290AB4EEE00AA8
:101D7000F1EE10FA0BD290ED190AD0ED2C0AB4EE68
:101D8000E00AF1EE10FA02D20321C16730E03748D1
:101D900090ED190ADFED360AB4EEE00AF1EE10FA22
:101DA00004DD9FED340AFFF7D3FE21E02F4890EDCC
:101DB000190ADFED310AB4EEE00AF1EE10FA04D2AE
:101DC0009FED2E0AFFF7C4FE12E0284890ED180A96
:101DD000DFED2B0AB4EEE00AF1EE10FA04DD9FED20
:101DE000290AFFF7B5FE03E09FED270AFFF7B0FED3
:101DF0001E48C06F30B1012810D002281AD0032825
:101E000030D123E00122114600209FED1E1ADFEDA4
:101E10001F0A9FED1F0A04F029F924E00122114650
:101E200010469FED141ADFED190A9FED1A0A04F00F
:101E30001DF918E00122911E00209FED131ADFED1D
:101E4000160A9FED160A04F011F90CE00122911E0A
:101E500010469FED0A1ADFED100A9FED0D0A04F0FF
:101E600005F900E000BF00BF012010BDEC04002018
:101E700000803B450000B4420080D4440000B4C25E
:101E800000008343000000000000344300404E4542
:101E9000000016440000FAC30000AF44000016C45E
:101EA00010B501F089FF644890ED180AD0ED2D0AB5
:101EB000B4EEE00AF1EE10FA0BDD90ED190AD0ED68
:101EC0002E0AB4EEE00AF1EE10FA02D20621C16742
:101ED00072E0594890ED180AD0ED2F0AB4EEE00AEE
:101EE000F1EE10FA0BDD90ED190AD0ED2E0AB4EEEA
:101EF000E00AF1EE10FA02DD0721C1675CE04E480E
:101F000090ED180AD0ED2F0AB4EEE00AF1EE10FAC7
:101F10000BD290ED190AD0ED300AB4EEE00AF1EEE2
:101F200010FA02DD0821C16746E0434890ED180A27
:101F3000D0ED2D0AB4EEE00AF1EE10FA0BD290EDDE
:101F4000190AD0ED300AB4EEE00AF1EE10FA02D22E
:101F50000921C16730E0384890ED190ADFED370AF2
:101F6000B4EEE00AF1EE10FA04DD9FED350AFFF75A
:101F7000EFFD21E0304890ED190ADFED320AB4EEB2
:101F8000E00AF1EE10FA04D29FED2F0AFFF7E0FD10
:101F900012E0294890ED180ADFED2C0AB4EEE00AB1
:101FA000F1EE10FA04DD9FED2A0AFFF7D1FD03E000
:101FB0009FED280AFFF7CCFD1F48C06F062806D00A
:101FC000072810D008281AD0092830D123E0012290
:101FD000114600209FED1E1ADFED1F0A9FED1F0A1C
:101FE00004F044F824E00122114610469FED141A33
:101FF000DFED1B0A9FED1B0A04F038F818E0012200
:10200000911E00209FED131ADFED170A9FED170AAE
:1020100004F02CF80CE00122911E10469FED0A1AE4
:10202000DFED130A9FED130A04F020F800E000BF73
:1020300000BF012010BD0000EC04002000803B45E3
:102040000000B4420080D4440000B4C200008343C6
:102050000000000000003443008054450040034568
:1020600000A08C45000016C40000AF44004003C52A
:10207000000096430000164410B56048D0F8940064
:1020800001285BD15E4890ED000ADFED5E0AB4EEF8
:10209000E00AF1EE10FA23DD90ED000ADFED5A0AB6
:1020A000B4EEE00AF1EE10FA1AD2584890ED000AA8
:1020B000DFED570AB4EEE00AF1EE10FA10DD90ED14
:1020C000000ADFED540AB4EEE00AF1EE10FA07D28E
:1020D0004A48D0ED170AB0EE600A00F09DF88CE097
:1020E000474890ED000ADFED470AB4EEE00AF1EE52
:1020F00010FA1BD390ED000ADFED430AB4EEE00ABC
:10210000F1EE10FA12DC414890ED000ADFED400AD2
:10211000B4EEE00AF1EE10FA08D390ED000ADFED1C
:102120003D0AB4EEE00AF1EE10FA66DD3348D0ED78
:10213000170AB0EE600A00F0D5F95EE02F48D0F83B
:10214000940060BB2E4890ED000ADFED2E0AB4EE3D
:10215000E00AF1EE10FA23DD90ED000ADFED2A0A25
:10216000B4EEE00AF1EE10FA1AD2284890ED000A17
:10217000DFED270AB4EEE00AF1EE10FA10DD90ED83
:10218000000ADFED240AB4EEE00AF1EE10FA07D2FD
:102190001A48D0ED170AB0EE600A00F0A3F92CE05F
:1021A000174890ED000ADFED170AB4EEE00AF1EEF1
:1021B00010FA1BD390ED000ADFED130AB4EEE00A2B
:1021C000F1EE10FA12DC114890ED000ADFED100A72
:1021D000B4EEE00AF1EE10FA08D390ED000ADFED5C
:1021E0000D0AB4EEE00AF1EE10FA06DD0348D0ED78
:1021F000170AB0EE600A00F00FF810BDEC040020E2
:10220000A00000200000AFC40000AF44A4000020E4
:102210000000614400C0734510B52DED068BB0EE93
:10222000408A95480068401C9349086093480068BC
:1022300030B101282CD0022865D0032827D1ACE08A
:1022400000208D4908608E4890ED180A8D4880ED79
:10225000000A8B4890ED190A8B4880ED000A9FED2B
:102260008B0A38EE400A8A4880ED000A83480068ED
:10227000401C8249086087A1884806F0DDFE85A1E0
:10228000864806F0D9FE83A1844806F0D5FECAE050
:1022900000207949086082480068401C8049086035
:1022A000804A0121804806F09BFF42F21072022111
:1022B0007D4806F095FF7A480068642816DD002006
:1022C000774908606D480068401C6C4908606C489C
:1022D00090ED180A6B4880ED000A694890ED190AE4
:1022E000694880ED000A0020634908606FA16B48CF
:1022F00006F0A2FE6DA1694806F09EFE6BA167483C
:1023000006F09AFE8FE06B4890ED000AFFF7F8FBAD
:10231000BDEEC00A10EE104A22460121624806F0C6
:102320005FFF644890ED000AFFF7EAFBBDEEC00ACC
:1023300010EE104A224602215B4806F051FF5D482C
:1023400000680BF05BFE41EC1A0BB0EE4A0AF0EEAF
:102350006A0A07F0F5FDB0EE409AF0EE609A9FED44
:10236000560B53EC102B51EC190B0BF015FB07D24D
:1023700042480068401C4149086000203E4908600E
:102380004FA1464806F058FE4DA1444806F054FEC1
:102390004BA1424806F050FE45E042F21072012186
:1023A000414806F01DFF3F4A02213F4806F018FF52
:1023B000334890ED190AF0EE401A90ED180AB0EE8D
:1023C000401A3148D0ED000A2E4890ED000A02F084
:1023D00065FEB0EE409AF0EE609A9FED3B0B53EC39
:1023E000102B51EC190B0BF011FC0FD22448007884
:1023F00020F02000224908700846007840F0400094
:10240000087000201D4908601B49086030A123485E
:1024100006F012FE2EA1214806F00EFE2CA11F4848
:1024200006F00AFE00BF00BFF0EE480A184890ED23
:10243000000A09F0FDFA1F4880ED000A0F4826A1A6
:102440000268164806F0F8FD0B480068FA280FDD10
:102450000B48007820F020000949087008460078F1
:1024600040F04000087000200449086002490860FC
:10247000BDEC068B10BD0000D8000020CC00002071
:10248000EC040020C4000020C800002000003442FA
:10249000D0000020676574256409000000500040EA
:1024A000DC000020F0D8FFFF006800406765743250
:1024B00025640900D4000020000000000000144042
:1024C000676574332564090000000000000079404E
:1024D000676574342564090065703D2564090D0A3B
:1024E0000000000010B52DED068BB0EE408A91483B
:1024F0000068401C8F490860F0EE480A8E4890ED55
:10250000000A09F095FA8D4880ED000A8C480068B1
:1025100030B1012829D002285ED0032824D1A5E0BB
:10252000884890ED180A884880ED000A854890EDAB
:10253000190A864880ED000A9FED850A38EE000AE8
:102540007D4880ED000A7E480068401C7C49086098
:1025500080A1824806F070FD7EA1804806F06CFDE7
:102560007CA17E4806F068FDC6E07D480068401CFE
:102570007B4908607B4A01217B4806F031FE42F22C
:1025800010720221784806F02BFE75480068642816
:1025900015DD6B480068401C69490860694890ED8A
:1025A000180A694880ED000A664890ED190A6748E4
:1025B00080ED000A00205F490860694908606BA14E
:1025C000664806F039FD69A1644806F035FD67A14B
:1025D000624806F031FD8FE0584890ED000AFFF7A1
:1025E0008FFABDEEC00A10EE104A224601215E4865
:1025F00006F0F6FD514890ED000AFFF781FABDEEB6
:10260000C00A10EE104A22460221574806F0E8FDA3
:102610004A4800680BF0F2FC41EC1A0BB0EE4A0A93
:10262000F0EE6A0A07F08CFCB0EE409AF0EE609A89
:102630009FED500B53EC102B51EC190B0BF0ACF938
:1026400007D23F480068401C3D49086000203949D6
:1026500008604AA1414806F0EFFC48A13F4806F057
:10266000EBFC46A13D4806F0E7FC45E042F2107263
:1026700001213D4806F0B4FD3A4A02213A4806F0ED
:10268000AFFD304890ED190AF0EE401A90ED180AAF
:10269000B0EE401A2D48D0ED000A2B4890ED000A0C
:1026A00002F0FCFCB0EE409AF0EE609A9FED350B24
:1026B00053EC102B51EC190B0BF0A8FA0FD2214858
:1026C000007820F020001F4908700846007840F08C
:1026D0004000087000201A490860164908602BA1C4
:1026E0001E4806F0A9FC29A11C4806F0A5FC27A15C
:1026F0001A4806F0A1FC00BF00BF114825A10268DE
:10270000164806F099FC0B480068FA280FDD0D48C2
:10271000007820F020000B4908700846007840F04F
:102720004000087000200649086002490860BDECBE
:10273000068B10BDF4000020EC000020F00000200B
:10274000E8000020EC040020E0000020E40000206D
:1027500000003442676574256409000000500040A1
:10276000F8000020F0D8FFFF006800406765743271
:102770002564090000000000000014406765743300
:10278000256409000000000000007940676574348A
:102790002564090065703D2564090D0A00000000EC
:1027A0001CB50121102004F053FD80200090012071
:1027B0008DF8040000208DF8060003208DF8050038
:1027C00002208DF807006946034802F0A3FE80212D
:1027D000014802F013FF1CBD0010024000BFFEE7DD
:1027E00010B53F4803783F4A3F49404800F0B4FCE9
:1027F0003D480068302803D13A4908780AF0EEFBDA
:102800003948006840F28721884215D13548006870
:1028100045F6500188420FD1324890ED010AB8EEDA
:10282000C00ADFED330A20EE200ADFED320A80EE27
:10283000201A314880ED051A2B480068B0F5227F38
:102840000DD12848006845F65601884207D1254831
:1028500090ED010AB8EEC00A274880ED5A0A2248D6
:10286000006840F2862188420DD11E48006845F676
:102870005001884207D11B4890ED010AB8EEC00A0A
:102880001D4880ED090A1D49184800F0B7F81B499A
:10289000491C164800F0B2F81849C91C134800F04A
:1028A000ADF81749114800F0A9F816490F4800F093
:1028B000A5F815490D4800F0A1F8134908310B4857
:1028C00000F09CF81149094800F098F810490748B1
:1028D00000F094F80E490831044800F08FF810BD5C
:1028E00048040020400400204C0400200064004004
:1028F0000000B44200008045EC0400200100F0100C
:102900007000F030030000120800003203000014D1
:10291000080000341CB52E4803786A462D492E481D
:1029200000F01AFC2B48006840F2822188420BD14B
:1029300045F656010098884206D19DED010AB8EE91
:10294000C00A264880ED110A2248006840F2812121
:10295000884210D122480068401C2149086045F691
:1029600056010098884206D19DED010AB8EEC00AD2
:102970001A4880ED140A1B49174800F03FF819491E
:10298000491C154800F03AF81649C91C124800F0D5
:1029900035F81549104800F031F814490E4800F098
:1029A0002DF813490C4800F029F8114908310A485C
:1029B00000F024F80F49084800F020F80E490648B6
:1029C00000F01CF80C490831034800F017F81CBD52
:1029D000540400205004002000680040EC04002053
:1029E0001C0400200100F0107000F0300300001201
:1029F00008000032030000140800003400220C4BD1
:102A0000994202D10023836111E0C1F3130201F066
:102A100000730BB1C2600AE001F080630BB1026188
:102A200005E001F000630BB1826000E04260704796
:102A30007000F0302DE9F04F8BB006460F4614467B
:102A40001D46DDF850804FF00009CA46CB46B5F56B
:102A5000807F43D012DC102D34D008DC012D25D02E
:102A6000022D26D0042D27D0082D4FD127E0202D70
:102A70002BD0402D2CD0802D48D12CE0B5F5805F97
:102A800038D009DCB5F5007F2BD0B5F5806F2BD0A1
:102A9000B5F5006F3AD12AE0B5F5005F2DD0B5F558
:102AA000804F2DD0B5F5004F30D12CE04FF000090C
:102AB0002DE04FF001092AE04FF0020927E04FF026
:102AC000030924E04FF0040921E04FF005091EE05E
:102AD0004FF006091BE04FF0070918E04FF0080916
:102AE00015E04FF0090912E04FF00A090FE04FF02E
:102AF0000B090CE04FF00C0909E04FF00D0906E05E
:102B00004FF00E0903E04FF00F0900E000BF00BFD7
:102B1000B8F5807F4BD01ADCB8F1100F3BD00CDC3D
:102B2000B8F1010F2BD0B8F1020F2BD0B8F1040F80
:102B30002BD0B8F1080F52D12AE0B8F1200F2DD0D8
:102B4000B8F1400F2DD0B8F1800F48D12CE0B8F586
:102B5000805F38D009DCB8F5007F2BD0B8F5806FE6
:102B60002BD0B8F5006F3AD12AE0B8F5005F2DD030
:102B7000B8F5804F2DD0B8F5004F30D12CE04FF094
:102B8000000A2DE04FF0010A2AE04FF0020A27E088
:102B90004FF0030A24E04FF0040A21E04FF0050A49
:102BA0001EE04FF0060A1BE04FF0070A18E04FF056
:102BB000080A15E04FF0090A12E04FF00A0A0FE088
:102BC0004FF00B0A0CE04FF00C0A09E04FF00D0A31
:102BD00006E04FF00E0A03E04FF00F0A00E000BFDE
:102BE00000BF7F48304418B1B0F5806F1AD10CE0B7
:102BF0004FF0090B00208DF8120014208DF804000E
:102C00000121480604F034FB0DE04FF0090B0E20C3
:102C10008DF8120040208DF804000121000504F019
:102C200027FB00E000BF00BFC4F3090078BBA0127F
:102C3000A0F580108038092834D2DFE800F0050ABA
:102C40000F14191E23292E000121084604F000FB51
:102C500029E00121022004F0FBFA24E001210420F4
:102C600004F0F6FA1FE00121082004F0F1FA1AE05E
:102C70000121102004F0ECFA15E00121202004F0DD
:102C8000E7FA10E00121402004F0E2FA0BE009E04D
:102C90000121802004F0DCFA05E00121080204F0A3
:102CA000D7FA00E000BF00BF5A464946204602F06E
:102CB00079FC5A465146204602F074FC45EA080069
:102CC000099002208DF828008DF8290000208DF849
:102CD0002A0001208DF82B0009A9204602F01AFCD9
:102CE000304600F07FF800208DF81E008DF81F00A0
:102CF0008DF820008DF821008DF822008DF823003A
:102D00008DF81A008DF81B000B208DF81C00072091
:102D10008DF81D007D2F22D008DC0A2F0FD0142F34
:102D200011D0322F13D0642F29D114E0FA2F1AD0EA
:102D3000B7F5FA7F1BD0B7F57A7F20D11BE0C8200A
:102D4000ADF818001CE06420ADF8180018E0282049
:102D5000ADF8180014E01420ADF8180010E01020B1
:102D6000ADF818000CE00820ADF8180008E00420C9
:102D7000ADF8180004E00220ADF8180000E000BF34
:102D800000BF06A9304600F0D6F800208DF81300E9
:102D900001208DF814000020ADF80800ADF80A00FD
:102DA000ADF80C00ADF80E00ADF8100001208DF864
:102DB000150002A800F032F802208DF8050003206B
:102DC0008DF8060001208DF8070001A803F0B4FB80
:102DD00001220221304600F0A5F80BB0BDE8F08FCB
:102DE000009CFFBF10B504460B48844209D1012165
:102DF000480604F04DFA00214FF0007004F048FA44
:102E000008E00121880604F043FA00214FF08060B9
:102E100004F03EFA10BD00000064004010B500212F
:102E2000837A012202FA03F13D4A126842F001025C
:102E30003B4B1A603A4A1C3212688A43384B1C33A7
:102E40001A60027BCAB9364A0C3212688A43344B84
:102E50000C331A604288C38842EA0343304A403246
:102E6000847A42F834300288838842EA03432C4A49
:102E70004032847A02EBC4025360027B012A19D1EA
:102E8000274A0C3212680A43254B0C331A604288D9
:102E9000038842EA0343224A4032847A42F83430BB
:102EA000C288838842EA03431D4A4032847A02EB97
:102EB000C4025360C27A3AB9194A121D12688A4391
:102EC000174B1B1D1A6006E0154A121D12680A43B3
:102ED000134B1B1D1A60028932B9114A1432126851
:102EE0008A430F4B14331A600289012A06D10C4A17
:102EF000143212680A430A4B14331A60427B012AC7
:102F000006D1074A1C3212680A43054B1C331A606B
:102F1000034A126822F00102014B1A6010BD000042
:102F2000006600401AB143690B43436102E0436904
:102F30008B434361704730B502460020002314687C
:102F400024F002041460146844F00104146000E0EA
:102F50005B1C546804F001041CB94FF6FF74A342D3
:102F6000F6D1546804F001040CB900206CE08C79AF
:102F7000012C04D1146844F08004146003E0146848
:102F800024F080041460CC79012C04D1146844F03E
:102F90004004146003E0146824F0400414600C7AC8
:102FA000012C04D1146844F02004146003E0146878
:102FB00024F0200414604C7A012C04D1146844F0ED
:102FC0001004146003E0146824F0100414608C7A78
:102FD000012C04D1146844F00804146003E0146860
:102FE00024F008041460CC7A012C04D1146844F055
:102FF0000404146003E0146824F0040414608C7862
:10300000A407CD7844EA05640D7944EA05444D7976
:1030100044EA05540D886D1E2C43D461146824F0D5
:1030200001041460002300E05B1C546804F00104F8
:103030001CB14FF6FF74A342F6D1546804F00104AA
:103040000CB1002000E0012030BD0246002019B97B
:10305000D36803F0030006E0012903D1136903F0EC
:10306000030000E00020704710B500F5D87303EBB3
:1030700001131B6803F004031372137A53B900F5AC
:10308000D87303EB01131B6840F2FF7404EA535337
:10309000136009E000F5D87303EB01131B686FF0B0
:1030A000604404EAD303536000F5D87303EB0113C3
:1030B0001B6803F00203537200F5D87303EB01138E
:1030C0005B6803F00F03937200F5D87303EB0113F1
:1030D0005B681B0AD37400F5D87303EB01139B687C
:1030E000D37200F5D87303EB01139B681C0A1473A9
:1030F00000F5D87303EB01139B681C0C547300F5A7
:10310000D87303EB01139B681B0E937300F5D87300
:1031100003EB0113DB68D37300F5D87303EB0113E2
:10312000DB681C0A147400F5D87303EB0113DB6829
:103130001C0C547400F5D87303EB0113DB681B0EF1
:10314000937421B9C36843F02003C36003E00369AB
:1031500043F02003036110BD2DE9F04186B08046A5
:103160000D4616461F46002400214046FFF76DFF1E
:1031700018B9002006B0BDE8F08101AA0021404640
:10318000FFF772FF002405E00DF10F00005D3055E0
:10319000601CC4B2BC42F7DB019828600120E9E75B
:1031A00010B502460020936803F08063B3F1806F8E
:1031B00000D110E0936803F00063B3F1006F01D118
:1031C000012008E0936803F08053B3F1805F01D1E0
:1031D000022000E00420042874D002F5C07303EB41
:1031E00000131B6803F0010402F5C07303EB001326
:1031F0001C600B7A7BB94B7A0C8843EA445302F586
:10320000C07404EB00142468234302F5C07404EB7B
:103210000014236010E00B7A4C6843EAC4034C7A34
:10322000234302F5C07404EB00142468234302F521
:10323000C07404EB001423608B7A03F00F038B72CD
:1032400002F5C07303EB00135B6823F00F0402F573
:10325000C07303EB00135C6002F5C07303EB001353
:103260005B688C7A234302F5C07404EB001463603E
:103270008B7B1C064B7B44EA03440B7B44EA032311
:10328000CC7A234302F5C07404EB0014A3608B7C5A
:103290001C064B7C44EA03440B7C44EA0323CC7BAE
:1032A000234302F5C07404EB0014E36002F5C0731D
:1032B00003EB00131B6843F0010402F5C07303EB3A
:1032C00000131C6010BD000010B50246002321B1A0
:1032D000012907D002290FD109E090681D4C00EAAE
:1032E00004030BE090681C4C00EA040306E09068BD
:1032F0001A4C00EA040301E0002300BF00BF184C91
:10330000181BA34216D007DC83B16FF0806018440D
:1033100070B1022818D111E0B0F5007F10D0114C27
:10332000204448B1B0F5003F0ED10BE002230DE080
:1033300000230BE0002309E0002307E0012305E060
:10334000012303E0012301E0002300BF00BFD8B246
:1033500010BD00000300000400030008000003107B
:10336000000100080001FFF72DE9F04385B0814618
:103370000D4690461E4600240095019500208DF8CC
:1033800008008DF809008DF80A6000BF06E018F803
:1033900004100DF10B000155601C84B2B442F6DB41
:1033A00069464846FFF7FCFE0746002400BF394641
:1033B0004846FFF789FF0128F9D105B0BDE8F08341
:1033C00010B502F0F3F901280ED101F0EDF807492C
:1033D000C1F878010846007820F0400008700846DF
:1033E000007840F02000087010BD0000EC040020C0
:1033F00010B52DED028BFE4890ED180AFD4880EDCA
:10340000000AFB4890ED190AFB4880ED000AF848D5
:1034100090ED170AF94880ED000A08F049FBF848DA
:103420000068F549D1ED000AF24991ED000A00F07B
:1034300035FEF34908600846006800EB4001C1EB27
:10344000C010FA2101EB800000EE100AB8EEC00AAD
:10345000E848D0ED000AB4EEE00AF1EE10FA18DD0B
:10346000E748006800EB801040F2A461A1EB800007
:1034700000EE100AB8EEC00ADF48D0ED000AB4EE44
:10348000E00AF1EE10FA04DD0021D948C0F800117D
:103490008AE0DB48006800EB4001C1EBC010FA2174
:1034A00001EB800000EE100AB8EEC00AD148D0ED62
:1034B000000AB4EEE00AF1EE10FA18D2D048006823
:1034C00000EB801040F61C4101EB800000EE100A7A
:1034D000B8EEC00AC848D0ED000AB4EEE00AF1EE3A
:1034E00010FA04DD0121C248C0F800115CE0C448B4
:1034F000006800EB4001C1EBC0106FF0F901A1EBD7
:10350000800000EE100AB8EEC00ABA48D0ED000AFA
:10351000B4EEE00AF1EE10FA18D2B948006800EBF8
:10352000801040F61C4101EB800000EE100AB8EE5E
:10353000C00AB148D0ED000AB4EEE00AF1EE10FA8C
:1035400004D20221AA48C0F800112DE0AC4800685E
:1035500000EB4001C1EBC0106FF0F901A1EB80005E
:1035600000EE100AB8EEC00AA248D0ED000AB4EE90
:10357000E00AF1EE10FA17DDA148006800EB8010B8
:1035800040F2A461A1EB800000EE100AB8EEC00A80
:103590009948D0ED000AB4EEE00AF1EE10FA03D239
:1035A00003219348C0F800119548006805F0E4FD38
:1035B0008F48D0F8000130B101287DD0022879D0A1
:1035C000032878D175E101F0B3FD8D48006800EB68
:1035D0004001C1EBC01040F21451A1EB800000EE9D
:1035E000900AF8EEE00A30EE200A8348D0ED000A97
:1035F00030EEC00A7E4880ED480A9FED820A80EDD9
:10360000470AD0ED470AB0EE600A7C48D0ED000AC8
:1036100008F00EFA764880ED490AD0ED480AB0EE7F
:10362000600A09F07FFC7248D0ED490A30EEC00A0A
:10363000B0EE408AFEF764FA6D4880ED150AD0EDD1
:10364000480AB0EE600A09F06DFC6948D0ED490AFD
:1036500030EEC00AB0EE408AFEF752FA644880EDC0
:10366000120A90ED160AD0ED150A30EE200A80ED10
:10367000130A90ED160AB1EE400AD0ED120A30EEB0
:10368000200A80ED100A90ED130ABDEEC00A10EE7C
:10369000102A01215C4805F0A3FD554890ED100A61
:1036A000BDEEC00A10EE102A0221574805F098FD21
:1036B00074E101E074E070E101F03AFD5048006807
:1036C000AF2148434FF4167101EB800000EE900AE1
:1036D000F8EEE00A30EEC00A4648D0ED000A30EEBF
:1036E000C00A434880ED480A9FED480A80ED470A2A
:1036F000D0ED470AB0EE600A4048D0ED000A08F06D
:1037000097F93B4880ED490AD0ED480AB0EE600ACF
:1037100009F008FC3648D0ED490A30EE200AB0EE38
:10372000408AFEF7EDF9324880ED150AD0ED480ADF
:10373000B0EE600A09F0F6FB2D48D0ED490A30EEF4
:10374000200AB0EE408AFEF7DBF9294880ED120A24
:1037500090ED160AD0ED150A30EE200A80ED130A1E
:1037600090ED160AB1EE400AD0ED120A30EE200AB2
:1037700080ED100A90ED130ABDEEC00A10EE102A7B
:103780000121214805F02CFD194890ED100ABDEEED
:10379000C00A10EE102A02211B4805F021FDFDE0B1
:1037A00001F0C6FC1648006800EB4001C1EBC010F8
:1037B00040F6AC5101EB800000EE900AF8EEE00A12
:1037C00030EEC00A0C48D0ED000A30EEC00A0848BE
:1037D00080ED480A9FED0E0A80ED470AD0ED470ABA
:1037E000B0EE600A0548D0ED000A08F021F911E0BA
:1037F000EC040020D8010020DC010020E0010020C2
:10380000E40100200000B4C2006800400000000095
:103810000000B442974880ED490AD0ED480AB0EE66
:10382000600A09F07FFB9348D0ED490A30EE200A88
:10383000B0EE408AFEF764F98E4880ED150AD0EDAF
:10384000480AB0EE600A09F06DFB8A48D0ED490ADB
:1038500030EE200AB0EE408AFEF752F9854880ED3E
:10386000120A90ED160AD0ED150A30EE200A80ED0E
:10387000130A90ED160AB1EE400AD0ED120A30EEAE
:10388000200A80ED100A90ED130ABDEEC00A10EE7A
:10389000102A0121784805F0A3FC764890ED100A23
:1038A000BDEEC00A10EE102A0221734805F098FC04
:1038B00074E001F03DFC71480068AF2148434FF4CB
:1038C000167101EB800000EE900AF8EEE00A30EE8F
:1038D000C00A6B48D0ED000A30EE200A654880ED42
:1038E000480A9FED680A80ED470AD0ED470AB0EE1E
:1038F000600A6548D0ED000A08F09AF85D4880ED4E
:10390000490AD0ED480AB0EE600A09F00BFB5948AD
:10391000D0ED490A30EEC00AB0EE408AFEF7F0F86A
:10392000544880ED150AD0ED480AB0EE600A09F05F
:10393000F9FA5048D0ED490A30EEC00AB0EE408A9C
:10394000FEF7DEF84B4880ED120A90ED160AD0ED36
:10395000150A30EE200A80ED130A90ED160AB1EE3A
:10396000400AD0ED120A30EE200A80ED100A90EDE8
:10397000130ABDEEC00A10EE102A01213E4805F0E0
:103980002FFC3C4890ED100ABDEEC00A10EE102A44
:103990000221394805F024FC00E000BF00BF354893
:1039A000D0F80C01022802DD182032490870364890
:1039B00090ED000ABDEEC00A10EE102A33A1344883
:1039C00005F03AFB2B4890ED180ABDEEC00A10EE48
:1039D000102A2EA12E4805F02FFB264890ED190A3B
:1039E000BDEEC00A10EE102A28A1294805F024FBDC
:1039F000284826A10268264805F01EFB1F4823A17F
:103A00000268234805F018FB1A4890ED490ABDEEFC
:103A1000C00A10EE102A1DA11D4805F00DFB154827
:103A200090ED480ABDEEC00A10EE102A17A1184802
:103A300005F002FB0F4890ED140ABDEEC00A10EE2F
:103A4000102A12A1124805F0F7FA0A4890ED130A5D
:103A5000BDEEC00A10EE102A0CA10D4805F0ECFADC
:103A600004480DA1D0F80021094805F0E5FABDECA5
:103A7000028B10BDEC04002000680040E40100202F
:103A8000D801002000003443E00100202564090033
:103A9000005000409C0100202564090D0A00000030
:103AA00010B588B004460121082003F0D1FB0121A4
:103AB000480403F0DDFB07220521244801F072FDD4
:103AC00007220621214801F06DFD602006900220AA
:103AD0008DF81C008DF81D0000208DF81E000120BF
:103AE0008DF81F0006A9194801F014FD029400206A
:103AF000ADF80C00ADF80E00ADF81000ADF81400F4
:103B00000C20ADF8120002A9114805F02BFA402153
:103B10000F4805F043F926208DF8040000208DF8A9
:103B2000050002208DF8060001208DF8070001A88D
:103B300002F002FD012240F22551054805F0EDF9A1
:103B40000121034805F042F908B010BD000C024005
:103B50000044004070B52DED0C8BB0EE409AF0EEB5
:103B6000609AB0EE41AA04468C4890ED000A60EEDF
:103B7000000AB1EE001A80EE810A8948D0ED000AF1
:103B800090ED001A00EE810A10EE105A28460AF055
:103B900035FA41EC1C0BB0EE4C0AF0EE6C0A07F063
:103BA00097F9B0EE40BAF0EE60BA51EC1B0B09F099
:103BB00017FC0AEE900ADFED7B0A8AEE200ADFEDA1
:103BC0007A0A20EE200AB0EE40DA9FED780A3AEE4B
:103BD000000AB0EE408A9FED750A3AEE000AF0EE58
:103BE000408A9FED700AB4EEC08AF1EE10FA06DB4F
:103BF0009FED6F0A38EE400AB0EE408A0CE09FED70
:103C00006D0AB4EEC08AF1EE10FA05D89FED680A8D
:103C100038EE000AB0EE408A9FED620AF4EEC08AE8
:103C2000F1EE10FA06DB9FED620A38EEC00AF0EE04
:103C3000408A0CE09FED5F0AF4EEC08AF1EE10FAC4
:103C400005D89FED5B0A38EE800AF0EE408A5348B3
:103C5000D0ED000AB0EE001A80EE810A5048D0ED97
:103C6000000A80EE201AB0EE41BAB0EE4B0A05F021
:103C70008FFF9FED4C1AC8EE010A9FED4B1A10EE14
:103C8000810AB0EE408A4548D0ED000AB0EE001A35
:103C900080EE810A4248D0ED000A80EE201AB0EE94
:103CA00041BAB0EE4B0A05F073FF9FED3E1AC8EE25
:103CB000810A9FED3D1A00EE810AF0EE408A3748F6
:103CC00090ED000AF0EE000A80EE20BAB0EE4D0A48
:103CD00006F08EF8F0EE490A4BEE400AC4ED020AF7
:103CE0002E4890ED000AF0EE000A80EE20BAB0EE09
:103CF0004D0A07F025F8F0EE690A4BEE400AC4EDD4
:103D0000030A264890ED000AF0EE000A80EE20BA81
:103D1000B0EE4D0A06F06CF8F0EE490A4BEE000AE0
:103D2000C4ED040A1D4890ED000AF0EE000A80EE92
:103D300020BAB0EE4D0A07F003F8F0EE690A4BEE38
:103D4000000AC4ED050AB0EE680A06F051F8F0EE7C
:103D5000490A4AEE800AC4ED000AB0EE680A06F08D
:103D6000EFFFF0EE690A4AEE800AC4ED010AB0EEF8
:103D7000480A06F03DF8F0EE490A4AEE800AC4ED22
:103D8000060AB0EE480A06F0DBFFF0EE690A4AEEDA
:103D9000800AC4ED070ABDEC0C8B70BD4001002009
:103DA0003C01002000003443DB0F49400000B442D6
:103DB0000000B443000034C33048D0F8940058BB2E
:103DC0002E48D0F8880088B99FED2D0A2B4880ED49
:103DD000290A9FED2C0A80ED2A0A9FED2B0A80ED1F
:103DE0002B0A9FED2A0A80ED2C0A45E02348D0F8E3
:103DF000880058B39FED260A204880ED2D0A9FEDDC
:103E0000250A80ED2E0A9FED240A80ED2F0A9FEDF2
:103E1000230A80ED300A2FE01848D0F894000128DA
:103E20002AD11648D0F8880088B99FED170A1348A0
:103E300080ED290A9FED130A80ED2A0A9FED100AF2
:103E400080ED2B0A9FED110A80ED2C0A14E00B483F
:103E5000D0F8880080B19FED100A084880ED2D0A47
:103E60009FED0C0A80ED2E0A9FED090A80ED2F0AC6
:103E70009FED0A0A80ED300A70470000EC04002034
:103E80000000C8C2004035450000C8420080ED4433
:103E900000C08AC400E05D4500C08A4400409C44E4
:103EA00010B52DED048B75480068401C73490860FF
:103EB00008F07AFE7248D0ED180A30EEC00A10EE13
:103EC000104A20460AF09AF841EC190BB0EE490A64
:103ED000F0EE690A06F034F8B0EE408AF0EE608A3F
:103EE0009FED680B53EC102B51EC180B09F054FDAF
:103EF0003BD208F05FFE6248D0ED190A30EEC00AEE
:103F000010EE104A20460AF079F841EC190BB0EE99
:103F1000490AF0EE690A06F013F8B0EE408AF0EEB6
:103F2000608A9FED580B53EC102B51EC180B09F0E5
:103F300033FD1AD2524890ED160AB5EEC00AF1EEE2
:103F400010FA12D00421514801F04FFB20B1042196
:103F50004E4801F04AFB40B94D480068401C4C49AE
:103F6000086000204B49086002E0002048490860D2
:103F700008F01AFE4248D0ED180A30EEC00A10EEE2
:103F8000104A20460AF03AF841EC190BB0EE490A03
:103F9000F0EE690A05F0D4FFB0EE408AF0EE608AD8
:103FA0009FED380B53EC102B51EC180B09F0F4FC7F
:103FB0003DD208F0FFFD3248D0ED190A30EEC00ABC
:103FC00010EE104A20460AF019F841EC190BB0EE39
:103FD000490AF0EE690A05F0B3FFB0EE408AF0EE50
:103FE000608A9FED280B53EC102B51EC180B09F055
:103FF000D3FC1CD2224890ED160AB5EEC00AF1EEB1
:1040000010FA14D00421214801F0EFFA01280ED152
:104010000121214801F0E9FA012808D11D48006872
:10402000401C1C49086000201949086002E000207B
:1040300018490860174800681E2808DD0020154947
:1040400008600E4908600120BDEC048B10BD1048CB
:104050000068642806DD00200D49086007490860F3
:104060000220F1E705480068B0F57A7F04DD002002
:10407000024908600120E7E70020E5E71000002082
:10408000EC04002000000000000008400010024086
:104090000C0000200800002000080240F0B52DEDC3
:1040A000068B83B0B0EE408AF0EE608A04460025AD
:1040B000002600200090019002909FEDF60AB4EED9
:1040C000C08AF1EE10FA3FDB9FEDF30AF4EEC08AEE
:1040D000F1EE10FA38D89FEDEF0A38EE400ADFED26
:1040E000EF0A80EE201A11EE107A384609F086FFAA
:1040F00041EC1A0BB0EE4A0AF0EE6A0A05F020FF16
:10410000B0EE409AF0EE609A51EC190B09F0EAFB20
:1041100005469FEDE30AC8EE800A10EE907A384615
:1041200009F06CFF41EC1A0BB0EE4A0AF0EE6A0A95
:1041300005F006FFB0EE409AF0EE609A51EC190BD4
:1041400009F0D0FB0646DBE09FEDD60AB4EEC08A4C
:10415000F1EE10FA43DB9FEDD00AF4EEC08AF1EEE7
:1041600010FA3CDB9FEDCB0A38EE000ADFEDCE0AF9
:1041700080EE201A11EE107A384609F03FFF41EC2C
:104180001A0BB0EE4A0AF0EE6A0A05F0D9FEB0EE5C
:10419000409AF0EE609A51EC190B09F0A3FB05462A
:1041A0009FEDBD0A38EEC00ADFEDC00A80EE201A8E
:1041B00011EE107A384609F021FF41EC1A0BB0EEEF
:1041C0004A0AF0EE6A0A05F0BBFEB0EE409AF0EE45
:1041D000609A51EC190B09F085FB064690E09FEDC3
:1041E000B10AB4EEC08AF1EE10FA43D29FEDB00AE4
:1041F000F4EEC08AF1EE10FA3CDD9FEDA60A38EE2F
:10420000000ADFEDA60A80EE201A11EE107A384679
:1042100009F0F4FE41EC1A0BB0EE4A0AF0EE6A0A1D
:1042200005F08EFEB0EE409AF0EE609A51EC190B5C
:1042300009F058FB05469FED9E0A38EEC00ADFEDF7
:10424000980A80EE201A11EE107A384609F0D6FE50
:1042500041EC1A0BB0EE4A0AF0EE6A0A05F070FE65
:10426000B0EE409AF0EE609A51EC190B09F03AFB6F
:10427000064645E09FED870AB4EEC08AF1EE10FADB
:104280003ED29FED8B0AF4EEC08AF1EE10FA37D2DF
:104290009FED800A38EE400ADFED830A80EE201A97
:1042A00011EE107A384609F0A9FE41EC1A0BB0EE77
:1042B0004A0AF0EE6A0A05F043FEB0EE409AF0EECC
:1042C000609A51EC190B09F00DFB05469FED770A3A
:1042D000C8EE800A10EE907A384609F08FFE41EC65
:1042E0001A0BB0EE4A0AF0EE6A0A05F029FEB0EEAB
:1042F000409AF0EE609A51EC190B09F0F3FA064679
:10430000032D00DB0225032E00DB0226694800682E
:10431000694908609FED5F0AB4EEC08AF1EE10FAB9
:104320000DDB9FED5D0AF4EEC08AF1EE10FA06D8BF
:104330000020604908600120604908603DE09FED71
:10434000590AB4EEC08AF1EE10FA0DDB9FED520A65
:10435000F4EEC08AF1EE10FA06DB01205549086040
:1043600002205649086028E09FED4E0AB4EEC08A4C
:10437000F1EE10FA0DD29FED4E0AF4EEC08AF1EE86
:1043800010FA06DD02204B49086001204B49086005
:1043900013E09FED400AB4EEC08AF1EE10FA0CD2A1
:1043A0009FED430AF4EEC08AF1EE10FA05D2032025
:1043B000404908600220414908603F4800683D4983
:1043C0000968884202D001203D4908603C480068E5
:1043D00000285ED039480068012802D0022876D132
:1043E0002BE0022017E0214612E0324A126802EB6D
:1043F000C202344B03EB820201EB410302EB830266
:1044000052F820205DF820301A444DF82020491E33
:104410000029EADA401E0028E5DA02200AE02A4AEA
:1044200012685DF822105DF82020914201DD2649D6
:104430000860401E0028F2DA4AE0022017E0214618
:1044400012E01C4A126802EBC2021E4B03EB82020E
:1044500001EB410302EB830252F820205DF820308B
:104460001A444DF82020491E0029EADA401E00288F
:10447000E5DA02200AE0144A12685DF822105DF8BD
:104480002020914201DD10490860401E0028F2DA28
:104490001EE021E000007A4300C0414500002F44A7
:1044A00000007A4400007AC30000614400000C441C
:1044B0000080D444F0010020F4010020FC01002021
:1044C000F801002080060020EC010020FFE700BF7B
:1044D00000BF00202949086001202949096801EB33
:1044E000C101284A02EB810106EB460201EB820181
:1044F00041F82500BDEEC80A10EE102A22A123487B
:1045000004F09AFDBDEEE80A10EE102A1EA11F4825
:1045100004F092FD1E481CA102681C4804F08CFDAA
:104520001C4819A10268194804F086FD1A4816A112
:104530000268164804F080FD184813A10268134869
:1045400004F07AFD0E4810A10268104804F074FDD2
:104550002A460DA10D4804F06FFD32460AA10B4812
:1045600004F06AFD05480EA10268084804F064FDE5
:104570000948006803B0BDEC068BF0BDF8010020CF
:10458000F001002080060020256409000050004052
:104590009C010020A0010020EC010020FC01002073
:1045A0002564090D0A0000002DE9F0432DED048B70
:1045B00091B0954890ED180AB0EE408A90ED190A36
:1045C000F0EE408A90ED170AB0EE409A202109A83B
:1045D000FBF7AAFE00200590069007900890019036
:1045E0000290039004900024002609A8B0EE491A16
:1045F000F0EE680AB0EE480AFFF7ACFA00274FF079
:1046000003082CE000254FF0030924E0DFF8FCC18B
:104610000CEBC9000CEBC5010DF1240C0CEBC8022E
:104620000CEBC703D0ED013A90ED003AD1ED012A31
:1046300091ED002AD2ED011A92ED001AD3ED010A94
:1046400093ED000A00F002F918B1012005A941F824
:104650002500A9466D1C032DD8DDB8467F1C032F0D
:10466000D0DD00274FF003082CE000254FF00309B0
:1046700024E0DFF89CC10CEBC9000CEBC5010DF187
:10468000240C0CEBC8020CEBC703D0ED013A90ED03
:10469000003AD1ED012A91ED002AD2ED011A92EDF6
:1046A000001AD3ED010A93ED000A00F0CFF818B11B
:1046B000012001A941F82500A9466D1C032DD8DD74
:1046C000B8467F1C032FD0DD0598012808D0069836
:1046D000012805D00798012802D00898012801D1A7
:1046E000022400E00024022C0ED00198012808D0FA
:1046F0000298012805D00398012802D004980128C7
:1047000001D1012400E00024022C20D1DDE90501C3
:104710000844079908440899084402283BD1DDE978
:104720000501084402280ED0DDE9060108440228EC
:1047300009D0DDE907010844022804D0059908984A
:104740000844022801D1022625E0002623E0012C9E
:1047500020D1DDE901010844039908440499084483
:10476000022818D1DDE90101084402280ED0DDE954
:1047700002010844022809D0DDE9030108440228A7
:1047800004D0019904980844022801D1012602E0CE
:10479000002600E00026022C03D102201D490860FB
:1047A00009E0012C03D101201A49086003E014B983
:1047B00003201849086026B91648006815490860A2
:1047C0000AE0012E03D104201249086004E0022E01
:1047D00002D105200F49086032460FA1124804F0AB
:1047E0002BFC224611A1104804F026FC094813A115
:1047F00002680D4804F020FC0648006811B0BDECCA
:10480000048BBDE8F0830000EC0400208000002051
:1048100060000020A8000020737469636B436F720E
:104820006E6F723D2564090000500040696E74652A
:1048300072736563743D25640900000073746963D5
:104840006B5374617475733D2564090010B52DEDCB
:10485000080B2DED048B9DED0A0ADDED060A30EE06
:10486000600ADDED050A9DED071A70EEC10A20EE23
:10487000200ADDED040A9DED061A70EEC10A9DEDD9
:104880000B1ADDED071A31EE611A00EEC10ADDEDFB
:10489000080A9DED061A70EEC10A9DED051ADDEDC0
:1048A000071A31EE611A60EE810A9DED041ADDED02
:1048B000061A31EE611ADDED091A9DED072A71EE37
:1048C000C21A41EE610A20EE200AB0EE408A9DED48
:1048D000040ADDED0A0A30EE600ADDED090A9DEDFD
:1048E0000B1A70EEC10A20EE200ADDED080A9DEDDC
:1048F0000A1A70EEC10A9DED051ADDED0B1A31EEB4
:10490000611A00EEC10ADDED060A9DED0A1A70EE8D
:10491000C10A9DED091ADDED0B1A31EE611A60EE48
:10492000810A9DED081ADDED0A1A31EE611ADDEDFE
:10493000071A9DED0B2A71EEC21A41EE610A20EEB4
:10494000200AF0EE408A9DED061AF0EE410A9DED38
:10495000041AB0EE410A01F081FDB0EE409A9DEDDF
:104960000A1AF0EE410A9DED081AB0EE410A01F074
:104970008DFDB4EEC09AF1EE10FA5FDB9DED0A1AE0
:10498000F0EE410A9DED081AB0EE410A01F066FD15
:10499000B0EE409A9DED061AF0EE410A9DED041A24
:1049A000B0EE410A01F072FDB4EEC09AF1EE10FAD9
:1049B00044DB9DED071AF0EE410A9DED051AB0EEBD
:1049C000410A01F04BFDB0EE409A9DED0B1AF0EE5E
:1049D000410A9DED091AB0EE410A01F057FDB4EE0F
:1049E000C09AF1EE10FA29DB9DED0B1AF0EE410AA8
:1049F0009DED091AB0EE410A01F030FDB0EE409A8B
:104A00009DED071AF0EE410A9DED051AB0EE410A40
:104A100001F03CFDB4EEC09AF1EE10FA0EDBB5EEFB
:104A2000C08AF1EE10FA09D8F5EEC08AF1EE10FA5C
:104A300004D80120BDEC048B08B010BD0020F9E7BC
:104A400010B51048C06F042802D0052816D10AE01E
:104A5000DFED0D1A9FED0D1ADFED0D0A9FED0D0A2A
:104A600002F040FF0BE0DFED081A9FED081ADFEDC2
:104A70000A0A9FED050A02F035FF00E000BF00BF03
:104A8000012010BDEC0400200000164500000000CD
:104A900000006144008009450000AF44F0EE400A88
:104AA0000E4890ED000A20EE200A0D4890ED001A05
:104AB000B8EEC11A30EEC11A0A48D0ED001A01EE64
:104AC000810A094880ED000ABDEEE00A044880ED45
:104AD000000A054890ED000A704700009802002087
:104AE000940200209C020020A002002010B5FDF7D7
:104AF000C3FA10BD10B506F0DBFF2748D0F88800D8
:104B000010B903F00DF91CE02348D0F88800012803
:104B100005D104212048C167FFF792FF11E01E482C
:104B2000D0F88800022805D105211B48C167FFF78E
:104B300087FF06E01848D0F88800032801DB03F05F
:104B4000D1F91548D0F88C10D0F8900081420FDAD6
:104B50001148D0F8900004280AD00F48D0F88C00F3
:104B6000012805D00C48D0F88410891EC0F88410A4
:104B70000948D0F89010C0F88C10D0F888000428AC
:104B800008D10548007820F0010003490870002191
:104B90000148C16710BD0000EC04002010B52DEDE8
:104BA000028BB0EE408AB0EE480A00F00FF8BDEE7E
:104BB000C00A10EE104A22460821034804F010FBF8
:104BC000BDEC028B10BD000000640040F0EE400A16
:104BD0009FED020A20EE800A704700000000804529
:104BE000024600EE102AB8EEC00ADFED1C0AB4EE51
:104BF000E00AF1EE10FA0ADC00EE102AB8EEC00A64
:104C0000DFED170AB4EEE00AF1EE10FA03D200204D
:104C1000144B186002E00120124B186000EE101ACD
:104C2000B8EEC00ADFED0D0AB4EEE00AF1EE10FABC
:104C30000ADC00EE101AB8EEC00ADFED090AB4EE85
:104C4000E00AF1EE10FA03D20020064B186002E0F1
:104C50000120044B186003480068704700A887458E
:104C600000808E436C02002010B52DED048B494866
:104C7000006860B9484890ED170ADFED480A30EE49
:104C8000600A474880ED000A012042490860424816
:104C900090ED170AF0EE400A414890ED000A06F048
:104CA000C7FE404880ED000A3F480068401C3E496E
:104CB00008600846006896280BDA3C4A01213C4807
:104CC00004F08EFA42F210720221394804F088FA98
:104CD0004BE035480068962847DB324890ED000AE3
:104CE000FCF70EFFBDEEC00A10EE104A224601216D
:104CF0002F4804F075FA2B4890ED000AFCF700FFEE
:104D0000BDEEC00A10EE104A22460221284804F0E7
:104D100067FA2448006809F071F941EC190BB0EE0C
:104D2000490AF0EE690A05F00BF9B0EE408AF0EEA0
:104D3000608A9FED200B53EC102B51EC180B08F000
:104D40002BFE12D200201349086017490860124850
:104D5000007840F04000104908700846007820F0C4
:104D60002000087000201549086014480068FA28DF
:104D70000DDD0948007820F020000749087008463A
:104D8000007840F04000087000200C490860BDEC3D
:104D9000048B10BD74010020EC040020000034429C
:104DA0006C0100207001002078010020F0D8FFFF86
:104DB0000068004000000000000014407C0100205A
:104DC00010B50749074800F0EBF838B10021054855
:104DD00000F024F80249034800F006F810BD000076
:104DE00000800028B86002400246094B9A4201D276
:104DF000084801E00648103801F000531BB1064B8B
:104E00000B40C36002E0044B0B408360704700001E
:104E100010640240006002407D0F7D0F21B10268E6
:104E200042F00102026003E0026822F00102026027
:104E300070470000016821F001010160002101605C
:104E400041608160C1600161212141614A4988421C
:104E500004D13D21484A103A91608CE0464918310E
:104E6000884205D14FF47461434A103A916082E060
:104E700041493031884205D14FF474113E4A103A0D
:104E8000916078E03C494831884205D14FF0746127
:104E9000394A103A91606EE037496031884204D156
:104EA0003649354A103AD16065E033497831884255
:104EB00004D13349304A103AD1605CE02E49903138
:104EC000884204D12F492C4A103AD16053E02A4934
:104ED000A831884205D14FF03D51274A103AD160A0
:104EE00049E02949884204D13D21274A083A116006
:104EF00041E025491831884205D14FF47461224AB6
:104F0000083A116037E020493031884205D14FF42A
:104F100074111D4A083A11602DE01B49483188423E
:104F200005D14FF07461184A083A116023E0164920
:104F30006031884204D11149134A121F11601AE0EE
:104F400011497831884204D10D490F4A121F11606E
:104F500011E00D499031884204D10A490A4A121FD2
:104F6000116008E00849A831884204D14FF03D5152
:104F7000054A121F11607047106002403D0000207A
:104F8000400F002000003D20106402400146002038
:104F90000A6802F001020AB1012000E00020704717
:104FA00070B50246002000240025124EB24201D204
:104FB000114B01E00F4B103B104E0E4036B11E2638
:104FC00006EAD124166806EA040502E0566906F0EE
:104FD000800501F000560EB15C6800E01C68084EC8
:104FE000344004EA010616B10DB1012000E00020B2
:104FF00070BD000010640240006002403C0F3C0F96
:105000007D0F7D0F10B501F080034BB122B14369D4
:1050100043F08003436103E0436923F0800343616D
:1050200080290BD02AB1036801F01E0423430360DA
:1050300004E0036801F01E04A343036010BD0000F8
:1050400010B500220268134B1A40CC680B6823434A
:105050004C6923438C692343CC6923430C6A234363
:105060004C6A23438C6A23434C6B23438C6B23434E
:105070001A430260426922F00702D1E90B3423434C
:105080001A4342610B6943604B6883608B68C3605D
:1050900010BD00003F801CF07047000010B52DEDE2
:1050A0000C8BB0EE408AF0EE608AB0EE419AF0EEE2
:1050B000619A38EEE90A10EE101A084608F09EFFD1
:1050C00041EC1D0B9FED181BB0EE4D0AF0EE6D0A82
:1050D00004F0AAFFB0EE40BAF0EE60BA38EE490A2A
:1050E00010EE101A084608F089FF41EC1D0B9FEDE9
:1050F0000E1BB0EE4D0AF0EE6D0A04F095FFB0EE17
:1051000040CAF0EE60CA53EC1B2B51EC1C0B08F0AC
:1051100099F941EC1A0BB0EE4A0AF0EE6A0A05F072
:10512000D7FEBDEC0C8B10BD00000000000000405D
:1051300010B51D48D0F800011C490968884205D007
:10514000B7EE000A1A4880ED000A04E01648D0F8CD
:1051500000011649086007F0A1FBF1EE040AB4EE65
:10516000E00AF1EE10FA09DD114890ED000ADFEDDA
:10517000110A30EE200A80ED000A11E007F08EFBE4
:10518000F9EE040AB4EEE00AF1EE10FA08D208488B
:1051900090ED000ADFED070A30EE600A80ED000AAC
:1051A000034890ED000A10BDEC04002080030020AD
:1051B0007C030020CDCCCC3D704700007FB50020A3
:1051C0000290039007F0C4FBBDEEC00A10EE104A37
:1051D00007F0D2FBBDEEC00A10EE105ABB480078B3
:1051E00020F04000B94908700020C1F878019FED17
:1051F000B80A02F039FA0020B449C1F83001294652
:105200002046FFF7EDFCB3490860B348007800F092
:10521000010090B107F08EFAB0490860AE4800680E
:1052200020F00100AC490860AC48006807F040FB82
:105230008DED020ACDED030AAFE0A748007800F03B
:105240000200002872D0A448007800F0080000286E
:10525000F2D0A248006807F02BFB8DED020ACDEDDD
:10526000030ADDED031AB0EE611A9848D0ED171A63
:10527000F0EE610ADDED021AB0EE610AFCF77CFB8C
:10528000FEF70EFE01283AD100220121944803F0D6
:10529000A7FF00220221924803F0A2FF8D48006878
:1052A00050B18E48006806F0E9FF01208D49086082
:1052B00000208949086070E08848006807F098F984
:1052C00089480068401C88490860002085490860BA
:1052D00085480068022804DB01200860002082491C
:1052E000086000207C4908600846006840F0010022
:1052F00008600846006840F0040008604DE0FEF7D2
:10530000CFFD022849D10020734908600846006893
:1053100040F0010008600846006840F004000860A2
:105320006E4800687149086037E0FFE76A48007816
:1053300000F0040088B36D48006868490968884235
:105340000AD166480068401C644908600846006845
:10535000032801DD002008606048006800F07EF945
:105360008DED000ACDED010A9DED011AF0EE410A26
:105370009DED001AB0EE410A01F05CFB01280CD152
:105380000020554908600846006840F002000860A7
:105390000846006840F0080008605248006801288C
:1053A0001ED14A48007820F010004849087008468D
:1053B000007840F040000870484801684348C0F851
:1053C000E4100B2044490860002046490860464923
:1053D00008604749086048608860C86043490860C1
:1053E000404844A10268454803F026FE3A4842A1DD
:1053F0000268424803F020FE36483FA102683F4859
:1054000003F01AFE35483CA102683C4803F014FE44
:105410009DED020ABDEEC00A10EE102A36A13748F3
:1054200003F00AFE364890ED000ABDEEC00A10EE09
:10543000102A31A1314803F0FFFD324890ED000AF7
:10544000BDEEC00A10EE102A2BA12C4803F0F4FD8B
:105450002D4890ED000ABDEEC00A10EE102A26A1DC
:10546000264803F0E9FD194890ED180ABDEEC00A80
:1054700010EE102A20A1214803F0DEFD134890ED24
:10548000190ABDEEC00A10EE102A1BA11B4803F03A
:10549000D3FD0E4890ED170ABDEEC00A10EE102A9B
:1054A00015A1164803F0C8FD0F4813A10268134860
:1054B00003F0C2FD224610A1104803F0BDFD2A46AC
:1054C00012A10E4803F0B8FD7FBD0000EC040020DF
:1054D0000000704288020020600200208402002048
:1054E000006800405C020020800200208C02002046
:1054F000300700206669783D2564090000500040AF
:105500005002002054020020580200202564090D9A
:105510000A000000F0B50A4600210023002400BF65
:105520003DE0012505FA01F3156805EA03049C42F4
:1055300034D105684F000326BE40B5430560157998
:105540004E00B5400668354305601579012D02D03F
:105550001579022D16D185684F000326BE40B5434C
:10556000856055794E00B54086683543856045684D
:1055700001268E40B5434560456896798E40B6B2A7
:1055800035434560C5684F000326BE40B543C5603E
:10559000D5794E00B540C6683543C560491C102911
:1055A000BFD3F0BDF0B5002300244D07ED0E02FA85
:1055B00005F3CE1000F1200555F826504E07F70EE2
:1055C0000F26BE40B543CF1000F1200646F8275005
:1055D000CE1000F1200555F8265045EA0304CE1000
:1055E00000F1200545F82640F0BD02460020136971
:1055F0000B400BB1012000E0002070474183704751
:105600000183704710B5044607230122214608484C
:10561000FCF7C8F80648FCF721F900BF022104484E
:10562000FCF78CF80028F9D00148FCF783F810BD8E
:10563000002001402DE9F04107460C4600250026D8
:1056400005E03846FFF7DEFF0544701CC6B2A642EF
:10565000F7DBB5FBF4F080B2BDE8F0810CB530B1FA
:1056600001280DD0022814D0032824D11AE09FED80
:10567000150A8DED000A9FED140A8DED010A1AE05E
:105680009FED120A8DED000A9FED110A8DED010AC2
:1056900011E09FED100A8DED000A9FED0B0A8DEDD4
:1056A000010A08E09FED090A8DED000A9FED0A0A44
:1056B0008DED010A00BF00BF9DED000ADDED010A7E
:1056C0000CBD00000040CEC40000164500000000E4
:1056D00000803B440040CE4400207D4500BFFEE7F3
:1056E00008B5002003465322632100904FF080400C
:1056F00002F044FE0120002340F2473240F2E7313D
:1057000000901D4802F03AFE0120002340F247328B
:1057100063210090194802F031FE4FF400704310ED
:10572000174A4FF4FA7100901648FDF783F94020AC
:105730002023134A4FF4FA7100901348FDF77AF9C9
:10574000FCF7D6F8FDF72CF801F05CF902F03AFF0F
:1057500001F032FD4FF4E13002F068F84FF4E1302F
:10576000FEF79EF94FF4E13001F0CAFC4FF46120DE
:1057700002F064FF08BD0000000400400008004083
:1057800000040240006400400068004070B5054617
:105790000C4614B1012C06D102E0FFF7ABF903E08F
:1057A000FCF746FA00E000BF00BF70BD10B57C48B2
:1057B0000068401C7A4908600846006805287CD1CA
:1057C00000200860774890ED180A7748D0ED000A6D
:1057D00030EE600AB1EE041AC0EE010A9FED730AC2
:1057E00020EE800A724880ED000A6E4890ED190A9A
:1057F0007048D0ED000A30EE600AF1EE040A80EE47
:10580000201A9FED6A0A21EE000A6B4880ED000A1B
:105810006448D0ED160AB0EE600A01F0EBFC674870
:1058200080ED000A624890ED000A20EE000A62480E
:10583000D0ED000A90ED001A00EE810AF1EEC00AE8
:105840005848C0ED350A5D4890ED001ADFED5C1A4E
:1058500021EE211AF0EE410A524890ED351AB0EED1
:10586000410A02F0E1FE28B156480068401C554943
:10587000086002E00020534908605248006805288B
:1058800020D100204F4908604648007820F04000B1
:10589000444908700846007840F020000870002055
:1058A000C1F83001084690ED180A474880ED000A1B
:1058B000084690ED190A454800E06EE080ED000AC8
:1058C000012010BD374890ED180A374880ED000AD6
:1058D000344890ED190A374880ED000A344890EDBD
:1058E000000ABDEEC00A10EE102A39A1394803F0B3
:1058F000A3FB314890ED000ABDEEC00A10EE102A5D
:1059000033A1344803F098FB2C4890ED000ABDEE1B
:10591000C00A10EE102A2EA12E4803F08DFB244859
:1059200090ED000A20EE000A2348D0ED000A90ED29
:10593000001A00EE810AF1EEC00ABDEEE00A10EE98
:10594000102A23A1234803F077FB164890ED180A8C
:10595000BDEEC00A10EE102A1DA11E4803F06CFB1C
:10596000104890ED190ABDEEC00A10EE102A18A1D9
:10597000184803F061FB134815A10268154803F0AD
:105980005BFB0848027812A1124803F055FB05485A
:1059900011A1C26F0F4803F04FFB002091E70000F8
:1059A00020010020EC040020300100200000C8424B
:1059B0002401002034010020280100202C010020B7
:1059C000CDCC4C3E38010020A0000020A4000020D7
:1059D000256409000050004025640D0A0000000005
:1059E00010B52DED028B06F0B3FFB0EE408A06F045
:1059F000C3FFF0EE408A5F480068401C5D490860C4
:105A00000846006805287CDB002008605A4890EDB5
:105A1000000A38EE400A60EE000AB1EEE00A57488C
:105A200080ED000A564890ED000A38EEC00A60EE9C
:105A3000000AB1EEE00A534880ED000AD0ED000AFA
:105A40009FED510A02F0F0FD28B150480068401C5B
:105A50004E49086002E000204C4908609FED4C0A66
:105A6000B4EEC08AF1EE10FA0DD24448D0ED000A2F
:105A70009FED450A02F0D8FD28B146480068401C59
:105A80004449086002E00020424908609FED400A56
:105A9000F4EEC08AF1EE10FA0AD23C4800680228FF
:105AA00006DB0020394908600120BDEC028B10BDE7
:105AB00038480068022804DB0020364908600220CC
:105AC000F3E72D4880ED008A2D48C0ED008ABDEE39
:105AD000C80A10EE102A30A1324803F0ADFABDEE2C
