:020000040800F2
:10000000F04800206902000879190008D515000899
:10001000751900089D070008C93600080000000097
:100020000000000000000000000000004D1D00085E
:10003000AD140008000000007F02000881020008E3
:10004000830200088302000883020008830200087C
:10005000830200088302000883020008830200086C
:10006000830200088302000883020008830200085C
:10007000830200088302000883020008830200084C
:10008000830200088302000883020008830200083C
:10009000A107000883020008830200088302000809
:1000A000830200080D2A000883020008830200086A
:1000B000292A0008892A0008152B00088302000855
:1000C00083020008830200088302000883020008FC
:1000D00083020008692F0008313000080D31000844
:1000E00083020008830200088302000883020008DC
:1000F0004D2B0008830200088302000883020008D9
:100100008302000883020008312B000883020008E4
:1001100083020008292F00088302000883020008D8
:10012000830200088302000883020008830200089B
:10013000830200088302000883020008830200088B
:1001400045080008830200088302000883020008B3
:10015000830200088302000883020008830200086B
:10016000830200088302000883020008830200085B
:10017000830200088302000883020008830200084B
:10018000830200088302000800F002F800F05CF827
:100190000AA090E8000C82448344AAF10107DA45E2
:1001A00001D100F051F8AFF2090EBAE80F0013F0D8
:1001B000010F18BFFB1A43F0010318478C630000BE
:1001C000AC6300000A444FF0000C10F8013B13F040
:1001D000070408BF10F8014B1D1108BF10F8015BA0
:1001E000641E05D010F8016B641E01F8016BF9D193
:1001F00013F0080F1EBF10F8014BAD1C0C1B09D1EA
:100200006D1E58BF01F801CBFAD505E014F8016B5B
:1002100001F8016B6D1EF9D59142D6D370470000ED
:100220000023002400250026103A28BF78C1FBD8FF
:10023000520728BF30C148BF0B6070471FB505F09B
:10024000DEFF1FBD10B510BD00F076F81146FFF7B8
:10025000F5FF05F0DDF800F094F803B4FFF7F2FFC6
:1002600003BC00F097F800000948804709480047A0
:10027000FEE7FEE7FEE7FEE7FEE7FEE7FEE7FEE756
:10028000FEE7FEE704480549054A064B70470000B3
:10029000A529000889010008F0020020F04800208C
:1002A000F0440020F044002010B5203AC0F00B804C
:1002B000B1E81850203AA0E81850B1E81850A0E86A
:1002C0001850BFF4F5AF5FEA027C24BFB1E81850C4
:1002D000A0E8185044BF18C918C0BDE810405FEA34
:1002E000827C24BF51F8043B40F8043B08BF7047B0
:1002F000D20728BF31F8023B48BF11F8012B28BFB5
:1003000020F8023B48BF00F8012B70477047704748
:10031000704710B500F008F8006810BD10B504462D
:1003200000F002F8046010BD004870478C02002005
:10033000004870478C0200207546FFF7F9FFAE4673
:1003400005006946534620F00700854618B020B5E1
:10035000FFF798FFBDE820404FF000064FF0000780
:100360004FF000084FF0000B21F00701AC46ACE85D
:10037000C009ACE8C009ACE8C009ACE8C0098D46CA
:10038000704710B50446AFF300802046BDE810402A
:10039000FFF763BF01491820ABBEFEE7260002004D
:1003A000704721B1826842F00102826003E08268F6
:1003B00022F00102826070470021084A1168084A51
:1003C0001140D0E900231A4383681A43C3681A43D3
:1003D0001143044AC2F8041370470000042301408B
:1003E000E030FCFF0020014030B502460020002331
:1003F0005068104C20400D790C6844EA05242043D5
:10040000506090680C4C2040D1E903542C438D6817
:100410002C434D7944EA450420439060D06A20F48F
:1004200070000C7D641EE4B2234340EA0350D062A6
:1004300030BD0000FFFEFFFCFDF7FFC000B58DB032
:100440000121042001F0BEFB0121080201F0EAFBBA
:1004500030200B9003208DF8300000208DF8330001
:100460000BA9164801F042F80121080201F0EAFB4D
:1004700000214FF4807001F0E5FB002007900A9006
:1004800009904FF48030089007A8FFF795FF0020EF
:1004900001908DF808008DF80900039004900590F4
:1004A00001208DF8180001A90548FFF79DFF0121E3
:1004B0000348FFF776FF0DB000BD000000080240C2
:1004C0000020014010B52DED028BB0EE408AF0EE19
:1004D000608AF0EE680AB0EE480A04F0C9FB1448DE
:1004E00080ED000A90ED000A00F02AF8DFED110A15
:1004F00030EE200ABDEEC00A10EE104A224601215D
:100500000D4803F02DF90A4890ED000A00F018F8A4
:10051000DFED0A0A30EE200ABDEEC00A10EE104AE6
:1005200022460221044803F01BF9BDEC028B10BDEA
:10053000B400002000409CC50064004000409C4581
:10054000F0EE400A114890ED000A20EE200A104813
:1005500090ED001AB8EEC11A30EEC11A0D48D0ED78
:10056000001A01EE810A0C4890ED001ADFED0B1A1B
:1005700001EE210A0A4880ED000ABDEEE00A0448B7
:1005800080ED000A064890ED000A70473400002014
:10059000300000203C000020380000200000000057
:1005A0004000002010B52DED028BB0EE408A2E48A1
:1005B00090ED0E0AB0EE408A2C4890ED000ADFED77
:1005C0002C0AB4EEE00AF1EE10FA20DD90ED000AFC
:1005D000DFED280AB4EEE00AF1EE10FA17D2264851
:1005E00090ED000ADFED250AB4EEE00AF1EE10FA14
:1005F0000DDD90ED000ADFED220AB4EEE00AF1EE27
:1006000010FA04D2B0EE480A00F03CF829E017488E
:1006100090ED000ADFED160AB4EEE00AF1EE10FAF2
:100620001BD390ED000ADFED130AB4EEE00AF1EE01
:1006300010FA12DC104890ED000ADFED100AB4EE5B
:10064000E00AF1EE10FA08D390ED000ADFED0C0A93
:10065000B4EEE00AF1EE10FA03DDB0EE480A00F065
:1006600011F8BDEC028B10BD300200200800002004
:100670000000AFC40000AF440C0000200000614443
:1006800000C0734510B52DED068BB0EE408A38489A
:10069000006848B99FED370A38EE000A364880ED09
:1006A000000A012032490860F0EE480A324890ED15
:1006B000000A04F0DDFA314880ED000A3048006895
:1006C000401C2F4908600846006896280BDA2D4A1E
:1006D00001212D4803F044F841F2DB7202212A483F
:1006E00003F03EF841E02648006896283DDB2348A9
:1006F00090ED000AFFF724FFBDEEC00A10EE104A8D
:1007000022460121204803F02BF81C4890ED000AF6
:10071000FFF716FFBDEEC00A10EE104A2246022176
:10072000194803F01DF81548006805F0F7FC41EC86
:100730001A0BB0EE4A0AF0EE6A0A03F0E5FBB0EEDF
:10074000409AF0EE609A9FED110B53EC102B51EC98
:10075000190B05F0B1F908D20E4800680E4908607F
:1007600000200349086006490860BDEC068B10BDF7
:100770009C000020000034429400002098000020DB
:10078000A000002025E8FFFF0068004000000000F6
:1007900000001440180000201400002000BFFEE7F5
:1007A00010B51E4803781E4A1E491F4800F042FC3F
:1007B0001C480068302803D11949087804F086FEE7
:1007C0001A49194800F088F81849491C164800F0E1
:1007D00083F81649C91C144800F07EF814491248E1
:1007E00000F07AF81349104800F076F812490E48E4
:1007F00000F072F8104908310B4800F06DF80F490D
:10080000094800F069F80E49074800F065F80C49FE
:100810000831054800F060F810BD0000A901002073
:10082000A1010020AC010020006400400100F01094
:100830007000F030030000120800003203000014C2
:100840000800003410B51A4803781A4A1A491B48A0
:1008500000F0F0FB1A49194800F03EF81849491C0D
:10086000164800F039F81649C91C144800F034F84D
:100870001449124800F030F81349104800F02CF8E1
:1008800012490E4800F028F8104908310B4800F0D2
:1008900023F80F49094800F01FF80E49074800F0F7
:1008A0001BF80C490831054800F016F810BD00008F
:1008B000BC010020B4010020B0010020006800400D
:1008C0000100F0107000F030030000120800003248
:1008D000030000140800003400220C4B994202D19E
:1008E0000023836111E0C1F3130201F000730BB127
:1008F000C2600AE001F080630BB1026105E001F023
:1009000000630BB1826000E0426070477000F0301D
:100910002DE9F04F8BB006460F4614461D46DDF814
:1009200050804FF00009CA46CB46B5F5807F43D0D2
:1009300012DC102D34D008DC012D25D0022D26D05C
:10094000042D27D0082D4FD127E0202D2BD0402D6E
:100950002CD0802D48D12CE0B5F5805F38D009DC53
:10096000B5F5007F2BD0B5F5806F2BD0B5F5006FB6
:100970003AD12AE0B5F5005F2DD0B5F5804F2DD0E6
:10098000B5F5004F30D12CE04FF000092DE04FF0CD
:1009900001092AE04FF0020927E04FF0030924E0A3
:1009A0004FF0040921E04FF005091EE04FF0060961
:1009B0001BE04FF0070918E04FF0080915E04FF071
:1009C000090912E04FF00A090FE04FF00B090CE0A3
:1009D0004FF00C0909E04FF00D0906E04FF00E0949
:1009E00003E04FF00F0900E000BF00BFB8F5807FC3
:1009F0004BD01ADCB8F1100F3BD00CDCB8F1010F72
:100A00002BD0B8F1020F2BD0B8F1040F2BD0B8F1D6
:100A1000080F52D12AE0B8F1200F2DD0B8F1400FC5
:100A20002DD0B8F1800F48D12CE0B8F5805F38D0D8
:100A300009DCB8F5007F2BD0B8F5806F2BD0B8F566
:100A4000006F3AD12AE0B8F5005F2DD0B8F5804F9D
:100A50002DD0B8F5004F30D12CE04FF0000A2DE03A
:100A60004FF0010A2AE04FF0020A27E04FF0030A94
:100A700024E04FF0040A21E04FF0050A1EE04FF099
:100A8000060A1BE04FF0070A18E04FF0080A15E0CD
:100A90004FF0090A12E04FF00A0A0FE04FF00B0A7C
:100AA0000CE04FF00C0A09E04FF00D0A06E04FF0A1
:100AB0000E0A03E04FF00F0A00E000BF00BF7F48BE
:100AC000304418B1B0F5806F1AD10CE04FF0090B2B
:100AD00000208DF8120014208DF804000121480632
:100AE00001F080F80DE04FF0090B0E208DF8120098
:100AF00040208DF804000121000501F073F800E0AA
:100B000000BF00BFC4F3090078BBA012A0F580109D
:100B10008038092834D2DFE800F0050A0F14191EC6
:100B200023292E000121084601F04CF829E001217B
:100B3000022001F047F824E00121042001F042F8EE
:100B40001FE00121082001F03DF81AE001211020EA
:100B500001F038F815E00121202001F033F810E011
:100B60000121402001F02EF80BE009E00121802056
:100B700001F028F805E00121080201F023F800E067
:100B800000BF00BF5A464946204600F0F7FC5A46CF
:100B90005146204600F0F2FC45EA08000990022088
:100BA0008DF828008DF8290000208DF82A000120FA
:100BB0008DF82B0009A9204600F098FC304600F083
:100BC0007FF800208DF81E008DF81F008DF82000A2
:100BD0008DF821008DF822008DF823008DF81A0081
:100BE0008DF81B000B208DF81C0007208DF81D00D0
:100BF0007D2F22D008DC0A2F0FD0142F11D0322FD6
:100C000013D0642F29D114E0FA2F1AD0B7F5FA7F48
:100C10001BD0B7F57A7F20D11BE0C820ADF81800B3
:100C20001CE06420ADF8180018E02820ADF818008A
:100C300014E01420ADF8180010E01020ADF81800F2
:100C40000CE00820ADF8180008E00420ADF818000A
:100C500004E00220ADF8180000E000BF00BF06A9C4
:100C6000304600F0D6F800208DF8130001208DF8F2
:100C700014000020ADF80800ADF80A00ADF80C0033
:100C8000ADF80E00ADF8100001208DF8150002A897
:100C900000F032F800208DF8050003208DF80600E2
:100CA00001208DF8070001A800F068FE0122022152
:100CB000304600F0A5F80BB0BDE8F08F009CFFBFF8
:100CC00010B504460B48844209D10121480600F0C2
:100CD00099FF00214FF0007000F094FF08E001211F
:100CE000880600F08FFF00214FF0806000F08AFF3F
:100CF00010BD00000064004010B50021837A01227D
:100D000002FA03F13D4A126842F001023B4B1A60BD
:100D10003A4A1C3212688A43384B1C331A60027BF1
:100D2000CAB9364A0C3212688A43344B0C331A6003
:100D30004288C38842EA0343304A4032847A42F808
:100D400034300288838842EA03432C4A4032847A52
:100D500002EBC4025360027B012A19D1274A0C32EC
:100D600012680A43254B0C331A604288038842EA12
:100D70000343224A4032847A42F83430C28883885E
:100D800042EA03431D4A4032847A02EBC4025360B4
:100D9000C27A3AB9194A121D12688A43174B1B1DB1
:100DA0001A6006E0154A121D12680A43134B1B1DF8
:100DB0001A60028932B9114A143212688A430F4B01
:100DC00014331A600289012A06D10C4A14321268BF
:100DD0000A430A4B14331A60427B012A06D1074AA0
:100DE0001C3212680A43054B1C331A60034A12680E
:100DF00022F00102014B1A6010BD000000660040A5
:100E00001AB143690B43436102E043698B43436179
:100E1000704730B5024600200023146824F0020415
:100E20001460146844F00104146000E05B1C546812
:100E300004F001041CB94FF6FF74A342F6D15468C4
:100E400004F001040CB900206CE08C79012C04D171
:100E5000146844F08004146003E0146824F08004F3
:100E60001460CC79012C04D1146844F0400414605F
:100E700003E0146824F0400414600C7A012C04D1BF
:100E8000146844F02004146003E0146824F0200483
:100E900014604C7A012C04D1146844F010041460DE
:100EA00003E0146824F0100414608C7A012C04D13F
:100EB000146844F00804146003E0146824F0080483
:100EC0001460CC7A012C04D1146844F0040414603A
:100ED00003E0146824F0040414608C78A407CD782F
:100EE00044EA05640D7944EA05444D7944EA055421
:100EF0000D886D1E2C43D461146824F00104146025
:100F0000002300E05B1C546804F001041CB14FF6A0
:100F1000FF74A342F6D1546804F001040CB1002020
:100F200000E0012030BD0246002019B9D36803F06B
:100F3000030006E0012903D1136903F0030000E078
:100F40000020704710B500F5D87303EB01131B6840
:100F500003F004031372137A53B900F5D87303EB4B
:100F600001131B6840F2FF7404EA5353136009E055
:100F700000F5D87303EB01131B686FF0604404EABB
:100F8000D303536000F5D87303EB01131B6803F020
:100F90000203537200F5D87303EB01135B6803F08F
:100FA0000F03937200F5D87303EB01135B681B0A00
:100FB000D37400F5D87303EB01139B68D37200F56B
:100FC000D87303EB01139B681C0A147300F5D873E4
:100FD00003EB01139B681C0C547300F5D87303EBEF
:100FE00001139B681B0E937300F5D87303EB011379
:100FF000DB68D37300F5D87303EB0113DB681C0ABD
:10100000147400F5D87303EB0113DB681C0C5474E3
:1010100000F5D87303EB0113DB681B0E937421B941
:10102000C36843F02003C36003E0036943F0200377
:10103000036110BD2DE9F04186B080460D4616468D
:101040001F46002400214046FFF76DFF18B900201D
:1010500006B0BDE8F08101AA00214046FFF772FF0B
:10106000002405E00DF10F00005D3055601CC4B296
:10107000BC42F7DB019828600120E9E710B5024681
:101080000020936803F08063B3F1806F00D110E01B
:10109000936803F00063B3F1006F01D1012008E011
:1010A000936803F08053B3F1805F01D1022000E028
:1010B0000420042874D002F5C07303EB00131B68EE
:1010C00003F0010402F5C07303EB00131C600B7AFC
:1010D0007BB94B7A0C8843EA445302F5C07404EBA5
:1010E00000142468234302F5C07404EB0014236049
:1010F00010E00B7A4C6843EAC4034C7A234302F5B0
:10110000C07404EB00142468234302F5C07404EB9C
:10111000001423608B7A03F00F038B7202F5C07307
:1011200003EB00135B6823F00F0402F5C07303EBBD
:1011300000135C6002F5C07303EB00135B688C7AEC
:10114000234302F5C07404EB001463608B7B1C0620
:101150004B7B44EA03440B7B44EA0323CC7A2343CE
:1011600002F5C07404EB0014A3608B7C1C064B7C5E
:1011700044EA03440B7C44EA0323CC7B234302F57B
:10118000C07404EB0014E36002F5C07303EB0013BA
:101190001B6843F0010402F5C07303EB00131C60ED
:1011A00010BD000010B50246002321B1012907D06F
:1011B00002290FD109E090681D4C00EA04030BE0FE
:1011C00090681C4C00EA040306E090681A4C00EAA0
:1011D000040301E0002300BF00BF184C181BA3420A
:1011E00016D007DC83B16FF08060184470B102281C
:1011F00018D111E0B0F5007F10D0114C204448B157
:10120000B0F5003F0ED10BE002230DE000230BE010
:10121000002309E0002307E0012305E0012303E0A8
:10122000012301E0002300BF00BFD8B210BD0000C1
:101230000300000400030008000003100001000880
:101240000001FFF72DE9F04385B081460D46904639
:101250001E4600240095019500208DF808008DF8A9
:1012600009008DF80A6000BF06E018F804100DF1BF
:101270000B000155601C84B2B442F6DB6946484657
:10128000FFF7FCFE0746002400BF39464846FFF73B
:1012900089FF0128F9D105B0BDE8F08310B588B009
:1012A00004460121082000F08DFC0121480400F0D3
:1012B00099FC07220521244800F060F90722062145
:1012C000214800F05BF96020069002208DF81C0098
:1012D0008DF81D0000208DF81E0001208DF81F00E4
:1012E00006A9194800F002F902940020ADF80C009C
:1012F000ADF80E00ADF81000ADF814000C20ADF8FC
:10130000120002A9114802F0D7F840210F4801F05D
:10131000F9FF26208DF8040000208DF8050002203A
:101320008DF8060001208DF8070001A800F026FBCB
:10133000012240F22551054802F099F801210348A5
:1013400001F0F8FF08B010BD000C0240004400405E
:1013500010B52DED048B394800683949086003F059
:1013600099FF3848D0ED0F0A30EEC00A364880EDBC
:10137000000A03F095FF3348D0ED100A30EEC00AA2
:10138000324880ED000A3048006804F0C7FE41ECA6
:10139000190BB0EE490AF0EE690A02F0B5FDB0EEA5
:1013A000408AF0EE608A9FED2A0B53EC102B51EC33
:1013B000180B04F081FB26D22448006804F0AEFE2E
:1013C00041EC190BB0EE490AF0EE690A02F09CFDFF
:1013D000B0EE408AF0EE608A9FED1D0B53EC102BAF
:1013E00051EC180B04F068FB0DD21B4890ED000A7D
:1013F000B5EEC00AF1EE10FA05D018480068401C9E
:101400001649086002E0002014490860134800688B
:1014100050280FDD03F03EFF114880ED000A03F075
:101420003FFF104880ED000A0720044908600020B3
:101430000A490860BDEC048B10BD000014000020B8
:101440001800002030020020A8000020AC0000207E
:10145000000000000000F03F10000020A400002069
:10146000080000200C00002010B52DED028BB0EE1E
:10147000408AB0EE480A00F00FF8BDEEC00A10EE48
:10148000104A22460821034802F06AF9BDEC028B9B
:1014900010BD000000640040F0EE400A9FED020A1B
:1014A00020EE800A7047000000008045704700B5BC
:1014B000034604E04FF47A7000F004F85B1E002B42
:1014C000F8D100BDA82141434FF0E0225161052130
:1014D000116100BF4FF0E021096901F4803100295A
:1014E000F8D004214FF0E02211617047F0B50A46B0
:1014F00000210023002400BF3DE0012505FA01F38F
:10150000156805EA03049C4234D105684F000326A0
:10151000BE40B543056015794E00B54006683543B9
:1015200005601579012D02D01579022D16D1856837
:101530004F000326BE40B543856055794E00B54047
:10154000866835438560456801268E40B543456011
:10155000456896798E40B6B235434560C5684F0000
:101560000326BE40B543C560D5794E00B540C66878
:101570003543C560491C1029BFD3F0BDF0B5002329
:1015800000244D07ED0E02FA05F3CE1000F1200500
:1015900055F826504E07F70E0F26BE40B543CF1024
:1015A00000F1200646F82750CE1000F1200555F82E
:1015B000265045EA0304CE1000F1200545F82640E8
:1015C000F0BD0246002013690B400BB1012000E082
:1015D0000020704700BFFEE710B52DED108B8CB0DA
:1015E000F0EE408AB0EE608AB0EE41FA044603F0B5
:1015F00043FD0446642C0AD19FEDC10AC14880ED29
:10160000000A9FEDC10AC14880ED000A0BE0012CE1
:1016100009D19FEDBF0ABB4880ED000A9FEDBA0AD1
:10162000BA4880ED000AB74890ED000A38EEC00ACB
:1016300020EE000AB548D0ED000A78EE600A90ED81
:10164000001A38EE411A00EE810A10EE101A084610
:1016500004F064FD41EC190BB0EE490AF0EE690AA2
:1016600002F0C2FCB0EE40AAF0EE60AA51EC1A0BF8
:1016700003F08AFFA74908609FEDA70B02F0E0FB8B
:101680008DED080B9FEDA40B02F0DAFB8DED040B42
:10169000A34890ED000AF0EE000A20EE200A10EEBA
:1016A000101A084604F03AFD9FED9B0BCDE90001AE
:1016B00002F0DAFCB0EE40DAF0EE60DA954890ED38
:1016C000000AF0EE000A20EE200A10EE101A08467A
:1016D00004F024FD41EC1E0B53EC1D2B04F028FA02
:1016E00041EC1C0B9DED000B53EC102B04F02CFC7B
:1016F000CDE902019DED040B53EC102B9DED020B87
:1017000051EC100B04F014FACDE906019DED080B25
:1017100053EC102B9DED060B51EC100B04F008FA66
:1017200041EC1A0B7B4890ED000A20EE000A7D4840
:10173000D0ED000A20EE200ADFED7B0A20EE200A21
:1017400010EE101A084604F0E9FC41EC1B0B53ECB8
:101750001A2B03F0FFFFCDE90A019DED0A0B02F001
:1017600043FCB0EE409AF0EE609A51EC190B03F096
:101770000BFF6E4908600846006804F0CFFC41EC9E
:101780001B0B9FED6B0B53EC102B04F0D1F941ECCC
:101790001A0B9FED690B53EC102B04F0D5FB41ECB9
:1017A000190B03F0F1FE66490860564890ED000AF7
:1017B00030EE680A634880ED000A544890ED000A54
:1017C00030EE480A604880ED000A5E48006804F088
:1017D000A5FC41EC1C0B5C48006804F09FFC41EC4C
:1017E0001D0BB0EE4C1AF0EE6C1AB0EE4D0AF0EE96
:1017F0006D0A02F02DFAB0EE40BAF0EE60BA9FED3D
:10180000530B53EC102B51EC1B0B03F0A3FF41ECDB
:101810001A0B9FED500B53EC102B04F089F941EC9F
:10182000190B03F0B1FE46494860084690ED010AE5
:10183000DFED4A0AB4EEE00AF1EE10FA11D890EDAD
:10184000010ADFED470AB4EEE00AF1EE10FA08DB18
:1018500090ED010ADFED430A30EE600A80ED010AE7
:101860001AE0374890ED010ADFED3D0AB4EEE00AD8
:10187000F1EE10FA10D290ED010ADFED3B0AB4EE62
:10188000E00AF1EE10FA07DB90ED010ADFED370A0E
:1018900030EE200A80ED010A294890ED010A3FEE62
:1018A000400A80ED010A90ED010ADFED2C0AB4EE4A
:1018B000E00AF1EE10FA08DD90ED010ADFED2C0AE6
:1018C00030EE600A80ED010A11E01D4890ED010A3A
:1018D000DFED250AB4EEE00AF1EE10FA07D290ED42
:1018E000010ADFED230A30EE200A80ED010A1448D8
:1018F00090ED000AD0ED010A0CB0BDEC108B10BDCC
:10190000000016C3400100200000164544010020DD
:101910000000164334010020000000C0D87BEC3FDB
:10192000380100204801002000007A443C010020DA
:10193000757632384A5E8D3FF2D24D6210581840AB
:101940002C0100204C01002050010020000000600C
:10195000FB21094000000000008066400000344385
:101960000000B4C20000B442000034C3000087434A
:101970000000B44300BFFEE700BFFEE770B50021E2
:1019800000230F22C4781CB3174C246804F4E064CD
:10199000C4F5E064C4F30721C1F10404E3B20A41D1
:1019A00044789C40E1B28478144021430C07210E16
:1019B0000E4C05786155047804F01F050124AC40F5
:1019C00005786D11AD0005F1E025C5F8004109E08D
:1019D000047804F01F050124AC40054D067876110B
:1019E00045F8264070BD00000CED00E000E400E08A
:1019F00080E100E002490143024A116070470000A3
:101A00000000FA050CED00E02DE9F04389B08146B5
:101A10000D46174698460024304B0FCB05AE0FC637
:101A200005F540700090019000208DF808008DF8B9
:101A3000090008208DF80A001FB944F250100590E3
:101A400002E045F250200590CDF8188000243FE0D8
:101A500005A810F834008DF80B0005A830F8340004
:101A6000010A8DF80C1005A850F83400010C8DF80F
:101A70000D1005A850F83400000E8DF80E0005A8D2
:101A800000EBC40001798DF80F1005A800EBC4002D
:101A90008088010A8DF8101005A800EBC40040688A
:101AA000010C8DF8111005A800EBC4004068000E71
:101AB0008DF8120069464846FFF7E0FA064600BF77
:101AC00031464846FFF76EFB0128F9D1601CC4B2CD
:101AD000022CBDDB09B0BDE8F0830000F462000811
:101AE00010B588B004460121082000F06BF80121F0
:101AF000880400F077F8072208212548FFF73EFD0B
:101B0000072209212248FFF739FD4FF44070069063
:101B100002208DF81C008DF81D0000208DF81E009D
:101B200001208DF81F0006A91948FFF7DFFC4FF4CC
:101B3000E13002900020ADF80C00ADF80E00ADF8D9
:101B40001000ADF814000C20ADF8120002A91148E5
:101B500001F0B2FC01210F4801F0ECFB40210D48DF
:101B600001F0D0FB012240F225510A4801F07FFC30
:101B700027208DF8040000208DF8050001208DF845
:101B800006008DF8070001A8FFF7F8FE08B010BDA9
:101B9000000C02400048004010B54FF47A63002268
:101BA00006210248FFF730FF10BD0000006400402E
:101BB00010B50523002206210148FFF725FF10BDBF
:101BC0000064004029B1064A12680243044B1A60BF
:101BD00004E0034A12688243014B1A607047000018
:101BE0003038024029B1064A12680243044B1A6099
:101BF00004E0034A12688243014B1A6070470000F8
:101C00004038024029B1064A12680243044B1A6068
:101C100004E0034A12688243014B1A6070470000D7
:101C20002038024029B1064A12680243044B1A6068
:101C300004E0034A12688243014B1A6070470000B7
:101C40004438024029B1064A12680243044B1A6024
:101C500004E0034A12688243014B1A607047000097
:101C600024380240F0B5002100220024022500267D
:101C70000223324F3F6807F00C0121B1042905D03F
:101C8000082937D105E02E4F076036E02D4F076059
:101C900033E02A4F3F1F3F68C7F38056274F3F1F4F
:101CA0003F6807F03F036EB1264FB7FBF3F7DFF84D
:101CB0008CC0ACF1040CDCF800C0CCF3881C07FB32
:101CC0000CF40CE01E4FB7FBF3F7DFF870C0ACF17B
:101CD000040CDCF800C0CCF3881C07FB0CF4174F95
:101CE0003F1F3F68C7F301477F1C7D00B4FBF5F73A
:101CF000076002E0124F076000BF00BF0F4F3F6850
:101D000007F0F0010909104F7A5C0768D740476077
:101D10000A4F3F6807F4E051890A0B4F7A5C476825
:101D2000D7408760054F3F6807F46041490B064F75
:101D30007A5C4768D740C760F0BD000008380240B1
:101D40000024F40000127A002002002070470000F6
:101D50000CB50020019000903448006840F48030B9
:101D60003249086000BF3148006800F4003000903C
:101D70000198401C0190009818B90198B0F5A06F27
:101D8000F1D12A48006800F4003010B10120009021
:101D900001E0002000900098012846D123484030FF
:101DA000006840F0805021494031086020480068B8
:101DB00040F480401E4908601C48083000681B49F8
:101DC000083108600846006840F400400860084692
:101DD000006840F4A05008601648091F0860081FFA
:101DE000006840F08070091F086000BF0F4800685D
:101DF00000F000700028F9D040F205600E4908603C
:101E00000A480830006820F00300084908310860DB
:101E10000846006840F00200086000BF0348083030
:101E2000006800F00C000828F8D10CBD0038024012
:101E30000070004008544007003C024000B52DED02
:101E4000028B81B0B0EE408AB0EE480A03F062FB2C
:101E5000009041210F4801F021FC9DF800100D4831
:101E600001F01CFC9DF801100A4801F017FC9DF8D8
:101E70000210084801F012FC9DF80310054801F01B
:101E80000DFC4A21034801F009FC01B0BDEC028BB6
:101E900000BD00000010014010B588B004460121CB
:101EA0000846FFF78FFE01211020FFF7BBFE072237
:101EB00009212548FFF762FB07220A212248FFF784
:101EC0005DFB4FF4C060069002208DF81C008DF879
:101ED0001D0000208DF81E0001208DF81F0006A9AE
:101EE0001948FFF703FB02940020ADF80C00ADF891
:101EF0000E00ADF81000ADF814000C20ADF8120083
:101F000002A9124801F0D8FA4021104801F0FAF96C
:101F100025208DF8040000208DF8050002208DF8A2
:101F2000060001208DF8070001A8FFF727FD012218
:101F300040F22551054801F09AFA0121034801F0C9
:101F4000F9F908B010BD0000000002400010014087
:101F500010B52DED068BFE4890ED0F0AFD4880ED83
:101F6000000AFB4890ED100AFB4880ED000AF84893
:101F700090ED0E0AF94880ED000AF948006801F07A
:101F8000A5FB00EE100AB8EEC00AF64880ED000A84
:101F9000F548006809287DD2DFE800F005FDFCFB6C
:101FA0007CFA7CF9F800EE48006800EB4001C1EBD8
:101FB000C0104FF4167101EB800000EE100AB8EE6D
:101FC000C00AE448D0ED000A30EEC00AE74880EDD0
:101FD000000A9FEDE70AE74880ED000ADF48D0EDF0
:101FE000000AE44890ED000A02F042FEE24880ED6B
:101FF000000ADB480068AF21484340F6485101EB36
:10200000400000EE100AB8EEC00AD348D0ED000A36
:1020100030EE600AD94880ED000AD14800680128F6
:102020007DDACF48006803F087FA044603F019FD13
:1020300041EC180BD148006804F070F841EC1A0B21
:10204000B0EE4A0AF0EE6A0A01F05EFFB0EE409A86
:10205000F0EE609A53EC182B51EC190B03F066FE6E
:102060003CD2C24890ED000A03F0F8F9C248D0ED26
:10207000000A30EE200AB0EE402AFEF761FAB948B5
:10208000D0ED000A30EE200ABDEEC00A10EE104A74
:10209000224600E0E0E30121B94801F061FBB348CA
:1020A00090ED000A03F0DAF9B348D0ED000A30EE03
:1020B000200AB0EE402AFEF743FAAA48D0ED000A03
:1020C000F1EE600A30EE200ABDEEC00A10EE104AB2
:1020D00022460221AA4801F043FBB9E0A04800686B
:1020E00003F02AFA044603F0BCFC41EC180BA348A9
:1020F000006804F013F841EC1A0BB0EE4A0AF0EE57
:102100006A0A01F001FFB0EE409AF0EE609A53ECDB
:10211000182B51EC190B03F0CFFC09D200E008E0BA
:102120009FED930A954880ED000A01208E490860D2
:102130008EE08B48006801287EDB8948006803F048
:10214000FBF9044603F08DFC41EC180B8B4800684A
:1021500003F0E4FF41EC1A0BB0EE4A0AF0EE6A0A13
:1021600001F0D2FEB0EE409AF0EE609A53EC182BDC
:1021700051EC190B03F0DAFD40D27C4890ED000AD7
:1021800002F0B6FD7C48D0ED000A05E061E35AE3B9
:1021900051E34AE272E177E030EE200AB0EE402AE5
:1021A000FEF7CEF96F48D0ED000A30EE200ABDEE02
:1021B000C00A10EE104A22460121714801F0D0FAFF
:1021C0006A4890ED000A02F093FD6B48D0ED000ADA
:1021D00030EE200AB0EE402AFEF7B2F96148D0EDA9
:1021E000000AF1EE600A30EE200ABDEEC00A10EEE1
:1021F000104A22460221624801F0B2FA58480068AB
:1022000003F09AF9044603F02CFC41EC180B5B48F0
:10221000006803F083FF41EC1A0BB0EE4A0AF0EEBF
:102220006A0A01F071FEB0EE409AF0EE609A53EC4B
:10223000182B51EC190B00E00AE003F03DFC07D22B
:102240009FED4B0A4D4880ED000A01204649086089
:10225000FFF77EF8454890ED000A02F049FD464838
:10226000D0ED000A30EE200AB0EE402AFEF768F901
:10227000444880ED000A3D4890ED000A02F038FD28
:10228000414880ED000AE8E235480068AF21484344
:1022900040F6485101EB400000EE100AB8EEC00ACB
:1022A0002D48D0ED000A30EEC00A304880ED000A1B
:1022B0009FED360A2F4880ED000A2848D0ED000A2D
:1022C0002C4890ED000A02F0D3FC2B4880ED000A68
:1022D0002348006800EB4001C1EBC0104FF41671B9
:1022E00001EB8000404200EE100AB8EEC00A194827
:1022F000D0ED000A30EE600A204880ED000A184850
:10230000006803F019F9044603F0ABFB41EC180B2D
:102310001A48006803F002FF41EC1A0BB0EE4A0ABB
:10232000F0EE6A0A01F0F0FDB0EE409AF0EE609A2D
:1023300053EC182B51EC190B03F0F8FC5AD20B4854
:1023400090ED000A02F0D4FC0B48D0ED000A1FE02B
:1023500030020020F0000020F4000020F8000020EF
:1023600018010020100000201400002008010020A7
:1023700000000000FC0000200001002004010020FB
:10238000006800400C010020100100200000B44251
:1023900030EE200AB0EE402AFEF7D2F8FE48D0ED2B
:1023A000000A30EE200ABDEEC00A10EE104A2246A6
:1023B0000121FA4801F0D4F9F94890ED000A02F041
:1023C00097FCF848D0ED000A30EE200AB0EE402A23
:1023D000FEF7B6F8F048D0ED000AF1EE600A30EEF4
:1023E000200ABDEEC00A10EE104A22460221EB4838
:1023F00001F0B6F9EC48006803F09EF8044603F0DB
:1024000030FB41EC180BE948006803F087FE41EC13
:102410001A0BB0EE4A0AF0EE6A0A01F075FDB0EE52
:10242000409AF0EE609A53EC182B51EC190B03F024
:1024300043FB07D21FED320ADC4880ED000A022080
:10244000DB490860FEF784FFD54890ED000A02F0F2
:102450004FFCD448D0ED000A30EE200AB0EE402AFE
:10246000FEF76EF8D34880ED000ACD4890ED000AE3
:1024700002F03EFCD04880ED000AEEE1CA48006858
:1024800000EB4001C1EBC0104FF4167101EB80006E
:1024900000EE100AB8EEC00AC848D0ED000A30EECF
:1024A000200ABF4880ED000A9FEDC50AC54880EDAF
:1024B000000AC548D0ED000AC24890ED000A02F0BB
:1024C000D7FBB84880ED000AB7480068AF21484301
:1024D000C900A1EB400000EE100AB8EEC00ABB48EC
:1024E000D0ED000A30EEC00AB04880ED000AAE48D8
:1024F000006803F021F8044603F0B3FA41EC180B2E
:10250000AA48006803F00AFE41EC1A0BB0EE4A0A32
:10251000F0EE6A0A01F0F8FCB0EE409AF0EE609A34
:1025200053EC182B51EC190B03F000FC39D29C48EA
:1025300090ED000A02F0DCFB9A48D0ED000A30EE84
:10254000C00AB0EE402AFDF7FBFF9348D0ED000A29
:1025500030EE200ABDEEC00A10EE104A22460121DC
:102560008E4801F0FDF88E4890ED000A02F0C0FBA5
:102570008C48D0ED000A30EEC00AB0EE402AFDF7DC
:10258000DFFF8548D0ED000AF1EE600A30EE200A48
:10259000BDEEC00A10EE104A224602217F4801F02B
:1025A000DFF88148006802F0C7FF044603F059FADB
:1025B00041EC180B7D48006803F0B0FD41EC1A0BAC
:1025C000B0EE4A0AF0EE6A0A01F09EFCB0EE409AC4
:1025D000F0EE609A53EC182B51EC190B03F06CFAE7
:1025E00007D21FED9D0A714880ED000A0320704953
:1025F0000860FEF7ADFE6A4890ED000A02F078FB35
:102600006848D0ED000A30EEC00AB0EE402AFDF76F
:1026100097FF684880ED000A614890ED000A02F0DB
:1026200067FB654880ED000A17E15F480068AF214D
:102630004843C900A1EB400000EE100AB8EEC00A02
:102640006248D0ED000A30EEC00A554880ED000A1D
:102650009FED5F0A5B4880ED000A5B48D0ED000A01
:10266000584890ED000A02F003FB4E4880ED000A46
:102670004D48006800EB4001C1EBC0104FF41671EB
:1026800001EB800000EE100AB8EEC00A4B48D0ED16
:10269000000A30EE600A454880ED000A42480068B2
:1026A00002F04AFF044603F0DCF941EC180B3F4806
:1026B000006803F033FD41EC1A0BB0EE4A0AF0EE6D
:1026C0006A0A01F021FCB0EE409AF0EE609A53ECF9
:1026D000182B51EC190B03F029FB39D2304890ED3F
:1026E000000A02F005FB2F48D0ED000A30EEC00AC8
:1026F000B0EE402AFDF724FF2748D0ED000A30EE67
:10270000200ABDEEC00A10EE104A224601212348DD
:1027100001F026F8224890ED000A02F0E9FA21487B
:10272000D0ED000A30EEC00AB0EE402AFDF708FFF7
:102730001948D0ED000AF1EE600A30EE200ABDEE35
:10274000C00A10EE104A22460221144801F008F88F
:102750001548006802F0F0FE044603F082F941ECEF
:10276000180B1248006803F0D9FC41EC1A0BB0EECC
:102770004A0AF0EE6A0A01F0C7FBB0EE409AF0EEAA
:10278000609A53EC182B51EC190B03F095F936D2E3
:102790009FED100A05481FE010000020006800406F
:1027A0000801002000010020180100200401002081
:1027B000140000200C01002010010020F000002077
:1027C00000003443FC000020F8000020F40000204A
:1027D0000000B4C20000000080ED000A0020614942
:1027E000086061480068401C5F490860084600684E
:1027F000042804D10020086005205A490860FEF72B
:10280000A7FD5A4890ED000A02F072FA5848D0ED40
:10281000000A30EEC00AB0EE402AFDF791FE55489E
:1028200080ED000A514890ED000A02F061FA52482A
:1028300080ED000A11E05148D0ED000A1FED1B0A9F
:10284000FDF740FE09E04D4890ED000AFDF7AAFEB5
:1028500003E002F0DFFA00E000BF00BF484890ED5F
:102860000F0ABDEEC00A10EE102A46A1464800F03D
:102870008DFE434890ED100ABDEEC00A10EE102AFE
:1028800040A1414800F082FE3C4890ED000ABDEEB8
:10289000C00A10EE102A3BA13B4800F077FE3448F6
:1028A00090ED000ABDEEC00A10EE102A35A13648A0
:1028B00000F06CFE354890ED000ABDEEC00A10EE47
:1028C000102A30A1304800F061FE284890ED000A3F
:1028D000BDEEC00A10EE102A2AA12B4800F056FEC9
:1028E000254890ED000ABDEEC00A10EE102A25A181
:1028F000254800F04BFE1F4890ED000ABDEEC00ACF
:1029000010EE102A1FA1204800F040FE15481DA11E
:1029100002681D4800F03AFE13481AA102681A48DE
:1029200000F034FE1A4890ED000ABDEEC00A10EE29
:10293000102A14A1144800F029FE164890ED000A50
:10294000BDEEC00A10EE102A0EA10F4800F01EFEC8
:10295000114812A102680C4800F018FEBDEC068B6D
:1029600010BD000014000020180100200801002004
:10297000000100200C01002010010020F8000020C0
:10298000300200202564090000500040140100209E
:10299000080000200C0000201800002025640D0A0B
:1029A0000000000010B51548006840F4700013499D
:1029B00008601348006840F00100114908600020D9
:1029C0000F49083108600E4800680E4908400C495C
:1029D00008600D48091D0860081F006820F4802069
:1029E000091F0860002006490C310860FFF7B0F9A4
:1029F0004FF0006001498039086010BD88ED00E0AB
:102A000000380240FFFFF6FE1030002410B501210F
:102A1000044800F0B8F8012803D10121014800F072
:102A2000A3F810BD0000014010B50121880700F097
:102A3000AAF8012820D10121800700F095F80F485D
:102A40000088401C0D4908800846008800EE100AE6
:102A5000B8EE400AF2EE040AB4EEE00AF1EE10FA23
:102A60000ADB07480078401C05490870002003492C
:102A7000088001200349087010BD0000DC0100201F
:102A8000DF010020DE01002010B501211C4800F00C
:102A90007AF8012833D10121194800F065F8194866
:102AA0000068401C1749086017480068401C164918
:102AB0000860084600684FF6FF7190FBF1F201FBD9
:102AC0001200114908600F49086800EBD0714910E5
:102AD000A0EB410199B102F0E5FA0C4880ED000A43
:102AE00002F05CFB0A4880ED000A084890ED000AFD
:102AF00002F004FD064890ED000A02F005FD10BD4D
:102B000000040040EC010020E0010020E40100206E
:102B1000E801002010B50121044800F034F8012834
:102B200003D10121014800F01FF810BD000800404A
:102B300010B50121044800F026F8012803D1012135
:102B4000014800F011F810BD000C004010B5012143
:102B5000044800F018F8012803D10121014800F0D1
:102B600003F810BD00040140CA430282704721B13E
:102B7000028842F00102028004E002884FF6FE73F0
:102B80001A400280704730B502460020002300241E
:102B9000158A05EA0103958905EA010413B10CB110
:102BA000012000E0002030BD1AB183890B438381EE
:102BB00002E083898B438381704700002DE9FF4148
:102BC00004460D4616461F46DDF828806949601AFE
:102BD0008C4270D01ADC6849A4EB01008C426CD0A6
:102BE0000ADCB4F1804F4ED064482044002852D013
:102BF000B0F5806F71D156E0B0F5806F65D0B0F55B
:102C0000006F6CD0B0F5406FF4D170E0B0F5923F3A
:102C100021D009DCB0F5806F7AD0B0F5644F0AD0CE
:102C2000B0F5684F7CD10EE0B0F5943F1BD0B0F505
:102C3000963F75D11FE001210846FEF7F3FF1920EA
:102C40008DF800006DE001210220FEF7EBFF2C2043
:102C50008DF8000065E001210804FEF7E3FF18206D
:102C60008DF800005DE001211920FEF7DBFF2C202C
:102C70008DF8000055E001218804FEF7D3FF1A20EB
:102C80008DF800004DE001210846FEF7ABFF1C2047
:102C90008DF8000045E001210220FEF7A3FF1D2072
:102CA0008DF800003DE001210420FEF79BFF1E206F
:102CB0008DF8000035E023E0FFE701210820FEF752
:102CC00091FF32208DF800002BE001211020FEF74B
:102CD00089FF36208DF8000023E021E0FFE7012185
:102CE0002020FEF77FFF37208DF8000019E001213A
:102CF0004020FEF777FF2B208DF8000011E007E061
:102D000001218020FEF76EFF2C208DF8000008E0E6
:102D100001210802FEF766FF2D208DF8000000E07B
:102D200000BF00BF0295ADF804600020ADF80C00B4
:102D3000ADF8060001A9204600F022F80121204646
:102D4000FFF712FF012211462046FFF72DFFF8B2D0
:102D50008DF8010008F0FF008DF8020001208DF8C9
:102D600003006846FEF70AFE01212046FFF7FFFE3A
:102D7000BDE8FF81001C0040000C004000FCFFBFCC
:102D800000220288184B98420ED0184B98420BD064
:102D9000B0F1804F08D0164B984205D0154B9842A1
:102DA00002D0154B984204D14FF68F731A404B88CE
:102DB0001A43124B984207D0114B984204D04FF659
:102DC000FF431A400B891A4302804B68C3620B8889
:102DD0000385054B984202D0044B984201D18B7A6F
:102DE00003860123838270470000014000040140F4
:102DF0000004004000080040000C004000100040AB
:102E00000014004010B588B0044601940020ADF8CD
:102E10000800ADF80A00ADF80C00ADF810000C2069
:102E2000ADF80E000121FEF7CDFE01210805FEF7E9
:102E3000D9FE244800F08AFA08220C212248FEF725
:102E40009DFB082202212148FEF798FB00208DF807
:102E50001A0001208DF81B0002208DF81800C00216
:102E6000059002208DF8190005A91748FEF73EFBD2
:102E700002208DF818000420059005A91348FEF7DC
:102E800035FB01A90F4800F017FB35208DF81C0019
:102E900001208DF81F008DF81D008DF81E004FF4E5
:102EA000A060FEF7A7FD07A8FEF768FD012240F22B
:102EB0002551044800F0DBFA0121024800F03AFAFB
:102EC00008B010BD0050004000080240000C024055
:102ED0001CB501210846FEF775FE01200090002078
:102EE0008DF8040003208DF8050001208DF80700FF
:102EF00069460B48FEF7FAFA01210420FEF762FE4C
:102F00000120009000208DF8040003208DF80500BA
:102F100001208DF8070069460248FEF7E7FA1CBD5C
:102F2000000002400008024010B5002408210D48AE
:102F300000F066FA20B10B4800F0ABFBC4B20FE022
:102F400040F22551074800F068FA012808D140F204
:102F50002551044800F0DFF9024800F09AFBC4B2A2
:102F600010BD00000050004038B50024082128485A
:102F700000F046FA002834D0254800F08AFBC4B29D
:102F8000562C06D100202349086023490098086088
:102F900007E0522C05D100201E49086001201F497E
:102FA00008601C48006810B1012818D105E0412CC8
:102FB00002D101201749086012E0194909680DF88B
:102FC000014017480068401C154908600846006821
:102FD000042803DD002008600E49086000E000BFFF
:102FE0000FE040F225510A4800F017FA012808D1F5
:102FF00040F22551064800F08EF9054800F049FBE3
:10300000C4B208A10948009A00F0C0FA38BD000017
:1030100000100140C0010020980100209401002010
:10302000C401002025640D0A00000000005000408B
:1030300010B540F225512E4800F0EFF9012855D186
:1030400040F225512A4800F066F9294800F021FB9A
:103050002849087008460078D5280FD10020264955
:103060000860264908602648006826490860084626
:10307000006802F031FA0020214908601E4800680B
:1030800020B101280CD002282ED117E01948007871
:10309000D62804D118480068401C1749086024E06D
:1030A0001448007841B21848144A126800F8121007
:1030B00011480068401C1049086016E00D4801786E
:1030C00011480E4A126800EB4200417001200A4983
:1030D00008600A480068401C084908600848006801
:1030E000401C0749086000E000BF00BF10BD0000A1
:1030F00000440040A0010020D0010020D4010020A5
:103100009C010020CC0100205402002010B540F2A8
:103110002551734800F081F901287CD140F22551F6
:103120006F4800F0F8F86E4800F0B3FA6D49087087
:103130006D48007805286FD2DFE800F00311263DC6
:103140004B00684800780D2805D167480078401C7E
:103150006549087002E000206349087085E0614815
:1031600000780A2808D10020604908705E4800787D
:10317000401C5D49087006E05A4800780D2802D0CE
:1031800000205949087070E0564800785849574A5D
:103190001278885455480078401C544908700846F5
:1031A0000078182806DB002008704F480078401C83
:1031B0004D49087059E04B4800780A2805D14A4823
:1031C0000078401C4849087002E000204649087019
:1031D0004BE0444800780D2830D1454890ED000A76
:1031E000444880ED000A424890ED010A80ED010A52
:1031F00090ED020A80ED020A90ED030A3E4880ED50
:10320000000A3B4890ED040A3C4880ED000A38482B
:1032100090ED050A01E029E023E080ED050A36483B
:1032200090ED000A02F05EF9344890ED000A02F0D9
:103230005FF9304890ED000A02F042F900202A4977
:10324000087001F02FFF2E4880ED0F0A01F0A6FF55
:103250002B4880ED100A01F0C3FE294880ED0E0ACC
:1032600003E000202049087000BF37E028211C48F7
:1032700000F051F840F22771194800F04CF840F284
:103280002661174800F047F840F22531144800F055
:1032900042F840F22441124800F03DF840F6460161
:1032A0000F4800F038F840F66A110D4800F033F886
:1032B00060210B4800F02FF84FF45871084800F0D7
:1032C0002AF84FF41871064800F025F84FF4B07151
:1032D000034800F020F8024800F0DBF910BD0000C0
:1032E00000480040C8010020C9010020CA01002098
:1032F00074020020880100208C0100209001002031
:103300003002002001F40072B2F5007F00D100BF4E
:10331000CA430280704710B50022002340F66A14A9
:10332000A14200D100BF0A1201249440A3B2DC43A1
:10333000048010BD21B1828942F40052828104E0F0
:1033400082894DF6FF731A408281704710B504469A
:103350002548844208D101211020FEF773FC00218A
:103360001020FEF76FFC3EE02048844209D1012185
:103370004804FEF747FC00214FF40030FEF742FC02
:1033800031E01B48844209D101218804FEF73AFC50
:1033900000214FF48020FEF735FC24E015488442DC
:1033A00009D10121C804FEF72DFC00214FF40020B3
:1033B000FEF728FC17E01048844209D101210805D6
:1033C000FEF720FC00214FF48010FEF71BFC0AE002
:1033D0000A48844207D101212020FEF733FC002156
:1033E0002020FEF72FFC10BD0010014000440040DB
:1033F00000480040004C00400050004000140140D4
:1034000002460020B1F5007F00D100BF13880B40B9
:103410000BB1012000E00020704770B50246002487
:1034200000230025002040F66A16B14200D100BFFB
:10343000C1F3421501F01F03012606FA03F3012D23
:1034400002D19689334006E0022D02D1168A33401C
:1034500001E0968A33400C12012606FA04F416881D
:10346000344013B10CB1012000E0002070BDF0B574
:103470000346002400260025002040F66A17B942C2
:1034800000D100BF1846C1F3421401F01F06012706
:1034900007FA06F5012C01D10C3004E0022C01D111
:1034A000103000E014301AB107682F43076002E0C3
:1034B0000768AF430760F0BD2DE9FF4705460E469C
:1034C0000024A14600BFA046B08900B100BF2C8AED
:1034D00024F44054F08804432C82AC8941F20C60FF
:1034E0008443B08831890843718908430443AC811F
:1034F000AC8A24F44074B0890443AC826846FEF779
:10350000B1FB2048854202D01F48854202D1DDF838
:103510000C9001E0DDF80890A88900F4004040B16B
:1035200009EBC90000EB091031684900B0FBF1F765
:1035300007E009EBC90000EB091031688900B0FB16
:10354000F1F76420B7FBF0F004012009642101FBCE
:103550001078A88900F4004040B1322000EBC80088
:10356000B0FBF1F000F00700044308E0322000EB6C
:1035700008106421B0FBF1F000F00F0004432C812F
:10358000BDE8FF8700100140001401400FB470B582
:1035900086B006460CA8019073E00B9800785C2872
:1035A0001CD10B98401C0B9000786E2809D0722813
:1035B0000FD10D21304600F071F80B98401C0B9094
:1035C0000BE00A21304600F069F80B98401C0B9084
:1035D00003E00B98401C0B9000BF4BE00B98007869
:1035E000252840D10B98401C0B900078642818D0F7
:1035F000732833D1019810C801900BE02178304630
:1036000000F04CF800BF40213046FFF7F9FE0028DB
:10361000F9D0641C20780028F0D10B98401C0B9046
:1036200020E0019820C801900A2202A9284601F052
:10363000BDFE02AC0BE02178304600F02FF800BF51
:1036400040213046FFF7DCFE0028F9D0641C2078CA
:103650000028F0D10B98401C0B9003E00B98401C05
:103660000B9000BF06E00B9810F8011B0B90304642
:1036700000F014F800BF40213046FFF7C1FE0028DB
:10368000F9D00B980078002887D106B070BC5DF89F
:1036900014FB01468888C0F30800704730B5044623
:1036A0000D4600BF80212046FFF7AAFE0028F9D072
:1036B00080212046FFF726FE40212046FFF722FE0C
:1036C000C5F30800A08030BD00BFFEE70146012918
:1036D0000EDA1D4890ED000ADFED1C0A80EE201A7C
:1036E0009FED1B0A21EE000A1A4880ED000A22E035
:1036F000012910DB03290EDA174890ED000A9FED2F
:10370000131AC0EE010A9FED120A20EE800A11483A
:1037100080ED000A0FE003290DDB104890ED000A50
:103720009FED0A1AC0EE010A9FED090A20EE800AF9
:10373000084880ED000A074890ED000ABDEEC00A77
:1037400010EE100A70470000C0000020DD7EBC4370
:103750000000804510000020BC000020B8000020C0
:103760002DE9F0418AB080460D46174600242C4BC7
:103770000FCB06AE0FC605F54070019002900020F9
:103780008DF80C008DF80D0008208DF80E000797BD
:1037900000BF3FE006A810F834008DF80F0006A81F
:1037A00030F83400010A8DF8101006A850F83400E3
:1037B000010C8DF8111006A850F83400000E8DF899
:1037C000120006A800EBC40001798DF8131006A8BA
:1037D00000EBC4008088010A8DF8141006A800EBE5
:1037E000C4004068010C8DF8151006A800EBC40059
:1037F0004068000E8DF8160001A94046FDF73EFC1A
:10380000064600BF31464046FDF7CCFC0128F9D101
:10381000601CC4B2022CBDDB0AB0BDE8F081000020
:10382000646200082DE9F04393B080460D461646C9
:103830001F46002438222E4905A8FCF735FD05F562
:1038400040700090019000208DF808008DF809006C
:1038500008208DF80A000C960E97264910914942CF
:10386000129100BF3FE005A810F834008DF80B005E
:1038700005A830F83400010A8DF80C1005A850F89E
:103880003400010C8DF80D1005A850F83400000E1E
:103890008DF80E0005A800EBC40001798DF80F101B
:1038A00005A800EBC4008088010A8DF8101005A857
:1038B00000EBC4004068010C8DF8111005A800EB66
:1038C000C4004068000E8DF8120069464046FDF7BE
:1038D000D5FB814600BF49464046FDF763FC012801
:1038E000F9D1601CC4B2072CBDDB13B0BDE8F08376
:1038F0002C620008C0E1E40010B52DED028BB0EEA3
:10390000408AB0EE480A00F00FF8BDEEC00A10EE93
:10391000104A2346002207210248FEF775F8BDEC45
:10392000028B10BD00640040F0EE400AB1EE000AC8
:1039300020EE800A9FED021A20EE010A7047000077
:10394000610B364103B401984100009850EAC12050
:1039500018BF04204A0D18BF40F0010040F2FF726A
:10396000B2EB515F08BF40F00200012808BF0520FC
:1039700002B070470000000070B59B482DED020BAF
:103980002DED068B079D25F00044A04218DC9748DA
:10399000844202DC0AD1069840B19DED060BBDECD5
:1039A000068B02B0BDE8704001F02EB9002DCCBFEF
:1039B0009FED8F0B9FED900BBDEC068B02B070BDA1
:1039C0008F48A04215DD8F48A042D8BF4FF0FF348A
:1039D00058DD9DED060B51EC100BFFF7B3FF0428EB
:1039E00008BF01F035F99DED060BBDEC068B02B06A
:1039F00070BD9DED060B51EC100B01F0FFF9CDE908
:103A0000060181489FED828BA0423CDD8248A042A6
:103A10001FDD00249FED82AB9DED060B53EC1A2BAE
:103A200051EC100B01F0E2FD9DED060B41EC190B82
:103A300053EC1A2B51EC100B02F07AF853EC182BC4
:103A400002F082FA53EC192B01F084FECDE9060155
:103A500049E09DED060B012453EC182B51EC100BA3
:103A600001F0C4FD9DED060B41EC190B53EC182B36
:103A700051EC100B02F068FA53EC192B01F06AFEBE
:103A8000CDE906012FE06848A0421FDD02249FED2A
:103A9000689B9DED060B53EC192B51EC100B02F0BB
:103AA00047F853EC182B01F0A1FD9DED060B41ECFE
:103AB000180B53EC192B51EC100B02F045FA53EC98
:103AC000182B01F047FECDE906010CE09DED060B39
:103AD000032453EC102B9FED580B51EC100B01F00D
:103AE00039FECDE906019DED060B53EC102B51EC90
:103AF000100B02F01DF841EC180B53EC182B02F0E0
:103B000017F841EC190B4E480621B0EE490AF0EEC9
:103B1000690A784400F0BCFD53EC182B51EC100BF3
:103B200002F006F841EC180B4648B0EE490AF0EEF8
:103B3000690A0521784400F0ABFD53EC192B51ECD8
:103B4000100B01F0F5FF41EC100B51EC180B53EC8E
:103B5000102B002C0EDA01F049FD9DED061B53ECF5
:103B6000112B01F0E5FF9DED061B53EC112B02F02C
:103B700013F935E001F03AFD9DED061B53EC112BD6
:103B800001F0D6FF41EC100B2F48784400EBC40045
:103B900090ED001B51EC100B53EC112B02F0D4F9FB
:103BA0009DED061B53EC112B02F0CEF941EC100BEE
:103BB0002648784400EBC40090ED001B51EC100B3C
:103BC00053EC112B02F0E8F841EC100B002DA2BFD2
:103BD000BDEC068B02B070BD51EC100B01F0C8FCBF
:103BE00041EC100B01E70000000010440000F07FE2
:103BF000182D4454FB21F93F182D4454FB21F9BFE3
:103C00000000DC3F0000203E0000F33F0000000009
:103C1000000000000000F03F0000E63F0000000050
:103C20000000000000000040008003400000000091
:103C3000000000000000F83F000000000000F0BF9E
:103C40007A28000030280000BA2700007227000000
:103C500070B56B4E2DED040B2DED028B82B0DDF8AF
:103C60001CC0DDE905235C422CF000411C4341EA05
:103C7000D474049D22F00040B44205D86C422C4319
:103C800040EAD474B4420BD99DED061B9DED040BA4
:103C900002B0BDEC028B04B0BDE8704000F0BEBFC6
:103CA000ACF14054A4F17F641C430BD0022404EA1D
:103CB000AC7444EAD27405439FED538B9FED542BB3
:103CC00007D015E09DED040B51EC100B01F008F846
:103CD00042E0002C11BF012C9DED040B02B0BDECA5
:103CE000028B04BF04B070BD022C38D0032C3BD033
:103CF0000B439FED491B9FED4A0B0AD0B14218D1EF
:103D0000B04209D121F0804120F080400791059018
:103D10000FE0002A15DA10E0434B7B44002C08BF6B
:103D200093ED000B0DD0012C10D0022C17D0032CDA
:103D30001AD0B0421DD1002A03DAB0EE410AF0EEEB
:103D4000610A02B0BDEC028B04B070BD93ED000BB4
:103D500051EC100B01F00CFC41EC100BF1E7B0EE54
:103D6000480AF0EE680AECE7B0EE420AF0EE620AAA
:103D7000E7E7401A00153C28C8BF8DED000B19DCA1
:103D8000BCF1000FBEBF10F13C0F9FED290B8DED74
:103D9000000B0FDB9DED060B53EC102B9DED040B80
:103DA00051EC100B01F0D6FC01F028F800F098FF60
:103DB000CDE90001002C08BF9DED000BC1D0012C06
:103DC00010D0022C9FED1C0B53EC102B9DED000B23
:103DD00051EC100B0DD002F0B7F853EC182B02F099
:103DE000B3F8B9E7019880F0004001909DED000B19
:103DF000A7E702F0A9F853EC182B01F0CDFFABE7D1
:103E00000000F07F00000000182D4454FB21094001
:103E1000182D4454FB2109C0182D4454FB21F9BF2F
:103E2000182D4454FB21F93FD22600000000000069
:103E30000000000000000000075C143326A6A13C2F
:103E400010B52F499FED2C1B2DED020B84B005986A
:103E500020F000408842D8BF9DED040B2DDD29499C
:103E6000884209D1049840B94FF00100FCF756FA96
:103E700000F0DEFE06B010BD05DB9DED040B00F08A
:103E8000C3FE06B010BD68469DED040B00F02CF992
:103E900010F0030004BF9DED021B9DED000B0CD044
:103EA00001280ED09DED021B9DED000B022817D0BE
:103EB000012000F069FC06B010BD00F031FB06B037
:103EC00010BD9DED021B9DED000B012000F05CFC80
:103ED00051EC100B01F04CFB06B041EC100B10BD87
:103EE00000F01EFB51EC100B01F042FB06B041EC60
:103EF000100B10BD000000000000000000000000DA
:103F0000FB21E93F0000F07F2DED020B019820F02E
:103F1000004001909DED000B02B0704700000000D2
:103F200010B52F499FED2C1B2DED020B84B0059889
:103F300020F000408842DCBF00209DED040B32DD04
:103F40002849884209D1049840B94FF00100FCF794
:103F5000E5F900F06DFE06B010BD05DB9DED040B2C
:103F600000F052FE06B010BD68469DED040B00F057
:103F7000BBF810F0030011D0012818D09DED021BF2
:103F80009DED000B02281AD000F0CAFA51EC100B7C
:103F900001F0EEFA06B041EC100B10BD9DED021BD6
:103FA0009DED000B012000F0EFFB06B010BD9DED74
:103FB000021B9DED000B00F0B3FA06B010BD01200E
:103FC00000F0E2FB51EC100B01F0D2FA06B041EC2C
:103FD000100B10BD000000000000000000000000F9
:103FE000FB21E93F0000F07F00B52DED048BB0EE22
:103FF000409AF0EE609A83B051EC190B01F0D8FEB4
:1040000041EC180B18EE100A18EE901A8DED008B8B
:10401000002818BF0120084320F00040C0F17F6055
:1040200000F1E040C00F14D019EE101A19EE900AFA
:104030008DED009B002918BF0121084320F00040AE
:10404000C0F17F6000F1E040C00F04BF0120FCF729
:1040500065F9B0EE480A03B0F0EE680ABDEC048BD7
:1040600000BD00000000000010B51D499FED1A1BA7
:104070002DED020B84B0059820F000408842DCBF93
:1040800001209DED040B21DD1649884209D10498D9
:1040900040B94FF00100FCF741F900F0C9FD06B04E
:1040A00010BD05DB9DED040B00F0AEFD06B010BDAC
:1040B00068469DED040B00F017F800F001000121A7
:1040C000A1EB40009DED021B9DED000B00F0F4FB09
:1040D00006B010BD0000000000000000000000005D
:1040E000FB21E93F0000F07F2DE9F14F04462DED63
:1040F000020B2DED088B8AB09FEDE70B80ED020BD4
:10410000139EE74826F0004585420ADC9DED120B20
:10411000002084ED000B0AB0BDEC088B03B0BDE8B5
:10412000F08FE0489FEDE0AB9FEDE1BBA84247DD9B
:10413000E14F9FEDE39B9FEDE48B9DED120B53EC64
:104140001A2B51EC100B002E1CDD01F0FDFE41EC92
:10415000100BBD4208D053EC1B2B51EC100B01F09F
:10416000F3FEC4E900010BE053EC192B51EC100BEA
:1041700001F0EAFE53EC182B01F0E6FEC4E9000161
:104180000120C8E701F032FA41EC100BBD4208D023
:1041900053EC1B2B51EC100B01F028FAC4E9000181
:1041A0000BE053EC192B51EC100B01F01FFA53EC00
:1041B000182B01F01BFAC4E900014FF0FF30AAE709
:1041C000C348A84279DB9DED120B51EC100B00F0B7
:1041D00015FE41EC180B9FEDC00B53EC102B01F0BA
:1041E000A7FC9FEDBF1B53EC112B01F0FFF901F071
:1041F00009FC074601F035FC41EC190B53EC1A2B76
:1042000001F096FC53EC182B01F0C6FD41EC180BA5
:1042100053EC1B2B51EC190B01F08AFCDFF8C8A200
:1042200041EC100B4FEA15580125FA4453EC102BC2
:1042300051EC180B01F088FE032DC4E900013DD0BC
:10424000C1F30A5005EB4511A8EB0000113981427A
:1042500034DA0AEB051BB0EE48AA9BED000BF0EE3A
:1042600068AA53EC102B51EC190B01F061FC41ECE6
:104270001B0B51EC1A0B53EC1B2B01F065FE41ECB0
:10428000180B51EC1A0B53EC182B01F05DFE53EC9C
:104290001B2B01F059FE9BED020B41EC1A0B53EC6A
:1042A000102B51EC190B01F043FC53EC1A2B01F0CD
:1042B0004BFE41EC100B6D1CB8E70EE0002EA8BFC2
:1042C0003846BFF628AF94ED000B51EC100B01F00F
:1042D0004FF9C4E9000178421DE7C6F3130040F42A
:1042E000801EC6F30A50A0F2F530471100F01F05FA
:1042F000C5F12000DDF848B0089000200690079036
:104300000520EC467949002D07EB0002794408BFEF
:1043100051F8221009D051F8223001EB8201AB4054
:104320004A68089922FA01F11943A1FB0E26A1FB64
:104330000B131A449A4234BF0123002303EB0608EF
:104340000CEB8003D3E901A60E448E4234BF012159
:10435000002192448A4411B1924502D903E092456A
:1043600001D2012100E00021C3E901A641444CF83B
:104370002010011EA0F10100C4DC029800F10050E1
:10438000850F0298DDE903678000DDF8148001F0F5
:1043900068FB41EC1A0B304601F07AFB9FED541B91
:1043A00053EC112B01F0C4FB41EC1B0B384601F020
:1043B0006FFB9FED511B53EC112B01F0B9FB41EC4E
:1043C000180B404601F064FB9FED4D1B53EC112B85
:1043D00001F0AEFB41EC190B51EC180B53EC192B0F
:1043E00001F004F953EC1B2B01F000F953EC1A2BEC
:1043F00001F0FCF8CDE90801002008909DED080BC4
:1044000053EC1A2B51EC100B01F09EFD53EC1B2BBF
:1044100001F09AFD53EC182B01F096FD53EC192B8B
:1044200001F0BAFC9FED381B53EC112B01F080FB1F
:104430009FED370B41EC180B53EC102B9DED080B47
:1044400051EC100B01F074FB53EC182B01F0CEF87B
:104450009FED310B41EC180B53EC102B9DED080B2D
:1044600051EC100B01F064FB53EC182B01F0BEF87B
:1044700041EC100B139810F0004F06D06D4251EC38
:10448000100B01F075F841EC100B284684ED000B81
:1044900041E60000000000000000000000000000F5
:1044A000FB21E93F7CD9024000004054FB21F93F49
:1044B0003163621A61B4D03DFB21F93F0000000076
:1044C0000000601A61B4D03D7370032E8A19A33BBB
:1044D000FB2139410000000083C8C96D305FE43F13
:1044E000000000000000E03FCA2100001821000089
:1044F000000000000000103E000000000000103C22
:10450000000000000000103A182D4454FB21F93D32
:104510003326A611460B113C00000054FB21F93D47
:1045200010B52DED040B2DED088B82B0B0EE419A45
:10453000F0EE619A0B9820F000449FED4BABB4F184
:10454000795F11DA9DED0A0B51EC100B01F05AFA6C
:10455000002801BFB0EE4A0AF0EE6A0A02B0BDECD4
:10456000088B04BF04B010BD9DED0A0B53EC102B5B
:1045700051EC100B01F0DCFA41EC180B3C48062121
:10458000B0EE480AF0EE680A784400F081F853EC87
:10459000182B51EC100B01F0CBFA9DED0A0B41ECFE
:1045A0001B0B53EC192B51EC100B01F0C1FA41EC31
:1045B000190B53EC1B2B51EC180B01F0B9FA53EC0F
:1045C000192B01F0C1FC9FED2C0B41EC190B53ECA6
:1045D000102B51EC180B01F0ABFA41EC100B2848F2
:1045E000844210DA53EC192B51EC100B01F0ACFCA7
:1045F00053EC1A2B01F0D0FB41EC100B02B0BDECD8
:10460000088B04B010BD1F48A042BCBF9FED1E1B0D
:104610008DED001B06DBA4F500100190002000903A
:104620009DED001B51EC100B53EC112B01F08CFC99
:104630009DED000B41EC180B53EC102B51EC1A0BB9
:1046400001F082FC41EC1A0B53EC192B51EC180BC6
:1046500001F07AFC53EC1A2B01F09EFB41EC100B9D
:10466000CCE7000000000000000000000000F03F68
:10467000341E000000000000000000000000E03FC9
:104680003333D33F0000E93F000000000000D23F79
:1046900070B504462DED028B4D1E00EBC500B0EE4B
:1046A000408AF0EE608A90ED000B35F0060017D0DE
:1046B00053EC182B51EC100B01F03AFA41EC100BB3
:1046C0006D1E04EBC50090ED001B51EC100B53EC7C
:1046D000112B00F08BFF41EC100B35F00600E7D1F9
:1046E000022D36D0042D1CD0062D1CBFBDEC028B34
:1046F00070BD53EC182B51EC100B01F019FA94ED2E
:104700000A1B53EC112B00F071FF53EC182B01F036
:104710000FFA94ED081B53EC112B00F067FF41ECEE
:10472000100B53EC182B51EC100B01F001FA94ED27
:10473000061B53EC112B00F059FF53EC182B01F022
:10474000F7F994ED040B53EC102B00F04FFF41EC04
:10475000100B53EC182B51EC100B01F0E9F994ED10
:10476000021B53EC112B00F041FF53EC182B01F00E
:10477000DFF994ED001B53EC112B00F037FFBDEC7B
:10478000028B41EC100B70BD31B504462DED040BCE
:104790002DED0A8BB0EE41BAF0EE61BA0B989DEDAB
:1047A0000A0B20F00040B0F1795F0DDA51EC100BEC
:1047B000FFF7C8F8042808BF00F04AFA9DED0A0B7D
:1047C000BDEC0A8B05B030BD53EC102B51EC100B37
:1047D00001F0AEF941EC180B9DED0A0B53EC182BD0
:1047E00051EC100B01F0A4F941EC190B2C48B0EE80
:1047F000480AF0EE680A05217844FFF749FF9FED6B
:104800002ACBB0EE40AAF0EE60AA9CB353EC1C2B6E
:1048100051EC190B01F08CF941EC1C0B53EC1A2BE9
:1048200051EC190B01F084F99FED210B41EC190BB0
:1048300053EC102B51EC1B0B01F07AF953EC192BB4
:1048400001F082FB53EC182B01F072F953EC1B2B97
:1048500001F07AFB53EC1C2B01F076FB9DED0A1B5B
:1048600053EC112B01F098FABDEC0A8B05B041EC2A
:10487000100B30BDFFE753EC1A2B51EC180B01F075
:1048800057F953EC1C2B00F0B1FE53EC192B01F03F
:104890004FF99DED0A1B53EC112B00F0A7FEE3E747
:1048A000C41C000000000000495555555555C5BFB2
:1048B000000000000000E03FF1B506462DED040BBE
:1048C000BD482DED0C8B8AB0B0EE418AF0EE618AC6
:1048D000179D25F000449FEDBABB9FEDBBCB8442F2
:1048E00008DA9DED160B51EC100B01F08BF8002847
:1048F00000F0E980B64FA74231DC002D0DDA9DEDC6
:10490000160B51EC100B00F033FECDE9160151EC03
:10491000180B00F02DFE41EC180B9FEDAF0B53EC84
:10492000102B9DED160B51EC100B01F035FA53ECEA
:10493000182B9FEDAB0BCDE9040151EC100B01F0EE
:1049400003FB41EC100B53EC102B9DED040B51ECD1
:10495000100B00F04BFE9FEDA48BCDE916019DEDF1
:10496000160B53EC102B51EC100B01F0E1F8CDE9D4
:1049700004019DED040B53EC102B51EC100B01F0D6
:10498000D7F841EC190B9A480621B0EE490AF0EE2F
:10499000690A7844FFF77CFE9648B0EE40DAF0EE04
:1049A00060DAB0EE490AF0EE690A06217844FFF7B2
:1049B0006FFE9DED041B51EC100B53EC112B01F01D
:1049C000B7F89DED040B41EC1A0B53EC102B9DED49
:1049D000160B51EC100B01F0ABF841EC190B53EC3A
:1049E0001A2B51EC1D0B00F001FE53EC192B01F0BA
:1049F0009FF853EC182B00F0F9FD9DED041B53ECD0
:104A0000112B01F095F853EC182B00F0EFFD41EC61
:104A1000180B9FED790B51EC190B53EC102B01F097
:104A200087F853EC182B00F0E1FD41EC190B9DEDDC
:104A3000160B53EC192B51EC100B00F0D7FD41EC89
:104A4000180BA74269DC304601F00BF841EC1A0B59
:104A500051EC180B53EC1A2B00F0C8FD41EC1B0B6A
:104A600053EC182B51EC180B01F062F853EC1B2B94
:104A700000F070FE53EC192B01F066FA9DED161B49
:104A800053EC112B01F088F99FED5D1B53EC112BBA
:104A900001F04EF853EC1A2B01F07EF941EC180BA3
:104AA000022000EAA570C0F1010000F0DAFF53EC2B
:104AB000182B01F03DF800BF41EC100B0AB0BDEC23
:104AC0000C8B05B0F0BD711C1698214308430CD027
:104AD0009DED160B012E1CBF53EC102B51EC1C0B43
:104AE00010D000BF00F036FEE6E79DED160B51EC4E
:104AF000100B00F083F941EC100B51EC1B0B53EC45
:104B0000102BEFE751EC100BFEF71CFF042808BF39
:104B100000F09EF89DED160BD0E7012E04BFB0EE1D
:104B2000480AF0EE680AC9D08DED048B0024049485
:104B30009DED040B53EC102B9DED160B51EC100B5F
:104B400001F02AF953EC192B01F026F941EC190B6D
:104B500053EC182B51EC1C0B00F0FCFD41EC180B36
:104B60008DED008B00949DED040B53EC102B9DED0F
:104B7000000B51EC100B00F0DBFF53EC1B2B00F093
:104B800035FD9DED000B41EC1A0B53EC192B51EC4C
:104B9000100B00F0CDFF53EC1A2B00F027FD53EC67
:104BA000182B00F0C5FF9DED001B53EC112B00F0FE
:104BB0001DFD81E7000000000000303E0000000005
:104BC000000000000000F03F000000000000F0BF07
:104BD0002894E53F00000000182D4454FB21E93FD4
:104BE000075C143326A6813C000000000000000092
:104BF000521B0000681B0000635555555555D53FA5
:104C0000000000000000004010B553EC102B51ECE8
:104C1000100B00F0EBFC41EC100B10BD10B553EC89
:104C2000112B51EC100B00F0E1FC41EC100B10BD0E
:104C30009FED050B10B553EC102B51EC100B00F051
:104C400089FD41EC100B10BD0000000000000000C9
:104C50009FED050B10B553EC102B51EC100B00F031
:104C600067FF41EC100B10BD0000000000000010B9
:104C7000B0EE401A31EE600A154880ED000A90ED62
:104C8000000ADFED141AB4EEE10AF1EE10FA08DDC5
:104C900090ED000ADFED101A30EE610A80ED000A97
:104CA00011E00B4890ED000ADFED0C1AB4EEE10ABA
:104CB000F1EE10FA07D290ED000ADFED071A30EEA0
:104CC000210A80ED000A024890ED000A70470000BA
:104CD00080000020000034430000B443000034C3CF
:104CE00010B541EC100BFEF747FE51EC100B10BD58
:104CF000F0EE400A114890ED000A20EE200A10481C
:104D000090ED001AB8EEC11A30EEC11A0D48D0ED80
:104D1000001A01EE810A0C4890ED001ADFED0B1A23
:104D200001EE210A0A4880ED000ABDEEE00A0448BF
:104D300080ED000A064890ED000A70474800002008
:104D400044000020500000204C0000200000000023
:104D50005400002070B588B005460C461E4903C9B2
:104D6000CDE9060104F540700190029000208DF815
:104D70000C008DF80D0008208DF80E000698C0B2CA
:104D80008DF80F000698010A8DF810100698010C96
:104D90008DF811100698000E8DF812000798C1B218
:104DA0008DF813100798010A8DF814100798010C5C
:104DB0008DF815100798000E8DF8160001A92846E9
:104DC000FCF75CF9064600BF31462846FCF7EAF9D5
:104DD0000128F9D108B070BD1C6200081CB504465A
:104DE000054903C9CDE9000108236A460021204690
:104DF000FCF728FA1CBD00001462000882B0CDE95F
:104E0000000121F0004001909DED000B02B051EC3B
:104E1000100B704710B52DED068B604890ED0F0A12
:104E20005F4880ED000A5D4890ED100A5D4880ED16
:104E3000000A5A4890ED0E0A5B4880ED000A5B4874
:104E40000068594991ED001A5649D1ED000A5449BC
:104E500091ED000AFCF7C0FB554880ED000AC0ED5B
:104E6000010AD0ED010AB0EE600AFEF745FD514897
:104E7000006830B94E48D0ED000AB0EE600AFCF789
:104E8000DDFF4B48D0ED000A4B4890ED000AB8EE2C
:104E9000C00A30EE600A10EE101A084601F03EF922
:104EA00041EC1A0BB0EE4A0AF0EE6A0AFFF72CF852
:104EB000B0EE409AF0EE609A9FED400B53EC102B51
:104EC00051EC190B00F034FE41EC180B9FED3D0B3B
:104ED00053EC102B00F0F0FD02D2002035490860A1
:104EE0003A480068401C394908600846006896281E
:104EF00001DCFCF751FE35480068962801DDFCF71F
:104F000057FE324800684FF4967190FBF1F201FBB6
:104F100012002E49086000F0C5F8BDEEC00A10EE80
:104F2000104A22462AA12B48FEF730FB00F036F942
:104F3000BDEEC00A10EE104A224625A12548FEF714
:104F400025FB224822A102682248FEF71FFB1648D3
:104F500090ED000ABDEEC00A10EE102A1CA11D48FB
:104F6000FEF714FB124890ED010ABDEEC00A10EEE8
:104F7000102A17A11748FEF709FB0D4890ED000A0B
:104F8000BDEEC00A10EE100A00EB400212A111485B
:104F9000FEF7FCFABDEC068B10BD000030020020CD
:104FA000580100205C010020600100206401002005
:104FB00068010020940100209801002000000000FA
:104FC00000002440000000000000F03F54010020D9
:104FD00025640900005000402564090D0A00000006
:104FE000204890ED000A2048D0ED000A30EE200A5B
:104FF000DFED1E0AB4EEE00AF1EE10FA0CDD1948FE
:1050000090ED000A1848D0ED000A30EE200ADFEDDE
:10501000180A30EE600A7047124890ED000A1248F4
:10502000D0ED000A30EE200ADFED120AB4EEE00AFD
:10503000F1EE10FA0CD20B4890ED000A0A48D0EDC0
:10504000000A30EE200ADFED0A0A30EE200AE2E71D
:10505000044890ED000A0448D0ED000A30EE200A22
:10506000D9E70000700100207C01002000003443DB
:105070000000B443000034C30148006870470000DA
:10508000100200200548017831B10020034A107059
:10509000034A1070012070470020FCE7DE01002069
:1050A000DF01002010B52DED108B3648006801F0AF
:1050B00035F841EC190B344890ED000AB1EE400A86
:1050C000DFED320A20EE200ADFED310A80EE201AF1
:1050D00011EE104A204601F021F841EC1F0BB0EE12
:1050E0004F0AF0EE6F0AFEF71BFFB0EE40DAF0EE6B
:1050F00060DA2848006801F011F841EC1E0B53EC0F
:105100001D2B00F015FD41EC1B0B1F4890ED000A14
:10511000B1EE400ADFED1D0A20EE200ADFED1C0A89
:1051200080EE201A11EE104A204600F0F7FF41EC05
:105130001F0BB0EE4F0AF0EE6F0AFEF781FEB0EEE5
:1051400040DAF0EE60DA1448006800F0E7FF41EC66
:105150001E0B53EC1D2B00F0EBFC41EC1C0B53EC35
:105160001B2B00F0F1FE41EC1A0B53EC192B00F055
:105170003DFA41EC180B00F007FA00EE100ABDEC06
:10518000108B10BD800100207C010020DB0F494006
:1051900000003443780100207401002010B52DED8B
:1051A000108B3648006800F0B9FF41EC190B344809
:1051B00090ED000AB1EE400ADFED320A20EE200A3F
:1051C000DFED310A80EE201A11EE104A204600F081
:1051D000A5FF41EC1F0BB0EE4F0AF0EE6F0AFEF791
:1051E0002FFEB0EE40DAF0EE60DA2848006800F0FA
:1051F00095FF41EC1E0B53EC1D2B00F099FC41EC8C
:105200001B0B1F4890ED000AB1EE400ADFED1D0AAE
:1052100020EE200ADFED1C0A80EE201A11EE104A63
:10522000204600F07BFF41EC1F0BB0EE4F0AF0EE82
:105230006F0AFEF775FEB0EE40DAF0EE60DA144861
:10524000006800F06BFF41EC1E0B53EC1D2B00F0CF
:105250006FFC41EC1C0B53EC1B2B00F0C7F941EC2D
:105260001A0B53EC192B00F0C1F941EC180B00F0AC
:105270008BF900EE100ABDEC108B10BD84010020EC
:105280007C010020DB0F49400000344378010020FE
:1052900074010020014890ED000A704700020020D0
:1052A000014890ED000A70470402002008B54FF451
:1052B000A060FCF79FFB00200346532240F2E73139
:1052C00000904FF08040FDF779FC4FF4E130FCF79F
:1052D000E3FD4FF4E130FBF7E1FF4FF4E130FCF781
:1052E000FFFB4FF4E130FDF78DFD0020034640F257
:1052F0004732632100904FF08040FDF75FFC0020B3
:10530000034640F2473240F2E73100902348FDF770
:1053100055FCFBF793F8FDF7DBFD4FF400704310ED
:105320001F4A4FF4FA7100901E48FBF7F1FA402033
:1053300020231B4A4FF4FA7100901B48FBF7E8FA50
:105340001948FFF74BFD01211748FFF703FD022124
:105350001548FFF7FFFC4CF250331A460121124862
:10536000FEF760FA4CF250331A4602210E48FEF75F
:1053700059FA4CF250331A4608210A48FEF752FAFD
:105380004FF47A60FCF793F84FF47A60FCF78FF8EB
:105390004FF4FA60FCF78BF808BD000000040040F1
:1053A000000402400064004000680040F0B503467D
:1053B0000D461646002729460A2E03D00020087005
:1053C0002846F0BD33B9302001F8010B00200870E9
:1053D0002846F6E7002B03DA2D2001F8010B5B428B
:1053E0000A4A0DE0B3FBF2F404B937B104F130001E
:1053F00001F8010B04FB123301270A20B2FBF0F283
:10540000002AEFD1002008702846DAE700E1F50510
:1054100010B5FFF74BFF9FED0C0AFCF725F812E0E3
:1054200001210A48FCF7CDF8094908600121094823
:10543000FCF7C7F80849086001E0FCF789FDFFF7B1
:1054400021FE0028F9D1EBE70000204200000240D5
:10545000000000200008024004000020F0EE400A96
:10546000114890ED000A20EE200A104890ED001A35
:10547000B8EEC11A30EEC11A0D48D0ED001A01EE97
:10548000810A0C4890ED001ADFED0B1A01EE210A9B
:105490000A4880ED000ABDEEE00A044880ED000AEB
:1054A000064890ED000A70475C000020580000207C
:1054B0006400002060000020000000006800002060
:1054C000014880ED000A7047700100200149086022
:1054D000704700001002002001490860704700007A
:1054E0000C020020014880ED000A70477401002082
:1054F000014880ED000A704778010020014880EDE6
:10550000000A704700020020014880ED000A704741
:1055100004020020F1EE400AFDEEE00AF8EEE00A97
:105520009FED041A60EE810AFDEEE00A10EE900A8B
:1055300070470000000080450146012904DA4FF45D
:105540002F700A4A10600EE0012906DB032904DAF5
:105550004FF44870054A106005E0032903DB4FF45F
:105560004870024A1060014800687047C40000207B
:1055700081F00041704780F00040704721F0004109
:10558000704720F00040704721F00042A2F16052C5
:10559000B2F5801F01F0004328BFD2F17F6C0BD918
:1055A0005FEA001C43EAC20242EB507018BF70472A
:1055B00028BF20F001007047B2F5801FBCBF18461D
:1055C00070474FEA410C1CF5001F02D2084600F05C
:1055D0001BBE70B500F056FB00000089FFF7F6BF58
:1055E0004FF00040A0F580007047000010B591EA30
:1055F000030F48BF83F0004300F1AE84841A71EBBF
:10560000030C05D2121943EB0C03001B61EB0C01D8
:10561000DFF824E14FEA1154A4EB135C1EEA430FB8
:1056200018BF9EEA445F73D023EA0E03DCF1200E1C
:1056300021EA045143F4801332D322FA0CFE10EB1A
:105640000E0023FA0CFE41EB0E01CCF1200E03FA02
:105650000EFE10EB0E0051F10001B1F5801FCCF1F0
:10566000200E32D201EB045112FA0EF2BDE81040C6
:1056700058BF7047401C38BF5FEA420218BF7047EE
:10568000002814BF20F0010041F100014FEA41035E
:1056900013F5001F38BF7047A1F1C04100F040BBB7
:1056A000012A43EB0302ACF1200CDCF11F0E32BFE8
:1056B0004FF0000E23FA0CF310EB030041EB045102
:1056C000B4EB115FD0D0A1EB045101F58011490872
:1056D0005FEA300001EB04510ED350F1000038BFF7
:1056E00012FA0EFE08D1BDE81040C9E7401C38BFD1
:1056F0005FEA4202CAD1C3E7BDE810404FEA410366
:1057000013F5001F38BF7047A1F1C04100F008BB7E
:105710009EEA445F08D011EA5E0FBDE8104004BF66
:1057200001F0004100207047BDE8104070B500F066
:10573000A9FA00BF64FBBE3E0000E0FF491058BF5D
:10574000C1F140415B1058BFC3F140438B42EFF3BE
:10575000008070472DE9C04130B4DFF8A0C23CEAB8
:10576000111418BF3CEA131400F0EC8081EA030521
:105770001CEA111444EAD57418BF1CEA131500F092
:10578000C780A4EB05044FF0004545EAC12145EA76
:10579000C32341EA505143EA525304F17F749942C2
:1057A00004F500344FEAC0204FEAC22208BF9042FD
:1057B00000F09C804FEA13650FF24016765D4FEAC9
:1057C000134506FB05F7C7F1807706FB07F74FEA9D
:1057D000D737A7FB03687642C8F58038A7FB06CE0B
:1057E00038BFA8F1010807FB08E64FF0000EA6FB42
:1057F000028CE6FB03CEDCF1000CCEF1004E38BF8C
:10580000AEF1010EA6FB0C584FF000074FF000055B
:10581000E6FB0E87A1FB08C6A0FB07CE16EB0E0623
:1058200045F10005E1FB076515F1E04E7EBFA4F5EB
:1058300080345FEA46066D4116F1800745F10005A8
:105840004FEA17274FEA066647EA0567A6F1DE46E4
:10585000B6F1805F4FEA15251FD9384624F0010CB8
:1058600005EBC471BCF1FE6F01EB0C1102D8F0BC6A
:10587000BDE8008124425CBF01F5801E9EEAC47F22
:1058800002D4F0BCBDE80081244238D4F0BCA1F1C0
:10589000C041BDE8004100F043BA4FEAD22242EADB
:1058A00043524FEAD323A7FB02864FEAD02040EAB7
:1058B000415007FB03661EEA0E0F4FEAD12105FB9C
:1058C000026658BFA6EB0056B6EB00564FEA520EE2
:1058D0004EEAC37E18EB0E0E56EB530EBDD518EBF9
:1058E00002085E417F1C55F10005B6E74FF48015B4
:1058F0004FF000074FF000064FF00008ADE7F0BC96
:105900004FF0000001F1C04101F00041BDE800810D
:1059100011EA0C1F0CEA131500D00CE013EA0C1F5F
:1059200000F025804FF00000F0BC81EA030101F097
:105930000041BDE80081F0BCBDE8004181EA0301FF
:1059400000F0EEB9F0BCBDE8004170B500F09AF986
:10595000097EFC3E00F007B881EA03014FF0000029
:1059600001F00041704781EA030100F0D9B9F0BCB1
:10597000BDE800414FF0000021497047FFFDFBF9F1
:10598000F7F5F4F2F0EEEDEBE9E8E6E4E3E1E0DE72
:10599000DDDBDAD8D7D5D4D3D1D0CFCDCCCBCAC8E4
:1059A000C7C6C5C4C2C1C0BFBEBDBCBBBAB9B8B70B
:1059B000B6B5B4B3B2B1B0AFAEADACABAAA9A8A8FE
:1059C000A7A6A5A4A3A3A2A1A09F9F9E9D9C9C9BCC
:1059D0009A99999897979695959493939291919077
:1059E0008F8F8E8E8D8C8C8B8B8A89898888878708
:1059F0008685858484838382828181800000FF077D
:105A00000000F87F4FEA41034FEA5353A3F5806348
:105A1000D3F11E03C8BFD3F1210C0CDD4FF00042BF
:105A200042EAC12242EA505232FA03FC8CEAE17C9B
:105A3000ACEBE1707047102BC4BF0020704703F53A
:105A4000787CBCF1FF3F04D06FF0004282EA210075
:105A5000704770B500F016F9499224800020704715
:105A6000F2E710F0004248BF4042B0FA80F310FA6B
:105A700003F10AD0C3F11D0303F580634FEA4150DF
:105A800002EB035202EBD12170474FF00000704748
:105A9000B0FA80F310FA03F10AD0C3F11D0303F545
:105AA00080634FEA41504FEA035202EBD121704725
:105AB0004FF000007047000051EA030C17D41CF5AA
:105AC000801F58BFBCF5801F00F10680994218BFA7
:105AD000704708BF9042704707D711F5801F58BF25
