:020000040800F2
:10000000584E0020850200081D6A0008F95A0008B1
:10001000B9690008A12E000821980008000000001E
:1000200000000000000000000000000075770008DC
:10003000F5530008000000009B0200089D02000824
:100040009F0200089F0200089F0200089F0200080C
:100050009F0200089F0200089F0200089F020008FC
:100060009F0200089F0200089F0200089F020008EC
:100070009F0200089F0200089F0200089F020008DC
:100080009F0200089F0200089F0200089F020008CC
:10009000A52E00089F0200089F0200089F0200088A
:1000A0009F020008D58700089F0200089F020008F1
:1000B000F1870008458800083D8900089F02000874
:1000C0009F0200089F0200089F0200089F0200088C
:1000D0009F02000865900008619100085192000895
:1000E0009F0200089F0200089F0200089F0200086C
:1000F000858900089F0200089F0200081D51000822
:100100009F0200089F020008698900089F020008FA
:100110009F0200084D8D00089F0200089F02000802
:100120009F0200089F0200089F0200089F0200082B
:100130009F0200089F0200089F0200089F0200081B
:10014000D92F00089F0200089F0200089F020008A4
:100150009F0200089F0200089F0200089F020008FB
:100160009F0200089F0200089F0200089F020008EB
:100170009F0200089F0200089F0200089F020008DB
:100180009F0200089F02000800F002F800F06AF8E1
:100190000AA090E8000C82448344AAF10107DA45E2
:1001A00001D100F05FF8AFF2090EBAE80F0013F0CA
:1001B000010F18BFFB1A43F001031847A8EE000017
:1001C000C8EE00000A444FF0000C10F8013B13F099
:1001D000070408BF10F8014B1D1108BF10F8015BA0
:1001E000641E05D010F8016B641E01F8016BF9D193
:1001F00013F0080F1EBF10F8014BAD1C0C1B09D1EA
:100200006D1E58BF01F801CBFAD505E014F8016B5B
:1002100001F8016B6D1EF9D59142D6D370470000ED
:100220000023002400250026103A28BF78C1FBD8FF
:10023000520728BF30C148BF0B6070471FB50EF092
:1002400080FC00F0FDF80400002000210DF0D8FD36
:10025000401C6060002000210DF0BCFDE0601FBD6F
:1002600010B510BD00F08DF91146FFF7E7FF0DF056
:100270000BF900F005FC03B4FFF7F2FF03BC00F03C
:1002800049FC00000948804709480047FEE7FEE7AF
:10029000FEE7FEE7FEE7FEE7FEE7FEE7FEE7FEE736
:1002A00004480549054A064B704700006D87000861
:1002B0008901000858080020584E0020584A0020A4
:1002C000584A002010B5203AC0F00B80B1E8185011
:1002D000203AA0E81850B1E81850A0E81850BFF430
:1002E000F5AF5FEA027C24BFB1E81850A0E81850CF
:1002F00044BF18C918C0BDE810405FEA827C24BF23
:1003000051F8043B40F8043B08BF7047D20728BFB0
:1003100031F8023B48BF11F8012B28BF20F8023BFF
:1003200048BF00F8012B70474FF0000200B513469C
:1003300094469646203922BFA0E80C50A0E80C5005
:10034000B1F12001BFF4F7AF090728BFA0E80C50B6
:1003500048BF0CC05DF804EB890028BF40F8042BAF
:1003600008BF704748BF20F8022B11F0804F18BF1C
:1003700000F8012B704770477047704710B500F0C8
:1003800063F8006810BD10B5044600F05DF8046025
:1003900010BD00000FB4002300B589B00CA9009176
:1003A0000B99CB60214B7B440693214B7B440793F5
:1003B00004236FF00042CDE901321E4A7A446B46B5
:1003C0000892024600200EF026FC09B05DF814FBEE
:1003D00070B506464FF0FF3015460C46324686B0E3
:1003E0000091CDE9010169460020049004A8FFF7BF
:1003F000D1FF02460498211825B108B1084600E053
:1004000020462860049800280DD0002A02DD0098BC
:10041000884208D03246081B69460094CDE90104A1
:1004200004A8FFF7B7FF06B070BD0000B9000000D8
:10043000D10000009100000000487047F407002040
:10044000004870471408002000487047F407002057
:1004500010B5044600F0BAF80068005D00F0010035
:1004600010BD426842B1016811F8013B23B1521E30
:10047000C0E90012184670470121C160881E70470C
:1004800042685AB1C368016843B983688B4205D09A
:10049000491E521CC0E90012002070474FF0FF3087
:1004A000704700002DE9F047814616468AB0334870
:1004B00078440DC88DE80D0030487844801C03ACAA
:1004C0000DC884E80D0041F69B300844372190FBAD
:1004D000F1F290FBF1F5A5F1800501FB12041B3C44
:1004E00002D56442012000E00020DFF890A08046A1
:1004F0000027FA44AAF1BE0A0DE0E00709D032460F
:10050000684607EB47010AEB810100F0A6FF8DE882
:10051000070064107F1C002CEFD1184F7F44AC3FC4
:1005200018E0E80714D007EB04100DF1180A90E862
:100530000E008AE80E00C068F04201D198190890B8
:10054000324606A903A800F088FF03AB83E8070042
:100550006D10641C002DE4D132466946B8F1000FDD
:1005600003A802D000F051FF01E000F076FFC9E9D6
:100570000001C9F808200AB0BDE8F08798EB000038
:1005800070477546FFF758FFAE460500694653466B
:1005900020F00700854618B020B5FFF781FEBDE8C2
:1005A00020404FF000064FF000074FF000084FF0DA
:1005B000000B21F00701AC46ACE8C009ACE8C0096B
:1005C000ACE8C009ACE8C0098D46704710B5FFF72C
:1005D00037FF001D10BD00BF29D800002DE9FF4FD7
:1005E000064689B00878FF2806D0491C2D2805D07A
:1005F00000244FF0000908E000200CE00124F8E797
:1006000009EB8903491C00EB43090878FF28F7D15F
:1006100014B1C9F100008146107800252C46AA4685
:1006200029462D2801D02B2804D1521C2D2813D067
:10063000002082468B461078FF280FD04FF0000C28
:100640000A21521CA5FB017804FB018105FB0C115A
:10065000C5194BEB0104EEE70120EAE7002108464B
:100660004FF00000BAF1000F02D000EB800040080C
:10067000C0F38158B8F1010F01DD4FF0FF380C983D
:1006800009EB000755EA040009D04FF0020917F5FD
:10069000FA7F0BDA4FEACA70C6E900B012E04FEAFF
:1006A000CA70C6E900B00DB0BDE8F08FB7F5FA7FAB
:1006B0000DDDF0487844D0E90010C6E9001040EAAA
:1006C000CA707060FFF7C0FEC0F80090EBE7391EFB
:1006D00002DAC8F1000200E0424600DA794206A8D8
:1006E000FFF7E0FE06AB93E8070003AB83E80700E3
:1006F00044F23E005BEA04010090584604D144F203
:100700001E012C465D460091210C0904014306D1CF
:100710000099240444EA15442D041039009104F092
:100720007F41014306D10099240244EA15642D0259
:100730000839009104F07041014306D10099240169
:1007400044EA15742D01091F009104F04041014352
:1007500006D10099A40044EA9574AD00891E009169
:1007600004F00041084304D100986D196441401E13
:10077000009042466846002FCDE9014503A902DDFD
:1007800000F07FFE01E000F054FEBAF1000F0446D5
:100790000D4601D084F0004440F2FF7724F0004081
:1007A000284303D0C4F30A50B84212D1FFF74CFEDD
:1007B000C0F80090C4F30A50B8420AD1AE48784459
:1007C000D0E90010C6E9001004F000410843706051
:1007D00069E7C6E9005466E72DE9FF4F1F464FF071
:1007E000000A4FF0FF38454691B0D7E90146CDF8F1
:1007F0003CA0FFF725FEC0680168405C1090B96915
:1008000012986D1C8847396A814688470028F6D1BE
:10081000B9F1FF3F0AD0002E24F4D06411DDB9F104
:100820002B0F08D0B9F12D0F0BD102E0404615B0C7
:100830003AE744F48064B96912986D1C8847761EC3
:100840008146600504A901D52D2000E02B20002E53
:1008500001F1010B0DF130088DF810003FDDB9F109
:10086000690F08D0B9F1490F05D0B9F16E0F02D068
:10087000B9F14E0F1CD13B4601A8009580E850020B
:10088000DDE912126FF002000EF0C9F9C11CCED1E1
:100890000EE0B96912986D1C884781461398761E40
:1008A00044F4007405600F98401C002E0F9016DD74
:1008B000B9F1300FEDD0B9F1780F02D0B9F1580F7E
:1008C0000DD10F9801280AD13B46CDE90054DDE94E
:1008D0001212001F02960EF0A0F9C11CA7D11099A8
:1008E00089453ED144F0800406E01399681CAAF1C2
:1008F000010A44F400740860B9696D1C1298761EF0
:10090000884730288146F0D02BE01099894505D1E1
:10091000200603D4761E44F0800418E048460BF00D
:10092000D7FB08B3761E0DF123018B4544F4007408
:1009300008D2A9F130000BF8010B200607D5AAF167
:10094000010003E0200602D40AF101008246A0055E
:1009500002D51399681C0860B96912986D1C884704
:100960008146002ED1DC53E0002E51DDB9F1650F38
:1009700002D0B9F1450F4BD1A00549D5B9696D1C1D
:100980001298761E24F440748847002E81460CDDB0
:100990002B2804D0B9F12D0F07D144F48074B96924
:1009A00012986D1C8847761E8146E00501D52D21E1
:1009B00000E02B2108F8011BCDF8008021E0761E15
:1009C0000DF13901884544F400740CD2A9F13000CE
:1009D00010F0FF0088F8000002D10099884509D97D
:1009E00008F1010806E0E00501D5244801E042F2E3
:1009F0000F708246B96912986D1C8847814613981A
:100A00000560002E04DD48460BF062FB0028D6D1BD
:100A1000F96912988847FF2053468BF8000088F840
:100A2000000000200A900B9004AA0CA90AA8FFF766
:100A3000D5FDA00502D46FF00100F8E614F0240FF4
:100A40000AD0E00714D13868DDE90A12031D3B60C3
:100A50000068C0E900120BE00AA968460BF028FA0A
:100A6000E00705D13868009A011D3960006802600E
:100A70002846DCE6CCE90000C2E80000F1D8FFFF20
:100A800010B50446AFF300802046BDE81040FFF7E4
:100A9000F2BB00004FF0013C50F8042B51F8043B2E
:100AA0009A4221D1A2EB0C03934313EACC1317D142
:100AB00050F8042B51F8043B9A4215D1A2EB0C03D9
:100AC000934313EACC130BD150F8042B51F8043B99
:100AD0009A4209D1A2EB0C03934313EACC13DBD067
:100AE0004FF00000704700BFD01A01BAB1FA81F18F
:100AF00001F0180122FA01F0CB40C1F12001DBB274
:100B0000C0B2C01A2CFA01F3D11A914311EAC311F1
:100B1000E6D1704701491820ABBEFEE7260002006F
:100B20002DE9FF4F1F464FF03C0987B04FF00042C0
:100B3000DDE9141001F10108DDF858A002EA405087
:100B40000390002005908346054604460490B96949
:100B5000461E08988847AAF1010A0290BAF1000FD0
:100B60003BDD02982E2815D0102100F016FA00283F
:100B70002EDB4FF0010B0599014317D0B9F1000F9F
:100B80000BDB4A46C11700F0F5F905430C43A9F108
:100B9000040905E0012004900BE008B145F00105CF
:100BA00001200590049820B9361D02E0049800B198
:100BB000361FB969089808F101088847BBF1000F92
:100BC000AAF1010A0290C9D00999C1F80080C5E7CD
:100BD0000298702808D0502806D0F96908988847EC
:100BE000BBF1000F14D04FE0002002900120BBF1B8
:100BF000000F049009D0B969089808F101088847E6
:100C0000AAF10109B9F1000F07DCF96908988847D2
:100C10006FF001000BB0BDE8F08F2B2804D02D2819
:100C20000CD14FF0FF300490B969089808F1010821
:100C30008847A9F10109B9F1000FE6DD411CE4D0B4
:100C40000A2100F0AAF90028DFDB029908F1010867
:100C500001EB810100EB41000290B96908988847D7
:100C60000A2100F09AF9099AA9F10109B9F1000FD6
:100C7000C2F8008001DD0028E7DAF96908988847A2
:100C80000499029800FB016655EA040004D004F0C0
:100C90004041090002D006E0039898E0A40044EA2D
:100CA0009574AD00B61E04F00041080002D16D1924
:100CB0006441761E159810F0240F03D04FF00B09F5
:100CC0005C4803E04FF028096FF07D0082465645EE
:100CD00007DAAAEB06018944B9F1410F01DD4FF0B3
:100CE000410901200021A9F1010200F043F9024667
:100CF00028400B462140084301D0012100E000219B
:100D0000501E029143F1FF3128402140084301D099
:100D1000012000E000200299834651EA0B014FD0E8
:100D2000002108464FF00000039900F4400039B15B
:100D300000EB80004FF4400100EBD07001EA60004E
:100D40008015012802DD4FF0FF3000E013D0401C79
:100D500036D0029860B3BBF1000F0CD14A46012097
:100D6000002100F007F928402140084301D001206C
:100D700000E00020E0B101204A46002100F0FAF82E
:100D8000034640190A4661412D1A8C4111D3B9F12D
:100D9000400F09DD159810F0240F02D0AAF1340697
:100DA00003E0AAF1170600E0761C00254FF000448E
:100DB00006E05B1E42F1FF3220EA030521EA02044D
:100DC000CAF10100B04206DA1B49039808430190BA
:100DD000002000900EE0039AC4F3D321E80A0A43EE
:100DE000164940EA44500A433146CDE900026846BC
:100DF0000BF064F9159810F0240F0BD01598C0076C
:100E000015D13868DDE90012031D3B600068C0E9B8
:100E100000120CE002A869460BF04AF81598C007CA
:100E200005D13868029A011D3960006802604046A9
:100E3000F0E6000002FCFFFF0000F07F0000F03F42
:100E40002DE9FF4F92461D4685B04FF00041DDE988
:100E5000124BDDE914727F1E01EA4B50414940F00C
:100E6000FF4940EA0108002122F0200049280491AE
:100E700002D04E2828D04CE03BA0012607C88DE8C0
:100E80000700A9690698641C88477F1E014606D49E
:100E90001DF8060018B121F0200181420BD0E9694C
:100EA00006988847032E34D0082E32D06FF0010008
:100EB00009B0BDE8F08F761C032E01D0082EE0D1DA
:100EC000601CCAF80000DCE7A9690698641C884722
:100ED0007F1E2AD420F02000412826D1A969069837
:100EE000641C88477F1E20D420F020004E281CD18F
:100EF000A9690698641C88477F1E48F4002849F4B5
:100F00008009CAF8004001D4282806D0E96906986B
:100F100088475FEACB7012D022E0A9690698641C6A
:100F200088477F1E01D4002803DAE96906988847BC
:100F3000BCE72928F1D1641CCAF80040E9E71BF09E
:100F4000240F07D028680499031D2B600068C0E9AE
:100F5000001805E02868021D2A600068C0F80090AB
:100F60002046A5E70000F07F494E46494E495459B6
:100F700000000000B2F120030AD5C2F1200301FAFB
:100F800002F120FA03F300FA02F041EA030170478C
:100F900000FA03F14FF0000070473A2800D23038D1
:100FA00020F02002412A01D3A2F13700884201D368
:100FB0004FF0FF30704720F07F4C80EA030023F0B1
:100FC0007F47ACEB070303F57C5300F0004003F1CF
:100FD000FF032DE980494FEA154B09B44FEA14434A
:100FE00025EA0B4E24EA03480FF2042606EB1327EA
:100FF00049083E785FEA320203FB0667C7F500073F
:1010000007FB06F64FEA54374FEAD64606F10206CA
:1010100007FB066CCCF1005C4FEA1C472CEA074C3E
:1010200007FB06F40CFB06F504EB15464FEA961693
:1010300034BF00204FF000404FEAD13706FB07FCD9
:101040004FEA1C4C0CFB0BF7D21B03FB0CF761EBBC
:1010500007010CFB0EF7B0EB074072EB17420CFBDD
:1010600008F734BFA2EB0742B2EB074261EB17412E
:101070004FEA0C444FEA910706FB07FC4FEA1C4C71
:101080000CFB0BF7B0EBC74072EB573203FB0CF7CE
:1010900034BFA2EBC742B2EBC74261EB57310CFB46
:1010A0000EF7B0EBC70072EB57720CFB08F734BFBA
:1010B000A2EBC702B2EBC70261EB5771039F4FEA85
:1010C000816141EA921104EBCC044FEAD1374FEA37
:1010D000826206FB07FC42EA90124FEA80604FEA08
:1010E0001C4C0CFB0BF7D21B03FB0CF761EB07014D
:1010F0000CFB0EF7B0EB074072EB17420CFB08F746
:1011000034BFA2EB0742B2EB074261EB17414FEA53
:101110008C554FEA910704EB9C2406FB07FC4FEA31
:101120001C4C0CFB0BF7B0EBC74072EB573203FBC8
:101130000CF734BFA2EBC742B2EBC74261EB5731A9
:101140000CFB0EF7B0EBC70072EB57720CFB08F705
:1011500034BFA2EBC702B2EBC70261EB577115EBCC
:101160004C254FEA816141EA92114FEA82624FEACF
:10117000D13742EA901206FB07FC44F100044FEA23
:1011800080604FEA1C4C0CFB0BF7D21B03FB0CF7E7
:1011900061EB07010CFB0EF7B0EB074072EB174257
:1011A0000CFB08F734BFA2EB0742B2EB074261EB3E
:1011B000174115EB1C154FEA813141EA92414FEA84
:1011C000823242EA90424FEA80304FEA0C7644F194
:1011D000000448EA03434EEA0B484FF0000EB2EB1E
:1011E000080C71EB030724BF624639464EEB0E0E26
:1011F0004FF0000B0018524149414BEB0B0BB2EB87
:10120000080C71EB03077BF1000B24BF62463946E3
:101210004EEB0E0E4FF0000B0018524149414BEBC4
:101220000B0BB2EB080C71EB03077BF1000B24BF37
:10123000624639464EEB0E0E51EA020718BF46F0E1
:10124000010616EB0E7655F1000254F1000103D5AC
:10125000BDE88901BDE80088BDE88901BDE8004816
:10126000B619524141EB0101A3F10103704780809F
:101270007F7E7D7C7B7A79787776767574737271F0
:1012800071706F6E6E6D6C6C6B6A6A6968686766A8
:1012900066656464636362616160605F5F5E5E5D3A
:1012A0005D5C5C5B5B5A5A595958585757565655AE
:1012B00055555454535352525251515050504F4F10
:1012C0004F4E4E4D4D4D4C4C4C4B4B4B4A4A4A4960
:1012D00049494848484747474746464645454544A3
:1012E000444444434343434242424241414100005B
:1012F00046EA0646A3F570534FEA164646EA4256BA
:101300004FEAD22242EA415210B54FEAD121A3F16D
:10131000010300F017F820F0004000F1010C00F08C
:10132000004701EB00501146BCF5006F40EA070092
:1013300000D210BD02484FF0000140EA070010BD86
:101340000000F07F002B26D4770021D01CB54FEA97
:10135000370703B44FF010004FF010014FF00000BA
:101360000FBCBDE810400BF1010BBBF1010F08BF32
:101370005FEA170722BF12F1010211F101014FF0DC
:10138000004143F1000300F0004043EA00007047D1
:10139000F9D35708DAE746EA064613F1400F4FEA59
:1013A00016461FDD13F1200FDFBF16430A4600214A
:1013B00020335B42C8D0C3F1200746EA064602FA52
:1013C00007F74FEA164646EA0706C3F1200722FA56
:1013D00003F201FA07F721FA03F14FF0000342EAA2
:1013E0000702B1E746EA020646EA06464FEA164613
:1013F00046EA0106BCBF46EA0646360C4FF000033B
:101400004FF000024FF000019EE72DE9C0489346DF
:1014100030B491E8380007C831EA400C48BF34EADC
:10142000430C03D5FFF7C7FDFFF78CFFF0BCBDE809
:1014300000882DE9C048934630B491E8380007C8C9
:1014400031EA400C48BF34EA430C03D5FFF7B3FD43
:10145000FFF74EFFF0BCBDE800882DE9C048934679
:1014600030B491E8380007C810F0804F08BF13F07F
:10147000804F03D100F019F8FFF764FFF0BCBDE81E
:1014800000882DE9C048934630B491E8380007C879
:1014900010F0804F08BF13F0804F03D100F005F823
:1014A000FFF726FFF0BCBDE8008820F07F4780EA08
:1014B000030023F07F4C07EB0C03A3F57C5300F0F3
:1014C0000040A3F1FE0392F0000F00F0B38095F00E
:1014D000000F00F077802DE901494FEA11404FEAF3
:1014E000144621EA004800FB06FC24EA064708FBF4
:1014F00006F607FB08F800FB07F718EB06484CEB6D
:10150000164C4FEA124B18EB07484FEA15464CEBC6
:10151000174022EA0B4E0BFB06FC25EA06470EFBA2
:1015200006F607FB0EFE0BFB07F71EEB064E4CEB19
:10153000164C4FF000061EEB074E4CEB174B18EB0A
:101540000B0840F1000018EB0E0B58EB000840F1BF
:1015500000008F1A4FF000013CBFC943661B14BF47
:10156000B5EB040C00213CBFC943F61B4FEA1744FE
:101570004EEA8E0E27EA04454FEA1C4704FB076239
:101580002CEA074C05FB07F70CFB05F604FB0CFCEB
:1015900016EB074642EB174216EB0C4642EB1C4299
:1015A0001BEB060658EB0202414146EA9E0601D5B6
:1015B000BDE80189B619524141EB0101A3F10103D4
:1015C000BDE801894FEA14454FEA114724EA054670
:1015D00021EA074C05FB07F406FB07F70CFB06F1B5
:1015E00005FB0CFC11EB074144EB17444FEA124793
:1015F00011EB0C4144EB1C4422EA074C05FB07F2BB
:1016000006FB07F70CFB06F605FB0CFC16EB074682
:1016100042EB174216EB0C4642EB1C456A1854F19C
:10162000000148BF7047B619524141EB0101A3F1D7
:101630000103704795F0000F37D04FEA11424FEA8F
:10164000144721EA024624EA074C02FB07F106FB95
:1016500007F70CFB06F402FB0CFC14EB074441EB10
:1016600017414FEA154714EB0C4441EB1C4125EAA6
:10167000074C02FB07F506FB07F70CFB06F602FB1F
:101680000CFC16EB074645EB174516EB0C4645EBF5
:101690001C42121951F1000148BF7047B61952415E
:1016A00041EB0101A3F1010370474FEA14454FEAF2
:1016B000114724EA054621EA074C05FB07F106FB22
:1016C00007F70CFB06F24FF0000605FB0CFC12EBD3
:1016D000074241EB174112EB0C4251EB1C4148BF52
:1016E0007047921841EB0101A3F10103704721B14A
:1016F000826842F00102826003E0826822F0010207
:10170000826070470021084A1168084A1140D0E9F8
:1017100000231A4383681A43C3681A431143044AD7
:10172000C2F804137047000004230140E030FCFFBE
:10173000002001400146C86C80B27047024600207C
:1017400013680B400BB1012000E00020704700003F
:1017500030B50246002000235068104C20400D791F
:101760000C6844EA05242043506090680C4C2040EB
:10177000D1E903542C438D682C434D7944EA450448
:1017800020439060D06A20F470000C7D641EE4B2A7
:10179000234340EA0350D06230BD0000FFFEFFFC4F
:1017A000FDF7FFC0F0B504460D4600200021092DCD
:1017B00011DDE068A5F10A0606EB4607072606FAE2
:1017C00007F18843A5F10A0606EB460603FA06F17F
:1017D0000843E0600CE0206905EB4507072606FAA0
:1017E00007F1884305EB450603FA06F1084320613B
:1017F000072A0FDA606B561E06EB86071F2606FACD
:1018000007F18843561E06EB860605FA06F10843E3
:10181000606322E00D2A0FDA206BD61F06EB8607E5
:101820001F2606FA07F18843D61F06EB860605FA3F
:1018300006F10843206310E0E06AA2F10D0606EB12
:1018400086071F2606FA07F18843A2F10D0606EB6C
:10185000860605FA06F10843E062F0BD816841F0B2
:10186000804181607047000010B51448007800F096
:10187000010010B106F034FF1EE01048007800F0BF
:10188000800010B105F0B0FB16E00C48007800F0C5
:10189000100010B103F020FE0EE00848007800F0C0
:1018A000080010B106F00CF806E00448007800F0DB
:1018B000020008B108F0E8F810BD0000440500205F
:1018C00010B52148007800F0010010B106F036FF95
:1018D0001EE01D48007800F0800010B105F0B2FB5A
:1018E00016E01948007800F0100010B103F0FEFD7A
:1018F0000EE01548007800F0080010B106F070F80E
:1019000006E01148007800F0020008B102F0BAF8D1
:101910000D480EA1D0F89421104807F0E3FE0A48C4
:1019200002780FA10D4807F0DDFE074811A1D0F89D
:101930008C210A4807F0D6FE034811A1D0F8902167
:10194000064807F0CFFE10BD440500207374617493
:10195000757352656D3D256409000000005000401C
:1019600067526F626F742E7374617475733D256472
:10197000090000005369676E616C3D256409000031
:10198000636F6E74696E7565547269676765723DE1
:101990002564090D0A00000000B58DB00121042066
:1019A00005F0ACFD0121080205F0D8FD30200B90B8
:1019B00003208DF8300000208DF833000BA9164865
:1019C00003F0B6FF0121080205F0D8FD00214FF415
:1019D000807005F0D3FD002007900A9009904FF425
:1019E0008030089007A8FFF78DFE002001908DF849
:1019F00008008DF8090003900490059001208DF8EF
:101A0000180001A90548FFF7A3FE01210348FFF7CD
:101A10006EFE0DB000BD0000000802400020014035
:101A200010B52DED048BF0EE408AB0EE609AB0EE6A
:101A3000418AF0EE490AB0EE680A0AF051FB3948D3
:101A400080ED230A0421384803F0DDFFC8BB0121E3
:101A5000364803F0D8FFA0BB3248D0ED230AB0EEE1
:101A6000600A00F0A1F8DFED320A70EE209AB0EEC5
:101A7000480A00F067F839EEC00ABDEEC00A10EE61
:101A8000104A224601212B4807F004FF2548D0EDDB
:101A9000230AB0EE600A00F087F8DFED270A70EE47
:101AA000209AB0EE480A00F04DF839EE800ABDEEFB
:101AB000C00A10EE104A224602211E4807F0EAFE34
:101AC0002DE0FFE70421184803F09DFF012810D105
:101AD0000121164803F097FF58B9184A012115480B
:101AE00007F0D8FE4FF47A620221124807F0D2FEC6
:101AF00015E004210C4803F086FF80B901210B4852
:101B000003F081FF01280AD10D4A0121094807F09D
:101B1000C1FE42F6E0620221064807F0BBFEBDECC2
:101B2000048B10BD44050020001002400008024054
:101B300000409CC50068004000409C4520D1FFFF4C
:101B400060F0FFFFF0EE400A114890ED000A20EE31
:101B5000200A104890ED001AB8EEC11A30EEC11AF2
:101B60000D48D0ED001A01EE810A0C4890ED001AE4
:101B7000DFED0B1A01EE210A0A4880ED000ABDEEE6
:101B8000E00A044880ED000A064890ED000A70471C
:101B900000040020FC0300200804002004040020AE
:101BA000000000000C040020F0EE400A0E4890ED0A
:101BB000000A20EE200A0D4890ED001AB8EEC11A76
:101BC00030EEC11A0A48D0ED001A01EE810A094828
:101BD00080ED000ABDEEE00A044880ED000A0548E9
:101BE00090ED000A70470000B8030020B403002005
:101BF000BC030020C003002010B52DED028BB0EE19
:101C0000408A194890ED1E0AF0EE400AB0EE480AEC
:101C10000AF066FA154880ED000A90ED000AFFF719
:101C2000C3FFDFED130A30EE200ABDEEC00A10EE4E
:101C3000104A224601210F4807F02CFE0B4890ED78
:101C4000000AFFF7B1FFDFED0C0A30EE200ABDEE0F
:101C5000C00A10EE104A22460221064807F01AFE7A
:101C6000BDEC028B10BD0000440500206800002080
:101C700000C0DA450068004000C0DAC510B52DED9F
:101C8000028BB0EE408AF0EE608A1248D0F89800DD
:101C9000042802D0052816D10AE0DFED0F1A9FEDC7
:101CA0000F1AF0EE680AB0EE480A04F0FFFE0BE0EF
:101CB000DFED091A9FED091AF0EE680AB0EE480A46
:101CC00004F0F4FE00E000BF00BF0120BDEC028B79
:101CD00010BD000044050020000016450000000073
:101CE00010B50AF03DFA1F48D0F8A40010B900F072
:101CF00041F826E01B48D0F8A40001280AD10421AD
:101D00001848C0F89810DFED180A9FED180AFFF781
:101D1000B5FF16E01348D0F8A40002280AD1052127
:101D20001048C0F89810DFED120A9FED100AFFF777
:101D3000A5FF06E00B48D0F8A400032801DB00F063
:101D40000FF90848D0F8A400042809D10548007804
:101D500020F001000349087000210248C0F89810E3
:101D600010BD0000440500200000484400800945E3
:101D70000080894410B502F029F86B4890ED1F0AE5
:101D8000D0ED300AB4EEE00AF1EE10FA0CDD90ED81
:101D9000200AD0ED310AB4EEE00AF1EE10FA03D2D7
:101DA0000021C0F8981078E05F4890ED1F0AD0ED50
:101DB000320AB4EEE00AF1EE10FA0FDD90ED200ADF
:101DC000D0ED310AB4EEE00AF1EE10FA06DD0121A1
:101DD000C0F898100120554908605EE0524890ED27
:101DE0001F0AD0ED320AB4EEE00AF1EE10FA0CD27E
:101DF00090ED200AD0ED330AB4EEE00AF1EE10FACD
:101E000003DD0221C0F8981047E0474890ED1F0A13
:101E1000D0ED300AB4EEE00AF1EE10FA0CD290EDFB
:101E2000200AD0ED330AB4EEE00AF1EE10FA03D244
:101E30000321C0F8981030E03B4890ED200ADFED18
:101E40003C0AB4EEE00AF1EE10FA04DD9FED390A27
:101E5000FFF7D2FE21E0344890ED200ADFED360A8C
:101E6000B4EEE00AF1EE10FA04D29FED340AFFF767
:101E7000C3FE12E02C4890ED1F0ADFED310AB4EEEC
:101E8000E00AF1EE10FA04DD9FED2E0AFFF7B4FE32
:101E900003E09FED2D0AFFF7AFFE2448006818B954
:101EA00000212148C0F898101F48D0F8980030B1A0
:101EB000012810D002281AD0032830D123E00122B3
:101EC000114600209FED1F1ADFED200A9FED200A2A
:101ED00004F0FAFB24E00122114610469FED151A8A
:101EE000DFED1A0A9FED1B0A04F0EEFB18E0012259
:101EF000911E00209FED141ADFED170A9FED170ABF
:101F000004F0E2FB0CE00122911E10469FED0B1A3B
:101F1000DFED110A9FED0E0A04F0D6FB00E000BFD2
:101F200000BF012010BD0000440500206400002017
:101F300000803B450000B4420080D4440000B4C29D
:101F400000008343000000000000344300404E4581
:101F5000000016440000FAC30000AF44000016C49D
:101F600010B501F033FF664890ED1F0AD0ED340A3A
:101F7000B4EEE00AF1EE10FA0CDD90ED200AD0ED9F
:101F8000350AB4EEE00AF1EE10FA03D20621C0F8E9
:101F9000981075E05A4890ED1F0AD0ED360AB4EE5D
:101FA000E00AF1EE10FA0CDD90ED200AD0ED350AD2
:101FB000B4EEE00AF1EE10FA03DD0721C0F8981044
:101FC0005EE04F4890ED1F0AD0ED360AB4EEE00A0D
:101FD000F1EE10FA0CD290ED200AD0ED370AB4EEF3
:101FE000E00AF1EE10FA03DD0821C0F8981047E08E
:101FF000434890ED1F0AD0ED340AB4EEE00AF1EE4A
:1020000010FA0CD290ED200AD0ED370AB4EEE00AB7
:10201000F1EE10FA03D20921C0F8981030E03848E8
:1020200090ED200ADFED370AB4EEE00AF1EE10FA87
:1020300004DD9FED350AFFF7DFFD21E0304890ED2C
:10204000200ADFED320AB4EEE00AF1EE10FA04D213
:102050009FED2F0AFFF7D0FD12E0294890ED1F0AEF
:10206000DFED2C0AB4EEE00AF1EE10FA04DD9FED8C
:102070002A0AFFF7C1FD03E09FED280AFFF7BCFD28
:102080001F48D0F89800062806D0072810D0082846
:102090001AD0092830D123E00422012100209FED2D
:1020A0001E1ADFED1F0A9FED1F0A04F00DFB24E04E
:1020B0000422012108469FED141ADFED1B0A9FED53
:1020C0001B0A04F001FB18E00422511F00209FEDC1
:1020D000131ADFED170A9FED170A04F0F5FA0CE06A
:1020E0000422511F01209FED0A1ADFED130A9FED14
:1020F000130A04F0E9FA00E000BF00BF012010BDA0
:102100004405002000803B450000B4420080D444D8
:102110000000B4C20000834300000000000034430C
:10212000008054450040034500A08C45000016C4C3
:102130000000AF44004003C5000096430000164471
:1021400010B501F043FE664890ED1F0AD0ED3C0A41
:10215000B4EEE00AF1EE10FA0CDD90ED200AD0EDBD
:102160003D0AB4EEE00AF1EE10FA03D20621C0F8FF
:10217000981075E05A4890ED1F0AD0ED3E0AB4EE73
:10218000E00AF1EE10FA0CDD90ED200AD0ED3D0AE8
:10219000B4EEE00AF1EE10FA03DD0721C0F8981062
:1021A0005EE04F4890ED1F0AD0ED3E0AB4EEE00A23
:1021B000F1EE10FA0CD290ED200AD0ED3F0AB4EE09
:1021C000E00AF1EE10FA03DD0821C0F8981047E0AC
:1021D000434890ED1F0AD0ED3C0AB4EEE00AF1EE60
:1021E00010FA0CD290ED200AD0ED3F0AB4EEE00ACE
:1021F000F1EE10FA03D20921C0F8981030E0384807
:1022000090ED200ADFED370AB4EEE00AF1EE10FAA5
:1022100004DD9FED350AFFF7EFFC21E0304890ED3B
:10222000200ADFED320AB4EEE00AF1EE10FA04D231
:102230009FED2F0AFFF7E0FC12E0294890ED1F0AFE
:10224000DFED2C0AB4EEE00AF1EE10FA04DD9FEDAA
:102250002A0AFFF7D1FC03E09FED280AFFF7CCFC28
:102260001F48D0F89800062806D0072810D0082864
:102270001AD0092830D123E00422012100209FED4B
:102280001E1ADFED1F0A9FED1F0A04F01DFA24E05D
:102290000422012108469FED141ADFED1B0A9FED71
:1022A0001B0A04F011FA18E00422511F00209FEDD0
:1022B000131ADFED170A9FED170A04F005FA0CE078
:1022C0000422511F01209FED0A1ADFED130A9FED32
:1022D000130A04F0F9F900E000BF00BF012010BDAF
:1022E0004405002000803B450000B4420080D444F7
:1022F0000000B4C20000834300000000000034432B
:10230000008054450080ED4400808945000016C4DB
:102310000000AF440080EDC40000FA430000164402
:1023200010B501F053FD664890ED1F0AD0ED380A54
:10233000B4EEE00AF1EE10FA0CDD90ED200AD0EDDB
:10234000390AB4EEE00AF1EE10FA03D20621C0F821
:10235000981075E05A4890ED1F0AD0ED3A0AB4EE95
:10236000E00AF1EE10FA0CDD90ED200AD0ED390A0A
:10237000B4EEE00AF1EE10FA03DD0721C0F8981080
:102380005EE04F4890ED1F0AD0ED3A0AB4EEE00A45
:10239000F1EE10FA0CD290ED200AD0ED3B0AB4EE2B
:1023A000E00AF1EE10FA03DD0821C0F8981047E0CA
:1023B000434890ED1F0AD0ED380AB4EEE00AF1EE82
:1023C00010FA0CD290ED200AD0ED3B0AB4EEE00AF0
:1023D000F1EE10FA03D20921C0F8981030E0384825
:1023E00090ED200ADFED370AB4EEE00AF1EE10FAC4
:1023F00004DD9FED350AFFF7FFFB21E0304890ED4B
:10240000200ADFED320AB4EEE00AF1EE10FA04D24F
:102410009FED2F0AFFF7F0FB12E0294890ED1F0A0D
:10242000DFED2C0AB4EEE00AF1EE10FA04DD9FEDC8
:102430002A0AFFF7E1FB03E09FED280AFFF7DCFB28
:102440001F48D0F89800062806D0072810D0082882
:102450001AD0092830D123E00122114600209FED37
:102460001E1ADFED1F0A9FED1F0A04F02DF924E06C
:102470000122114610469FED141ADFED1B0A9FED55
:102480001B0A04F021F918E00122911E00209FEDA3
:10249000131ADFED170A9FED170A04F015F90CE087
:1024A0000122911E10469FED0A1ADFED130A9FEDDF
:1024B000130A04F009F900E000BF00BF012010BDBD
:1024C0004405002000803B450000B4420080D44415
:1024D0000000B4C200008343000000000000344349
:1024E000008054450000484400C05A45000016C40E
:1024F0000000AF44000048C40000964400001644A9
:1025000010B504461D48D0F8980190B914B1012CBB
:102510000ED102E005F004FF0AE005211748C0F8DB
:102520009810DFED170A9FED170A02F0DDF900BFE2
:1025300023E01248D0F8980101281ED114B1012CD3
:102540001AD102E0FFF7FCFD16E005210B48C0F8A8
:1025500098100DA10F4807F0C5F80BA10D4807F022
:10256000C1F809A10B4807F0BDF8DFED050A9FEDA2
:10257000050AFFF783FB00BF00BF10BD4405002024
:1025800000004844004003456868686868680D0AB0
:10259000000000000050004010B52E4890ED000AE9
:1025A000DFED2D0AB4EEE00AF1EE10FA23DD90ED36
:1025B000000ADFED2A0AB4EEE00AF1EE10FA1AD2B0
:1025C000274890ED000ADFED270AB4EEE00AF1EEAD
:1025D00010FA10DD90ED000ADFED230AB4EEE00AF8
:1025E000F1EE10FA07D22148D0ED1E0AB0EE600AD3
:1025F00000F03EF82CE0174890ED000ADFED160AD7
:10260000B4EEE00AF1EE10FA1BD390ED000ADFED14
:10261000130AB4EEE00AF1EE10FA12DC104890ED65
:10262000000ADFED100AB4EEE00AF1EE10FA08D36A
:1026300090ED000ADFED0C0AB4EEE00AF1EE10FABC
:1026400006DD0A48D0ED1E0AB0EE600A00F012FA6C
:1026500010BD0000C00000200000AFC40000AF4467
:10266000C40000200000614400C073454405002000
:1026700010B52DED068BB0EE408ADF480068401C97
:10268000DD490860DD48006830B1012879D00228B2
:1026900076D0032872D142E10020D7490860D8489B
:1026A00090ED1F0AD74880ED000AD54890ED200A2A
:1026B000D54880ED000AD248D0F8B000012807D1F3
:1026C0009FEDD20A38EE400AD14880ED000A0AE0B8
:1026D000CB48D0F8B00030B99FEDCC0A38EE000AF4
:1026E000CB4880ED000ACA4890ED000ADFEDC90A28
:1026F000B4EEE00AF1EE10FA08DD90ED000ADFED2D
:10270000C60A30EE600A80ED000A11E0C04890ED84
:10271000000ADFEDC20AB4EEE00AF1EE10FA07D2C9
:1027200090ED000ADFEDBC0A30EE200A80ED000AD1
:10273000B2480068401CB1490860B54890ED000AF5
:10274000BDEEC00A10EE102AB5A1B74806F0CAFFC8
:10275000AF4890ED000ABDEEC00A10EE102AB0A1FD
:10276000B14806F0BFFFAA4890ED000ABDEEC00ACE
:1027700010EE102AAAA1AC4806F0B4FF14E100E064
:102780006EE000209C490860A8480068401CA749EA
:102790000860A74A0121A74807F07CF841F270724F
:1027A0000221A44807F076F8A34800680CF058F915
:1027B00041EC1A0BB0EE4A0AF0EE6A0A07F018FF75
:1027C000B0EE409AF0EE609A9FED9C0B53EC102B0C
:1027D00051EC190B0BF012FE05D20220874908605C
:1027E00000208549086091480068642816DD0020B3
:1027F0008E49086081480068401C80490860804814
:1028000090ED1F0A7F4880ED000A7D4890ED200A78
:102810007D4880ED000A0020774908607C4890EDF3
:10282000000ABDEEC00A10EE102A86A17E4806F00E
:1028300059FF774890ED000ABDEEC00A10EE102A4D
:1028400080A1794806F04EFF714890ED000ABDEE78
:10285000C00A10EE102A7BA1734806F043FFA3E0E4
:10286000754890ED000AFFF79FF9BDEEC00A10EE23
:10287000104A224601216F4807F00CF86E4890ED8F
:10288000000AFFF791F9BDEEC00A10EE104A224689
:102890000221684806F0FEFF674800680CF0E0F887
:1028A00041EC1A0BB0EE4A0AF0EE6A0A07F0A0FEFD
:1028B000B0EE409AF0EE609A9FED600B53EC102B57
:1028C00051EC190B0BF09AFD07D24C480068401CE4
:1028D0004A4908600020484908604D4890ED000AC8
:1028E000BDEEC00A10EE102A58A14F4806F0FAFEBD
:1028F000474890ED000ABDEEC00A10EE102A53A121
:10290000494806F0EFFE424890ED000ABDEEC00ACD
:1029100010EE102A4DA1444806F0E4FE44E042F2D5
:1029200010720121434806F0B5FF4A4A022141488E
:1029300006F0B0FF324890ED200AF0EE401A90ED1C
:102940001F0AB0EE401A3048D0ED000A2D4890ED35
:10295000000A02F051FDB0EE409AF0EE609A9FED51
:102960003E0B53EC102B51EC190B0BF081FE0ED2E9
:102970002348007820F020002149087000201F49DA
:1029800008601D49086001211D48C0F89C1134A150
:10299000254806F0A7FE32A1234806F0A3FE30A189
:1029A000214806F09FFE00BF00BFF0EE480A18481D
:1029B00090ED000A09F094FB1F4880ED000A0F48D3
:1029C00029A10268184806F08DFE0B480068FA2815
:1029D0000EDD0B48007820F0200009490870002027
:1029E000064908600449086001210548C0F89C11A7
:1029F000BDEC068B10BD0000F8000020EC000020AC
:102A000044050020E4000020E800002000003442DB
:102A1000F0000020000034430000B443000034C341
:102A2000676574256409000000500040FC00002028
:102A300090E8FFFF00680040F40000200000000064
:102A400000001440676574322564090067657433BB
:102A500025640900F0D8FFFF0000000000C07240AC
:102A6000676574340900000065703D2564090D0A2E
:102A70000000000010B52DED068BB0EE408ADB485B
:102A80000068401CD9490860F0EE480AD84890ED2B
:102A9000000A09F025FBD74880ED000AD6480068F7
:102AA00030B1012876D0022873D003286FD13BE1E2
:102AB000D24890ED1F0AD24880ED000ACF4890ED31
:102AC000200AD04880ED000ACC48D0F8B000012898
:102AD00007D19FEDCD0A38EE000AC54880ED000A07
:102AE0000AE0C648D0F8B00030B99FEDC70A38EE0A
:102AF000400ABF4880ED000ABD4890ED000ADFEDB6
:102B0000C30AB4EEE00AF1EE10FA08DD90ED000A17
:102B1000DFEDBF0A30EE600A80ED000A11E0B44834
:102B200090ED000ADFEDBB0AB4EEE00AF1EE10FA18
:102B300007D290ED000ADFEDB60A30EE200A80EDF4
:102B4000000AAD480068401CAB490860A84890EDF9
:102B5000000ABDEEC00A10EE102AAFA1B04806F080
:102B6000C1FDA34890ED000ABDEEC00A10EE102A88
:102B7000A9A1AB4806F0B6FD9D4890ED000ABDEE58
:102B8000C00A10EE102AA4A1A54806F0ABFD10E182
:102B900000E06AE0A3480068401CA2490860A24A1D
:102BA0000121A24806F076FE42F2107202219F48EF
:102BB00006F070FE8F4800680BF052FF41EC1A0BD4
:102BC000B0EE4A0AF0EE6A0A07F012FDB0EE409A43
:102BD000F0EE609A9FED960B53EC102B51EC190B15
:102BE0000BF00CFC05D202208349086000207F49CD
:102BF00008608C480068642815DD7F480068401C28
:102C00007D4908607D4890ED1F0A7D4880ED000AEF
:102C10007A4890ED200A7B4880ED000A0020734935
:102C2000086080490860724890ED000ABDEEC00A55
:102C300010EE102A80A17A4806F054FD6C4890ED01
:102C4000000ABDEEC00A10EE102A7BA1744806F0FF
:102C500049FD674890ED000ABDEEC00A10EE102A4B
:102C600075A16F4806F03EFDA3E0624890ED000AB2
:102C7000FEF79AFFBDEEC00A10EE104A224601216F
:102C80006A4806F007FE5B4890ED000AFEF78CFFED
:102C9000BDEEC00A10EE104A22460221634806F03B
:102CA000F9FD544800680BF0DBFE41EC1A0BB0EE66
:102CB0004A0AF0EE6A0A07F09BFCB0EE409AF0EE8A
:102CC000609A9FED5B0B53EC102B51EC190B0BF042
:102CD00095FB07D248480068401C4749086000201F
:102CE00042490860424890ED000ABDEEC00A10EE6D
:102CF000102A53A14A4806F0F5FC3D4890ED000A21
:102D0000BDEEC00A10EE102A4DA1454806F0EAFCBF
:102D1000374890ED000ABDEEC00A10EE102A48A117
:102D20003F4806F0DFFC44E042F2107201213F48C8
:102D300006F0B0FD3C4A02213C4806F0ABFD2F48AE
:102D400090ED200AF0EE401A90ED1F0AB0EE401A06
:102D50002C48D0ED000A2A4890ED000A02F04CFB06
:102D6000B0EE409AF0EE609A9FED370B53EC102BCB
:102D700051EC190B0BF07CFC0ED22048007820F0AF
:102D800020001E49087000201B4908601749086090
:102D900001211A48C0F89C112DA1214806F0A2FC7F
:102DA0002BA11F4806F09EFC29A11D4806F09AFCA5
:102DB00000BF00BF104828A10268194806F092FC25
:102DC0000A480068FA280EDD0C48007820F0200040
:102DD0000A49087000200849086004490860012178
:102DE0000648C0F89C11BDEC068B10BD14010020F4
:102DF0000C010020100100200801002044050020E3
:102E0000000100200401002000003442000034438F
:102E10000000B443000034C36765742564090000F2
:102E20000050004018010020F0D8FFFF006800406B
:102E3000000000000000144067657432256409003A
:102E400067657433256409000000000000C072400B
:102E5000676574340900000065703D2564090D0A3A
:102E6000000000001CB50121102004F047FB802069
:102E7000009001208DF8040000208DF8060003204A
:102E80008DF8050002208DF807006946034802F01E
:102E90004FFD8021014802F0BFFD1CBD0010024023
:102EA00000BFFEE710B53F4803783F4A3F4940481E
:102EB00000F0B4FC3D480068302803D13A49087856
:102EC0000AF0BCFD3948006840F28721884215D1DC
:102ED0003548006845F6500188420FD1324890EDE0
:102EE000010AB8EEC00ADFED330A20EE200ADFED5A
:102EF000320A80EE201A314880ED061A2B4800680D
:102F0000B0F5227F0DD12848006845F65601884269
:102F100007D1254890ED010AB8EEC00A274880ED98
:102F20006C0A2248006840F2862188420DD11E4872
:102F3000006845F65001884207D11B4890ED010A10
:102F4000B8EEC00A1D4880ED0B0A1D49184800F074
:102F5000B7F81B49491C164800F0B2F81849C91CBB
:102F6000134800F0ADF81749114800F0A9F81649C8
:102F70000F4800F0A5F815490D4800F0A1F81349D5
:102F800008310B4800F09CF81149094800F098F806
:102F90001049074800F094F80E490831044800F041
:102FA0008FF810BD7C0400207404002080040020F1
:102FB000006400400000B442000080454405002049
:102FC0000100F0107000F030030000120800003221
:102FD00003000014080000341CB52E4803786A462C
:102FE0002D492E4800F01AFC2B48006840F282213F
:102FF00088420BD145F656010098884206D19DEDD6
:10300000010AB8EEC00A264880ED180A2248006876
:1030100040F28121884210D122480068401C214999
:10302000086045F656010098884206D19DED010AD8
:10303000B8EEC00A1A4880ED1B0A1B49174800F079
:103040003FF81949491C154800F03AF81649C91CBF
:10305000124800F035F81549104800F031F81449CD
:103060000E4800F02DF813490C4800F029F81149DA
:1030700008310A4800F024F80F49084800F020F809
:103080000E49064800F01CF80C490831034800F0CE
:1030900017F81CBD8804002084040020006800404C
:1030A00044050020540400200100F0107000F030AE
:1030B000030000120800003203000014080000346E
:1030C00000220C4B994202D10023836111E0C1F32D
:1030D000130201F000730BB1C2600AE001F08063DB
:1030E0000BB1026105E001F000630BB1826000E00A
:1030F000426070477000F0302DE9F04F8BB006460B
:103100000F4614461D46DDF850804FF00009CA46B0
:10311000CB46B5F5807F43D012DC102D34D008DCCF
:10312000012D25D0022D26D0042D27D0082D4FD1DA
:1031300027E0202D2BD0402D2CD0802D48D12CE005
:10314000B5F5805F38D009DCB5F5007F2BD0B5F53B
:10315000806F2BD0B5F5006F3AD12AE0B5F5005F4E
:103160002DD0B5F5804F2DD0B5F5004F30D12CE0E6
:103170004FF000092DE04FF001092AE04FF002095D
:1031800027E04FF0030924E04FF0040921E04FF05D
:1031900005091EE04FF006091BE04FF0070918E093
:1031A0004FF0080915E04FF0090912E04FF00A0945
:1031B0000FE04FF00B090CE04FF00C0909E04FF065
:1031C0000D0906E04FF00E0903E04FF00F0900E093
:1031D00000BF00BFB8F5807F4BD01ADCB8F1100FEC
:1031E0003BD00CDCB8F1010F2BD0B8F1020F2BD083
:1031F000B8F1040F2BD0B8F1080F52D12AE0B8F182
:10320000200F2DD0B8F1400F2DD0B8F1800F48D14C
:103210002CE0B8F5805F38D009DCB8F5007F2BD002
:10322000B8F5806F2BD0B8F5006F3AD12AE0B8F529
:10323000005F2DD0B8F5804F2DD0B8F5004F30D1BC
:103240002CE04FF0000A2DE04FF0010A2AE04FF089
:10325000020A27E04FF0030A24E04FF0040A21E0BD
:103260004FF0050A1EE04FF0060A1BE04FF0070A78
:1032700018E04FF0080A15E04FF0090A12E04FF08D
:103280000A0A0FE04FF00B0A0CE04FF00C0A09E0BD
:103290004FF00D0A06E04FF00E0A03E04FF00F0A60
:1032A00000E000BF00BF7F48304418B1B0F5806F28
:1032B0001AD10CE04FF0090B00208DF812001420F9
:1032C0008DF804000121480604F028F90DE04FF0C4
:1032D000090B0E208DF8120040208DF8040001210A
:1032E000000504F01BF900E000BF00BFC4F30900B3
:1032F00078BBA012A0F580108038092834D2DFE80E
:1033000000F0050A0F14191E23292E00012108467A
:1033100004F0F4F829E00121022004F0EFF824E0A1
:103320000121042004F0EAF81FE00121082004F044
:10333000E5F81AE00121102004F0E0F815E0012181
:10334000202004F0DBF810E00121402004F0D6F842
:103350000BE009E00121802004F0D0F805E0012114
:10336000080204F0CBF800E000BF00BF5A4649460F
:10337000204602F025FB5A465146204602F020FB2B
:1033800045EA0800099002208DF828008DF82900F0
:1033900000208DF82A0001208DF82B0009A9204675
:1033A00002F0C6FA304600F07FF800208DF81E00CB
:1033B0008DF81F008DF820008DF821008DF8220077
:1033C0008DF823008DF81A008DF81B000B208DF866
:1033D0001C0007208DF81D007D2F22D008DC0A2F4D
:1033E0000FD0142F11D0322F13D0642F29D114E015
:1033F000FA2F1AD0B7F5FA7F1BD0B7F57A7F20D114
:103400001BE0C820ADF818001CE06420ADF81800DF
:1034100018E02820ADF8180014E01420ADF81800CA
:1034200010E01020ADF818000CE00820ADF81800EE
:1034300008E00420ADF8180004E00220ADF8180000
:1034400000E000BF00BF06A9304600F0D6F800201B
:103450008DF8130001208DF814000020ADF808004D
:10346000ADF80A00ADF80C00ADF80E00ADF8100094
:1034700001208DF8150002A800F032F802208DF826
:10348000050003208DF8060001208DF8070001A833
:1034900003F0C6FA01220221304600F0A5F80BB075
:1034A000BDE8F08F009CFFBF10B504460B48844276
:1034B00009D10121480604F041F800214FF00070C5
:1034C00004F03CF808E00121880604F037F80021F8
:1034D0004FF0806004F032F810BD0000006400403E
:1034E00010B50021837A012202FA03F13D4A1268E5
:1034F00042F001023B4B1A603A4A1C3212688A437E
:10350000384B1C331A60027BCAB9364A0C32126837
:103510008A43344B0C331A604288C38842EA03431F
:10352000304A4032847A42F834300288838842EA52
:1035300003432C4A4032847A02EBC4025360027B7C
:10354000012A19D1274A0C3212680A43254B0C3341
:103550001A604288038842EA0343224A4032847A4E
:1035600042F83430C288838842EA03431D4A40321D
:10357000847A02EBC4025360C27A3AB9194A121D26
:1035800012688A43174B1B1D1A6006E0154A121D6C
:1035900012680A43134B1B1D1A60028932B9114A83
:1035A000143212688A430F4B14331A600289012ABD
:1035B00006D10C4A143212680A430A4B14331A60BB
:1035C000427B012A06D1074A1C3212680A43054B86
:1035D0001C331A60034A126822F00102014B1A6080
:1035E00010BD0000006600401AB143690B434361FF
:1035F00002E043698B434361704730B502460020C7
:103600000023146824F002041460146844F00104D8
:10361000146000E05B1C546804F001041CB94FF610
:10362000FF74A342F6D1546804F001040CB90020E1
:103630006CE08C79012C04D1146844F0800414608F
:1036400003E0146824F080041460CC79012C04D1C8
:10365000146844F04004146003E0146824F040044B
:1036600014600C7A012C04D1146844F02004146016
:1036700003E0146824F0200414604C7A012C04D177
:10368000146844F01004146003E0146824F010047B
:1036900014608C7A012C04D1146844F0080414607E
:1036A00003E0146824F008041460CC7A012C04D1DF
:1036B000146844F00404146003E0146824F0040463
:1036C00014608C78A407CD7844EA05640D7944EA47
:1036D00005444D7944EA05540D886D1E2C43D46190
:1036E000146824F001041460002300E05B1C54689B
:1036F00004F001041CB14FF6FF74A342F6D15468E4
:1037000004F001040CB1002000E0012030BD0246AD
:10371000002019B9D36803F0030006E0012903D1A2
:10372000136903F0030000E00020704710B500F5B6
:10373000D87303EB01131B6803F004031372137AAD
:1037400053B900F5D87303EB01131B6840F2FF7403
:1037500004EA5353136009E000F5D87303EB011337
:103760001B686FF0604404EAD303536000F5D8731C
:1037700003EB01131B6803F00203537200F5D873C7
:1037800003EB01135B6803F00F03937200F5D8732A
:1037900003EB01135B681B0AD37400F5D87303EBCA
:1037A00001139B68D37200F5D87303EB01139B6878
:1037B0001C0A147300F5D87303EB01139B681C0CEF
:1037C000547300F5D87303EB01139B681B0E9373BE
:1037D00000F5D87303EB0113DB68D37300F5D873DE
:1037E00003EB0113DB681C0A147400F5D87303EBB8
:1037F0000113DB681C0C547400F5D87303EB011340
:10380000DB681B0E937421B9C36843F02003C360C7
:1038100003E0036943F02003036110BD2DE9F0418B
:1038200086B080460D4616461F46002400214046BD
:10383000FFF76DFF18B9002006B0BDE8F08101AABE
:1038400000214046FFF772FF002405E00DF10F0054
:10385000005D3055601CC4B2BC42F7DB01982860A3
:103860000120E9E710B502460020936803F0806369
:10387000B3F1806F00D110E0936803F00063B3F1FF
:10388000006F01D1012008E0936803F08053B3F189
:10389000805F01D1022000E00420042874D002F5EA
:1038A000C07303EB00131B6803F0010402F5C0733F
:1038B00003EB00131C600B7A7BB94B7A0C8843EA4C
:1038C000445302F5C07404EB00142468234302F54A
:1038D000C07404EB0014236010E00B7A4C6843EAD8
:1038E000C4034C7A234302F5C07404EB001424682B
:1038F000234302F5C07404EB001423608B7A03F0B9
:103900000F038B7202F5C07303EB00135B6823F0A7
:103910000F0402F5C07303EB00135C6002F5C07383
:1039200003EB00135B688C7A234302F5C07404EB4D
:10393000001463608B7B1C064B7B44EA03440B7BC7
:1039400044EA0323CC7A234302F5C07404EB001449
:10395000A3608B7C1C064B7C44EA03440B7C44EA4A
:103960000323CC7B234302F5C07404EB0014E36013
:1039700002F5C07303EB00131B6843F0010402F56A
:10398000C07303EB00131C6010BD000010B50246AD
:10399000002321B1012907D002290FD109E0906845
:1039A0001D4C00EA04030BE090681C4C00EA040381
:1039B00006E090681A4C00EA040301E0002300BF0F
:1039C00000BF184C181BA34216D007DC83B16FF060
:1039D0008060184470B1022818D111E0B0F5007F62
:1039E00010D0114C204448B1B0F5003F0ED10BE08F
:1039F00002230DE000230BE0002309E0002307E091
:103A0000012305E0012303E0012301E0002300BFBF
:103A100000BFD8B210BD000003000004000300087E
:103A200000000310000100080001FFF72DE9F0433A
:103A300085B081460D4690461E46002400950195AE
:103A400000208DF808008DF809008DF80A6000BF8D
:103A500006E018F804100DF10B000155601C84B24B
:103A6000B442F6DB69464846FFF7FCFE07460024F1
:103A700000BF39464846FFF789FF0128F9D105B054
:103A8000BDE8F08310B502F003FA01280ED100F072
:103A9000DFFC0749C1F8D0010846007820F040005B
:103AA00008700846007840F02000087010BD000043
:103AB0004405002010B588B004460121082003F019
:103AC0001DFD0121480403F029FD0722052124489A
:103AD00001F076FF07220621214801F071FF6020E6
:103AE000069002208DF81C008DF81D0000208DF836
:103AF0001E0001208DF81F0006A9194801F018FFCB
:103B000002940020ADF80C00ADF80E00ADF81000E6
:103B1000ADF814000C20ADF8120002A9114805F010
:103B200077FD40210F4805F08FFC26208DF804001A
:103B300000208DF8050002208DF8060001208DF888
:103B4000070001A802F06CFF012240F22551054850
:103B500005F039FD0121034805F08EFC08B010BDC9
:103B6000000C02400044004070B52DED0C8BB0EE0F
:103B7000409AF0EE609AB0EE41AA04468C4890ED6F
:103B8000000A60EE000AB1EE001A80EE810A894850
:103B9000D0ED000A90ED001A00EE810A10EE105AE6
:103BA00028460AF05DFF41EC1C0BB0EE4C0AF0EE2B
:103BB0006C0A07F0E5FCB0EE40BAF0EE60BA51ECEA
:103BC0001B0B0AF03FF90AEE900ADFED7B0A8AEE42
:103BD000200ADFED7A0A20EE200AB0EE40DA9FEDEF
:103BE000780A3AEE000AB0EE408A9FED750A3AEE86
:103BF000000AF0EE408A9FED700AB4EEC08AF1EE42
:103C000010FA06DB9FED6F0A38EE400AB0EE408AEC
:103C10000CE09FED6D0AB4EEC08AF1EE10FA05D803
:103C20009FED680A38EE000AB0EE408A9FED620A06
:103C3000F4EEC08AF1EE10FA06DB9FED620A38EE70
:103C4000C00AF0EE408A0CE09FED5F0AF4EEC08AF5
:103C5000F1EE10FA05D89FED5B0A38EE800AF0EE1F
:103C6000408A5348D0ED000AB0EE001A80EE810A77
:103C70005048D0ED000A80EE201AB0EE41BAB0EE06
:103C80004B0A06F0DDFA9FED4C1AC8EE010A9FEDD3
:103C90004B1A10EE810AB0EE408A4548D0ED000A7A
:103CA000B0EE001A80EE810A4248D0ED000A80EEA4
:103CB000201AB0EE41BAB0EE4B0A06F0C1FA9FED01
:103CC0003E1AC8EE810A9FED3D1A00EE810AF0EE21
:103CD000408A374890ED000AF0EE000A80EE20BAE4
:103CE000B0EE4D0A06F0DCFBF0EE490A4BEE400A5E
:103CF000C4ED020A2E4890ED000AF0EE000A80EEB4
:103D000020BAB0EE4D0A07F073FBF0EE690A4BEEF5
:103D1000400AC4ED030A264890ED000AF0EE000ABE
:103D200080EE20BAB0EE4D0A06F0BAFBF0EE490A7A
:103D30004BEE000AC4ED040A1D4890ED000AF0EEB7
:103D4000000A80EE20BAB0EE4D0A07F051FBF0EE0B
:103D5000690A4BEE000AC4ED050AB0EE680A06F0E7
:103D60009FFBF0EE490A4AEE800AC4ED000AB0EE6D
:103D7000680A07F03DFBF0EE690A4AEE800AC4EDDE
:103D8000010AB0EE480A06F08BFBF0EE490A4AEE53
:103D9000800AC4ED060AB0EE480A07F029FBF0EEEF
:103DA000690A4AEE800AC4ED070ABDEC0C8B70BDAF
:103DB000400100203C01002000003443DB0F49405B
:103DC0000000B4420000B443000034C35D48D0F8A2
:103DD000B000E8BB5B48D0F8A40088B99FED5A0A50
:103DE000584880ED300A9FED590A80ED310A9FED69
:103DF000580A80ED320A9FED570A80ED330A14E02D
:103E00005048D0F8A40080B19FED530A4D4880ED92
:103E1000340A9FED520A80ED350A9FED510A80ED7C
:103E2000360A9FED500A80ED370A4648D0F8400127
:103E3000012859D19FED4C0A424880ED380A9FED88
:103E40004B0A80ED390A9FED4A0A80ED3A0A00E0FC
:103E500004E09FED480A80ED3B0A45E03948D0F880
:103E6000B000012840D13748D0F8A40088B99FEDB0
:103E7000380A344880ED300A9FED340A80ED310A6B
:103E80009FED310A80ED320A9FED320A80ED330A50
:103E900014E02C48D0F8A40080B19FED370A2948DF
:103EA00080ED340A9FED350A80ED350A9FED340A26
:103EB00080ED360A9FED330A80ED370A2148D0F8AD
:103EC0004001012810D19FED2A0A1E4880ED380AD2
:103ED0009FED260A80ED390A9FED230A80ED3A0A0C
:103EE0009FED240A80ED3B0A1648D0F8980188B966
:103EF0009FED190A134880ED3C0A9FED180A80EDEA
:103F00003D0A9FED170A80ED3E0A9FED160A80EDEF
:103F10003F0A15E00B48D0F89801012810D19FED19
:103F2000160A084880ED3C0A9FED140A80ED3D0A10
:103F30009FED130A80ED3E0A9FED120A80ED3F0AC5
:103F400070470000440500200000C8C2004035450D
:103F50000000C8420080ED4400C08AC400E05D4516
:103F600000C08A4400409C44000048C300C0414552
:103F7000000048430000C8440000614400404E4532
:103F8000000061C40080BB4410B52DED048BFE48D9
:103F90000068401CFC490860FC48006803287DDB81
:103FA00009F034FAFA48D0ED1F0A30EEC00A10EEDC
:103FB000104A20460AF054FD41EC190BB0EE490AB4
:103FC000F0EE690A06F014FBB0EE408AF0EE608A6B
:103FD0009FEDF00B53EC102B51EC180B0AF00EFA7E
:103FE00044D209F019FAEA48D0ED200A30EEC00AAE
:103FF00010EE104A20460AF033FD41EC190BB0EEEA
:10400000490AF0EE690A06F0F3FAB0EE408AF0EEE3
:10401000608A9FEDE00B53EC102B51EC180B0AF06B
:10402000EDF923D209F0C6F8B0EE408A09F0D6F8CF
:1040300038EE000ADFEDD90AB4EEE00AF1EE10FA2C
:1040400014D209F0B7F8B0EE408A09F0C7F838EE9C
:10405000000ADFEDD30AB4EEE00AF1EE10FA05DD56
:10406000D0480068401CCF49086002E00020CD49DC
:10407000086009F0CBF9C648D0ED1F0A30EEC00A3F
:1040800010EE104A20460AF0EBFC41EC190BB0EEA2
:10409000490AF0EE690A06F0ABFA00E08BE0B0EEF8
:1040A000408AF0EE608A9FEDBB0B53EC102B51EC75
:1040B000180B0AF0A3F935D209F0AEF9B448D0EDE7
:1040C000200A30EEC00A10EE104A20460AF0C8FC62
:1040D00041EC190BB0EE490AF0EE690A06F088FAD5
:1040E000B0EE408AF0EE608A9FEDAA0B53EC102BE5
:1040F00051EC180B0AF082F914D209F05BF8B0EE1B
:10410000408A09F06BF838EE000ADFEDA50AB4EE3C
:10411000E00AF1EE10FA05D2A3480068401CA2495B
:10412000086002E00020A04908609E4800689628C8
:1041300003DD0120BDEC048B10BD9B480068B0F589
:10414000C87F08DD0020984908608F4908609549BC
:1041500008600220EEE78D4894A10268964805F0B9
:10416000C1FA09F053F9BDEEC00A10EE104A22461A
:1041700092A1914805F0B6FA09F04EF9BDEEC00AD9
:1041800010EE104A22468FA18B4805F0ABFA854805
:104190008EA10268884805F0A5FA83488FA10268BD
:1041A000854805F09FFA784890A10268824805F09A
:1041B00099FA0020BEE709F029F97548D0ED1F0AE9
:1041C00030EEC00A10EE104A20460AF049FC41ECDD
:1041D000190BB0EE490AF0EE690A06F009FAB0EEE2
:1041E000408AF0EE608A9FED6B0B53EC102B51EC84
:1041F000180B0AF003F933D209F00EF96448D0ED38
:10420000200A30EEC00A10EE104A20460AF028FCC0
:1042100041EC190BB0EE490AF0EE690A06F0E8F934
:10422000B0EE408AF0EE608A9FED5A0B53EC102BF3
:1042300051EC180B0AF0E2F812D204216E4801F09A
:10424000E2FB20B104216C4801F0DDFB40B9564887
:104250000068401C5449086000205249086002E090
:1042600000205149086009F0D1F84948D0ED1F0AF3
:1042700030EEC00A10EE104A20460AF0F1FB41EC85
:10428000190BB0EE490AF0EE690A06F0B1F9B0EE8A
:10429000408AF0EE608A9FED3F0B53EC102B51ECFF
:1042A000180B0AF0ABF835D209F0B6F83848D0ED63
:1042B000200A30EEC00A10EE104A20460AF0D0FB69
:1042C00041EC190BB0EE490AF0EE690A06F090F9DC
:1042D000B0EE408AF0EE608A9FED2E0B53EC102B6F
:1042E00051EC180B0AF08AF814D20421424801F06C
:1042F0008AFB01280ED10121404801F084FB0128EE
:1043000008D128480068401C26490860002026493A
:10431000086002E0002023490860224800681E2847
:1043200008DD00201F490860174908601749086028
:104330000120FFE61C48006896280BDD00201A4982
:1043400008601149086011480068401C0F49086066
:104350000220EFE60D482AA10268174805F0C2F9CD
:1043600009F054F8BDEEC00A10EE104A224613A11F
:10437000114805F0B7F909F04FF8BDEEC00A10EE8C
:10438000104A22460FA141E0100000201400002036
:104390004405002000000000000008400090974500
:1043A00000709445080000200C00002067616E69D1
:1043B0006E69313D256409000050004067657478DE
:1043C000256409006765747925640900616761697E
:1043D0006E737454696D65256409000061676169D5
:1043E0006E73744572726F7225640900746F746124
:1043F0006C2564090D0A000000100240000802400C
:1044000067616E696E69323D256409000C4805F0EC
:1044100069F90C48AFF24C010268094805F062F9ED
:104420000948AFF248010268054805F05BF9074802
:10443000AFF248010268024805F054F9002079E61D
:1044400000500040080000200C0000201000002058
:104450002DE9F0432DED048B91B0954890ED1F0AA6
:10446000B0EE408A90ED200AF0EE408A90ED1E0AF0
:10447000B0EE409A202109A8FBF756FF00200590D6
:1044800006900790089001900290039004900024F9
:10449000002609A8B0EE491AF0EE680AB0EE480A04
:1044A000FFF762FB00274FF003082CE000254FF0D8
:1044B000030924E0DFF8FCC10CEBC9000CEBC501DB
:1044C0000DF1240C0CEBC8020CEBC703D0ED013A44
:1044D00090ED003AD1ED012A91ED002AD2ED011ABA
:1044E00092ED001AD3ED010A93ED000A00F002F9F3
:1044F00018B1012005A941F82500A9466D1C032D1E
:10450000D8DDB8467F1C032FD0DD00274FF003080D
:104510002CE000254FF0030924E0DFF89CC10CEBF0
:10452000C9000CEBC5010DF1240C0CEBC8020CEB1F
:10453000C703D0ED013A90ED003AD1ED012A91ED9B
:10454000002AD2ED011A92ED001AD3ED010A93ED83
:10455000000A00F0CFF818B1012001A941F82500A8
:10456000A9466D1C032DD8DDB8467F1C032FD0DD76
:104570000598012808D00698012805D00798012839
:1045800002D00898012801D1022400E00024022C66
:104590000ED00198012808D00298012805D0039870
:1045A000012802D00498012801D1012400E0002450
:1045B000022C20D1DDE90501084407990844089937
:1045C000084402283BD1DDE90501084402280ED049
:1045D000DDE906010844022809D0DDE907010844A5
:1045E000022804D0059908980844022801D102261F
:1045F00025E0002623E0012C20D1DDE9010108445B
:104600000399084404990844022818D1DDE90101FE
:10461000084402280ED0DDE902010844022809D02E
:10462000DDE903010844022804D0019904980844F4
:10463000022801D1012602E0002600E00026022C1B
:1046400003D102201D49086009E0012C03D101209B
:104650001A49086003E014B903201849086026B914
:1046600016480068154908600AE0012E03D10420AD
:104670001249086004E0022E02D105200F490860AB
:1046800032460FA1124805F02DF8224611A110481C
:1046900005F028F8094813A102680D4805F022F832
:1046A0000648006811B0BDEC048BBDE8F083000043
:1046B00044050020A000002080000020C800002049
:1046C000737469636B436F726E6F723D256409008A
:1046D00000500040696E746572736563743D2564B3
:1046E00009000000737469636B5374617475733DE2
:1046F0002564090010B52DED080B2DED048B9DED03
:104700000A0ADDED060A30EE600ADDED050A9DEDD0
:10471000071A70EEC10A20EE200ADDED040A9DEDB5
:10472000061A70EEC10A9DED0B1ADDED071A31EE87
:10473000611A00EEC10ADDED080A9DED061A70EE61
:10474000C10A9DED051ADDED071A31EE611A60EE22
:10475000810A9DED041ADDED061A31EE611ADDEDD8
:10476000091A9DED072A71EEC21A41EE610A20EE88
:10477000200AB0EE408A9DED040ADDED0A0A30EE13
:10478000600ADDED090A9DED0B1A70EEC10A20EEFC
:10479000200ADDED080A9DED0A1A70EEC10A9DEDB2
:1047A000051ADDED0B1A31EE611A00EEC10ADDEDDE
:1047B000060A9DED0A1A70EEC10A9DED091ADDED9B
:1047C0000B1A31EE611A60EE810A9DED081ADDEDDB
:1047D0000A1A31EE611ADDED071A9DED0B2A71EE12
:1047E000C21A41EE610A20EE200AF0EE408A9DEDE9
:1047F000061AF0EE410A9DED041AB0EE410A02F0ED
:10480000C5F8B0EE409A9DED0A1AF0EE410A9DED12
:10481000081AB0EE410A02F0D1F8B4EEC09AF1EEF7
:1048200010FA5FDB9DED0A1AF0EE410A9DED081AC1
:10483000B0EE410A02F0AAF8B0EE409A9DED061AD9
:10484000F0EE410A9DED041AB0EE410A02F0B6F80E
:10485000B4EEC09AF1EE10FA44DB9DED071AF0EECB
:10486000410A9DED051AB0EE410A02F08FF8B0EE54
:10487000409A9DED0B1AF0EE410A9DED091AB0EE3B
:10488000410A02F09BF8B4EEC09AF1EE10FA29DB6F
:104890009DED0B1AF0EE410A9DED091AB0EE410AAA
:1048A00002F074F8B0EE409A9DED071AF0EE410A5E
:1048B0009DED051AB0EE410A02F080F8B4EEC09A00
:1048C000F1EE10FA0EDBB5EEC08AF1EE10FA09D85F
:1048D000F5EEC08AF1EE10FA04D80120BDEC048B8D
:1048E00008B010BD0020F9E710B52DED028BB0EE39
:1048F000408AF0EE608A1248D0F89800042802D06E
:10490000052816D10AE0DFED0F1A9FED0F1AF0EE21
:10491000680AB0EE480A03F001F90BE0DFED091A6E
:104920009FED091AF0EE680AB0EE480A03F0F6F8B7
:1049300000E000BF00BF0120BDEC028B10BD0000F5
:10494000440500200000164500000000F0EE400A7B
:104950000E4890ED000A20EE200A0D4890ED001A56
:10496000B8EEC11A30EEC11A0A48D0ED001A01EEB5
:10497000810A094880ED000ABDEEE00A044880ED96
:10498000000A054890ED000A70470000A4020020CC
:10499000A0020020A8020020AC02002010B5FDF704
:1049A000FBFD10BD10B507F0DBFB1F48D0F8A400DD
:1049B00010B903F0D1FA26E01B48D0F8A400012872
:1049C0000AD104211848C0F89810DFED180A9FEDAD
:1049D000180AFFF789FF16E01348D0F8A400022850
:1049E0000AD105211048C0F89810DFED120A9FED9A
:1049F000100AFFF779FF06E00B48D0F8A40003285F
:104A000001DB03F09DFB0848D0F8A400042809D17D
:104A10000548007820F00100034908700021024891
:104A2000C0F8981010BD0000440500200000484464
:104A3000008009450080894410B52DED028BB0EE51
:104A4000408AB0EE480A00F00FF8BDEEC00A10EE42
:104A5000104A22460821034804F01CFFBDEC028BDB
:104A600010BD000000640040F0EE400A9FED020A15
:104A700020EE800A7047000000008045024640F2A8
:104A80001220824201DB824203DA00200A4B1860C6
:104A900002E00120084B186040F21220814201DB45
:104AA000814203DA0020044B186002E00120024B2F
:104AB00018600148006870477802002010B52DED9D
:104AC000048B5248006800BB5148D0F8B00050B980
:104AD0004F4890ED1E0ADFED4F0A30EE200A4E4897
:104AE00080ED000A0EE04A48D0F8B000012809D154
:104AF000474890ED1E0ADFED470A30EE600A46484F
:104B000080ED000A012041490860414890ED1E0AED
:104B1000F0EE400A404890ED000A07F0E1FA3F4805
:104B200080ED000A3E480068401C3D490860084688
:104B3000006864280BDA3B4A01213B4804F0AAFED6
:104B400042F210720221384804F0A4FE1FE03448FB
:104B5000006864281BDB314890ED000AFDF724F85B
:104B6000BDEEC00A10EE104A224601212E4804F084
:104B700091FE2A4890ED000AFDF716F8BDEEC00A36
:104B800010EE104A22460221274804F083FE2348F3
:104B9000006809F065FF41EC190BB0EE490AF0EE30
:104BA000690A05F025FDB0EE408AF0EE608A9FEDBF
:104BB0001F0B53EC102B51EC180B09F01FFC10D2FB
:104BC0000020124908601649086001211048C0F809
:104BD0009C11007820F020000D4908700020154934
:104BE000086014480068FA280CDD0948007820F0B5
:104BF00020000749087000200E4908600121044880
:104C0000C0F89C11BDEC048B10BD000074010020A5
:104C100044050020000034426C0100207001002097
:104C200078010020F0D8FFFF00680040000000007D
:104C3000000014407C01002010B52DED048BC2480B
:104C4000007800F0970000287ED0C048006820B1AE
:104C500001281CD0022819D1E5E0BB4890ED1F0ABD
:104C6000BB4880ED000AB84890ED200AB94880EDB5
:104C7000000AB54890ED1E0AB74880ED000A0120F1
:104C8000B2490860B5A1B74804F02CFD57E1B64819
:104C90000068401CB4490860AB4890ED1F0AAC485E
:104CA000D0ED000A30EE600A10EE101A084609F046
:104CB000D7FE41EC190BB0EE490AF0EE690A05F097
:104CC00097FCB0EE408AF0EE608A9FEDA80B53ECA3
:104CD000102B51EC180B09F091FB4BD29A4890ED38
:104CE000200A9C48D0ED000A30EE600A10EE101A3F
:104CF000084609F0B5FE41EC190BB0EE490AF0EE9A
:104D0000690A05F075FCB0EE408AF0EE608A9FED0E
:104D1000970B53EC102B51EC180B09F06FFB29D2B9
:104D2000894890ED1E0A8C48D0ED000A30EE600AEA
:104D300010EE101A084609F093FE41EC190BB0EE84
:104D4000490AF0EE690A00E0FAE005F051FCB0EE25
:104D5000408AF0EE608A9FED870B53EC102B51ECEC
:104D6000180B09F04BFB05D284480068401C8349AE
:104D7000086002E00020814908607B480068322812
:104D800014DD0020784908606F4890ED1F0A7048D4
:104D900080ED000A6C4890ED200A6E4880ED000A14
:104DA000694890ED1E0A6C4880ED000A734800685F
:104DB000B0F57A7F05DB02206449086000206F4966
:104DC00008606FA1674804F08DFC634890ED000A0D
:104DD000BDEEC00A10EE102A6BA1624804F082FCFE
:104DE0005B4890ED000ABDEEC00A10EE102A66A1E5
:104DF0005C4804F077FC574890ED000ABDEEC00A0D
:104E000010EE102A60A1574804F06CFC5B485EA1CC
:104E10000268544804F066FC4C485CA102685148A2
:104E200004F060FC8BE05BA14E4804F05BFC46485C
:104E300090ED1F0A4648D0ED000A30EE600A10EEF1
:104E4000101A084609F00CFE41EC190BB0EE490AA5
:104E5000F0EE690A05F0CCFBB0EE408AF0EE608A15
:104E60009FED420B53EC102B51EC180B09F000FC9A
:104E70004CD2354890ED200A3648D0ED000A30EE8D
:104E8000600A10EE101A084609F0EAFD41EC190B11
:104E9000B0EE490AF0EE690A05F0AAFBB0EE408ACE
:104EA000F0EE608A9FED310B53EC102B51EC180B98
:104EB00009F0DEFB2AD2244890ED1E0A2648D0EDE8
:104EC000000A30EE600A10EE101A084609F0C8FD1C
:104ED00041EC190BB0EE490AF0EE690A05F088FBC7
:104EE000B0EE408AF0EE608A9FED220B53EC102B5F
:104EF00051EC180B09F0BCFB08D228480068401C94
:104F00002649086000201149086002E0002023497A
:104F10000860224800680A2808DD00200B49086064
:104F20000948007840F010000749087006480078EA
:104F300020F010000449087007F0D0FA00BF00BF4D
:104F4000BDEC048B10BD00004405002014050020BA
:104F5000280500202C0500203005002063617365C2
:104F6000300D0A00005000401C0500200000000029
:104F70000000244000000000000008401805002048
:104F800063617365310900002564090025640D0A19
:104F90000000000063617365320D0A0020050020E7
:104FA00010B52DED048B5248006800BB5148D0F875
:104FB000B00050B94F4890ED1E0ADFED4F0A30EEB9
:104FC000600A4E4880ED000A0EE04A48D0F8B00072
:104FD000012809D1474890ED1E0ADFED470A30EE5F
:104FE000200A464880ED000A0120414908604148F6
:104FF00090ED1E0AF0EE400A404890ED000A07F0DE
:105000006FF83F4880ED000A3E480068401C3D496B
:1050100008600846006896280BDA3B4A01213B48A5
:1050200004F038FC42F210720221384804F032FCDD
:105030001FE03448006896281BDB314890ED000AD9
:10504000FCF7B2FDBDEEC00A10EE104A2246012167
:105050002E4804F01FFC2A4890ED000AFCF7A4FD3E
:10506000BDEEC00A10EE104A22460221274804F085
:1050700011FC2348006809F0F3FC41EC190BB0EE79
:10508000490AF0EE690A05F0B3FAB0EE408AF0EE94
:10509000608A9FED1F0B53EC102B51EC180B09F09D
:1050A000ADF911D200201249086016490860114874
:1050B000007820F020000F49087000201649086091
:1050C00001210C48C0F89C1113480068FA280CDD37
:1050D0000848007820F020000649087000200E499A
:1050E000086001210348C0F89C11BDEC048B10BD81
:1050F0008801002044050020000034428001002087
:10510000840100208C010020F0D8FFFF00680040DF
:1051100000000000000014409001002010B5074975
:10512000074800F0EBF838B10021054800F024F8FA
:105130000249034800F006F810BD00000080002876
:10514000B86002400246094B9A4201D2084801E089
:105150000648103801F000531BB1064B0B40C360EA
:1051600002E0044B0B408360704700001064024073
:10517000006002407D0F7D0F21B1026842F0010204
:10518000026003E0026822F0010202607047000042
:10519000016821F00101016000210160416081602E
:1051A000C1600161212141614A49884204D13D2108
:1051B000484A103A91608CE046491831884205D13E
:1051C0004FF47461434A103A916082E041493031B2
:1051D000884205D14FF474113E4A103A916078E04C
:1051E0003C494831884205D14FF07461394A103A40
:1051F00091606EE037496031884204D13649354AC2
:10520000103AD16065E033497831884204D133499E
:10521000304A103AD1605CE02E499031884204D186
:105220002F492C4A103AD16053E02A49A8318842CC
:1052300005D14FF03D51274A103AD16049E0294944
:10524000884204D13D21274A083A116041E02549AE
:105250001831884205D14FF47461224A083A11602E
:1052600037E020493031884205D14FF474111D4A8E
:10527000083A11602DE01B494831884205D14FF0B2
:105280007461184A083A116023E016496031884277
:1052900004D11149134A121F11601AE011497831E3
:1052A000884204D10D490F4A121F116011E00D49C7
:1052B0009031884204D10A490A4A121F116008E05D
:1052C0000849A831884204D14FF03D51054A121FC8
:1052D00011607047106002403D000020400F002028
:1052E00000003D2010640240014600200A6802F0E0
:1052F00001020AB1012000E00020704770B50246AB
:10530000002000240025124EB24201D2114B01E0D0
:105310000F4B103B104E0E4036B11E2606EAD1242C
:10532000166806EA040502E0566906F0800501F0F9
:1053300000560EB15C6800E01C68084E344004EA78
:10534000010616B10DB1012000E0002070BD000083
:1053500010640240006002403C0F3C0F7D0F7D0F47
:1053600010B501F080034BB122B1436943F08003D3
:10537000436103E0436923F08003436180290BD03C
:105380002AB1036801F01E042343036004E00368AC
:1053900001F01E04A343036010BD000010B50022FD
:1053A0000268134B1A40CC680B6823434C692343B3
:1053B0008C692343CC6923430C6A23434C6A2343FF
:1053C0008C6A23434C6B23438C6B23431A43026048
:1053D000426922F00702D1E90B3423431A434261A8
:1053E0000B6943604B6883608B68C36010BD00002D
:1053F0003F801CF07047000010B52DED0C8BB0EE17
:10540000408AF0EE608AB0EE419AF0EE619A38EE92
:10541000E90A10EE101A084609F022FB41EC1D0BB8
:105420009FED181BB0EE4D0AF0EE6D0A05F054F931
:10543000B0EE40BAF0EE60BA38EE490A10EE101A3B
:10544000084609F00DFB41EC1D0B9FED0E1BB0EE65
:105450004D0AF0EE6D0A05F03FF9B0EE40CAF0EEED
:1054600060CA53EC1B2B51EC1C0B08F01DFD41ECEA
:105470001A0BB0EE4A0AF0EE6A0A06F081F8BDECAB
:105480000C8B10BD000000000000004010B50F485C
:10549000D0F8B00050B905210C48C0F89810DFEDE5
:1054A0000C0A9FED0C0AFFF71FFA0EE00748D0F830
:1054B000B000012809D105210448C0F89810DFED9B
:1054C000040A9FED040AFCF7D9FB10BD4405002037
:1054D0000000C8440000AF440348007820F02000DA
:1054E0000149087070470000440500207047000023
:1054F0007FB500200290039007F05CFEBDEEC00A6D
:1055000010EE104A07F06AFEBDEEC00A10EE105A07
:10551000EB48007840F04000E94908700020C1F8ED
:10552000D0019FEDE80A02F09DF90020E449C1F89E
:10553000640129462046FFF7A1FAE3490860E348E1
:10554000007800F0010090B107F030FDE0490860FC
:10555000DE48006820F00100DC490860DC48006893
:1055600007F0D8FD8DED020ACDED030ABBE0D74868
:10557000007800F00200002872D0D448007800F0D3
:1055800008000028F2D0D248006807F0C3FD8DED76
:10559000020ACDED030ADDED031AB0EE611AC84828
:1055A000D0ED1E1AF0EE610ADDED021AB0EE610ACE
:1055B000FCF736FAFEF7E8FC01283AD10022012177
:1055C000C44804F067F900220221C24804F062F9DD
:1055D000BD48006850B1BE48006807F08BFA012052
:1055E000BD4908600020B94908607CE0B8480068FF
:1055F00007F03AFCB9480068401CB8490860002030
:10560000B5490860B5480068022804DB012008603D
:105610000020B24908600020AC49086008460068D4
:1056200040F0010008600846006840F0040008608F
:1056300059E0FEF7A9FC022855D10020A3490860D3
:105640000846006840F0010008600846006840F025
:10565000040008609E480068A149086043E0FFE735
:105660009A48007800F00400E8B39D480068984923
:10567000096888420AD196480068401C944908602D
:1056800008460068032801DD0020086000218C48DE
:10569000C0F818118E48006800F0EEF98DED000A90
:1056A000CDED010A9DED000A854880ED6F0A9DED64
:1056B000010A80ED700A007840F08000804908708F
:1056C000002082490860824801687D48C0F81411B2
:1056D0007E48006840F002007C4908600846006887
:1056E00040F0080008607C48006801284FD17448E9
:1056F000007820F01000724908700846D0F88C013C
:10570000012805D00846007840F04000087012E0FB
:105710006B48D0F88C0101280DD1694800786849A0
:1057200091F8941108436649087000216448C0F854
:105730008C11C0F89411664801686148C0F81011D6
:1057400007F06CFD5E4880ED120A07F0E3FD5C484F
:1057500080ED130A07F02EFDBDEEC00A584880ED1B
:10576000140A07F03BFDBDEEC00A554880ED150A4E
:105770000B205649086000205749086057490860C7
:105780005849086048608860C860554908605248B8
:1057900055A10268564803F0A5FF4C4853A1026882
:1057A000534803F09FFF484850A10268504803F057
:1057B00099FF47484FA102684D4803F093FF4848BE
:1057C0004EA102684A4803F08DFF3D484DA1D0F834
:1057D0001421474803F086FF9DED020ABDEEC00A82
:1057E00010EE102A41A1424803F07CFF474890ED9B
:1057F000000ABDEEC00A10EE102A3CA13C4803F09E
:1058000071FF434890ED000ABDEEC00A10EE102A69
:1058100036A1374803F066FF3E4890ED000ABDEE22
:10582000C00A10EE102A31A1314803F05BFF244872
:1058300090ED1F0ABDEEC00A10EE102A2BA12C48D5
:1058400003F050FF1E4890ED200ABDEEC00A10EE96
:10585000102A26A1264803F045FF194890ED6F0A4B
:10586000BDEEC00A10EE102A2BA1214803F03AFF2A
:10587000134890ED700ABDEEC00A10EE102A28A160
:105880001B4803F02FFF0E4890ED1E0ABDEEC00A24
:1058900010EE102A15A1164803F024FF0F4813A19B
:1058A0000268134803F01EFF224610A1104803F0BF
:1058B00019FF2A461CA10E4803F014FF7FBD00000B
:1058C0004405002000007042940200206C02002079
:1058D0009002002000680040680200208C02002036
:1058E000980200206C0700206669783D2564090055
:1058F000005000406169423D2564090062726D25D7
:1059000064090000746F423D256409005C020020B8
:10591000600200206402002050783D2564090000E8
:1059200050793D25640900002564090D0A00000036
:10593000F0B50A4600210023002400BF3DE0012508
:1059400005FA01F3156805EA03049C4234D10568A1
:105950004F000326BE40B543056015794E00B540A3
:105960000668354305601579012D02D01579022DA1
:1059700016D185684F000326BE40B5438560557932
:105980004E00B540866835438560456801268E40E7
:10599000B5434560456896798E40B6B2354345605B
:1059A000C5684F000326BE40B543C560D5794E009B
:1059B000B540C6683543C560491C1029BFD3F0BD4A
:1059C000F0B5002300244D07ED0E02FA05F3CE10CA
:1059D00000F1200555F826504E07F70E0F26BE4061
:1059E000B543CF1000F1200646F82750CE1000F145
:1059F000200555F8265045EA0304CE1000F1200595
:105A000045F82640F0BD0246002013690B400BB15B
:105A1000012000E0002070474183704701837047F8
:105A200010B504460723012221460848FBF7BAFEB9
:105A30000648FBF713FF00BF02210448FBF77EFE78
:105A40000028F9D00148FBF775FE10BD0020014089
:105A50002DE9F04107460C460025002605E03846B2
:105A6000FFF7DEFF0544701CC6B2A642F7DBB5FBAC
:105A7000F4F080B2BDE8F0810CB530B101280DD052
:105A8000022814D0032824D11AE09FED150A8DEDC9
:105A9000000A9FED140A8DED010A1AE09FED120A2B
:105AA0008DED000A9FED110A8DED010A11E09FEDC9
:105AB000100A8DED000A9FED0B0A8DED010A08E03A
:105AC0009FED090A8DED000A9FED0A0A8DED010A8E
:105AD00000BF00BF9DED000ADDED010A0CBD000016
