:020000040800F2
:10000000004E0020850200085D62000825570008A8
:10001000F5610008E52600083191000800000000A5
:100020000000000000000000000000004573000810
:10003000A5500008000000009B0200089D02000877
:100040009F0200089F0200089F0200089F0200080C
:100050009F0200089F0200089F0200089F020008FC
:100060009F0200089F0200089F0200089F020008EC
:100070009F0200089F0200089F0200089F020008DC
:100080009F0200089F0200089F0200089F020008CC
:10009000E92600089F0200089F0200089F0200084E
:1000A0009F020008798100089F0200089F02000853
:1000B00095810008E98100088D8200089F020008F0
:1000C0009F0200089F0200089F0200089F0200088C
:1000D0009F020008CD890008C98A0008B98B000872
:1000E0009F0200089F0200089F0200089F0200086C
:1000F000D58200089F0200089F020008CD4D00082D
:100100009F0200089F020008B98200089F020008B1
:100110009F020008B18600089F0200089F020008A5
:100120009F0200089F0200089F0200089F0200082B
:100130009F0200089F0200089F0200089F0200081B
:10014000052800089F0200089F0200089F0200087F
:100150009F0200089F0200089F0200089F020008FB
:100160009F0200089F0200089F0200089F020008EB
:100170009F0200089F0200089F0200089F020008DB
:100180009F0200089F02000800F002F800F06AF8E1
:100190000AA090E8000C82448344AAF10107DA45E2
:1001A00001D100F05FF8AFF2090EBAE80F0013F0CA
:1001B000010F18BFFB1A43F00103184730E100009C
:1001C00050E100000A444FF0000C10F8013B13F01E
:1001D000070408BF10F8014B1D1108BF10F8015BA0
:1001E000641E05D010F8016B641E01F8016BF9D193
:1001F00013F0080F1EBF10F8014BAD1C0C1B09D1EA
:100200006D1E58BF01F801CBFAD505E014F8016B5B
:1002100001F8016B6D1EF9D59142D6D370470000ED
:100220000023002400250026103A28BF78C1FBD8FF
:10023000520728BF30C148BF0B6070471FB50DF093
:10024000C4FD00F0FDF80400002000210CF01CFFAC
:10025000401C6060002000210CF000FFE0601FBD2A
:1002600010B510BD00F08DF91146FFF7E7FF0CF057
:100270008DFB00F005FC03B4FFF7F2FF03BC00F0B8
:1002800049FC00000948804709480047FEE7FEE7AF
:10029000FEE7FEE7FEE7FEE7FEE7FEE7FEE7FEE736
:1002A00004480549054A064B7047000011810008C3
:1002B0008901000800080020004E0020004A0020AC
:1002C000004A002010B5203AC0F00B80B1E8185069
:1002D000203AA0E81850B1E81850A0E81850BFF430
:1002E000F5AF5FEA027C24BFB1E81850A0E81850CF
:1002F00044BF18C918C0BDE810405FEA827C24BF23
:1003000051F8043B40F8043B08BF7047D20728BFB0
:1003100031F8023B48BF11F8012B28BF20F8023BFF
:1003200048BF00F8012B70474FF0000200B513469C
:1003300094469646203922BFA0E80C50A0E80C5005
:10034000B1F12001BFF4F7AF090728BFA0E80C50B6
:1003500048BF0CC05DF804EB890028BF40F8042BAF
:1003600008BF704748BF20F8022B11F0804F18BF1C
:1003700000F8012B704770477047704710B500F0C8
:1003800063F8006810BD10B5044600F05DF8046025
:1003900010BD00000FB4002300B589B00CA9009176
:1003A0000B99CB60214B7B440693214B7B440793F5
:1003B00004236FF00042CDE901321E4A7A446B46B5
:1003C0000892024600200DF06AFD09B05DF814FBAA
:1003D00070B506464FF0FF3015460C46324686B0E3
:1003E0000091CDE9010169460020049004A8FFF7BF
:1003F000D1FF02460498211825B108B1084600E053
:1004000020462860049800280DD0002A02DD0098BC
:10041000884208D03246081B69460094CDE90104A1
:1004200004A8FFF7B7FF06B070BD0000B9000000D8
:10043000D10000009100000000487047A007002094
:1004400000487047C007002000487047A007002000
:1004500010B5044600F0BAF80068005D00F0010035
:1004600010BD426842B1016811F8013B23B1521E30
:10047000C0E90012184670470121C160881E70470C
:1004800042685AB1C368016843B983688B4205D09A
:10049000491E521CC0E90012002070474FF0FF3087
:1004A000704700002DE9F047814616468AB0334870
:1004B00078440DC88DE80D0030487844801C03ACAA
:1004C0000DC884E80D0041F69B300844372190FBAD
:1004D000F1F290FBF1F5A5F1800501FB12041B3C44
:1004E00002D56442012000E00020DFF890A08046A1
:1004F0000027FA44AAF1BE0A0DE0E00709D032460F
:10050000684607EB47010AEB810100F0A6FF8DE882
:10051000070064107F1C002CEFD1184F7F44AC3FC4
:1005200018E0E80714D007EB04100DF1180A90E862
:100530000E008AE80E00C068F04201D198190890B8
:10054000324606A903A800F088FF03AB83E8070042
:100550006D10641C002DE4D132466946B8F1000FDD
:1005600003A802D000F051FF01E000F076FFC9E9D6
:100570000001C9F808200AB0BDE8F08720DE0000BD
:1005800070477546FFF758FFAE460500694653466B
:1005900020F00700854618B020B5FFF781FEBDE8C2
:1005A00020404FF000064FF000074FF000084FF0DA
:1005B000000B21F00701AC46ACE8C009ACE8C0096B
:1005C000ACE8C009ACE8C0098D46704710B5FFF72C
:1005D00037FF001D10BD00BFB1CA00002DE9FF4F5D
:1005E000064689B00878FF2806D0491C2D2805D07A
:1005F00000244FF0000908E000200CE00124F8E797
:1006000009EB8903491C00EB43090878FF28F7D15F
:1006100014B1C9F100008146107800252C46AA4685
:1006200029462D2801D02B2804D1521C2D2813D067
:10063000002082468B461078FF280FD04FF0000C28
:100640000A21521CA5FB017804FB018105FB0C115A
:10065000C5194BEB0104EEE70120EAE7002108464B
:100660004FF00000BAF1000F02D000EB800040080C
:10067000C0F38158B8F1010F01DD4FF0FF380C983D
:1006800009EB000755EA040009D04FF0020917F5FD
:10069000FA7F0BDA4FEACA70C6E900B012E04FEAFF
:1006A000CA70C6E900B00DB0BDE8F08FB7F5FA7FAB
:1006B0000DDDF0487844D0E90010C6E9001040EAAA
:1006C000CA707060FFF7C0FEC0F80090EBE7391EFB
:1006D00002DAC8F1000200E0424600DA794206A8D8
:1006E000FFF7E0FE06AB93E8070003AB83E80700E3
:1006F00044F23E005BEA04010090584604D144F203
:100700001E012C465D460091210C0904014306D1CF
:100710000099240444EA15442D041039009104F092
:100720007F41014306D10099240244EA15642D0259
:100730000839009104F07041014306D10099240169
:1007400044EA15742D01091F009104F04041014352
:1007500006D10099A40044EA9574AD00891E009169
:1007600004F00041084304D100986D196441401E13
:10077000009042466846002FCDE9014503A902DDFD
:1007800000F07FFE01E000F054FEBAF1000F0446D5
:100790000D4601D084F0004440F2FF7724F0004081
:1007A000284303D0C4F30A50B84212D1FFF74CFEDD
:1007B000C0F80090C4F30A50B8420AD1AE48784459
:1007C000D0E90010C6E9001004F000410843706051
:1007D00069E7C6E9005466E72DE9FF4F1F464FF071
:1007E000000A4FF0FF38454691B0D7E90146CDF8F1
:1007F0003CA0FFF725FEC0680168405C1090B96915
:1008000012986D1C8847396A814688470028F6D1BE
:10081000B9F1FF3F0AD0002E24F4D06411DDB9F104
:100820002B0F08D0B9F12D0F0BD102E0404615B0C7
:100830003AE744F48064B96912986D1C8847761EC3
:100840008146600504A901D52D2000E02B20002E53
:1008500001F1010B0DF130088DF810003FDDB9F109
:10086000690F08D0B9F1490F05D0B9F16E0F02D068
:10087000B9F14E0F1CD13B4601A8009580E850020B
:10088000DDE912126FF002000DF00DFBC11CCED19C
:100890000EE0B96912986D1C884781461398761E40
:1008A00044F4007405600F98401C002E0F9016DD74
:1008B000B9F1300FEDD0B9F1780F02D0B9F1580F7E
:1008C0000DD10F9801280AD13B46CDE90054DDE94E
:1008D0001212001F02960DF0E4FAC11CA7D1109964
:1008E00089453ED144F0800406E01399681CAAF1C2
:1008F000010A44F400740860B9696D1C1298761EF0
:10090000884730288146F0D02BE01099894505D1E1
:10091000200603D4761E44F0800418E048460BF00D
:100920006FF808B3761E0DF123018B4544F4007473
:1009300008D2A9F130000BF8010B200607D5AAF167
:10094000010003E0200602D40AF101008246A0055E
:1009500002D51399681C0860B96912986D1C884704
:100960008146002ED1DC53E0002E51DDB9F1650F38
:1009700002D0B9F1450F4BD1A00549D5B9696D1C1D
:100980001298761E24F440748847002E81460CDDB0
:100990002B2804D0B9F12D0F07D144F48074B96924
:1009A00012986D1C8847761E8146E00501D52D21E1
:1009B00000E02B2108F8011BCDF8008021E0761E15
:1009C0000DF13901884544F400740CD2A9F13000CE
:1009D00010F0FF0088F8000002D10099884509D97D
:1009E00008F1010806E0E00501D5244801E042F2E3
:1009F0000F708246B96912986D1C8847814613981A
:100A00000560002E04DD48460AF0FAFF0028D6D122
:100A1000F96912988847FF2053468BF8000088F840
:100A2000000000200A900B9004AA0CA90AA8FFF766
:100A3000D5FDA00502D46FF00100F8E614F0240FF4
:100A40000AD0E00714D13868DDE90A12031D3B60C3
:100A50000068C0E900120BE00AA968460AF0C0FE6F
:100A6000E00705D13868009A011D3960006802600E
:100A70002846DCE654DC00004ADB0000F1D8FFFF2A
:100A800010B50446AFF300802046BDE81040FFF7E4
:100A9000F2BB00004FF0013C50F8042B51F8043B2E
:100AA0009A4221D1A2EB0C03934313EACC1317D142
:100AB00050F8042B51F8043B9A4215D1A2EB0C03D9
:100AC000934313EACC130BD150F8042B51F8043B99
:100AD0009A4209D1A2EB0C03934313EACC13DBD067
:100AE0004FF00000704700BFD01A01BAB1FA81F18F
:100AF00001F0180122FA01F0CB40C1F12001DBB274
:100B0000C0B2C01A2CFA01F3D11A914311EAC311F1
:100B1000E6D1704701491820ABBEFEE7260002006F
:100B20002DE9FF4F1F464FF03C0987B04FF00042C0
:100B3000DDE9141001F10108DDF858A002EA405087
:100B40000390002005908346054604460490B96949
:100B5000461E08988847AAF1010A0290BAF1000FD0
:100B60003BDD02982E2815D0102100F016FA00283F
:100B70002EDB4FF0010B0599014317D0B9F1000F9F
:100B80000BDB4A46C11700F0F5F905430C43A9F108
:100B9000040905E0012004900BE008B145F00105CF
:100BA00001200590049820B9361D02E0049800B198
:100BB000361FB969089808F101088847BBF1000F92
:100BC000AAF1010A0290C9D00999C1F80080C5E7CD
:100BD0000298702808D0502806D0F96908988847EC
:100BE000BBF1000F14D04FE0002002900120BBF1B8
:100BF000000F049009D0B969089808F101088847E6
:100C0000AAF10109B9F1000F07DCF96908988847D2
:100C10006FF001000BB0BDE8F08F2B2804D02D2819
:100C20000CD14FF0FF300490B969089808F1010821
:100C30008847A9F10109B9F1000FE6DD411CE4D0B4
:100C40000A2100F0AAF90028DFDB029908F1010867
:100C500001EB810100EB41000290B96908988847D7
:100C60000A2100F09AF9099AA9F10109B9F1000FD6
:100C7000C2F8008001DD0028E7DAF96908988847A2
:100C80000499029800FB016655EA040004D004F0C0
:100C90004041090002D006E0039898E0A40044EA2D
:100CA0009574AD00B61E04F00041080002D16D1924
:100CB0006441761E159810F0240F03D04FF00B09F5
:100CC0005C4803E04FF028096FF07D0082465645EE
:100CD00007DAAAEB06018944B9F1410F01DD4FF0B3
:100CE000410901200021A9F1010200F043F9024667
:100CF00028400B462140084301D0012100E000219B
:100D0000501E029143F1FF3128402140084301D099
:100D1000012000E000200299834651EA0B014FD0E8
:100D2000002108464FF00000039900F4400039B15B
:100D300000EB80004FF4400100EBD07001EA60004E
:100D40008015012802DD4FF0FF3000E013D0401C79
:100D500036D0029860B3BBF1000F0CD14A46012097
:100D6000002100F007F928402140084301D001206C
:100D700000E00020E0B101204A46002100F0FAF82E
:100D8000034640190A4661412D1A8C4111D3B9F12D
:100D9000400F09DD159810F0240F02D0AAF1340697
:100DA00003E0AAF1170600E0761C00254FF000448E
:100DB00006E05B1E42F1FF3220EA030521EA02044D
:100DC000CAF10100B04206DA1B49039808430190BA
:100DD000002000900EE0039AC4F3D321E80A0A43EE
:100DE000164940EA44500A433146CDE900026846BC
:100DF0000AF0FCFD159810F0240F0BD01598C007D1
:100E000015D13868DDE90012031D3B600068C0E9B8
:100E100000120CE002A869460AF0E2FC1598C0072F
:100E200005D13868029A011D3960006802604046A9
:100E3000F0E6000002FCFFFF0000F07F0000F03F42
:100E40002DE9FF4F92461D4685B04FF00041DDE988
:100E5000124BDDE914727F1E01EA4B50414940F00C
:100E6000FF4940EA0108002122F0200049280491AE
:100E700002D04E2828D04CE03BA0012607C88DE8C0
:100E80000700A9690698641C88477F1E014606D49E
:100E90001DF8060018B121F0200181420BD0E9694C
:100EA00006988847032E34D0082E32D06FF0010008
:100EB00009B0BDE8F08F761C032E01D0082EE0D1DA
:100EC000601CCAF80000DCE7A9690698641C884722
:100ED0007F1E2AD420F02000412826D1A969069837
:100EE000641C88477F1E20D420F020004E281CD18F
:100EF000A9690698641C88477F1E48F4002849F4B5
:100F00008009CAF8004001D4282806D0E96906986B
:100F100088475FEACB7012D022E0A9690698641C6A
:100F200088477F1E01D4002803DAE96906988847BC
:100F3000BCE72928F1D1641CCAF80040E9E71BF09E
:100F4000240F07D028680499031D2B600068C0E9AE
:100F5000001805E02868021D2A600068C0F80090AB
:100F60002046A5E70000F07F494E46494E495459B6
:100F700000000000B2F120030AD5C2F1200301FAFB
:100F800002F120FA03F300FA02F041EA030170478C
:100F900000FA03F14FF0000070473A2800D23038D1
:100FA00020F02002412A01D3A2F13700884201D368
:100FB0004FF0FF30704720F07F4C80EA030023F0B1
:100FC0007F47ACEB070303F57C5300F0004003F1CF
:100FD000FF032DE980494FEA154B09B44FEA14434A
:100FE00025EA0B4E24EA03480FF2042606EB1327EA
:100FF00049083E785FEA320203FB0667C7F500073F
:1010000007FB06F64FEA54374FEAD64606F10206CA
:1010100007FB066CCCF1005C4FEA1C472CEA074C3E
:1010200007FB06F40CFB06F504EB15464FEA961693
:1010300034BF00204FF000404FEAD13706FB07FCD9
:101040004FEA1C4C0CFB0BF7D21B03FB0CF761EBBC
:1010500007010CFB0EF7B0EB074072EB17420CFBDD
:1010600008F734BFA2EB0742B2EB074261EB17412E
:101070004FEA0C444FEA910706FB07FC4FEA1C4C71
:101080000CFB0BF7B0EBC74072EB573203FB0CF7CE
:1010900034BFA2EBC742B2EBC74261EB57310CFB46
:1010A0000EF7B0EBC70072EB57720CFB08F734BFBA
:1010B000A2EBC702B2EBC70261EB5771039F4FEA85
:1010C000816141EA921104EBCC044FEAD1374FEA37
:1010D000826206FB07FC42EA90124FEA80604FEA08
:1010E0001C4C0CFB0BF7D21B03FB0CF761EB07014D
:1010F0000CFB0EF7B0EB074072EB17420CFB08F746
:1011000034BFA2EB0742B2EB074261EB17414FEA53
:101110008C554FEA910704EB9C2406FB07FC4FEA31
:101120001C4C0CFB0BF7B0EBC74072EB573203FBC8
:101130000CF734BFA2EBC742B2EBC74261EB5731A9
:101140000CFB0EF7B0EBC70072EB57720CFB08F705
:1011500034BFA2EBC702B2EBC70261EB577115EBCC
:101160004C254FEA816141EA92114FEA82624FEACF
:10117000D13742EA901206FB07FC44F100044FEA23
:1011800080604FEA1C4C0CFB0BF7D21B03FB0CF7E7
:1011900061EB07010CFB0EF7B0EB074072EB174257
:1011A0000CFB08F734BFA2EB0742B2EB074261EB3E
:1011B000174115EB1C154FEA813141EA92414FEA84
:1011C000823242EA90424FEA80304FEA0C7644F194
:1011D000000448EA03434EEA0B484FF0000EB2EB1E
:1011E000080C71EB030724BF624639464EEB0E0E26
:1011F0004FF0000B0018524149414BEB0B0BB2EB87
:10120000080C71EB03077BF1000B24BF62463946E3
:101210004EEB0E0E4FF0000B0018524149414BEBC4
:101220000B0BB2EB080C71EB03077BF1000B24BF37
:10123000624639464EEB0E0E51EA020718BF46F0E1
:10124000010616EB0E7655F1000254F1000103D5AC
:10125000BDE88901BDE80088BDE88901BDE8004816
:10126000B619524141EB0101A3F10103704780809F
:101270007F7E7D7C7B7A79787776767574737271F0
:1012800071706F6E6E6D6C6C6B6A6A6968686766A8
:1012900066656464636362616160605F5F5E5E5D3A
:1012A0005D5C5C5B5B5A5A595958585757565655AE
:1012B00055555454535352525251515050504F4F10
:1012C0004F4E4E4D4D4D4C4C4C4B4B4B4A4A4A4960
:1012D00049494848484747474746464645454544A3
:1012E000444444434343434242424241414100005B
:1012F00046EA0646A3F570534FEA164646EA4256BA
:101300004FEAD22242EA415210B54FEAD121A3F16D
:10131000010300F017F820F0004000F1010C00F08C
:10132000004701EB00501146BCF5006F40EA070092
:1013300000D210BD02484FF0000140EA070010BD86
:101340000000F07F002B26D4770021D01CB54FEA97
:10135000370703B44FF010004FF010014FF00000BA
:101360000FBCBDE810400BF1010BBBF1010F08BF32
:101370005FEA170722BF12F1010211F101014FF0DC
:10138000004143F1000300F0004043EA00007047D1
:10139000F9D35708DAE746EA064613F1400F4FEA59
:1013A00016461FDD13F1200FDFBF16430A4600214A
:1013B00020335B42C8D0C3F1200746EA064602FA52
:1013C00007F74FEA164646EA0706C3F1200722FA56
:1013D00003F201FA07F721FA03F14FF0000342EAA2
:1013E0000702B1E746EA020646EA06464FEA164613
:1013F00046EA0106BCBF46EA0646360C4FF000033B
:101400004FF000024FF000019EE72DE9C0489346DF
:1014100030B491E8380007C831EA400C48BF34EADC
:10142000430C03D5FFF7C7FDFFF78CFFF0BCBDE809
:1014300000882DE9C048934630B491E8380007C8C9
:1014400031EA400C48BF34EA430C03D5FFF7B3FD43
:10145000FFF74EFFF0BCBDE800882DE9C048934679
:1014600030B491E8380007C810F0804F08BF13F07F
:10147000804F03D100F019F8FFF764FFF0BCBDE81E
:1014800000882DE9C048934630B491E8380007C879
:1014900010F0804F08BF13F0804F03D100F005F823
:1014A000FFF726FFF0BCBDE8008820F07F4780EA08
:1014B000030023F07F4C07EB0C03A3F57C5300F0F3
:1014C0000040A3F1FE0392F0000F00F0B38095F00E
:1014D000000F00F077802DE901494FEA11404FEAF3
:1014E000144621EA004800FB06FC24EA064708FBF4
:1014F00006F607FB08F800FB07F718EB06484CEB6D
:10150000164C4FEA124B18EB07484FEA15464CEBC6
:10151000174022EA0B4E0BFB06FC25EA06470EFBA2
:1015200006F607FB0EFE0BFB07F71EEB064E4CEB19
:10153000164C4FF000061EEB074E4CEB174B18EB0A
:101540000B0840F1000018EB0E0B58EB000840F1BF
:1015500000008F1A4FF000013CBFC943661B14BF47
:10156000B5EB040C00213CBFC943F61B4FEA1744FE
:101570004EEA8E0E27EA04454FEA1C4704FB076239
:101580002CEA074C05FB07F70CFB05F604FB0CFCEB
:1015900016EB074642EB174216EB0C4642EB1C4299
:1015A0001BEB060658EB0202414146EA9E0601D5B6
:1015B000BDE80189B619524141EB0101A3F10103D4
:1015C000BDE801894FEA14454FEA114724EA054670
:1015D00021EA074C05FB07F406FB07F70CFB06F1B5
:1015E00005FB0CFC11EB074144EB17444FEA124793
:1015F00011EB0C4144EB1C4422EA074C05FB07F2BB
:1016000006FB07F70CFB06F605FB0CFC16EB074682
:1016100042EB174216EB0C4642EB1C456A1854F19C
:10162000000148BF7047B619524141EB0101A3F1D7
:101630000103704795F0000F37D04FEA11424FEA8F
:10164000144721EA024624EA074C02FB07F106FB95
:1016500007F70CFB06F402FB0CFC14EB074441EB10
:1016600017414FEA154714EB0C4441EB1C4125EAA6
:10167000074C02FB07F506FB07F70CFB06F602FB1F
:101680000CFC16EB074645EB174516EB0C4645EBF5
:101690001C42121951F1000148BF7047B61952415E
:1016A00041EB0101A3F1010370474FEA14454FEAF2
:1016B000114724EA054621EA074C05FB07F106FB22
:1016C00007F70CFB06F24FF0000605FB0CFC12EBD3
:1016D000074241EB174112EB0C4251EB1C4148BF52
:1016E0007047921841EB0101A3F10103704721B14A
:1016F000826842F00102826003E0826822F0010207
:10170000826070470021084A1168084A1140D0E9F8
:1017100000231A4383681A43C3681A431143044AD7
:10172000C2F804137047000004230140E030FCFFBE
:10173000002001400146C86C80B27047024600207C
:1017400013680B400BB1012000E00020704700003F
:1017500030B50246002000235068104C20400D791F
:101760000C6844EA05242043506090680C4C2040EB
:10177000D1E903542C438D682C434D7944EA450448
:1017800020439060D06A20F470000C7D641EE4B2A7
:10179000234340EA0350D06230BD0000FFFEFFFC4F
:1017A000FDF7FFC0F0B504460D4600200021092DCD
:1017B00011DDE068A5F10A0606EB4607072606FAE2
:1017C00007F18843A5F10A0606EB460603FA06F17F
:1017D0000843E0600CE0206905EB4507072606FAA0
:1017E00007F1884305EB450603FA06F1084320613B
:1017F000072A0FDA606B561E06EB86071F2606FACD
:1018000007F18843561E06EB860605FA06F10843E3
:10181000606322E00D2A0FDA206BD61F06EB8607E5
:101820001F2606FA07F18843D61F06EB860605FA3F
:1018300006F10843206310E0E06AA2F10D0606EB12
:1018400086071F2606FA07F18843A2F10D0606EB6C
:10185000860605FA06F10843E062F0BD816841F0B2
:10186000804181607047000010B50E48007800F09C
:10187000010010B106F0FCFB13E00A48007800F00C
:10188000100070B90748007800F0080010B105F0AA
:10189000FFFD06E00348007800F0020008B107F001
:1018A0007FFD10BDDC04002010B52DED028B164825
:1018B000007800F0010010B106F012FC20E01248A0
:1018C000007800F0100010B103F09AFC18E00E4808
:1018D000007800F0080060B10AF002FFB0EE408A24
:1018E0000AF0EAFEF0EE408AF0EE480A05F048FE03
:1018F00006E00548007800F0020008B101F0D8FCCD
:10190000BDEC028B10BD0000DC04002000B58DB0E2
:101910000121042005F082FB0121080205F0AEFB45
:1019200030200B9003208DF8300000208DF833001C
:101930000BA9164803F012FE0121080205F0AEFBC8
:1019400000214FF4807005F0A9FB002007900A9059
:1019500009904FF48030089007A8FFF7D3FE0020CD
:1019600001908DF808008DF809000390049005900F
:1019700001208DF8180001A90548FFF7E9FE0121B3
:101980000348FFF7B4FE0DB000BD000000080240A0
:101990000020014010B52DED048BF0EE408AB0EE32
:1019A000609AB0EE418AF0EE490AB0EE680A0AF099
:1019B0002FF81C4880ED1C0AD0ED1C0AB0EE600A1E
:1019C00000F06AF8DFED180A70EE209AB0EE480ACF
:1019D00000F030F839EEC00ABDEEC00A10EE104A31
:1019E00022460121114807F0E1FB0E48D0ED1C0A08
:1019F000B0EE600A00F050F8DFED0D0A70EE209AAC
:101A0000B0EE480A00F016F839EE800ABDEEC00AC2
:101A100010EE104A22460221044807F0C7FBBDEC35
:101A2000048B10BDDC04002000409CC50068004011
:101A300000409C45F0EE400A114890ED000A20EE6F
:101A4000200A104890ED001AB8EEC11A30EEC11A03
:101A50000D48D0ED001A01EE810A0C4890ED001AF5
:101A6000DFED0B1A01EE210A0A4880ED000ABDEEF7
:101A7000E00A044880ED000A064890ED000A70472D
:101A8000D4030020D0030020DC030020D803002072
:101A900000000000E0030020F0EE400A0E4890ED48
:101AA000000A20EE200A0D4890ED001AB8EEC11A87
:101AB00030EEC11A0A48D0ED001A01EE810A094839
:101AC00080ED000ABDEEE00A044880ED000A0548FA
:101AD00090ED000A704700008C030020880300206E
:101AE000900300209403002010B52DED028BB0EE82
:101AF000408A194890ED170AF0EE400AB0EE480A05
:101B000009F086FF154880ED000A90ED000AFFF706
:101B1000C3FFDFED130A30EE200ABDEEC00A10EE5F
:101B2000104A224601210F4807F040FB0B4890ED78
:101B3000000AFFF7B1FFDFED0C0A30EE200ABDEE20
:101B4000C00A10EE104A22460221064807F02EFB7A
:101B5000BDEC028B10BD0000DC0400205C00002006
:101B600000C0DA450068004000C0DAC510B5104872
:101B7000C06F042802D0052816D10AE0DFED0D1A47
:101B80009FED0D1ADFED0D0A9FED0D0A04F0AEFB7F
:101B90000BE0DFED081A9FED081ADFED0A0A9FED52
:101BA0000A0A04F0A3FB00E000BF00BF012010BD43
:101BB000DC04002000001645000000000000614425
:101BC000004003450000AF440080094510B509F00E
:101BD0005FFF1F48D0F8880010B900F03BF81CE008
:101BE0001B48D0F88800012805D104211848C16796
:101BF000FFF7BCFF11E01648D0F88800022805D195
:101C000005211348C167FFF7B1FF06E01048D0F87F
:101C10008800032801DB00F001F90D48C16FD0F8FE
:101C20008000814205DA0A48D0F88410491EC0F8C5
:101C300084100748D0F88800042808D104480078A8
:101C400020F001000249087000210148C16710BD61
:101C5000DC04002010B502F03DF8634890ED180A4E
:101C6000D0ED280AB4EEE00AF1EE10FA0BDD90EDAB
:101C7000190AD0ED290AB4EEE00AF1EE10FA02D208
:101C80000021C16772E0584890ED180AD0ED2A0A89
:101C9000B4EEE00AF1EE10FA0BDD90ED190AD0ED8A
:101CA000290AB4EEE00AF1EE10FA02DD0121C16763
:101CB0005CE04D4890ED180AD0ED2A0AB4EEE00A37
:101CC000F1EE10FA0BD290ED190AD0ED2B0AB4EE1A
:101CD000E00AF1EE10FA02DD0221C16746E0424857
:101CE00090ED180AD0ED280AB4EEE00AF1EE10FAF1
:101CF0000BD290ED190AD0ED2B0AB4EEE00AF1EE0A
:101D000010FA02D20321C16730E0374890ED190A7A
:101D1000DFED360AB4EEE00AF1EE10FA04DD9FEDD5
:101D2000340AFFF7E1FE21E02F4890ED190ADFEDBC
:101D3000310AB4EEE00AF1EE10FA04D29FED2E0A59
:101D4000FFF7D2FE12E0284890ED180ADFED2B0ACB
:101D5000B4EEE00AF1EE10FA04DD9FED290AFFF778
:101D6000C3FE03E09FED270AFFF7BEFE1E48C06FCB
:101D700030B1012810D002281AD0032830D123E036
:101D80000122114600209FED1E1ADFED1F0A9FED74
:101D90001F0A04F071F824E00122114610469FED5D
:101DA000141ADFED190A9FED1A0A04F065F818E01D
:101DB0000122911E00209FED131ADFED160A9FED00
:101DC000160A04F059F80CE00122911E10469FED0E
:101DD0000A1ADFED100A9FED0D0A04F04DF800E03D
:101DE00000BF00BF012010BDDC04002000803B4587
:101DF0000000B4420080D4440000B4C20000834319
:101E0000000000000000344300404E45000016442E
:101E10000000FAC30000AF44000016C410B501F082
:101E200059FF644890ED180AD0ED2C0AB4EEE00A90
:101E3000F1EE10FA0BDD90ED190AD0ED2D0AB4EE9B
:101E4000E00AF1EE10FA02D20621C16772E05948A9
:101E500090ED180AD0ED2E0AB4EEE00AF1EE10FA79
:101E60000BDD90ED190AD0ED2D0AB4EEE00AF1EE8B
:101E700010FA02DD0721C1675CE04E4890ED180AB8
:101E8000D0ED2E0AB4EEE00AF1EE10FA0BD290ED8E
:101E9000190AD0ED2F0AB4EEE00AF1EE10FA02DDD5
:101EA0000821C16746E0434890ED180AD0ED2C0A9E
:101EB000B4EEE00AF1EE10FA0BD290ED190AD0ED73
:101EC0002F0AB4EEE00AF1EE10FA02D20921C1673E
:101ED00030E0384890ED190ADFED370AB4EEE00A39
:101EE000F1EE10FA04DD9FED350AFFF7FDFD21E06C
:101EF000304890ED190ADFED320AB4EEE00AF1EE57
:101F000010FA04D29FED2F0AFFF7EEFD12E02948E8
:101F100090ED180ADFED2C0AB4EEE00AF1EE10FAAB
:101F200004DD9FED2A0AFFF7DFFD03E09FED280A9D
:101F3000FFF7DAFD1F48C06F062806D0072810D02B
:101F400008281AD0092830D123E0012211460020A8
:101F50009FED1E1ADFED1F0A9FED1F0A03F08CFF95
:101F600024E00122114610469FED141ADFED1B0AF2
:101F70009FED1B0A03F080FF18E00122911E002054
:101F80009FED131ADFED170A9FED170A03F074FF98
:101F90000CE00122911E10469FED0A1ADFED130A94
:101FA0009FED130A03F068FF00E000BF00BF0120AF
:101FB00010BD0000DC04002000803B450000B4425E
:101FC0000080D4440000B4C200008343000000003D
:101FD00000003443008054450040FB4400108B4512
:101FE000000016C40000AF440040FBC40000AF4333
:101FF0000000164410B52E4890ED000ADFED2D0AC2
:10200000B4EEE00AF1EE10FA23DD90ED000ADFED08
:102010002A0AB4EEE00AF1EE10FA1AD2274890ED3F
:10202000000ADFED270AB4EEE00AF1EE10FA10DD47
:1020300090ED000ADFED230AB4EEE00AF1EE10FAAB
:1020400007D22148D0ED170AB0EE600A00F03EF842
:102050002CE0174890ED000ADFED160AB4EEE00A16
:10206000F1EE10FA1BD390ED000ADFED130AB4EE87
:10207000E00AF1EE10FA12DC104890ED000ADFEDF4
:10208000100AB4EEE00AF1EE10FA08D390ED000A5F
:10209000DFED0C0AB4EEE00AF1EE10FA06DD0A48B4
:1020A000D0ED170AB0EE600A00F08AF910BD00000A
:1020B000A00000200000AFC40000AF44A400002036
:1020C0000000614400C07345DC04002010B52DED14
:1020D000068BB0EE408A9E480068401C9C49086010
:1020E0009C48006830B101282CD0022878D0032801
:1020F00027D1BFE0002096490860974890ED180A64
:10210000964880ED000A944890ED190A944880EDB5
:10211000000A9FED940A38EE400A934880ED000AC9
:102120008C480068401C8B49086090A1914806F0DB
:1021300061FF8EA18F4806F05DFF8CA18D4806F0EF
:1021400059FFDDE00020824908608B4A01218B485D
:1021500007F02CF842F210720221884807F026F8A6
:102160007D4890ED190AF0EE401A90ED180AB0EE95
:10217000401A7B48D0ED000A784890ED000A02F042
:10218000B1FFB0EE409AF0EE609A9FED7D0B53ECFC
:10219000102B51EC190B0BF0AFFB13D26D480068FC
:1021A000401C6C4908606C4890ED180A6B4880ED43
:1021B000000A694890ED190A694880ED000A00207C
:1021C0006349086070A16B4806F014FF6EA169486E
:1021D00006F010FF6CA1674806F00CFF90E0FFE7E7
:1021E0006B4890ED000AFFF757FCBDEEC00A10EEF9
:1021F000104A22460121614806F0D8FF644890ED5C
:10220000000AFFF749FCBDEEC00A10EE104A224654
:1022100002215A4806F0CAFF5D4800680BF064FDD1
:1022200041EC1A0BB0EE4A0AF0EE6A0A07F078FEAB
:10223000B0EE409AF0EE609A9FED560B53EC102BE7
:1022400051EC190B0BF01EFA07D242480068401CF3
:102250004049086000203E49086050A1454806F00A
:10226000C9FE4EA1434806F0C5FE4CA1414806F008
:10227000C1FE45E042F210720121404806F096FF8F
:102280003D4A02213D4806F091FF334890ED190A7E
:10229000F0EE401A90ED180AB0EE401A3048D0ED3A
:1022A000000A2E4890ED000A02F01CFFB0EE409AA2
:1022B000F0EE609A9FED3B0B53EC102B51EC190B99
:1022C0000BF01AFB0FD22448007820F0200022499E
:1022D00008700846007840F04000087000201D4952
:1022E00008601B49086031A1224806F083FE2FA137
:1022F000204806F07FFE2DA11E4806F07BFE00BFA1
:1023000000BFF0EE480A184890ED000A09F080FB83
:102310001F4880ED000A0F4826A10268154806F004
:1023200069FE0B480068FA280FDD0B48007820F0A2
:102330002000094908700846007840F04000087005
:1023400000200449086002490860BDEC068B10BDFE
:10235000D8000020CC000020DC040020C4000020B5
:10236000C800002000003442D000002067657425BA
:102370006409000000500040F0D8FFFF00680040F2
:102380000000000000C072406765743225640900D7
:10239000D400002000000000000014406765743382
:1023A000256409000000000000007940676574346E
:1023B0002564090065703D2564090D0A00000000D0
:1023C00010B52DED068BB0EE408A9B480068401C8E
:1023D00099490860F0EE480A984890ED000A09F023
:1023E00017FB974880ED000A9648006830B1012835
:1023F00029D0022872D0032824D1B9E0924890ED68
:10240000180A924880ED000A8F4890ED190A90480A
:1024100080ED000A9FED8F0A38EE000A874880EDB4
:10242000000A88480068401C864908608AA18C48D8
:1024300006F0E0FD88A18A4806F0DCFD86A1884808
:1024400006F0D8FDDAE0874A0121874806F0AEFEA3
:1024500042F210720221844806F0A8FE7A4890EDFC
:10246000190AF0EE401A90ED180AB0EE401A7848BA
:10247000D0ED000A754890ED000A02F033FEB0EE90
:10248000409AF0EE609A9FED790B53EC102B51ECD3
:10249000190B0BF031FA13D26A480068401C6949E5
:1024A0000860694890ED180A684880ED000A66489F
:1024B00090ED190A664880ED000A00205E49086028
:1024C0006CA1674806F096FD6AA1654806F092FD8A
:1024D00068A1634806F08EFD90E0FFE7584890ED54
:1024E000000AFFF7D9FABDEEC00A10EE104A2246E4
:1024F00001215D4806F05AFE514890ED000AFFF7B1
:10250000CBFABDEEC00A10EE104A22460221564810
:1025100006F04CFE4A4800680BF0E6FB41EC1A0B53
:10252000B0EE4A0AF0EE6A0A07F0FAFCB0EE409A02
:10253000F0EE609A9FED510B53EC102B51EC190B00
:102540000BF0A0F807D23F480068401C3D490860E6
:102550000020394908604BA1414806F04BFD49A1D4
:102560003F4806F047FD47A13D4806F043FD45E0E2
:1025700042F2107201213C4806F018FE394A02214D
:10258000394806F013FE304890ED190AF0EE401A73
:1025900090ED180AB0EE401A2D48D0ED000A2B48F5
:1025A00090ED000A02F09EFDB0EE409AF0EE609AC7
:1025B0009FED360B53EC102B51EC190B0BF09CF9E3
:1025C0000FD22148007820F020001F4908700846EB
:1025D000007840F04000087000201A490860164951
:1025E00008602CA11E4806F005FD2AA11C4806F033
:1025F00001FD28A11A4806F0FDFC00BF00BF1148EC
:1026000026A10268164806F0F5FC0B480068FA2877
:102610000FDD0D48007820F020000B4908700846B7
:10262000007840F040000870002006490860024928
:102630000860BDEC068B10BDF0000020E800002013
:10264000EC000020E4000020DC040020DC0000207E
:10265000E000002000003442676574256409000032
:1026600000500040F0D8FFFF00680040000000006C
:1026700000C07240676574322564090000000000E4
:1026800000001440676574332564090000000000F1
:1026900000007940676574342564090065703D2544
:1026A00064090D0A000000001CB50121102004F08F
:1026B000B5FC8020009001208DF8040000208DF8EA
:1026C000060003208DF8050002208DF807006946FA
:1026D000034802F043FF8021014802F0B3FF1CBD14
:1026E0000010024000BFFEE710B53B4803783B4AAC
:1026F0003B493C4800F0A8FC39480068302803D129
:10270000364908780AF0E0FA3548006840F2872137
:1027100088420DD13148006845F65001884207D102
:102720002E4890ED010AB8EEC00A2F4880ED050A48
:102730002B480068B0F5227F0DD12848006845F687
:102740005601884207D1254890ED010AB8EEC00A2B
:10275000254880ED580A2248006840F286218842C8
:102760000DD11E48006845F65001884207D11B482C
:1027700090ED010AB8EEC00A1B4880ED090A1B491A
:10278000184800F0B3F81949491C164800F0AEF893
:102790001649C91C134800F0A9F81549114800F062
:1027A000A5F814490F4800F0A1F813490D4800F0AE
:1027B0009DF8114908310B4800F098F80F49094875
:1027C00000F094F80E49074800F090F80C490831E1
:1027D000044800F08BF810BD3804002030040020BD
:1027E0003C04002000640040DC0400200100F010E4
:1027F0007000F030030000120800003203000014E3
:10280000080000341CB52E4803786A462D492E482E
:1028100000F01AFC2B48006840F2822188420BD15C
:1028200045F656010098884206D19DED010AB8EEA2
:10283000C00A264880ED110A2248006840F2812132
:10284000884210D122480068401C2149086045F6A2
:1028500056010098884206D19DED010AB8EEC00AE3
:102860001A4880ED140A1B49174800F03FF819492F
:10287000491C154800F03AF81649C91C124800F0E6
:1028800035F81549104800F031F814490E4800F0A9
:102890002DF813490C4800F029F8114908310A486D
:1028A00000F024F80F49084800F020F80E490648C7
:1028B00000F01CF80C490831034800F017F81CBD63
:1028C000440400204004002000680040DC04002094
:1028D0000C0400200100F0107000F0300300001222
:1028E00008000032030000140800003400220C4BE2
:1028F000994202D10023836111E0C1F3130201F078
:1029000000730BB1C2600AE001F080630BB1026199
:1029100005E001F000630BB1826000E042607047A7
:102920007000F0302DE9F04F8BB006460F4614468C
:102930001D46DDF850804FF00009CA46CB46B5F57C
:10294000807F43D012DC102D34D008DC012D25D03F
:10295000022D26D0042D27D0082D4FD127E0202D81
:102960002BD0402D2CD0802D48D12CE0B5F5805FA8
:1029700038D009DCB5F5007F2BD0B5F5806F2BD0B2
:10298000B5F5006F3AD12AE0B5F5005F2DD0B5F569
:10299000804F2DD0B5F5004F30D12CE04FF000091D
:1029A0002DE04FF001092AE04FF0020927E04FF037
:1029B000030924E04FF0040921E04FF005091EE06F
:1029C0004FF006091BE04FF0070918E04FF0080927
:1029D00015E04FF0090912E04FF00A090FE04FF03F
:1029E0000B090CE04FF00C0909E04FF00D0906E06F
:1029F0004FF00E0903E04FF00F0900E000BF00BFE9
:102A0000B8F5807F4BD01ADCB8F1100F3BD00CDC4E
:102A1000B8F1010F2BD0B8F1020F2BD0B8F1040F91
:102A20002BD0B8F1080F52D12AE0B8F1200F2DD0E9
:102A3000B8F1400F2DD0B8F1800F48D12CE0B8F597
:102A4000805F38D009DCB8F5007F2BD0B8F5806FF7
:102A50002BD0B8F5006F3AD12AE0B8F5005F2DD041
:102A6000B8F5804F2DD0B8F5004F30D12CE04FF0A5
:102A7000000A2DE04FF0010A2AE04FF0020A27E099
:102A80004FF0030A24E04FF0040A21E04FF0050A5A
:102A90001EE04FF0060A1BE04FF0070A18E04FF067
:102AA000080A15E04FF0090A12E04FF00A0A0FE099
:102AB0004FF00B0A0CE04FF00C0A09E04FF00D0A42
:102AC00006E04FF00E0A03E04FF00F0A00E000BFEF
:102AD00000BF7F48304418B1B0F5806F1AD10CE0C8
:102AE0004FF0090B00208DF8120014208DF804001F
:102AF0000121480604F0A2FA0DE04FF0090B0E2068
:102B00008DF8120040208DF804000121000504F02A
:102B100095FA00E000BF00BFC4F3090078BBA01223
:102B2000A0F580108038092834D2DFE800F0050ACB
:102B30000F14191E23292E000121084604F06EFAF5
:102B400029E00121022004F069FA24E00121042097
:102B500004F064FA1FE00121082004F05FFA1AE093
:102B60000121102004F05AFA15E00121202004F080
:102B700055FA10E00121402004F050FA0BE009E082
:102B80000121802004F04AFA05E00121080204F046
:102B900045FA00E000BF00BF5A464946204602F011
:102BA00025FD5A465146204602F020FD45EA080020
:102BB000099002208DF828008DF8290000208DF85A
:102BC0002A0001208DF82B0009A9204602F0C6FC3E
:102BD000304600F07FF800208DF81E008DF81F00B1
:102BE0008DF820008DF821008DF822008DF823004B
:102BF0008DF81A008DF81B000B208DF81C000720A3
:102C00008DF81D007D2F22D008DC0A2F0FD0142F45
:102C100011D0322F13D0642F29D114E0FA2F1AD0FB
:102C2000B7F5FA7F1BD0B7F57A7F20D11BE0C8201B
:102C3000ADF818001CE06420ADF8180018E028205A
:102C4000ADF8180014E01420ADF8180010E01020C2
:102C5000ADF818000CE00820ADF8180008E00420DA
:102C6000ADF8180004E00220ADF8180000E000BF45
:102C700000BF06A9304600F0D6F800208DF81300FA
:102C800001208DF814000020ADF80800ADF80A000E
:102C9000ADF80C00ADF80E00ADF8100001208DF875
:102CA000150002A800F032F802208DF8050003207C
:102CB0008DF8060001208DF8070001A803F0D0FA76
:102CC00001220221304600F0A5F80BB0BDE8F08FDC
:102CD000009CFFBF10B504460B48844209D1012176
:102CE000480604F0BBF900214FF0007004F0B6F97B
:102CF00008E00121880604F0B1F900214FF080605E
:102D000004F0ACF910BD00000064004010B50021D3
:102D1000837A012202FA03F13D4A126842F001026D
:102D20003B4B1A603A4A1C3212688A43384B1C33B8
:102D30001A60027BCAB9364A0C3212688A43344B95
:102D40000C331A604288C38842EA0343304A403257
:102D5000847A42F834300288838842EA03432C4A5A
:102D60004032847A02EBC4025360027B012A19D1FB
:102D7000274A0C3212680A43254B0C331A604288EA
:102D8000038842EA0343224A4032847A42F83430CC
:102D9000C288838842EA03431D4A4032847A02EBA8
:102DA000C4025360C27A3AB9194A121D12688A43A2
:102DB000174B1B1D1A6006E0154A121D12680A43C4
:102DC000134B1B1D1A60028932B9114A1432126862
:102DD0008A430F4B14331A600289012A06D10C4A28
:102DE000143212680A430A4B14331A60427B012AD8
:102DF00006D1074A1C3212680A43054B1C331A607D
:102E0000034A126822F00102014B1A6010BD000053
:102E1000006600401AB143690B43436102E0436915
:102E20008B434361704730B502460020002314688D
:102E300024F002041460146844F00104146000E0FB
:102E40005B1C546804F001041CB94FF6FF74A342E4
:102E5000F6D1546804F001040CB900206CE08C79C0
:102E6000012C04D1146844F08004146003E0146859
:102E700024F080041460CC79012C04D1146844F04F
:102E80004004146003E0146824F0400414600C7AD9
:102E9000012C04D1146844F02004146003E0146889
:102EA00024F0200414604C7A012C04D1146844F0FE
:102EB0001004146003E0146824F0100414608C7A89
:102EC000012C04D1146844F00804146003E0146871
:102ED00024F008041460CC7A012C04D1146844F066
:102EE0000404146003E0146824F0040414608C7873
:102EF000A407CD7844EA05640D7944EA05444D7988
:102F000044EA05540D886D1E2C43D461146824F0E6
:102F100001041460002300E05B1C546804F0010409
:102F20001CB14FF6FF74A342F6D1546804F00104BB
:102F30000CB1002000E0012030BD0246002019B98C
:102F4000D36803F0030006E0012903D1136903F0FD
:102F5000030000E00020704710B500F5D87303EBC4
:102F600001131B6803F004031372137A53B900F5BD
:102F7000D87303EB01131B6840F2FF7404EA535348
:102F8000136009E000F5D87303EB01131B686FF0C1
:102F9000604404EAD303536000F5D87303EB0113D4
:102FA0001B6803F00203537200F5D87303EB01139F
:102FB0005B6803F00F03937200F5D87303EB011302
:102FC0005B681B0AD37400F5D87303EB01139B688D
:102FD000D37200F5D87303EB01139B681C0A1473BA
:102FE00000F5D87303EB01139B681C0C547300F5B8
:102FF000D87303EB01139B681B0E937300F5D87312
:1030000003EB0113DB68D37300F5D87303EB0113F3
:10301000DB681C0A147400F5D87303EB0113DB683A
:103020001C0C547400F5D87303EB0113DB681B0E02
:10303000937421B9C36843F02003C36003E00369BC
:1030400043F02003036110BD2DE9F04186B08046B6
:103050000D4616461F46002400214046FFF76DFF2F
:1030600018B9002006B0BDE8F08101AA0021404651
:10307000FFF772FF002405E00DF10F00005D3055F1
:10308000601CC4B2BC42F7DB019828600120E9E76C
:1030900010B502460020936803F08063B3F1806F9F
:1030A00000D110E0936803F00063B3F1006F01D129
:1030B000012008E0936803F08053B3F1805F01D1F1
:1030C000022000E00420042874D002F5C07303EB52
:1030D00000131B6803F0010402F5C07303EB001337
:1030E0001C600B7A7BB94B7A0C8843EA445302F597
:1030F000C07404EB00142468234302F5C07404EB8D
:103100000014236010E00B7A4C6843EAC4034C7A45
:10311000234302F5C07404EB00142468234302F532
:10312000C07404EB001423608B7A03F00F038B72DE
:1031300002F5C07303EB00135B6823F00F0402F584
:10314000C07303EB00135C6002F5C07303EB001364
:103150005B688C7A234302F5C07404EB001463604F
:103160008B7B1C064B7B44EA03440B7B44EA032322
:10317000CC7A234302F5C07404EB0014A3608B7C6B
:103180001C064B7C44EA03440B7C44EA0323CC7BBF
:10319000234302F5C07404EB0014E36002F5C0732E
:1031A00003EB00131B6843F0010402F5C07303EB4B
:1031B00000131C6010BD000010B50246002321B1B1
:1031C000012907D002290FD109E090681D4C00EABF
:1031D00004030BE090681C4C00EA040306E09068CE
:1031E0001A4C00EA040301E0002300BF00BF184CA2
:1031F000181BA34216D007DC83B16FF0806018441F
:1032000070B1022818D111E0B0F5007F10D0114C38
:10321000204448B1B0F5003F0ED10BE002230DE091
:1032200000230BE0002309E0002307E0012305E071
:10323000012303E0012301E0002300BF00BFD8B257
:1032400010BD00000300000400030008000003108C
:10325000000100080001FFF72DE9F04385B0814629
:103260000D4690461E4600240095019500208DF8DD
:1032700008008DF809008DF80A6000BF06E018F814
:1032800004100DF10B000155601C84B2B442F6DB52
:1032900069464846FFF7FCFE0746002400BF394652
:1032A0004846FFF789FF0128F9D105B0BDE8F08352
:1032B00010B502F09FFA01280ED101F0F3F807498A
:1032C000C1F870010846007820F0400008700846F8
:1032D000007840F02000087010BD0000DC040020E1
:1032E00010B52DED028B9FEDFE0AFE4880ED160A0B
:1032F0009FEDFB0A80ED160A90ED180AFA4880ED62
:10330000000AF84890ED190AF84880ED000AF548DF
:1033100090ED170AF64880ED000A08F0B9FBF14875
:1033200090ED140ADFEDF30AB4EEE00AF1EE10FAC4
:1033300003DD0120EB49C1F82801EF480068EB49A3
:10334000D1ED000AE84991ED000A00F025FEEA49B6
:1033500008600846006800EB4001C1EBC010FA218C
:1033600001EB800000EE100AB8EEC00ADE48D0ED96
:10337000000AB4EEE00AF1EE10FA18DDDE4800684B
:1033800000EB801040F2A461A1EB800000EE100A77
:10339000B8EEC00AD548D0ED000AB4EEE00AF1EE6E
:1033A00010FA04DD0021CF48C0F8FC108AE0D248B2
:1033B000006800EB4001C1EBC010FA2101EB800076
:1033C00000EE100AB8EEC00AC748D0ED000AB4EE0D
:1033D000E00AF1EE10FA18D2C748006800EB80103E
:1033E00040F61C4101EB800000EE100AB8EEC00A66
:1033F000BE48D0ED000AB4EEE00AF1EE10FA04DDAA
:103400000121B848C0F8FC105CE0BB48006800EB44
:103410004001C1EBC0106FF0F901A1EB800000EE9C
:10342000100AB8EEC00AB048D0ED000AB4EEE00AC7
:10343000F1EE10FA18D2B048006800EB801040F6A8
:103440001C4101EB800000EE100AB8EEC00AA7484C
:10345000D0ED000AB4EEE00AF1EE10FA04D2022137
:10346000A048C0F8FC102DE0A348006800EB400124
:10347000C1EBC0106FF0F901A1EB800000EE100A63
:10348000B8EEC00A9848D0ED000AB4EEE00AF1EEBA
:1034900010FA17DD9848006800EB801040F2A46134
:1034A000A1EB800000EE100AB8EEC00A8F48D0ED04
:1034B000000AB4EEE00AF1EE10FA03D203218948C3
:1034C000C0F8FC108748D0F8FC0030B101287DD04E
:1034D000022879D0032878D177E101F04DFE8648A3
:1034E000006800EB4001C1EBC01040F21451A1EBA9
:1034F000800000EE900AF8EEE00A30EE200A7B48E9
:10350000D0ED000A30EEC00A764880ED460A9FED05
:103510007B0A80ED450AD0ED450AB0EE600A74489A
:10352000D0ED000A08F074FA6E4880ED470AD0ED3D
:10353000460AB0EE600A09F06BFB6A48D0ED470A14
:1035400030EEC00AB0EE408AFEF7A6FA654880ED7C
:10355000150AD0ED460AB0EE600A09F059FB614841
:10356000D0ED470A30EEC00AB0EE408AFEF794FA7A
:103570005C4880ED120A90ED160AD0ED150A30EE87
:10358000200A80ED130A90ED160AB1EE400AD0ED44
:10359000120A30EE200A80ED100A90ED130ABDEEFB
:1035A000C00A10EE102A0121554805F0FFFD4D48D4
:1035B00090ED100ABDEEC00A10EE102A022150480C
:1035C00005F0F4FD76E101E074E072E101F0D4FD74
:1035D00049480068AF2148434FF4167101EB800061
:1035E00000EE900AF8EEE00A30EEC00A3E48D0ED58
:1035F000000A30EEC00A3B4880ED460A9FED410AC2
:1036000080ED450AD0ED450AB0EE600A3848D0EDAD
:10361000000A08F0FDF9334880ED470AD0ED460A6C
:10362000B0EE600A09F0F4FA2E48D0ED470A30EE09
:10363000200AB0EE408AFEF72FFA2A4880ED150ADC
:10364000D0ED460AB0EE600A09F0E2FA2548D0ED66
:10365000470A30EE200AB0EE408AFEF71DFA2148F4
:1036600080ED120A90ED160AD0ED150A30EE200A10
:1036700080ED130A90ED160AB1EE400AD0ED120A61
:1036800030EE200A80ED100A90ED130ABDEEC00A5C
:1036900010EE102A01211A4805F088FD114890ED1E
:1036A000100ABDEEC00A10EE102A0221144805F0DF
:1036B0007DFDFFE001F060FD0F48006800EB400178
:1036C000C1EBC01040F6AC5101EB800000EE900A57
:1036D000F8EEE00A30EEC00A0448D0ED000A13E02C
:1036E00000D83E46DC040020CC010020D0010020A0
:1036F000D401002000D8BE45D80100200000B4C28B
:10370000006800400000000030EEC00A9F4880EDD5
:10371000460A9FED9F0A80ED450AD0ED450AB0EEBE
:10372000600A9C48D0ED000A08F072F9974880EDD5
:10373000470AD0ED460AB0EE600A09F069FA9348EC
:10374000D0ED470A30EE200AB0EE408AFEF7A4F929
:103750008E4880ED150AD0ED460AB0EE600A09F0F9
:1037600057FA8A48D0ED470A30EE200AB0EE408A78
:10377000FEF792F9854880ED120A90ED160AD0ED19
:10378000150A30EE200A80ED130A90ED160AB1EE0C
:10379000400AD0ED120A30EE200A80ED100A90EDBA
:1037A000130ABDEEC00A10EE102A01217A4805F076
:1037B000FDFC764890ED100ABDEEC00A10EE102A0E
:1037C0000221754805F0F2FC74E001F0D5FC734865
:1037D0000068AF2148434FF4167101EB800000EE02
:1037E000900AF8EEE00A30EEC00A6D48D0ED000A0B
:1037F00030EE200A654880ED460A9FED6A0A80EDAA
:10380000450AD0ED450AB0EE600A6248D0ED000AE4
:1038100008F0FEF85D4880ED470AD0ED460AB0EEAC
:10382000600A09F0F5F95948D0ED470A30EEC00AB0
:10383000B0EE408AFEF730F9544880ED150AD0ED1D
:10384000460AB0EE600A09F0E3F95048D0ED470AA5
:1038500030EEC00AB0EE408AFEF71EF94B4880ED0C
:10386000120A90ED160AD0ED150A30EE200A80ED0E
:10387000130A90ED160AB1EE400AD0ED120A30EEAE
:10388000200A80ED100A90ED130ABDEEC00A10EE7A
:10389000102A0121404805F089FC3C4890ED100AAF
:1038A000BDEEC00A10EE102A02213B4805F07EFC56
:1038B00000E000BF00BF3548D0F80801032802DD52
:1038C000182032490870334890ED000ABDEEC00A56
:1038D00010EE102A34A1354805F08CFB2B4890EDF2
:1038E000180ABDEEC00A10EE102A2FA12F4805F0CD
:1038F00081FB264890ED190ABDEEC00A10EE102A91
:1039000029A12A4805F076FB294827A10268274803
:1039100005F070FB214824A10268244805F06AFBE9
:103920001A4890ED470ABDEEC00A10EE102A1EA1FB
:103930001E4805F05FFB154890ED460ABDEEC00A33
:1039400010EE102A18A1194805F054FB0F4890ED0D
:10395000140ABDEEC00A10EE102A13A1134805F098
:1039600049FB0A4890ED130ABDEEC00A10EE102A7A
:103970000DA10E4805F03EFB04480EA1D0F8FC2036
:103980000A4805F037FBBDEC028B10BDDC040020BB
:103990000000B442D401002000680040D80100209B
:1039A000CC01002000003443256409000050004091
:1039B000900100202564090D0A00000010B588B0B0
:1039C00004460121082003F029FB0121480403F0EB
:1039D00035FB07220521244801F008FE07220621B5
:1039E000214801F003FE6020069002208DF81C00A3
:1039F0008DF81D0000208DF81E0001208DF81F009D
:103A000006A9194801F0AAFD02940020ADF80C00A7
:103A1000ADF80E00ADF81000ADF814000C20ADF8B4
:103A2000120002A9114805F07BFA40210F4805F069
:103A300093F926208DF8040000208DF8050002205F
:103A40008DF8060001208DF8070001A802F008FC9F
:103A5000012240F22551054805F03DFA01210348B5
:103A600005F092F908B010BD000C0240004400407F
:103A700070B52DED0C8BB0EE409AF0EE609AB0EE82
:103A800041AA04468C4890ED000A60EE000AB1EEAF
:103A9000001A80EE810A8948D0ED000A90ED001AE4
:103AA00000EE810A10EE105A28460AF01DF941EC8A
:103AB0001C0BB0EE4C0AF0EE6C0A07F0F9F9B0EE10
:103AC00040BAF0EE60BA51EC1B0B09F0FFFA0AEEB7
:103AD000900ADFED7B0A8AEE200ADFED7A0A20EEFB
:103AE000200AB0EE40DA9FED780A3AEE000AB0EE16
:103AF000408A9FED750A3AEE000AF0EE408A9FED8B
:103B0000700AB4EEC08AF1EE10FA06DB9FED6F0A80
:103B100038EE400AB0EE408A0CE09FED6D0AB4EE3C
:103B2000C08AF1EE10FA05D89FED680A38EE000A57
:103B3000B0EE408A9FED620AF4EEC08AF1EE10FA10
:103B400006DB9FED620A38EEC00AF0EE408A0CE018
:103B50009FED5F0AF4EEC08AF1EE10FA05D89FEDF2
:103B60005B0A38EE800AF0EE408A5348D0ED000A36
:103B7000B0EE001A80EE810A5048D0ED000A80EEC7
:103B8000201AB0EE41BAB0EE4B0A05F0F1FF9FEDFE
:103B90004C1AC8EE010A9FED4B1A10EE810AB0EEE6
:103BA000408A4548D0ED000AB0EE001A80EE810A46
:103BB0004248D0ED000A80EE201AB0EE41BAB0EED5
:103BC0004B0A05F0D5FF9FED3E1AC8EE810A9FED26
:103BD0003D1A00EE810AF0EE408A374890ED000A67
:103BE000F0EE000A80EE20BAB0EE4D0A06F0F0F8D2
:103BF000F0EE490A4BEE400AC4ED020A2E4890ED61
:103C0000000AF0EE000A80EE20BAB0EE4D0A07F08E
:103C100087F8F0EE690A4BEE400AC4ED030A264825
:103C200090ED000AF0EE000A80EE20BAB0EE4D0AE8
:103C300006F0CEF8F0EE490A4BEE000AC4ED040A95
:103C40001D4890ED000AF0EE000A80EE20BAB0EEBA
:103C50004D0A07F065F8F0EE690A4BEE000AC4ED74
:103C6000050AB0EE680A06F0B3F8F0EE490A4AEE2B
:103C7000800AC4ED000AB0EE680A07F051F8F0EED1
:103C8000690A4AEE800AC4ED010AB0EE480A06F05D
:103C90009FF8F0EE490A4AEE800AC4ED060AB0EE3B
:103CA000480A07F03DF8F0EE690A4AEE800AC4EDD2
:103CB000070ABDEC0C8B70BD2C01002028010020F0
:103CC00000003443DB0F49400000B4420000B4431D
:103CD000000034C33048D0F8900058BB2E48D0F8CC
:103CE000880088B99FED2D0A2B4880ED280A9FEDAA
:103CF0002C0A80ED290A9FED2B0A80ED2A0A9FED00
:103D00002A0A80ED2B0A45E02348D0F8880058B3F2
:103D10009FED260A204880ED2C0A9FED250A80EDB4
:103D20002D0A9FED240A80ED2E0A9FED230A80EDD7
:103D30002F0A2FE01848D0F8900001282AD1164801
:103D4000D0F8880088B99FED150A134880ED280A3D
:103D50009FED1A0A80ED290A9FED120A80ED2A0ACA
:103D60009FED170A80ED2B0A14E00B48D0F888006D
:103D700080B19FED0E0A084880ED2C0A9FED0C0AD9
:103D800080ED2D0A9FED0B0A80ED2E0A9FED0A0AA9
:103D900080ED2F0A70470000DC0400200000C842BC
:103DA000004035450000C8C20000964400C08A4467
:103DB00000E05D4500C08AC400409C4400C0284526
:103DC0000080ED4410B52DED048B08F0A1FD6B488B
:103DD000D0ED180A30EEC00A10EE104A204609F065
:103DE00083FF41EC190BB0EE490AF0EE690A06F0C8
:103DF00097F8B0EE408AF0EE608A9FED610B53ECCD
:103E0000102B51EC180B09F03DFC3BD208F086FD5D
:103E10005A48D0ED190A30EEC00A10EE104A20467A
:103E200009F062FF41EC190BB0EE490AF0EE690AA5
:103E300006F076F8B0EE408AF0EE608A9FED500B07
:103E400053EC102B51EC180B09F01CFC1AD24B4808
:103E500090ED160AB5EEC00AF1EE10FA12D0042168
:103E6000494801F0E6FB20B10421474801F0E1FB9D
:103E700040B946480068401C444908600020444955
:103E8000086002E000204149086008F041FD3B481D
:103E9000D0ED180A30EEC00A10EE104A204609F0A4
:103EA00023FF41EC190BB0EE490AF0EE690A06F067
:103EB00037F8B0EE408AF0EE608A9FED310B53EC9C
:103EC000102B51EC180B09F0DDFB3DD208F026FD5C
:103ED0002A48D0ED190A30EEC00A10EE104A2046EA
:103EE00009F002FF41EC190BB0EE490AF0EE690A45
:103EF00006F016F8B0EE408AF0EE608A9FED200BD7
:103F000053EC102B51EC180B09F0BCFB1CD21B48D6
:103F100090ED160AB5EEC00AF1EE10FA14D00421A5
:103F2000194801F086FB01280ED10121194801F042
:103F300080FB012808D116480068401C144908601D
:103F400000201249086002E0002011490860104872
:103F500000681E2806DD00200D4908600120BDEC28
:103F6000048B10BD09480068642804DD002007495F
:103F700008600220F3E70020F1E70000DC040020E5
:103F80000000000000000840001002401000002067
:103F90000C00002000080240F0B52DED068B83B028
:103FA000B0EE408AF0EE608A04460025002600202C
:103FB0000090019002909FEDF60AB4EEC08AF1EEF7
:103FC00010FA3FDB9FEDF30AF4EEC08AF1EE10FA2F
:103FD00038D89FEDEF0A38EE400ADFEDEF0A80EEA9
:103FE000201A11EE107A384609F07EFE41EC1A0BC9
:103FF000B0EE4A0AF0EE6A0A05F092FFB0EE409A7F
:10400000F0EE609A51EC190B09F0E2FA05469FEDCB
:10401000E30AC8EE800A10EE907A384609F064FE92
:1040200041EC1A0BB0EE4A0AF0EE6A0A05F078FF8E
:10403000B0EE409AF0EE609A51EC190B09F0C8FA14
:104040000646DBE09FEDD60AB4EEC08AF1EE10FA28
:1040500043DB9FEDD00AF4EEC08AF1EE10FA3CDBB0
:104060009FEDCB0A38EE000ADFEDCE0A80EE201A73
:1040700011EE107A384609F037FE41EC1A0BB0EE1B
:104080004A0AF0EE6A0A05F04BFFB0EE409AF0EEF5
:10409000609A51EC190B09F09BFA05469FEDBD0A99
:1040A00038EEC00ADFEDC00A80EE201A11EE107A59
:1040B000384609F019FE41EC1A0BB0EE4A0AF0EE50
:1040C0006A0A05F02DFFB0EE409AF0EE609A51ECCE
:1040D000190B09F07DFA064690E09FEDB10AB4EEA7
:1040E000C08AF1EE10FA43D29FEDB00AF4EEC08A16
:1040F000F1EE10FA3CDD9FEDA60A38EE000ADFED86
:10410000A60A80EE201A11EE107A384609F0ECFD6E
:1041100041EC1A0BB0EE4A0AF0EE6A0A05F000FF15
:10412000B0EE409AF0EE609A51EC190B09F050FA9B
:1041300005469FED9E0A38EEC00ADFED980A80EE34
:10414000201A11EE107A384609F0CEFD41EC1A0B18
:10415000B0EE4A0AF0EE6A0A05F0E2FEB0EE409ACE
:10416000F0EE609A51EC190B09F032FA064645E080
:104170009FED870AB4EEC08AF1EE10FA3ED29FEDB1
:104180008B0AF4EEC08AF1EE10FA37D29FED800A66
:1041900038EE400ADFED830A80EE201A11EE107A25
:1041A000384609F0A1FD41EC1A0BB0EE4A0AF0EED8
:1041B0006A0A05F0B5FEB0EE409AF0EE609A51EC56
:1041C000190B09F005FA05469FED770AC8EE800A3B
:1041D00010EE907A384609F087FD41EC1A0BB0EEEC
:1041E0004A0AF0EE6A0A05F09BFEB0EE409AF0EE45
:1041F000609A51EC190B09F0EBF90646032D00DB30
:104200000225032E00DB0226694800686949086020
:104210009FED5F0AB4EEC08AF1EE10FA0DDB9FED60
:104220005D0AF4EEC08AF1EE10FA06D8002060496B
:1042300008600120604908603DE09FED590AB4EE36
:10424000C08AF1EE10FA0DDB9FED520AF4EEC08A3F
:10425000F1EE10FA06DB01205549086002205649AC
:10426000086028E09FED4E0AB4EEC08AF1EE10FA25
:104270000DD29FED4E0AF4EEC08AF1EE10FA06DD83
:1042800002204B49086001204B49086013E09FED74
:10429000400AB4EEC08AF1EE10FA0CD29FED430A48
:1042A000F4EEC08AF1EE10FA05D20320404908600E
:1042B0000220414908603F4800683D49096888423A
:1042C00002D001203D4908603C48006800285ED0CB
:1042D00039480068012802D0022876D12BE002205C
:1042E00017E0214612E0324A126802EBC202344B58
:1042F00003EB820201EB410302EB830252F8202020
:104300005DF820301A444DF82020491E0029EADAD1
:10431000401E0028E5DA02200AE02A4A12685DF809
:1043200022105DF82020914201DD26490860401EE0
:104330000028F2DA4AE0022017E0214612E01C4A87
:10434000126802EBC2021E4B03EB820201EB410337
:1043500002EB830252F820205DF820301A444DF819
:104360002020491E0029EADA401E0028E5DA022052
:104370000AE0144A12685DF822105DF8202091428C
:1043800001DD10490860401E0028F2DA1EE021E03D
:1043900000007A4300C0414500002F4400007A44E9
:1043A00000007AC30000614400000C440080D44443
:1043B000E4010020E8010020F0010020EC010020D1
:1043C00068060020E0010020FFE700BF00BF0020DA
:1043D0002949086001202949096801EBC101284ADF
:1043E00002EB810106EB460201EB820141F8250058
:1043F000BDEEC80A10EE102A22A1234804F0FAFDEF
:10440000BDEEE80A10EE102A1EA11F4804F0F2FDCE
:104410001E481CA102681C4804F0ECFD1C4819A1B0
:104420000268194804F0E6FD1A4816A10268164809
:1044300004F0E0FD184813A10268134804F0DAFD07
:104440000E4810A10268104804F0D4FD2A460DA1C0
:104450000D4804F0CFFD32460AA10B4804F0CAFD16
:1044600005480EA10268084804F0C4FD0948006828
:1044700003B0BDEC068BF0BDEC010020E401002090
:1044800068060020256409000050004090010020CB
:1044900094010020E0010020F00100202564090DB6
:1044A0000A0000002DE9F0432DED048B91B09548F2
:1044B00090ED180AB0EE408A90ED190AF0EE408AAD
:1044C00090ED170AB0EE409A202109A8FBF72CFFC7
:1044D00000200590069007900890019002900390AC
:1044E00004900024002609A8B0EE491AF0EE680AEC
:1044F000B0EE480AFFF7BCFA00274FF003082CE0A3
:1045000000254FF0030924E0DFF8FCC10CEBC900E3
:104510000CEBC5010DF1240C0CEBC8020CEBC7032E
:10452000D0ED013A90ED003AD1ED012A91ED002A4B
:10453000D2ED011A92ED001AD3ED010A93ED000AB3
:1045400000F002F918B1012005A941F82500A9469B
:104550006D1C032DD8DDB8467F1C032FD0DD00274E
:104560004FF003082CE000254FF0030924E0DFF8AA
:104570009CC10CEBC9000CEBC5010DF1240C0CEB3C
:10458000C8020CEBC703D0ED013A90ED003AD1ED33
:10459000012A91ED002AD2ED011A92ED001AD3ED15
:1045A000010A93ED000A00F0CFF818B1012001A92B
:1045B00041F82500A9466D1C032DD8DDB8467F1CA7
:1045C000032FD0DD0598012808D00698012805D0D2
:1045D0000798012802D00898012801D1022400E0A0
:1045E0000024022C0ED00198012808D0029801283E
:1045F00005D00398012802D00498012801D1012494
:1046000000E00024022C20D1DDE9050108440799CF
:1046100008440899084402283BD1DDE90501084413
:1046200002280ED0DDE906010844022809D0DDE9A0
:1046300007010844022804D0059908980844022874
:1046400001D1022625E0002623E0012C20D1DDE95E
:10465000010108440399084404990844022818D128
:10466000DDE90101084402280ED0DDE90201084419
:10467000022809D0DDE903010844022804D0019989
:1046800004980844022801D1012602E0002600E037
:104690000026022C03D102201D49086009E0012CEC
:1046A00003D101201A49086003E014B90320184916
:1046B000086026B916480068154908600AE0012E0E
:1046C00003D104201249086004E0022E02D1052023
:1046D0000F49086032460FA1124804F08BFC2246B5
:1046E00011A1104804F086FC094813A102680D4886
:1046F00004F080FC0648006811B0BDEC048BBDE8F6
:10470000F0830000DC040020800000206000002016
:10471000A8000020737469636B436F726E6F723D03
:104720002564090000500040696E7465727365630A
:10473000743D256409000000737469636B537461F0
:104740007475733D2564090010B52DED080B2DED32
:10475000048B9DED0A0ADDED060A30EE600ADDED00
:10476000050A9DED071A70EEC10A20EE200ADDED64
:10477000040A9DED061A70EEC10A9DED0B1ADDEDDF
:10478000071A31EE611A00EEC10ADDED080A9DED4F
:10479000061A70EEC10A9DED051ADDED071A31EE1D
:1047A000611A60EE810A9DED041ADDED061A31EE04
:1047B000611ADDED091A9DED072A71EEC21A41EE6C
:1047C000610A20EE200AB0EE408A9DED040ADDED7C
:1047D0000A0A30EE600ADDED090A9DED0B1A70EE53
:1047E000C10A20EE200ADDED080A9DED0A1A70EEDE
:1047F000C10A9DED051ADDED0B1A31EE611A00EECE
:10480000C10ADDED060A9DED0A1A70EEC10A9DEDA2
:10481000091ADDED0B1A31EE611A60EE810A9DED89
:10482000081ADDED0A1A31EE611ADDED071A9DED69
:104830000B2A71EEC21A41EE610A20EE200AF0EE58
:10484000408A9DED061AF0EE410A9DED041AB0EE85
:10485000410A01F0B9FCB0EE409A9DED0A1AF0EE63
:10486000410A9DED081AB0EE410A01F0C5FCB4EE14
:10487000C09AF1EE10FA5FDB9DED0A1AF0EE410AE4
:104880009DED081AB0EE410A01F09EFCB0EE409A90
:104890009DED061AF0EE410A9DED041AB0EE410AB4
:1048A00001F0AAFCB4EEC09AF1EE10FA44DB9DEDE3
:1048B000071AF0EE410A9DED051AB0EE410A01F02B
:1048C00083FCB0EE409A9DED0B1AF0EE410A9DED8F
:1048D000091AB0EE410A01F08FFCB4EEC09AF1EE75
:1048E00010FA29DB9DED0B1AF0EE410A9DED091A35
:1048F000B0EE410A01F068FCB0EE409A9DED071A57
:10490000F0EE410A9DED051AB0EE410A01F074FC8B
:10491000B4EEC09AF1EE10FA0EDBB5EEC08AF1EEFD
:1049200010FA09D8F5EEC08AF1EE10FA04D8012089
:10493000BDEC048B08B010BD0020F9E710B510489D
:10494000C06F042802D0052816D10AE0DFED0D1A49
:104950009FED0D1ADFED0D0A9FED0D0A02F086FFA7
:104960000BE0DFED081A9FED081ADFED0A0A9FED54
:10497000080A02F07BFF00E000BF00BF012010BD6D
:10498000DC0400200000164500000000008089447F
:104990000000E1440000C844F0EE400A0E4890EDEB
:1049A000000A20EE200A0D4890ED001AB8EEC11A58
:1049B00030EEC11A0A48D0ED001A01EE810A09480A
:1049C00080ED000ABDEEE00A044880ED000A0548CB
:1049D00090ED000A70470000880200208402002049
:1049E0008C0200209002002010B5FDF703FB10BDE3
:1049F00010B507F04DF81948D0F8880010B903F049
:104A00004DF91CE01548D0F88800012805D1042193
:104A10001248C167FFF792FF11E01048D0F88800F4
:104A2000022805D105210D48C167FFF787FF06E081
:104A30000A48D0F88800032801DB03F011FA074880
:104A4000D0F88800042808D10448007820F001003C
:104A50000249087000210148C16710BDDC04002034
:104A600010B52DED028BB0EE408AB0EE480A00F092
:104A70000FF8BDEEC00A10EE104A22460821034886
:104A800004F094FBBDEC028B10BD000000640040FC
:104A9000F0EE400A9FED020A20EE800A7047000007
:104AA00000008045024600EE102AB8EEC00ADFED95
:104AB0001C0AB4EEE00AF1EE10FA0ADC00EE102A4D
:104AC000B8EEC00ADFED170AB4EEE00AF1EE10FA14
:104AD00003D20020144B186002E00120124B186032
:104AE00000EE101AB8EEC00ADFED0D0AB4EEE00ACF
:104AF000F1EE10FA0ADC00EE101AB8EEC00ADFED93
:104B0000090AB4EEE00AF1EE10FA03D20020064BD7
:104B1000186002E00120044B1860034800687047E9
:104B200000A8874500808E435C02002010B52DED63
:104B3000068BB0EE408A4648006848B99FED450AAA
:104B400038EE400A444880ED000A012040490860E0
:104B5000F0EE480A404890ED000A06F059FF3F4841
:104B600080ED000A3E480068401C3D490860084648
:104B7000006896280BDA3B4A01213B4804F016FBFB
:104B800042F210720221384804F010FB4BE0344826
:104B90000068962847DB314890ED000AFCF77CFF5F
:104BA000BDEEC00A10EE104A224601212E4804F044
:104BB000FDFA2A4890ED000AFCF76EFFBDEEC00A30
:104BC00010EE104A22460221274804F0EFFA23484B
:104BD000006809F089F841EC1A0BB0EE4A0AF0EED1
:104BE0006A0A05F09DF9B0EE409AF0EE609A9FEDEA
:104BF0001F0B53EC102B51EC190B08F043FD12D294
:104C0000002013490860164908601A48007840F0EF
:104C10004000184908700846007820F0200008700D
:104C200000201549086014480068FA280DDD114875
:104C3000007820F020000F4908700846007840F006
:104C40004000087000200C490860BDEC068B10BDC8
:104C50007001002000003442680100206C01002037
:104C600074010020F0D8FFFF006800400000000041
:104C700000001440DC0400207801002010B52DED68
:104C8000068BB0EE408A4648006848B99FED450A59
:104C900038EE000A444880ED000A012040490860CF
:104CA000F0EE480A404890ED000A06F0B1FE3F4899
:104CB00080ED000A3E480068401C3D4908600846F7
:104CC000006896280BDA3B4A01213B4804F06EFA53
:104CD00042F210720221384804F068FA4BE034487E
:104CE0000068962847DB314890ED000AFCF7D4FEB7
:104CF000BDEEC00A10EE104A224601212E4804F0F3
:104D000055FA2A4890ED000AFCF7C6FEBDEEC00A2F
:104D100010EE104A22460221274804F047FA2348A1
:104D2000006808F0E1FF41EC1A0BB0EE4A0AF0EE21
:104D30006A0A05F0F5F8B0EE409AF0EE609A9FED41
:104D40001F0B53EC102B51EC190B08F09BFC12D2EB
:104D5000002013490860164908601A48007840F09E
:104D60004000184908700846007820F020000870BC
:104D700000201549086014480068FA280DDD114824
:104D8000007820F020000F4908700846007840F0B5
:104D90004000087000200C490860BDEC068B10BD77
:104DA000840100200000B4427C010020800100202A
:104DB00088010020F0D8FFFF0068004000000000DC
:104DC00000001440DC0400208C01002010B50749CD
:104DD000074800F0EBF838B10021054800F024F84E
:104DE0000249034800F006F810BD000000800028CA
:104DF000B86002400246094B9A4201D2084801E0DD
:104E00000648103801F000531BB1064B0B40C3603D
:104E100002E0044B0B4083607047000010640240C6
:104E2000006002407D0F7D0F21B1026842F0010257
:104E3000026003E0026822F0010202607047000095
:104E4000016821F001010160002101604160816081
:104E5000C1600161212141614A49884204D13D215B
:104E6000484A103A91608CE046491831884205D191
:104E70004FF47461434A103A916082E04149303105
:104E8000884205D14FF474113E4A103A916078E09F
:104E90003C494831884205D14FF07461394A103A93
:104EA00091606EE037496031884204D13649354A15
:104EB000103AD16065E033497831884204D13349F2
:104EC000304A103AD1605CE02E499031884204D1DA
:104ED0002F492C4A103AD16053E02A49A831884220
:104EE00005D14FF03D51274A103AD16049E0294998
:104EF000884204D13D21274A083A116041E0254902
:104F00001831884205D14FF47461224A083A116081
:104F100037E020493031884205D14FF474111D4AE1
:104F2000083A11602DE01B494831884205D14FF005
:104F30007461184A083A116023E0164960318842CA
:104F400004D11149134A121F11601AE01149783136
:104F5000884204D10D490F4A121F116011E00D491A
:104F60009031884204D10A490A4A121F116008E0B0
:104F70000849A831884204D14FF03D51054A121F1B
:104F800011607047106002403D000020400F00207B
:104F900000003D2010640240014600200A6802F033
:104FA00001020AB1012000E00020704770B50246FE
:104FB000002000240025124EB24201D2114B01E024
:104FC0000F4B103B104E0E4036B11E2606EAD12480
:104FD000166806EA040502E0566906F0800501F04D
:104FE00000560EB15C6800E01C68084E344004EACC
:104FF000010616B10DB1012000E0002070BD0000D7
:1050000010640240006002403C0F3C0F7D0F7D0F9A
:1050100010B501F080034BB122B1436943F0800326
:10502000436103E0436923F08003436180290BD08F
:105030002AB1036801F01E042343036004E00368FF
:1050400001F01E04A343036010BD000010B5002250
:105050000268134B1A40CC680B6823434C69234306
:105060008C692343CC6923430C6A23434C6A234352
:105070008C6A23434C6B23438C6B23431A4302609B
:10508000426922F00702D1E90B3423431A434261FB
:105090000B6943604B6883608B68C36010BD000080
:1050A0003F801CF0704700B5034604E04FF47A706F
:1050B00000F004F85B1E002BF8D100BDA82141438D
:1050C0004FF0E02251610521116100BF4FF0E02156
:1050D000096901F480310029F8D004214FF0E02261
:1050E0001161704710B52DED0C8BB0EE408AF0EEDB
:1050F000608AB0EE419AF0EE619A38EEE90A10EE5D
:10510000101A084608F0F0FD41EC1D0B9FED181B2E
:10511000B0EE4D0AF0EE6D0A04F076FFB0EE40BA44
:10512000F0EE60BA38EE490A10EE101A084608F0A0
:10513000DBFD41EC1D0B9FED0E1BB0EE4D0AF0EEBA
:105140006D0A04F061FFB0EE40CAF0EE60CA53ECA5
:105150001B2B51EC1C0B07F0EBFF41EC1A0BB0EED4
:105160004A0AF0EE6A0A05F0A3FEBDEC0C8B10BDF6
:10517000000000000000004010B51D48D0F8FC0001
:105180001C490968884205D0B7EE000A1A4880ED2C
:10519000000A04E01648D0F8FC001649086007F041
:1051A00031FAF1EE040AB4EEE00AF1EE10FA09DD8C
:1051B000114890ED000ADFED110A30EE200A80ED73
:1051C000000A11E007F01EFAF9EE040AB4EEE00A54
:1051D000F1EE10FA08D2084890ED000ADFED070A58
:1051E00030EE600A80ED000A034890ED000A10BD21
:1051F000DC040020700300206C030020CDCCCC3DEB
:10520000704700007FB500200290039007F054FA29
:10521000BDEEC00A10EE104A07F062FABDEEC00AF9
:1052200010EE105ABB48007820F04000B9490870D1
:105230000020C1F870019FEDB80A02F0FBF80020D1
:10524000B449C1F8280129462046FFF72BFCB34991
:105250000860B348007800F0010090B107F01EF933
:10526000B0490860AE48006820F00100AC49086011
:10527000AC48006807F0D0F98DED020ACDED030AC5
:10528000AFE0A748007800F00200002872D0A448E0
:10529000007800F008000028F2D0A248006807F06B
:1052A000BBF98DED020ACDED030ADDED031AB0EE78
:1052B000611A9848D0ED171AF0EE610ADDED021A76
:1052C000B0EE610AFCF766FBFEF77CFD01283AD1DF
:1052D00000220121944803F069FF00220221924834
:1052E00003F064FF8D48006850B18E48006806F0F6
:1052F0007BFE01208D49086000208949086070E02C
:105300008848006807F02AF889480068401C8849E6
:10531000086000208549086085480068022804DB91
:105320000120086000208249086000207C49086054
:105330000846006840F0010008600846006840F038
:10534000040008604DE0FEF73DFD022849D1002031
:10535000734908600846006840F00100086008468C
:10536000006840F0040008606E48006871490860F9
:1053700037E0FFE76A48007800F0040088B36D4822
:1053800000686849096888420AD166480068401C7C
:105390006449086008460068032801DD00200860B1
:1053A0006048006800F07EF98DED000ACDED010A3D
:1053B0009DED011AF0EE410A9DED001AB0EE410A92
:1053C00001F0C6F901280CD10020554908600846B3
:1053D000006840F0020008600846006840F00800DD
:1053E00008605248006801281ED14A48007820F021
:1053F0001000484908700846007840F040000870E6
:10540000484801684348C0F8E0100B204449086050
:1054100000204649086046490860474908604860DE
:105420008860C86043490860404844A10268454814
:1054300003F0E0FD3A4842A10268424803F0DAFD79
:1054400036483FA102683F4803F0D4FD35483CA1EF
:1054500002683C4803F0CEFD9DED020ABDEEC00A95
:1054600010EE102A36A1374803F0C4FD364890EDFF
:10547000000ABDEEC00A10EE102A31A1314803F037
:10548000B9FD324890ED000ABDEEC00A10EE102AB8
:105490002BA12C4803F0AEFD2D4890ED000ABDEE87
:1054A000C00A10EE102A26A1264803F0A3FD1948D1
:1054B00090ED180ABDEEC00A10EE102A20A1214876
:1054C00003F098FD134890ED190ABDEEC00A10EEE6
:1054D000102A1BA11B4803F08DFD0E4890ED170A02
:1054E000BDEEC00A10EE102A15A1164803F082FD89
:1054F0000F4813A10268134803F07CFD224610A157
:10550000104803F077FD2A4612A10E4803F072FD01
:105510007FBD0000DC040020000070427802002003
:105520005002002074020020006800404C0200205D
:10553000700200207C020020180700206669783D78
:105540002564090000500040400200204402002071
:10555000480200202564090D0A000000F0B50A4643
:1055600000210023002400BF3DE0012505FA01F3DE
:10557000156805EA03049C4234D105684F000326F0
:10558000BE40B543056015794E00B5400668354309
:1055900005601579012D02D01579022D16D1856887
:1055A0004F000326BE40B543856055794E00B54097
:1055B000866835438560456801268E40B543456061
:1055C000456896798E40B6B235434560C5684F0050
:1055D0000326BE40B543C560D5794E00B540C668C8
:1055E0003543C560491C1029BFD3F0BDF0B5002379
:1055F00000244D07ED0E02FA05F3CE1000F1200550
:1056000055F826504E07F70E0F26BE40B543CF1073
:1056100000F1200646F82750CE1000F1200555F87D
:10562000265045EA0304CE1000F1200545F8264037
:10563000F0BD0246002013690B400BB1012000E0D1
:1056400000207047418370470183704710B50446BE
:105650000723012221460848FCF7A4F80648FCF776
:10566000FDF800BF02210448FCF768F80028F9D0D3
:105670000148FCF75FF810BD002001402DE9F04122
:1056800007460C460025002605E03846FFF7DEFFFA
:105690000544701CC6B2A642F7DBB5FBF4F080B23D
:1056A000BDE8F0810CB530B101280DD0022814D02E
:1056B000032824D11AE09FED150A8DED000A9FED15
:1056C000140A8DED010A1AE09FED120A8DED000A11
:1056D0009FED110A8DED010A11E09FED100A8DED8D
:1056E000000A9FED0B0A8DED010A08E09FED090A03
:1056F0008DED000A9FED0A0A8DED010A00BF00BF83
:105700009DED000ADDED010A0CBD00000040CEC495
:10571000000016450000000000803B440040CE44DD
:1057200000207D4500BFFEE708B500200346532258
:10573000632100904FF0804002F004FE012000231E
:1057400040F2473240F2E73100901D4802F0FAFD86
:105750000120002340F2473263210090194802F0F3
:10576000F1FD4FF400704310174A4FF4FA710090A6
:105770001648FDF7D7F840202023134A4FF4FA715A
:1057800000901348FDF7CEF8FCF7C0F8FCF78CFF4B
:1057900000F0C6FF02F0FAFE01F0F4FB4FF4E13036
:1057A00002F008F84FF4E130FEF708F94FF4E13069
:1057B00001F08CFB4FF4612002F024FF08BD0000D3
:1057C0000004004000080040000402400064004063
:1057D0000068004070B505460C4614B1012C06D196
:1057E00002E0FFF705F903E0FCF7F0F900E000BF85
:1057F00000BF70BD10B57C480068401C7A49086045
:105800000846006805287CD100200860774890EDA4
:10581000180A7748D0ED000A30EE600AB1EE041A9B
:10582000C0EE010A9FED730A20EE800A724880EDF7
:10583000000A6E4890ED190A7048D0ED000A30EE6B
:10584000600AF1EE040A80EE201A9FED6A0A21EE4A
:10585000000A6B4880ED000A6448D0ED160AB0EEED
:10586000600A01F0ADFB674880ED000A624890EDE8
:10587000000A20EE000A6248D0ED000A90ED001AFE
:1058800000EE810AF1EEC00A5848C0ED340A5D48C6
:1058900090ED001ADFED5C1A21EE211AF0EE410ABC
:1058A000524890ED341AB0EE410A02F0A1FE28B140
:1058B00056480068401C5549086002E000205349E2
:1058C000086052480068052820D100204F49086030
:1058D0004648007820F040004449087008460078A7
:1058E00040F0200008700020C1F82801084690ED23
:1058F000180A474880ED000A084690ED190A454805
:1059000000E06EE080ED000A012010BD374890ED08
:10591000180A374880ED000A344890ED190A3748D4
:1059200080ED000A344890ED000ABDEEC00A10EE8A
:10593000102A39A1394803F05DFB314890ED000A87
:10594000BDEEC00A10EE102A33A1344803F052FB1A
:105950002C4890ED000ABDEEC00A10EE102A2EA1D0
:105960002E4803F047FB244890ED000A20EE000A81
:105970002348D0ED000A90ED001A00EE810AF1EE06
:10598000C00ABDEEE00A10EE102A23A1234803F05E
:1059900031FB164890ED180ABDEEC00A10EE102A31
:1059A0001DA11E4803F026FB104890ED190ABDEE1C
:1059B000C00A10EE102A18A1184803F01BFB134868
:1059C00015A10268154803F015FB0848027812A1DA
:1059D000124803F00FFB054811A1C26F0F4803F0F6
:1059E00009FB002091E700000C010020DC040020EE
:1059F0001C0100200000C8421001002020010020EE
:105A00001401002018010020CDCC4C3E24010020C0
:105A1000A0000020A40000202564090000500040E0
:105A200025640D0A0000000010B52DED028B06F074
:105A300043FEDFED620A30EE600AB0EE408A06F007
:105A40004FFEDFED5E0A30EE600AF0EE408A002481
:105A50009FED5B0AB4EEC08AF1EE10FA0ADB9FED0F
:105A6000580AF4EEC08AF1EE10FA03DB0120BDEC17
:105A7000028B10BD9FED530AB4EEC08AF1EE10FA0E
:105A800025D29FED510AB4EEC08AF1EE10FA05D28C
:105A90004E480068401C4D49086018E09FED4A0AD6
:105AA000B4EEC08AF1EE10FA0CDB9FED450AB4EEBD
:105AB000C08AF1EE10FA05D844484068401C4349BA
:105AC000486004E041488068401C404988609FED80
:105AD0003D0AF4EEC08AF1EE10FA25D29FED3A0AA3
