:020000040800F2
:1000000070460020290200080D05000805050008BB
:1000100009050008E3020008130C000800000000B6
:10002000000000000000000000000000DD050008E6
:1000300003050008000000003F020008410200081C
:10004000430200084302000843020008430200087C
:10005000430200084302000843020008430200086C
:10006000430200084302000843020008430200085C
:10007000430200084302000843020008430200084C
:10008000430200084302000843020008430200083C
:10009000E902000843020008430200084302000886
:1000A0004302000835070008430200084302000825
:1000B00051070008B1070008CD07000843020008F7
:1000C00043020008430200084302000843020008FC
:1000D00043020008FD0A0008430200083D0B000827
:1000E00043020008430200084302000843020008DC
:1000F0000508000843020008430200084302000804
:100100004302000843020008E90700084302000810
:1001100043020008BD0A0008430200084302000829
:10012000430200084302000843020008430200089B
:10013000430200084302000843020008430200088B
:10014000430200084302000843020008430200087B
:10015000430200084302000843020008430200086B
:10016000430200084302000843020008430200085B
:10017000430200084302000843020008430200084B
:10018000430200084302000800F002F800F03CF8C7
:100190000AA090E8000C82448344AAF10107DA45E2
:1001A00001D100F031F8AFF2090EBAE80F0013F0F8
:1001B000010F18BFFB1A43F001031847BC0A0000E7
:1001C000DC0A0000103A24BF78C878C1FAD8520778
:1001D00024BF30C830C144BF04680C6070470000C1
:1001E0000023002400250026103A28BF78C1FBD840
:1001F000520728BF30C148BF0B6070471FB500F0E1
:1002000035FD1FBD10B510BD00F036F81146FFF7E3
:10021000F5FF00F021FD00F054F803B4FFF7F2FF02
:1002200003BC00F057F80000094880470948004720
:10023000FEE7FEE7FEE7FEE7FEE7FEE7FEE7FEE796
:10024000FEE7FEE704480549054A064B70470000F3
:10025000CD060008890100087000002070460020CB
:1002600070420020704200207047704770470000C5
:1002700000487047100000207546FFF7F9FFAE46B2
:1002800005006946534620F00700854618B020B5A2
:10029000FFF7D8FFBDE820404FF000064FF0000701
:1002A0004FF000084FF0000B21F00701AC46ACE81E
:1002B000C009ACE8C009ACE8C009ACE8C0098D468B
:1002C000704710B50446AFF300802046BDE81040EB
:1002D000FFF7A3BF01491820ABBEFEE726000200CE
:1002E000704700BFFEE7000010B50823184A1949FF
:1002F000194800F0E2F81949174800F03BF817498F
:10030000491C154800F036F81449C91C124800F081
:1003100031F81349104800F02DF812490E4800F04A
:1003200029F811490C4800F025F80F4908310A480E
:1003300000F020F80D49084800F01CF80C49064868
:1003400000F018F80A490831034800F013F810BD0E
:10035000040000200C000020006400400100F010A8
:100360007000F03003000012080000320300001497
:100370000800003400220C4B994202D10023836113
:1003800011E0C1F3130201F000730BB1C2600AE087
:1003900001F080630BB1026105E001F000630BB175
:1003A000826000E0426070477000F030024600203A
:1003B00019B9D36803F0030006E0012903D11369DA
:1003C00003F0030000E00020704710B500F5D8737B
:1003D00003EB01131B6803F004031372137A53B980
:1003E00000F5D87303EB01131B6840F2FF7404EAB5
:1003F0005353136009E000F5D87303EB01131B6836
:100400006FF0604404EAD303536000F5D87303EB44
:1004100001131B6803F00203537200F5D87303EB5A
:1004200001135B6803F00F03937200F5D87303EBBD
:1004300001135B681B0AD37400F5D87303EB011337
:100440009B68D37200F5D87303EB01139B681C0AF9
:10045000147300F5D87303EB01139B681C0C5473E1
:1004600000F5D87303EB01139B681B0E937300F523
:10047000D87303EB0113DB68D37300F5D87303EB78
:100480000113DB681C0A147400F5D87303EB011325
:10049000DB681C0C547400F5D87303EB0113DB68A4
:1004A0001B0E937421B9C36843F02003C36003E0BB
:1004B000036943F02003036110BD2DE9F04186B0CC
:1004C00080460D4616461F46002400214046FFF791
:1004D0006DFF18B9002006B0BDE8F08101AA002127
:1004E0004046FFF772FF002405E00DF10F00005DAC
:1004F0003055601CC4B2BC42F7DB01982860012073
:10050000E9E7704700BFFEE700BFFEE700BFFEE778
:1005100070B5002100230F22C4781CB3174C246847
:1005200004F4E064C4F5E064C4F30721C1F10404F9
:10053000E3B20A4144789C40E1B2847814402143FC
:100540000C07210E0E4C05786155047804F01F0548
:100550000124AC4005786D11AD0005F1E025C5F82A
:10056000004109E0047804F01F050124AC40054D6A
:100570000678761145F8264070BD00000CED00E0CD
:1005800000E400E080E100E002490143024A11601A
:10059000704700000000FA050CED00E029B1064AA2
:1005A00012680243044B1A6004E0034A1268824353
:1005B000014B1A60704700004038024029B1064ADA
:1005C00012680243044B1A6004E0034A1268824333
:1005D000014B1A6070470000443802407047000029
:1005E0000CB50020019000903448006840F4803041
:1005F0003249086000BF3148006800F400300090C4
:100600000198401C0190009818B90198B0F5A06FAE
:10061000F1D12A48006800F4003010B101200090A8
:1006200001E0002000900098012846D12348403086
:10063000006840F08050214940310860204800683F
:1006400040F480401E4908601C48083000681B497F
:10065000083108600846006840F400400860084619
:10066000006840F4A05008601648091F0860081F81
:10067000006840F08070091F086000BF0F480068E4
:1006800000F000700028F9D040F205600E490860C3
:100690000A480830006820F0030008490831086063
:1006A0000846006840F00200086000BF03480830B8
:1006B000006800F00C000828F8D10CBD003802409A
:1006C0000070004008544007003C024010B5154837
:1006D000006840F47000134908601348006840F057
:1006E00001001149086000200F49083108600E48D8
:1006F00000680E4908400C4908600D48091D086053
:10070000081F006820F48020091F086000200649A7
:100710000C310860FFF764FF4FF000600149803939
:10072000086010BD88ED00E000380240FFFFF6FED3
:100730001030002410B50121044800F080F8012891
:1007400003D10121014800F06BF810BD0000014009
:1007500010B50121880700F072F8012820D101218D
:10076000800700F05DF80F480088401C0D490880A4
:100770000846008800EE100AB8EE400AF2EE040ABD
:10078000B4EEE00AF1EE10FA0ADB07480078401CEC
:1007900005490870002003490880012003490870BA
:1007A00010BD000000000020030000200200002017
:1007B00010B50121044800F042F8012803D10121BD
:1007C000014800F02DF810BD0004004010B50121D3
:1007D000044800F034F8012803D10121014800F059
:1007E0001FF810BD0008004010B50121044800F0BA
:1007F00026F8012803D10121014800F011F810BDAD
:10080000000C004010B50121044800F018F8012840
:1008100003D10121014800F003F810BD000401409C
:10082000CA430282704721B1028842F0010202806D
:1008300004E002884FF6FE731A400280704730B51C
:100840000246002000230024158A05EA0103958949
:1008500005EA010413B10CB1012000E0002030BD15
:100860001AB183890B43838102E083898B4383819F
:10087000704700002DE9FF4104460D4616461F460D
:10088000DDF828806949601A8C4270D01ADC68490A
:10089000A4EB01008C426CD00ADCB4F1804F4ED046
:1008A00064482044002852D0B0F5806F71D156E0E2
:1008B000B0F5806F65D0B0F5006F6CD0B0F5406FCB
:1008C000F4D170E0B0F5923F21D009DCB0F5806F33
:1008D0007AD0B0F5644F0AD0B0F5684F7CD10EE005
:1008E000B0F5943F1BD0B0F5963F75D11FE00121C4
:1008F0000846FFF763FE19208DF800006DE0012126
:100900000220FFF75BFE2C208DF8000065E001213E
:100910000804FFF753FE18208DF800005DE0012168
:100920001920FFF74BFE2C208DF8000055E0012127
:100930008804FFF743FE1A208DF800004DE00121E6
:100940000846FFF72BFE1C208DF8000045E0012132
:100950000220FFF723FE1D208DF800003DE001215D
:100960000420FFF71BFE1E208DF8000035E023E079
:10097000FFE701210820FFF711FE32208DF800006B
:100980002BE001211020FFF709FE36208DF8000032
:1009900023E021E0FFE701212020FFF7FFFD3720C2
:1009A0008DF8000019E001214020FFF7F7FD2B2012
:1009B0008DF8000011E007E001218020FFF7EEFD37
:1009C0002C208DF8000008E001210802FFF7E6FD69
:1009D0002D208DF8000000E000BF00BF0295ADF8AB
:1009E00004600020ADF80C00ADF8060001A9204617
:1009F00000F022F801212046FFF712FF01221146E4
:100A00002046FFF72DFFF8B28DF8010008F0FF0037
:100A10008DF8020001208DF803006846FFF778FD8D
:100A200001212046FFF7FFFEBDE8FF81001C0040CA
:100A3000000C004000FCFFBF00220288184B9842C7
:100A40000ED0184B98420BD0B0F1804F08D0164B07
:100A5000984205D0154B984202D0154B984204D1CC
:100A60004FF68F731A404B881A43124B984207D0A7
:100A7000114B984204D04FF6FF431A400B891A439A
:100A800002804B68C3620B880385054B984202D0F5
:100A9000044B984201D18B7A0386012383827047ED
:100AA0000000014000040140000400400008004034
:100AB000000C0040001000400014004010B500245D
:100AC00008210D4800F069F820B10B4800F09CF8AF
:100AD000C4B20FE040F22551074800F06BF801283E
:100AE00008D140F22551044800F048F8024800F0CF
:100AF0008BF8C4B210BD00000050004010B50024B7
:100B000008210D4800F049F820B10B4800F07CF8AE
:100B1000C4B20FE040F22551074800F04BF801281D
:100B200008D140F22551044800F028F8024800F0AE
:100B30006BF8C4B210BD00000010014010B50024D5
:100B400008210D4800F029F820B10B4800F05CF8AE
:100B5000C4B20FE040F22551074800F02BF80128FD
:100B600008D140F22551044800F008F8024800F08E
:100B70004BF8C4B210BD00000048004010B5002280
:100B8000002340F66A14A14200D100BF0A120124DA
:100B90009440A3B2DC43048010BD02460020B1F5AE
:100BA000007F00D100BF13880B400BB1012000E093
:100BB0000020704770B50246002400230025002065
:100BC00040F66A16B14200D100BFC1F3421501F0F0
:100BD0001F03012606FA03F3012D02D19689334043
:100BE00006E0022D02D1168A334001E0968A334096
:100BF0000C12012606FA04F41688344013B10CB125
:100C0000012000E0002070BD01468888C0F3080084
:100C1000704700BFFEE700000548017831B10020B1
:100C2000034A1070034A1070012070470020FCE74F
:100C3000020000200300002008B54FF4A060FFF779
:100C4000A3FC00200346532240F2E73100904FF00E
:100C50008040FFF70FFE08BD10B5FFF7EDFF04E081
:100C600000BFFFF7D9FF0028FBD1F9E74FF0407034
:100C7000E1EE100A70470000980C00080000002008
:100C800010000000C4010008A80C0008100000209B
:100C900060460000E00100080000000000000000C5
:080CA00000000000000000004C
:040000050800018965
:00000001FF
