:020000040800F2
:10000000E048002069020008D11C000875190008AA
:10001000CD1C0008F5080008B52F000800000000FE
:10002000000000000000000000000000A520000803
:1000300005180008000000007F0200088102000887
:10004000830200088302000883020008830200087C
:10005000830200088302000883020008830200086C
:10006000830200088302000883020008830200085C
:10007000830200088302000883020008830200084C
:10008000830200088302000883020008830200083C
:10009000F9080008830200088302000883020008B0
:1000A000830200081123000883020008830200086D
:1000B0002D230008812300080D2400088302000876
:1000C00083020008830200088302000883020008FC
:1000D000830200084D28000815290008F1290008AE
:1000E00083020008830200088302000883020008DC
:1000F00045240008830200088302000883020008E8
:1001000083020008830200082924000883020008F3
:1001100083020008212800088302000883020008E7
:10012000830200088302000883020008830200089B
:10013000830200088302000883020008830200088B
:100140009D0900088302000883020008830200085A
:10015000830200088302000883020008830200086B
:10016000830200088302000883020008830200085B
:10017000830200088302000883020008830200084B
:10018000830200088302000800F002F800F05CF827
:100190000AA090E8000C82448344AAF10107DA45E2
:1001A00001D100F051F8AFF2090EBAE80F0013F0D8
:1001B000010F18BFFB1A43F001031847E463000066
:1001C000046400000A444FF0000C10F8013B13F0E7
:1001D000070408BF10F8014B1D1108BF10F8015BA0
:1001E000641E05D010F8016B641E01F8016BF9D193
:1001F00013F0080F1EBF10F8014BAD1C0C1B09D1EA
:100200006D1E58BF01F801CBFAD505E014F8016B5B
:1002100001F8016B6D1EF9D59142D6D370470000ED
:100220000023002400250026103A28BF78C1FBD8FF
:10023000520728BF30C148BF0B6070471FB506F09A
:100240002CF81FBD10B510BD00F076F81146FFF771
:10025000F5FF05F0E5F800F094F803B4FFF7F2FFBE
:1002600003BC00F097F800000948804709480047A0
:10027000FEE7FEE7FEE7FEE7FEE7FEE7FEE7FEE756
:10028000FEE7FEE704480549054A064B70470000B3
:10029000A922000889010008E0020020E0480020AF
:1002A000E0440020E044002010B5203AC0F00B806C
:1002B000B1E81850203AA0E81850B1E81850A0E86A
:1002C0001850BFF4F5AF5FEA027C24BFB1E81850C4
:1002D000A0E8185044BF18C918C0BDE810405FEA34
:1002E000827C24BF51F8043B40F8043B08BF7047B0
:1002F000D20728BF31F8023B48BF11F8012B28BFB5
:1003000020F8023B48BF00F8012B70477047704748
:10031000704710B500F008F8006810BD10B504462D
:1003200000F002F8046010BD004870478002002011
:1003300000487047800200207546FFF7F9FFAE467F
:1003400005006946534620F00700854618B020B5E1
:10035000FFF798FFBDE820404FF000064FF0000780
:100360004FF000084FF0000B21F00701AC46ACE85D
:10037000C009ACE8C009ACE8C009ACE8C0098D46CA
:10038000704710B50446AFF300802046BDE810402A
:10039000FFF763BF01491820ABBEFEE7260002004D
:1003A000704721B1826842F00102826003E08268F6
:1003B00022F00102826070470021084A1168084A51
:1003C0001140D0E900231A4383681A43C3681A43D3
:1003D0001143044AC2F8041370470000042301408B
:1003E000E030FCFF002001400146C86C80B270473D
:1003F0000246002013680B400BB1012000E00020F2
:100400007047000030B50246002000235068104CB1
:1004100020400D790C6844EA052420435060906820
:100420000C4C2040D1E903542C438D682C434D796A
:1004300044EA450420439060D06A20F470000C7DAB
:10044000641EE4B2234340EA0350D06230BD000092
:10045000FFFEFFFCFDF7FFC0F0B504460D4600208F
:100460000021092D11DDE068A5F10A0606EB46071B
:10047000072606FA07F18843A5F10A0606EB4606A9
:1004800003FA06F10843E0600CE0206905EB45073C
:10049000072606FA07F1884305EB450603FA06F13D
:1004A00008432061072A0FDA606B561E06EB8607A9
:1004B0001F2606FA07F18843561E06EB860605FA44
:1004C00006F10843606322E00D2A0FDA206BD61F85
:1004D00006EB86071F2606FA07F18843D61F06EBB0
:1004E000860605FA06F10843206310E0E06AA2F1EF
:1004F0000D0606EB86071F2606FA07F18843A2F1D0
:100500000D0606EB860605FA06F10843E062F0BD2B
:10051000816841F0804181607047000000B58DB076
:100520000121042001F0FAFC0121080201F026FD5E
:1005300030200B9003208DF8300000208DF8330020
:100540000BA9164801F07EF90121080201F026FDF1
:1005500000214FF4807001F021FD002007900A90E7
:1005600009904FF48030089007A8FFF725FF00207E
:1005700001908DF808008DF8090003900490059013
:1005800001208DF8180001A90548FFF73BFF012164
:100590000348FFF706FF0DB000BD00000008024051
:1005A0000020014010B52DED068BB0EE408AF0EE34
:1005B000608AF0EE680AB0EE480A04F00BFC33489B
:1005C00080ED000A90ED000A00F070F8DFED300ACF
:1005D00030EE200ABDEEC00A10EE104A224601217C
:1005E0002C4802F033FD294890ED000A00F05EF837
:1005F000DFED290A30EE200ABDEEC00A10EE104AE7
:1006000022460221234802F021FD2048006805F01F
:10061000D3FD41EC1A0BB0EE4A0AF0EE6A0A03F081
:10062000C7FDB0EE409AF0EE609A9FED1C0B53ECC4
:10063000102B51EC190B05F059FB24D200F034FFBC
:1006400008B300220121134802F000FD002202211C
:10065000104802F0FBFC04F077FDA0F5166000EEF8
:10066000100AB8EEC00AB0EE409A9FED0E1AF0EEF6
:10067000490A9FED0C0A04F00DFF04F065FD0A49DC
:10068000486108208864BDEC068B10BD3000002056
:1006900000409CC50068004000409C4500000000F0
:1006A00000002040000000001C020020F0EE400A84
:1006B0000E4890ED000A20EE200A0D4890ED001A39
:1006C000B8EEC11A30EEC11A0A48D0ED001A01EE98
:1006D000810A094880ED000ABDEEE00A044880ED79
:1006E000000A054890ED000A704700003001002024
:1006F0002C010020340100203801002010B52DED20
:10070000028BB0EE408A2E4890ED0E0AB0EE408A81
:100710002C4890ED000ADFED2C0AB4EEE00AF1EE71
:1007200010FA20DD90ED000ADFED280AB4EEE00AB1
:10073000F1EE10FA17D2264890ED000ADFED250AF7
:10074000B4EEE00AF1EE10FA0DDD90ED000ADFEDF7
:10075000220AB4EEE00AF1EE10FA04D2B0EE480A32
:1007600000F03CF829E0174890ED000ADFED160A8A
:10077000B4EEE00AF1EE10FA1BD390ED000ADFEDC3
:10078000130AB4EEE00AF1EE10FA12DC104890ED14
:10079000000ADFED100AB4EEE00AF1EE10FA08D319
:1007A00090ED000ADFED0C0AB4EEE00AF1EE10FA6B
:1007B00003DDB0EE480A00F011F8BDEC028B10BD6D
:1007C0001C020020700000200000AFC40000AF44F5
:1007D000740000200000614400C0734510B52DED89
:1007E000068BB0EE408A3848006848B99FED370A5A
:1007F00038EE000A364880ED000A012032490860D0
:10080000F0EE480A324890ED000A04F0E3FA31486D
:1008100080ED000A30480068401C2F4908600846F7
:10082000006896280BDA2D4A01212D4802F00EFCB3
:1008300041F2DB7202212A4802F008FC41E026481E
:10084000006896283DDB234890ED000AFFF72EFF55
:10085000BDEEC00A10EE104A22460121204802F0E7
:10086000F5FB1C4890ED000AFFF720FFBDEEC00A23
:1008700010EE104A22460221194802F0E7FB154803
:10088000006805F099FC41EC1A0BB0EE4A0AF0EE54
:100890006A0A03F08DFCB0EE409AF0EE609A9FED8C
:1008A000110B53EC102B51EC190B05F01FFA08D269
:1008B0000E4800680E498864002003490860064914
:1008C0000860BDEC068B10BD900000200000344293
:1008D000880000208C0000209400002025E8FFFF05
:1008E0000068004000000000000014406C00002080
:1008F0001C02002000BFFEE710B51E4803781E4A08
:100900001E491F4800F042FC1C480068302803D1F3
:100910001949087804F0B8FD1A49194800F088F818
:100920001849491C164800F083F81649C91C144898
:1009300000F07EF81449124800F07AF81349104884
:1009400000F076F812490E4800F072F810490831AC
:100950000B4800F06DF80F49094800F069F80E499E
:10096000074800F065F80C490831054800F060F8C8
:1009700010BD0000950100208D010020980100208D
:10098000006400400100F0107000F030030000121D
:1009900008000032030000140800003410B51A48A3
:1009A00003781A4A1A491B4800F0F0FB1A49194803
:1009B00000F03EF81849491C164800F039F816496D
:1009C000C91C144800F034F81449124800F030F8FB
:1009D0001349104800F02CF812490E4800F028F88E
:1009E000104908310B4800F023F80F49094800F07E
:1009F0001FF80E49074800F01BF80C49083105485C
:100A000000F016F810BD0000A8010020A001002091
:100A10009C010020006800400100F0107000F030E0
:100A20000300001208000032030000140800003424
:100A300000220C4B994202D10023836111E0C1F3E3
:100A4000130201F000730BB1C2600AE001F0806391
:100A50000BB1026105E001F000630BB1826000E0C0
:100A6000426070477000F0302DE9F04F8BB00646C1
:100A70000F4614461D46DDF850804FF00009CA4667
:100A8000CB46B5F5807F43D012DC102D34D008DC86
:100A9000012D25D0022D26D0042D27D0082D4FD191
:100AA00027E0202D2BD0402D2CD0802D48D12CE0BC
:100AB000B5F5805F38D009DCB5F5007F2BD0B5F5F2
:100AC000806F2BD0B5F5006F3AD12AE0B5F5005F05
:100AD0002DD0B5F5804F2DD0B5F5004F30D12CE09D
:100AE0004FF000092DE04FF001092AE04FF0020914
:100AF00027E04FF0030924E04FF0040921E04FF014
:100B000005091EE04FF006091BE04FF0070918E049
:100B10004FF0080915E04FF0090912E04FF00A09FB
:100B20000FE04FF00B090CE04FF00C0909E04FF01B
:100B30000D0906E04FF00E0903E04FF00F0900E049
:100B400000BF00BFB8F5807F4BD01ADCB8F1100FA2
:100B50003BD00CDCB8F1010F2BD0B8F1020F2BD039
:100B6000B8F1040F2BD0B8F1080F52D12AE0B8F138
:100B7000200F2DD0B8F1400F2DD0B8F1800F48D103
:100B80002CE0B8F5805F38D009DCB8F5007F2BD0B9
:100B9000B8F5806F2BD0B8F5006F3AD12AE0B8F5E0
:100BA000005F2DD0B8F5804F2DD0B8F5004F30D173
:100BB0002CE04FF0000A2DE04FF0010A2AE04FF040
:100BC000020A27E04FF0030A24E04FF0040A21E074
:100BD0004FF0050A1EE04FF0060A1BE04FF0070A2F
:100BE00018E04FF0080A15E04FF0090A12E04FF044
:100BF0000A0A0FE04FF00B0A0CE04FF00C0A09E074
:100C00004FF00D0A06E04FF00E0A03E04FF00F0A16
:100C100000E000BF00BF7F48304418B1B0F5806FDE
:100C20001AD10CE04FF0090B00208DF812001420AF
:100C30008DF804000121480601F080F90DE04FF025
:100C4000090B0E208DF8120040208DF804000121C0
:100C5000000501F073F900E000BF00BFC4F3090014
:100C600078BBA012A0F580108038092834D2DFE8C4
:100C700000F0050A0F14191E23292E000121084631
:100C800001F04CF929E00121022001F047F924E0AC
:100C90000121042001F042F91FE00121082001F0A8
:100CA0003DF91AE00121102001F038F915E0012189
:100CB000202001F033F910E00121402001F02EF94D
:100CC0000BE009E00121802001F028F905E0012175
:100CD000080201F023F900E000BF00BF5A46494670
:100CE000204600F0F7FD5A465146204600F0F2FD3E
:100CF00045EA0800099002208DF828008DF82900A7
:100D000000208DF82A0001208DF82B0009A920462B
:100D100000F098FD304600F07FF800208DF81E00AE
:100D20008DF81F008DF820008DF821008DF822002D
:100D30008DF823008DF81A008DF81B000B208DF81C
:100D40001C0007208DF81D007D2F22D008DC0A2F03
:100D50000FD0142F11D0322F13D0642F29D114E0CB
:100D6000FA2F1AD0B7F5FA7F1BD0B7F57A7F20D1CA
:100D70001BE0C820ADF818001CE06420ADF8180096
:100D800018E02820ADF8180014E01420ADF8180081
:100D900010E01020ADF818000CE00820ADF81800A5
:100DA00008E00420ADF8180004E00220ADF81800B7
:100DB00000E000BF00BF06A9304600F0D6F80020D2
:100DC0008DF8130001208DF814000020ADF8080004
:100DD000ADF80A00ADF80C00ADF80E00ADF810004B
:100DE00001208DF8150002A800F032F800208DF8DF
:100DF000050003208DF8060001208DF8070001A8EA
:100E000000F068FF01220221304600F0A5F80BB087
:100E1000BDE8F08F009CFFBF10B504460B4884422C
:100E200009D10121480601F099F800214FF0007026
:100E300001F094F808E00121880601F08FF8002104
:100E40004FF0806001F08AF810BD0000006400409F
:100E500010B50021837A012202FA03F13D4A12689B
:100E600042F001023B4B1A603A4A1C3212688A4334
:100E7000384B1C331A60027BCAB9364A0C321268EE
:100E80008A43344B0C331A604288C38842EA0343D6
:100E9000304A4032847A42F834300288838842EA09
:100EA00003432C4A4032847A02EBC4025360027B33
:100EB000012A19D1274A0C3212680A43254B0C33F8
:100EC0001A604288038842EA0343224A4032847A05
:100ED00042F83430C288838842EA03431D4A4032D4
:100EE000847A02EBC4025360C27A3AB9194A121DDD
:100EF00012688A43174B1B1D1A6006E0154A121D23
:100F000012680A43134B1B1D1A60028932B9114A39
:100F1000143212688A430F4B14331A600289012A73
:100F200006D10C4A143212680A430A4B14331A6071
:100F3000427B012A06D1074A1C3212680A43054B3C
:100F40001C331A60034A126822F00102014B1A6036
:100F500010BD0000006600401AB143690B434361B5
:100F600002E043698B434361704730B5024600207D
:100F70000023146824F002041460146844F001048F
:100F8000146000E05B1C546804F001041CB94FF6C7
:100F9000FF74A342F6D1546804F001040CB9002098
:100FA0006CE08C79012C04D1146844F08004146046
:100FB00003E0146824F080041460CC79012C04D17F
:100FC000146844F04004146003E0146824F0400402
:100FD00014600C7A012C04D1146844F020041460CD
:100FE00003E0146824F0200414604C7A012C04D12E
:100FF000146844F01004146003E0146824F0100432
:1010000014608C7A012C04D1146844F00804146034
:1010100003E0146824F008041460CC7A012C04D195
:10102000146844F00404146003E0146824F0040419
:1010300014608C78A407CD7844EA05640D7944EAFD
:1010400005444D7944EA05540D886D1E2C43D46146
:10105000146824F001041460002300E05B1C546851
:1010600004F001041CB14FF6FF74A342F6D154689A
:1010700004F001040CB1002000E0012030BD024664
:10108000002019B9D36803F0030006E0012903D159
:10109000136903F0030000E00020704710B500F56D
:1010A000D87303EB01131B6803F004031372137A64
:1010B00053B900F5D87303EB01131B6840F2FF74BA
:1010C00004EA5353136009E000F5D87303EB0113EE
:1010D0001B686FF0604404EAD303536000F5D873D3
:1010E00003EB01131B6803F00203537200F5D8737E
:1010F00003EB01135B6803F00F03937200F5D873E1
:1011000003EB01135B681B0AD37400F5D87303EB80
:1011100001139B68D37200F5D87303EB01139B682E
:101120001C0A147300F5D87303EB01139B681C0CA5
:10113000547300F5D87303EB01139B681B0E937374
:1011400000F5D87303EB0113DB68D37300F5D87394
:1011500003EB0113DB681C0A147400F5D87303EB6E
:101160000113DB681C0C547400F5D87303EB0113F6
:10117000DB681B0E937421B9C36843F02003C3607E
:1011800003E0036943F02003036110BD2DE9F04142
:1011900086B080460D4616461F4600240021404674
:1011A000FFF76DFF18B9002006B0BDE8F08101AA75
:1011B00000214046FFF772FF002405E00DF10F000B
:1011C000005D3055601CC4B2BC42F7DB019828605A
:1011D0000120E9E710B502460020936803F0806320
:1011E000B3F1806F00D110E0936803F00063B3F1B6
:1011F000006F01D1012008E0936803F08053B3F140
:10120000805F01D1022000E00420042874D002F5A0
:10121000C07303EB00131B6803F0010402F5C073F5
:1012200003EB00131C600B7A7BB94B7A0C8843EA02
:10123000445302F5C07404EB00142468234302F500
:10124000C07404EB0014236010E00B7A4C6843EA8E
:10125000C4034C7A234302F5C07404EB00142468E1
:10126000234302F5C07404EB001423608B7A03F06F
:101270000F038B7202F5C07303EB00135B6823F05E
:101280000F0402F5C07303EB00135C6002F5C0733A
:1012900003EB00135B688C7A234302F5C07404EB04
:1012A000001463608B7B1C064B7B44EA03440B7B7E
:1012B00044EA0323CC7A234302F5C07404EB001400
:1012C000A3608B7C1C064B7C44EA03440B7C44EA01
:1012D0000323CC7B234302F5C07404EB0014E360CA
:1012E00002F5C07303EB00131B6843F0010402F521
:1012F000C07303EB00131C6010BD000010B5024664
:10130000002321B1012907D002290FD109E09068FB
:101310001D4C00EA04030BE090681C4C00EA040337
:1013200006E090681A4C00EA040301E0002300BFC5
:1013300000BF184C181BA34216D007DC83B16FF016
:101340008060184470B1022818D111E0B0F5007F18
:1013500010D0114C204448B1B0F5003F0ED10BE045
:1013600002230DE000230BE0002309E0002307E047
:10137000012305E0012303E0012301E0002300BF76
:1013800000BFD8B210BD0000030000040003000835
:1013900000000310000100080001FFF72DE9F043F1
:1013A00085B081460D4690461E4600240095019565
:1013B00000208DF808008DF809008DF80A6000BF44
:1013C00006E018F804100DF10B000155601C84B202
:1013D000B442F6DB69464846FFF7FCFE07460024A8
:1013E00000BF39464846FFF789FF0128F9D105B00B
:1013F000BDE8F08310B588B004460121082000F054
:101400008DFD0121480400F099FD072205212448A3
:1014100000F060FA07220621214800F05BFA602004
:10142000069002208DF81C008DF81D0000208DF81C
:101430001E0001208DF81F0006A9194800F002FACD
:1014400002940020ADF80C00ADF80E00ADF81000CD
:10145000ADF814000C20ADF8120002A9114801F0FB
:10146000A1FC40210F4801F0C3FB26208DF80400A9
:1014700000208DF8050002208DF8060001208DF86F
:10148000070001A800F026FC012240F22551054882
:1014900001F063FC0121034801F0C2FB08B010BD5C
:1014A000000C02400044004010B52DED048B03F009
:1014B00079FF2F48D0ED0F0A30EEC00A10EE104A27
:1014C000204604F079FE41EC190BB0EE490AF0EE2B
:1014D000690A02F06DFEB0EE408AF0EE608A9FED80
:1014E000250B53EC102B51EC180B04F0FFFB2ED204
:1014F00003F05EFF1E48D0ED100A30EEC00A10EE79
:10150000104A204604F058FE41EC190BB0EE490A8F
:10151000F0EE690A02F04CFEB0EE408AF0EE608A0E
:101520009FED140B53EC102B51EC180B04F0DEFB69
:101530000DD20F4890ED110AB5EEC00AF1EE10FA87
:1015400005D00E480068401C0C49086002E00020ED
:101550000A49086009480068C82806DD00200749D4
:1015600008600120BDEC048B10BD0020FAE70000EC
:101570001C020020000000000000F03F2C000020B2
:1015800010B52DED048B3948806C3949086003F0A3
:1015900009FF3648D0ED0F0A30EEC00A354880ED1D
:1015A000000A03F005FF3148D0ED100A30EEC00A02
:1015B000314880ED000A2F48006804F0FDFD41EC41
:1015C000190BB0EE490AF0EE690A02F0F1FDB0EE37
:1015D000408AF0EE608A9FED290B53EC102B51EC02
:1015E000180B04F083FB26D22348006804F0E4FDC6
:1015F00041EC190BB0EE490AF0EE690A02F0D8FD91
:10160000B0EE408AF0EE608A9FED1C0B53EC102B7D
:1016100051EC180B04F06AFB0DD2144890ED110A3E
:10162000B5EEC00AF1EE10FA05D016480068401C6D
:101630001449086002E0002012490860114800685F
:10164000C8280FDD03F0AEFE0F4880ED000A03F05E
:10165000AFFE0E4880ED000A072004498864002090
:1016600008490860BDEC048B10BD00001C0200207E
:101670006C0000209C000020A00000200000000062
:101680000000F03F9800002070000020740000204F
:1016900010B52DED028BB0EE408AB0EE480A00F096
:1016A0000FF8BDEEC00A10EE104A2246082103488A
:1016B00001F0CCFCBDEC028B10BD000000640040CA
:1016C000F0EE400A9FED020A20EE800A704700000B
:1016D0000000804510B53D4890ED0F0ABDEEC00AF0
:1016E00010EE102A3AA13B4801F0C6FB374890EDB6
:1016F000100ABDEEC00A10EE102A35A1354801F0DF
:10170000BBFB354890ED000ABDEEC00A10EE102A72
:101710002FA1304801F0B0FB304890ED000ABDEE3B
:10172000C00A10EE102A2AA12A4801F0A5FB2C4875
:1017300090ED000ABDEEC00A10EE102A24A1254843
:1017400001F09AFB274890ED000ABDEEC00A10EEAA
:10175000102A1FA11F4801F08FFB234890ED000ABB
:10176000BDEEC00A10EE102A19A11A4801F084FB40
:101770001E4890ED000ABDEEC00A10EE102A14A11A
:10178000144801F079FB1A4890ED000ABDEEC00A3A
:1017900010EE102A0EA10F4801F06EFB154890EDD7
:1017A000000ABDEEC00A10EE102A09A1094801F096
:1017B00063FB064806A1826C064801F05DFB0E48FB
:1017C0000EA10268034801F057FB10BD1C02002067
:1017D0002564090000500040780100207C010020B1
:1017E000080000200C000020240000201800002029
:1017F000200000201C000020280000202564090D86
:101800000A000000704700B5034604E04FF47A7008
:1018100000F004F85B1E002BF8D100BDA821414365
:101820004FF0E02251610521116100BF4FF0E0212E
:10183000096901F480310029F8D004214FF0E02239
:1018400011617047F0B50A4600210023002400BF53
:101850003DE0012505FA01F3156805EA03049C4201
:1018600034D105684F000326BE40B54305601579A5
:101870004E00B5400668354305601579012D02D04C
:101880001579022D16D185684F000326BE40B54359
:10189000856055794E00B54086683543856045685A
:1018A00001268E40B5434560456896798E40B6B2B4
:1018B00035434560C5684F000326BE40B543C5604B
:1018C000D5794E00B540C6683543C560491C10291E
:1018D000BFD3F0BDF0B5002300244D07ED0E02FA92
:1018E00005F3CE1000F1200555F826504E07F70EEF
:1018F0000F26BE40B543CF1000F1200646F8275012
:10190000CE1000F1200555F8265045EA0304CE100C
:1019100000F1200545F82640F0BD000010B5044652
:101920000723012221460848FEF796FD0648FEF7E8
:10193000EFFD00BF02210448FEF75AFD0028F9D050
:101940000148FEF751FD10BD002001402DE9F04196
:1019500007460C460025002605E03846FFF7DEFF67
:101960000544701CC6B2A642F7DBB5FBF4F080B2AA
:10197000BDE8F08100BFFEE708B500200346532212
:10198000632100904FF0804000F094FD012000237F
:1019900040F2473240F2E7310090154800F08AFDEE
:1019A0004FF400704310134A4FF4FA71009012483C
:1019B000FFF75AF8402020230E4A4FF4FA710090A6
:1019C0000E48FFF751F8FEF7A9FD00F0FDFE4FF4B9
:1019D000E13000F00DFC4FF4E130FFF70BFD4FF468
:1019E000E13000F029FA4FF4E13000F087FE08BD45
:1019F0000004004000040240006400400068004011
:101A000010B52DED0E8BF0EE408AB0EE608AB0EE90
:101A1000419A044603F092FB0446642C0AD19FEDE0
:101A2000860A864880ED000A9FED850A854880ED8C
:101A3000000A0BE0012C09D19FED830A7F4880ED5D
:101A4000000A9FED7F0A7F4880ED000A7B4890EDF9
:101A5000000A38EEC00A20EE000A7A48D0ED000AEB
:101A600078EE600A90ED001A38EE411A00EE810A15
:101A7000F1EEC00A7548C0ED000ADFED730AB0EE62
:101A8000001AB1EEC10A80EE801A90ED000A61EEF4
:101A9000000A90ED001A9FED6E0ADFED6E1A11EE4E
:101AA000810AB1EEC01A80EE810A6B4880ED000A0F
:101AB000D0ED000A9FED690A9FED691A11EE200A28
:101AC000684880ED000A5D4890ED000A30EE680A33
:101AD000654880ED000A5B4890ED000A30EE480A48
:101AE000624880ED000AB0EE490A02F0D1FB9FED9A
:101AF000601AF0EE680A41EE400AF0EE608AB0EE3D
:101B0000490A02F0ADFA9FED5A1AF0EE480A41EE8A
:101B1000000AB0EE608A5448006804F04DFB41ECC6
:101B20001D0B5248006804F047FB41EC1E0BB0EE61
:101B30004D1AF0EE6D1AB0EE4E0AF0EE6E0A02F09B
:101B400033F9B0EE40CAF0EE60CA9FED4A0B53EC99
:101B5000102B51EC1C0B04F005F941EC1B0B9FED15
:101B6000470B53EC102B03F00FFF41EC1A0B03F063
:101B700025FE44490860084690ED000ADFED420A60
:101B800030EE600A80ED000A90ED000ADFED3F0ABA
:101B9000B4EEE00AF1EE10FA08DD90ED000ADFED98
:101BA0003C0A30EE600A80ED000A11E0354890ED05
:101BB000000ADFED380AB4EEE00AF1EE10FA07D2BF
:101BC00090ED000ADFED320A30EE200A80ED000AC7
:101BD0002C4890ED000A39EE400A224880ED010AB7
:101BE00090ED010ADFED290AB4EEE00AF1EE10FAF9
:101BF00008DD90ED010ADFED260A30EE600A80ED87
:101C0000010A11E0174890ED010ADFED220AB4EE57
:101C1000E00AF1EE10FA07D290ED010ADFED1C0A9E
:101C200030EE200A80ED010A0E4890ED000AD0ED5A
:101C3000010ABDEC0E8B10BD000016C3C8000020C9
:101C400000E01245CC00002000001643BC0000203C
:101C5000CD4CD443B6F39D3FC400002083C0C240A6
:101C600052F26A3CB4000020D4000020D8000020CA
:101C70006666C2420000000000806640000000600E
:101C8000FB210940DC0000200000B4420000344386
:101C90000000B443000034C30B480068032805DA91
:101CA000094800684FF4AF71484370470648006820
:101CB000032806DB04480068C0EB4011C1EB00209C
:101CC000F3E70020F1E700002800002000BFFEE756
:101CD00000BFFEE770B5002100230F22C4781CB3BB
:101CE000174C246804F4E064C4F5E064C4F30721ED
:101CF000C1F10404E3B20A4144789C40E1B2847823
:101D0000144021430C07210E0E4C057861550478D0
:101D100004F01F050124AC4005786D11AD0005F1FC
:101D2000E025C5F8004109E0047804F01F0501240E
:101D3000AC40054D0678761145F8264070BD000090
:101D40000CED00E000E400E080E100E00249014326
:101D5000024A1160704700000000FA050CED00E037
:101D60002DE9F04389B081460D4617469846002478
:101D7000304B0FCB05AE0FC605F5407000900190BB
:101D800000208DF808008DF8090008208DF80A0061
:101D90001FB944F25010059002E045F25020059022
:101DA000CDF8188000243FE005A810F834008DF825
:101DB0000B0005A830F83400010A8DF80C1005A8B6
:101DC00050F83400010C8DF80D1005A850F83400BF
:101DD000000E8DF80E0005A800EBC40001798DF807
:101DE0000F1005A800EBC4008088010A8DF81010C0
:101DF00005A800EBC4004068010C8DF8111005A87F
:101E000000EBC4004068000E8DF812006946484699
:101E1000FFF7E0F9064600BF31464846FFF76EFA85
:101E20000128F9D1601CC4B2022CBDDB09B0BDE8A9
:101E3000F08300009063000810B588B004460121CB
:101E4000082000F06BF80121880400F077F80722E1
:101E500008212548FFF73EFD072209212248FFF708
:101E600039FD4FF44070069002208DF81C008DF86B
:101E70001D0000208DF81E0001208DF81F0006A90E
:101E80001948FFF7DFFC4FF4E13002900020ADF875
:101E90000C00ADF80E00ADF81000ADF814000C20E9
:101EA000ADF8120002A9114800F07CFF01210F4893
:101EB00000F0B6FE40210D4800F09AFE012240F2EB
:101EC00025510A4800F049FF27208DF80400002022
:101ED0008DF8050001208DF806008DF8070001A897
:101EE000FFF7F8FE08B010BD000C024000480040AB
:101EF00010B54FF47A63002206210248FFF730FF45
:101F000010BD00000064004010B50523002206212A
:101F10000148FFF725FF10BD0064004029B1064AC3
:101F200012680243044B1A6004E0034A12688243B9
:101F3000014B1A60704700003038024029B1064A50
:101F400012680243044B1A6004E0034A1268824399
:101F5000014B1A60704700004038024029B1064A20
:101F600012680243044B1A6004E0034A1268824379
:101F7000014B1A60704700002038024029B1064A20
:101F800012680243044B1A6004E0034A1268824359
:101F9000014B1A60704700004438024029B1064ADC
:101FA00012680243044B1A6004E0034A1268824339
:101FB000014B1A607047000024380240F0B5002140
:101FC00000220024022500260223324F3F6807F03A
:101FD0000C0121B1042905D0082937D105E02E4F85
:101FE000076036E02D4F076033E02A4F3F1F3F6800
:101FF000C7F38056274F3F1F3F6807F03F036EB17E
:10200000264FB7FBF3F7DFF88CC0ACF1040CDCF81B
:1020100000C0CCF3881C07FB0CF40CE01E4FB7FB90
:10202000F3F7DFF870C0ACF1040CDCF800C0CCF3BF
:10203000881C07FB0CF4174F3F1F3F68C7F301478D
:102040007F1C7D00B4FBF5F7076002E0124F0760CC
:1020500000BF00BF0F4F3F6807F0F0010909104FA4
:102060007A5C0768D74047600A4F3F6807F4E05141
:10207000890A0B4F7A5C4768D7408760054F3F68F5
:1020800007F46041490B064F7A5C4768D740C76048
:10209000F0BD0000083802400024F40000127A006D
:1020A0000C020020704700000CB500200190009049
:1020B0003448006840F480303249086000BF31483D
:1020C000006800F4003000900198401C01900098D6
:1020D00018B90198B0F5A06FF1D12A48006800F452
:1020E000003010B10120009001E000200090009825
:1020F000012846D123484030006840F080502149F3
:10210000403108602048006840F480401E49086063
:102110001C48083000681B49083108600846006800
:1021200040F4004008600846006840F4A050086091
:102130001648091F0860081F006840F08070091FDA
:10214000086000BF0F48006800F000700028F9D058
:1021500040F205600E4908600A480830006820F027
:1021600003000849083108600846006840F0020092
:10217000086000BF03480830006800F00C00082821
:10218000F8D10CBD003802400070004008544007F0
:10219000003C024000B52DED028B81B0B0EE408ACC
:1021A000B0EE480A03F0ECFA009041210F4800F02D
:1021B000EBFE9DF800100D4800F0E6FE9DF80110C2
:1021C0000A4800F0E1FE9DF80210084800F0DCFE2D
:1021D0009DF80310054800F0D7FE4A21034800F09F
:1021E000D3FE01B0BDEC028B00BD00000010014029
:1021F00010B588B0044601210846FFF78FFE012183
:102200001020FFF7BBFE072209212548FFF762FBDC
:1022100007220A212248FFF75DFB4FF4C0600690B9
:1022200002208DF81C008DF81D0000208DF81E0086
:1022300001208DF81F0006A91948FFF703FB02943F
:102240000020ADF80C00ADF80E00ADF81000ADF8B0
:1022500014000C20ADF8120002A9124800F0A2FDF3
:102260004021104800F0C4FC25208DF80400002017
:102270008DF8050002208DF8060001208DF807007A
:1022800001A8FFF727FD012240F22551054800F083
:1022900064FD0121034800F0C3FC08B010BD00003C
:1022A000000002400010014010B51548006840F4DD
:1022B0007000134908601348006840F0010011499C
:1022C000086000200F49083108600E4800680E4978
:1022D00008400C4908600D48091D0860081F006887
:1022E00020F48020091F0860002006490C31086096
:1022F000FFF7DAFE4FF0006001498039086010BD39
:1023000088ED00E000380240FFFFF6FE10300024A8
:1023100010B50121044800F0B2F8012803D10121D1
:10232000014800F09DF810BD0000014010B50121EA
:10233000880700F0A4F801281AD10121800700F0D5
:102340008FF80C480088401C0A490880084600881D
:1023500000EE100AB8EE400ADFED070AB4EEE00A1C
:10236000F1EE10FA04DB0020088001200349087018
:1023700010BD0000C80100200000C842CA010020B2
:1023800010B501211C4800F07AF8012833D1012151
:10239000194800F065F819480068401C17490860A2
:1023A00017480068401C16490860084600684FF648
:1023B000FF7190FBF1F201FB1200114908600F4917
:1023C000086800EBD0714910A0EB410199B102F00F
:1023D000F1FE0C4880ED000A02F068FF0A4880ED2B
:1023E000000A084890ED000A03F0BEF9064890ED97
:1023F000000A03F0BFF910BD00040040D80100201E
:10240000CC010020D0010020D401002010B5012112
:10241000044800F034F8012803D10121014800F0FC
:102420001FF810BD0008004010B50121044800F05D
:1024300026F8012803D10121014800F011F810BD50
:10244000000C004010B50121044800F018F80128E4
:1024500003D10121014800F003F810BD0004014040
:10246000CA430282704721B1028842F00102028011
:1024700004E002884FF6FE731A400280704730B5C0
:102480000246002000230024158A05EA01039589ED
:1024900005EA010413B10CB1012000E0002030BDB9
:1024A0001AB183890B43838102E083898B43838143
:1024B000704700002DE9FF4104460D4616461F46B1
:1024C000DDF828806949601A8C4270D01ADC6849AE
:1024D000A4EB01008C426CD00ADCB4F1804F4ED0EA
:1024E00064482044002852D0B0F5806F71D156E086
:1024F000B0F5806F65D0B0F5006F6CD0B0F5406F6F
:10250000F4D170E0B0F5923F21D009DCB0F5806FD6
:102510007AD0B0F5644F0AD0B0F5684F7CD10EE0A8
:10252000B0F5943F1BD0B0F5963F75D11FE0012167
:102530000846FFF723FD19208DF800006DE001210A
:102540000220FFF71BFD2C208DF8000065E0012123
:102550000804FFF713FD18208DF800005DE001214D
:102560001920FFF70BFD2C208DF8000055E001210C
:102570008804FFF703FD1A208DF800004DE00121CB
:102580000846FFF7DBFC1C208DF8000045E0012128
:102590000220FFF7D3FC1D208DF800003DE0012153
:1025A0000420FFF7CBFC1E208DF8000035E023E06F
:1025B000FFE701210820FFF7C1FC32208DF8000061
:1025C0002BE001211020FFF7B9FC36208DF8000028
:1025D00023E021E0FFE701212020FFF7AFFC3720B7
:1025E0008DF8000019E001214020FFF7A7FC2B2007
:1025F0008DF8000011E007E001218020FFF79EFC2C
:102600002C208DF8000008E001210802FFF796FC5D
:102610002D208DF8000000E000BF00BF0295ADF84E
:1026200004600020ADF80C00ADF8060001A92046BA
:1026300000F022F801212046FFF712FF0122114687
:102640002046FFF72DFFF8B28DF8010008F0FF00DB
:102650008DF8020001208DF803006846FFF73AFB71
:1026600001212046FFF7FFFEBDE8FF81001C00406E
:10267000000C004000FCFFBF00220288184B98426B
:102680000ED0184B98420BD0B0F1804F08D0164BAB
:10269000984205D0154B984202D0154B984204D170
:1026A0004FF68F731A404B881A43124B984207D04B
:1026B000114B984204D04FF6FF431A400B891A433E
:1026C00002804B68C3620B880385054B984202D099
:1026D000044B984201D18B7A038601238382704791
:1026E00000000140000401400004004000080040D8
:1026F000000C0040001000400014004010B588B0ED
:10270000044601940020ADF80800ADF80A00ADF8C9
:102710000C00ADF810000C20ADF80E000121FFF701
:10272000FDFB01210805FFF709FC244800F084FAAD
:1027300008220C212248FFF7CDF808220221214867
:10274000FFF7C8F800208DF81A0001208DF81B0053
:1027500002208DF81800C002059002208DF81900A3
:1027600005A91748FFF76EF802208DF8180004201D
:10277000059005A91348FFF765F801A90F4800F077
:1027800011FB35208DF81C0001208DF81F008DF8FD
:102790001D008DF81E004FF4A060FFF7D7FA07A8C0
:1027A000FFF798FA012240F22551044800F0D5FACB
:1027B0000121024800F034FA08B010BD005000407A
:1027C00000080240000C02401CB501210846FFF73A
:1027D000A5FB0120009000208DF8040003208DF857
:1027E000050001208DF8070069460B48FFF72AF81D
:1027F00001210420FFF792FB0120009000208DF8BA
:10280000040003208DF8050001208DF807006946BB
:102810000248FFF717F81CBD000002400008024004
:1028200010B50821084800F061FA58B940F2255166
:10283000054800F068FA012804D140F22551024809
:1028400000F0DFF910BD00000050004038B5002452
:102850000821284800F04AFA002834D0254800F022
:102860008EFBC4B2562C06D10020234908602349B0
:102870000098086007E0522C05D100201E4908602E
:1028800001201F4908601C48006810B1012818D1B8
:1028900005E0412C02D101201749086012E01949D6
:1028A00009680DF8014017480068401C1549086088
:1028B00008460068042803DD002008600E4908600F
:1028C00000E000BF0FE040F225510A4800F01BFA7B
:1028D000012808D140F22551064800F092F9054838
:1028E00000F04DFBC4B208A10948009A00F0C4FAF8
:1028F00038BD000000100140AC0100208401002020
:1029000080010020B001002025640D0A00000000B5
:102910000050004010B540F225512E4800F0F3F968
:10292000012855D140F225512A4800F06AF929487A
:1029300000F025FB2849087008460078D5280FD1FB
:102940000020264908602649086026480068264974
:1029500008600846006802F0F5FE00202149086082
:102960001E48006820B101280CD002282ED117E0A3
:1029700019480078D62804D118480068401C174927
:10298000086024E01448007841B21848144A1268DC
:1029900000F8121011480068401C1049086016E049
:1029A0000D48017811480E4A126800EB4200417050
:1029B00001200A4908600A480068401C084908606C
:1029C00008480068401C0749086000E000BF00BFDD
:1029D00010BD0000004400408C010020BC0100201C
:1029E000C001002088010020B80100204002002022
:1029F00010B540F22551754800F085F901287CD1C9
:102A000040F22551714800F0FCF8704800F0B7FA28
:102A10006F4908706F48007805286FD2DFE800F032
:102A20000311263D4B006A4800780D2805D16948FE
:102A30000078401C6749087002E000206549087072
:102A40008AE0634800780A2808D1002062490870AB
:102A500060480078401C5F49087006E05C480078D8
:102A60000D2802D000205B49087075E058480078B6
:102A70005A49594A1278885457480078401C564998
:102A8000087008460078182806DB002008705148B6
:102A90000078401C4F4908705EE04D4800780A28D5
:102AA00005D14C480078401C4A49087002E00020DB
:102AB0004849087050E0464800780D2832D1474810
:102AC00090ED000AB1EE400A454880ED000A434807
:102AD00090ED010A80ED010A90ED020A80ED020AF4
:102AE00090ED030A3F4880ED000A3C4890ED040A4F
:102AF0003D4880ED000A394801E02EE028E090EDE5
:102B0000050A80ED050A374890ED000A02F020FE24
:102B1000354890ED000A02F021FE314890ED000AA0
:102B200002F0ACFC00202B4908702E4890ED000A02
:102B30002E4880ED0F0A2C4890ED000A2B4880EDBE
:102B4000100A274890ED000A284880ED0E0A03E09D
:102B500000202049087000BF37E028211B4800F002
:102B600050F840F22771194800F04BF840F2266106
:102B7000164800F046F840F22531144800F041F8BC
:102B800040F22441114800F03CF840F646010F485D
:102B900000F037F840F66A110C4800F032F8602176
:102BA0000A4800F02EF84FF45871084800F029F850
:102BB0004FF41871054800F024F84FF4B071034841
:102BC00000F01FF8014800F0DAF910BD004800409D
:102BD000B4010020B5010020B601002068020020E9
:102BE00074010020780100207C0100201C020020DC
:102BF00001F40072B2F5007F00D100BFCA43028029
:102C0000704710B50022002340F66A14A14200D19B
:102C100000BF0A1201249440A3B2DC43048010BD1B
:102C200021B1828942F40052828104E082894DF60A
:102C3000FF731A408281704710B5044625488442CC
:102C400008D101211020FFF7A9F900211020FFF77A
:102C5000A5F93EE02048844209D101214804FFF74C
:102C60007DF900214FF40030FFF778F931E01B487F
:102C7000844209D101218804FFF770F900214FF443
:102C80008020FFF76BF924E01548844209D1012127
:102C9000C804FFF763F900214FF40020FFF75EF945
:102CA00017E01048844209D101210805FFF756F9C1
:102CB00000214FF48010FFF751F90AE00A488442DE
:102CC00007D101212020FFF769F900212020FFF71B
:102CD00065F910BD0010014000440040004800406C
:102CE000004C00400050004000140140024600200B
:102CF000B1F5007F00D100BF13880B400BB101205C
:102D000000E00020704770B5024600240023002533
:102D1000002040F66A16B14200D100BFC1F342154F
:102D200001F01F03012606FA03F3012D02D1968953
:102D3000334006E0022D02D1168A334001E0968A24
:102D400033400C12012606FA04F41688344013B1FD
:102D50000CB1012000E0002070BDF0B50346002456
:102D600000260025002040F66A17B94200D100BFB6
:102D70001846C1F3421401F01F06012707FA06F5B1
:102D8000012C01D10C3004E0022C01D1103000E004
:102D900014301AB107682F43076002E00768AF4399
:102DA0000760F0BD2DE9FF4705460E460024A14609
:102DB00000BFA046B08900B100BF2C8A24F4405463
:102DC000F08804432C82AC8941F20C608443B088C3
:102DD00031890843718908430443AC81AC8A24F4E7
:102DE0004074B0890443AC826846FFF7E7F8204896
:102DF000854202D01F48854202D1DDF80C9001E0E7
:102E0000DDF80890A88900F4004040B109EBC90042
:102E100000EB091031684900B0FBF1F707E009EB5E
:102E2000C90000EB091031688900B0FBF1F764209C
:102E3000B7FBF0F004012009642101FB1078A88998
:102E400000F4004040B1322000EBC800B0FBF1F0CC
:102E500000F00700044308E0322000EB0810642172
:102E6000B0FBF1F000F00F0004432C81BDE8FF87B8
:102E700000100140001401400FB470B586B0064642
:102E80000CA8019073E00B9800785C281CD10B987B
:102E9000401C0B9000786E2809D072280FD10D21AC
:102EA000304600F071F80B98401C0B900BE00A21A3
:102EB000304600F069F80B98401C0B9003E00B982B
:102EC000401C0B9000BF4BE00B980078252840D1A8
:102ED0000B98401C0B900078642818D0732833D1CD
:102EE000019810C801900BE02178304600F04CF8B2
:102EF00000BF40213046FFF7F9FE0028F9D0641CDE
:102F000020780028F0D10B98401C0B9020E001980D
:102F100020C801900A2202A9284602F04FFA02AC0A
:102F20000BE02178304600F02FF800BF40213046FA
:102F3000FFF7DCFE0028F9D0641C20780028F0D1CF
:102F40000B98401C0B9003E00B98401C0B9000BFAB
:102F500006E00B9810F8011B0B90304600F014F8B7
:102F600000BF40213046FFF7C1FE0028F9D00B9882
:102F70000078002887D106B070BC5DF814FB0146CC
:102F80008888C0F30800704730B504460D4600BF7E
:102F900080212046FFF7AAFE0028F9D08021204694
:102FA000FFF726FE40212046FFF722FEC5F308006A
:102FB000A08030BD00BFFEE7014601290EDA1D48A2
:102FC00090ED000ADFED1C0A80EE201A9FED1B0A2F
:102FD00021EE000A1A4880ED110A22E0012910DBD7
:102FE00003290EDA174890ED000A9FED131AC0EE80
:102FF000010A9FED120A20EE800A114880ED110AA5
:103000000FE003290DDB104890ED000A9FED0A1A2E
:10301000C0EE010A9FED090A20EE800A084880ED03
:10302000110A074890ED110ABDEEC00A10EE100A11
:10303000704700003C0000206766BC4300008045EC
:103040001C02002038000020340000202DE9F0414F
:103050008AB080460D46174600242C4B0FCB06AE97
:103060000FC605F540700190029000208DF80C000D
:103070008DF80D0008208DF80E00079700BF3FE087
:1030800006A810F834008DF80F0006A830F83400B8
:10309000010A8DF8101006A850F83400010C8DF8C4
:1030A000111006A850F83400000E8DF8120006A882
:1030B00000EBC40001798DF8131006A800EBC400E2
:1030C0008088010A8DF8141006A800EBC40040683F
:1030D000010C8DF8151006A800EBC4004068000E26
:1030E0008DF8160001A94046FEF774F8064600BFA9
:1030F00031464046FEF702F90128F9D1601CC4B2FE
:10310000022CBDDB0AB0BDE8F081000000630008BE
:103110002DE9F04393B080460D4616461F46002425
:1031200038222E4905A8FDF7BFF805F5407000903C
:10313000019000208DF808008DF8090008208DF816
:103140000A000C960E97264910914942129100BF31
:103150003FE005A810F834008DF80B0005A830F802
:103160003400010A8DF80C1005A850F83400010C49
:103170008DF80D1005A850F83400000E8DF80E00E3
:1031800005A800EBC40001798DF80F1005A800EB2D
:10319000C4008088010A8DF8101005A800EBC40057
:1031A0004068010C8DF8111005A800EBC4004068C0
:1031B000000E8DF8120069464046FEF70BF8814676
:1031C00000BF49464046FEF799F80128F9D1601C36
:1031D000C4B2072CBDDB13B0BDE8F083C8620008A1
:1031E000C0E1E40010B52DED048BFE4890ED0F0A10
:1031F000FD4880ED000AFB4890ED100AFB4880ED89
:10320000000AF84890ED0E0AF94880ED000AF948E6
:103210000068FFF7D1FE00EE100AB8EEC00AF148D0
:1032200080ED110A806C09287ED2DFE800F005DF0E
:10323000FDFC7DFB7DFAF900FEF72EFD00F5FA702E
:1032400000EE100AB8EEC00AE848D0ED000A30EEF1
:10325000C00AE94880ED000A9FEDE80AE84880EDE1
:10326000000AE348D0ED000AE54890ED000A01F0BD
:10327000B1FDE44880ED000AFEF70EFDC0F5FA60EE
:1032800000EE100AB8EEC00AD748D0ED000A30EEC2
:10329000600ADD4880ED000A006802F08DFF41EC15
:1032A000190BB0EE490AF0EE690A00F081FFB0EEAA
:1032B000408AF0EE608A9FEDD50B53EC102B51EC59
:1032C000180B02F04DFE3BD2CB4890ED000A01F006
:1032D000C1FDCC48D0ED000A30EEC00AB0EE408A05
:1032E000FDF7E4F9BF48D0ED110A30EE200ABDEE3B
:1032F000C00A10EE104A22460121C648FFF7A6FE7A
:10330000BD4890ED000A01F0A5FDBE48D0ED000AD1
:1033100030EEC00AB0EE408AFDF7C8F9B148D0EDF2
:10332000110AF1EE600A00E056E330EE200ABDEE2D
:10333000C00A10EE104A22460221B648FFF786FE68
:10334000B148006802F038FF41EC190BB0EE490AB1
:10335000F0EE690A00F02CFFB0EE408AF0EE608AD1
:103360009FEDAA0B53EC102B51EC180B02F0BEFC96
:1033700020D29FEDA90AA44880ED000A01209949B6
:103380008864A6A2A8A1AA48FFF776FDA3A2A6A1D9
:10339000A748FFF771FDA1A2A3A1A548FFF76CFD07
:1033A0009EA2A1A1A248FFF767FD9CA29EA1A048F2
:1033B000FFF762FD904890ED000A01F04BFD914847
:1033C000D0ED000A30EEC00AB0EE408AFDF76EF98B
:1033D000984880ED000A884890ED000A01F03AFD17
:1033E000954880ED000AFEF7CBF8F6E2FEF754FCB4
:1033F00040F26C71081A00EE100AB8EEC00A7A4862
:10340000D0ED000A30EEC00A7B4880ED000A9FED47
:10341000820A7B4880ED000A7548D0ED000A04E07E
:10342000D7E2D0E2C7E2D4E1C0E0754890ED000AEF
:1034300001F0D0FC734880ED000AFEF72DFC41F24C
:103440003011081A00EE100AB8EEC00A6748D0ED35
:10345000000A30EE600A6C4880ED000A006802F055
:10346000ABFE41EC190BB0EE490AF0EE690A00F030
:103470009FFEB0EE408AF0EE608A9FED640B53EC45
:10348000102B51EC180B02F06BFD39D25A4890ED1D
:10349000000A01F0DFFC5B48D0ED000A30EE200AA4
:1034A000B0EE408AFDF702F94E48D0ED110A30EE39
:1034B000200ABDEEC00A10EE104A224601215548EE
:1034C000FFF7C4FD4C4890ED000A01F0C3FC4D48E5
:1034D000D0ED000A30EE200AB0EE408AFDF7E6F8A3
:1034E0004048D0ED110AF1EE600A30EE200ABDEE40
:1034F000C00A10EE104A224602214648FFF7A6FDF8
:103500004148006802F058FE41EC190BB0EE490A40
:10351000F0EE690A00F04CFEB0EE408AF0EE608AF0
:103520009FED3A0B53EC102B51EC180B02F0DEFB25
:1035300020D29FED390A344880ED000A0220294943
:10354000886436A238A13A48FFF796FC33A236A128
:103550003748FFF791FC31A233A13548FFF78CFCC7
:103560002EA231A13248FFF787FC2CA22EA13048B1
:10357000FFF782FC204890ED000A01F06BFC214827
:10358000D0ED000A30EE200AB0EE408AFDF78EF84A
:10359000284880ED000A184890ED000A01F05AFC16
:1035A000254880ED000AFDF7EBFF16E2FEF774FBFD
:1035B00041F23011081A00EE100AB8EEC00A0B48AA
:1035C000D0ED000A30EEC00A0B4880ED000A9FEDF6
:1035D0001B0A0B4880ED000A0548D0ED000A084898
:1035E0002EE000001C02002000000020040000204B
:1035F0000800002028000020180000200000B4C2AD
:10360000100000200C00002014000020000000002A
:1036100000208C4000680040000000006861686184
:1036200068616861310000002573090D0A0000001F
:10363000005000401C000020200000200000B44288
:1036400090ED000A01F0C6FBE94880ED000AFEF7A4
:1036500023FBA0F5FA6000EE100AB8EEC00AE548B8
:10366000D0ED000A30EE600AE34880ED000A006801
:1036700002F0A2FD41EC190BB0EE490AF0EE690A26
:1036800000F096FDB0EE408AF0EE608A1FED210B4F
:1036900053EC102B51EC180B02F062FC39D2D748D6
:1036A00090ED000A01F0D6FBD148D0ED000A30EED3
:1036B000200AB0EE408AFCF7F9FFD148D0ED110A9C
:1036C00030EE200ABDEEC00A10EE104A224601215B
:1036D000CC48FFF7BBFCC94890ED000A01F0BAFBEB
:1036E000C348D0ED000A30EE200AB0EE408AFCF765
:1036F000DDFFC348D0ED110AF1EE600A30EE200A7A
:10370000BDEEC00A10EE104A22460221BD48FFF766
:103710009DFCB948006802F04FFD41EC190BB0EE7A
:10372000490AF0EE690A00F043FDB0EE408AF0EE7F
:10373000608A1FED4A0B53EC102B51EC180B02F072
:10374000D5FA2AD21FED4C0AAB4880ED000A0320BF
:10375000AB498864AFF23C12AFF23411AA48FFF7CC
:103760008BFBAFF24812AFF24011A748FFF784FB82
:10377000AFF25812AFF25011A348FFF77DFBAFF242
:103780006412AFF25C11A048FFF776FBAFF274123F
:10379000AFF26C119C48FFF76FFB984890ED000A60
:1037A00001F058FB9248D0ED000A30EE200AB0EE4E
:1037B000408AFCF77BFF954880ED000A8F4890ED2A
:1037C000000A01F047FB924880ED000AFDF7D8FEA1
:1037D00003E1FEF761FAC0F5FA6000EE100AB8EEF8
:1037E000C00A8448D0ED000A30EE200A834880EDFC
:1037F000000A9FED880A884880ED000A8748D0EDCE
:10380000000A854890ED000A01F0E4FA784880ED5E
:10381000000AFEF741FA00F5FA7000EE100AB8EE61
:10382000C00A7F48D0ED000A30EEC00A724880ED31
:10383000000A006802F0C0FC41EC190BB0EE490A26
:10384000F0EE690A00F0B4FCB0EE408AF0EE608A57
:103850001FED920B53EC102B51EC180B02F080FB78
:1038600039D2664890ED000A01F0F4FA6048D0EDD4
:10387000000A30EEC00AB0EE408AFCF717FF60483D
:10388000D0ED110A30EE200ABDEEC00A10EE104A4B
:10389000224601215B48FFF7D9FB584890ED000A0A
:1038A00001F0D8FA5248D0ED000A30EEC00AB0EE6E
:1038B000408AFCF7FBFE5248D0ED110AF1EE600A97
:1038C00030EE200ABDEEC00A10EE104A2246022158
:1038D0004C48FFF7BBFB4848006802F06DFC41EC28
:1038E000190BB0EE490AF0EE690A00F061FCB0EE87
:1038F000408AF0EE608A1FEDBB0B53EC102B51ECAD
:10390000180B02F0F3F93AD21FEDBD0A3A4880EDE8
:10391000000A00203A49886442480068032804DA13
:1039200040480068401C3F4908603E480068032842
:1039300002D1052032498864AFF22032AFF218314B
:103940003148FFF799FAAFF22C32AFF224312E480A
:10395000FFF792FAAFF23C32AFF234312A48FFF768
:103960008BFAAFF24832AFF240312748FFF784FAC2
:10397000AFF25832AFF250312348FFF77DFAFDF72E
:10398000FFFD1E4890ED000A01F064FA1848D0EDE2
:10399000000A30EEC00AB0EE408AFCF787FE1B48F2
:1039A00080ED000A154890ED000A01F053FA18481E
:1039B00080ED000A11E01948D0ED000A1FEDEA0A77
:1039C000FCF7F0FD09E0154890ED000AFCF796FEC3
:1039D00003E001F0E5FA00E000BF00BF0848806C9A
:1039E000082801D0FDF776FEBDEC048B10BD000069
:1039F0000C0000200000002014000020180000200F
:103A00001C02002000680040005000401C00002004
:103A10002000002000003443100000200800002097
:103A2000040000202800002010B52DED028BB0EE20
:103A3000408AB0EE480A00F00FF8BDEEC00A10EE62
:103A4000104A2346002207210248FEF789F9BDECFF
:103A5000028B10BD00640040F0EE400AB1EE000A97
:103A600020EE800A9FED021A20EE010A7047000046
:103A7000610B364103B401984100009850EAC1201F
:103A800018BF04204A0D18BF40F0010040F2FF7239
:103A9000B2EB515F08BF40F00200012808BF0520CB
:103AA00002B070474100080218BF04200A0E18BF78
:103AB00040F001004FF07F4232EA010108BF40F0C0
:103AC0000200012808BF0520704700000000000028
:103AD00070B59B482DED020B2DED068B079D25F053
:103AE0000044A04218DC9748844202DC0AD10698C0
:103AF00040B19DED060BBDEC068B02B0BDE87040F9
:103B000001F076B8002DCCBF9FED8F0B9FED900B91
:103B1000BDEC068B02B070BD8F48A04215DD8F480A
:103B2000A042D8BF4FF0FF3458DD9DED060B51EC9D
:103B3000100BFFF79FFF042808BF01F07DF89DEDF3
:103B4000060BBDEC068B02B070BD9DED060B51EC73
:103B5000100B01F019FACDE9060181489FED828B27
:103B6000A0423CDD8248A0421FDD00249FED82ABD5
:103B70009DED060B53EC1A2B51EC100B01F050FE8F
:103B80009DED060B41EC190B53EC1A2B51EC100B6D
:103B900002F0E8F853EC182B02F024FA53EC192B3E
:103BA00001F0F2FECDE9060149E09DED060B01248E
:103BB00053EC182B51EC100B01F032FE9DED060B6F
:103BC00041EC190B53EC182B51EC100B02F00AFAD4
:103BD00053EC192B01F0D8FECDE906012FE068481F
:103BE000A0421FDD02249FED689B9DED060B53EC68
:103BF000192B51EC100B02F0B5F853EC182B01F017
:103C00000FFE9DED060B41EC180B53EC192B51ECFC
:103C1000100B02F0E7F953EC182B01F0B5FECDE9DB
:103C200006010CE09DED060B032453EC102B9FEDD9
:103C3000580B51EC100B01F0A7FECDE906019DEDEC
:103C4000060B53EC102B51EC100B02F08BF841ECEF
:103C5000180B53EC182B02F085F841EC190B4E4869
:103C60000621B0EE490AF0EE690A784400F0ACFE95
:103C700053EC182B51EC100B02F074F841EC180BBC
:103C80004648B0EE490AF0EE690A0521784400F092
:103C90009BFE53EC192B51EC100B02F063F841EC36
:103CA000100B51EC180B53EC102B002C0EDA01F01A
:103CB000B7FD9DED061B53EC112B02F053F89DED63
:103CC000061B53EC112B02F081F935E001F0A8FD41
:103CD0009DED061B53EC112B02F044F841EC100B48
:103CE0002F48784400EBC40090ED001B51EC100B02
:103CF00053EC112B02F076F99DED061B53EC112BC2
:103D000002F070F941EC100B2648784400EBC40037
:103D100090ED001B51EC100B53EC112B02F056F9F7
:103D200041EC100B002DA2BFBDEC068B02B070BDA4
:103D300051EC100B01F036FD41EC100B01E70000D7
:103D4000000010440000F07F182D4454FB21F93F7F
:103D5000182D4454FB21F9BF0000DC3F0000203E39
:103D60000000F33F00000000000000000000F03FF2
:103D70000000E63F000000000000000000000040DE
:103D80000080034000000000000000000000F83F39
:103D9000000000000000F0BFBA27000070270000FC
:103DA000FA260000B226000070B56B4E2DED040B14
:103DB0002DED028B82B0DDF81CC0DDE905235C42ED
:103DC0002CF000411C4341EAD474049D22F00040D1
:103DD000B44205D86C422C4340EAD474B4420BD9A7
:103DE0009DED061B9DED040B02B0BDEC028B04B0F3
:103DF000BDE8704000F006BFACF14054A4F17F6410
:103E00001C430BD0022404EAAC7444EAD274054388
:103E10009FED538B9FED542B07D015E09DED040BC8
:103E200051EC100B01F00EF842E0002C11BF012CF8
:103E30009DED040B02B0BDEC028B04BF04B070BD5D
:103E4000022C38D0032C3BD00B439FED491B9FED38
:103E50004A0B0AD0B14218D1B04209D121F08041B9
:103E600020F08040079105900FE0002A15DA10E05D
:103E7000434B7B44002C08BF93ED000B0DD0012C6D
:103E800010D0022C17D0032C1AD0B0421DD1002A1A
:103E900003DAB0EE410AF0EE610A02B0BDEC028B2B
:103EA00004B070BD93ED000B51EC100B01F07AFCE7
:103EB00041EC100BF1E7B0EE480AF0EE680AECE7CF
:103EC000B0EE420AF0EE620AE7E7401A00153C281D
:103ED000C8BF8DED000B19DCBCF1000FBEBF10F1A7
:103EE0003C0F9FED290B8DED000B0FDB9DED060BBD
:103EF00053EC102B9DED040B51EC100B01F044FD25
:103F000001F042F800F09EFFCDE90001002C08BF4F
:103F10009DED000BC1D0012C10D0022C9FED1C0B8D
:103F200053EC102B9DED000B51EC100B0DD002F05B
:103F300059F853EC182B02F055F8B9E7019880F0C6
:103F4000004001909DED000BA7E702F04BF853EC09
:103F5000182B02F03BF8ABE70000F07F00000000F8
:103F6000182D4454FB210940182D4454FB2109C04D
:103F7000182D4454FB21F9BF182D4454FB21F93F5F
:103F800012260000000000000000000000000000F9
:103F9000075C143326A6A13C10B52F499FED2C1BBE
:103FA0002DED020B84B0059820F000408842D8BF68
:103FB0009DED040B2DDD2949884209D1049840B9B3
:103FC0004FF00100FCF7AAF900F026FE06B010BD84
:103FD00005DB9DED040B00F00BFE06B010BD68463E
:103FE0009DED040B00F01CFA10F0030004BF9DEDE2
:103FF000021B9DED000B0CD001280ED09DED021B85
:104000009DED000B022817D0012000F059FD06B0ED
:1040100010BD00F021FC06B010BD9DED021B9DED12
:10402000000B012000F04CFD51EC100B01F0BAFB2D
:1040300006B041EC100B10BD00F00EFC51EC100B63
:1040400001F0B0FB06B041EC100B10BD0000000009
:104050000000000000000000FB21E93F0000F07FAD
:1040600010EE101A08B5444A6846B2EB410F28D941
:104070004FF0E640B0EB410F94BF00204FF0FF300F
:1040800000900098002861DB60EE000A10F0010F3C
:1040900045D010F0020FDFED391A9FED391A00EE0E
:1040A000E11ADFED381A40EE811A21EEA01AF0EE87
:1040B000400A40EE010A08BFF1EE600AB0EE600A65
:1040C00008BD314B21F0004293423CD911F0004F22
:1040D000DFED2E0A20EE201ADFED2D0A19BF31EE9A
:1040E000601A71EE200A31EE201A71EE600ABDEE00
:1040F000E01A11EE100A9FED271A00F0030000EEFF
:10410000C10A9FED251A009000EEC10A9FED231A07
:1041100000EEC10A9FED221A00EEC10AB1E79FED41
:10412000211A9FED210A10F0020F00EE810A9FED87
:104130001F1A00EE801AB7EE000A00EE810A18BFBF
:10414000B1EE400A08BD00F09BFD9AE710EE100AA0
:104150004000B0F17F4F3CBFB7EE000A08BD07D169
:104160004FF00100FCF7DAF8BDE8084000F078BD38
:10417000BDE8084000F070BDB61F927E336D4C392B
:10418000DA82083CA0AA2ABE490E494683F9223F9A
:104190000000004B0000C93F00A0FD390020A23301
:1041A0001A61342CB93AB2BACA9F2A3DDDFFFFBE6C
:1041B0002DED020B019820F0004001909DED000BC9
:1041C00002B070470000000010B52F499FED2C1B76
:1041D0002DED020B84B0059820F000408842DCBF32
:1041E00000209DED040B32DD2849884209D1049856
:1041F00040B94FF00100FCF791F800F00DFD06B05A
:1042000010BD05DB9DED040B00F0F2FC06B010BD07
:1042100068469DED040B00F003F910F0030011D087
:10422000012818D09DED021B9DED000B02281AD02D
:1042300000F012FB51EC100B01F0B4FA06B041ECA7
:10424000100B10BD9DED021B9DED000B012000F039
:1042500037FC06B010BD9DED021B9DED000B00F07C
:10426000FBFA06B010BD012000F02AFC51EC100B47
:1042700001F098FA06B041EC100B10BD00000000F0
:104280000000000000000000FB21E93F0000F07F7B
:1042900000B510EE101A2DED028B81B0524A68461F
:1042A000B2EB410F2ED94FF0E640B0EB410F94BF77
:1042B00000204FF0FF3000900098B0EE408A0028B8
:1042C0006ADB10F0010F4BD068EE080A9FED471A29
:1042D0009FED470A00EE810A9FED461A10F0020F8B
:1042E00000EE801AB7EE000A00EE810A02BF01B0AC
:1042F000BDEC028B00BD00BF01B0B1EE400ABDECC9
:10430000028B00BD3C4B21F00042934241D911F099
:10431000004FDFED3A0A20EE201ADFED390A19BF0F
:1043200031EE601A71EE200A31EE201A71EE600A49
:10433000BDEEE01A11EE100A9FED321A00F00300F4
:1043400000EEC10A9FED301A009000EEC10A9FED09
:104350002F1A00EEC10A9FED2E1A00EEC10AABE73C
:1043600028EE080A9FED2B1ADFED2B0A10F0020F42
:1043700040EE410A9FED291A00EE201A61EE000A74
:10438000B0EE480A08EE200AB6D101B0BDEC028BAF
:1043900000BD00F075FC8FE718EE100A4000B0F188
:1043A0007F4F0DD218EE100AFFF77CFB042808BFE0
:1043B00000F05EFCB0EE480A01B0BDEC028B00BD1F
:1043C00009D10120FBF7AAFF01B0BDEC028B5DF81B
:1043D00004EB00F045BC01B0B0EE480ABDEC028B26
:1043E0005DF804EB00F038BCB61F927EB93AB2BA61
:1043F000CA9F2A3DDDFFFFBE490E494683F9223F91
:104400000000004B0000C93F00A0FD390020A2338E
:104410001A61342C336D4C39DA82083CA0AA2ABECA
:104420002DE9F14F04462DED020B2DED088B8AB0DE
:104430009FEDE70B80ED020B139EE74826F0004549
:1044400085420ADC9DED120B002084ED000B0AB0C2
:10445000BDEC088B03B0BDE8F08FE0489FEDE0AB0A
:104460009FEDE1BBA84247DDE14F9FEDE39B9FED50
:10447000E48B9DED120B53EC1A2B51EC100B002E1C
:104480001CDD01F0AFFD41EC100BBD4208D053EC38
:104490001B2B51EC100B01F0A5FDC4E900010BE052
:1044A00053EC192B51EC100B01F09CFD53EC182B25
:1044B00001F098FDC4E900010120C8E701F0B0F95E
:1044C00041EC100BBD4208D053EC1B2B51EC100BF0
:1044D00001F0A6F9C4E900010BE053EC192B51ECF3
:1044E000100B01F09DF953EC182B01F099F9C4E978
:1044F00000014FF0FF30AAE7C348A84279DB9DEDE9
:10450000120B51EC100B00F03FFD41EC180B9FED2E
:10451000C00B53EC102B01F025FC9FEDBF1B53EC9F
:10452000112B01F07DF901F087FB074601F0B3FB89
:1045300041EC190B53EC1A2B01F014FC53EC182B23
:1045400001F044FD41EC180B53EC1B2B51EC190B03
:1045500001F008FCDFF8C8A241EC100B4FEA155837
:104560000125FA4453EC102B51EC180B01F03AFDE5
:10457000032DC4E900013DD0C1F30A5005EB4511FC
:10458000A8EB00001139814234DA0AEB051BB0EECA
:1045900048AA9BED000BF0EE68AA53EC102B51ECEF
:1045A000190B01F0DFFB41EC1B0B51EC1A0B53EC28
:1045B0001B2B01F017FD41EC180B51EC1A0B53ECBF
:1045C000182B01F00FFD53EC1B2B01F00BFD9BEDA5
:1045D000020B41EC1A0B53EC102B51EC190B01F0B0
:1045E000C1FB53EC1A2B01F0FDFC41EC100B6D1CD0
:1045F000B8E70EE0002EA8BF3846BFF628AF94ED0E
:10460000000B51EC100B01F0CDF8C4E90001784229
:104610001DE7C6F3130040F4801EC6F30A50A0F253
:10462000F530471100F01F05C5F12000DDF848B056
:1046300008900020069007900520EC467949002D4F
:1046400007EB0002794408BF51F8221009D051F855
:10465000223001EB8201AB404A68089922FA01F14D
:104660001943A1FB0E26A1FB0B131A449A4234BF37
:104670000123002303EB06080CEB8003D3E901A61A
:104680000E448E4234BF0121002192448A4411B16C
:10469000924502D903E0924501D2012100E00021B8
:1046A000C3E901A641444CF82010011EA0F101000D
:1046B000C4DC029800F10050850F0298DDE9036721
:1046C0008000DDF8148001F0E6FA41EC1A0B304668
:1046D00001F0F8FA9FED541B53EC112B01F042FB53
:1046E00041EC1B0B384601F0EDFA9FED511B53ECEA
:1046F000112B01F037FB41EC180B404601F0E2FAB8
:104700009FED4D1B53EC112B01F02CFB41EC190BD1
:1047100051EC180B53EC192B01F082F853EC1B2BC6
:1047200001F07EF853EC1A2B01F07AF8CDE908017C
:10473000002008909DED080B53EC1A2B51EC100B48
:1047400001F050FC53EC1B2B01F04CFC53EC182BEC
:1047500001F048FC53EC192B01F038FC9FED381B9D
:1047600053EC112B01F0FEFA9FED370B41EC180BC7
:1047700053EC102B9DED080B51EC100B01F0F2FAED
:1047800053EC182B01F04CF89FED310B41EC180B5A
:1047900053EC102B9DED080B51EC100B01F0E2FADD
:1047A00053EC182B01F03CF841EC100B139810F06F
:1047B000004F06D06D4251EC100B00F0F3FF41ECBE
:1047C000100B284684ED000B41E6000000000000BD
:1047D0000000000000000000FB21E93F7CD90240FE
:1047E00000004054FB21F93F3163621A61B4D03DAF
:1047F000FB21F93F000000000000601A61B4D03DC9
:104800007370032E8A19A33BFB213941000000007D
:1048100083C8C96D305FE43F000000000000E03F46
:104820002A1F0000781E0000000000000000103E5B
:10483000000000000000103C000000000000103AE2
:10484000182D4454FB21F93D3326A611460B113C8B
:1048500000000054FB21F93D10B52DED040B2DEDAA
:10486000088B82B0B0EE419AF0EE619A0B9820F07E
:1048700000449FED4BABB4F1795F11DA9DED0A0B6B
:1048800051EC100B01F0D8F9002801BFB0EE4A0A34
:10489000F0EE6A0A02B0BDEC088B04BF04B010BD94
:1048A0009DED0A0B53EC102B51EC100B01F05AFA52
:1048B00041EC180B3C480621B0EE480AF0EE680ABD
:1048C000784400F081F853EC182B51EC100B01F0F8
:1048D00049FA9DED0A0B41EC1B0B53EC192B51ECE3
:1048E000100B01F03FFA41EC190B53EC1B2B51EC70
:1048F000180B01F037FA53EC192B01F073FB9FED05
:104900002C0B41EC190B53EC102B51EC180B01F054
:1049100029FA41EC100B2848844210DA53EC192B89
:1049200051EC100B01F05EFB53EC1A2B01F04EFB27
:1049300041EC100B02B0BDEC088B04B010BD1F4859
:10494000A042BCBF9FED1E1B8DED001B06DBA4F536
:1049500000100190002000909DED001B51EC100B09
:1049600053EC112B01F03EFB9DED000B41EC180BBD
:1049700053EC102B51EC1A0B01F034FB41EC1A0BE9
:1049800053EC192B51EC180B01F02CFB53EC1A2BA8
:1049900001F01CFB41EC100BCCE700000000000014
:1049A000000000000000F03F941B00000000000029
:1049B000000000000000E03F3333D33F0000E93F38
:1049C000000000000000D23F70B504462DED028BC0
:1049D0004D1E00EBC500B0EE408AF0EE608A90ED0F
:1049E000000B35F0060017D053EC182B51EC100BD0
:1049F00001F0B8F941EC100B6D1E04EBC50090ED11
:104A0000001B51EC100B53EC112B00F009FF41EC93
:104A1000100B35F00600E7D1022D36D0042D1CD046
:104A2000062D1CBFBDEC028B70BD53EC182B51EC56
:104A3000100B01F097F994ED0A1B53EC112B00F0C9
:104A4000EFFE53EC182B01F08DF994ED081B53EC9D
:104A5000112B00F0E5FE41EC100B53EC182B51EC40
:104A6000100B01F07FF994ED061B53EC112B00F0B5
:104A7000D7FE53EC182B01F075F994ED040B53ECB1
:104A8000102B00F0CDFE41EC100B53EC182B51EC29
:104A9000100B01F067F994ED021B53EC112B00F0A1
:104AA000BFFE53EC182B01F05DF994ED001B53ECA5
:104AB000112B00F0B5FEBDEC028B41EC100B70BD6C
:104AC00031B504462DED040B2DED0A8BB0EE41BA45
:104AD000F0EE61BA0B989DED0A0B20F00040B0F1AA
:104AE000795F0DDA51EC100BFEF7C4FF042808BF04
:104AF00000F0A2F89DED0A0BBDEC0A8B05B030BDAD
:104B000053EC102B51EC100B01F02CF941EC180B6D
:104B10009DED0A0B53EC182B51EC100B01F022F910
:104B200041EC190B2C48B0EE480AF0EE680A05215A
:104B30007844FFF749FF9FED2ACBB0EE40AAF0EE94
:104B400060AA9CB353EC1C2B51EC190B01F00AF931
:104B500041EC1C0B53EC1A2B51EC190B01F002F930
:104B60009FED210B41EC190B53EC102B51EC1B0B5F
:104B700001F0F8F853EC192B01F034FA53EC182B30
:104B800001F0F0F853EC1B2B01F02CFA53EC1C2B2A
:104B900001F028FA9DED0A1B53EC112B01F016FAD7
:104BA000BDEC0A8B05B041EC100B30BDFFE753ECB8
:104BB0001A2B51EC180B01F0D5F853EC1C2B00F01C
:104BC0002FFE53EC192B01F0CDF89DED0A1B53EC91
:104BD000112B00F025FEE3E7441A0000000000005E
:104BE000495555555555C5BF000000000000E03F30
:104BF00010B553EC102B51EC100B00F011FE41ECF2
:104C0000100B10BD10B553EC112B51EC100B00F034
:104C100007FE41EC100B10BD9FED050B10B553ECDA
:104C2000102B51EC100B00F0AFFE41EC100B10BD3F
:104C300000000000000000009FED050B10B553ECD4
:104C4000102B51EC100B01F08DF841EC100B10BD46
:104C5000000000000000001030EE000A7047000065
:104C6000DFED020A80EEA00A70470000000000009D
:104C70009FED020A20EE000A7047000000000010BD
:104C80002DE9F0014FF07F42B2EB410F9FBF4FF093
:104C9000FF310160BDE8F00170474FF0004242EA89
:104CA0000123C1F3C752783A551112F01F0C434C3F
:104CB000CCF120067C44C1F3C752A2F178024FEA3E
:104CC000621204EB820254F8254008BFD2E9015673
:104CD00012D0556804FA0CF425FA06F73C4397689D
:104CE00005FA0CF527FA06F8D26807FA0CFCF24030
:104CF00045EA08054CEA0206A4FB034CA5FB035257
:104D0000A6FB03631D449D4234BF012600261319F0
:104D1000334416B1934202D903E0934201D20122F7
:104D200000E00022624402F1200C9206DC0C42EA10
:104D3000443200EE102A5B03DFED210AF8EEC01AC0
:104D400000EE103A4FEA9C1C11F0004FB8EE400AFA
:104D5000C0F800C020EE201A00EE105ADFED190A4C
:104D6000B8EE400A20EE200A71EE810A70EE800A49
:104D700010EE902A02F500626FF30B0200EE902A0B
:104D800070EEE11A31EEC11ADFED101A30EE411A61
:104D90009FED0D0A20EE800A01EE210A9FED0C1A0C
:104DA00000EE810A04BFBDE8F0017047CCF18051EC
:104DB0000160BDE8F001B1EE400A7047A0180000A4
:104DC000000000360000802C22AAFD29DB0FC92F2D
:104DD0000000C92FB0EE401A31EE600A154880ED90
:104DE000000A90ED000ADFED141AB4EEE10AF1EECC
:104DF00010FA08DD90ED000ADFED101A30EE610ABE
:104E000080ED000A11E00B4890ED000ADFED0C1A6E
:104E1000B4EEE10AF1EE10FA07D290ED000ADFEDF0
:104E2000071A30EE210A80ED000A024890ED000AD0
:104E30007047000018010020000034430000B44314
:104E4000000034C310B541EC100BFEF741FE51ECED
:104E5000100B10BDF0EE400A0E4890ED000A20EE57
:104E6000200A0D4890ED001AB8EEC11A30EEC11AB2
:104E70000A48D0ED001A01EE810A094880ED000AC7
:104E8000BDEEE00A044880ED000A054890ED000AF6
:104E900070470000400100203C0100204401002038
:104EA0004801002010B50D4800F05EF801210B48C4
:104EB00000F016F80221094800F012F84CF25033C5
:104EC0001A4601210548FEF723F94CF250331A46E1
:104ED00002210248FEF71CF910BD000000680040E6
:104EE00070B588B005460C461E4903C9CDE90601D8
:104EF00004F540700190029000208DF80C008DF8B0
:104F00000D0008208DF80E000698C0B28DF80F0035
:104F10000698010A8DF810100698010C8DF81110F2
:104F20000698000E8DF812000798C1B28DF8131084
:104F30000798010A8DF814100798010C8DF81510C8
:104F40000798000E8DF8160001A92846FCF742F9D3
:104F5000064600BF31462846FCF7D0F90128F9D1B2
:104F600008B070BDB86200081CB50446054903C905
:104F7000CDE9000108236A4600212046FCF70EFA1D
:104F80001CBD0000B062000882B0CDE9000121F034
:104F9000004001909DED000B02B051EC100B7047EA
:104FA00010B55A4890ED0F0A594880ED000A57484D
:104FB00090ED100A574880ED000A544890ED0E0A13
:104FC000554880ED000A00F0B9F85449086054488B
:104FD0000068401C524908600868C11700EB9171D5
:104FE0008910A0EB81014E4A11604C4800684A4983
:104FF00091ED001A4749D1ED000A454991ED000AAB
:10500000FCF7FEFC474880ED000AC0ED010A444869
:105010000068032806D14348D0ED010AB0EE600ACB
:10502000FEF702FD3F48D0ED000AB0EE600AFDF742
:10503000B1F83D480068401C3B49086008460068DC
:105040000A2805DC08460068002801DDFCF750FF4F
:10505000354800688C2805DC33480068822801DD6B
:10506000FCF752FF304800684FF4827190FBF1F278
:1050700001FB12002C49086024482CA142692C48ED
:10508000FDF7FAFE214890ED0F0ABDEEC00A10EEC2
:10509000102A26A12648FDF7EFFE1C4890ED100AC5
:1050A000BDEEC00A10EE102A20A12148FDF7E4FE53
:1050B0001A481EA102681E48FDF7DEFE1A481BA111
:1050C00002681B48FDF7D8FE104890ED0E0ABDEEB1
:1050D000C00A10EE102A15A11548FDF7CDFE1148A3
:1050E00090ED010ABDEEC00A10EE102A0FA1104883
:1050F000FDF7C2FE0B4890ED000ABDEEC00A10EEAF
:10510000102A0CA10A48FDF7B7FE10BD1C020020B2
:10511000E4000020E8000020EC000020F000002067
:10512000FC000020F4000020E000002025640900BD
:10513000005000402564090D0A0000000148006885
:1051400070470000FC01002010B52DED068B0A21F0
:105150000F20FCF7FBFB044600F0B4FD41EC1A0BFA
:105160009FED0A0B53EC102B00F0FCFD41EC190BEA
:105170009FED080B53EC102B00F052FB41EC180B89
:1051800000F05AFDBDEC068B10BD0000A323B9FC56
:1051900087F4ED3FCDCCCCCCCCBC7A400448017830
:1051A00021B10020024A1070012070470020FCE766
:1051B000CA01002010B52DED108B3648006800F0B4
:1051C000FBFF41EC190B344890ED000AB1EE400AA8
:1051D000DFED320A20EE200ADFED310A80EE201AE0
:1051E00011EE104A204600F0E7FF41EC1F0BB0EE35
:1051F0004F0AF0EE6F0AFEF7E7FFB0EE40DAF0EE8E
:1052000060DA2848006800F0D7FF41EC1E0B53EC31
:105210001D2B00F0A7FD41EC1B0B1F4890ED000A71
:10522000B1EE400ADFED1D0A20EE200ADFED1C0A78
:1052300080EE201A11EE104A204600F0BDFF41EC2E
:105240001F0BB0EE4F0AF0EE6F0AFEF7A5FEB0EEB0
:1052500040DAF0EE60DA1448006800F0ADFF41EC8F
:105260001E0B53EC1D2B00F07DFD41EC1C0B53EC91
:105270001B2B00F0B7FE41EC1A0B53EC192B00F07E
:10528000CFFA41EC180B00F099FA00EE100ABDECD1
:10529000108B10BD100100200C010020DB0F4940D5
:1052A00000003443080100200401002010B52DED5A
:1052B000108B3648006800F07FFF41EC190B344832
:1052C00090ED000AB1EE400ADFED320A20EE200A2E
:1052D000DFED310A80EE201A11EE104A204600F070
:1052E0006BFF41EC1F0BB0EE4F0AF0EE6F0AFEF7BA
:1052F00053FEB0EE40DAF0EE60DA2848006800F0C5
:105300005BFF41EC1E0B53EC1D2B00F02BFD41EC21
:105310001B0B1F4890ED000AB1EE400ADFED1D0A9D
:1053200020EE200ADFED1C0A80EE201A11EE104A52
:10533000204600F041FF41EC1F0BB0EE4F0AF0EEAB
:105340006F0AFEF741FFB0EE40DAF0EE60DA144883
:10535000006800F031FF41EC1E0B53EC1D2B00F0F8
:1053600001FD41EC1C0B53EC1B2B00F059FA41ECF6
:105370001A0B53EC192B00F053FA41EC180B00F008
:105380001DFA00EE100ABDEC108B10BD14010020B8
:105390000C010020DB0F49400000344308010020CD
:1053A00004010020014890ED000A7047EC01002044
:1053B000014890ED000A7047F0010020F0B5034667
:1053C0000D461646002729460A2E03D000200870F5
:1053D0002846F0BD33B9302001F8010B00200870D9
:1053E0002846F6E7002B03DA2D2001F8010B5B427B
:1053F0000A4A0DE0B3FBF2F404B937B104F130000E
:1054000001F8010B04FB123301270A20B2FBF0F272
:10541000002AEFD1002008702846DAE700E1F50500
:1054200010B500F009F806E001E0FDF7DBFEFFF73C
:10543000B5FE0028F9D1F7E710B54FF4A060FCF7EE
:1054400085FCFCF799FAFFF72DFD41F27070FCF72F
:10545000DAF941F27070FCF7D6F94CF250331A4683
:1054600008210448FDF754FE9FED030AFCF710F9EC
:1054700010BD00000064004000000C42014880EDB7
:10548000000A7047000100200149086070470000D1
:10549000FC01002010B52DED048BB0EE409AB0EE6B
:1054A000608AF0EE418AB0EE490A00F00BF8B0EEE7
:1054B000480A00F02FF8B0EE680A00F0B7F8BDEC2B
:1054C000048B10BD10B52DED028BB0EE408A0A485A
:1054D00090ED000A38EE400A084880ED000A90ED91
:1054E000000ABDEEC00A10EE102A05A10848FDF71B
:1054F000C3FCBDEC028B10BD000100200C0100209C
:1055000073657453696E676C652025640D0A00002D
:105510000010014010B52DED0E8BB0EE408A3848DA
:1055200090ED000AB1EE400ADFED360A20EE200AC7
:10553000DFED350A80EE201A11EE104A204600F009
:105540003BFE41EC1E0BB0EE4E0AF0EE6E0AFEF78B
:105550003BFEB0EE40CAF0EE60CA2C48006800F096
:105560002BFE41EC1D0B53EC1C2B00F0FBFB41EC24
:105570001A0B234890ED000AB1EE400ADFED210A34
:1055800020EE200ADFED200A80EE201A11EE104AEC
:10559000204600F011FE41EC1E0BB0EE4E0AF0EE7C
:1055A0006E0AFEF7F9FCB0EE40CAF0EE60CA184889
:1055B000006800F001FE41EC1D0B53EC1C2B00F0C9
:1055C000D1FB41EC1B0B53EC1A2B00F00BFD41EC13
:1055D000190B00F0F3F808EE900A38EE680A0D484F
:1055E00080ED000A90ED000ABDEEC00A10EE102A10
:1055F00009A10D48FDF740FCBDEC0E8B10BD00006D
:105600000C010020DB0F494000003443080100205A
:105610000401002010010020736574457272582047
:1056200025640D0A000000000010014010B52DEDAA
:105630000E8BB0EE408A384890ED000AB1EE400A79
:10564000DFED360A20EE200ADFED350A80EE201A63
:1056500011EE104A204600F0AFFD41EC1E0BB0EEFB
:105660004E0AF0EE6E0AFEF797FCB0EE40CAF0EE7E
:1056700060CA2C48006800F09FFD41EC1D0B53EC04
:105680001C2B00F06FFB41EC1A0B234890ED000A35
:10569000B1EE400ADFED210A20EE200ADFED200AFC
:1056A00080EE201A11EE104A204600F085FD41ECF4
:1056B0001E0BB0EE4E0AF0EE6E0AFEF785FDB0EE60
:1056C00040CAF0EE60CA1848006800F075FD41EC71
:1056D0001D0B53EC1C2B00F045FB41EC1B0B53EC5A
:1056E0001A2B00F09DF841EC190B00F067F808EE5A
:1056F000900A38EE680A0D4880ED000A90ED000A25
:10570000BDEEC00A10EE102A09A10D48FDF7B4FB4A
:10571000BDEC0E8B10BD00000C010020DB0F4940DA
:10572000000034430801002004010020140100207F
:10573000736574457272592025640D0A00000000DB
:10574000001001400149086070470000F801002086
:10575000014880ED000A704704010020014880EDF7
:10576000000A704708010020014880ED000A7047D8
:10577000EC010020014880ED000A7047F001002094
:10578000F1EE400AFDEEE00AF8EEE00A9FED041AA1
:1057900060EE810AFDEEE00A10EE900A704700000C
:1057A0000000804581F00041704780F00040704764
:1057B00021F00041704720F00040704721F0004286
:1057C000A2F16052B2F5801F01F0004328BFD2F170
:1057D0007F6C0BD95FEA001C43EAC20242EB5070B7
:1057E00018BF704728BF20F001007047B2F5801F36
:1057F000BCBF184670474FEA410C1CF5001F02D28F
:10580000084600F04FBD70B500F056FB000000895F
:10581000FFF7F6BF4FF00040A0F580007047000092
:1058200010B591EA030F48BF83F0004300F1E28313
:10583000841A71EB030C05D2121943EB0C03001B05
:1058400061EB0C01DFF824E14FEA1154A4EB135C87
:105850001EEA430F18BF9EEA445F73D023EA0E038B
:10586000DCF1200E21EA045143F4801332D322FAF2
:105870000CFE10EB0E0023FA0CFE41EB0E01CCF1F6
:10588000200E03FA0EFE10EB0E0051F10001B1F5EF
:10589000801FCCF1200E32D201EB045112FA0EF22D
:1058A000BDE8104058BF7047401C38BF5FEA420255
:1058B00018BF7047002814BF20F0010041F100011B
:1058C0004FEA410313F5001F38BF7047A1F1C041F3
:1058D00000F040BB012A43EB0302ACF1200CDCF1E9
:1058E0001F0E32BF4FF0000E23FA0CF310EB030033
:1058F00041EB0451B4EB115FD0D0A1EB045101F5A1
:10590000801149085FEA300001EB04510ED350F1D9
:10591000000038BF12FA0EFE08D1BDE81040C9E7FA
:10592000401C38BF5FEA4202CAD1C3E7BDE810405D
:105930004FEA410313F5001F38BF7047A1F1C04182
:1059400000F008BB9EEA445F08D011EA5E0FBDE894
:10595000104004BF01F0004100207047BDE8104036
:1059600070B500F0A9FA00BF64FBBE3E0000E0FF86
:10597000491058BFC1F140415B1058BFC3F14043CB
:105980008B42EFF3008070472DE9C04130B4DFF85F
:10599000A0C23CEA111418BF3CEA131400F0EC80DA
:1059A00081EA03051CEA111444EAD57418BF1CEA05
:1059B000131500F0C780A4EB05044FF0004545EA3D
:1059C000C12145EAC32341EA505143EA525304F14D
:1059D0007F74994204F500344FEAC0204FEAC22296
:1059E00008BF904200F09C804FEA13650FF240160A
:1059F000765D4FEA134506FB05F7C7F1807706FB96
:105A000007F74FEAD737A7FB03687642C8F5803817
:105A1000A7FB06CE38BFA8F1010807FB08E64FF048
:105A2000000EA6FB028CE6FB03CEDCF1000CCEF1EF
:105A3000004E38BFAEF1010EA6FB0C584FF0000728
:105A40004FF00005E6FB0E87A1FB08C6A0FB07CEC2
:105A500016EB0E0645F10005E1FB076515F1E04E7A
:105A60007EBFA4F580345FEA46066D4116F18007DB
:105A700045F100054FEA17274FEA066647EA056732
:105A8000A6F1DE46B6F1805F4FEA15251FD93846EC
:105A900024F0010C05EBC471BCF1FE6F01EB0C119D
:105AA00002D8F0BCBDE8008124425CBF01F5801E35
:105AB0009EEAC47F02D4F0BCBDE80081244238D401
:105AC000F0BCA1F1C041BDE8004100F043BA4FEA8B
:105AD000D22242EA43524FEAD323A7FB02864FEA7F
