:020000040800F2
:10000000204B002049020008A9320008F12800080E
:10001000A5320008490C0008195100080000000032
:10002000000000000000000000000000BD400008CB
:10003000B9240008000000005F0200086102000807
:1000400063020008630200086302000863020008FC
:1000500063020008630200086302000863020008EC
:1000600063020008630200086302000863020008DC
:1000700063020008630200086302000863020008CC
:1000800063020008630200086302000863020008BC
:100090004D0C0008630200086302000863020008B8
:1000A0006302000829430008630200086302000895
:1000B00045430008994300082544000863020008EE
:1000C000630200086302000863020008630200087C
:1000D00063020008094A0008D94A0008454B000895
:1000E000630200086302000863020008630200085C
:1000F0005D4400086302000863020008E121000873
:10010000630200086302000841440008630200081B
:1001100063020008F5470008630200086302000854
:10012000630200086302000863020008630200081B
:10013000630200086302000863020008630200080B
:10014000510D000863020008630200086302000802
:1001500063020008630200086302000863020008EB
:1001600063020008630200086302000863020008DB
:1001700063020008630200086302000863020008CB
:10018000630200086302000800F002F800F04CF877
:100190000AA090E8000C82448344AAF10107DA45E2
:1001A00001D100F041F8AFF2090EBAE80F0013F0E8
:1001B000010F18BFFB1A43F0010318475C970000BA
:1001C0007C9700000A4410F8014B14F00F0508BF9B
:1001D00010F8015B240908BF10F8014B6D1E05D013
:1001E00010F8013B6D1E01F8013BF9D1641E03D0EC
:1001F000641E01F8015BFBD19142E4D3704700001B
:100200000023002400250026103A28BF78C1FBD81F
:10021000520728BF30C148BF0B6070471FB509F0B7
:10022000ECF81FBD10B510BD00F077F81146FFF7D0
:10023000F5FF08F009F800F095F803B4FFF7F2FFB6
:1002400003BC00F099F800000948804709480047BE
:10025000FEE7FEE7FEE7FEE7FEE7FEE7FEE7FEE776
:10026000FEE7FEE704480549054A064B70470000D3
:10027000C14200088901000820050020204B002011
:10028000204700202047002010B5203AC0F00B8006
:10029000B1E81850203AA0E81850B1E81850A0E88A
:1002A0001850BFF4F5AF5FEA027C24BFB1E81850E4
:1002B000A0E8185044BF18C918C0BDE810405FEA54
:1002C000827C24BF51F8043B40F8043B08BF7047D0
:1002D000D20728BF31F8023B48BF11F8012B28BFD5
:1002E00020F8023B48BF00F8012B70477047704769
:1002F000704710B500F00CF8006810BD10B504464A
:1003000000F006F8046010BD00487047BC040020EF
:1003100000487047BC04002070477546FFF7F4FFA3
:10032000AE4605006946534620F00700854618B0E2
:1003300020B5FFF797FFBDE820404FF000064FF0D3
:1003400000074FF000084FF0000B21F00701AC460A
:10035000ACE8C009ACE8C009ACE8C009ACE8C00929
:100360008D46704710B50446AFF300802046BDE8C7
:100370001040FFF762BF000001491820ABBEFEE746
:100380002600020021B1826842F00102826003E08F
:10039000826822F001028260704700000021084A52
:1003A0001168084A1140D0E900231A4383681A43B0
:1003B000C3681A431143044AC2F80413704700008B
:1003C00004230140E030FCFF002001400146C86CDE
:1003D00080B270470246002013680B400BB1012029
:1003E00000E000207047000030B5024600200023E6
:1003F0005068104C20400D790C6844EA05242043D5
:10040000506090680C4C2040D1E903542C438D6817
:100410002C434D7944EA450420439060D06A20F48F
:1004200070000C7D641EE4B2234340EA0350D062A6
:1004300030BD0000FFFEFFFCFDF7FFC0F0B5044635
:100440000D4600200021092D11DDE068A5F10A0606
:1004500006EB4607072606FA07F18843A5F10A06C8
:1004600006EB460603FA06F10843E0600CE020695B
:1004700005EB4507072606FA07F1884305EB450615
:1004800003FA06F108432061072A0FDA606B561E53
:1004900006EB86071F2606FA07F18843561E06EB71
:1004A000860605FA06F10843606322E00D2A0FDA9A
:1004B000206BD61F06EB86071F2606FA07F1884336
:1004C000D61F06EB860605FA06F10843206310E006
:1004D000E06AA2F10D0606EB86071F2606FA07F171
:1004E0008843A2F10D0606EB860605FA06F10843DD
:1004F000E062F0BD816841F080418160704700009A
:1005000000B58DB00121042003F0D0FC01210802C8
:1005100003F0FCFC30200B9003208DF8300000200D
:100520008DF833000BA9164802F0FEF801210802ED
:1005300003F0FCFC00214FF4807003F0F7FC002076
:1005400007900A9009904FF48030089007A8FFF7B1
:1005500025FF002001908DF808008DF80900039018
:100560000490059001208DF8180001A90548FFF7B7
:100570003BFF01210348FFF705FF0DB000BD000060
:10058000000802400020014010B52DED028BB0EEB6
:10059000408AF0EE608AF0EE680AB0EE480A06F093
:1005A00029FF164880ED130AD0ED130AB0EE600A59
:1005B00000F02CF8DFED120A30EE200ABDEEC00A82
:1005C00010EE104A224601210E4804F0E1FD0B48CE
:1005D000D0ED130AB0EE600A00F018F8DFED0A0A59
:1005E00030EE200ABDEEC00A10EE104A224602216B
:1005F000044804F0CDFDBDEC028B10BD7C0300204F
:1006000000409CC50068004000409C45F0EE400A58
:100610000E4890ED000A20EE200A0D4890ED001AD9
:10062000B8EEC11A30EEC11A0A48D0ED001A01EE38
:10063000810A094880ED000ABDEEE00A044880ED19
:10064000000A054890ED000A7047000050020020A3
:100650004C020020540200205802002000B52DED6D
:10066000028BA9B0B0EE408AF0EE608AA048006824
:1006700040B94FF4FA609F49086040F2AA509E4981
:1006800008600BE09A480068012807D14FF4FA701F
:10069000984908604FF4617097490860142297499F
:1006A00024A8FFF7F1FD93480068C0F5166000EE3E
:1006B000100AB8EEC00A8DED280A14228F491431B1
:1006C0001FA8FFF7E1FD8C4890ED000AB8EEC00AC4
:1006D0008DED210A1422894928311AA8FFF7D4FD8B
:1006E00084480068C0F5166000EE100AB8EEC00A33
:1006F0008DED1C0A142281493C3115A8FFF7C4FD79
:100700007D480068C0F5965000EE100AB8EEC00AA9
:100710008DED190A14227949503110A8FFF7B4FD64
:1007200074480068A0F5166000EE100AB8EEC00A22
:100730008DED140A1422714964310BA8FFF7A4FD52
:100740006D480068C0F5965000EE100AB8EEC00A79
:100750008DED0D0A14226949783106A8FFF794FD42
:1007600064480068A0F5166000EE100AB8EEC00AF2
:100770008DED080A142261498C3101A8FFF784FD30
:100780005D4890ED000AB8EEC00A8DED050A5C48A0
:10079000406F5C4908601FAA24A90520F0EE680A92
:1007A000B0EE480A01F064FB012803D1002154484F
:1007B00041672BE015AA1AA90520F0EE680AB0EEF1
:1007C000480A01F055FB012803D101214C4841673B
:1007D0001CE00BAA10A90520F0EE680AB0EE480A4A
:1007E00001F046FB012803D10221454841670DE095
:1007F00001AA06A90520F0EE680AB0EE480A01F049
:1008000037FB012802D103213D4841673C48406F36
:100810003C490968884204D03B480068401C3A497A
:1008200008603A48006801283ED19FED390AB4EECD
:10083000C08AF1EE10FA18DD9FED360AB4EEC08AD8
:10084000F1EE10FA11D29FED330AF4EEC08AF1EE08
:1008500010FA0ADD9FED300AF4EEC08AF1EE10FACC
:1008600003D20020224908601EE09FED290AB4EE61
:10087000C08AF1EE10FA14D39FED260AB4EEC08AB6
:10088000F1EE10FA0DDC9FED230AF4EEC08AF1EED2
:1008900010FA06D39FED200AF4EEC08AF1EE10FAAA
:1008A00002DD0120124908601748006805280FDBA7
:1008B0000F48006808B9012000E000200C490860DA
:1008C00001201149086015480068401C1349086060
:1008D00012480068022807DB0020104908600A4916
:1008E000086018200649087029B0BDEC028B00BDD5
:1008F00080000020A4000020A8000020009500082F
:100900007C030020A00000207C000020AC00002020
:100910000000AFC40000AF4400C07345B000002029
:1009200010B52DED028BB0EE408A2E4890ED0F0AE7
:10093000B0EE408A2C4890ED000ADFED2C0AB4EEB0
:10094000E00AF1EE10FA20DD90ED000ADFED280A52
:10095000B4EEE00AF1EE10FA17D2264890ED000A44
:10096000DFED250AB4EEE00AF1EE10FA0DDD90EDB0
:10097000000ADFED220AB4EEE00AF1EE10FA04D22A
:10098000B0EE480A00F03CF829E0174890ED000A64
:10099000DFED160AB4EEE00AF1EE10FA1BD390ED8B
:1009A000000ADFED130AB4EEE00AF1EE10FA12DCF1
:1009B000104890ED000ADFED100AB4EEE00AF1EE07
:1009C00010FA08D390ED000ADFED0C0AB4EEE00A4D
:1009D000F1EE10FA03DDB0EE480A00F0A3F8BDEC2A
:1009E000028B10BD7C0300203C0000200000AFC43F
:1009F0000000AF44400000200000614400C0734587
:100A000010B52DED068BB0EE408A3B48006848B922
:100A10009FED3A0A38EE400A394880ED000A01207D
:100A200035490860F0EE480A354890ED000A06F0B6
:100A3000E1FC344880ED000A33480068401C32492C
:100A400008600846006896280BDA304A01213048D1
:100A500004F09EFB41F2DB7202212D4804F098FB6A
:100A600047E029480068962843DB264890ED000AB5
:100A7000FFF7CCFDBDEEC00A10EE104A2246012160
:100A8000234804F085FB1F4890ED000AFFF7BEFDE8
:100A9000BDEEC00A10EE104A224602211C4804F0A6
:100AA00077FB1848006808F037FC41EC1A0BB0EEF1
:100AB0004A0AF0EE6A0A04F0FBFFB0EE409AF0EE4C
:100AC000609A9FED140B53EC102B51EC190B08F0AE
:100AD000F1F80ED2114800681149C1F8B4000020A5
:100AE00005490860084908600C49086019200C494C
:100AF0000870BDEC068B10BD4C0000200000344295
:100B000044000020480000205000002025E8FFFF9E
:100B10000068004000000000000014403800002081
:100B20007C03002010B52DED068BB0EE408A3B48CB
:100B3000006848B99FED3A0A38EE000A394880ED5E
:100B4000000A012035490860F0EE480A354890ED6A
:100B5000000A06F04FFC344880ED000A3348006874
:100B6000401C324908600846006896280BDA304A73
:100B70000121304804F00CFB41F2DB7202212D48C8
:100B800004F006FB47E029480068962843DB264826
:100B900090ED000AFFF73AFDBDEEC00A10EE104AD4
:100BA00022460121234804F0F3FA1F4890ED000A81
:100BB000FFF72CFDBDEEC00A10EE104A22460221BE
:100BC0001C4804F0E5FA1848006808F0A5FB41EC61
:100BD0001A0BB0EE4A0AF0EE6A0A04F069FFB0EEB2
:100BE000409AF0EE609A9FED140B53EC102B51ECF1
:100BF000190B08F05FF80ED2114800681149C1F8CE
:100C0000B400002005490860084908600C490860E4
:100C100019200C490870BDEC068B10BD5C0000204B
:100C200000003442540000205800002060000020E2
:100C300025E8FFFF006800400000000000001440AD
:100C4000380000207C03002000BFFEE710B53448C8
:100C50000378344A3449354800F096FC344800683B
:100C6000401C3349086030480068302803D12D49C2
:100C7000087807F0ABFB2C48006840F287218842D7
:100C80000DD12848006845F65001884207D1254813
:100C900090ED010AB8EEC00A264880ED040A224809
:100CA0000068B0F5227F0DD11E48006845F6560158
:100CB000884207D11B4890ED010AB8EEC00A1D48D2
:100CC00080ED2B0A1C49194800F0B0F81A49491C5C
:100CD000164800F0ABF81849C91C144800F0A6F8F3
:100CE0001649124800F0A2F81549104800F09EF885
:100CF00014490E4800F09AF8124908310B4800F0E8
:100D000095F81149094800F091F81049074800F09A
:100D10008DF80E490831054800F088F810BD000034
:100D2000DC020020D4020020E00200200064004029
:100D3000A80200207C0300200100F0107000F030B9
:100D40000300001208000032030000140800003401
:100D50001CB52C4803786A462B492C4800F014FC3B
:100D60002948006840F2822188420BD145F656019D
:100D70000098884206D19DED010AB8EEC00A2448C9
:100D800080ED090A2048006840F2812188420BD199
:100D900045F656010098884206D19DED010AB8EE4D
:100DA000C00A1B4880ED0D0A1A49184800F03EF8A9
:100DB0001849491C154800F039F81649C91C134850
:100DC00000F034F81449114800F030F813490F4886
:100DD00000F02CF812490D4800F028F810490831AD
:100DE0000A4800F023F80F49084800F01FF80E49A0
:100DF000064800F01BF80C490831044800F016F8CA
:100E00001CBD0000E8020020E40200200068004051
:100E10007C0300200100F0107000F030030000128D
:100E200008000032030000140800003400220C4BBC
:100E3000994202D10023836111E0C1F3130201F052
:100E400000730BB1C2600AE001F080630BB1026174
:100E500005E001F000630BB1826000E04260704782
:100E60007000F0302DE9F04F8BB006460F46144667
:100E70001D46DDF850804FF00009CA46CB46B5F557
:100E8000807F43D012DC102D34D008DC012D25D01A
:100E9000022D26D0042D27D0082D4FD127E0202D5C
:100EA0002BD0402D2CD0802D48D12CE0B5F5805F83
:100EB00038D009DCB5F5007F2BD0B5F5806F2BD08D
:100EC000B5F5006F3AD12AE0B5F5005F2DD0B5F544
:100ED000804F2DD0B5F5004F30D12CE04FF00009F8
:100EE0002DE04FF001092AE04FF0020927E04FF012
:100EF000030924E04FF0040921E04FF005091EE04A
:100F00004FF006091BE04FF0070918E04FF0080901
:100F100015E04FF0090912E04FF00A090FE04FF019
:100F20000B090CE04FF00C0909E04FF00D0906E049
:100F30004FF00E0903E04FF00F0900E000BF00BFC3
:100F4000B8F5807F4BD01ADCB8F1100F3BD00CDC29
:100F5000B8F1010F2BD0B8F1020F2BD0B8F1040F6C
:100F60002BD0B8F1080F52D12AE0B8F1200F2DD0C4
:100F7000B8F1400F2DD0B8F1800F48D12CE0B8F572
:100F8000805F38D009DCB8F5007F2BD0B8F5806FD2
:100F90002BD0B8F5006F3AD12AE0B8F5005F2DD01C
:100FA000B8F5804F2DD0B8F5004F30D12CE04FF080
:100FB000000A2DE04FF0010A2AE04FF0020A27E074
:100FC0004FF0030A24E04FF0040A21E04FF0050A35
:100FD0001EE04FF0060A1BE04FF0070A18E04FF042
:100FE000080A15E04FF0090A12E04FF00A0A0FE074
:100FF0004FF00B0A0CE04FF00C0A09E04FF00D0A1D
:1010000006E04FF00E0A03E04FF00F0A00E000BFC9
:1010100000BF7F48304418B1B0F5806F1AD10CE0A2
:101020004FF0090B00208DF8120014208DF80400F9
:101030000121480602F04AFF0DE04FF0090B0E2097
:101040008DF8120040208DF804000121000502F007
:101050003DFF00E000BF00BFC4F3090078BBA01251
:10106000A0F580108038092834D2DFE800F0050AA6
:101070000F14191E23292E000121084602F016FF25
:1010800029E00121022002F011FF24E001210420C7
:1010900002F00CFF1FE00121082002F007FF1AE018
:1010A0000121102002F002FF15E00121202002F0B2
:1010B000FDFE10E00121402002F0F8FE0BE009E007
:1010C0000121802002F0F2FE05E00121080202F079
:1010D000EDFE00E000BF00BF5A464946204601F041
:1010E0006BFB5A465146204601F066FB45EA080074
:1010F000099002208DF828008DF8290000208DF835
:101100002A0001208DF82B0009A9204601F00CFBD4
:10111000304600F07FF800208DF81E008DF81F008B
:101120008DF820008DF821008DF822008DF8230025
:101130008DF81A008DF81B000B208DF81C0007207D
:101140008DF81D007D2F22D008DC0A2F0FD0142F20
:1011500011D0322F13D0642F29D114E0FA2F1AD0D6
:10116000B7F5FA7F1BD0B7F57A7F20D11BE0C820F6
:10117000ADF818001CE06420ADF8180018E0282035
:10118000ADF8180014E01420ADF8180010E010209D
:10119000ADF818000CE00820ADF8180008E00420B5
:1011A000ADF8180004E00220ADF8180000E000BF20
:1011B00000BF06A9304600F0D6F800208DF81300D5
:1011C00001208DF814000020ADF80800ADF80A00E9
:1011D000ADF80C00ADF80E00ADF8100001208DF850
:1011E000150002A800F032F800208DF80500032059
:1011F0008DF8060001208DF8070001A802F056F8CE
:1012000001220221304600F0A5F80BB0BDE8F08FB6
:10121000009CFFBF10B504460B48844209D1012150
:10122000480602F063FE00214FF0007002F05EFEFF
:1012300008E00121880602F059FE00214FF080608D
:1012400002F054FE10BD00000064004010B5002103
:10125000837A012202FA03F13D4A126842F0010248
:101260003B4B1A603A4A1C3212688A43384B1C3393
:101270001A60027BCAB9364A0C3212688A43344B70
:101280000C331A604288C38842EA0343304A403232
:10129000847A42F834300288838842EA03432C4A35
:1012A0004032847A02EBC4025360027B012A19D1D6
:1012B000274A0C3212680A43254B0C331A604288C5
:1012C000038842EA0343224A4032847A42F83430A7
:1012D000C288838842EA03431D4A4032847A02EB83
:1012E000C4025360C27A3AB9194A121D12688A437D
:1012F000174B1B1D1A6006E0154A121D12680A439F
:10130000134B1B1D1A60028932B9114A143212683C
:101310008A430F4B14331A600289012A06D10C4A02
:10132000143212680A430A4B14331A60427B012AB2
:1013300006D1074A1C3212680A43054B1C331A6057
:10134000034A126822F00102014B1A6010BD00002E
:10135000006600401AB143690B43436102E04369F0
:101360008B434361704730B5024600200023146868
:1013700024F002041460146844F00104146000E0D6
:101380005B1C546804F001041CB94FF6FF74A342BF
:10139000F6D1546804F001040CB900206CE08C799B
:1013A000012C04D1146844F08004146003E0146834
:1013B00024F080041460CC79012C04D1146844F02A
:1013C0004004146003E0146824F0400414600C7AB4
:1013D000012C04D1146844F02004146003E0146864
:1013E00024F0200414604C7A012C04D1146844F0D9
:1013F0001004146003E0146824F0100414608C7A64
:10140000012C04D1146844F00804146003E014684B
:1014100024F008041460CC7A012C04D1146844F040
:101420000404146003E0146824F0040414608C784D
:10143000A407CD7844EA05640D7944EA05444D7962
:1014400044EA05540D886D1E2C43D461146824F0C1
:1014500001041460002300E05B1C546804F00104E4
:101460001CB14FF6FF74A342F6D1546804F0010496
:101470000CB1002000E0012030BD0246002019B967
:10148000D36803F0030006E0012903D1136903F0D8
:10149000030000E00020704710B500F5D87303EB9F
:1014A00001131B6803F004031372137A53B900F598
:1014B000D87303EB01131B6840F2FF7404EA535323
:1014C000136009E000F5D87303EB01131B686FF09C
:1014D000604404EAD303536000F5D87303EB0113AF
:1014E0001B6803F00203537200F5D87303EB01137A
:1014F0005B6803F00F03937200F5D87303EB0113DD
:101500005B681B0AD37400F5D87303EB01139B6867
:10151000D37200F5D87303EB01139B681C0A147394
:1015200000F5D87303EB01139B681C0C547300F592
:10153000D87303EB01139B681B0E937300F5D873EC
:1015400003EB0113DB68D37300F5D87303EB0113CE
:10155000DB681C0A147400F5D87303EB0113DB6815
:101560001C0C547400F5D87303EB0113DB681B0EDD
:10157000937421B9C36843F02003C36003E0036997
:1015800043F02003036110BD2DE9F04186B0804691
:101590000D4616461F46002400214046FFF76DFF0A
:1015A00018B9002006B0BDE8F08101AA002140462C
:1015B000FFF772FF002405E00DF10F00005D3055CC
:1015C000601CC4B2BC42F7DB019828600120E9E747
:1015D00010B502460020936803F08063B3F1806F7A
:1015E00000D110E0936803F00063B3F1006F01D104
:1015F000012008E0936803F08053B3F1805F01D1CC
:10160000022000E00420042874D002F5C07303EB2C
:1016100000131B6803F0010402F5C07303EB001311
:101620001C600B7A7BB94B7A0C8843EA445302F571
:10163000C07404EB00142468234302F5C07404EB67
:101640000014236010E00B7A4C6843EAC4034C7A20
:10165000234302F5C07404EB00142468234302F50D
:10166000C07404EB001423608B7A03F00F038B72B9
:1016700002F5C07303EB00135B6823F00F0402F55F
:10168000C07303EB00135C6002F5C07303EB00133F
:101690005B688C7A234302F5C07404EB001463602A
:1016A0008B7B1C064B7B44EA03440B7B44EA0323FD
:1016B000CC7A234302F5C07404EB0014A3608B7C46
:1016C0001C064B7C44EA03440B7C44EA0323CC7B9A
:1016D000234302F5C07404EB0014E36002F5C07309
:1016E00003EB00131B6843F0010402F5C07303EB26
:1016F00000131C6010BD000010B50246002321B18C
:10170000012907D002290FD109E090681D4C00EA99
:1017100004030BE090681C4C00EA040306E09068A8
:101720001A4C00EA040301E0002300BF00BF184C7C
:10173000181BA34216D007DC83B16FF080601844F9
:1017400070B1022818D111E0B0F5007F10D0114C13
:10175000204448B1B0F5003F0ED10BE002230DE06C
:1017600000230BE0002309E0002307E0012305E04C
:10177000012303E0012301E0002300BF00BFD8B232
:1017800010BD000003000004000300080000031067
:10179000000100080001FFF72DE9F04385B0814604
:1017A0000D4690461E4600240095019500208DF8B8
:1017B00008008DF809008DF80A6000BF06E018F8EF
:1017C00004100DF10B000155601C84B2B442F6DB2D
:1017D00069464846FFF7FCFE0746002400BF39462D
:1017E0004846FFF789FF0128F9D105B0BDE8F0832D
:1017F00010B52DED028BFE4890ED100AFD4880EDEE
:10180000000AFB4890ED110AFB4880ED000AF848F9
:1018100090ED0F0AF94880ED000AF748D0ED000A74
:10182000F44890ED000AFEF719FFF148406F0828D0
:101830007DD2DFE800F00483FDFC7C7C7CFBF0487B
:10184000006800EB4001C1EBC01040F24C41A1EB3D
:10185000800000EE100AB8EEC00AE748D0ED000A9A
:1018600030EEC00AE74880ED000A9FEDE70AE7483E
:1018700080ED000AE148D0ED000AE44890ED000A4E
:1018800005F0B8FDE24880ED000ADE4890ED000A60
:1018900006F03EFDDE48D0ED000A30EEC00AB0EEA4
:1018A000408AFEF7B3FEDB48D0ED000AF8EEE00A0E
:1018B00030EE200ABDEEC00A10EE104A2246012189
:1018C000D54803F065FCCF4890ED000A06F020FDF6
:1018D000CF48D0ED000A30EEC00AB0EE408AFEF7E5
:1018E00095FECC480068404200EE900AF8EEE00A0F
:1018F00030EE200ABDEEC00A10EE104A2246022148
:10190000C54803F045FCBF4890ED000A06F000FD15
:10191000BF48D0ED000A30EEC00AB0EE408AFEF7B4
:1019200075FEBC48D0ED000AF8EEE00A00E0A3E145
:1019300030EE200AAE4880ED0B0A9EE1B048006808
:10194000C0EB801101EB402040F2523101EB40002E
:1019500000EE100AB8EEC00AA648D0ED000A30EE3C
:10196000C00AA84880ED000A9FEDAC0AA74880EDA8
:10197000000AA248D0ED000AA44890ED000A05F044
:1019800039FDA34880ED000A9E4890ED000A06F05C
:10199000BFFC9F48D0ED000A30EE200AB0EE408A2E
:1019A000FEF734FE9B48D0ED000AF8EEE00A30EE78
:1019B000200ABDEEC00A10EE104A224601219648C8
:1019C00003F0E6FB8F4890ED000A06F0A1FC90487A
:1019D000D0ED000A30EE200AB0EE408AFEF716FE87
:1019E0008C480068404200EE900AF8EEE00A30EEC3
:1019F000200ABDEEC00A10EE104A22460221864897
:101A000003F0C6FB7F4890ED000A06F081FC804899
:101A1000D0ED000A30EE200AB0EE408AFEF7F6FD67
:101A20007C48D0ED000AF8EEE00A02E01EE183E017
:101A300005E030EE200A6E4880ED0B0A1DE170488B
:101A4000006800EB4001C1EBC01040F6746101EB8F
:101A5000800000EE100AB8EEC00A6748D0ED000A18
:101A600030EEC00A674880ED000A9FED6D0A6748B6
:101A700080ED000A6148D0ED000A644890ED000A4C
:101A800005F0B8FC624880ED000A5E4890ED000A5F
:101A900006F03EFC5E48D0ED000A30EE200AB0EEC3
:101AA000408AFEF7B3FD5B48D0ED000AF8EEE00A8D
:101AB00030EE200ABDEEC00A10EE104A2246012187
:101AC000554803F065FB4F4890ED000A06F020FCF6
:101AD0004F48D0ED000A30EE200AB0EE408AFEF703
:101AE00095FD4C480068404200EE900AF8EEE00A8E
:101AF00030EE200ABDEEC00A10EE104A2246022146
:101B0000454803F045FB3F4890ED000A05F046FDCF
:101B10003F48D0ED000A30EE200AB0EE408AFEF7D2
:101B200075FD3C48D0ED000AF8EEE00A30EE200AE0
:101B30002F4880ED0B0AA0E031480068C0EB80110F
:101B400001EB402040F2523101EB400000EE100A60
:101B5000B8EEC00A2748D0ED000A30EE200A294826
:101B600080ED000A9FED2F0A284880ED000A2348E7
:101B7000D0ED000A254890ED000A05F03BFC244812
:101B800080ED000A1F4890ED000A06F0C1FB2048D6
:101B9000D0ED000A30EEC00AB0EE408AFEF736FD06
:101BA0001C48D0ED000AF8EEE00A30EE200ABDEE47
:101BB000C00A10EE104A22460121174803F0E8FA45
:101BC000104890ED000A06F0A3FB1148D0ED000A82
:101BD00030EEC00AB0EE408AFEF718FD0D480068EE
:101BE000404200EE900AF8EEE00A30EE200A1BE0D8
:101BF0007C030020880000208C0000209000002042
:101C0000800000209C0000200000B4C2940000204E
:101C100098000020840000200068004000000000C0
:101C20000000B44200003443BDEEC00A10EE104A7A
:101C300022460221424803F0ABFA424890ED000AE6
:101C400005F0ACFC4048D0ED000A30EEC00AB0EE22
:101C5000408AFEF7DBFC3D48D0ED000AF8EEE00AD2
:101C600030EE200A3A4880ED0B0A06E0394890ED44
:101C7000000AFEF755FE00E000BF00BF344890EDBB
:101C8000100ABDEEC00A10EE102A33A1334803F04B
:101C9000A5F92F4890ED110ABDEEC00A10EE102AEA
:101CA0002DA12E4803F09AF92D482BA102682B484C
:101CB00003F094F92B4828A10268284803F08EF914
:101CC000244890ED000ABDEEC00A10EE102A22A1B1
:101CD000224803F083F91C4890ED000ABDEEC00ACB
:101CE00010EE102A1CA11D4803F078F9154890ED5C
:101CF000000ABDEEC00A10EE102A17A1174803F023
:101D00006DF9134890ED0D0ABDEEC00A10EE102AD1
:101D100011A1124803F062F90D4890ED0B0ABDEED7
:101D2000C00A10EE102A0CA10C4803F057F908481D
:101D30000DA1426F094803F051F9BDEC028B10BDB3
:101D4000006800409C0000209800002084000020D3
:101D50007C03002090000020256409000050004012
:101D60007C000020800000202564090D0A0000008E
:101D700010B588B004460121082002F097F801212F
:101D8000480402F0A3F807220521244800F014FDBE
:101D900007220621214800F00FFD60200690022056
:101DA0008DF81C008DF81D0000208DF81E0001200C
:101DB0008DF81F0006A9194800F0B6FC0294002017
:101DC000ADF80C00ADF80E00ADF81000ADF8140041
:101DD0000C20ADF8120002A9114803F095F840213B
:101DE0000F4802F0ADFF26208DF8040000208DF88A
:101DF000050002208DF8060001208DF8070001A8DB
:101E000001F054FA012240F22551054803F057F839
:101E10000121034802F0ACFF08B010BD000C0240E5
:101E20000044004010B504210F4800F0E8FC0128F0
:101E30000BD101210C4800F0E2FC012805D10B4830
:101E40000068401C0949086002E00020074908605A
:101E500006480068822804DD00200449086001204B
:101E600010BD0020FCE70000000802400C0000202C
:101E7000F0B5044600250020631E49E002EB800611
:101E800096ED001AB4EEE01AF1EE10FA01DD01262B
:101E900000E0002602EB830797ED001AB4EEE01A8B
:101EA000F1EE10FA01DD012700E00027BE422DD03F
:101EB00001EB830696ED001A01EB8006D6ED001AC1
:101EC00031EE611A02EB8006D6ED001A70EEE11ACF
:101ED00021EE211A02EB8306D6ED001A02EB8006F2
:101EE00096ED002A71EEC21A81EE212A01EB8006DE
:101EF00096ED001A32EE011AB4EEC01AF1EE10FAA5
:101F000004DD0DB9012600E0002635460346401CDD
:101F1000A042B3DB2846F0BD10B52DED048B3A4846
:101F2000D0F8B4003949086006F050F93648D0EDD1
:101F3000100A30EEC00A364880ED000A06F04CF96F
:101F40003148D0ED110A30EEC00A324880ED000A67
:101F50002F48006807F0E0F941EC190BB0EE490A90
:101F6000F0EE690A03F0A4FDB0EE408AF0EE608A5C
:101F70009FED290B53EC102B51EC180B06F09AFE39
:101F800026D22448006807F0C7F941EC190BB0EEDF
:101F9000490AF0EE690A03F08BFDB0EE408AF0EEDC
:101FA000608A9FED1D0B53EC102B51EC180B06F0C3
:101FB00081FE0DD2144890ED080AB5EEC00AF1EE8C
:101FC00010FA05D016480068401C1549086002E068
:101FD00000201349086012480068822810DD06F0CE
:101FE000F5F8104880ED000A06F0F6F80E4880ED8E
:101FF000000A07200449C1F8B4000020084908601D
:10200000BDEC048B10BD00007C03002038000020D4
:10201000680000206C000020000000000000F03F7D
:10202000640000203C0000204000002010B51C4847
:10203000D0F8B4001B490860194890ED0D0AD0EDA6
:102040000B0A9FED191A60EE810AB4EEE00AF1EE78
:1020500010FA05D815480068401C1449086002E0D1
:10206000002012490860114800680A2811DD06F0B6
:10207000ADF80F4880ED000A06F0AEF80D4880ED8F
:10208000000A0020094908600549C1F884002020A1
:102090000870064808A10268094802F09FFF10BDB9
:1020A0007C030020380000209A99993E7800002097
:1020B0003C0000204000002025640D0A00000000C4
:1020C00000500040F0EE400A0E4890ED000A20EE6D
:1020D000200A0D4890ED001AB8EEC11A30EEC11A70
:1020E0000A48D0ED001A01EE810A094880ED000A85
:1020F000BDEEE00A044880ED000A054890ED000AB4
:102100007047000064010020600100206801002089
:102110006C01002010B52DED028BB0EE408AB0EEC0
:10212000480A00F00FF8BDEEC00A10EE104A224631
:102130000821034803F02CF8BDEC028B10BD000011
:1021400000640040F0EE400A9FED020A20EE800A93
:102150007047000000008045024600EE102AB8EEED
:10216000C00ADFED1C0AB4EEE00AF1EE10FA0ADC58
:1021700000EE102AB8EEC00ADFED170AB4EEE00A4E
:10218000F1EE10FA03D20020144B186002E0012097
:10219000124B186000EE101AB8EEC00ADFED0D0AFF
:1021A000B4EEE00AF1EE10FA0ADC00EE101AB8EE16
:1021B000C00ADFED090AB4EEE00AF1EE10FA03D22C
:1021C0000020064B186002E00120044B1860034811
:1021D0000068704700A8874500808E433C010020BE
:1021E00010B50749074800F0EBF838B10021054861
:1021F00000F024F80249034800F006F810BD000082
:1022000000800028B86002400246094B9A4201D281
:10221000084801E00648103801F000531BB1064B96
:102220000B40C36002E0044B0B408360704700002A
:1022300010640240006002407D0F7D0F21B10268F2
:1022400042F00102026003E0026822F00102026033
:1022500070470000016821F0010101600021016068
:1022600041608160C1600161212141614A49884228
:1022700004D13D21484A103A91608CE0464918311A
:10228000884205D14FF47461434A103A916082E06C
:1022900041493031884205D14FF474113E4A103A19
:1022A000916078E03C494831884205D14FF0746133
:1022B000394A103A91606EE037496031884204D162
:1022C0003649354A103AD16065E033497831884261
:1022D00004D13349304A103AD1605CE02E49903144
:1022E000884204D12F492C4A103AD16053E02A4940
:1022F000A831884205D14FF03D51274A103AD160AC
:1023000049E02949884204D13D21274A083A116011
:1023100041E025491831884205D14FF47461224AC1
:10232000083A116037E020493031884205D14FF436
:1023300074111D4A083A11602DE01B49483188424A
:1023400005D14FF07461184A083A116023E016492C
:102350006031884204D11149134A121F11601AE0FA
:1023600011497831884204D10D490F4A121F11607A
:1023700011E00D499031884204D10A490A4A121FDE
:10238000116008E00849A831884204D14FF03D515E
:10239000054A121F11607047106002403D00002086
:1023A000400F002000003D20106402400146002044
:1023B0000A6802F001020AB1012000E00020704723
:1023C00070B50246002000240025124EB24201D210
:1023D000114B01E00F4B103B104E0E4036B11E2644
:1023E00006EAD124166806EA040502E0566906F0FA
:1023F000800501F000560EB15C6800E01C68084ED4
:10240000344004EA010616B10DB1012000E00020BD
:1024100070BD000010640240006002403C0F3C0FA1
:102420007D0F7D0F10B501F080034BB122B14369E0
:1024300043F08003436103E0436923F08003436179
:1024400080290BD02AB1036801F01E0423430360E6
:1024500004E0036801F01E04A343036010BD000004
:1024600010B500220268134B1A40CC680B68234356
:102470004C6923438C692343CC6923430C6A23436F
:102480004C6A23438C6A23434C6B23438C6B23435A
:102490001A430260426922F00702D1E90B34234358
:1024A0001A4342610B6943604B6883608B68C36069
:1024B00010BD00003F801CF0704700B5034604E0EB
:1024C0004FF47A7000F004F85B1E002BF8D100BDC9
:1024D000A82141434FF0E02251610521116100BF65
:1024E0004FF0E021096901F480310029F8D004217E
:1024F0004FF0E0221161704710B52DED028B0020E6
:1025000008EE100A05F0E0FC1C48D0ED0F0A30EE92
:10251000200ABDEEC00AF0EE408A90ED0F0AF0EE00
:10252000400AB8EEE80A04F065FFBDEEC00AB0EE5E
:10253000408AB8EEC80AFEF769F8DFED110A30EEFE
:10254000200ABDEEC00A10EE104A224601210D48B5
:1025500002F01EFEB8EEC80AFEF758F8DFED0A0AD0
:1025600030EE200ABDEEC00A10EE104A22460221CB
:10257000044802F00DFEBDEC028B10BD7C03002070
:1025800000C0DA450068004000C0DAC57CB505F03F
:10259000C5FC044605F0ECFC054600205949C1F88D
:1025A000840029462046FFF7D7FD57490860574861
:1025B000007800F0010088B105F0D2FB54490860B2
:1025C0005248006820F001005049086050480068F7
:1025D00005F084FC4F4880ED000A7AE04B48007813
:1025E00000F0020000284ED04848007800F00800B3
:1025F00000286ED0434890ED0F0AF0EE400A45489F
:1026000090ED000AFDF7C0FFFFF70CFC002860D03A
:1026100000220121404802F0BBFD002202213E4879
:1026200002F0B6FD3848006850B13948006805F03E
:102630005FF901203949086000203449086048E00A
:102640003348006805F036FB35480068401C3449C3
:10265000086000203149086031480068022804DB26
:102660000120086000202E490860002027490860EA
:102670000846006840F0010008600846006840F025
:102680000400086025E02148007800F0040000B351
:102690001F48006800F0ECF88DED000ACDED010A4E
:1026A0009DED011AF0EE410A9DED001AB0EE410ACF
:1026B00001F042F801280CD10020144908600846B6
:1026C000006840F0020008600846006840F008001A
:1026D000086012480068012812D10A48007820F0EA
:1026E0001000084908700B200849086000200B49B9
:1026F00008600B4908600B49086048608860C86042
:102700007CBD00007C030020580100203001002027
:102710005001002054010020006800402C010020DE
:102720004C01002034040020F0B50A4600210023AB
:10273000002400BF3DE0012505FA01F3156805EA14
:1027400003049C4234D105684F000326BE40B543C4
:10275000056015794E00B54006683543056015796A
:10276000012D02D01579022D16D185684F00032660
:10277000BE40B543856055794E00B5408668354307
:102780008560456801268E40B54345604568967969
:102790008E40B6B235434560C5684F000326BE4043
:1027A000B543C560D5794E00B540C6683543C560B0
:1027B000491C1029BFD3F0BDF0B5002300244D07FC
:1027C000ED0E02FA05F3CE1000F1200555F8265063
:1027D0004E07F70E0F26BE40B543CF1000F120067E
:1027E00046F82750CE1000F1200555F8265045EA4E
:1027F0000304CE1000F1200545F82640F0BD024646
:10280000002013690B400BB1012000E0002070474D
:10281000418370470183704710B5044607230122A6
:1028200021460848FDF70AFE0648FDF763FE00BF93
:1028300002210448FDF7CEFD0028F9D00148FDF73C
:10284000C5FD10BD002001402DE9F04107460C46B2
:102850000025002605E03846FFF7DEFF0544701C22
:10286000C6B2A642F7DBB5FBF4F080B2BDE8F0815A
:102870000CB530B101280DD0022814D0032824D182
:102880001AE09FED150A8DED000A9FED140A8DEDFB
:10289000010A1AE09FED120A8DED000A9FED0F0A62
:1028A0008DED010A11E09FED0F0A8DED000A9FEDFD
:1028B0000E0A8DED010A08E09FED0A0A8DED000A6F
:1028C0009FED0A0A8DED010A00BF00BF9DED000AD1
:1028D000DDED010A0CBD00000000E1C4000016455A
:1028E0000000E14400000000004083450000164461
:1028F00000BFFEE708B50020034653226321009085
:102900004FF0804001F0E2FD0120002340F2473209
:1029100040F2E7310090164801F0D8FD4FF4007006
:102920004310144A4FF4FA7100901348FEF79AFAD4
:10293000402020230F4A4FF4FA7100900F48FEF711
:1029400091FAFDF7DDFD01F0E5FE01F077FA4FF4B5
:10295000E13001F059FC4FF4E130FFF709FA4FF490
:10296000E13001F00FFA4FF4E13001F0EDFE08BD67
:102970000004004000040240006400400068004081
:1029800010B55F485FA1426D604802F027FB5C48CC
:1029900090ED0D0ADFED5E0AB4EEE00AF1EE10FAFA
:1029A00003DD01205649C1F884005548406D0828D0
:1029B00071D2DFE800F0040F1A2632485C71012161
:1029C00000209FED541ADFED540A9FED540A00F0E9
:1029D0001DFA93E0012108469FED511ADFED4E0AE2
:1029E0009FED500A00F012FA88E04FF0FF3100200E
:1029F0009FED4D1ADFED4D0A9FED4A0A00F006FAF1
:102A00007CE04FF0FF3101209FED491ADFED470ACE
:102A10009FED420A00F0FAF970E0394890ED100A93
:102A2000DFED440AB4EEE00AF1EE10FA0ADD90EDB3
:102A3000100ADFED410AB4EEE00AF1EE10FA01D21D
:102A4000052141655AE004F015FD2D49496D014409
:102A50002B484165DFED391A9FED2E1ADFED380A5C
:102A60009FED380A00F068FCFFF756FA46E004F0E4
:102A700001FD2349496D014421484165DFED2F1ACD
:102A80009FED241ADFED300A9FED2E0A00F054FC72
:102A9000FFF742FA32E030E0194890ED110ADFED1D
:102AA0001C0AB4EEE00AF1EE10FA19DD90ED110AFD
:102AB000DFED260AB4EEE00AF1EE10FA10D290ED46
:102AC000100ADFED230AB4EEE00AF1EE10FA07DD9A
:102AD000007820F001000A4908700021084841658B
:102AE000DFED161A9FED0B1ADFED180A9FED150AA0
:102AF00000F022FCFFF710FA00E000BF00BF10BD9D
:102B00007C0300207475726E3A256400005000400A
:102B10000000FA4400000000008054450000164404
:102B20000000B442000016C4000034430000AF446B
:102B30000000B4C200004843000096430000164560
:102B4000008089440000E1440000C844004003457F
:102B50000080ED4410B52DED0E8BF0EE408AB0EE06
:102B6000608AB0EE419A044605F0A8F90446642C48
:102B70000AD19FED8B0A8B4880ED000A9FED8A0AEF
:102B80008A4880ED000A0BE0012C09D19FED880AEC
:102B9000844880ED000A9FED840A844880ED000A95
:102BA000B0EE490A03F01CFE9FED821AF0EE680AAF
:102BB00041EE400AF0EE608AB0EE490A02F0D0FE23
:102BC0009FED7C1AF0EE480A41EE000AB0EE608AF2
:102BD000744890ED000A38EEC00A20EE000A7348EF
:102BE000D0ED000A78EE600A90ED001A38EE411A36
:102BF00000EE810AF1EEC00A9FED6F0A30EE800A06
:102C00006E4880ED000A9FED6E0AB0EE001AF1EEFC
:102C1000C10A80EE201A90ED000A61EE000A6948B0
:102C200090ED000A654890ED001ADFED671A11EE8D
:102C3000810AB1EEC01A80EE810A644880ED000A74
:102C4000D0ED000A9FED620A9FED621A11EE200A94
:102C5000DFED610A20EE200A604880ED000A51484D
:102C600090ED000A30EE680A5D4880ED000A4F489A
:102C700090ED000A30EE480A5A4880ED000A5848A4
:102C8000006806F049FB41EC1D0B5648006806F051
:102C900043FB41EC1E0BB0EE4D1AF0EE6D1AB0EE98
:102CA0004E0AF0EE6E0A02F0FFFCB0EE40CAF0EE03
:102CB00060CA9FED4D0B53EC102B51EC1C0B06F032
:102CC00035F841EC1B0B9FED4A0B53EC102B05F034
:102CD0003FFE41EC1A0B05F04DFD474908600846E0
:102CE00090ED000ADFED450A30EE600A80ED000A43
:102CF00090ED000ADFED420AB4EEE00AF1EE10FAC0
:102D000008DD90ED000ADFED3F0A30EE600A80ED4D
:102D1000000A11E0384890ED000ADFED3B0AB4EEFE
:102D2000E00AF1EE10FA07D290ED000ADFED350A65
:102D300030EE200A80ED000A2F4890ED000A39EEAF
:102D4000400A264880ED010A90ED010ADFED2C0AC9
:102D5000B4EEE00AF1EE10FA08DD90ED010ADFEDC5
:102D6000290A30EE600A80ED010A11E01B4890ED5F
:102D7000010ADFED250AB4EEE00AF1EE10FA07D2FF
:102D800090ED010ADFED1F0A30EE200A80ED010A06
:102D9000124890ED000AD0ED010ABDEC0E8B10BD7B
:102DA000008022C3DC0000209AF51145E0000020DD
:102DB0000080224352B8EC42AE47A941D000002027
:102DC00000001D43D4000020B6F39D3FD800002032
:102DD00083C0C24052F26A3C48E17A3FC8000020FA
:102DE000E4000020E80000200000000000806640B1
:102DF00000000060FB210940EC0000200000B4420C
:102E0000000034430000B443000034C370B52DED1E
:102E10000A8BB0EE408AF0EE608AB0EE419A054629
:102E20000C46FE4890ED100AFD4880ED000AFB4874
:102E300090ED110AFB4880ED000AF84890ED0F0A6A
:102E4000F94880ED000AF948006802F067F915B109
:102E5000012D7DD139E1F549096804FB01F04FF4FA
:102E6000EB71484300EE100AB8EEC00A30EE080AD3
:102E7000EB48D0ED000A30EEC00AE84880ED120AB7
:102E8000E948D0ED000AB0EE490A04F0B3FAE3488D
:102E900080ED130AE549096804FB01F04FF4AF71B6
:102EA000484300EE100AB8EEC00A70EE280A00EEA1
:102EB000104AB8EEC00A60EE800A00EE104AB8EE82
:102EC000C00AD84890ED001A40EE410AD348C0ED40
:102ED000140AD648006805F02EFC064605F0BFFE31
:102EE00041EC1A0BCD4890ED140A10EE101A08466A
:102EF00006F012FA41EC1C0BB0EE4C0AF0EE6C0A34
:102F000002F0D6FDB0EE40BAF0EE60BA53EC1A2BE8
:102F100051EC1B0B06F008F87DD2C448006801286C
:102F200050DABE48D0ED120AB0EE600A05F0F0F9B2
:102F3000F0EE400AB94890ED131A00EE104AB8EED0
:102F4000C00A00EE201AB0EE412AB0EE420A00E0BC
:102F50009EE1FDF75BFBB148D0ED0C0A30EE200A94
:102F6000BDEEC00A10EE106A32460121B04802F0F0
:102F70000FF9AA48D0ED120AB0EE600A05F0C8F9C0
:102F8000F0EE400AA54890ED131A00EE104AB8EE94
:102F9000C00A00EE201AB0EE412AB0EE420AFDF758
:102FA00035FB9E48D0ED0C0AF1EE600A30EE200AA7
:102FB000BDEEC00A10EE106A324602219C4802F0B3
:102FC000E7F881E09948006801287DDB9348D0ED5F
:102FD000120AB0EE600A04F0E1FAF0EE400A8F48FF
:102FE00090ED131A00EE104AB8EEC00A00EE201A57
:102FF000B0EE412AB0EE420AFDF708FB8748D0ED5B
:103000000C0A30EE200ABDEEC00A10EE106A3246FD
:103010000121874800E02AE002F0BAF87F48D0EDAD
:10302000120AB0EE600A04F0B9FAF0EE400A7B48EA
:1030300090ED131A00EE104AB8EEC00A00EE201A06
:10304000B0EE412AB0EE420AFDF7E0FA7348D0ED47
:103050000C0AF1EE600A30EE200ABDEEC00A10EE56
:10306000106A32460221724802F092F82CE06F4852
:10307000006805F060FB064605F0F1FD41EC1A0B17
:10308000664890ED140A10EE101A084606F044F94E
:1030900041EC1C0BB0EE4C0AF0EE6C0A02F008FD9D
:1030A000B0EE40BAF0EE60BA53EC1A2B51EC1B0BA9
:1030B00005F000FE08D29FED5F0A584880ED140A23
:1030C000406D401C55494865E3E05849096804FBD8
:1030D00001F04FF4AF71484300EE100AB8EEC00A99
:1030E00030EE280A4F48D0ED000A30EEC00A4B48B7
:1030F00080ED120A4C48D0ED000AB0EE490A04F007
:1031000079F9464880ED130A4849096804FB01F043
:103110004FF4EB71484300EE100AB8EEC00A38EEE7
:10312000400A3F48D0ED000A30EE600A3B4880ED8F
:10313000140A3E48006805F0FEFA064605F08FFDC9
:1031400041EC1A0B354890ED140A10EE101A08469F
:1031500006F0E2F841EC1C0BB0EE4C0AF0EE6C0A03
:1031600002F0A6FCB0EE40BAF0EE60BA53EC1A2BB7
:1031700051EC1B0B05F0D8FE4DD22848D0ED120AB9
:10318000B0EE600A04F00AFAF0EE400A234890ED2F
:10319000131A00EE104AB8EEC00A00EE201AB0EE84
:1031A000412AB0EE420AFDF731FA1C48D0ED0C0A74
:1031B00030EE200ABDEEC00A10EE106A3246012140
:1031C0001B4801F0E5FF1548D0ED120AB0EE600A89
:1031D00004F0E4F9F0EE400A104890ED131A00EE06
:1031E000104AB8EEC00A00EE201AB0EE412AB0EE46
:1031F000420AFDF70BFA0948D0ED0C0AF1EE600A1D
:1032000030EE200ABDEEC00A10EE106A32460221EE
:10321000074801F0BDFF054800680DE07C03002071
:1032200094020020980200209C020020A0020020AE
:10323000006800400000000005F07DFA064605F039
:103240000EFD41EC1A0B164890ED140A10EE101A00
:10325000084606F061F841EC1C0BB0EE4C0AF0EEAB
:103260006C0A02F025FCB0EE40BAF0EE60BA53EC06
:103270001A2B51EC1B0B05F01DFD08D21FED130A94
:10328000074880ED140A406D401C0549486500E080
:1032900000BF00BFFEF740FEBDEC0A8B70BD000012
:1032A0007C03002000BFFEE700BFFEE770B50021F1
:1032B00000230F22C4781CB3174C246804F4E06484
:1032C000C4F5E064C4F30721C1F10404E3B20A4188
:1032D00044789C40E1B28478144021430C07210ECD
:1032E0000E4C05786155047804F01F050124AC40AC
:1032F00005786D11AD0005F1E025C5F8004109E044
:10330000047804F01F050124AC40054D06787611C1
:1033100045F8264070BD00000CED00E000E400E040
:1033200080E100E002490143024A11607047000059
:103330000000FA050CED00E070B52DED108BF0EEFD
:1033400040AAB0EE608AB0EE41DAF0EE618A04F095
:1033500045FEE04880ED000A04F0BCFEDE4880ED4A
:10336000000A04F05FFDDD4880ED000AD94890EDC9
:10337000000A30EE4D0A20EE000AD748D0ED000AD0
:1033800070EEE80A90ED001A31EE681A00EE810A3C
:1033900010EE101A084605F0BFFF41EC1C0BB0EE12
:1033A0004C0AF0EE6C0A03F0E3FAB0EE40BAF0EE2D
:1033B00060BA51EC1B0B05F0DDF9C94908600846FD
:1033C00090ED000A30EE480AC64880ED000AC14878
:1033D00090ED000A30EE4D0AC34880ED000ABE4869
:1033E00090ED000A30EE680AC04880ED000A90EDCA
:1033F000000ABD48D0ED000A80EE201ABC4880EDDE
:10340000001A90ED000AFFEE000A80EE801A11EE1D
:10341000105A284605F080FF41EC1E0BB0EE4E0A14
:10342000F0EE6E0A01F0D4FFB0EE40CAF0EE60CAD2
:103430009FEDB00B53EC102B51EC1C0B05F076FC00
:1034400041EC1F0B9FEDAD0B53EC102B05F080FAF8
:1034500041EC1B0B05F08EF9AA490860A3480068EF
:1034600005F05AFF41EC1C0BB0EE4C0AF0EE6C0A72
:1034700002F01EFBB0EE40BAF0EE60BA9FEDA20B78
:1034800053EC102B51EC1B0B05F014FC1AD2964890
:1034900090ED000AB5EEC00AF1EE10FA05DD9FEDE1
:1034A0009C0A9C4880ED000A0CE08F4890ED000AD1
:1034B000B5EEC00AF1EE10FA04D29FED970A9548D6
:1034C00080ED000A8848006805F026FF41EC1C0BDF
:1034D000B0EE4C0AF0EE6C0A02F0EAFAB0EE40BA36
:1034E000F0EE60BA9FED880B53EC102B51EC1B0BE8
:1034F00005F0E0FB1AD27D4890ED000AB5EEC00A57
:10350000F1EE10FA05DD9FED850A824880ED000A94
:103510000CE0764890ED000AB5EEC00AF1EE10FA24
:1035200004D29FED7F0A7B4880ED000A6E4890ED43
:10353000000AB5EEC00AF1EE10FA27DD6B4890EDF7
:10354000000AB5EEC00AF1EE10FA0ADD6D4890ED02
:10355000000ADFED720A30EE200A6E4880ED000AA4
:1035600043E0624890ED000AB5EEC00AF1EE10FAB1
:103570003BD2644890ED000ADFED680A30EEC00AE5
:10358000B1EE400A634880ED000A2EE0564890ED07
:10359000000AB5EEC00AF1EE10FA26D2534890EDBB
:1035A000000AB5EEC00AF1EE10FA0ADD554890EDBA
:1035B000000ADFED5A0A30EE200A564880ED000A74
:1035C00013E04A4890ED000AB5EEC00AF1EE10FA99
:1035D0000BD24C4890ED000ADFED500A30EEC00AE5
:1035E000B1EE400A4B4880ED000A3C48D0ED000A9D
:1035F000484890ED000A03F0FDFE4A4880ED000ABD
:103600009FED490A78EE000A80EE880A20EE2A0A29
:10361000FDEEC09A9FED440A78EE400A80EE880ADB
:1036200020EE2A0ABDEEC0AAF8EEE90A9FED3F1A85
:1036300080EE810ADFED3E0A20EE200ABDEEC09A40
:10364000F8EECA0A9FED391A80EE810ADFED380ADA
:1036500020EE200ABDEEC00A10EE104A214890ED7F
:10366000000A04F0FFFF2F48D0ED000A30EE200AD8
:10367000B0EE40BAFEF726FDF8EEC90A30EE200A99
:10368000BDEEC00A10EE105A2A460121294801F069
:103690007FFD144890ED000A04F0E4FF2148D0EDCE
:1036A000000A30EE200AB0EE40BAFEF70BFD604291
:1036B00000EE900AF8EEE00A30EE200ABDEEC00AF5
:1036C00010EE105A2A4602211A4801F061FDBDECA5
:1036D000108B70BD70010020740100207801002063
:1036E000840100208C01002094010020980100201A
:1036F000880100200000000000806640000000609B
:10370000FB21094090010020000000000000F03F74
:10371000000000007C010020000034430000B4429F
:103720000000B4C280010020000059436766BC431A
:10373000000080450068004010B52DED0C8BB0EE08
:10374000408AF0EE608AFE4890ED100AFD4880ED58
:10375000000AFB4890ED110AFB4880ED000AF8488A
:1037600090ED0F0AF94880ED000AF74890ED000A45
:1037700030EE680A10EE101A084605F0CDFD41EC57
:103780001D0B9FEDF31BB0EE4D0AF0EE6D0A02F03B
:103790009BF9B0EE40BAF0EE60BAEA4890ED000A4C
:1037A00030EE480A10EE101A084605F0B5FD41EC5F
:1037B0001D0B9FEDE71BB0EE4D0AF0EE6D0A02F017
:1037C00083F9B0EE40CAF0EE60CA53EC1B2B51EC0B
:1037D0001C0B05F001F841EC1A0BB0EE4A0AF0EEB2
:1037E0006A0A03F0C5F8B0EE409AF0EE609A51EC28
:1037F000190B04F0BFFFD8490860D24890ED000AC9
:1038000030EE480AD54880ED000ACF4890ED000A16
:1038100030EE680AD24880ED000A90ED000ACF48E9
:10382000D0ED000A80EE201ACE4880ED001A006824
:1038300005F072FD41EC1C0BB0EE4C0AF0EE6C0A88
:1038400001F0C6FDB0EE40BAF0EE60BA9FEDC60BD7
:1038500053EC102B51EC1B0B05F068FA41EC1A0BE2
:103860009FEDC30B53EC102B05F072F841EC190BD4
:1038700004F080FFC0490860B84890ED000ADFED11
:10388000BF0A20EE200AFFEE000AB4EEE00AF1EED5
:1038900010FA27DB90ED000ADFEDB80A20EE200ACF
:1038A000F7EE000AB4EEE00AF1EE10FA1AD8AC48CE
:1038B00090ED000AB5EEC00AF1EE10FA05DD9FEDBD
:1038C000B00AB04880ED000A0CE0A54890ED000A6F
:1038D000B5EEC00AF1EE10FA04D29FEDAB0AA9488A
:1038E00080ED000A9D4890ED000AB5EEC00AF1EEA9
:1038F00010FA25DD9A4890ED000AB5EEC00AF1EE07
:1039000010FA0ADD9C4890ED000ADFEDA00A30EEC7
:10391000200A9C4880ED000A41E0914890ED000AA1
:10392000B5EEC00AF1EE10FA39D2934890ED000AD4
:10393000DFED960A30EE200A924880ED000A2EE074
:10394000864890ED000AB5EEC00AF1EE10FA26D2D4
:10395000834890ED000AB5EEC00AF1EE10FA0ADDD8
:10396000854890ED000ADFED890A30EE600A85484F
:1039700080ED000A13E07A4890ED000AB5EEC00A27
:10398000F1EE10FA0BD27C4890ED000ADFED7F0AD1
:1039900030EEC00AB1EE400A7A4880ED000A6B486A
:1039A000D0ED000A774890ED000A03F023FD784837
:1039B00080ED000A6848006805F0AEFC41EC1A0B87
:1039C000B0EE4A0AF0EE6A0A02F072F8B0EE409ADF
:1039D000F0EE609A9FED6F0B53EC102B51EC190B2E
:1039E00005F0A2FA23D26A4890ED000AFCF70EFE19
:1039F000DFED6A0A30EE200ABDEEC00A10EE104A72
:103A000022460121664801F0C3FB614890ED000A9F
:103A1000FCF7FCFDDFED630A30EE200ABDEEC00AC4
:103A200010EE104A224602215D4801F0B1FB4A48DF
:103A3000006805F071FC41EC1A0BB0EE4A0AF0EE9A
:103A40006A0A02F035F8B0EE409AF0EE609A9FED07
:103A5000560B53EC102B51EC190B05F065FA3CD2C8
:103A60003D48006805F058FC41EC1A0BB0EE4A0ADC
:103A7000F0EE6A0A02F01CF8B0EE409AF0EE609A9E
:103A80009FED440B53EC102B51EC190B05F012F980
:103A900023D23F4890ED000AFCF7B8FDDFED440A61
:103AA00030EE200ABDEEC00A10EE104A2246012177
:103AB0003B4801F06DFB364890ED000AFCF7A6FD8F
:103AC000DFED3C0A30EE200ABDEEC00A10EE104ACF
:103AD00022460221324801F05BFB1F48006805F0D6
:103AE0001BFC41EC1A0BB0EE4A0AF0EE6A0A01F038
:103AF000DFFFB0EE409AF0EE609A9FED2B0B53EC97
:103B0000102B51EC190B05F0D5F87FD21248006844
:103B100005F002FC41EC1A0BB0EE4A0AF0EE6A0A1C
:103B200001F0C6FFB0EE409AF0EE609A9FED220BD6
:103B300053EC102B51EC190B05F0F6F966D23FE06F
:103B40007C0300201000002014000020180000203A
:103B5000000000000000004028000020300000208D
:103B60003400002024000020000000000080664097
:103B700000000060FB2109402C00002000007A4476
:103B8000000034C31C000020000000000000B4420C
:103B9000200000200000000000406F400080BB4576
:103BA000006800400080BBC50000000000006940C4
:103BB00000007A4500007AC5000000000000544073
:103BC000334890ED000AFCF721FDDFED320A30EEBC
:103BD000200ABDEEC00A10EE104A224601212E48EE
:103BE00001F0D6FA2A4890ED000AFCF70FFDDFED50
:103BF0002B0A30EE200ABDEEC00A10EE104A224613
:103C00000221254800E001E001F0C2FA24480068E2
:103C100005F082FB41EC1A0BB0EE4A0AF0EE6A0A9C
:103C200001F046FFB0EE409AF0EE609A9FED1D0B5A
:103C300053EC102B51EC190B05F076F926D21848ED
:103C4000006805F069FB41EC1A0BB0EE4A0AF0EE91
:103C50006A0A01F02DFFB0EE409AF0EE609A1FED77
:103C60002A0B53EC102B51EC190B05F023F80DD255
:103C700000220121084801F08BFA002202210648A7
:103C800001F086FA0120BDEC0C8B10BD0020FAE794
:103C9000200000200000FA44006800400000FAC440
:103CA0002800002000000000000000002DE9F04383
:103CB00089B081460D46174698460024304B0FCBFD
:103CC00005AE0FC605F540700090019000208DF8FC
:103CD00008008DF8090008208DF80A001FB944F289
:103CE0005010059002E045F250200590CDF8188064
:103CF00000243FE005A810F834008DF80B0005A85B
:103D000030F83400010A8DF80C1005A850F8340082
:103D1000010C8DF80D1005A850F83400000E8DF838
:103D20000E0005A800EBC40001798DF80F1005A85E
:103D300000EBC4008088010A8DF8101005A800EB84
:103D4000C4004068010C8DF8111005A800EBC400F8
:103D50004068000E8DF8120069464846FDF738FCB1
:103D6000064600BF31464846FDF7C6FC0128F9D19A
:103D7000601CC4B2022CBDDB09B0BDE8F0830000BA
:103D80008096000810B588B004460121082000F094
:103D90008DF80121880400F099F8072208212548B0
:103DA000FEF70AFD072209212248FEF705FD4FF420
:103DB0004070069002208DF81C008DF81D00002038
:103DC0008DF81E0001208DF81F0006A91948FEF786
:103DD000ABFC4FF4E13002900020ADF80C00ADF8E0
:103DE0000E00ADF81000ADF814000C20ADF8120074
:103DF00002A9114801F088F801210F4800F0B8FF2E
:103E000040210D4800F09CFF012240F225510A4854
:103E100001F055F827208DF8040000208DF80500EA
:103E200001208DF806008DF8070001A8FFF73EFA83
:103E300008B010BD000C0240004800401CB5012134
:103E4000102000F033F85020009001208DF804007D
:103E500000208DF8060003208DF8050002208DF863
:103E6000070069460548FEF75FFC10210348FEF78E
:103E7000D1FC40210148FEF7CBFC1CBD00100240E4
:103E800010B54FF47A63002206210248FFF70EFFB7
:103E900010BD00000064004010B50523002206217B
:103EA0000148FFF703FF10BD0064004029B1064A36
:103EB00012680243044B1A6004E0034A126882430A
:103EC000014B1A60704700003038024029B1064AA1
:103ED00012680243044B1A6004E0034A12688243EA
:103EE000014B1A60704700004038024029B1064A71
:103EF00012680243044B1A6004E0034A12688243CA
:103F0000014B1A60704700002038024029B1064A70
:103F100012680243044B1A6004E0034A12688243A9
:103F2000014B1A60704700004438024029B1064A2C
:103F300012680243044B1A6004E0034A1268824389
:103F4000014B1A607047000024380240F0B5002190
:103F500000220024022500260223324F3F6807F08A
:103F60000C0121B1042905D0082937D105E02E4FD5
:103F7000076036E02D4F076033E02A4F3F1F3F6850
:103F8000C7F38056274F3F1F3F6807F03F036EB1CE
:103F9000264FB7FBF3F7DFF88CC0ACF1040CDCF86C
:103FA00000C0CCF3881C07FB0CF40CE01E4FB7FBE1
:103FB000F3F7DFF870C0ACF1040CDCF800C0CCF310
:103FC000881C07FB0CF4174F3F1F3F68C7F30147DE
:103FD0007F1C7D00B4FBF5F7076002E0124F07601D
:103FE00000BF00BF0F4F3F6807F0F0010909104FF5
:103FF0007A5C0768D74047600A4F3F6807F4E05192
:10400000890A0B4F7A5C4768D7408760054F3F6845
:1040100007F46041490B064F7A5C4768D740C76098
:10402000F0BD0000083802400024F40000127A00BD
:104030006C03002070B588B005460C461E4903C9C4
:10404000CDE9060104F540700190029000208DF842
:104050000C008DF80D0008208DF80E000698C0B2F7
:104060008DF80F000698010A8DF810100698010CC3
:104070008DF811100698000E8DF812000798C1B245
:104080008DF813100798010A8DF814100798010C89
:104090008DF815100798000E8DF8160001A9284616
:1040A000FDF796FA064600BF31462846FDF724FB89
:1040B0000128F9D108B070BDA8960008704700002B
:1040C0000CB50020019000903448006840F4803026
:1040D0003249086000BF3148006800F400300090A9
:1040E0000198401C0190009818B90198B0F5A06F94
:1040F000F1D12A48006800F4003010B1012000908E
:1041000001E0002000900098012846D1234840306B
:10411000006840F080502149403108602048006824
:1041200040F480401E4908601C48083000681B4964
:10413000083108600846006840F4004008600846FE
:10414000006840F4A05008601648091F0860081F66
:10415000006840F08070091F086000BF0F480068C9
:1041600000F000700028F9D040F205600E490860A8
:104170000A480830006820F0030008490831086048
:104180000846006840F00200086000BF034808309D
:10419000006800F00C000828F8D10CBD003802407F
:1041A0000070004008544007003C024000B52DED6F
:1041B000028B81B0B0EE408AB0EE480A04F040FABB
:1041C000009041210F4800F091FF9DF800100D482C
:1041D00000F08CFF9DF801100A4800F087FF9DF861
:1041E0000210084800F082FF9DF80310054800F017
:1041F0007DFF4A21034800F079FF01B0BDEC028B3E
:1042000000BD00000010014010B588B00446012137
:104210000846FFF74BFE01211020FFF777FE07222B
:1042200009212548FEF7C8FA07220A212248FEF78D
:10423000C3FA4FF4C060069002208DF81C008DF880
:104240001D0000208DF81E0001208DF81F0006A91A
:104250001948FEF769FA02940020ADF80C00ADF899
:104260000E00ADF81000ADF814000C20ADF81200EF
:1042700002A9124800F048FE4021104800F060FDFD
:1042800025208DF8040000208DF8050002208DF80F
:10429000060001208DF8070001A8FFF707F80122AA
:1042A00040F22551054800F00AFE0121034800F0C4
:1042B0005FFD08B010BD000000000240001001408A
:1042C00010B51548006840F47000134908601348A1
:1042D000006840F001001149086000200F490831D2
:1042E00008600E4800680E4908400C4908600D48F7
:1042F000091D0860081F006820F48020091F08605D
:10430000002006490C310860FFF7DAFE4FF000602C
:1043100001498039086010BD88ED00E00038024096
:10432000FFFFF6FE1030002410B50121044800F014
:10433000B2F8012803D10121014800F09DF810BD19
:104340000000014010B50121880700F0A4F8012801
:104350001AD10121800700F08FF80C480088401C1A
:104360000A4908800846008800EE100AB8EE400AA4
:10437000DFED070AB4EEE00AF1EE10FA04DB0020EC
:10438000088001200349087010BD000018030020B8
:104390000000C8421A03002010B501211C4800F09B
:1043A0007AF8012833D10121194800F065F819483D
:1043B0000068401C1749086017480068401C1649EF
:1043C0000860084600684FF6FF7190FBF1F201FBB0
:1043D0001200114908600F49086800EBD0714910BC
:1043E000A0EB410199B103F0F9FD0C4880ED000A02
:1043F00003F070FE0A4880ED000A084890ED000ABC
:1044000004F012F9064890ED000A04F013F910BD0B
:1044100000040040280300201C030020200300208B
:104420002403002010B50121044800F034F80128CD
:1044300003D10121014800F01FF810BD0008004021
:1044400010B50121044800F026F8012803D101210C
:10445000014800F011F810BD000C004010B501211A
:10446000044800F018F8012803D10121014800F0A8
:1044700003F810BD00040140CA430282704721B115
:10448000028842F00102028004E002884FF6FE73C7
:104490001A400280704730B50246002000230024F5
:1044A000158A05EA0103958905EA010413B10CB1E7
:1044B000012000E0002030BD1AB183890B438381C5
:1044C00002E083898B438381704700002DE9FF411F
:1044D00004460D4616461F46DDF828806949601AD5
:1044E0008C4270D01ADC6849A4EB01008C426CD07D
:1044F0000ADCB4F1804F4ED064482044002852D0EA
:10450000B0F5806F71D156E0B0F5806F65D0B0F531
:10451000006F6CD0B0F5406FF4D170E0B0F5923F11
:1045200021D009DCB0F5806F7AD0B0F5644F0AD0A5
:10453000B0F5684F7CD10EE0B0F5943F1BD0B0F5DC
:10454000963F75D11FE001210846FFF7DFFC1920D7
:104550008DF800006DE001210220FFF7D7FC2C2030
:104560008DF8000065E001210804FFF7CFFC18205A
:104570008DF800005DE001211920FFF7C7FC2C2019
:104580008DF8000055E001218804FFF7BFFC1A20D8
:104590008DF800004DE001210846FFF797FC1C2034
:1045A0008DF8000045E001210220FFF78FFC1D205F
:1045B0008DF800003DE001210420FFF787FC1E205C
:1045C0008DF8000035E023E0FFE701210820FFF728
:1045D0007DFC32208DF800002BE001211020FFF738
:1045E00075FC36208DF8000023E021E0FFE7012173
:1045F0002020FFF76BFC37208DF8000019E0012127
:104600004020FFF763FC2B208DF8000011E007E04D
:1046100001218020FFF75AFC2C208DF8000008E0D3
:1046200001210802FFF752FC2D208DF8000000E068
:1046300000BF00BF0295ADF804600020ADF80C008B
:10464000ADF8060001A9204600F022F8012120461D
:10465000FFF712FF012211462046FFF72DFFF8B2A7
:104660008DF8010008F0FF008DF8020001208DF8A0
:1046700003006846FEF71AFE01212046FFF7FFFE01
:10468000BDE8FF81001C0040000C004000FCFFBFA3
:1046900000220288184B98420ED0184B98420BD03B
:1046A000B0F1804F08D0164B984205D0154B984278
:1046B00002D0154B984204D14FF68F731A404B88A5
:1046C0001A43124B984207D0114B984204D04FF630
:1046D000FF431A400B891A4302804B68C3620B8860
:1046E0000385054B984202D0044B984201D18B7A46
:1046F00003860123838270470000014000040140CB
:104700000004004000080040000C00400010004081
:10471000001400401CB501210420FFF7C7FB052051
:10472000009000208DF8040003208DF80500022081
:104730008DF8070000208DF8060069460148FDF756
:10474000F3FF1CBD0008024010B590B004460121E3
:104750004805FFF7ABFB204600F0EEF82248FDF7D6
:1047600079FD00BF2048FDF721FE0028FAD14FF067
:10477000006001901D4802901D4803904020049065
:104780000020059006904FF480600790002008906C
:1047900009900A904FF400300B9000200C900120FB
:1047A0000D9000200E900F9001A90F48FDF758FEC4
:1047B000012280210D48001F00F0E6FA012210219D
:1047C0000948FDF72FFE2F208DF8000002208DF8FC
:1047D00001008DF8020001208DF803006846FEF705
:1047E00065FD10B010BD0000B860024004500040EC
:1047F0005404002010B540F22551494800F035FB23
:10480000012873D140F22551454800F0A2FA4448EE
:1048100000F067FC434908704348006808287CD2D0
:10482000DFE800F0044049525B656C743D48007855
:10483000772803D107203C49086032E039480078E6
:10484000622803D10620384908602AE035480078FC
:10485000632803D105203449086022E031480078FC
:104860006D2803D10120304908601AE02D480078F6
:10487000762803D103202C49086012E029480078EB
:104880006E2803D10220284908600AE025480078F4
:10489000612803D104202449086002E00020224955
:1048A00008603BE021480068401C20490860002067
:1048B0001D49086032E01E480068401C1C49086021
:1048C00000201949086029E018480068401E17496F
:1048D000086000201449086020E015480068401E68
:1048E0001349086000201049086017E017E0012014
:1048F0001049086000200C4908600FE0012003F017
:1049000065FD00200849086008E006E0642003F027
:104910005DFD00200449086000E000BF00BF10BD3D
:1049200000500040F0020020EC020020B002002005
:10493000B4020020B802002010B588B004460194EB
:104940000020ADF80800ADF80A00ADF80C00ADF895
:1049500010000C20ADF80E000121FFF7A7FA01218D
:104960000805FFF7B3FA254800F018FA08220C21D1
:104970002348FDF721FF082202212248FDF71CFFF2
:1049800000208DF81A0001208DF81B0002208DF800
:104990001800C002059002208DF8190005A91848DA
:1049A000FDF7C2FE02208DF818000420059005A92D
:1049B0001448FDF7B9FE01A9104800F0A5FA35200A
:1049C0008DF81C0001208DF81F0000208DF81D00BF
:1049D00002208DF81E004FF4A060FEF7A3FC07A88C
:1049E000FEF764FC012240F22551044800F067FA0A
:1049F0000121024800F0BCF908B010BD0050004091
:104A000000080240000C024010B508212C4800F0BC
:104A10001FFA002842D02A4800F063FB2949087099
:104A20000846007856280BD10020274908602748FF
:104A300090ED000AB8EEC00A254880ED050A09E0AD
:104A400020480078522805D100201F490860012124
:104A50001F4881611C48006810B101281CD107E083
:104A600018480078412802D101201749086014E055
:104A7000144800781549174A126888541548006888
:104A8000401C1449086008460068032803DD002024
:104A900008600D49086000E000BF10E040F22551B9
:104AA000074800F0E2F9012809D140F225510448F5
:104AB00000F04FF9024800F014FB0249087010BDE5
:104AC00000100140FC020020F4020020000300203E
:104AD0007C030020F802002010B540F22551154853
:104AE00000F0C3F9012824D140F22551114800F00B
:104AF00030F9104800F0F5FA0F49087008460078C0
:104B0000DA2802D00D48006880B10C480068401CCB
:104B10000A49086008460068022807D1064800785C
:104B200040B203F059FC0020044908600120044908
:104B3000086010BD00440040D00200201403002093
:104B4000CC02002010B540F22551744800F08DF9D8
:104B500001287CD140F22551704800F0FAF86F48E6
:104B600000F0BFFA6E4908706E48007805286FD2D1
:104B7000DFE800F00311263D4B00694800780D285E
:104B800005D168480078401C6649087002E00020A2
:104B90006449087087E0624800780A2808D100203C
:104BA000614908705F480078401C5E49087006E063
:104BB0005B4800780D2802D000205A49087072E046
:104BC000574800785949584A12788854564800780E
:104BD000401C5549087008460078182806DB00205C
:104BE000087050480078401C4E4908705BE04C4803
:104BF00000780A2805D14B480078401C49490870C4
:104C000002E00020474908704DE0454800780D2833
:104C100041D1464890ED000AB1EE400A444880ED8B
:104C2000000A424890ED010A80ED010A90ED020A67
:104C300080ED020A90ED030A3E4880ED000A3B48F1
:104C400090ED040A3C4880ED000A384801E02BE072
:104C500025E090ED050A80ED050A364890ED000A42
:104C600003F0D6FC344890ED000A03F0D7FC30483E
:104C700090ED000A03F0A4FB03F0B0F92F4880ED9B
:104C8000100A03F027FA2D4880ED110A03F0CAF844
:104C90002A4880ED0F0A00202249087003E0002016
:104CA0002049087000BF37E028211C4800F051F867
:104CB00040F22771194800F04CF840F2266117487D
:104CC00000F047F840F22531144800F042F840F275
:104CD0002441124800F03DF840F646010F4800F02C
:104CE00038F840F66A110D4800F033F860210B489F
:104CF00000F02FF84FF45871084800F02AF84FF4EC
:104D00001871064800F025F84FF4B071034800F020
:104D100020F8024800F0E5F910BD0000004800400E
:104D2000040300200503002006030020A404002043
:104D3000BC020020C0020020C40200207C0300202E
:104D400001F40072B2F5007F00D100BFCA430280B7
:104D5000704710B50022002340F66A14A14200D12A
:104D600000BF0A1201249440A3B2DC43048010BDAA
:104D700021B1828942F40052828104E082894DF699
:104D8000FF731A40828170471AB1838A0B43838272
:104D900002E0838A8B4383827047000010B504468B
:104DA0002548844208D101211020FFF7BFF80021D7
:104DB0001020FFF7BBF83EE02048844209D10121D2
:104DC0004804FFF793F800214FF40030FFF78EF806
:104DD00031E01B48844209D101218804FFF786F89D
:104DE00000214FF48020FFF781F824E01548844229
:104DF00009D10121C804FFF779F800214FF4002000
:104E0000FFF774F817E01048844209D10121080522
:104E1000FFF76CF800214FF48010FFF767F80AE005
:104E20000A48844207D101212020FFF77FF80021A2
:104E30002020FFF77BF810BD001001400044004027
:104E400000480040004C0040005000400014014069
:104E500002460020B1F5007F00D100BF13880B404F
:104E60000BB1012000E00020704770B5024600241D
:104E700000230025002040F66A16B14200D100BF91
:104E8000C1F3421501F01F03012606FA03F3012DB9
:104E900002D19689334006E0022D02D1168A3340B2
:104EA00001E0968A33400C12012606FA04F41688B3
:104EB000344013B10CB1012000E0002070BDF0B50A
:104EC0000346002400260025002040F66A17B94258
:104ED00000D100BF1846C1F3421401F01F0601279C
:104EE00007FA06F5012C01D10C3004E0022C01D1A7
:104EF000103000E014301AB107682F43076002E059
:104F00000768AF430760F0BD2DE9FF4705460E4631
:104F10000024A14600BFA046B08900B100BF2C8A82
:104F200024F44054F08804432C82AC8941F20C6094
:104F30008443B08831890843718908430443AC81B4
:104F4000AC8A24F44074B0890443AC826846FEF70E
:104F5000FDFF2048854202D01F48854202D1DDF87E
:104F60000C9001E0DDF80890A88900F4004040B101
:104F700009EBC90000EB091031684900B0FBF1F7FB
:104F800007E009EBC90000EB091031688900B0FBAC
:104F9000F1F76420B7FBF0F004012009642101FB64
:104FA0001078A88900F4004040B1322000EBC8001E
:104FB000B0FBF1F000F00700044308E0322000EB02
:104FC00008106421B0FBF1F000F00F0004432C81C5
:104FD000BDE8FF8700100140001401400FB470B518
:104FE00086B006460CA8019073E00B9800785C2808
:104FF0001CD10B98401C0B9000786E2809D07228A9
:105000000FD10D21304600F071F80B98401C0B9029
:105010000BE00A21304600F069F80B98401C0B9019
:1050200003E00B98401C0B9000BF4BE00B980078FE
:10503000252840D10B98401C0B900078642818D08C
:10504000732833D1019810C801900BE021783046C5
:1050500000F04CF800BF40213046FFF7F9FE002871
:10506000F9D0641C20780028F0D10B98401C0B90DC
:1050700020E0019820C801900A2202A9284603F0E6
:10508000B1F802AC0BE02178304600F02FF800BFF9
:1050900040213046FFF7DCFE0028F9D0641C207860
:1050A0000028F0D10B98401C0B9003E00B98401C9B
:1050B0000B9000BF06E00B9810F8011B0B903046D8
:1050C00000F014F800BF40213046FFF7C1FE002871
:1050D000F9D00B980078002887D106B070BC5DF835
:1050E00014FB01468888C0F30800704730B50446B9
:1050F0000D4600BF80212046FFF7AAFE0028F9D008
:1051000080212046FFF71CFE40212046FFF718FEB5
:10511000C5F30800A08030BD00BFFEE7DFED151A23
:10512000B0EE610ADFED141AF0EE610ADFED131A3A
:10513000B0EE611A012807DADFED111A1149C1ED4D
:105140000C1AC1ED081A14E0012809DB032807DA5C
:10515000DFED0D1A0B49C1ED0C1AC1ED081A08E07C
:10516000032806DBDFED091A0649C1ED0C1AC1ED73
:10517000081A70470080A2440000C8440080894497
:1051800025D63A467C03002090E1874689CE5C46CE
:105190002DE9F0418AB080460D46174600242C4B7D
:1051A0000FCB06AE0FC605F54070019002900020AF
:1051B0008DF80C008DF80D0008208DF80E00079773
:1051C00000BF3FE006A810F834008DF80F0006A8D5
:1051D00030F83400010A8DF8101006A850F8340099
:1051E000010C8DF8111006A850F83400000E8DF84F
:1051F000120006A800EBC40001798DF8131006A870
:1052000000EBC4008088010A8DF8141006A800EB9A
:10521000C4004068010C8DF8151006A800EBC4000E
:105220004068000E8DF8160001A94046FCF7D0F941
:10523000064600BF31464046FCF75EFA0128F9D128
:10524000601CC4B2022CBDDB0AB0BDE8F0810000D6
:10525000F09500082DE9F04393B080460D461646C0
:105260001F46002438222E4905A8FBF70DF805F546
:1052700040700090019000208DF808008DF8090022
:1052800008208DF80A000C960E9726491091494285
:10529000129100BF3FE005A810F834008DF80B0014
:1052A00005A830F83400010A8DF80C1005A850F854
:1052B0003400010C8DF80D1005A850F83400000ED4
:1052C0008DF80E0005A800EBC40001798DF80F10D1
:1052D00005A800EBC4008088010A8DF8101005A80D
:1052E00000EBC4004068010C8DF8111005A800EB1C
:1052F000C4004068000E8DF8120069464046FCF775
:1053000067F9814600BF49464046FCF7F5F9012898
:10531000F9D1601CC4B2072CBDDB13B0BDE8F0832B
:10532000B8950008C0E1E40010B52DED028BB0EE99
:10533000408AB0EE480A00F00FF8BDEEC00A10EE49
:10534000104A2346002207210248FEF7AFFCBDECBD
:10535000028B10BD00640040F0EE400AB1EE000A7E
:1053600020EE800A9FED021A20EE010A704700002D
:10537000610B364103B401984100009850EAC12006
:1053800018BF04204A0D18BF40F0010040F2FF7220
:10539000B2EB515F08BF40F00200012808BF0520B2
:1053A00002B070474100080218BF04200A0E18BF5F
:1053B00040F001004FF07F4232EA010108BF40F0A7
:1053C0000200012808BF052070470000000000000F
:1053D00070B59B482DED020B2DED068B079D25F03A
:1053E0000044A04218DC9748844202DC0AD10698A7
:1053F00040B19DED060BBDEC068B02B0BDE87040E0
:1054000001F0F6BE002DCCBF9FED8F0B9FED900BF2
:10541000BDEC068B02B070BD8F48A04215DD8F48F1
:10542000A042D8BF4FF0FF3458DD9DED060B51EC84
:10543000100BFFF79FFF042808BF01F00DFF9DED43
:10544000060BBDEC068B02B070BD9DED060B51EC5A
:10545000100B02F03DF9CDE9060181489FED828BEA
:10546000A0423CDD8248A0421FDD00249FED82ABBC
:105470009DED060B53EC1A2B51EC100B03F0ACF91D
:105480009DED060B41EC190B53EC1A2B51EC100B54
:1054900003F04CFC53EC182B03F054FE53EC192B87
:1054A00003F056FACDE9060149E09DED060B012413
:1054B00053EC182B51EC100B03F08EF99DED060BFD
:1054C00041EC190B53EC182B51EC100B03F03AFE86
:1054D00053EC192B03F03CFACDE906012FE06848A4
:1054E000A0421FDD02249FED689B9DED060B53EC4F
:1054F000192B51EC100B03F019FC53EC182B03F093
:105500006BF99DED060B41EC180B53EC192B51EC8C
:10551000100B03F017FE53EC182B03F019FACDE92A
:1055200006010CE09DED060B032453EC102B9FEDC0
:10553000580B51EC100B03F00BFACDE906019DED71
:10554000060B53EC102B51EC100B03F0EFFB41EC6E
:10555000180B53EC182B03F0E9FB41EC190B4E48E8
:105560000621B0EE490AF0EE690A784401F014FD14
:1055700053EC182B51EC100B03F0D8FB41EC180B3B
:105580004648B0EE490AF0EE690A0521784401F078
:1055900003FD53EC192B51EC100B03F0C7FB41EC4E
:1055A000100B51EC180B53EC102B002C0EDA03F0FF
:1055B00013F99DED061B53EC112B03F0B7FB9DED8A
:1055C000061B53EC112B03F0E5FC35E003F004F966
:1055D0009DED061B53EC112B03F0A8FB41EC100BC7
:1055E0002F48784400EBC40090ED001B51EC100BE9
:1055F00053EC112B03F0A6FD9DED061B53EC112B74
:1056000003F0A0FD41EC100B2648784400EBC400E9
:1056100090ED001B51EC100B53EC112B03F0BAFC76
:1056200041EC100B002DA2BFBDEC068B02B070BD8B
:1056300051EC100B03F092F841EC100B01E7000065
:10564000000010440000F07F182D4454FB21F93F66
:10565000182D4454FB21F9BF0000DC3F0000203E20
:105660000000F33F00000000000000000000F03FD9
:105670000000E63F000000000000000000000040C5
:105680000080034000000000000000000000F83F20
:10569000000000000000F0BFAA41000060410000CF
:1056A000EA400000A240000070B56B4E2DED040BE7
:1056B0002DED028B82B0DDF81CC0DDE905235C42D4
:1056C0002CF000411C4341EAD474049D22F00040B8
:1056D000B44205D86C422C4340EAD474B4420BD98E
:1056E0009DED061B9DED040B02B0BDEC028B04B0DA
:1056F000BDE8704001F086BDACF14054A4F17F6478
:105700001C430BD0022404EAAC7444EAD27405436F
:105710009FED538B9FED542B07D015E09DED040BAF
:1057200051EC100B01F09EFE42E0002C11BF012C49
:105730009DED040B02B0BDEC028B04BF04B070BD44
:10574000022C38D0032C3BD00B439FED491B9FED1F
:105750004A0B0AD0B14218D1B04209D121F08041A0
:1057600020F08040079105900FE0002A15DA10E044
:10577000434B7B44002C08BF93ED000B0DD0012C54
:1057800010D0022C17D0032C1AD0B0421DD1002A01
:1057900003DAB0EE410AF0EE610A02B0BDEC028B12
:1057A00004B070BD93ED000B51EC100B02F0D6FF6E
:1057B00041EC100BF1E7B0EE480AF0EE680AECE7B6
:1057C000B0EE420AF0EE620AE7E7401A00153C2804
:1057D000C8BF8DED000B19DCBCF1000FBEBF10F18E
:1057E0003C0F9FED290B8DED000B0FDB9DED060BA4
:1057F00053EC102B9DED040B51EC100B03F0A8F8AB
:1058000001F066FF01F02EFECDE90001002C08BF7B
:105810009DED000BC1D0012C10D0022C9FED1C0B74
:1058200053EC102B9DED000B51EC100B0DD003F041
:1058300089FC53EC182B03F085FCB9E7019880F044
:10584000004001909DED000BA7E703F07BFC53ECBB
:10585000182B03F09FFBABE70000F07F0000000077
:10586000182D4454FB210940182D4454FB2109C034
:10587000182D4454FB21F9BF182D4454FB21F93F46
:105880008A4000000000000000000000000000004E
:10589000075C143326A6A13C10B52F499FED2C1BA5
:1058A0002DED020B84B0059820F000408842D8BF4F
:1058B0009DED040B2DDD2949884209D1049840B99A
:1058C0004FF00100FAF71AFD01F0A6FC06B010BD7A
:1058D00005DB9DED040B01F08BFC06B010BD6846A6
:1058E0009DED040B01F084F810F0030004BF9DED62
:1058F000021B9DED000B0CD001280ED09DED021B6C
:105900009DED000B022817D0012001F0C1FB06B06D
:1059100010BD01F089FA06B010BD9DED021B9DED92
:10592000000B012001F0B4FB51EC100B02F016FF4C
:1059300006B041EC100B10BD01F076FA51EC100BE3
:1059400002F00CFF06B041EC100B10BD000000008F
:105950000000000000000000FB21E93F0000F07F94
:1059600010EE101A08B5444A6846B2EB410F28D928
:105970004FF0E640B0EB410F94BF00204FF0FF30F6
:1059800000900098002861DB60EE000A10F0010F23
:1059900045D010F0020FDFED391A9FED391A00EEF5
:1059A000E11ADFED381A40EE811A21EEA01AF0EE6E
:1059B000400A40EE010A08BFF1EE600AB0EE600A4C
:1059C00008BD314B21F0004293423CD911F0004F09
:1059D000DFED2E0A20EE201ADFED2D0A19BF31EE81
:1059E000601A71EE200A31EE201A71EE600ABDEEE7
:1059F000E01A11EE100A9FED271A00F0030000EEE6
:105A0000C10A9FED251A009000EEC10A9FED231AEE
:105A100000EEC10A9FED221A00EEC10AB1E79FED28
:105A2000211A9FED210A10F0020F00EE810A9FED6E
:105A30001F1A00EE801AB7EE000A00EE810A18BFA6
:105A4000B1EE400A08BD01F02BFC9AE710EE100AF7
:105A50004000B0F17F4F3CBFB7EE000A08BD07D150
:105A60004FF00100FAF74AFCBDE8084001F008BC1D
:105A7000BDE8084001F000BCB61F927E336D4C3982
:105A8000DA82083CA0AA2ABE490E494683F9223F81
:105A90000000004B0000C93F00A0FD390020A233E8
:105AA0001A61342CB93AB2BACA9F2A3DDDFFFFBE53
:105AB0002DED020B019820F0004001909DED000BB0
:105AC00002B07047000000002DE9F04D2DED040BF1
:105AD0002DED0E8B96B0DDE92550279CDDF890A0CA
