:020000040800F2
:10000000E04A0020490200088D270008A51D0008CD
:1000100089270008A90600080D4600080000000016
:10002000000000000000000000000000753500081E
:10003000A1180008000000005F020008610200082B
:1000400063020008630200086302000863020008FC
:1000500063020008630200086302000863020008EC
:1000600063020008630200086302000863020008DC
:1000700063020008630200086302000863020008CC
:1000800063020008630200086302000863020008BC
:10009000AD0600086302000863020008630200085E
:1000A00063020008E13700086302000863020008E9
:1000B000FD37000851380008DD38000863020008E9
:1000C000630200086302000863020008630200087C
:1000D00063020008C13E0008CD3F00083940000817
:1000E000630200086302000863020008630200085C
:1000F000153900086302000863020008C9150008EA
:100100006302000863020008F9380008630200086F
:1001100063020008AD3C00086302000863020008A7
:10012000630200086302000863020008630200081B
:10013000630200086302000863020008630200080B
:10014000E907000863020008630200086302000870
:1001500063020008630200086302000863020008EB
:1001600063020008630200086302000863020008DB
:1001700063020008630200086302000863020008CB
:10018000630200086302000800F002F800F04CF877
:100190000AA090E8000C82448344AAF10107DA45E2
:1001A00001D100F041F8AFF2090EBAE80F0013F0E8
:1001B000010F18BFFB1A43F001031847FC88000029
:1001C0001C8900000A4410F8014B14F00F0508BF09
:1001D00010F8015B240908BF10F8014B6D1E05D013
:1001E00010F8013B6D1E01F8013BF9D1641E03D0EC
:1001F000641E01F8015BFBD19142E4D3704700001B
:100200000023002400250026103A28BF78C1FBD81F
:10021000520728BF30C148BF0B6070471FB508F0B8
:100220000AFA1FBD10B510BD00F077F81146FFF7B0
:10023000F5FF07F059F900F095F803B4FFF7F2FF66
:1002400003BC00F099F800000948804709480047BE
:10025000FEE7FEE7FEE7FEE7FEE7FEE7FEE7FEE776
:10026000FEE7FEE704480549054A064B70470000D3
:100270007937000889010008E0040020E04A0020E6
:10028000E0460020E046002010B5203AC0F00B8088
:10029000B1E81850203AA0E81850B1E81850A0E88A
:1002A0001850BFF4F5AF5FEA027C24BFB1E81850E4
:1002B000A0E8185044BF18C918C0BDE810405FEA54
:1002C000827C24BF51F8043B40F8043B08BF7047D0
:1002D000D20728BF31F8023B48BF11F8012B28BFD5
:1002E00020F8023B48BF00F8012B70477047704769
:1002F000704710B500F00CF8006810BD10B504464A
:1003000000F006F8046010BD00487047800400202B
:10031000004870478004002070477546FFF7F4FFDF
:10032000AE4605006946534620F00700854618B0E2
:1003300020B5FFF797FFBDE820404FF000064FF0D3
:1003400000074FF000084FF0000B21F00701AC460A
:10035000ACE8C009ACE8C009ACE8C009ACE8C00929
:100360008D46704710B50446AFF300802046BDE8C7
:100370001040FFF762BF000001491820ABBEFEE746
:100380002600020021B1826842F00102826003E08F
:10039000826822F001028260704700000021084A52
:1003A0001168084A1140D0E900231A4383681A43B0
:1003B000C3681A431143044AC2F80413704700008B
:1003C00004230140E030FCFF002001400146C86CDE
:1003D00080B270470246002013680B400BB1012029
:1003E00000E000207047000030B5024600200023E6
:1003F0005068104C20400D790C6844EA05242043D5
:10040000506090680C4C2040D1E903542C438D6817
:100410002C434D7944EA450420439060D06A20F48F
:1004200070000C7D641EE4B2234340EA0350D062A6
:1004300030BD0000FFFEFFFCFDF7FFC0F0B5044635
:100440000D4600200021092D11DDE068A5F10A0606
:1004500006EB4607072606FA07F18843A5F10A06C8
:1004600006EB460603FA06F10843E0600CE020695B
:1004700005EB4507072606FA07F1884305EB450615
:1004800003FA06F108432061072A0FDA606B561E53
:1004900006EB86071F2606FA07F18843561E06EB71
:1004A000860605FA06F10843606322E00D2A0FDA9A
:1004B000206BD61F06EB86071F2606FA07F1884336
:1004C000D61F06EB860605FA06F10843206310E006
:1004D000E06AA2F10D0606EB86071F2606FA07F171
:1004E0008843A2F10D0606EB860605FA06F10843DD
:1004F000E062F0BD816841F080418160704700009A
:1005000000B58DB00121042002F02CFF012108026A
:1005100002F058FF30200B9003208DF830000020AF
:100520008DF833000BA9164801F058FB0121080291
:1005300002F058FF00214FF4807002F053FF0020BA
:1005400007900A9009904FF48030089007A8FFF7B1
:1005500025FF002001908DF808008DF80900039018
:100560000490059001208DF8180001A90548FFF7B7
:100570003BFF01210348FFF705FF0DB000BD000060
:10058000000802400020014010B52DED068BB0EEB2
:10059000408AF0EE608AF0EE680AB0EE480A06F093
:1005A000A1F9274880ED000A90ED000A00F054F808
:1005B000DFED240A30EE200ABDEEC00A10EE104A2C
:1005C00022460121204804F05DF81D4890ED000A04
:1005D00000F042F8DFED1D0A30EE200ABDEEC00A41
:1005E00010EE104A22460221174804F04BF8144836
:1005F000006807F0AFFF41EC1A0BB0EE4A0AF0EECC
:100600006A0A04F0CDFCB0EE409AF0EE609A9FEDDD
:10061000100B53EC102B51EC190B07F069FC0CD2AA
:1006200000F092FE48B100220121074804F02AF8A8
:1006300000220221044804F025F8BDEC068B10BD11
:100640003000002000409CC50068004000409C45F0
:100650000000000000002040F0EE400A0E4890ED3F
:10066000000A20EE200A0D4890ED001AB8EEC11ADB
:1006700030EEC11A0A48D0ED001A01EE810A09488D
:1006800080ED000ABDEEE00A044880ED000A05484E
:1006900090ED000A7047000028020020240200208C
:1006A0002C0200203002002000BFFEE710B53C48BD
:1006B00003783C4A3C493D4800F0B8FC3A480068A1
:1006C000302803D13749087806F09EFF3648006885
:1006D00040F28721884218D13248006845F650011F
:1006E000884207D12F4890ED010AB8EEC00A304881
:1006F00080ED040A2E4890ED040ABDEEC00A10EE0B
:10070000102A2CA12D4803F0E3FE27480068B0F51D
:10071000227F18D12348006845F65601884207D148
:10072000204890ED010AB8EEC00A214880ED290A60
:100730001F4890ED290ABDEEC00A10EE102A20A134
:100740001E4803F0C5FE2249184800F0C1F82049B0
:10075000491C164800F0BCF81D49C91C134800F09C
:10076000B7F81C49114800F0B3F81B490F4800F0D6
:10077000AFF81A490D4800F0ABF8184908310B489A
:1007800000F0A6F81649094800F0A2F815490748F4
:1007900000F09EF813490831044800F099F810BDA4
:1007A000A8020020A0020020AC020020006400404B
:1007B0004803002025640D0A00000000005000409E
:1007C000636F6C6C6563743A25640D0A0000000069
:1007D0000100F0107000F030030000120800003239
:1007E000030000140800003410B52E4803782E4A88
:1007F0002E492F4800F01AFC2C48006840F2822154
:1008000088420DD12848006845F65601884207D134
:10081000254890ED010AB8EEC00A264880ED090A85
:100820002248006840F2812188420DD11E480068AC
:1008300045F65601884207D11B4890ED010AB8EEF3
:10084000C00A1C4880ED0D0A1B49194800F040F809
:100850001949491C164800F03BF81749C91C1448AF
:1008600000F036F81549124800F032F814491048E3
:1008700000F02EF813490E4800F02AF8114908310B
:100880000B4800F025F81049094800F021F80F49FD
:10089000074800F01DF80D490831054800F018F828
:1008A00010BD0000BC020020B0020020B8020020F1
:1008B00000680040480300200100F0107000F03094
:1008C0000300001208000032030000140800003486
:1008D00000220C4B994202D10023836111E0C1F345
:1008E000130201F000730BB1C2600AE001F08063F3
:1008F0000BB1026105E001F000630BB1826000E022
:10090000426070477000F0302DE9F04F8BB0064622
:100910000F4614461D46DDF850804FF00009CA46C8
:10092000CB46B5F5807F43D012DC102D34D008DCE7
:10093000012D25D0022D26D0042D27D0082D4FD1F2
:1009400027E0202D2BD0402D2CD0802D48D12CE01D
:10095000B5F5805F38D009DCB5F5007F2BD0B5F553
:10096000806F2BD0B5F5006F3AD12AE0B5F5005F66
:100970002DD0B5F5804F2DD0B5F5004F30D12CE0FE
:100980004FF000092DE04FF001092AE04FF0020975
:1009900027E04FF0030924E04FF0040921E04FF075
:1009A00005091EE04FF006091BE04FF0070918E0AB
:1009B0004FF0080915E04FF0090912E04FF00A095D
:1009C0000FE04FF00B090CE04FF00C0909E04FF07D
:1009D0000D0906E04FF00E0903E04FF00F0900E0AB
:1009E00000BF00BFB8F5807F4BD01ADCB8F1100F04
:1009F0003BD00CDCB8F1010F2BD0B8F1020F2BD09B
:100A0000B8F1040F2BD0B8F1080F52D12AE0B8F199
:100A1000200F2DD0B8F1400F2DD0B8F1800F48D164
:100A20002CE0B8F5805F38D009DCB8F5007F2BD01A
:100A3000B8F5806F2BD0B8F5006F3AD12AE0B8F541
:100A4000005F2DD0B8F5804F2DD0B8F5004F30D1D4
:100A50002CE04FF0000A2DE04FF0010A2AE04FF0A1
:100A6000020A27E04FF0030A24E04FF0040A21E0D5
:100A70004FF0050A1EE04FF0060A1BE04FF0070A90
:100A800018E04FF0080A15E04FF0090A12E04FF0A5
:100A90000A0A0FE04FF00B0A0CE04FF00C0A09E0D5
:100AA0004FF00D0A06E04FF00E0A03E04FF00F0A78
:100AB00000E000BF00BF7F48304418B1B0F5806F40
:100AC0001AD10CE04FF0090B00208DF81200142011
:100AD0008DF804000121480602F054FC0DE04FF0AF
:100AE000090B0E208DF8120040208DF80400012122
:100AF000000502F047FC00E000BF00BFC4F309009E
:100B000078BBA012A0F580108038092834D2DFE825
:100B100000F0050A0F14191E23292E000121084692
:100B200002F020FC29E00121022002F01BFC24E05D
:100B30000121042002F016FC1FE00121082002F030
:100B400011FC1AE00121102002F00CFC15E001213B
:100B5000202002F007FC10E00121402002F002FCFE
:100B60000BE009E00121802002F0FCFB05E00121FF
:100B7000080202F0F7FB00E000BF00BF5A464946FA
:100B8000204601F073F85A465146204601F06EF8AF
:100B900045EA0800099002208DF828008DF8290008
:100BA00000208DF82A0001208DF82B0009A920468D
:100BB00001F014F8304600F07FF800208DF81E0098
:100BC0008DF81F008DF820008DF821008DF822008F
:100BD0008DF823008DF81A008DF81B000B208DF87E
:100BE0001C0007208DF81D007D2F22D008DC0A2F65
:100BF0000FD0142F11D0322F13D0642F29D114E02D
:100C0000FA2F1AD0B7F5FA7F1BD0B7F57A7F20D12B
:100C10001BE0C820ADF818001CE06420ADF81800F7
:100C200018E02820ADF8180014E01420ADF81800E2
:100C300010E01020ADF818000CE00820ADF8180006
:100C400008E00420ADF8180004E00220ADF8180018
:100C500000E000BF00BF06A9304600F0D6F8002033
:100C60008DF8130001208DF814000020ADF8080065
:100C7000ADF80A00ADF80C00ADF80E00ADF81000AC
:100C800001208DF8150002A800F032F800208DF840
:100C9000050003208DF8060001208DF8070001A84B
:100CA00001F076FD01220221304600F0A5F80BB0DC
:100CB000BDE8F08F009CFFBF10B504460B4884428E
:100CC00009D10121480602F06DFB00214FF00070B0
:100CD00002F068FB08E00121880602F063FB0021B6
:100CE0004FF0806002F05EFB10BD00000064004029
:100CF00010B50021837A012202FA03F13D4A1268FD
:100D000042F001023B4B1A603A4A1C3212688A4395
:100D1000384B1C331A60027BCAB9364A0C3212684F
:100D20008A43344B0C331A604288C38842EA034337
:100D3000304A4032847A42F834300288838842EA6A
:100D400003432C4A4032847A02EBC4025360027B94
:100D5000012A19D1274A0C3212680A43254B0C3359
:100D60001A604288038842EA0343224A4032847A66
:100D700042F83430C288838842EA03431D4A403235
:100D8000847A02EBC4025360C27A3AB9194A121D3E
:100D900012688A43174B1B1D1A6006E0154A121D84
:100DA00012680A43134B1B1D1A60028932B9114A9B
:100DB000143212688A430F4B14331A600289012AD5
:100DC00006D10C4A143212680A430A4B14331A60D3
:100DD000427B012A06D1074A1C3212680A43054B9E
:100DE0001C331A60034A126822F00102014B1A6098
:100DF00010BD0000006600401AB143690B43436117
:100E000002E043698B434361704730B502460020DE
:100E10000023146824F002041460146844F00104F0
:100E2000146000E05B1C546804F001041CB94FF628
:100E3000FF74A342F6D1546804F001040CB90020F9
:100E40006CE08C79012C04D1146844F080041460A7
:100E500003E0146824F080041460CC79012C04D1E0
:100E6000146844F04004146003E0146824F0400463
:100E700014600C7A012C04D1146844F0200414602E
:100E800003E0146824F0200414604C7A012C04D18F
:100E9000146844F01004146003E0146824F0100493
:100EA00014608C7A012C04D1146844F00804146096
:100EB00003E0146824F008041460CC7A012C04D1F7
:100EC000146844F00404146003E0146824F004047B
:100ED00014608C78A407CD7844EA05640D7944EA5F
:100EE00005444D7944EA05540D886D1E2C43D461A8
:100EF000146824F001041460002300E05B1C5468B3
:100F000004F001041CB14FF6FF74A342F6D15468FB
:100F100004F001040CB1002000E0012030BD0246C5
:100F2000002019B9D36803F0030006E0012903D1BA
:100F3000136903F0030000E00020704710B500F5CE
:100F4000D87303EB01131B6803F004031372137AC5
:100F500053B900F5D87303EB01131B6840F2FF741B
:100F600004EA5353136009E000F5D87303EB01134F
:100F70001B686FF0604404EAD303536000F5D87334
:100F800003EB01131B6803F00203537200F5D873DF
:100F900003EB01135B6803F00F03937200F5D87342
:100FA00003EB01135B681B0AD37400F5D87303EBE2
:100FB00001139B68D37200F5D87303EB01139B6890
:100FC0001C0A147300F5D87303EB01139B681C0C07
:100FD000547300F5D87303EB01139B681B0E9373D6
:100FE00000F5D87303EB0113DB68D37300F5D873F6
:100FF00003EB0113DB681C0A147400F5D87303EBD0
:101000000113DB681C0C547400F5D87303EB011357
:10101000DB681B0E937421B9C36843F02003C360DF
:1010200003E0036943F02003036110BD2DE9F041A3
:1010300086B080460D4616461F46002400214046D5
:10104000FFF76DFF18B9002006B0BDE8F08101AAD6
:1010500000214046FFF772FF002405E00DF10F006C
:10106000005D3055601CC4B2BC42F7DB01982860BB
:101070000120E9E710B502460020936803F0806381
:10108000B3F1806F00D110E0936803F00063B3F117
:10109000006F01D1012008E0936803F08053B3F1A1
:1010A000805F01D1022000E00420042874D002F502
:1010B000C07303EB00131B6803F0010402F5C07357
:1010C00003EB00131C600B7A7BB94B7A0C8843EA64
:1010D000445302F5C07404EB00142468234302F562
:1010E000C07404EB0014236010E00B7A4C6843EAF0
:1010F000C4034C7A234302F5C07404EB0014246843
:10110000234302F5C07404EB001423608B7A03F0D0
:101110000F038B7202F5C07303EB00135B6823F0BF
:101120000F0402F5C07303EB00135C6002F5C0739B
:1011300003EB00135B688C7A234302F5C07404EB65
:10114000001463608B7B1C064B7B44EA03440B7BDF
:1011500044EA0323CC7A234302F5C07404EB001461
:10116000A3608B7C1C064B7C44EA03440B7C44EA62
:101170000323CC7B234302F5C07404EB0014E3602B
:1011800002F5C07303EB00131B6843F0010402F582
:10119000C07303EB00131C6010BD000010B50246C5
:1011A000002321B1012907D002290FD109E090685D
:1011B0001D4C00EA04030BE090681C4C00EA040399
:1011C00006E090681A4C00EA040301E0002300BF27
:1011D00000BF184C181BA34216D007DC83B16FF078
:1011E0008060184470B1022818D111E0B0F5007F7A
:1011F00010D0114C204448B1B0F5003F0ED10BE0A7
:1012000002230DE000230BE0002309E0002307E0A8
:10121000012305E0012303E0012301E0002300BFD7
:1012200000BFD8B210BD0000030000040003000896
:1012300000000310000100080001FFF72DE9F04352
:1012400085B081460D4690461E46002400950195C6
:1012500000208DF808008DF809008DF80A6000BFA5
:1012600006E018F804100DF10B000155601C84B263
:10127000B442F6DB69464846FFF7FCFE0746002409
:1012800000BF39464846FFF789FF0128F9D105B06C
:10129000BDE8F08310B588B004460121082002F0B3
:1012A00061F80121480402F06DF807220521244865
:1012B00000F0DCFC07220621214800F0D7FC60206A
:1012C000069002208DF81C008DF81D0000208DF87E
:1012D0001E0001208DF81F0006A9194800F07EFCB1
:1012E00002940020ADF80C00ADF80E00ADF810002F
:1012F000ADF814000C20ADF8120002A9114803F05B
:101300007DF840210F4802F095FF26208DF804005B
:1013100000208DF8050002208DF8060001208DF8D0
:10132000070001A801F034FA012240F225510548D6
:1013300003F03FF80121034802F094FF08B010BD0C
:10134000000C02400044004010B501210F4800F09D
:10135000B0FC01280BD101210D4800F0AAFC0128A6
:1013600005D10C480068401C0A49086002E00020D2
:101370000849086007480068822804DD0020054904
:101380000860012010BD0020FCE7000000000240C2
:10139000000802402C00002010B52DED048B3A48C7
:1013A000D0F8AC003949086006F060F83648D0ED56
:1013B000100A30EEC00A364880ED000A06F05CF8EC
:1013C0003148D0ED110A30EEC00A324880ED000AF3
:1013D0002F48006807F0BEF841EC190BB0EE490A3F
:1013E000F0EE690A03F0DCFDB0EE408AF0EE608AB0
:1013F0009FED290B53EC102B51EC180B06F078FDE8
:1014000026D22448006807F0A5F841EC190BB0EE8D
:10141000490AF0EE690A03F0C3FDB0EE408AF0EE2F
:10142000608A9FED1D0B53EC102B51EC180B06F04E
:101430005FFD0DD2144890ED080AB5EEC00AF1EE3A
:1014400010FA05D016480068401C1549086002E0F3
:1014500000201349086012480068822810DD06F059
:1014600005F8104880ED000A06F006F80E4880EDF9
:10147000000A07200449C1F8AC00002008490860B0
:10148000BDEC048B10BD0000480300205C00002070
:101490008C00002090000020000000000000F03FC1
:1014A000880000206000002064000020F0EE400A68
:1014B0000E4890ED000A20EE200A0D4890ED001A2B
:1014C000B8EEC11A30EEC11A0A48D0ED001A01EE8A
:1014D000810A094880ED000ABDEEE00A044880ED6B
:1014E000000A054890ED000A704700003C0100200A
:1014F00038010020400100204401002010B52DEDEE
:10150000028BB0EE408AB0EE480A00F00FF8BDEE54
:10151000C00A10EE104A22460821034803F0B2F830
:10152000BDEC028B10BD000000640040F0EE400AEC
:101530009FED020A20EE800A7047000000008045FF
:10154000024600EE102AB8EEC00ADFED1C0AB4EE27
:10155000E00AF1EE10FA0ADC00EE102AB8EEC00A3A
:10156000DFED170AB4EEE00AF1EE10FA03D2002024
:10157000144B186002E00120124B186000EE101AA4
:10158000B8EEC00ADFED0D0AB4EEE00AF1EE10FA93
:101590000ADC00EE101AB8EEC00ADFED090AB4EE5C
:1015A000E00AF1EE10FA03D20020064B186002E0C8
:1015B0000120044B186003480068704700A8874565
:1015C00000808E431401002010B50749074800F041
:1015D000EBF838B10021054800F024F8024903482F
:1015E00000F006F810BD000000800028B86002403E
:1015F0000246094B9A4201D2084801E006481038D9
:1016000001F000531BB1064B0B40C36002E0044BDA
:101610000B4083607047000010640240006002408D
:101620007D0F7D0F21B1026842F00102026003E0EC
:10163000026822F00102026070470000016821F098
:10164000010101600021016041608160C1600161B0
:10165000212141614A49884204D13D21484A103A3A
:1016600091608CE046491831884205D14FF474618D
:10167000434A103A916082E041493031884205D1B5
:101680004FF474113E4A103A916078E03C49483179
:10169000884205D14FF07461394A103A91606EE08A
:1016A00037496031884204D13649354A103AD16011
:1016B00065E033497831884204D13349304A103AE1
:1016C000D1605CE02E499031884204D12F492C4AE8
:1016D000103AD16053E02A49A831884205D14FF031
:1016E0003D51274A103AD16049E02949884204D146
:1016F0003D21274A083A116041E0254918318842C6
:1017000005D14FF47461224A083A116037E020494C
:101710003031884205D14FF474111D4A083A1160E6
:101720002DE01B494831884205D14FF07461184AB9
:10173000083A116023E016496031884204D111490A
:10174000134A121F11601AE011497831884204D1FE
:101750000D490F4A121F116011E00D499031884266
:1017600004D10A490A4A121F116008E00849A83149
:10177000884204D14FF03D51054A121F1160704755
:10178000106002403D000020400F002000003D207E
:1017900010640240014600200A6802F001020AB10A
:1017A000012000E00020704770B5024600200024B0
:1017B0000025124EB24201D2114B01E00F4B103BFB
:1017C000104E0E4036B11E2606EAD124166806EAEF
:1017D000040502E0566906F0800501F000560EB1DE
:1017E0005C6800E01C68084E344004EA010616B14B
:1017F0000DB1012000E0002070BD00001064024027
:10180000006002403C0F3C0F7D0F7D0F10B501F0D2
:1018100080034BB122B1436943F08003436103E08D
:10182000436923F08003436180290BD02AB1036808
:1018300001F01E042343036004E0036801F01E046A
:10184000A343036010BD000010B500220268134BD3
:101850001A40CC680B6823434C6923438C692343AB
:10186000CC6923430C6A23434C6A23438C6A234389
:101870004C6B23438C6B23431A430260426922F072
:101880000702D1E90B3423431A4342610B694360D9
:101890004B6883608B68C36010BD00003F801CF004
:1018A000704700B5034604E04FF47A7000F004F886
:1018B0005B1E002BF8D100BDA82141434FF0E02270
:1018C00051610521116100BF4FF0E021096901F468
:1018D00080310029F8D004214FF0E02211617047D7
:1018E0007CB505F06BFC054605F092FC06463146DA
:1018F0002846FFF725FEA4490860A448007800F0B8
:10190000010088B105F086FBA14908609F48006886
:1019100020F001009D4908609D48006805F02EFCFC
:101920009C4880ED000A84E09848007800F00200AE
:10193000002858D09548007800F00800002878D09A
:10194000954890ED0F0AF0EE400A924890ED000A9B
:10195000FEF71AFEFFF7F8FC00286AD08FA293A1C9
:10196000944802F0B5FD8DA290A1924802F0B0FD1E
:101970008AA28EA18F4802F0ABFD88A28BA18D4870
:1019800002F0A6FD8048006850B18148006805F06B
:1019900009F901208849086000207C49086048E076
:1019A0007B48006805F0E0FA84480068401C8349E1
:1019B000086000208049086080480068022804DB35
:1019C0000120086000207D49086000206F49086000
:1019D0000846006840F0010008600846006840F0D2
:1019E0000400086025E06948007800F0040000B3B6
:1019F0006748006800F096F98DED000ACDED010A08
:101A00009DED011AF0EE410A9DED001AB0EE410A7B
:101A100001F004F901280CD100205C490860084657
:101A2000006840F0020008600846006840F00800C6
:101A3000086061480068012812D15748007820F0FA
:101A40001000554908700B205049086000205A4981
:101A500008605A4908605A49086048608860C86050
:101A6000554858A10268534802F032FD474855A135
:101A70000268504802F02CFD434852A102684D48CC
:101A800002F026FD42484FA102684A4802F020FDBC
:101A9000404890ED000ABDEEC00A10EE102A49A1A0
:101AA000444802F015FD484890ED000ABDEEC00A1A
:101AB00010EE102A43A13F4802F00AFD434890ED82
:101AC000000ABDEEC00A10EE102A3EA1394802F00D
:101AD000FFFC3F4890ED000ABDEEC00A10EE102A50
:101AE00038A1344802F0F4FC2B4890ED100ABDEE0A
:101AF000C00A10EE102A33A12E4802F0E9FC264855
:101B000090ED110ABDEEC00A10EE102A2DA1294851
:101B100002F0DEFC05F0AAFCBDEEC00A10EE104A91
:101B2000224628A1234802F0D3FC05F0A5FCBDEE17
:101B3000C00A10EE104A224622A11E4802F0C8FC3C
:101B4000154890ED0F0ABDEEC00A10EE102A1DA137
:101B5000184802F0BDFC19481AA10268154802F0A5
:101B6000B7FC2A4617A1134802F0B2FC324615A171
:101B7000104802F0ADFC084816A1D0F8AC200D4882
:101B800002F0A6FC7CBD000030010020080100200E
:101B9000280100202C0100204803002068616861B2
:101BA0006861686168686135000000002573090D8F
:101BB0000A00000000500040040100202401002021
:101BC000F803002025640900F8000020FC00002034
:101BD000000100202564090D0A000000F0B50A4646
:101BE00000210023002400BF3DE0012505FA01F398
:101BF000156805EA03049C4234D105684F000326AA
:101C0000BE40B543056015794E00B54006683543C2
:101C100005601579012D02D01579022D16D1856840
:101C20004F000326BE40B543856055794E00B54050
:101C3000866835438560456801268E40B54345601A
:101C4000456896798E40B6B235434560C5684F0009
:101C50000326BE40B543C560D5794E00B540C66881
:101C60003543C560491C1029BFD3F0BDF0B5002332
:101C700000244D07ED0E02FA05F3CE1000F1200509
:101C800055F826504E07F70E0F26BE40B543CF102D
:101C900000F1200646F82750CE1000F1200555F837
:101CA000265045EA0304CE1000F1200545F82640F1
:101CB000F0BD0246002013690B400BB1012000E08B
:101CC00000207047418370470183704710B5044678
:101CD0000723012221460848FEF7B0FB0648FEF71D
:101CE00009FC00BF02210448FEF774FB0028F9D06C
:101CF0000148FEF76BFB10BD002001402DE9F041CB
:101D000007460C460025002605E03846FFF7DEFFB3
:101D10000544701CC6B2A642F7DBB5FBF4F080B2F6
:101D2000BDE8F0810CB530B101280DD0022814D0E7
:101D3000032824D11AE09FED150A8DED000A9FEDCE
:101D4000140A8DED010A1AE09FED120A8DED000ACA
:101D50009FED0F0A8DED010A11E09FED0F0A8DED49
:101D6000000A9FED0E0A8DED010A08E09FED0A0AB8
:101D70008DED000A9FED0A0A8DED010A00BF00BF3C
:101D80009DED000ADDED010A0CBD00000000E1C47C
:101D9000000016450000E1440000000000408345BB
:101DA0000000164400BFFEE708B50020034653229A
:101DB000632100904FF0804001F0E4FD01200023FA
:101DC00040F2473240F2E7310090164801F0DAFD68
:101DD0004FF400704310144A4FF4FA710090134806
:101DE000FEF792FD402020230F4A4FF4FA71009035
:101DF0000F48FEF789FDFEF783FB01F0E7FE01F0D7
:101E00008FFA4FF4E13001F05BFC4FF4E130FFF763
:101E100041FA4FF4E13001F027FA4FF4E13001F0DC
:101E2000EFFE08BD000400400004024000640040D2
:101E30000068004010B56B48406D082872D2DFE89A
:101E400000F0040F1A263248729D012100209FEDF8
:101E5000661ADFED660A9FED660A00F049FABFE0F8
:101E6000012108469FED631ADFED600A9FED620ACB
:101E700000F03EFAB4E04FF0FF3100209FED5F1A12
:101E8000DFED5F0A9FED5C0A00F032FAA8E04FF048
:101E9000FF3101209FED5B1ADFED590A9FED540AD7
:101EA00000F026FA9CE04F4890ED100ADFED560A4C
:101EB000B4EEE00AF1EE10FA0ADD90ED100ADFED63
:101EC000530AB4EEE00AF1EE10FA01D205214165A1
:101ED00086E0444890ED100ADFED4D0AB4EEE00ACA
:101EE000F1EE10FA11DD90ED100AB5EEC00AF1EE38
:101EF00010FA0AD290ED110ADFED460AB4EEE00ABC
:101F0000F1EE10FA01D206214165DFED431A9FED93
:101F1000361ADFED420A9FED420A00F07FFCFFF720
:101F20003BFA5DE05BE02F4890ED100ADFED3D0AE3
:101F3000B4EEE00AF1EE10FA13DD90ED100ADFEDD9
:101F4000340AB4EEE00AF1EE10FA0AD290ED110A6A
:101F5000DFED300AB4EEE00AF1EE10FA01D207210B
:101F60004165DFED2D1A9FED201ADFED2F0A9FED61
:101F70002C0A00F053FCFFF70FFA31E0194890EDFE
:101F8000110ADFED2A0AB4EEE00AF1EE10FA19DDCB
:101F900090ED110ADFED260AB4EEE00AF1EE10FA38
:101FA00010D290ED100ADFED230AB4EEE00AF1EE54
:101FB00010FA07DD007820F001000A4908700021BE
:101FC00008484165DFED141A9FED071ADFED180A86
:101FD0009FED130A00F022FCFFF7DEF900E000BFDE
:101FE00000BF10BD480300200000000000805445E1
:101FF000000016440000B442000016C40000344340
:102000000000AF440000B4C2000048430000964303
:102010000000C8C20080D4440000164500808944F6
:102020000000E144000048C30000C8440000FA4436
:10203000004003450080ED4410B52DED0E8BF0EE11
:10204000408AB0EE608AB0EE419A044605F090F8FE
:102050000446642C0AD19FED8B0A8B4880ED000A60
:102060009FED8A0A8A4880ED000A0BE0012C09D115
:102070009FED880A844880ED000A9FED840A844819
:1020800080ED000AB0EE490A03F022FE9FED821AAD
:10209000F0EE680A41EE400AF0EE608AB0EE490ABE
:1020A00002F0D6FE9FED7C1AF0EE480A41EE000ADF
:1020B000B0EE608A744890ED000A38EEC00A20EE57
:1020C000000A7348D0ED000A78EE600A90ED001A1D
:1020D00038EE411A00EE810AF1EEC00A9FED6F0A58
:1020E00030EE800A6E4880ED000A9FED6E0AB0EE79
:1020F000001AF1EEC10A80EE201A90ED000A61EE9E
:10210000000A694890ED000A654890ED001ADFED7D
:10211000671A11EE810AB1EEC01A80EE810A644896
:1021200080ED000AD0ED000A9FED620A9FED621A71
:1021300011EE200ADFED610A20EE200A604880EDF2
:10214000000A514890ED000A30EE680A5D4880EDC3
:10215000000A4F4890ED000A30EE480A5A4880EDD8
:10216000000A5848006806F0F5F941EC1D0B564886
:10217000006806F0EFF941EC1E0BB0EE4D1AF0EEE0
:102180006D1AB0EE4E0AF0EE6E0A02F005FDB0EEEA
:1021900040CAF0EE60CA9FED4D0B53EC102B51EC92
:1021A0001C0B05F0E1FE41EC1B0B9FED4A0B53ECC1
:1021B000102B05F0EBFC41EC1A0B05F0F9FB47493D
:1021C0000860084690ED000ADFED450A30EE600A2F
:1021D00080ED000A90ED000ADFED420AB4EEE00A5D
:1021E000F1EE10FA08DD90ED000ADFED3F0A30EE67
:1021F000600A80ED000A11E0384890ED000ADFED3A
:102200003B0AB4EEE00AF1EE10FA07D290ED000AB4
:10221000DFED350A30EE200A80ED000A2F4890ED00
:10222000000A39EE400A264880ED010A90ED010AC5
:10223000DFED2C0AB4EEE00AF1EE10FA08DD90EDC5
:10224000010ADFED290A30EE600A80ED010A11E093
:102250001B4890ED010ADFED250AB4EEE00AF1EE2D
:1022600010FA07D290ED010ADFED1F0A30EE200AC6
:1022700080ED010A124890ED000AD0ED010ABDEC94
:102280000E8B10BD008022C3BC0000209AF51145C2
:10229000C00000200080224352B8EC42AE47A94162
:1022A000B000002000001D43B4000020B6F39D3FA5
:1022B000B800002083C0C24052F26A3C48E17A3F35
:1022C000A8000020C4000020C8000020000000007A
:1022D0000080664000000060FB210940CC00002027
:1022E0000000B442000034430000B443000034C393
:1022F00070B52DED0A8BB0EE408AF0EE608AB0EE3C
:10230000419A05460C46FE4890ED100AFD4880EDC6
:10231000000AFB4890ED110AFB4880ED000AF848DE
:1023200090ED0F0AF94880ED000AF948006802F0C4
:102330006FF915B1012D7DD139E1F549096804FB2B
:1023400001F04FF4EB71484300EE100AB8EEC00AFA
:1023500030EE080AEB48D0ED000A30EEC00AE8483B
:1023600080ED120AE948D0ED000AB0EE490A04F007
:10237000B9FAE34880ED130AE549096804FB01F066
:102380004FF4AF71484300EE100AB8EEC00A70EE89
:10239000280A00EE104AB8EEC00A60EE800A00EE8D
:1023A000104AB8EEC00AD84890ED001A40EE410A33
:1023B000D348C0ED140AD648006805F0DAFA06469C
:1023C00005F06BFD41EC1A0BCD4890ED140A10EEB0
:1023D000101A084606F0BEF841EC1C0BB0EE4C0A91
:1023E000F0EE6C0A02F0DCFDB0EE40BAF0EE60BA3E
:1023F00053EC1A2B51EC1B0B05F0B4FE7DD2C448F4
:102400000068012850DABE48D0ED120AB0EE600A2A
:1024100005F09CF8F0EE400AB94890ED131A00EE72
:10242000104AB8EEC00A00EE201AB0EE412AB0EE13
:10243000420A00E09EE1FEF70FF9B148D0ED0C0A28
:1024400030EE200ABDEEC00A10EE106A32460121BD
:10245000B04802F017F9AA48D0ED120AB0EE600AAF
:1024600005F074F8F0EE400AA54890ED131A00EE5E
:10247000104AB8EEC00A00EE201AB0EE412AB0EEC3
:10248000420AFEF7E9F89E48D0ED0C0AF1EE600A28
:1024900030EE200ABDEEC00A10EE106A324602216C
:1024A0009C4802F0EFF881E09948006801287DDB44
:1024B0009348D0ED120AB0EE600A04F053FAF0EE41
:1024C000400A8F4890ED131A00EE104AB8EEC00A89
:1024D00000EE201AB0EE412AB0EE420AFEF7BCF838
:1024E0008748D0ED0C0A30EE200ABDEEC00A10EE8F
:1024F000106A32460121874800E02AE002F0C2F863
:102500007F48D0ED120AB0EE600A04F02BFAF0EE2C
:10251000400A7B4890ED131A00EE104AB8EEC00A4C
:1025200000EE201AB0EE412AB0EE420AFEF794F80F
:102530007348D0ED0C0AF1EE600A30EE200ABDEED1
:10254000C00A10EE106A32460221724802F09AF870
:102550002CE06F48006805F00CFA064605F09DFC7B
:1025600041EC1A0B664890ED140A10EE101A08465A
:1025700005F0F0FF41EC1C0BB0EE4C0AF0EE6C0ADB
:1025800002F00EFDB0EE40BAF0EE60BA53EC1A2B3A
:1025900051EC1B0B05F0ACFC08D29FED5F0A5848CC
:1025A00080ED140A406D401C55494865E3E05849E8
:1025B000096804FB01F04FF4AF71484300EE100AC4
:1025C000B8EEC00A30EE280A4F48D0ED000A30EECF
:1025D000C00A4B4880ED120A4C48D0ED000AB0EE1C
:1025E000490A04F07FF9464880ED130A4849096812
:1025F00004FB01F04FF4EB71484300EE100AB8EE13
:10260000C00A38EE400A3F48D0ED000A30EE600ABA
:102610003B4880ED140A3E48006805F0AAF90646DA
:1026200005F03BFC41EC1A0B354890ED140A10EE16
:10263000101A084605F08EFF41EC1C0BB0EE4C0A58
:10264000F0EE6C0A02F0ACFCB0EE40BAF0EE60BA0C
:1026500053EC1A2B51EC1B0B05F084FD4DD228488E
:10266000D0ED120AB0EE600A04F07CF9F0EE400AF8
:10267000234890ED131A00EE104AB8EEC00A00EE9F
:10268000201AB0EE412AB0EE420AFDF7E5FF1C48E1
:10269000D0ED0C0A30EE200ABDEEC00A10EE106A32
:1026A000324601211B4801F0EDFF1548D0ED120A1A
:1026B000B0EE600A04F056F9F0EE400A104890EDD2
:1026C000131A00EE104AB8EEC00A00EE201AB0EE5F
:1026D000412AB0EE420AFDF7BFFF0948D0ED0C0ACF
:1026E000F1EE600A30EE200ABDEEC00A10EE106A6C
:1026F00032460221074801F0C5FF054800680DE099
:10270000480300206C0200207002002074020020A8
:1027100078020020006800400000000005F029F960
:10272000064605F0BAFB41EC1A0B164890ED140A68
:1027300010EE101A084605F00DFF41EC1C0BB0EE30
:102740004C0AF0EE6C0A02F02BFCB0EE40BAF0EE50
:1027500060BA53EC1A2B51EC1B0B05F0C9FB08D2E5
:102760001FED130A074880ED140A406D401C05490F
:10277000486500E000BF00BFFEF70EFEBDEC0A8B0F
:1027800070BD00004803002000BFFEE700BFFEE769
:1027900070B5002100230F22C4781CB3174C2468A5
:1027A00004F4E064C4F5E064C4F30721C1F1040457
:1027B000E3B20A4144789C40E1B28478144021435A
:1027C0000C07210E0E4C05786155047804F01F05A6
:1027D0000124AC4005786D11AD0005F1E025C5F888
:1027E000004109E0047804F01F050124AC40054DC8
:1027F0000678761145F8264070BD00000CED00E02B
:1028000000E400E080E100E002490143024A116077
:10281000704700000000FA050CED00E070B52DEDEA
:10282000108BF0EE40AAB0EE608AB0EE41DAF0EE26
:10283000618A04F023FDE04880ED000A04F09AFD6F
:10284000DE4880ED000A04F047FCDD4880ED000A18
:10285000D94890ED000A30EE4D0A20EE000AD74824
:10286000D0ED000A70EEE80A90ED001A31EE681A19
:1028700000EE810A10EE101A084605F06BFE41ECDE
:102880001C0BB0EE4C0AF0EE6C0A03F0E9FAB0EE65
:1028900040BAF0EE60BA51EC1B0B05F089F8C9495B
:1028A0000860084690ED000A30EE480AC64880ED00
:1028B000000AC14890ED000A30EE4D0AC34880ED91
:1028C000000ABE4890ED000A30EE680AC04880ED6C
:1028D000000A90ED000ABD48D0ED000A80EE201AF3
:1028E000BC4880ED001A90ED000AFFEE000A80EE71
:1028F000801A11EE105A284605F02CFE41EC1E0BF2
:10290000B0EE4E0AF0EE6E0A01F0DAFFB0EE40CA09
:10291000F0EE60CA9FEDB00B53EC102B51EC1C0B8A
:1029200005F022FB41EC1F0B9FEDAD0B53EC102B80
:1029300005F02CF941EC1B0B05F03AF8AA490860A8
:10294000A348006805F006FE41EC1C0BB0EE4C0AF3
:10295000F0EE6C0A02F024FBB0EE40BAF0EE60BA82
:102960009FEDA20B53EC102B51EC1B0B05F0C0FAA2
:102970001AD2964890ED000AB5EEC00AF1EE10FAB0
:1029800005DD9FED9C0A9C4880ED000A0CE08F4815
:1029900090ED000AB5EEC00AF1EE10FA04D29FEDF8
:1029A000970A954880ED000A8848006805F0D2FD36
:1029B00041EC1C0BB0EE4C0AF0EE6C0A02F0F0FA9F
:1029C000B0EE40BAF0EE60BA9FED880B53EC102BDE
:1029D00051EC1B0B05F08CFA1AD27D4890ED000AE1
:1029E000B5EEC00AF1EE10FA05DD9FED850A8248CA
:1029F00080ED000A0CE0764890ED000AB5EEC00AC2
:102A0000F1EE10FA04D29FED7F0A7B4880ED000AB8
:102A10006E4890ED000AB5EEC00AF1EE10FA27DD1F
:102A20006B4890ED000AB5EEC00AF1EE10FA0ADD2F
:102A30006D4890ED000ADFED720A30EE200A6E4814
:102A400080ED000A43E0624890ED000AB5EEC00A4E
:102A5000F1EE10FA3BD2644890ED000ADFED680A0F
:102A600030EEC00AB1EE400A634880ED000A2EE065
:102A7000564890ED000AB5EEC00AF1EE10FA26D2E3
:102A8000534890ED000AB5EEC00AF1EE10FA0ADDE7
:102A9000554890ED000ADFED5A0A30EE200A5648FC
:102AA00080ED000A13E04A4890ED000AB5EEC00A36
:102AB000F1EE10FA0BD24C4890ED000ADFED500A0F
:102AC00030EEC00AB1EE400A4B4880ED000A3C48A7
:102AD000D0ED000A484890ED000A03F003FF4A4891
:102AE00080ED000A9FED490A78EE000A80EE880A20
:102AF00020EE2A0AFDEEC09A9FED440A78EE400AC5
:102B000080EE880A20EE2A0ABDEEC0AAF8EEE90A95
:102B10009FED3F1A80EE810ADFED3E0A20EE200A8B
:102B2000BDEEC09AF8EECA0A9FED391A80EE810A0E
:102B3000DFED380A20EE200ABDEEC00A10EE104A82
:102B4000214890ED000A04F0ABFE2F48D0ED000ABA
:102B500030EE200AB0EE40BAFEF7A8FCF8EEC90A43
:102B600030EE200ABDEEC00A10EE105A2A460121AE
:102B7000294801F087FD144890ED000A04F090FE0A
:102B80002148D0ED000A30EE200AB0EE40BAFEF740
:102B90008DFC604200EE900AF8EEE00A30EE200A6A
:102BA000BDEEC00A10EE105A2A4602211A4801F062
:102BB00069FDBDEC108B70BD480100204C01002068
:102BC000500100205C010020640100206C01002005
:102BD00070010020600100200000000000806640BD
:102BE00000000060FB210940680100200000000097
:102BF0000000F03F000000005401002000003443BA
:102C00000000B4420000B4C2580100200000594343
:102C10006766BC43000080450068004010B52DED9C
:102C20000C8BB0EE408AF0EE608AFE4890ED100A00
:102C3000FD4880ED000AFB4890ED110AFB4880ED4D
:102C4000000AF84890ED0F0AF94880ED000AF748AD
:102C500090ED000A30EE680A10EE101A084605F0F2
:102C600079FC41EC1D0B9FEDF31BB0EE4D0AF0EE2D
:102C70006D0A02F0A1F9B0EE40BAF0EE60BAEA488F
:102C800090ED000A30EE480A10EE101A084605F0E2
:102C900061FC41EC1D0B9FEDE71BB0EE4D0AF0EE21
:102CA0006D0A02F089F9B0EE40CAF0EE60CA53EC4A
:102CB0001B2B51EC1C0B04F0ADFE41EC1A0BB0EEDB
:102CC0004A0AF0EE6A0A03F0CBF8B0EE409AF0EE52
:102CD000609A51EC190B04F06BFED8490860D24899
:102CE00090ED000A30EE480AD54880ED000ACF4842
:102CF00090ED000A30EE680AD24880ED000A90EDAF
:102D0000000ACF48D0ED000A80EE201ACE4880EDB0
:102D1000001A006805F01EFC41EC1C0BB0EE4C0ADA
:102D2000F0EE6C0A01F0CCFDB0EE40BAF0EE60BA05
:102D30009FEDC60B53EC102B51EC1B0B05F014F957
:102D400041EC1A0B9FEDC30B53EC102B04F01EFF4C
:102D500041EC190B04F02CFEC0490860B84890ED16
:102D6000000ADFEDBF0A20EE200AFFEE000AB4EEF3
:102D7000E00AF1EE10FA27DB90ED000ADFEDB80A69
:102D800020EE200AF7EE000AB4EEE00AF1EE10FAA7
:102D90001AD8AC4890ED000AB5EEC00AF1EE10FA70
:102DA00005DD9FEDB00AB04880ED000A0CE0A548B3
:102DB00090ED000AB5EEC00AF1EE10FA04D29FEDD4
:102DC000AB0AA94880ED000A9D4890ED000AB5EED7
:102DD000C00AF1EE10FA25DD9A4890ED000AB5EE32
:102DE000C00AF1EE10FA0ADD9C4890ED000ADFED12
:102DF000A00A30EE200A9C4880ED000A41E091488C
:102E000090ED000AB5EEC00AF1EE10FA39D29348FF
:102E100090ED000ADFED960A30EE200A924880ED30
:102E2000000A2EE0864890ED000AB5EEC00AF1EEE9
:102E300010FA26D2834890ED000AB5EEC00AF1EEF2
:102E400010FA0ADD854890ED000ADFED890A30EEC0
:102E5000600A854880ED000A13E07A4890ED000A88
:102E6000B5EEC00AF1EE10FA0BD27C4890ED000AE4
:102E7000DFED7F0A30EEC00AB1EE400A7A4880EDFD
:102E8000000A6B48D0ED000A774890ED000A03F085
:102E900029FD784880ED000A6848006805F05AFB73
:102EA00041EC1A0BB0EE4A0AF0EE6A0A02F078F82A
:102EB000B0EE409AF0EE609A9FED6F0B53EC102B42
:102EC00051EC190B05F04EF923D26A4890ED000A37
:102ED000FDF7C2FBDFED6A0A30EE200ABDEEC00A44
:102EE00010EE104A22460121664801F0CBFB6148F2
:102EF00090ED000AFDF7B0FBDFED630A30EE200A2B
:102F0000BDEEC00A10EE104A224602215D4801F0D3
:102F1000B9FB4A48006805F01DFB41EC1A0BB0EE06
:102F20004A0AF0EE6A0A02F03BF8B0EE409AF0EE80
:102F3000609A9FED560B53EC102B51EC190B05F0DA
:102F400011F93CD23D48006805F004FB41EC1A0B36
:102F5000B0EE4A0AF0EE6A0A02F022F8B0EE409AA9
:102F6000F0EE609A9FED440B53EC102B51EC190BD3
:102F700004F0BEFF23D23F4890ED000AFDF76CFB42
:102F8000DFED440A30EE200ABDEEC00A10EE104A12
:102F9000224601213B4801F075FB364890ED000ABE
:102FA000FDF75AFBDFED3C0A30EE200ABDEEC00A09
:102FB00010EE104A22460221324801F063FB1F48FE
:102FC000006805F0C7FA41EC1A0BB0EE4A0AF0EEC1
:102FD0006A0A01F0E5FFB0EE409AF0EE609A9FEDCC
:102FE0002B0B53EC102B51EC190B04F081FF7FD20B
:102FF0001248006805F0AEFA41EC1A0BB0EE4A0A2E
:10300000F0EE6A0A01F0CCFFB0EE409AF0EE609A62
:103010009FED220B53EC102B51EC190B05F0A2F88D
:1030200066D23FE048030020340000203800002032
:103030003C00002000000000000000404C00002088
:10304000540000205800002048000020000000002C
:103050000080664000000060FB2109405000002015
:1030600000007A44000034C340000020000000004B
:103070000000B442440000200000000000406F4007
:103080000080BB45006800400080BBC50000000018
:103090000000694000007A4500007AC50000000089
:1030A00000005440334890ED000AFDF7D5FADFEDFB
:1030B000320A30EE200ABDEEC00A10EE104A224657
:1030C00001212E4801F0DEFA2A4890ED000AFDF7B2
:1030D000C3FADFED2B0A30EE200ABDEEC00A10EE77
:1030E000104A22460221254800E001E001F0CAFA18
:1030F0002448006805F02EFA41EC1A0BB0EE4A0A9B
:10310000F0EE6A0A01F04CFFB0EE409AF0EE609AE1
:103110009FED1D0B53EC102B51EC190B05F022F811
:1031200026D21848006805F015FA41EC1A0BB0EEEB
:103130004A0AF0EE6A0A01F033FFB0EE409AF0EE70
:10314000609A1FED2A0B53EC102B51EC190B04F075
:10315000CFFE0DD200220121084801F093FA00228F
:103160000221064801F08EFA0120BDEC0C8B10BD47
:103170000020FAE7440000200000FA440068004004
:103180000000FAC44C000020000000000000000015
:103190002DE9F04389B081460D4617469846002434
:1031A000304B0FCB05AE0FC605F540700090019077
:1031B00000208DF808008DF8090008208DF80A001D
:1031C0001FB944F25010059002E045F250200590DE
:1031D000CDF8188000243FE005A810F834008DF8E1
:1031E0000B0005A830F83400010A8DF80C1005A872
:1031F00050F83400010C8DF80D1005A850F834007B
:10320000000E8DF80E0005A800EBC40001798DF8C2
:103210000F1005A800EBC4008088010A8DF810107B
:1032200005A800EBC4004068010C8DF8111005A83A
:1032300000EBC4004068000E8DF812006946484655
:10324000FDF718FF064600BF31464846FDF7A6FFCA
:103250000128F9D1601CC4B2022CBDDB09B0BDE865
:10326000F08300001C88000810B588B004460121D6
:10327000082000F077F80121880400F083F8072285
:1032800008212548FEF7F2FC072209212248FEF713
:10329000EDFC4FF44070069002208DF81C008DF874
:1032A0001D0000208DF81E0001208DF81F0006A9CA
:1032B0001948FEF793FC4FF4E13002900020ADF87E
:1032C0000C00ADF80E00ADF81000ADF814000C20A5
:1032D000ADF8120002A9114801F090F801210F4841
:1032E00000F0C0FF40210D4800F0A4FF012240F291
:1032F00025510A4801F05DF827208DF804000020D0
:103300008DF8050001208DF806008DF8070001A852
:10331000FFF73EFA08B010BD000C02400048004024
:103320001CB50121102000F01DF850200090012054
:103330008DF8040000208DF8060003208DF80500AC
:1033400002208DF8070069460548FEF747FC10216A
:103350000348FEF7B9FC40210148FEF7B3FC1CBD51
:103360000010024029B1064A12680243044B1A6059
:1033700004E0034A12688243014B1A607047000060
:103380003038024029B1064A12680243044B1A60E1
:1033900004E0034A12688243014B1A607047000040
:1033A0004038024029B1064A12680243044B1A60B1
:1033B00004E0034A12688243014B1A607047000020
:1033C0002038024029B1064A12680243044B1A60B1
:1033D00004E0034A12688243014B1A607047000000
:1033E0004438024029B1064A12680243044B1A606D
:1033F00004E0034A12688243014B1A6070470000E0
:1034000024380240F0B500210022002402250026C5
:103410000223324F3F6807F00C0121B1042905D087
:10342000082937D105E02E4F076036E02D4F0760A1
:1034300033E02A4F3F1F3F68C7F38056274F3F1F97
:103440003F6807F03F036EB1264FB7FBF3F7DFF895
:103450008CC0ACF1040CDCF800C0CCF3881C07FB7A
:103460000CF40CE01E4FB7FBF3F7DFF870C0ACF1C3
:10347000040CDCF800C0CCF3881C07FB0CF4174FDD
:103480003F1F3F68C7F301477F1C7D00B4FBF5F782
:10349000076002E0124F076000BF00BF0F4F3F6898
:1034A00007F0F0010909104F7A5C0768D7404760C0
:1034B0000A4F3F6807F4E051890A0B4F7A5C47686E
:1034C000D7408760054F3F6807F46041490B064FBE
:1034D0007A5C4768D740C760F0BD000008380240FA
:1034E0000024F40000127A003803002070B588B080
:1034F00005460C461E4903C9CDE9060104F5407096
:103500000190029000208DF80C008DF80D0008202D
:103510008DF80E000698C0B28DF80F000698010ACB
:103520008DF810100698010C8DF811100698000EF9
:103530008DF812000798C1B28DF813100798010A90
:103540008DF814100798010C8DF815100798000ECF
:103550008DF8160001A92846FDF78CFD064600BF30
:1035600031462846FDF71AFE0128F9D108B070BD92
:1035700044880008704700000CB5002001900090BE
:103580003448006840F480303249086000BF314858
:10359000006800F4003000900198401C01900098F1
:1035A00018B90198B0F5A06FF1D12A48006800F46D
:1035B000003010B10120009001E000200090009840
:1035C000012846D123484030006840F0805021490E
:1035D000403108602048006840F480401E4908607F
:1035E0001C48083000681B4908310860084600681C
:1035F00040F4004008600846006840F4A0500860AD
:103600001648091F0860081F006840F08070091FF5
:10361000086000BF0F48006800F000700028F9D073
:1036200040F205600E4908600A480830006820F042
:1036300003000849083108600846006840F00200AD
:10364000086000BF03480830006800F00C0008283C
:10365000F8D10CBD0038024000700040085440070B
:10366000003C024000B52DED028B81B0B0EE408AE7
:10367000B0EE480A04F002F9009041210F4800F032
:10368000AFFF9DF800100D4800F0AAFF9DF8011053
:103690000A4800F0A5FF9DF80210084800F0A0FFBE
:1036A0009DF80310054800F09BFF4A21034800F0F5
:1036B00097FF01B0BDEC028B00BD0000001001407F
:1036C00010B588B0044601210846FFF74BFE0121E2
:1036D0001020FFF777FE072209212548FEF7C6FADA
:1036E00007220A212248FEF7C1FA4FF4C060069073
:1036F00002208DF81C008DF81D0000208DF81E00A2
:1037000001208DF81F0006A91948FEF767FA0294F8
:103710000020ADF80C00ADF80E00ADF81000ADF8CB
:1037200014000C20ADF8120002A9124800F066FE49
:103730004021104800F07EFD25208DF80400002077
:103740008DF8050002208DF8060001208DF8070095
:1037500001A8FFF71DF8012240F22551054800F0AD
:1037600028FE0121034800F07DFD08B010BD0000D7
:10377000000002400010014010B51548006840F4F8
:103780007000134908601348006840F001001149B7
:10379000086000200F49083108600E4800680E4993
:1037A00008400C4908600D48091D0860081F0068A2
:1037B00020F48020091F0860002006490C310860B1
:1037C000FFF7DAFE4FF0006001498039086010BD54
:1037D00088ED00E000380240FFFFF6FE10300024C4
:1037E00010B50121044800F0B2F8012803D10121ED
:1037F000014800F09DF810BD0000014010B5012106
:10380000880700F0A4F801281AD10121800700F0F0
:103810008FF80C480088401C0A4908800846008838
:1038200000EE100AB8EE400ADFED070AB4EEE00A37
:10383000F1EE10FA04DB0020088001200349087033
:1038400010BD0000EC0200200000C842EE02002083
:1038500010B501211C4800F07AF8012833D101216C
:10386000194800F065F819480068401C17490860BD
:1038700017480068401C16490860084600684FF663
:10388000FF7190FBF1F201FB1200114908600F4932
:10389000086800EBD0714910A0EB410199B103F029
:1038A000EDFC0C4880ED000A03F064FD0A4880ED51
:1038B000000A084890ED000A03F0D4FF064890ED96
:1038C000000A03F0D5FF10BD00040040FC020020F8
:1038D000F0020020F4020020F802002010B50121BF
:1038E000044800F034F8012803D10121014800F018
:1038F0001FF810BD0008004010B50121044800F079
:1039000026F8012803D10121014800F011F810BD6B
:10391000000C004010B50121044800F018F80128FF
:1039200003D10121014800F003F810BD000401405B
:10393000CA430282704721B1028842F0010202802C
:1039400004E002884FF6FE731A400280704730B5DB
:103950000246002000230024158A05EA0103958908
:1039600005EA010413B10CB1012000E0002030BDD4
:103970001AB183890B43838102E083898B4383815E
:10398000704700002DE9FF4104460D4616461F46CC
:10399000DDF828806949601A8C4270D01ADC6849C9
:1039A000A4EB01008C426CD00ADCB4F1804F4ED005
:1039B00064482044002852D0B0F5806F71D156E0A1
:1039C000B0F5806F65D0B0F5006F6CD0B0F5406F8A
:1039D000F4D170E0B0F5923F21D009DCB0F5806FF2
:1039E0007AD0B0F5644F0AD0B0F5684F7CD10EE0C4
:1039F000B0F5943F1BD0B0F5963F75D11FE0012183
:103A00000846FFF7DFFC19208DF800006DE001216A
:103A10000220FFF7D7FC2C208DF8000065E0012183
:103A20000804FFF7CFFC18208DF800005DE00121AD
:103A30001920FFF7C7FC2C208DF8000055E001216C
:103A40008804FFF7BFFC1A208DF800004DE001212B
:103A50000846FFF797FC1C208DF8000045E0012187
:103A60000220FFF78FFC1D208DF800003DE00121B2
:103A70000420FFF787FC1E208DF8000035E023E0CE
:103A8000FFE701210820FFF77DFC32208DF80000C0
:103A90002BE001211020FFF775FC36208DF8000087
:103AA00023E021E0FFE701212020FFF76BFC372016
:103AB0008DF8000019E001214020FFF763FC2B2066
:103AC0008DF8000011E007E001218020FFF75AFC8B
:103AD0002C208DF8000008E001210802FFF752FCBD
:103AE0002D208DF8000000E000BF00BF0295ADF86A
:103AF00004600020ADF80C00ADF8060001A92046D6
:103B000000F022F801212046FFF712FF01221146A2
:103B10002046FFF72DFFF8B28DF8010008F0FF00F6
:103B20008DF8020001208DF803006846FEF730FE94
:103B300001212046FFF7FFFEBDE8FF81001C004089
:103B4000000C004000FCFFBF00220288184B984286
:103B50000ED0184B98420BD0B0F1804F08D0164BC6
:103B6000984205D0154B984202D0154B984204D18B
:103B70004FF68F731A404B881A43124B984207D066
:103B8000114B984204D04FF6FF431A400B891A4359
:103B900002804B68C3620B880385054B984202D0B4
:103BA000044B984201D18B7A0386012383827047AC
:103BB00000000140000401400004004000080040F3
:103BC000000C004000100040001400401CB5012112
:103BD0000420FFF7C7FB0520009000208DF80400AB
:103BE00003208DF8050002208DF8070000208DF8D5
:103BF000060069460148FDF7F1FF1CBD00080240C0
:103C000010B590B0044601214805FFF7ABFB2046F4
:103C100000F0EEF82248FDF711FD00BF2048FDF747
:103C2000B9FD0028FAD14FF0006001901D480290C4
:103C30001D480390402004900020059006904FF40A
:103C4000806007900020089009900A904FF400309F
:103C50000B9000200C9001200D9000200E900F90F2
:103C600001A90F48FDF7F0FD012280210D48001F3A
:103C700000F004FB012210210948FDF7C7FD2F20A9
:103C80008DF8000002208DF801008DF8020001205F
:103C90008DF803006846FEF77BFD10B010BD0000F4
:103CA000B8600240045000401804002010B540F2F3
:103CB0002551494800F053FB012873D140F22551AA
:103CC000454800F0C0FA444800F085FC43490870BC
:103CD0004348006808287CD2DFE800F004404952DD
:103CE0005B656C743D480078772803D107203C4918
:103CF000086032E039480078622803D1062038494C
:103D000008602AE035480078632803D1052034494B
:103D1000086022E0314800786D2803D10120304945
:103D200008601AE02D480078762803D103202C493A
:103D3000086012E0294800786E2803D10220284943
:103D400008600AE025480078612803D1042024494E
:103D5000086002E00020224908603BE0214800683A
:103D6000401C2049086000201D49086032E01E48C0
:103D70000068401C1C49086000201949086029E0BF
:103D800018480068401E1749086000201449086060
:103D900020E015480068401E1349086000201049C3
:103DA000086017E017E001201049086000200C4966
:103DB00008600FE0012003F027FC0020084908609C
:103DC00008E006E0642003F01FFC002004490860BE
:103DD00000E000BF00BF10BD00500040C402002042
:103DE000C00200207C02002080020020840200200B
:103DF00010B588B0044601940020ADF80800ADF875
:103E00000A00ADF80C00ADF810000C20ADF80E0063
:103E10000121FFF7A7FA01210805FFF7B3FA2548AA
:103E200000F036FA08220C212348FDF71FFF082274
:103E300002212248FDF71AFF00208DF81A00012008
:103E40008DF81B0002208DF81800C002059002209A
:103E50008DF8190005A91848FDF7C0FE02208DF85D
:103E600018000420059005A91448FDF7B7FE01A924
:103E7000104800F0C3FA35208DF81C0001208DF8A1
:103E80001F0000208DF81D0002208DF81E004FF449
:103E9000A060FEF7B9FC07A8FEF77AFC012240F209
:103EA0002551044800F085FA0121024800F0DAF9B2
:103EB00008B010BD0050004000080240000C024055
:103EC00008B50821354800F03DFA002842D03348B3
:103ED00000F081FB324908700846007856280BD163
:103EE000002030490860304890ED000AB8EEC00A62
:103EF0002E4880ED050A09E029480078522805D1AE
:103F0000002028490860012128488161254800686F
:103F100010B101281CD107E021480078412802D1C6
:103F200001202049086014E01D4800781E49204AFD
:103F3000126888541E480068401C1D4908600846E5
:103F40000068032803DD002008601649086000E0CF
:103F500000BF10E040F22551104800F000FA01289F
:103F600009D140F225510D4800F06DF90B4800F0E1
:103F700032FB0B4908700E48006800900A4802683E
:103F800008480CA103680E4800F0A2FA0448027821
:103F90000CA10B4800F09CFA08BD00000010014085
:103FA000D0020020C8020020D402002048030020D4
:103FB000CC0200202564092564092564090D0A0046
:103FC0000050004025640D0A0000000010B540F2CA
:103FD0002551154800F0C3F9012824D140F225519C
:103FE000114800F030F9104800F0F5FA0F49087058
:103FF00008460078DA2802D00D48006880B10C48E5
:104000000068401C0A49086008460068022807D179
:104010000648007840B203F0FDFA00200449086029
:1040200001200449086010BD004400409C020020AB
:10403000E80200209802002010B540F22551744893
:1040400000F08DF901287CD140F22551704800F034
:10405000FAF86F4800F0BFFA6E4908706E480078B1
:1040600005286FD2DFE800F00311263D4B006948B8
:1040700000780D2805D168480078401C6649087012
:1040800002E000206449087087E0624800780A284E
:1040900008D10020614908705F480078401C5E49E3
:1040A000087006E05B4800780D2802D000205A49CD
:1040B000087072E0574800785949584A1278885475
:1040C00056480078401C5549087008460078182862
:1040D00006DB0020087050480078401C4E490870EC
:1040E0005BE04C4800780A2805D14B480078401C1A
:1040F0004949087002E00020474908704DE04548F2
:1041000000780D2841D1464890ED000AB1EE400AF2
:10411000444880ED000A424890ED010A80ED010A12
:1041200090ED020A80ED020A90ED030A3E4880ED10
:10413000000A3B4890ED040A3C4880ED000A3848EC
:1041400001E02BE025E090ED050A80ED050A3648F8
:1041500090ED000A03F07AFB344890ED000A03F07A
:104160007BFB304890ED000A03F048FA03F086F834
:104170002F4880ED100A03F0FDF82D4880ED110A5C
:1041800002F0AAFF2A4880ED0F0A00202249087099
:1041900003E000202049087000BF37E028211C48B8
:1041A00000F051F840F22771194800F04CF840F245
:1041B0002661174800F047F840F22531144800F016
:1041C00042F840F22441124800F03DF840F6460122
:1041D0000F4800F038F840F66A110D4800F033F847
:1041E00060210B4800F02FF84FF45871084800F098
:1041F0002AF84FF41871064800F025F84FF4B07112
:10420000034800F020F8024800F0E5F910BD000076
:1042100000480040D8020020D9020020DA02002025
:1042200068040020880200208C02002090020020F8
:104230004803002001F40072B2F5007F00D100BFF6
:10424000CA430280704710B50022002340F66A146A
:10425000A14200D100BF0A1201249440A3B2DC4362
:10426000048010BD21B1828942F40052828104E0B1
:1042700082894DF6FF731A40828170471AB1838A92
:104280000B43838202E0838A8B4383827047000062
:1042900010B504462548844208D101211020FFF7BB
:1042A000A1F800211020FFF79DF83EE0204884424D
:1042B00009D101214804FFF775F800214FF40030BF
:1042C000FFF770F831E01B48844209D101218804CE
:1042D000FFF768F800214FF48020FFF763F824E02F
:1042E0001548844209D10121C804FFF75BF8002179
:1042F0004FF40020FFF756F817E01048844209D128
:1043000001210805FFF74EF800214FF48010FFF758
:1043100049F80AE00A48844207D101212020FFF72A
:1043200061F800212020FFF75DF810BD001001406A
:104330000044004000480040004C00400050004055
:104340000014014002460020B1F5007F00D100BFFB
:1043500013880B400BB1012000E00020704770B5BE
:104360000246002400230025002040F66A16B142D0
:1043700000D100BFC1F3421501F01F03012606FA68
:1043800003F3012D02D19689334006E0022D02D1BC
:10439000168A334001E0968A33400C12012606FA51
:1043A00004F41688344013B10CB1012000E0002061
:1043B00070BDF0B50346002400260025002040F61D
:1043C0006A17B94200D100BF1846C1F3421401F088
:1043D0001F06012707FA06F5012C01D10C3004E075
:1043E000022C01D1103000E014301AB107682F43BD
:1043F000076002E00768AF430760F0BD2DE9FF47A3
:1044000005460E460024A14600BFA046B08900B173
:1044100000BF2C8A24F44054F08804432C82AC89D9
:1044200041F20C608443B0883189084371890843A4
:104430000443AC81AC8A24F44074B0890443AC8258
:104440006846FEF7DFFF2048854202D01F488542BC
:1044500002D1DDF80C9001E0DDF80890A88900F4A5
:10446000004040B109EBC90000EB09103168490078
:10447000B0FBF1F707E009EBC90000EB0910316868
:104480008900B0FBF1F76420B7FBF0F004012009CC
:10449000642101FB1078A88900F4004040B132206B
:1044A00000EBC800B0FBF1F000F00700044308E0A7
:1044B000322000EB08106421B0FBF1F000F00F0097
:1044C00004432C81BDE8FF87001001400014014027
:1044D0000FB470B586B006460CA8019073E00B9837
:1044E00000785C281CD10B98401C0B9000786E283B
:1044F00009D072280FD10D21304600F071F80B98C9
:10450000401C0B900BE00A21304600F069F80B9834
:10451000401C0B9003E00B98401C0B9000BF4BE03D
:104520000B980078252840D10B98401C0B90007800
:10453000642818D0732833D1019810C801900BE07B
:104540002178304600F04CF800BF40213046FFF79C
:10455000F9FE0028F9D0641C20780028F0D10B98CF
:10456000401C0B9020E0019820C801900A2202A96B
:10457000284602F087FF02AC0BE02178304600F0BD
:104580002FF800BF40213046FFF7DCFE0028F9D0AD
:10459000641C20780028F0D10B98401C0B9003E09D
:1045A0000B98401C0B9000BF06E00B9810F8011B05
:1045B0000B90304600F014F800BF40213046FFF762
:1045C000C1FE0028F9D00B980078002887D106B0EA
:1045D00070BC5DF814FB01468888C0F30800704782
:1045E00030B504460D4600BF80212046FFF7AAFEE5
:1045F0000028F9D080212046FFF71CFE40212046EC
:10460000FFF718FEC5F30800A08030BD00BFFEE72D
:10461000DFED151AB0EE610ADFED141AF0EE610A53
:10462000DFED131AB0EE611A012807DADFED111A77
:104630001149C1ED0C1AC1ED081A14E0012809DB7B
:10464000032807DADFED0D1A0B49C1ED0C1AC1ED95
:10465000081A08E0032806DBDFED091A0649C1ED58
:104660000C1AC1ED081A70470080A2440000C8442B
:104670000080894425D63A464803002090E18746C9
:1046800089CE5C462DE9F0418AB080460D4617463A
:1046900000242C4B0FCB06AE0FC605F540700190E1
:1046A000029000208DF80C008DF80D0008208DF888
:1046B0000E00079700BF3FE006A810F834008DF801
:1046C0000F0006A830F83400010A8DF8101006A873
:1046D00050F83400010C8DF8111006A850F8340081
:1046E000000E8DF8120006A800EBC40001798DF8C9
:1046F000131006A800EBC4008088010A8DF814107E
:1047000006A800EBC4004068010C8DF8151006A83F
:1047100000EBC4004068000E8DF8160001A9404669
:10472000FCF7A8FC064600BF31464046FCF736FDC4
:104730000128F9D1601CC4B2022CBDDB0AB0BDE86F
:10474000F08100008C8700082DE9F04393B080468B
:104750000D4616461F46002438222E4905A8FBF7B1
:1047600093FD05F540700090019000208DF8080041
:104770008DF8090008208DF80A000C960E9726493E
:1047800010914942129100BF3FE005A810F8340093
:104790008DF80B0005A830F83400010A8DF80C10D4
:1047A00005A850F83400010C8DF80D1005A850F83C
:1047B0003400000E8DF80E0005A800EBC40001794E
:1047C0008DF80F1005A800EBC4008088010A8DF851
:1047D000101005A800EBC4004068010C8DF8111002
:1047E00005A800EBC4004068000E8DF81200694671
:1047F0004046FCF73FFC814600BF49464046FCF777
:10480000CDFC0128F9D1601CC4B2072CBDDB13B06C
:10481000BDE8F08354870008C0E1E40010B52DED39
:10482000028BB0EE408AB0EE480A00F00FF8BDEE01
:10483000C00A10EE104A2346002207210248FEF764
:10484000A7FCBDEC028B10BD00640040F0EE400AF6
:10485000B1EE000A20EE800A9FED021A20EE010A56
:1048600070470000610B364103B401984100009885
:1048700050EAC12018BF04204A0D18BF40F00100C3
:1048800040F2FF72B2EB515F08BF40F00200012816
:1048900008BF052002B070474100080218BF04207D
:1048A0000A0E18BF40F001004FF07F4232EA0101CA
:1048B00008BF40F00200012808BF05207047000033
:1048C00070B59B482DED020B2DED068B079D25F055
:1048D0000044A04218DC9748844202DC0AD10698C2
:1048E00040B19DED060BBDEC068B02B0BDE87040FB
:1048F00001F0F6BE002DCCBF9FED8F0B9FED900B0E
:10490000BDEC068B02B070BD8F48A04215DD8F480C
:10491000A042D8BF4FF0FF3458DD9DED060B51EC9F
:10492000100BFFF7A1FF042808BF01F00DFF9DED5C
:10493000060BBDEC068B02B070BD9DED060B51EC75
:10494000100B02F0A9F8CDE9060181489FED828B9A
:10495000A0423CDD8248A0421FDD00249FED82ABD7
:104960009DED060B53EC1A2B51EC100B03F052F893
:104970009DED060B41EC190B53EC1A2B51EC100B6F
:1049800003F0F2FA53EC182B03F0FAFC53EC192B5A
:1049900003F0FCF8CDE9060149E09DED060B01248A
:1049A00053EC182B51EC100B03F034F89DED060B73
:1049B00041EC190B53EC182B51EC100B03F0E0FCFD
:1049C00053EC192B03F0E2F8CDE906012FE068481B
:1049D000A0421FDD02249FED689B9DED060B53EC6A
:1049E000192B51EC100B03F0BFFA53EC182B03F00A
:1049F00011F89DED060B41EC180B53EC192B51EC03
:104A0000100B03F0BDFC53EC182B03F0BFF8CDE9FD
:104A100006010CE09DED060B032453EC102B9FEDDB
:104A2000580B51EC100B03F0B1F8CDE906019DEDE8
:104A3000060B53EC102B51EC100B03F095FA41ECE4
:104A4000180B53EC182B03F08FFA41EC190B4E485E
:104A50000621B0EE490AF0EE690A784401F014FD2F
:104A600053EC182B51EC100B03F07EFA41EC180BB1
:104A70004648B0EE490AF0EE690A0521784401F093
:104A800003FD53EC192B51EC100B03F06DFA41ECC4
:104A9000100B51EC180B53EC102B002C0EDA02F01B
:104AA000B9FF9DED061B53EC112B03F05DFA9DED54
:104AB000061B53EC112B03F08BFB35E002F0AAFF31
:104AC0009DED061B53EC112B03F04EFA41EC100B3D
:104AD0002F48784400EBC40090ED001B51EC100B04
:104AE00053EC112B03F04CFC9DED061B53EC112BEA
:104AF00003F046FC41EC100B2648784400EBC40060
:104B000090ED001B51EC100B53EC112B03F060FBEC
:104B100041EC100B002DA2BFBDEC068B02B070BDA6
:104B200051EC100B02F038FF41EC100B01E70000D4
:104B3000000010440000F07F182D4454FB21F93F81
:104B4000182D4454FB21F9BF0000DC3F0000203E3B
:104B50000000F33F00000000000000000000F03FF4
:104B60000000E63F000000000000000000000040E0
:104B70000080034000000000000000000000F83F3B
:104B8000000000000000F0BF5A3E0000103E000090
:104B90009A3D0000523D000070B56B4E2DED040BA8
:104BA0002DED028B82B0DDF81CC0DDE905235C42EF
:104BB0002CF000411C4341EAD474049D22F00040D3
:104BC000B44205D86C422C4340EAD474B4420BD9A9
:104BD0009DED061B9DED040B02B0BDEC028B04B0F5
:104BE000BDE8704001F086BDACF14054A4F17F6493
:104BF0001C430BD0022404EAAC7444EAD27405438B
:104C00009FED538B9FED542B07D015E09DED040BCA
:104C100051EC100B01F09EFE42E0002C11BF012C64
:104C20009DED040B02B0BDEC028B04BF04B070BD5F
:104C3000022C38D0032C3BD00B439FED491B9FED3A
:104C40004A0B0AD0B14218D1B04209D121F08041BB
:104C500020F08040079105900FE0002A15DA10E05F
:104C6000434B7B44002C08BF93ED000B0DD0012C6F
:104C700010D0022C17D0032C1AD0B0421DD1002A1C
:104C800003DAB0EE410AF0EE610A02B0BDEC028B2D
:104C900004B070BD93ED000B51EC100B02F07CFEE4
:104CA00041EC100BF1E7B0EE480AF0EE680AECE7D1
:104CB000B0EE420AF0EE620AE7E7401A00153C281F
:104CC000C8BF8DED000B19DCBCF1000FBEBF10F1A9
:104CD0003C0F9FED290B8DED000B0FDB9DED060BBF
:104CE00053EC102B9DED040B51EC100B02F04EFF1A
:104CF00001F0D2FE01F02EFECDE90001002C08BF2C
:104D00009DED000BC1D0012C10D0022C9FED1C0B8F
:104D100053EC102B9DED000B51EC100B0DD003F05C
:104D20002FFB53EC182B03F02BFBB9E7019880F015
:104D3000004001909DED000BA7E703F021FB53EC31
:104D4000182B03F045FAABE70000F07F00000000ED
:104D5000182D4454FB210940182D4454FB2109C04F
:104D6000182D4454FB21F9BF182D4454FB21F93F61
:104D70003A3D0000000000000000000000000000BC
:104D8000075C143326A6A13C10B52F499FED2C1BC0
:104D90002DED020B84B0059820F000408842D8BF6A
:104DA0009DED040B2DDD2949884209D1049840B9B5
:104DB0004FF00100FBF7A2FA01F0A6FC06B010BD0F
:104DC00005DB9DED040B01F08BFC06B010BD6846C1
:104DD0009DED040B01F084F810F0030004BF9DED7D
:104DE000021B9DED000B0CD001280ED09DED021B87
:104DF0009DED000B022817D0012001F0C1FB06B089
:104E000010BD01F089FA06B010BD9DED021B9DEDAD
:104E1000000B012001F0B4FB51EC100B02F0BCFDC3
:104E200006B041EC100B10BD01F076FA51EC100BFE
:104E300002F0B2FD06B041EC100B10BD0000000006
:104E40000000000000000000FB21E93F0000F07FAF
:104E500010EE101A08B5444A6846B2EB410F28D943
:104E60004FF0E640B0EB410F94BF00204FF0FF3011
:104E700000900098002861DB60EE000A10F0010F3E
:104E800045D010F0020FDFED391A9FED391A00EE10
:104E9000E11ADFED381A40EE811A21EEA01AF0EE89
:104EA000400A40EE010A08BFF1EE600AB0EE600A67
:104EB00008BD314B21F0004293423CD911F0004F24
:104EC000DFED2E0A20EE201ADFED2D0A19BF31EE9C
:104ED000601A71EE200A31EE201A71EE600ABDEE02
:104EE000E01A11EE100A9FED271A00F0030000EE01
:104EF000C10A9FED251A009000EEC10A9FED231A0A
:104F000000EEC10A9FED221A00EEC10AB1E79FED43
:104F1000211A9FED210A10F0020F00EE810A9FED89
:104F20001F1A00EE801AB7EE000A00EE810A18BFC1
:104F3000B1EE400A08BD01F02BFC9AE710EE100A12
:104F40004000B0F17F4F3CBFB7EE000A08BD07D16B
:104F50004FF00100FBF7D2F9BDE8084001F008BCB2
:104F6000BDE8084001F000BCB61F927E336D4C399D
:104F7000DA82083CA0AA2ABE490E494683F9223F9C
:104F80000000004B0000C93F00A0FD390020A23303
:104F90001A61342CB93AB2BACA9F2A3DDDFFFFBE6E
:104FA0002DED020B019820F0004001909DED000BCB
:104FB00002B07047000000002DE9F04D2DED040B0C
:104FC0002DED0E8B96B0DDE92550279CDDF890A0E5
:104FD00025F0004624F00048BAF1000F14BF01216B
:104FE000002101EB4502FC4953184A1093422AD391
:104FF000002814BF0123002303EB44030B44F749AB
:105000008B4220D358EA00019FEDF59B76D0DFF864
:10501000D8B35D4503D1BAF1000F05D188E0BAF1EC
:10502000000F08BF002100D0012101EB450111F55F
:10503000001F08D8002814BF0121002101EB440102
:1050400011F5001F0BD99DED261B9DED240B16B00D
:10505000BDEC0E8B04B0BDE8F04D01F04BBB00275A
:10506000002DBCBFE149884521DAE1498845A8BF48
:1050700002271CDAC3451ADCDE4901EB285114294A
:1050800008DDC1F1340220FA02F101FA02F2824293
:105090000DD108E058B9C1F1140228FA02F101FA61
:1050A00002F2424503D101F00101C1F1020756EAC3
:1050B0000A0124D1002C22DA002D18BF022F01D0C2
:1050C000012F0AD00220FBF719F916B0BDEC0E8BA8
:1050D00004B0BDE8F04D01F0EBBA0220FBF70EF989
:1050E00001F0E6FA51EC100B02F056FC41EC100B0B
:1050F00016B0BDEC0E8B04B0BDE8F08D18E09FED4E
:10510000BEAB9FEDBF8B002871D1B848804522D13E
:1051100005F1804010F5801008BFBAF1000F07D0EC
:10512000B3450ADC002CA8BF9DED260BE0DA0DE0AC
:10513000B0EE490AF0EE690ADAE7002C06DA9DEDD6
:10514000260B51EC100B02F027FC6FE0AE487844C0
:1051500090ED000BCCE7D8454DD1002C48DA2EB1AC
:1051600086423AD1BAF1000F42D126E0BAF1000FDF
:1051700013D00220FBF7C2F801F0D6FA8DED020B36
:105180009DED240B8DED000B10EE900A039961F359
:105190001E0003909DED020BAAE78DED02AB9DED85
:1051A000240B1AEE901A10EE900A8DED000B61F3AD
:1051B0001E0003909DED020B9AE78DED028B9DED95
:1051C000240B18EE901A10EE900A8DED000B61F38F
:1051D0001E0003909DED020B8AE709DA9DED240B7A
:1051E00051EC190B53EC102B02F0D0FC1EE020E028
:1051F0009DED240B7CE786421BDAB4F1804F0DD085
:10520000A4F10050B0F1FF5013D1002D11DB9DED42
:10521000240B51EC100B02F075FB07E09DED240B05
:1052200053EC102B51EC100B00F0C2BC41EC100BF6
:105230005EE79DED240B51EC100B01F02DFCBAF153
:10524000000FCDE90E0142D19FED710B46B3A6F1DF
:10525000E040B0F17F600CD05E4538D1002D00DA1F
:10526000A7B3022F0CBF01204FF0FF3002F015FE54
:10527000DCE7002D01DD002C0DDA002D01DD002C16
:105280001FDB002D16DA002C14DB012F08BF9FED69
:10529000620B3FF42DAFB0EE4A0AF0EE6A0A27E740
:1052A000022F18BF002D0CD0012F0AD1002DFFF6C0
:1052B0001FAF06E0002DB8BF002C08DA012F3FF425
:1052C00017AFB0EE480AF0EE680A11E71BE00120C4
:1052D00000EBE57050EA070115D0791EB0EE498A5F
:1052E000F0EE698A084308BF9FED4D8B4E480025BC
:1052F000804570DD4D494E48884514DDB0420DDBD8
:10530000002C19DB2FE00120FAF7F8FF16B0BDECF6
:105310000E8B04B0BDE8F04D01F0F6B9B34502DCE8
:10532000002C09DC1FE0864202DA002C1BDA03E0C5
:105330005E452BDD002C16DD0220FAF7DFFF01F0C1
:10534000F3F98DED020B53EC1A2B51EC180B02F014
:105350000BFECDE900010399019861F31E00039053
:105360009DED020BC4E60220FAF7C8FF01F0ECF94C
:1053700010EE901A18EE900A8DED020B8DED008B59
:1053800061F31E0003909DED020BB1E69DED0E0B47
:1053900053EC192B51EC100B02F0F2FF9FED260B92
:1053A000CDE9080153EC102B9DED080B51EC100BCF
:1053B00002F0DAFD9FED221B53EC112B02F008FFE7
:1053C0009DED081B53EC112B02F0CEFD9FED1E1B33
:1053D00053EC112B3CE08CE0FFFF1F00FFFF0F00A0
:1053E000000000000000F03F0000F03F0000F07FF0
:1053F0000000404301FCFFFF000000000000F07FC0
:1054000000000000000000004E3800000000000016
:105410000000000000000080000000000000F0FF1D
:10542000000000000000F0BF0000E0410000F04379
:10543000FFFFEF3F00000000000000000000D03F31
:10544000555555555555D53F000000000000E03F2B
:1054500002F0BEFE9DED080B41EC1A0B53EC102B35
:1054600051EC100B02F080FD53EC1A2B02F07CFD86
:1054700041EC1A0B9FEDFE0B53EC102B9DED080B2E
:1054800051EC100B02F070FD41EC1B0B9FEDFA0B81
:1054900051EC1A0B53EC102B02F066FD41EC1A0B89
:1054A0009FEDF70B53EC102B9DED080B51EC100BFF
:1054B00002F05AFD53EC1A2B02F062FF41EC1A0B7A
:1054C00051EC1B0B53EC1A2B02F0A4FA0690CDE919
:1054D00006519DED060B53EC1B2B51EC100B02F00B
:1054E0004FFF53EC1A2B02F073FE41EC100B00F04F
:1054F000A1B90020B6F5801F0EDA9FEDE30B53EC47
:10550000102B9DED0E0B51EC100B02F02DFDCDE993
:105510000E016FF034000E4600EB2650A0F2FF376C
:10552000C6F31300DA4940F07F6646F040568842E1
:10553000D8BF002408DDD7498142C8BF012403DC5D
:105540000024A6F580167F1CD348784400EBC400E5
:105550000F9690ED00CB9DED0E0B53EC1C2B51ECF8
:10556000100B02F00DFF9DED0E0B41EC1B0B53ECED
:105570001C2B51EC100B02F04DFA41EC100B51ECCE
:10558000190B53EC102B02F001FB41EC1D0B51ECFD
:105590001B0B53EC1D2B02F0E7FC41EC1A0BBF4830
:1055A0008DED10AB7844109590ED000B4FF000504E
:1055B00040EA660000EB84408DED080B00F500200A
:1055C00009909DED080B53EC1C2B51EC100B02F0D5
:1055D000D7FE9DED0E1B53EC112B02F0F9FD41ECB3
:1055E000100B53EC102B9DED100B51EC100B02F037
:1055F000BBFC9DED080B41EC1C0B53EC102B9DEDFF
:10560000100B51EC100B02F0AFFC53EC1B2B02F013
:10561000DFFD53EC1C2B02F0B3FE53EC1D2B02F00C
:10562000A3FC41EC1C0B53EC1A2B51EC1A0B02F0AF
:105630009BFC41EC1B0B9A480621B0EE4B0AF0EEA6
:105640006B0A784400F020FFB0EE401AF0EE601ACA
:10565000B0EE41DAF0EE61DA53EC1B2B51EC1B0B90
:1056600002F082FC53EC1D2B02F07EFC9DED100B32
:1056700041EC1B0B53EC1A2B51EC100B02F0CAF946
:1056800053EC1C2B02F070FC53EC1B2B02F0C2F904
:105690009DED100B41EC1B0B53EC102B51EC100B40
:1056A00002F062FC41EC1D0B9FED7FEB53EC1E2BD7
:1056B00002F0B0F953EC1B2B02F0ACF90890CDE9E5
:1056C00008519DED080B53EC1E2B51EC100B02F012
:1056D00057FE53EC1D2B02F053FE53EC1B2B02F034
:1056E00077FD9DED080B41EC1D0B53EC102B9DED50
:1056F000100B51EC100B02F037FC41EC1B0B53EC80
:105700001A2B51EC1D0B02F02FFC9DED080B41EC08
:105710001A0B53EC102B51EC1C0B02F025FC53EC34
:105720001A2B02F077F941EC1A0B51EC1B0B53ECDE
:105730001A2B02F06FF90C90CDE90C519DED0C0B7A
:1057400053EC1B2B51EC100B02F01AFE53EC1A2BEE
:1057500002F03EFD41EC1B0B9FED550B53EC102B63
:105760009DED0C0B51EC100B02F0FEFB41EC1A0B03
:105770009FED510B51EC1B0B53EC102B02F0F4FB83
:1057800041EC1B0B9FED4E0B53EC102B9DED0C0BC6
:1057900051EC100B02F0E8FB53EC1B2B02F03AF932
:1057A00041EC100B4848784400EBC40090ED001B1E
:1057B00051EC100B53EC112B02F02CF941EC1B0BAC
:1057C000384602F06AFBCDE9080153EC1B2B51EC83
:1057D0001A0B02F01FF941EC100B3C48784400EB27
:1057E000C40090ED00CB51EC100B53EC1C2B02F0DD
:1057F00011F99DED081B53EC112B02F00BF90690EB
:10580000CDE906519DED080B53EC102B9DED060BD9
:1058100051EC100B02F0B4FD53EC1C2B02F0B0FD68
:1058200053EC1A2B02F0ACFD53EC1B2B02F0D0FC16
:1058300041EC100B9DED261B53EC102B8DED001B46
:1058400000959DED260B51EC100B02F08DFB9DEDAC
:10585000000B41EC1A0B53EC102B9DED260B51EC79
:10586000100B02F08DFD9DED061B53EC112B2FE06C
:10587000000000604715F73FFE822B654715F73F94
:1058800044DF5DF80BAE543E0000000000004043D2
:105890008E9803007AB60B009A330000F8330000AC
:1058A000D2320000000000000000000000000840AC
:1058B000000000E009C7EE3FFD033ADC09C7EE3FF8
:1058C000F5015B14E02F3EBE5E3100001831000090
:1058D00002F04AFB53EC1A2B02F09CF89DED060BEC
:1058E00041EC1A0B53EC102B9DED000B51EC100BFF
:1058F00002F03AFBCDE90C019DED0C0B51EC1A0BBB
:1059000053EC102B02F086F8CDE902010C46AA49AF
:105910008C422FDB611A084318D19DED0C0B53EC20
:10592000102B9DED020B51EC100B02F029FD41EC08
:105930001B0B9FEDA30B51EC1A0B53EC102B02F039
:1059400069F853EC1B2B02F00DFC2DD20220FAF764
:10595000D5FC00F0E9FE10EE901A18EE900A8DEDDD
:10596000020B8DED008B61F31E0003909DED020B89
:10597000FFF7BEBB944A24F00041914214D39349EF
:10598000214408437FF4EFAC9DED0C0B53EC102B3E
:105990009DED020B51EC100B02F0F2FC53EC1A2BB4
:1059A00002F0E0FB7FF6DFAC24F000408849894A32
:1059B000002601EB205182422BDA481C4FF4801163
:1059C00021FA00F02044844AC0F30A517A44A1F23B
:1059D000FF3192ED000B814A8DED080BCA4020EAA1
:1059E0000202C0F3130040F48010C1F1140120FA48
:1059F00001F60992002CB8BF76429DED080B53ECDE
:105A0000102B9DED0C0B51EC100B02F0B9FCCDE905
:105A10000C019DED0C0B51EC1A0B53EC102B01F00B
:105A2000F9FF9FED6F0B0890CDE9085153EC102B57
:105A30009DED080B51EC100B02F096FA41EC1B0B9C
:105A40009FED690B53EC102B9DED080B51EC100BE7
:105A500002F08AFA9DED0C0B41EC1C0B53EC102B61
:105A60009DED080B51EC100B02F08AFC53EC1A2B45
:105A700002F0AEFB9FED5E1B53EC112B02F074FAAB
:105A800053EC1C2B01F0C6FF41EC1A0B51EC1B0B25
:105A900053EC1A2B01F0BEFFCDE902019DED020B84
:105AA00053EC1B2B51EC100B02F06AFC53EC1A2B3D
:105AB00002F08EFB9DED020B41EC1A0B53EC102B08
:105AC00051EC100B02F050FACDE908014A489DED67
:105AD000080B0521784400F0D7FC9DED081B51EC24
