:020000040800F2
:10000000504B0020490200089533000841280008A1
:1000100059330008F90C00081157000800000000CF
:10002000000000000000000000000000674200081F
:1000300075240008000000005F020008610200084B
:1000400063020008630200086302000863020008FC
:1000500063020008630200086302000863020008EC
:1000600063020008630200086302000863020008DC
:1000700063020008630200086302000863020008CC
:1000800063020008630200086302000863020008BC
:10009000FD0C000863020008630200086302000808
:1000A00063020008C54800086302000863020008F4
:1000B000E148000835490008C1490008630200080A
:1000C000630200086302000863020008630200087C
:1000D00063020008BD4F0008B95000083D510008F8
:1000E000630200086302000863020008630200085C
:1000F000F949000863020008630200089D21000816
:100100006302000863020008DD490008630200087A
:1001100063020008914D00086302000863020008B2
:10012000630200086302000863020008630200081B
:10013000630200086302000863020008630200080B
:10014000F10D000863020008630200086302000862
:1001500063020008630200086302000863020008EB
:1001600063020008630200086302000863020008DB
:1001700063020008630200086302000863020008CB
:10018000630200086302000800F002F800F04CF877
:100190000AA090E8000C82448344AAF10107DA45E2
:1001A00001D100F041F8AFF2090EBAE80F0013F0E8
:1001B000010F18BFFB1A43F0010318471C9F0000F2
:1001C0003C9F00000A4410F8014B14F00F0508BFD3
:1001D00010F8015B240908BF10F8014B6D1E05D013
:1001E00010F8013B6D1E01F8013BF9D1641E03D0EC
:1001F000641E01F8015BFBD19142E4D3704700001B
:100200000023002400250026103A28BF78C1FBD81F
:10021000520728BF30C148BF0B6070471FB509F0B7
:10022000CAFC1FBD10B510BD00F077F81146FFF7EE
:10023000F5FF08F0E3FB00F095F803B4FFF7F2FFD9
:1002400003BC00F099F800000948804709480047BE
:10025000FEE7FEE7FEE7FEE7FEE7FEE7FEE7FEE776
:10026000FEE7FEE704480549054A064B70470000D3
:100270005D4800088901000850050020504B00200F
:10028000504700205047002010B5203AC0F00B80A6
:10029000B1E81850203AA0E81850B1E81850A0E88A
:1002A0001850BFF4F5AF5FEA027C24BFB1E81850E4
:1002B000A0E8185044BF18C918C0BDE810405FEA54
:1002C000827C24BF51F8043B40F8043B08BF7047D0
:1002D000D20728BF31F8023B48BF11F8012B28BFD5
:1002E00020F8023B48BF00F8012B70477047704769
:1002F000704710B500F00CF8006810BD10B504464A
:1003000000F006F8046010BD00487047EC040020BF
:1003100000487047EC04002070477546FFF7F4FF73
:10032000AE4605006946534620F00700854618B0E2
:1003300020B5FFF797FFBDE820404FF000064FF0D3
:1003400000074FF000084FF0000B21F00701AC460A
:10035000ACE8C009ACE8C009ACE8C009ACE8C00929
:100360008D46704710B50446AFF300802046BDE8C7
:100370001040FFF762BF000001491820ABBEFEE746
:100380002600020021B1826842F00102826003E08F
:10039000826822F001028260704700000021084A52
:1003A0001168084A1140D0E900231A4383681A43B0
:1003B000C3681A431143044AC2F80413704700008B
:1003C00004230140E030FCFF002001400146C86CDE
:1003D00080B270470246002013680B400BB1012029
:1003E00000E000207047000030B5024600200023E6
:1003F0005068104C20400D790C6844EA05242043D5
:10040000506090680C4C2040D1E903542C438D6817
:100410002C434D7944EA450420439060D06A20F48F
:1004200070000C7D641EE4B2234340EA0350D062A6
:1004300030BD0000FFFEFFFCFDF7FFC0F0B5044635
:100440000D4600200021092D11DDE068A5F10A0606
:1004500006EB4607072606FA07F18843A5F10A06C8
:1004600006EB460603FA06F10843E0600CE020695B
:1004700005EB4507072606FA07F1884305EB450615
:1004800003FA06F108432061072A0FDA606B561E53
:1004900006EB86071F2606FA07F18843561E06EB71
:1004A000860605FA06F10843606322E00D2A0FDA9A
:1004B000206BD61F06EB86071F2606FA07F1884336
:1004C000D61F06EB860605FA06F10843206310E006
:1004D000E06AA2F10D0606EB86071F2606FA07F171
:1004E0008843A2F10D0606EB860605FA06F10843DD
:1004F000E062F0BD816841F080418160704700009A
:1005000000B58DB00121042003F046FD0121080251
:1005100003F072FD30200B9003208DF83000002096
:100520008DF833000BA9164802F0A6F80121080245
:1005300003F072FD00214FF4807003F06DFD002088
:1005400007900A9009904FF48030089007A8FFF7B1
:1005500025FF002001908DF808008DF80900039018
:100560000490059001208DF8180001A90548FFF7B7
:100570003BFF01210348FFF705FF0DB000BD000060
:10058000000802400020014010B52DED048BF0EE74
:10059000408AB0EE609AB0EE418AF0EE490AB0EEC1
:1005A000680A07F01BFB1C4880ED140AD0ED140A02
:1005B000B0EE600A00F06AF8DFED180A70EE209ADB
:1005C000B0EE480A00F030F839EEC00ABDEEC00ABD
:1005D00010EE104A22460121114805F0D5F80E48C8
:1005E000D0ED140AB0EE600A00F050F8DFED0D0A0D
:1005F00070EE209AB0EE480A00F016F839EE800A44
:10060000BDEEC00A10EE104A22460221044805F051
:10061000BBF8BDEC048B10BD9003002000409CC5CE
:100620000068004000409C45F0EE400A114890ED03
:10063000000A20EE200A104890ED001AB8EEC11A08
:1006400030EEC11A0D48D0ED001A01EE810A0C48B7
:1006500090ED001ADFED0B1A01EE210A0A4880ED39
:10066000000ABDEEE00A044880ED000A064890ED5D
:10067000000A7047B0020020AC020020B80200203F
:10068000B402002000000000BC020020F0EE400A8E
:100690000E4890ED000A20EE200A0D4890ED001A59
:1006A000B8EEC11A30EEC11A0A48D0ED001A01EEB8
:1006B000810A094880ED000ABDEEE00A044880ED99
:1006C000000A054890ED000A70470000680200200B
:1006D000640200206C0200207002002000B52DEDA5
:1006E000028BA9B0B0EE408AF0EE608AA0480068A4
:1006F00040B94FF4FA609F49086040F2AA509E4901
:1007000008600BE09A480068012807D14FF4FA709E
:10071000984908604FF4617097490860142297491E
:1007200024A8FFF7B1FD93480068C0F5166000EEFD
:10073000100AB8EEC00A8DED280A14228F49143130
:100740001FA8FFF7A1FD8C4890ED000AB8EEC00A83
:100750008DED210A1422894928311AA8FFF794FD4A
:1007600084480068C0F5166000EE100AB8EEC00AB2
:100770008DED1C0A142281493C3115A8FFF784FD38
:100780007D480068C0F5965000EE100AB8EEC00A29
:100790008DED190A14227949503110A8FFF774FD24
:1007A00074480068A0F5166000EE100AB8EEC00AA2
:1007B0008DED140A1422714964310BA8FFF764FD12
:1007C0006D480068C0F5965000EE100AB8EEC00AF9
:1007D0008DED0D0A14226949783106A8FFF754FD02
:1007E00064480068A0F5166000EE100AB8EEC00A72
:1007F0008DED080A142261498C3101A8FFF744FDF0
:100800005D4890ED000AB8EEC00A8DED050A5C481F
:10081000C06F5C4908601FAA24A90520F0EE680A91
:10082000B0EE480A01F08CFB012803D100215448A6
:10083000C1672BE015AA1AA90520F0EE680AB0EEF0
:10084000480A01F07DFB012803D101214C48C16712
:100850001CE00BAA10A90520F0EE680AB0EE480AC9
:1008600001F06EFB012803D102214548C1670DE06C
:1008700001AA06A90520F0EE680AB0EE480A01F0C8
:100880005FFB012802D103213D48C1673C48C06F8E
:100890003C490968884204D03B480068401C3A49FA
:1008A00008603A48006801283ED19FED390AB4EE4D
:1008B000C08AF1EE10FA18DD9FED360AB4EEC08A58
:1008C000F1EE10FA11D29FED330AF4EEC08AF1EE88
:1008D00010FA0ADD9FED300AF4EEC08AF1EE10FA4C
:1008E00003D20020224908601EE09FED290AB4EEE1
:1008F000C08AF1EE10FA14D39FED260AB4EEC08A36
:10090000F1EE10FA0DDC9FED230AF4EEC08AF1EE51
:1009100010FA06D39FED200AF4EEC08AF1EE10FA29
:1009200002DD0120124908601748006805280FDB26
:100930000F48006808B9012000E000200C49086059
:1009400001201149086015480068401C13490860DF
:1009500012480068022807DB0020104908600A4995
:10096000086018200649087029B0BDEC028B00BD54
:1009700098000020BC000020C0000020BC9C0008A3
:1009800090030020B800002094000020C400002044
:100990000000AFC40000AF4400C07345C800002091
:1009A00010B52DED028BB0EE408A2E4890ED0F0A67
:1009B000B0EE408A2C4890ED000ADFED2C0AB4EE30
:1009C000E00AF1EE10FA20DD90ED000ADFED280AD2
:1009D000B4EEE00AF1EE10FA17D2264890ED000AC4
:1009E000DFED250AB4EEE00AF1EE10FA0DDD90ED30
:1009F000000ADFED220AB4EEE00AF1EE10FA04D2AA
:100A0000B0EE480A00F03CF829E0174890ED000AE3
:100A1000DFED160AB4EEE00AF1EE10FA1BD390ED0A
:100A2000000ADFED130AB4EEE00AF1EE10FA12DC70
:100A3000104890ED000ADFED100AB4EEE00AF1EE86
:100A400010FA08D390ED000ADFED0C0AB4EEE00ACC
:100A5000F1EE10FA03DDB0EE480A00F0AFF8BDEC9D
:100A6000028B10BD900300205C0000200000AFC48A
:100A70000000AF44600000200000614400C07345E6
:100A800010B52DED068BB0EE408A4048006848B99D
:100A90009FED3F0A38EE400A3E4880ED000A0120F3
:100AA0003A490860F0EE480A3A4890ED000A07F02B
:100AB00095F8394880ED000A38480068401C3749ED
:100AC00008600846006896280BDA354A0121354847
:100AD00004F05AFE41F2DB720221324804F054FE67
:100AE00050E02E48006896284CDB2B4890ED000A19
:100AF000FFF7CCFDBDEEC00A10EE104A22460121E0
:100B0000284804F041FE244890ED000AFFF7BEFD9E
:100B1000BDEEC00A10EE104A22460221214804F020
:100B200033FE1D48006808F0D5FF41EC1A0BB0EE0B
:100B30004A0AF0EE6A0A05F0AFFBB0EE409AF0EE1A
:100B4000609A9FED190B53EC102B51EC190B08F028
:100B50008FFC17D2164800681649C1F8D000002053
:100B60000A4908600D49086011490860114890ED74
:100B70000F0A80ED2D0A0121C0F898100E48007868
:100B80000C490870BDEC068B10BD00006C00002005
:100B90000000344264000020680000207000002043
:100BA00025E8FFFF0068004000000000000014403E
:100BB00054000020900300205800002010B52DEDB7
:100BC000068BB0EE408A4048006848B99FED3F0A66
:100BD00038EE000A3E4880ED000A01203A490860DC
:100BE000F0EE480A3A4890ED000A06F0F7FF39485F
:100BF00080ED000A38480068401C37490860084604
:100C0000006864280BDA354A0121354804F0BCFD40
:100C100041F2DB720221324804F0B6FD50E02E486A
:100C2000006864284CDB2B4890ED000AFFF72EFD8E
:100C3000BDEEC00A10EE104A22460121284804F0F9
:100C4000A3FD244890ED000AFFF720FDBDEEC00A89
:100C500010EE104A22460221214804F095FD1D485D
:100C6000006808F037FF41EC1A0BB0EE4A0AF0EECC
:100C70006A0A05F011FBB0EE409AF0EE609A9FED23
:100C8000190B53EC102B51EC190B08F0F1FB17D298
:100C9000164800681649C1F8D00000200A490860CB
:100CA0000D49086011490860114890ED0F0A80ED68
:100CB0002D0A0121C0F898100E4800780C490870E0
:100CC000BDEC068B10BD00007C00002000007042CF
:100CD00074000020780000208000002025E8FFFF3D
:100CE0000068004000000000000014405400002094
:100CF000900300205800002000BFFEE710B53148E7
:100D00000378314A3149324800F08EFC2F480068A0
:100D1000302803D12C49087807F036FF2B480068AB
:100D200040F2872188420DD12748006845F65001DE
:100D3000884207D1244890ED010AB8EEC00A254840
:100D400080ED040A21480068B0F5227F0DD11E48CD
:100D5000006845F65601884207D11B4890ED010A0C
:100D6000B8EEC00A1B4880ED320A1B49184800F053
:100D7000ADF81949491C164800F0A8F81649C91CD5
:100D8000134800F0A3F81549114800F09FF81449E2
:100D90000F4800F09BF813490D4800F097F81149EF
:100DA00008310B4800F092F80F49094800F08EF81E
:100DB0000E49074800F08AF80C490831044800F051
:100DC00085F810BDF8020020F0020020FC0200208F
:100DD00000640040900300200100F0107000F0302B
:100DE0000300001208000032030000140800003461
:100DF0001CB52C4803786A462B492C4800F014FC9B
:100E00002948006840F2822188420BD145F65601FC
:100E10000098884206D19DED010AB8EEC00A244828
:100E200080ED090A2048006840F2812188420BD1F8
:100E300045F656010098884206D19DED010AB8EEAC
:100E4000C00A1B4880ED0D0A1A49184800F03EF808
:100E50001849491C154800F039F81649C91C1348AF
:100E600000F034F81449114800F030F813490F48E5
:100E700000F02CF812490D4800F028F8104908310C
:100E80000A4800F023F80F49084800F01FF80E49FF
:100E9000064800F01BF80C490831044800F016F829
:100EA0001CBD000004030020000300200068004077
:100EB000900300200100F0107000F03003000012D9
:100EC00008000032030000140800003400220C4B1C
:100ED000994202D10023836111E0C1F3130201F0B2
:100EE00000730BB1C2600AE001F080630BB10261D4
:100EF00005E001F000630BB1826000E042607047E2
:100F00007000F0302DE9F04F8BB006460F461446C6
:100F10001D46DDF850804FF00009CA46CB46B5F5B6
:100F2000807F43D012DC102D34D008DC012D25D079
:100F3000022D26D0042D27D0082D4FD127E0202DBB
:100F40002BD0402D2CD0802D48D12CE0B5F5805FE2
:100F500038D009DCB5F5007F2BD0B5F5806F2BD0EC
:100F6000B5F5006F3AD12AE0B5F5005F2DD0B5F5A3
:100F7000804F2DD0B5F5004F30D12CE04FF0000957
:100F80002DE04FF001092AE04FF0020927E04FF071
:100F9000030924E04FF0040921E04FF005091EE0A9
:100FA0004FF006091BE04FF0070918E04FF0080961
:100FB00015E04FF0090912E04FF00A090FE04FF079
:100FC0000B090CE04FF00C0909E04FF00D0906E0A9
:100FD0004FF00E0903E04FF00F0900E000BF00BF23
:100FE000B8F5807F4BD01ADCB8F1100F3BD00CDC89
:100FF000B8F1010F2BD0B8F1020F2BD0B8F1040FCC
:101000002BD0B8F1080F52D12AE0B8F1200F2DD023
:10101000B8F1400F2DD0B8F1800F48D12CE0B8F5D1
:10102000805F38D009DCB8F5007F2BD0B8F5806F31
:101030002BD0B8F5006F3AD12AE0B8F5005F2DD07B
:10104000B8F5804F2DD0B8F5004F30D12CE04FF0DF
:10105000000A2DE04FF0010A2AE04FF0020A27E0D3
:101060004FF0030A24E04FF0040A21E04FF0050A94
:101070001EE04FF0060A1BE04FF0070A18E04FF0A1
:10108000080A15E04FF0090A12E04FF00A0A0FE0D3
:101090004FF00B0A0CE04FF00C0A09E04FF00D0A7C
:1010A00006E04FF00E0A03E04FF00F0A00E000BF29
:1010B00000BF7F48304418B1B0F5806F1AD10CE002
:1010C0004FF0090B00208DF8120014208DF8040059
:1010D0000121480602F070FF0DE04FF0090B0E20D1
:1010E0008DF8120040208DF804000121000502F067
:1010F00063FF00E000BF00BFC4F3090078BBA0128B
:10110000A0F580108038092834D2DFE800F0050A05
:101110000F14191E23292E000121084602F03CFF5E
:1011200029E00121022002F037FF24E00121042000
:1011300002F032FF1FE00121082002F02DFF1AE02B
:101140000121102002F028FF15E00121202002F0EB
:1011500023FF10E00121402002F01EFF0BE009E018
:101160000121802002F018FF05E00121080202F0B1
:1011700013FF00E000BF00BF5A464946204601F079
:10118000C3FA5A465146204601F0BEFA45EA080025
:10119000099002208DF828008DF8290000208DF894
:1011A0002A0001208DF82B0009A9204601F064FADD
:1011B000304600F07FF800208DF81E008DF81F00EB
:1011C0008DF820008DF821008DF822008DF8230085
:1011D0008DF81A008DF81B000B208DF81C000720DD
:1011E0008DF81D007D2F22D008DC0A2F0FD0142F80
:1011F00011D0322F13D0642F29D114E0FA2F1AD036
:10120000B7F5FA7F1BD0B7F57A7F20D11BE0C82055
:10121000ADF818001CE06420ADF8180018E0282094
:10122000ADF8180014E01420ADF8180010E01020FC
:10123000ADF818000CE00820ADF8180008E0042014
:10124000ADF8180004E00220ADF8180000E000BF7F
:1012500000BF06A9304600F0D6F800208DF8130034
:1012600001208DF814000020ADF80800ADF80A0048
:10127000ADF80C00ADF80E00ADF8100001208DF8AF
:10128000150002A800F032F800208DF805000320B8
:101290008DF8060001208DF8070001A802F07CF807
:1012A00001220221304600F0A5F80BB0BDE8F08F16
:1012B000009CFFBF10B504460B48844209D10121B0
:1012C000480602F089FE00214FF0007002F084FE13
:1012D00008E00121880602F07FFE00214FF08060C7
:1012E00002F07AFE10BD00000064004010B500213D
:1012F000837A012202FA03F13D4A126842F00102A8
:101300003B4B1A603A4A1C3212688A43384B1C33F2
:101310001A60027BCAB9364A0C3212688A43344BCF
:101320000C331A604288C38842EA0343304A403291
:10133000847A42F834300288838842EA03432C4A94
:101340004032847A02EBC4025360027B012A19D135
:10135000274A0C3212680A43254B0C331A60428824
:10136000038842EA0343224A4032847A42F8343006
:10137000C288838842EA03431D4A4032847A02EBE2
:10138000C4025360C27A3AB9194A121D12688A43DC
:10139000174B1B1D1A6006E0154A121D12680A43FE
:1013A000134B1B1D1A60028932B9114A143212689C
:1013B0008A430F4B14331A600289012A06D10C4A62
:1013C000143212680A430A4B14331A60427B012A12
:1013D00006D1074A1C3212680A43054B1C331A60B7
:1013E000034A126822F00102014B1A6010BD00008E
:1013F000006600401AB143690B43436102E0436950
:101400008B434361704730B50246002000231468C7
:1014100024F002041460146844F00104146000E035
:101420005B1C546804F001041CB94FF6FF74A3421E
:10143000F6D1546804F001040CB900206CE08C79FA
:10144000012C04D1146844F08004146003E0146893
:1014500024F080041460CC79012C04D1146844F089
:101460004004146003E0146824F0400414600C7A13
:10147000012C04D1146844F02004146003E01468C3
:1014800024F0200414604C7A012C04D1146844F038
:101490001004146003E0146824F0100414608C7AC3
:1014A000012C04D1146844F00804146003E01468AB
:1014B00024F008041460CC7A012C04D1146844F0A0
:1014C0000404146003E0146824F0040414608C78AD
:1014D000A407CD7844EA05640D7944EA05444D79C2
:1014E00044EA05540D886D1E2C43D461146824F021
:1014F00001041460002300E05B1C546804F0010444
:101500001CB14FF6FF74A342F6D1546804F00104F5
:101510000CB1002000E0012030BD0246002019B9C6
:10152000D36803F0030006E0012903D1136903F037
:10153000030000E00020704710B500F5D87303EBFE
:1015400001131B6803F004031372137A53B900F5F7
:10155000D87303EB01131B6840F2FF7404EA535382
:10156000136009E000F5D87303EB01131B686FF0FB
:10157000604404EAD303536000F5D87303EB01130E
:101580001B6803F00203537200F5D87303EB0113D9
:101590005B6803F00F03937200F5D87303EB01133C
:1015A0005B681B0AD37400F5D87303EB01139B68C7
:1015B000D37200F5D87303EB01139B681C0A1473F4
:1015C00000F5D87303EB01139B681C0C547300F5F2
:1015D000D87303EB01139B681B0E937300F5D8734C
:1015E00003EB0113DB68D37300F5D87303EB01132E
:1015F000DB681C0A147400F5D87303EB0113DB6875
:101600001C0C547400F5D87303EB0113DB681B0E3C
:10161000937421B9C36843F02003C36003E00369F6
:1016200043F02003036110BD2DE9F04186B08046F0
:101630000D4616461F46002400214046FFF76DFF69
:1016400018B9002006B0BDE8F08101AA002140468B
:10165000FFF772FF002405E00DF10F00005D30552B
:10166000601CC4B2BC42F7DB019828600120E9E7A6
:1016700010B502460020936803F08063B3F1806FD9
:1016800000D110E0936803F00063B3F1006F01D163
:10169000012008E0936803F08053B3F1805F01D12B
:1016A000022000E00420042874D002F5C07303EB8C
:1016B00000131B6803F0010402F5C07303EB001371
:1016C0001C600B7A7BB94B7A0C8843EA445302F5D1
:1016D000C07404EB00142468234302F5C07404EBC7
:1016E0000014236010E00B7A4C6843EAC4034C7A80
:1016F000234302F5C07404EB00142468234302F56D
:10170000C07404EB001423608B7A03F00F038B7218
:1017100002F5C07303EB00135B6823F00F0402F5BE
:10172000C07303EB00135C6002F5C07303EB00139E
:101730005B688C7A234302F5C07404EB0014636089
:101740008B7B1C064B7B44EA03440B7B44EA03235C
:10175000CC7A234302F5C07404EB0014A3608B7CA5
:101760001C064B7C44EA03440B7C44EA0323CC7BF9
:10177000234302F5C07404EB0014E36002F5C07368
:1017800003EB00131B6843F0010402F5C07303EB85
:1017900000131C6010BD000010B50246002321B1EB
:1017A000012907D002290FD109E090681D4C00EAF9
:1017B00004030BE090681C4C00EA040306E0906808
:1017C0001A4C00EA040301E0002300BF00BF184CDC
:1017D000181BA34216D007DC83B16FF08060184459
:1017E00070B1022818D111E0B0F5007F10D0114C73
:1017F000204448B1B0F5003F0ED10BE002230DE0CC
:1018000000230BE0002309E0002307E0012305E0AB
:10181000012303E0012301E0002300BF00BFD8B291
:1018200010BD0000030000040003000800000310C6
:10183000000100080001FFF72DE9F04385B0814663
:101840000D4690461E4600240095019500208DF817
:1018500008008DF809008DF80A6000BF06E018F84E
:1018600004100DF10B000155601C84B2B442F6DB8C
:1018700069464846FFF7FCFE0746002400BF39468C
:101880004846FFF789FF0128F9D105B0BDE8F0838C
:1018900010B52DED028BFE4890ED100AFD4880ED4D
:1018A000000AFB4890ED110AFB4880ED000AF84859
:1018B00090ED0F0AF94880ED000AF748D0ED000AD4
:1018C000F44890ED000AFEF709FFF14890ED0D0A8B
:1018D000DFEDF30AB4EEE00AF1EE10FA03DD0120C9
:1018E000EB49C1F89400EA48C06F30B101287CD0C0
:1018F00002287BD003287AD186E1EA48006800EB11
:101900004001C1EBC01040F24C41A1EB800000EE61
:10191000100AB8EEC00AE048D0ED000A30EEC00A66
:10192000E14880ED000A00F0C5FDDFEDE00A30EE91
:10193000200ADF4880ED000AD848D0ED000ADC48D4
:1019400090ED000A06F04AF9DA4880ED000AD64820
:1019500090ED000A07F0BEF8D648D0ED000A30EE50
:10196000C00AB0EE408AFEF791FED348D0ED000ADF
:10197000F8EEE00A30EE200ABDEEC00A10EE104A82
:1019800022460121CD4803F0FFFEC74890ED000A32
:1019900007F0A0F8C748D0ED000A30EEC00AB0EE5C
:1019A000408AFEF773FEC4480068404200EE900A89
:1019B000F8EEE00A30EE200ABDEEC00A10EE104A42
:1019C00022460221BD4803F0DFFEB74890ED000A31
:1019D00007F080F8B748D0ED000A30EEC00AB0EE4C
:1019E000408AFEF753FEB44802E00BE08BE0ABE127
:1019F000D0ED000AF8EEE00A30EE200AA44880EDAF
:101A00000B0AA2E1A7480068C0EB801101EB40205F
:101A100040F2523101EB400000EE100AB8EEC00A6D
:101A20009C48D0ED000A30EEC00A9F4880ED000AC5
:101A300000F040FDDFEDA20A30EE200A9C4880ED68
:101A4000000A9648D0ED000A994890ED000A06F089
:101A5000C5F8984880ED000A934890ED000A07F019
:101A600039F89448D0ED000A30EE200AB0EE408AF2
:101A7000FEF70CFE9048D0ED000AF8EEE00A30EEDA
:101A8000200ABDEEC00A10EE104A224601218B4802
:101A900003F07AFE844890ED000A07F01BF88548B1
:101AA000D0ED000A30EE200AB0EE408AFEF7EEFDDF
:101AB00081480068404200EE900AF8EEE00A30EEFD
:101AC000200ABDEEC00A10EE104A224602217B48D1
:101AD00003F05AFE744890ED000A06F0FBFF7548CB
:101AE000D0ED000A30EE200AB0EE408AFEF7CEFDBF
:101AF0007148D0ED000AF8EEE00A30EE200A6448A2
:101B000080ED0B0A21E16748006800EB4001C1EB62
:101B1000C01040F6746101EB800000EE100AB8EED0
:101B2000C00A5D48D0ED000A30EEC00A5E4880ED84
:101B3000000A00F0BFFCDFED630A30EE200A5C48CB
:101B400080ED000A5548D0ED000A594890ED000A92
:101B500006F044F8574880ED000A534890ED000A1B
:101B600006F0B8FF5348D0ED000A30EE200AB0EE80
:101B7000408AFEF78BFD5048D0ED000AF8EEE00AEF
:101B800030EE200ABDEEC00A10EE104A22460121B6
:101B90004A4803F0F9FD444890ED000A06F09AFF28
:101BA0004448D0ED000A30EE200AB0EE408AFEF73D
:101BB0006DFD41480068404200EE900AF8EEE00AF0
:101BC00030EE200ABDEEC00A10EE104A2246022175
:101BD0003A4803F0D9FD344890ED000A06F0C0F809
:101BE0003448D0ED000A30EE200AB0EE408AFEF70D
:101BF0004DFD3148D0ED000AF8EEE00A30EE200A43
:101C0000234880ED0B0AA0E026480068C0EB801155
:101C100001EB402040F2523101EB400000EE100A8F
:101C2000B8EEC00A1B48D0ED000A30EE200A1E486C
:101C300080ED000A00F03EFCDFED230A30EE200AC2
:101C40001B4880ED000A1548D0ED000A184890EDB9
:101C5000000A05F0C3FF174880ED000A124890ED16
:101C6000000A06F037FF1348D0ED000A30EEC00A34
:101C7000B0EE408AFEF70AFD0F48D0ED000AF8EEFC
:101C8000E00A30EE200ABDEEC00A10EE104A1DE058
:101C900090030020A0000020A4000020A800002045
:101CA0000000FA4498000020B40000200000B4C2F4
:101CB000AC000020B00000209C0000200068004024
:101CC000000000000000B44200003443224601211D
:101CD0004F4803F059FD4F4890ED000A06F0FAFE18
:101CE0004D48D0ED000A30EEC00AB0EE408AFEF753
:101CF000CDFC4A480068404200EE900AF8EEE00A47
:101D000030EE200ABDEEC00A10EE104A2246022133
:101D10003F4803F039FD3F4890ED000A06F020F8F7
:101D20003D48D0ED000A30EEC00AB0EE408AFEF722
:101D3000ADFC3A48D0ED000AF8EEE00A30EE200A99
:101D4000374880ED0B0A00E000BF00BF344890ED3B
:101D5000100ABDEEC00A10EE102A32A1324803F07C
:101D600039FC2F4890ED110ABDEEC00A10EE102A82
:101D70002CA12D4803F02EFC2C482AA102682A48E9
:101D800003F028FC2A4827A10268274803F022FC18
:101D9000284890ED000ABDEEC00A10EE102A21A1DD
:101DA000214803F017FC1C4890ED000ABDEEC00A64
:101DB00010EE102A1BA11C4803F00CFC154890EDF6
:101DC000000ABDEEC00A10EE102A16A1164803F054
:101DD00001FC134890ED0D0ABDEEC00A10EE102A6A
:101DE00010A1114803F0F6FB0D4890ED0B0ABDEE73
:101DF000C00A10EE102A0BA10B4803F0EBFB0848B9
:101E00000DA1C26F084803F0E5FBBDEC028B10BDCD
:101E100000680040B4000020B00000209C000020BA
:101E20009003002025640900005000409400002029
:101E300098000020A80000202564090D0A00000079
:101E400010B588B004460121082002F0A5F8012150
:101E5000480402F0B1F807220521244800F054FCA0
:101E600007220621214800F04FFC60200690022046
:101E70008DF81C008DF81D0000208DF81E0001203B
:101E80008DF81F0006A9194800F0F6FB0294002007
:101E9000ADF80C00ADF80E00ADF81000ADF8140070
:101EA0000C20ADF8120002A9114803F029FB4021D3
:101EB0000F4803F041FA26208DF8040000208DF829
:101EC000050002208DF8060001208DF8070001A80A
:101ED00001F062FA012240F22551054803F0EBFAC5
:101EE0000121034803F040FA08B010BD000C024085
:101EF0000044004010B504210F4800F028FC0128E0
:101F00000BD101210C4800F022FC012805D10B481F
:101F10000068401C0949086002E000200749086089
:101F2000064800681E2804DD0020044908600120DE
:101F300010BD0020FCE70000000802400400002063
:101F4000F0B5044600250020631E49E002EB800640
:101F500096ED001AB4EEE01AF1EE10FA01DD01265A
:101F600000E0002602EB830797ED001AB4EEE01ABA
:101F7000F1EE10FA01DD012700E00027BE422DD06E
:101F800001EB830696ED001A01EB8006D6ED001AF0
:101F900031EE611A02EB8006D6ED001A70EEE11AFE
:101FA00021EE211A02EB8306D6ED001A02EB800621
:101FB00096ED002A71EEC21A81EE212A01EB80060D
:101FC00096ED001A32EE011AB4EEC01AF1EE10FAD4
:101FD00004DD0DB9012600E0002635460346401C0D
:101FE000A042B3DB2846F0BD10B51C4800781C4960
:101FF00008601A4890ED0D0AD0ED0B0A9FED191AF2
:1020000060EE810AB4EEE00AF1EE10FA05D8164847
:102010000068401C1449086002E000201249086072
:10202000114800680A2811DD06F0AAFC0F4880ED6F
:10203000000A06F0ABFC0E4880ED000A00200A49B9
:1020400008600649C1F8940020200870064809A1DC
:1020500002680A4803F0BEFA10BD00009003002099
:10206000580000209A99993E900000205C000020C2
:102070006000002025640D0A0000000000500040B0
:10208000F0EE400A0E4890ED000A20EE200A0D48BE
:1020900090ED001AB8EEC11A30EEC11A0A48D0ED20
:1020A000001A01EE810A094880ED000ABDEEE00A3F
:1020B000044880ED000A054890ED000A70470000D2
:1020C0007C01002078010020800100208401002094
:1020D00010B52DED028BB0EE408AB0EE480A00F04C
:1020E0000FF8BDEEC00A10EE104A22460821034840
:1020F00003F04AFBBDEC028B10BD00000064004001
:10210000F0EE400A9FED020A20EE800A70470000C0
:1021100000008045024600EE102AB8EEC00ADFED4E
:102120001C0AB4EEE00AF1EE10FA0ADC00EE102A06
:10213000B8EEC00ADFED170AB4EEE00AF1EE10FACD
:1021400003D20020144B186002E00120124B1860EB
:1021500000EE101AB8EEC00ADFED0D0AB4EEE00A88
:10216000F1EE10FA0ADC00EE101AB8EEC00ADFED4C
:10217000090AB4EEE00AF1EE10FA03D20020064B91
:10218000186002E00120044B1860034800687047A3
:1021900000A8874500808E435401002010B50749F0
:1021A000074800F0EBF838B10021054800F024F8AA
:1021B0000249034800F006F810BD00000080002826
:1021C000B86002400246094B9A4201D2084801E039
:1021D0000648103801F000531BB1064B0B40C3609A
:1021E00002E0044B0B408360704700001064024023
:1021F000006002407D0F7D0F21B1026842F00102B4
:10220000026003E0026822F00102026070470000F1
:10221000016821F0010101600021016041608160DD
:10222000C1600161212141614A49884204D13D21B7
:10223000484A103A91608CE046491831884205D1ED
:102240004FF47461434A103A916082E04149303161
:10225000884205D14FF474113E4A103A916078E0FB
:102260003C494831884205D14FF07461394A103AEF
:1022700091606EE037496031884204D13649354A71
:10228000103AD16065E033497831884204D133494E
:10229000304A103AD1605CE02E499031884204D136
:1022A0002F492C4A103AD16053E02A49A83188427C
:1022B00005D14FF03D51274A103AD16049E02949F4
:1022C000884204D13D21274A083A116041E025495E
:1022D0001831884205D14FF47461224A083A1160DE
:1022E00037E020493031884205D14FF474111D4A3E
:1022F000083A11602DE01B494831884205D14FF062
:102300007461184A083A116023E016496031884226
:1023100004D11149134A121F11601AE01149783192
:10232000884204D10D490F4A121F116011E00D4976
:102330009031884204D10A490A4A121F116008E00C
:102340000849A831884204D14FF03D51054A121F77
:1023500011607047106002403D000020400F0020D7
:1023600000003D2010640240014600200A6802F08F
:1023700001020AB1012000E00020704770B502465A
:10238000002000240025124EB24201D2114B01E080
:102390000F4B103B104E0E4036B11E2606EAD124DC
:1023A000166806EA040502E0566906F0800501F0A9
:1023B00000560EB15C6800E01C68084E344004EA28
:1023C000010616B10DB1012000E0002070BD000033
:1023D00010640240006002403C0F3C0F7D0F7D0FF7
:1023E00010B501F080034BB122B1436943F0800383
:1023F000436103E0436923F08003436180290BD0EC
:102400002AB1036801F01E042343036004E003685B
:1024100001F01E04A343036010BD000010B50022AC
:102420000268134B1A40CC680B6823434C69234362
:102430008C692343CC6923430C6A23434C6A2343AE
:102440008C6A23434C6B23438C6B23431A430260F7
:10245000426922F00702D1E90B3423431A43426157
:102460000B6943604B6883608B68C36010BD0000DC
:102470003F801CF0704700B5034604E04FF47A70CB
:1024800000F004F85B1E002BF8D100BDA8214143E9
:102490004FF0E02251610521116100BF4FF0E021B2
:1024A000096901F480310029F8D004214FF0E022BD
:1024B0001161704710B506F0B1F8F3EE040A20EE92
:1024C000200A10BD7FB500200290039006F000F9AD
:1024D000044606F027F905469FED5E0A01F03AFF33
:1024E00000205D49C1F8940029462046FFF712FEFE
:1024F0005A4908605A48007800F0010050B105F0D0
:10250000D9FF584908605648006820F00100544936
:10251000086087E05248007800F0020000285BD095
:102520004F48007800F0080000287BD04D48006834
:1025300006F07EF88DED020ACDED030ADDED031AFB
:10254000B0EE611A4448D0ED0F1AF0EE610ADDEDED
:10255000021AB0EE610AFEF717F8FFF7CBFC00286D
:1025600060D000220121404803F00EF90022022130
:102570003D4803F009F93948006850B1394800680E
:1025800005F05CFD012039490860002034490860ED
:1025900048E03448006805F033FF35480068401CC7
:1025A000334908600020314908603148006802283A
:1025B00004DB0120086000202D4908600020284924
:1025C00008600846006840F001000860084600689E
:1025D00040F00400086025E02148007800F0040085
:1025E00000B32048006800F0EBF88DED000ACDED57
:1025F000010A9DED011AF0EE410A9DED001AB0EEC0
:10260000410A01F00FF901280CD10020144908609B
:102610000846006840F0020008600846006840F084
:102620000800086011480068012812D10A480078A3
:1026300020F01000084908700B20094908600020AC
:102640000A4908600A4908600A49086048608860C9
:10265000C8607FBD00007042900300207001002020
:10266000480100206C010020006800404401002067
:102670006801002064040020F0B50A460021002310
:10268000002400BF3DE0012505FA01F3156805EAC5
:1026900003049C4234D105684F000326BE40B54375
:1026A000056015794E00B54006683543056015791B
:1026B000012D02D01579022D16D185684F00032611
:1026C000BE40B543856055794E00B54086683543B8
:1026D0008560456801268E40B5434560456896791A
:1026E0008E40B6B235434560C5684F000326BE40F4
:1026F000B543C560D5794E00B540C6683543C56061
:10270000491C1029BFD3F0BDF0B5002300244D07AC
:10271000ED0E02FA05F3CE1000F1200555F8265013
:102720004E07F70E0F26BE40B543CF1000F120062E
:1027300046F82750CE1000F1200555F8265045EAFE
:102740000304CE1000F1200545F82640F0BD0246F6
:10275000002013690B400BB1012000E000207047FE
:10276000418370470183704710B504460723012257
:1027700021460848FDF762FE0648FDF7BBFE00BF94
:1027800002210448FDF726FE0028F9D00148FDF794
:102790001DFE10BD002001402DE9F04107460C460A
:1027A0000025002605E03846FFF7DEFF0544701CD3
:1027B000C6B2A642F7DBB5FBF4F080B2BDE8F0810B
:1027C0000CB530B101280DD0022814D0032824D133
:1027D0001AE09FED150A8DED000A9FED140A8DEDAC
:1027E000010A1AE09FED120A8DED000A9FED0F0A13
:1027F0008DED010A11E09FED0F0A8DED000A9FEDAE
:102800000E0A8DED010A08E09FED0A0A8DED000A1F
:102810009FED0A0A8DED010A00BF00BF9DED000A81
:10282000DDED010A0CBD00000000E1C4000016450A
:102830000000E14400000000004083450000164411
:1028400000BFFEE708B50020034653226321009035
:102850004FF0804002F008F90120002340F2473297
:1028600040F2E7310090164802F0FEF84FF4007095
:102870004310144A4FF4FA7100901348FEF742FBDC
:10288000402020230F4A4FF4FA7100900F48FEF7C2
:1028900039FBFDF735FE02F00BFA01F045FB4FF472
:1028A000E13001F085FD4FF4E130FFF7C9FA4FF454
:1028B000E13001F0DDFA4FF4E13002F013FA08BD27
:1028C0000004004000040240006400400068004032
:1028D00010B5044600F09EF84048806D0A2879D271
:1028E000DFE800F005111D2935404B56616C0122CF
:1028F000114600209FED3A1ADFED3A0A9FED3A0AA1
:1029000000F0ECFA67E00122114610469FED371AFD
:10291000DFED340A9FED360A00F0E0FA5BE00122B9
:10292000911E00209FED331ADFED330A9FED300A30
:1029300000F0D4FA4FE00122911E10469FED2F1AAD
:10294000DFED2D0A9FED280A00F0C8FA43E0DFED25
:102950002C1A9FED231ADFED2B0A9FED2B0A00F0B6
:1029600061FD38E0DFED261A9FED1D1ADFED270A25
:102970009FED250A00F056FD2DE0DFED211A9FEDB9
:10298000181ADFED230A9FED200A00F04BFD22E02C
:10299000DFED1B1A9FED121ADFED1A0A9FED1A0ADE
:1029A00001F062FD17E0DFED161A9FED0D1ADFED65
:1029B000170A9FED150A01F057FD0CE0DFED101A24
:1029C0009FED071ADFED120A9FED0F0A01F04CFD93
:1029D00001E0FFE700BF00BF10BD00009003002032
:1029E0000000000000805445000016440000B4427E
:1029F000000016C4000034430000AF440000B4C21D
:102A000000001645008089440000E1440000C844ED
:102A10000040034510B5614890ED0D0ADFED600AF6
:102A2000B4EEE00AF1EE10FA03DD01205B49C1F8D3
:102A300094005A48D0F89800012847D100215748FF
:102A4000C0F89810806D072817DB5448806D09285E
:102A500013D05248C06D012805DA5048806DC01E61
:102A60004E49886532E04D48C06D01282EDD4B4847
:102A7000806D801E4949886528E04848806D092896
:102A800002D1FFF71FFD21E04448806D062802D1E6
:102A9000FFF718FD1AE04148806D072816DA3F4815
:102AA000806D062812D03D48C06D012805DA3B48EC
:102AB000806DC01C3949886508E03848C06D012820
:102AC00004DD3648806D001D344988653348806DCB
:102AD00004280BD03148806D052807D02F48806D21
:102AE000072803D02D48806D082806D105F0B6F8D8
:102AF0002A49896D0144294881652848806D062846
:102B000023D1264890ED110ADFED250AB4EEE00A44
:102B1000F1EE10FA19DD90ED110ADFED220AB4EEA4
:102B2000E00AF1EE10FA10D290ED100ADFED1E0A65
:102B3000B4EEE00AF1EE10FA07DD007820F00100B3
:102B4000164908700021154881651448806D0928D0
:102B500023D1124890ED110ADFED110AB4EEE00A1C
:102B6000F1EE10FA19DD90ED110ADFED0E0AB4EE68
:102B7000E00AF1EE10FA10D290ED100ADFED0A0A29
:102B8000B4EEE00AF1EE10FA07DD007820F0010063
:102B90000249087000210148816510BD90030020A2
:102BA0000000FA44004003450080ED4410B522487F
:102BB0000068B0F5967F04DA1F480068401C1E4983
:102BC000086005F085FDB0F5FA7F0BDA1A48006859
:102BD000B0F5967F06D14FF4977017490860012031
:102BE0001649086005F09EFDB0F5FA7F0BDA124831
:102BF0000068B0F5967F06D14FF497700E490860D3
:102C000002200E49086005F08DFDB0F5FA7F10DA5C
:102C100005F05EFDB0F5FA7F0BDA07480068B0F505
:102C2000967F06D14FF4977003490860032003494B
:102C300008600248006810BD340000203800002001
:102C400010B52DED0E8BF0EE408AB0EE608AB0EE3E
:102C5000419A044605F0DCFC0446642C0AD19FED41
:102C6000860A864880ED000A9FED850A854880ED3A
:102C7000000A0BE0012C09D19FED830A7F4880ED0B
:102C8000000A9FED7F0A7F4880ED000AB0EE490AF6
:102C900004F09AF99FED7D1AF0EE680A41EE400AC1
:102CA000F0EE608AB0EE490A03F04EFA9FED771A13
:102CB000F0EE480A41EE000AB0EE608A6F4890EDEF
:102CC000000A38EEC00A20EE000A6E48D0ED000A75
:102CD00078EE600A90ED001A38EE411A00EE810A93
:102CE000F1EEC00A6A48C0ED000A90ED000ADFED7F
:102CF000690A20EE200AD0ED000A60EE200A66483C
:102D000090ED000A624890ED001ADFED641A11EEB2
:102D1000210A80EE801AB1EEC10A614880ED000AF6
:102D2000D0ED000A9FED5F0A9FED5F1A11EE200AB9
:102D30005E4880ED000A514890ED000A30EE680AC6
:102D40005B4880ED000A4F4890ED000A30EE480ADB
:102D5000584880ED000A5648006806F0BBFE41EC7A
:102D60001D0B5448006806F0B5FE41EC1E0BB0EE9A
:102D70004D1AF0EE6D1AB0EE4E0AF0EE6E0A03F048
:102D800087F8B0EE40CAF0EE60CA9FED4B0B53ECF3
:102D9000102B51EC1C0B06F0A7FB41EC1B0B9FED1D
:102DA000480B53EC102B06F0B1F941EC1A0B06F06E
:102DB000BFF845490860084690ED000ADFED430A78
:102DC00030EE600A80ED000A90ED000ADFED400A67
:102DD000B4EEE00AF1EE10FA08DD90ED000ADFED46
:102DE0003D0A30EE600A80ED000A11E0364890EDB1
:102DF000000ADFED390AB4EEE00AF1EE10FA07D26C
:102E000090ED000ADFED330A30EE200A80ED000A73
:102E10002D4890ED000A39EE400A244880ED010A61
:102E200090ED010ADFED2A0AB4EEE00AF1EE10FAA5
:102E300008DD90ED010ADFED270A30EE600A80ED33
:102E4000010A11E0194890ED010ADFED230AB4EE02
:102E5000E00AF1EE10FA07D290ED010ADFED1D0A4B
:102E600030EE200A80ED010A104890ED000AD0ED06
:102E7000010ABDEC0E8B10BD008022C3F4000020BF
:102E80009AF51145F8000020008022436666C24290
:102E9000E80000206E514146EC00002034119E3FB6
:102EA000F0000020BE9FAE4024B4653CE00000204E
:102EB000FC000020000100200000000000806640AF
:102EC00000000060FB210940040100200000B44222
:102ED000000034430000B443000034C32DE9F04146
:102EE0002DED0A8BB0EE408AF0EE608AB0EE419A8A
:102EF00006460C461546FE4890ED100AFD4880ED4A
:102F0000000AFB4890ED110AFB4880ED000AF848E2
:102F100090ED0F0AF94880ED000AF54880ED2D9AF2
:102F20006D1E002002F0F6FB16B1012E7DD12FE1BF
:102F300004FB05F04FF4EB71484300EE100AB8EEC5
:102F4000C00A30EE080AEB48D0ED000A30EEC00AA5
:102F5000E74880ED130AE948D0ED000AB0EE490ACF
:102F600004F03CFEE24880ED140A04FB05F04FF447
:102F7000AF71484300EE100AB8EEC00A70EE280A9E
:102F800000EE104AB8EEC00A60EE800A00EE104A69
:102F9000B8EEC00AD84890ED001A40EE410AD44875
:102FA000C0ED150A284605F0A4FF074606F035FADD
:102FB00041EC1A0BCE4890ED150A10EE101A084697
:102FC00006F088FD41EC1C0BB0EE4C0AF0EE6C0AEA
:102FD00003F062F9B0EE40BAF0EE60BA53EC1A2B8F
:102FE00051EC1B0B06F07EFB7ED2012D50DAC0485F
:102FF000D0ED130AB0EE600A05F06CFDF0EE400A69
:10300000BB4890ED141A00EE104AB8EEC00A00EE6C
:10301000201AB0EE412AB0EE420AFDF737FBB44861
:10302000D0ED0C0A30EE200A00E08CE1BDEEC00AC3
:1030300010EE107A3A460121B14802F0A5FBAC48E7
:10304000D0ED130AB0EE600A05F044FDF0EE400A40
:10305000A74890ED141A00EE104AB8EEC00A00EE30
:10306000201AB0EE412AB0EE420AFDF70FFBA0484D
:10307000D0ED0C0AF1EE600A30EE200ABDEEC00A77
:1030800010EE107A3A4602219D4802F07DFB7EE068
:10309000012D7CDB9648D0ED130AB0EE600A04F0F7
:1030A0005FFEF0EE400A924890ED141A00EE104ACE
:1030B000B8EEC00A00EE201AB0EE412AB0EE420A85
:1030C000FDF7E4FA8A48D0ED0C0A30EE200ABDEE96
:1030D000C00A10EE107A3A460121894802F054FBEA
:1030E0008348D0ED130A00E025E0B0EE600A04F05A
:1030F00037FEF0EE400A7E4890ED141A00EE104ABA
:10310000B8EEC00A00EE201AB0EE412AB0EE420A34
:10311000FDF7BCFA7648D0ED0C0AF1EE600A30EE0D
:10312000200ABDEEC00A10EE107A3A460221744819
:1031300002F02AFB2BE0284605F0DBFE074606F0EE
:103140006CF941EC1A0B6A4890ED150A10EE101A52
:10315000084606F0BFFC41EC1C0BB0EE4C0AF0EE4A
:103160006C0A03F099F8B0EE40BAF0EE60BA53EC96
:103170001A2B51EC1B0B06F07BF908D29FED610A6C
:103180005B4880ED150A806D401C59498865DBE07D
:1031900004FB05F04FF4AF71484300EE100AB8EE9F
:1031A000C00A30EE280A5448D0ED000A30EEC00ABA
:1031B0004F4880ED130A5148D0ED000AB0EE490A9D
:1031C00004F00CFD4A4880ED140A04FB05F04FF4AE
:1031D000EB71484300EE100AB8EEC00A38EE400A20
:1031E0004448D0ED000A30EE600A414880ED150AEF
:1031F000284605F07EFE074606F00FF941EC1A0B53
:103200003B4890ED150A10EE101A084606F062FCD5
:1032100041EC1C0BB0EE4C0AF0EE6C0A03F03CF8EB
:10322000B0EE40BAF0EE60BA53EC1A2B51EC1B0B27
:1032300006F058FA4DD22E48D0ED130AB0EE600ACF
:1032400004F08EFDF0EE400A294890ED141A00EECD
:10325000104AB8EEC00A00EE201AB0EE412AB0EED5
:10326000420AFDF713FA2248D0ED0C0A30EE200A8C
:10327000BDEEC00A10EE107A3A460121204802F055
:1032800083FA1B48D0ED130AB0EE600A04F068FD23
:10329000F0EE400A164890ED141A00EE104AB8EE0F
:1032A000C00A00EE201AB0EE412AB0EE420AFDF745
:1032B000EDF90F48D0ED0C0AF1EE600A30EE200A6D
:1032C000BDEEC00A10EE107A3A4602210C4802F018
:1032D0005BFA284605F00DFE074606F09EF841EC25
:1032E0001A0B034890ED150A10EE101A08460BE071
:1032F00090030020C0020020C4020020C802002069
:10330000006800400000000006F0E4FB41EC1C0BEC
:10331000B0EE4C0AF0EE6C0A02F0BEFFB0EE40BA1E
:10332000F0EE60BA53EC1A2B51EC1B0B06F0A0F830
:1033300008D21FED0C0A074880ED150A806D401C6D
:103340000449886500E000BF00BFBDEC0A8BBDE802
:10335000F08100009003002000BFFEE710B50A488E
:103360000068401C084908600846006805280ADD16
:103370000121064800F018FF0721054800F0D0FEA3
:1033800000200149086010BD78030020006800405B
:103390000064004000BFFEE770B5002100230F224B
:1033A000C4781CB3174C246804F4E064C4F5E064EA
:1033B000C4F30721C1F10404E3B20A4144789C40FC
:1033C000E1B28478144021430C07210E0E4C05789D
:1033D0006155047804F01F050124AC4005786D1197
:1033E000AD0005F1E025C5F8004109E0047804F0DE
:1033F0001F050124AC40054D0678761145F826409E
:1034000070BD00000CED00E000E400E080E100E0B1
:1034100002490143024A1160704700000000FA05AA
:103420000CED00E070B52DED108BF0EE40AAB0EE83
:10343000608AB0EE41DAF0EE618A05F0A9F9E04861
:1034400080ED000A05F020FADE4880ED000A05F064
:1034500093F8DD4880ED000AD94890ED000A30EE7F
:103460004D0A20EE000AD748D0ED000A70EEE80AB7
:1034700090ED001A31EE681A00EE810A10EE101A73
:10348000084606F027FB41EC1C0BB0EE4C0AF0EEB0
:103490006C0A03F061FEB0EE40BAF0EE60BA51EC97
:1034A0001B0B05F045FDC9490860084690ED000A70
:1034B00030EE480AC64880ED000AC14890ED000A87
:1034C00030EE4D0AC34880ED000ABE4890ED000A78
:1034D00030EE680AC04880ED000A90ED000ABD4851
:1034E000D0ED000A80EE201ABC4880ED001A90ED65
:1034F000000AFFEE000A80EE801A11EE105A2846EC
:1035000006F0E8FA41EC1E0BB0EE4E0AF0EE6E0A41
:1035100002F052FBB0EE40CAF0EE60CA9FEDB00B75
:1035200053EC102B51EC1C0B05F0DEFF41EC1F0B94
:103530009FEDAD0B53EC102B05F0E8FD41EC1B0BA0
:1035400005F0F6FCAA490860A348006806F0C2FA34
:1035500041EC1C0BB0EE4C0AF0EE6C0A02F09CFE43
:10356000B0EE40BAF0EE60BA9FEDA20B53EC102B18
:1035700051EC1B0B05F07CFF1AD2964890ED000A27
:10358000B5EEC00AF1EE10FA05DD9FED9C0A9C48ED
:1035900080ED000A0CE08F4890ED000AB5EEC00AFD
:1035A000F1EE10FA04D29FED970A954880ED000ADB
:1035B0008848006806F08EFA41EC1C0BB0EE4C0A0D
:1035C000F0EE6C0A02F068FEB0EE40BAF0EE60BABF
:1035D0009FED880B53EC102B51EC1B0B05F048FFB3
:1035E0001AD27D4890ED000AB5EEC00AF1EE10FA4D
:1035F00005DD9FED850A824880ED000A0CE07648E3
:1036000090ED000AB5EEC00AF1EE10FA04D29FED7B
:103610007F0A7B4880ED000A6E4890ED000AB5EE07
:10362000C00AF1EE10FA27DD6B4890ED000AB5EE06
:10363000C00AF1EE10FA0ADD6D4890ED000ADFEDE8
:10364000720A30EE200A6E4880ED000A43E06248BC
:1036500090ED000AB5EEC00AF1EE10FA3BD26448D4
:1036600090ED000ADFED680A30EEC00AB1EE400AC4
:10367000634880ED000A2EE0564890ED000AB5EE52
:10368000C00AF1EE10FA26D2534890ED000AB5EECA
:10369000C00AF1EE10FA0ADD554890ED000ADFEDA0
:1036A0005A0A30EE200A564880ED000A13E04A48D4
:1036B00090ED000AB5EEC00AF1EE10FA0BD24C48BC
:1036C00090ED000ADFED500A30EEC00AB1EE400A7C
:1036D0004B4880ED000A3C48D0ED000A484890ED88
:1036E000000A04F07BFA4A4880ED000A9FED490A7F
:1036F00078EE000A80EE880A20EE2A0AFDEEC09AD3
:103700009FED440A78EE400A80EE880A20EE2A0AED
:10371000BDEEC0AAF8EEE90A9FED3F1A80EE810ADD
:10372000DFED3E0A20EE200ABDEEC09AF8EECA0A8E
:103730009FED391A80EE810ADFED380A20EE200A6B
:10374000BDEEC00A10EE104A214890ED000A05F0C7
:1037500067FB2F48D0ED000A30EE200AB0EE40BAE9
:10376000FEF78EFCF8EEC90A30EE200ABDEEC00A64
:1037700010EE105A2A460121294802F005F8144893
:1037800090ED000A05F04CFB2148D0ED000A30EE28
:10379000200AB0EE40BAFEF773FC604200EE900AD9
:1037A000F8EEE00A30EE200ABDEEC00A10EE105A24
:1037B0002A4602211A4801F0E7FFBDEC108B70BDCC
:1037C000880100208C010020900100209C01002035
:1037D000A4010020AC010020B0010020A0010020C5
:1037E000000000000080664000000060FB210940EE
:1037F000A8010020000000000000F03F00000000D1
:1038000094010020000034430000B4420000B4C220
:1038100098010020000059436766BC4300008045C2
:103820000068004010B52DED0C8BB0EE408AF0EE34
:10383000608AFE4890ED100AFD4880ED000AFB48C2
:1038400090ED110AFB4880ED000AF84890ED0F0A50
:10385000F94880ED000AF74890ED000A30EE680A5A
:1038600010EE101A084606F035F941EC1D0B9FEDDD
:10387000F31BB0EE4D0AF0EE6D0A02F019FDB0EE4A
:1038800040BAF0EE60BAEA4890ED000A30EE480A1D
:1038900010EE101A084606F01DF941EC1D0B9FEDC5
:1038A000E71BB0EE4D0AF0EE6D0A02F001FDB0EE3E
:1038B00040CAF0EE60CA53EC1B2B51EC1C0B05F018
:1038C00069FB41EC1A0BB0EE4A0AF0EE6A0A03F00B
:1038D00043FCB0EE409AF0EE609A51EC190B05F003
:1038E00027FBD8490860D24890ED000A30EE480A1C
:1038F000D54880ED000ACF4890ED000A30EE680A06
:10390000D24880ED000A90ED000ACF48D0ED000AC1
:1039100080EE201ACE4880ED001A006806F0DAF832
:1039200041EC1C0BB0EE4C0AF0EE6C0A02F044F9CC
:10393000B0EE40BAF0EE60BA9FEDC60B53EC102B20
:1039400051EC1B0B05F0D0FD41EC1A0B9FEDC30BA6
:1039500053EC102B05F0DAFB41EC190B05F0E8FAFB
:10396000C0490860B84890ED000ADFEDBF0A20EEBC
:10397000200AFFEE000AB4EEE00AF1EE10FA27DBAF
:1039800090ED000ADFEDB80A20EE200AF7EE000AFB
:10399000B4EEE00AF1EE10FA1AD8AC4890ED000A45
:1039A000B5EEC00AF1EE10FA05DD9FEDB00AB048A1
:1039B00080ED000A0CE0A54890ED000AB5EEC00AC3
:1039C000F1EE10FA04D29FEDAB0AA94880ED000A8F
:1039D0009D4890ED000AB5EEC00AF1EE10FA25DD23
:1039E0009A4890ED000AB5EEC00AF1EE10FA0ADD31
:1039F0009C4890ED000ADFEDA00A30EE200A9C48BA
:103A000080ED000A41E0914890ED000AB5EEC00A51
:103A1000F1EE10FA39D2934890ED000ADFED960AE4
:103A200030EE200A924880ED000A2EE0864890EDA4
:103A3000000AB5EEC00AF1EE10FA26D2834890EDE6
:103A4000000AB5EEC00AF1EE10FA0ADD854890EDE5
:103A5000000ADFED890A30EE600A854880ED000A31
:103A600013E07A4890ED000AB5EEC00AF1EE10FAC4
:103A70000BD27C4890ED000ADFED7F0A30EEC00AE1
:103A8000B1EE400A7A4880ED000A6B48D0ED000A9A
:103A9000774890ED000A04F0A1F8784880ED000A1C
:103AA0006848006806F016F841EC1A0BB0EE4A0AB6
:103AB000F0EE6A0A02F0F0FBB0EE409AF0EE609A87
:103AC0009FED6F0B53EC102B51EC190B05F00AFE18
:103AD00023D26A4890ED000AFCF7D8FDDFED6A0AB0
:103AE00030EE200ABDEEC00A10EE104A2246012137
:103AF000664801F049FE614890ED000AFCF7C6FDFA
:103B0000DFED630A30EE200ABDEEC00A10EE104A67
:103B1000224602215D4801F037FE4A48006805F060
:103B2000D9FF41EC1A0BB0EE4A0AF0EE6A0A02F035
:103B3000B3FBB0EE409AF0EE609A9FED560B53EC5B
:103B4000102B51EC190B05F0CDFD3CD23D4800681F
:103B500005F0C0FF41EC1A0BB0EE4A0AF0EE6A0A1B
:103B600002F09AFBB0EE409AF0EE609A9FED440BA3
:103B700053EC102B51EC190B05F07AFC23D23F4883
:103B800090ED000AFCF782FDDFED440A30EE200ADA
:103B9000BDEEC00A10EE104A224601213B4801F05A
:103BA000F3FD364890ED000AFCF770FDDFED3C0AAE
:103BB00030EE200ABDEEC00A10EE104A2246022165
:103BC000324801F0E1FD1F48006805F083FF41EC39
:103BD0001A0BB0EE4A0AF0EE6A0A02F05DFBB0EE94
:103BE000409AF0EE609A9FED2B0B53EC102B51ECAA
:103BF000190B05F03DFC7FD21248006805F06AFF02
:103C000041EC1A0BB0EE4A0AF0EE6A0A02F044FBED
:103C1000B0EE409AF0EE609A9FED220B53EC102B21
:103C200051EC190B05F05EFD66D23FE090030020D9
:103C3000080000200C000020100000200000000000
:103C40000000004020000020280000202C00002060
:103C50001C000020000000000080664000000060A2
:103C6000FB2109402400002000007A44000034C3F6
:103C700014000020000000000000B44218000020E2
:103C80000000000000406F400080BB45006800401D
:103C90000080BBC5000000000000694000007A45BC
:103CA00000007AC50000000000005440334890ED49
:103CB000000AFCF7EBFCDFED320A30EE200ABDEE25
:103CC000C00A10EE104A224601212E4801F05CFD88
:103CD0002A4890ED000AFCF7D9FCDFED2B0A30EE04
:103CE000200ABDEEC00A10EE104A224602212548E5
:103CF00000E001E001F048FD2448006805F0EAFE1C
:103D000041EC1A0BB0EE4A0AF0EE6A0A02F0C4FA6D
:103D1000B0EE409AF0EE609A9FED1D0B53EC102B25
:103D200051EC190B05F0DEFC26D21848006805F0AE
:103D3000D1FE41EC1A0BB0EE4A0AF0EE6A0A02F02C
:103D4000ABFAB0EE409AF0EE609A1FED2A0B53ECFE
:103D5000102B51EC190B05F08BFB0DD20022012129
:103D6000084801F011FD00220221064801F00CFD77
:103D70000120BDEC0C8B10BD0020FAE718000020DC
:103D80000000FA44006800400000FAC4200000204F
:103D900000000000000000002DE9F04389B08146DA
:103DA0000D46174698460024304B0FCB05AE0FC684
:103DB00005F540700090019000208DF808008DF806
:103DC000090008208DF80A001FB944F25010059030
:103DD00002E045F250200590CDF8188000243FE025
:103DE00005A810F834008DF80B0005A830F8340051
:103DF000010A8DF80C1005A850F83400010C8DF85C
:103E00000D1005A850F83400000E8DF80E0005A81E
:103E100000EBC40001798DF80F1005A800EBC40079
:103E20008088010A8DF8101005A800EBC4004068D6
:103E3000010C8DF8111005A800EBC4004068000EBD
:103E40008DF8120069464846FDF712FC064600BF91
:103E500031464846FDF7A0FC0128F9D1601CC4B2E8
:103E6000022CBDDB09B0BDE8F08300003C9E0008D9
:103E700010B588B004460121082000F08DF801211A
:103E8000880400F099F8072208212548FEF73CFC39
:103E9000072209212248FEF737FC4FF440700690B4
:103EA00002208DF81C008DF81D0000208DF81E00EA
:103EB00001208DF81F0006A91948FEF7DDFB4FF41D
:103EC000E13002900020ADF80C00ADF80E00ADF826
:103ED0001000ADF814000C20ADF8120002A9114832
:103EE00001F00EFB01210F4801F03EFA40210D4880
:103EF00001F022FA012240F225510A4801F0DBFAD2
:103F000027208DF8040000208DF8050001208DF891
:103F100006008DF8070001A8FFF73EFA08B010BDB3
:103F2000000C0240004800401CB50121102000F0A8
:103F300033F85020009001208DF8040000208DF807
:103F4000060003208DF8050002208DF80700694661
:103F50000548FEF791FB10210348FEF703FC4021C2
:103F60000148FEF7FDFB1CBD0010024010B54FF4E8
:103F70007A63002206210248FFF70EFF10BD000001
:103F80000064004010B50523002206210148FFF718
:103F900003FF10BD0064004029B1064A12680243C5
:103FA000044B1A6004E0034A12688243014B1A6012
:103FB000704700003038024029B1064A12680243B7
:103FC000044B1A6004E0034A12688243014B1A60F2
:103FD000704700004038024029B1064A1268024387
:103FE000044B1A6004E0034A12688243014B1A60D2
:103FF000704700002038024029B1064A1268024387
:10400000044B1A6004E0034A12688243014B1A60B1
:10401000704700004438024029B1064A1268024342
:10402000044B1A6004E0034A12688243014B1A6091
:104030007047000024380240F0B50021002200241F
:10404000022500260223324F3F6807F00C0121B100
:10405000042905D0082937D105E02E4F076036E046
:104060002D4F076033E02A4F3F1F3F68C7F380564C
:10407000274F3F1F3F6807F03F036EB1264FB7FB46
:10408000F3F7DFF88CC0ACF1040CDCF800C0CCF323
:10409000881C07FB0CF40CE01E4FB7FBF3F7DFF8AE
:1040A00070C0ACF1040CDCF800C0CCF3881C07FB3A
:1040B0000CF4174F3F1F3F68C7F301477F1C7D007B
:1040C000B4FBF5F7076002E0124F076000BF00BFC6
:1040D0000F4F3F6807F0F0010909104F7A5C07683D
:1040E000D74047600A4F3F6807F4E051890A0B4FF9
:1040F0007A5C4768D7408760054F3F6807F46041A6
:10410000490B064F7A5C4768D740C760F0BD000096
:10411000083802400024F40000127A007D030020D9
:1041200070B588B005460C461E4903C9CDE90601A5
:1041300004F540700190029000208DF80C008DF87D
:104140000D0008208DF80E000698C0B28DF80F0003
:104150000698010A8DF810100698010C8DF81110C0
:104160000698000E8DF812000798C1B28DF8131052
:104170000798010A8DF814100798010C8DF8151096
:104180000798000E8DF8160001A92846FDF770FA71
:10419000064600BF31462846FDF7FEFA0128F9D150
:1041A00008B070BD5C9E000870B588B005460C462E
:1041B0001E4903C9CDE9060104F540700190029043
:1041C00000208DF80C008DF80D0008208DF80E00F1
:1041D0000698C0B28DF80F000698010A8DF81010ED
:1041E0000698010C8DF811100698000E8DF812003B
:1041F0000798C1B28DF813100798010A8DF81410B2
:104200000798010C8DF815100798000E8DF8160010
:1042100001A92846FDF72CFA064600BF314628467C
:10422000FDF7BAFA0128F9D108B070BD649E000804
:1042300010B5FEF7BBFC012806D0022808D00328E1
:104240000AD004280CD10AE00120FEF741FB08E067
:104250000220FEF73DFB04E001F062FB01E000E01C
:1042600000BF00BF10BD70470CB50020019000904A
:104270003448006840F480303249086000BF31485B
:10428000006800F4003000900198401C01900098F4
:1042900018B90198B0F5A06FF1D12A48006800F470
:1042A000003010B10120009001E000200090009843
:1042B000012846D123484030006840F08050214911
:1042C000403108602048006840F480401E49086082
:1042D0001C48083000681B4908310860084600681F
:1042E00040F4004008600846006840F4A0500860B0
:1042F0001648091F0860081F006840F08070091FF9
:10430000086000BF0F48006800F000700028F9D076
:1043100040F205600E4908600A480830006820F045
:1043200003000849083108600846006840F00200B0
:10433000086000BF03480830006800F00C0008283F
:10434000F8D10CBD0038024000700040085440070E
:10435000003C024000B52DED028B81B0B0EE408AEA
:10436000B0EE480A04F04AFD009041210F4801F0E8
:10437000B9F99DF800100D4801F0B4F99DF801104D
:104380000A4801F0AFF99DF80210084801F0AAF9B7
:104390009DF80310054801F0A5F94A21034801F0F2
:1043A000A1F901B0BDEC028B00BD0000001001407E
:1043B00010B588B0044601210846FFF7EDFD012144
:1043C0001020FFF719FE072209212548FEF79CF966
:1043D00007220A212248FEF797F94FF4C0600690A1
:1043E00002208DF81C008DF81D0000208DF81E00A5
:1043F00001208DF81F0006A91948FEF73DF9029427
:104400000020ADF80C00ADF80E00ADF81000ADF8CE
:1044100014000C20ADF8120002A9124801F070F847
:104420004021104800F088FF25208DF8040000206E
:104430008DF8050002208DF8060001208DF8070098
:1044400001A8FEF7A9FF012240F22551054801F01D
:1044500032F80121034800F087FF08B010BD0000CA
:10446000000002400010014010B52DED108BB0EEA1
:1044700040DAB0EE608AF0EE41DAF0EE618A04F0E4
:1044800087F9DD4880ED000A04F0FEF9DB4880ED95
:10449000000A04F071F8DA4880ED000AD64890ED81
:1044A000000A30EE6D0A20EE000AD448D0ED000A72
:1044B00070EEE80A90ED001A31EE681A00EE810AFB
:1044C00010EE101A084605F005FB41EC1C0BB0EE8F
:1044D0004C0AF0EE6C0A02F03FFEB0EE40BAF0EE8D
:1044E00060BA51EC1B0B04F023FDC6490860084676
:1044F00090ED000A30EE480AC34880ED000ABE483D
:1045000090ED000A30EE6D0AC04880ED000ABB480D
:1045100090ED000A30EE680ABD4880ED000A90ED8B
:10452000000ABA48D0ED000A80EE201AB94880EDA2
:10453000001A90ED000AFFEE000A80EE801A11EEDC
:10454000104A204605F0C6FA41EC1E0BB0EE4E0AAA
:10455000F0EE6E0A01F030FBB0EE40CAF0EE60CA39
:104560009FEDAD0B53EC102B51EC1C0B04F0BCFF7A
:1045700041EC1F0B9FEDAA0B53EC102B04F0C6FD72
:1045800041EC1B0B04F0D4FCA7490860A04800686C
:1045900005F0A0FA41EC1B0BB0EE4B0AF0EE6B0AF3
:1045A00001F07AFEB0EE40CAF0EE60CA9FED9F0BBC
:1045B00053EC102B51EC1C0B04F05AFF1BD2934808
:1045C00090ED000AB5EEC00AF1EE10FA05DD9FEDA0
:1045D000990A994880ED000A41E08C4890ED000A64
:1045E000B5EEC00AF1EE10FA39D29FED940A924866
:1045F00080ED000A33E08548006805F06BFA41EC75
:104600001C0BB0EE4C0AF0EE6C0A01F045FEB0EE69
:1046100040BAF0EE60BA9FED850B53EC102B51ECD5
:104620001B0B04F025FF1AD2794890ED000AB5EE75
:10463000C00AF1EE10FA05DD9FED810A7E4880ED9B
:10464000000A0CE0724890ED000AB5EEC00AF1EEE7
:1046500010FA04D29FED7B0A774880ED000A6B4880
:1046600090ED000AB5EEC00AF1EE10FA25DD6848BB
:1046700090ED000AB5EEC00AF1EE10FA0ADD6A48C4
:1046800090ED000ADFED6F0A30EE600A6A4880EDB7
:10469000000A3FE05E4890ED000AB5EEC00AF1EE78
:1046A00010FA37D2604890ED000ADFED660A30EE6E
:1046B000200A614880ED000A2CE0544890ED000A81
:1046C000B5EEC00AF1EE10FA24D2514890ED000A7E
:1046D000B5EEC00AF1EE10FA0ADD534890ED000A7B
:1046E000DFED580A30EE600A534880ED000A11E011
:1046F000474890ED000AB5EEC00AF1EE10FA09D273
:10470000494890ED000ADFED4F0A30EE200A4A4892
:1047100080ED000A3A48D0ED000A474890ED000AC3
:1047200003F05CFA484880ED000A9FED480A78EEF5
:10473000000A80EE880A20EE0D0ABDEEC0AA9FEDA9
:10474000430A78EE400A80EE880A20EE0D0AFDEE5C
:10475000C0AAB8EECA0ADFED3E0A80EE201A9FED2D
:104760003D0A21EE000ABDEEC09AB8EEEA0A9FEDBE
:10477000381AC0EE010A9FED370A20EE800AFDEEDE
:10478000C09A214890ED000A04F04AFB2E48D0ED73
:10479000000A30EEC00AB0EE40BAFDF771FCF8EE48
:1047A000E90A30EE200ABDEEC00A10EE104A224699
:1047B0000121294800F0E8FF134890ED000A04F0B9
:1047C0002FFB2148D0ED000A30EEC00AB0EE40BA0F
:1047D000FDF756FCF8EEC90A30EEC00AB1EE400A09
:1047E000BDEEC00A10EE104A224602211A4800F01F
:1047F000CBFFBDEC108B10BDB4010020B801002030
:10480000BC010020C8010020D0010020D8010020F8
:10481000DC010020CC010020000000000080664088
:1048200000000060FB210940D40100202D431CEB57
:10483000E2361A3F000034C3C0010020000000002F
:104840000000B4C20000B442C4010020000059437B
:104850006766BC43000080450068004010B51548FD
:10486000006840F47000134908601348006840F085
:1048700001001149086000200F49083108600E4806
:1048800000680E4908400C4908600D48091D086081
:10489000081F006820F48020091F086000200649D6
:1048A0000C310860FFF7E0FC4FF0006001498039EF
:1048B000086010BD88ED00E000380240FFFFF6FE02
:1048C0001030002410B50121044800F0B2F801288E
:1048D00003D10121014800F09DF810BD0000014006
:1048E00010B50121880700F0A4F801281AD1012190
:1048F000800700F08FF80C480088401C0A490880A7
:104900000846008800EE100AB8EE400ADFED070AFC
:10491000B4EEE00AF1EE10FA04DB0020088001207A
:104920000349087010BD0000340300200000C84295
:104930003603002010B501211C4800F07AF8012848
:1049400033D10121194800F065F819480068401C6E
:104950001749086017480068401C16490860084657
:1049600000684FF6FF7190FBF1F201FB1200114954
:1049700008600F49086800EBD0714910A0EB4101B5
:1049800099B103F005FF0C4880ED000A03F07CFFAD
:104990000A4880ED000A084890ED000A04F022FA67
:1049A000064890ED000A04F023FA10BD0004004010
:1049B00044030020380300203C0300204003002073
:1049C00010B50121044800F034F8012803D1012179
:1049D000014800F01FF810BD0008004010B501218B
:1049E000044800F026F8012803D10121014800F015
:1049F00011F810BD000C004010B50121044800F072
:104A000018F8012803D10121014800F003F810BD76
:104A100000040140CA430282704721B1028842F07B
:104A20000102028004E002884FF6FE731A40028001
:104A3000704730B50246002000230024158A05EA9D
:104A40000103958905EA010413B10CB1012000E0CE
:104A5000002030BD1AB183890B43838102E0838932
:104A60008B438381704700002DE9FF4104460D46CA
:104A700016461F46DDF828806949601A8C4270D0BE
:104A80001ADC6849A4EB01008C426CD00ADCB4F15A
:104A9000804F4ED064482044002852D0B0F5806F3B
:104AA00071D156E0B0F5806F65D0B0F5006F6CD075
:104AB000B0F5406FF4D170E0B0F5923F21D009DC41
:104AC000B0F5806F7AD0B0F5644F0AD0B0F5684F7A
:104AD0007CD10EE0B0F5943F1BD0B0F5963F75D178
:104AE0001FE001210846FFF787FA19208DF8000022
:104AF0006DE001210220FFF77FFA2C208DF80000E5
:104B000065E001210804FFF777FA18208DF800000E
:104B10005DE001211920FFF76FFA2C208DF80000CD
:104B200055E001218804FFF767FA1A208DF800008C
:104B30004DE001210846FFF73FFA1C208DF80000E8
:104B400045E001210220FFF737FA1D208DF8000013
:104B50003DE001210420FFF72FFA1E208DF8000010
:104B600035E023E0FFE701210820FFF725FA322096
:104B70008DF800002BE001211020FFF71DFA3620F0
:104B80008DF8000023E021E0FFE701212020FFF75E
:104B900013FA37208DF8000019E001214020FFF7BB
:104BA0000BFA2B208DF8000011E007E00121802096
:104BB000FFF702FA2C208DF8000008E0012108021E
:104BC000FFF7FAF92D208DF8000000E000BF00BFCC
:104BD0000295ADF804600020ADF80C00ADF80600B9
:104BE00001A9204600F022F801212046FFF712FF1C
:104BF000012211462046FFF72DFFF8B28DF8010083
:104C000008F0FF008DF8020001208DF803006846CF
:104C1000FEF7C2FB01212046FFF7FFFEBDE8FF8142
:104C2000001C0040000C004000FCFFBF0022028876
:104C3000184B98420ED0184B98420BD0B0F1804FD1
:104C400008D0164B984205D0154B984202D0154B10
:104C5000984204D14FF68F731A404B881A43124B77
:104C6000984207D0114B984204D04FF6FF431A40A8
:104C70000B891A4302804B68C3620B880385054B7E
:104C8000984202D0044B984201D18B7A03860123CB
:104C9000838270470000014000040140000400408E
:104CA00000080040000C00400010004000140040CC
:104CB0001CB501210420FFF76FF9052000900020AA
:104CC0008DF8040003208DF8050002208DF8070000
:104CD00000208DF8060069460148FDF7CDFC1CBD9B
:104CE0000008024010B590B0044601214805FFF7C6
:104CF00053F9204600F0FAF82248FDF789FA00BF80
:104D00002048FDF731FB0028FAD14FF000600190F8
:104D10001D4802901D4803904020049000200590FB
:104D200006904FF4806007900020089009900A9048
:104D30004FF400300B9000200C9001200D900020CB
:104D40000E900F9001A90F48FDF768FB012280210A
:104D50000D48001F00F014FB012210210948FDF747
:104D60003FFB2F208DF8000002208DF801008DF808
:104D7000020001208DF803006846FEF70DFB10B01D
:104D800010BD0000B86002400450004084040020C0
:104D900010B508214E4800F057FB28B140F22551CC
:104DA0004B4800F0D2FA92E040F22551494800F019
:104DB00058FB0128F7D140F22551464800F0C5FACA
:104DC000444800F08AFC44490870444800680828B8
:104DD0007BD2DFE800F0044049525B646B733E48CD
:104DE0000078772803D107203C49086032E03A4830
:104DF0000078622803D10620384908602AE0364846
:104E00000078632803D105203449086022E0324845
:104E100000786D2803D10120304908601AE02E483F
:104E20000078762803D103202C49086012E02A4834
:104E300000786E2803D10220284908600AE026483D
:104E40000078612803D104202449086002E0002092
:104E5000224908603AE022480068401C2049086066
:104E600000201E49086031E01E480068401C1D49B2
:104E7000086000201949086028E019480068401EB1
:104E8000174908600020154908601FE015480068B0
:104E9000401E1449086000201049086016E00120F7
:104EA0001149086000200D4908600FE0012003F05F
:104EB0006BFE00200949086008E006E0642003F06A
:104EC00063FE00200549086000E000BF00BF10BD80
:104ED00000100140005000400C0300200803002097
:104EE000CC020020D0020020D402002010B588B0EF
:104EF000044601940020ADF80800ADF80A00ADF8B2
:104F00000C00ADF810000C20ADF80E000121FFF7E9
:104F100043F801210805FFF74FF8254800F03AFA59
:104F200008220C212348FDF7EFFB0822022122482A
:104F3000FDF7EAFB00208DF81A0001208DF81B0018
:104F400002208DF81800C002059002208DF819008B
:104F500005A91848FDF790FB02208DF818000420E1
:104F6000059005A91448FDF787FB01A9104800F03A
:104F7000C7FA35208DF81C0001208DF81F00002095
:104F80008DF81D0002208DF81E004FF4A060FEF782
:104F90003FFA07A8FEF700FA012240F22551044823
:104FA00000F089FA0121024800F0DEF908B010BDD6
:104FB0000050004000080240000C024010B50821DB
:104FC000374800F041FA28B140F22551344800F04A
:104FD000BCF964E040F22551314800F042FA012862
:104FE0005DD140F225512E4800F0AFF940F2255135
:104FF0002B4800F0AAF92A4800F06FFB29490870F5
:105000002948006820B1012810D0022842D124E0AC
:1050100024480078412805D123480068401C2249D3
:10502000086002E000202049086037E01D48007851
:105030001E491F4A126888541D480068401C1C49BC
:10504000086008460068042806DB0020086016484F
:105050000068401C1449086020E01248007852287B
:1050600003D101211348C16010E00E480078562892
:105070000CD10E490868C11700EB1151091300EE5D
:10508000101AB8EEC00A0B4981ED050A0020064946
:10509000086003E000200449086000BF00BF10BDA5
:1050A0000010014018030020100300201C03002002
:1050B000140300209003002010B508211B4800F0C5
:1050C000C3F928B140F22551184800F03EF92BE011
:1050D00040F22551154800F0C4F9012824D140F2CE
:1050E0002551124800F031F9104800F0F6FA104945
:1050F000087008460078DA2802D00E48006880B1AF
:105100000C480068401C0B490860084600680228EB
:1051100007D10748007840B203F03CFD0020054964
:10512000086001200449086010BD000000440040F0
:10513000EC02002030030020E802002010B540F20D
:105140002551744800F08DF901287CD140F2255199
:10515000704800F0FAF86F4800F0BFFA6E49087026
:105160006E48007805286FD2DFE800F00311263D75
:105170004B00694800780D2805D168480078401C2C
:105180006649087002E000206449087087E06248C0
:1051900000780A2808D10020614908705F4800782B
:1051A000401C5E49087006E05B4800780D2802D07C
:1051B00000205A49087072E0574800785949584A07
:1051C0001278885456480078401C554908700846A3
:1051D0000078182806DB0020087050480078401C32
:1051E0004E4908705BE04C4800780A2805D14B48CE
:1051F0000078401C4949087002E0002047490870C7
:105200004DE0454800780D2841D1464890ED000A10
:10521000B1EE400A444880ED000A424890ED010A90
:1052200080ED010A90ED020A80ED020A90ED030A7A
:105230003E4880ED000A3B4890ED040A3C4880ED72
:10524000000A384801E02BE025E090ED050A80EDEA
:10525000050A364890ED000A03F0B8FD344890ED99
:10526000000A03F0B9FD304890ED000A03F086FC17
:1052700003F08EFA2F4880ED100A03F005FB2D484D
:1052800080ED110A03F078F92A4880ED0F0A00201A
:105290002249087003E000202049087000BF37E071
:1052A00028211C4800F051F840F22771194800F0FD
:1052B0004CF840F22661174800F047F840F22531DB
:1052C000144800F042F840F22441124800F03DF842
:1052D00040F646010F4800F038F840F66A110D48D4
:1052E00000F033F860210B4800F02FF84FF45871AC
:1052F000084800F02AF84FF41871064800F025F825
:105300004FF4B071034800F020F8024800F0E5F9CE
:1053100010BD0000004800402003002021030020B1
:1053200022030020D4040020D8020020DC02002048
:10533000E00200209003002001F40072B2F5007F2B
:1053400000D100BFCA430280704710B5002200237D
:1053500040F66A14A14200D100BF0A120124944011
:10536000A3B2DC43048010BD21B1828942F4005213
:10537000828104E082894DF6FF731A408281704772
:105380001AB1838A0B43838202E0838A8B43838230
:105390007047000010B504462548844208D1012119
:1053A0001020FEF739FE00211020FEF735FE3EE00A
:1053B0002048844209D101214804FEF70DFE002156
:1053C0004FF40030FEF708FE31E01B48844209D15B
:1053D00001218804FEF700FE00214FF48020FEF733
:1053E000FBFD24E01548844209D10121C804FEF7E1
:1053F000F3FD00214FF40020FEF7EEFD17E010480A
:10540000844209D101210805FEF7E6FD00214FF491
:105410008010FEF7E1FD0AE00A48844207D101212D
:105420002020FEF7F9FD00212020FEF7F5FD10BD3C
:10543000001001400044004000480040004C004083
:10544000005000400014014002460020B1F5007FEA
:1054500000D100BF13880B400BB1012000E00020F9
:10546000704770B50246002400230025002040F656
:105470006A16B14200D100BFC1F3421501F01F030B
:10548000012606FA03F3012D02D19689334006E086
:10549000022D02D1168A334001E0968A33400C1265
:1054A000012606FA04F41688344013B10CB1012029
:1054B00000E0002070BDF0B5034600240026002562
:1054C000002040F66A17B94200D100BF1846C1F368
:1054D000421401F01F06012707FA06F5012C01D13D
:1054E0000C3004E0022C01D1103000E014301AB16D
:1054F00007682F43076002E00768AF430760F0BD0D
:105500002DE9FF4705460E460024A14600BFA046F0
:10551000B08900B100BF2C8A24F44054F0880443C1
:105520002C82AC8941F20C608443B08831890843F5
:10553000718908430443AC81AC8A24F44074B08977
:105540000443AC826846FEF777FD2048854202D0CE
:105550001F48854202D1DDF80C9001E0DDF808908B
:10556000A88900F4004040B109EBC90000EB091024
:1055700031684900B0FBF1F707E009EBC90000EB27
:10558000091031688900B0FBF1F76420B7FBF0F037
:1055900004012009642101FB1078A88900F400406F
:1055A00040B1322000EBC800B0FBF1F000F0070082
:1055B000044308E0322000EB08106421B0FBF1F056
:1055C00000F00F0004432C81BDE8FF87001001406C
:1055D000001401400FB470B586B006460CA80190C7
:1055E00073E00B9800785C281CD10B98401C0B9042
:1055F00000786E2809D072280FD10D21304600F0B6
:1056000071F80B98401C0B900BE00A21304600F01B
:1056100069F80B98401C0B9003E00B98401C0B9012
:1056200000BF4BE00B980078252840D10B98401C18
:105630000B900078642818D0732833D1019810C8D3
:1056400001900BE02178304600F04CF800BF40217B
:105650003046FFF7F9FE0028F9D0641C20780028B6
:10566000F0D10B98401C0B9020E0019820C80190CD
:105670000A2202A9284603F08FF902AC0BE0217838
:10568000304600F02FF800BF40213046FFF7DCFE27
:105690000028F9D0641C20780028F0D10B98401C19
:1056A0000B9003E00B98401C0B9000BF06E00B989A
:1056B00010F8011B0B90304600F014F800BF402199
:1056C0003046FFF7C1FE0028F9D00B98007800287B
:1056D00087D106B070BC5DF814FB01468888C0F322
:1056E0000800704730B504460D4600BF80212046B3
:1056F000FFF7AAFE0028F9D080212046FFF71CFE04
:1057000040212046FFF718FEC5F30800A08030BDF9
:1057100000BFFEE7DFED151AB0EE610ADFED141AE7
:10572000F0EE610ADFED131AB0EE611A012807DA14
:10573000DFED111A1149C1ED0C1AC1ED081A14E080
:10574000012809DB032807DADFED0D1A0B49C1ED4B
:105750000C1AC1ED081A08E0032806DBDFED091A70
:105760000649C1ED0C1AC1ED081A70470080A24429
:105770000000C8440080894425D63A4690030020A2
:1057800090E1874689CE5C462DE9F0418AB080469B
:105790000D46174600242C4B0FCB06AE0FC605F561
:1057A00040700190029000208DF80C008DF80D00E3
:1057B00008208DF80E00079700BF3FE006A810F8FC
:1057C00034008DF80F0006A830F83400010A8DF877
:1057D000101006A850F83400010C8DF8111006A81E
:1057E00050F83400000E8DF8120006A800EBC4003B
:1057F00001798DF8131006A800EBC4008088010A17
:105800008DF8141006A800EBC4004068010C8DF858
:10581000151006A800EBC4004068000E8DF81600B5
:1058200001A94046FBF724FF064600BF314640462B
:10583000FBF7B2FF0128F9D1601CC4B2022CBDDB1A
:105840000AB0BDE8F0810000AC9D00082DE9F043EE
:1058500093B080460D4616461F46002438222E4936
:1058600005A8FAF711FD05F54070009001900020A1
:105870008DF808008DF8090008208DF80A000C96B4
:105880000E97264910914942129100BF3FE005A8AA
:1058900010F834008DF80B0005A830F83400010A28
:1058A0008DF80C1005A850F83400010C8DF80D107F
:1058B00005A850F83400000E8DF80E0005A800EB86
:1058C000C40001798DF80F1005A800EBC400808892
:1058D000010A8DF8101005A800EBC4004068010C07
:1058E0008DF8111005A800EBC4004068000E8DF87B
:1058F000120069464046FBF7BBFE814600BF4946A1
:105900004046FBF749FF0128F9D1601CC4B2072CBF
:10591000BDDB13B0BDE8F083749D0008C0E1E40076
:1059200010B51D48006820B1012823D0022830D1CD
:105930002BE01A4890ED100ADFED190AB4EEE00AE8
:10594000F1EE10FA0BDD90ED100ADFED160AB4EE61
:10595000E00AF1EE10FA02D201200F490860DFEDF3
:10596000121A9FED121ADFED120A9FED120AFEF7CE
:105970007BFD0FE00021481E9FED0F1ADFED0F0A9F
:105980009FED080A00F042F804E00020FCF7A0FFB9
:1059900000E000BF00BF10BD3000002090030020D9
:1059A0000000484300009643000016440000C8C2AF
:1059B0000000FA43000048440000B4C20000AF44B5
:1059C00010B52DED028BB0EE408AB0EE480A00F023
:1059D0000FF8BDEEC00A10EE104A23460022072140
:1059E0000248FEF7D9F9BDEC028B10BD00640040FF
:1059F000F0EE400AB1EE000A20EE800A9FED021A96
:105A000020EE010A70470000610B364170B52DEDA4
:105A1000048BB0EE408AF0EE608AB0EE419A044604
:105A20000D46494890ED100A484880ED000A464866
:105A300090ED110A464880ED000A434890ED0F0AA8
:105A4000444880ED000A04FB05F04FF4AF71484371
:105A500000EE100AB8EEC00A30EE280A3C48D0ED3D
:105A6000000A30EEC00A384880ED130A3948D0EDFC
:105A7000000AB0EE490A02F0B1F8334880ED140A8A
:105A800004FB05F04FF4EB71484300EE100AB8EE4A
:105A9000C00A38EE400A2D48D0ED000A30EE600A08
:105AA000294880ED150AD0ED130AB0EE600A02F025
:105AB00057F9F0EE400A244890ED141A00EE104A0F
:105AC000B8EEC00A00EE201AF0EE419AB0EE690A74
:105AD000FAF7DCFD1C48D0ED0C0A30EE200ABDEED2
