:020000040800F2
:10000000E0480020690200085D1C0008F91800089B
:10001000591C0008F1080008512F000800000000DA
:100020000000000000000000000000003120000877
:1000300089170008000000007F0200088102000804
:10004000830200088302000883020008830200087C
:10005000830200088302000883020008830200086C
:10006000830200088302000883020008830200085C
:10007000830200088302000883020008830200084C
:10008000830200088302000883020008830200083C
:10009000F5080008830200088302000883020008B4
:1000A000830200089D2200088302000883020008E2
:1000B000B92200080D2300089923000883020008D4
:1000C00083020008830200088302000883020008FC
:1000D00083020008ED270008B528000891290008D0
:1000E00083020008830200088302000883020008DC
:1000F000D12300088302000883020008830200085D
:100100008302000883020008B52300088302000868
:1001100083020008AD27000883020008830200085C
:10012000830200088302000883020008830200089B
:10013000830200088302000883020008830200088B
:10014000990900088302000883020008830200085E
:10015000830200088302000883020008830200086B
:10016000830200088302000883020008830200085B
:10017000830200088302000883020008830200084B
:10018000830200088302000800F002F800F05CF827
:100190000AA090E8000C82448344AAF10107DA45E2
:1001A00001D100F051F8AFF2090EBAE80F0013F0D8
:1001B000010F18BFFB1A43F001031847045E00004B
:1001C000245E00000A444FF0000C10F8013B13F0CD
:1001D000070408BF10F8014B1D1108BF10F8015BA0
:1001E000641E05D010F8016B641E01F8016BF9D193
:1001F00013F0080F1EBF10F8014BAD1C0C1B09D1EA
:100200006D1E58BF01F801CBFAD505E014F8016B5B
:1002100001F8016B6D1EF9D59142D6D370470000ED
:100220000023002400250026103A28BF78C1FBD8FF
:10023000520728BF30C148BF0B6070471FB505F09B
:100240004AFD1FBD10B510BD00F076F81146FFF74E
:10025000F5FF04F00FFE00F094F803B4FFF7F2FF8F
:1002600003BC00F097F800000948804709480047A0
:10027000FEE7FEE7FEE7FEE7FEE7FEE7FEE7FEE756
:10028000FEE7FEE704480549054A064B70470000B3
:100290003522000889010008E0020020E048002023
:1002A000E0440020E044002010B5203AC0F00B806C
:1002B000B1E81850203AA0E81850B1E81850A0E86A
:1002C0001850BFF4F5AF5FEA027C24BFB1E81850C4
:1002D000A0E8185044BF18C918C0BDE810405FEA34
:1002E000827C24BF51F8043B40F8043B08BF7047B0
:1002F000D20728BF31F8023B48BF11F8012B28BFB5
:1003000020F8023B48BF00F8012B70477047704748
:10031000704710B500F008F8006810BD10B504462D
:1003200000F002F8046010BD004870478002002011
:1003300000487047800200207546FFF7F9FFAE467F
:1003400005006946534620F00700854618B020B5E1
:10035000FFF798FFBDE820404FF000064FF0000780
:100360004FF000084FF0000B21F00701AC46ACE85D
:10037000C009ACE8C009ACE8C009ACE8C0098D46CA
:10038000704710B50446AFF300802046BDE810402A
:10039000FFF763BF01491820ABBEFEE7260002004D
:1003A000704721B1826842F00102826003E08268F6
:1003B00022F00102826070470021084A1168084A51
:1003C0001140D0E900231A4383681A43C3681A43D3
:1003D0001143044AC2F8041370470000042301408B
:1003E000E030FCFF002001400146C86C80B270473D
:1003F0000246002013680B400BB1012000E00020F2
:100400007047000030B50246002000235068104CB1
:1004100020400D790C6844EA052420435060906820
:100420000C4C2040D1E903542C438D682C434D796A
:1004300044EA450420439060D06A20F470000C7DAB
:10044000641EE4B2234340EA0350D06230BD000092
:10045000FFFEFFFCFDF7FFC0F0B504460D4600208F
:100460000021092D11DDE068A5F10A0606EB46071B
:10047000072606FA07F18843A5F10A0606EB4606A9
:1004800003FA06F10843E0600CE0206905EB45073C
:10049000072606FA07F1884305EB450603FA06F13D
:1004A00008432061072A0FDA606B561E06EB8607A9
:1004B0001F2606FA07F18843561E06EB860605FA44
:1004C00006F10843606322E00D2A0FDA206BD61F85
:1004D00006EB86071F2606FA07F18843D61F06EBB0
:1004E000860605FA06F10843206310E0E06AA2F1EF
:1004F0000D0606EB86071F2606FA07F18843A2F1D0
:100500000D0606EB860605FA06F10843E062F0BD2B
:10051000816841F0804181607047000000B58DB076
:100520000121042001F0C0FC0121080201F0ECFCD3
:1005300030200B9003208DF8300000208DF8330020
:100540000BA9164801F040F90121080201F0ECFC6A
:1005500000214FF4807001F0E7FC002007900A9022
:1005600009904FF48030089007A8FFF725FF00207E
:1005700001908DF808008DF8090003900490059013
:1005800001208DF8180001A90548FFF73BFF012164
:100590000348FFF706FF0DB000BD00000008024051
:1005A0000020014010B52DED068BB0EE408AF0EE34
:1005B000608AF0EE680AB0EE480A04F005F93248A5
:1005C00080ED000A90ED000A00F06EF8DFED2F0AD2
:1005D00030EE200ABDEEC00A10EE104A224601217C
:1005E0002B4802F001FD284890ED000A00F05CF86D
:1005F000DFED280A30EE200ABDEEC00A10EE104AE8
:1006000022460221224802F0EFFC1F48006805F054
:10061000F1FA41EC1A0BB0EE4A0AF0EE6A0A03F066
:1006200047FCB0EE409AF0EE609A9FED1B0B53EC46
:10063000102B51EC190B05F077F821D200F032FFA6
:10064000F0B100220121124802F0CEFC002202216A
:100650000F4802F0C9FC04F09BFAA0F5166000EE0A
:10066000100AB8EEC00AB0EE409A9FED0D1AF0EEF7
:10067000490A9FED0B0A04F02BFC08200949886405
:10068000BDEC068B10BD00003400002000409CC56E
:100690000068004000409C45000000000000204031
:1006A000000000001C020020F0EE400A0E4890ED11
:1006B000000A20EE200A0D4890ED001AB8EEC11A8B
:1006C00030EEC11A0A48D0ED001A01EE810A09483D
:1006D00080ED000ABDEEE00A044880ED000A0548FE
:1006E00090ED000A704700002C0100202801002036
:1006F000300100203401002010B52DED028BB0EE4A
:10070000408A2E4890ED0E0AB0EE408A2C4890EDBB
:10071000000ADFED2C0AB4EEE00AF1EE10FA20DD5B
:1007200090ED000ADFED280AB4EEE00AF1EE10FACF
:1007300017D2264890ED000ADFED250AB4EEE00A54
:10074000F1EE10FA0DDD90ED000ADFED220AB4EEB5
:10075000E00AF1EE10FA04D2B0EE480A00F03CF8DC
:1007600029E0174890ED000ADFED160AB4EEE00A22
:10077000F1EE10FA1BD390ED000ADFED130AB4EE90
:10078000E00AF1EE10FA12DC104890ED000ADFEDFD
:10079000100AB4EEE00AF1EE10FA08D390ED000A68
:1007A000DFED0C0AB4EEE00AF1EE10FA03DDB0EE74
:1007B000480A00F011F8BDEC028B10BD1C020020AD
:1007C000740000200000AFC40000AF447800002097
:1007D0000000614400C0734510B52DED068BB0EEEE
:1007E000408A3848006848B99FED370A38EE000A59
:1007F000364880ED000A012032490860F0EE480AD0
:10080000324890ED000A03F0DFFF314880ED000A26
:1008100030480068401C2F49086008460068962848
:100820000BDA2D4A01212D4802F0DEFB41F2DB728A
:1008300002212A4802F0D8FB41E0264800689628A9
:100840003DDB234890ED000AFFF72EFFBDEEC00A06
:1008500010EE104A22460121204802F0C5FB1C4838
:1008600090ED000AFFF720FFBDEEC00A10EE104A1F
:1008700022460221194802F0B7FB1548006805F02E
:10088000B9F941EC1A0BB0EE4A0AF0EE6A0A03F02D
:100890000FFBB0EE409AF0EE609A9FED110B53EC17
:1008A000102B51EC190B04F03FFF08D20E480068E2
:1008B0000E49886400200349086006490860BDECC1
:1008C000068B10BD94000020000034428C000020F4
:1008D000900000209800002025E8FFFF00680040FD
:1008E0000000000000001440700000201C020020E6
:1008F00000BFFEE710B51E4803781E4A1E491F4878
:1009000000F042FC1C480068302803D119490878DF
:1009100004F0D8FA1A49194800F088F81849491C17
:10092000164800F083F81649C91C144800F07EF8F8
:100930001449124800F07AF81349104800F076F88C
:1009400012490E4800F072F8104908310B4800F0C7
:100950006DF80F49094800F069F80E49074800F0A2
:1009600065F80C490831054800F060F810BD00003A
:10097000950100208D0100209801002000640040B6
:100980000100F0107000F030030000120800003287
:10099000030000140800003410B51A4803781A4AFE
:1009A0001A491B4800F0F0FB1A49194800F03EF8BC
:1009B0001849491C164800F039F81649C91C144852
:1009C00000F034F81449124800F030F81349104888
:1009D00000F02CF812490E4800F028F810490831B0
:1009E0000B4800F023F80F49094800F01FF80E49A2
:1009F000074800F01BF80C490831054800F016F8CC
:100A000010BD0000A8010020A00100209C010020D2
:100A1000006800400100F0107000F0300300001288
:100A200008000032030000140800003400220C4BC0
:100A3000994202D10023836111E0C1F3130201F056
:100A400000730BB1C2600AE001F080630BB1026178
:100A500005E001F000630BB1826000E04260704786
:100A60007000F0302DE9F04F8BB006460F4614466B
:100A70001D46DDF850804FF00009CA46CB46B5F55B
:100A8000807F43D012DC102D34D008DC012D25D01E
:100A9000022D26D0042D27D0082D4FD127E0202D60
:100AA0002BD0402D2CD0802D48D12CE0B5F5805F87
:100AB00038D009DCB5F5007F2BD0B5F5806F2BD091
:100AC000B5F5006F3AD12AE0B5F5005F2DD0B5F548
:100AD000804F2DD0B5F5004F30D12CE04FF00009FC
:100AE0002DE04FF001092AE04FF0020927E04FF016
:100AF000030924E04FF0040921E04FF005091EE04E
:100B00004FF006091BE04FF0070918E04FF0080905
:100B100015E04FF0090912E04FF00A090FE04FF01D
:100B20000B090CE04FF00C0909E04FF00D0906E04D
:100B30004FF00E0903E04FF00F0900E000BF00BFC7
:100B4000B8F5807F4BD01ADCB8F1100F3BD00CDC2D
:100B5000B8F1010F2BD0B8F1020F2BD0B8F1040F70
:100B60002BD0B8F1080F52D12AE0B8F1200F2DD0C8
:100B7000B8F1400F2DD0B8F1800F48D12CE0B8F576
:100B8000805F38D009DCB8F5007F2BD0B8F5806FD6
:100B90002BD0B8F5006F3AD12AE0B8F5005F2DD020
:100BA000B8F5804F2DD0B8F5004F30D12CE04FF084
:100BB000000A2DE04FF0010A2AE04FF0020A27E078
:100BC0004FF0030A24E04FF0040A21E04FF0050A39
:100BD0001EE04FF0060A1BE04FF0070A18E04FF046
:100BE000080A15E04FF0090A12E04FF00A0A0FE078
:100BF0004FF00B0A0CE04FF00C0A09E04FF00D0A21
:100C000006E04FF00E0A03E04FF00F0A00E000BFCD
:100C100000BF7F48304418B1B0F5806F1AD10CE0A6
:100C20004FF0090B00208DF8120014208DF80400FD
:100C30000121480601F048F90DE04FF0090B0E20A4
:100C40008DF8120040208DF804000121000501F00C
:100C50003BF900E000BF00BFC4F3090078BBA0125D
:100C6000A0F580108038092834D2DFE800F0050AAA
:100C70000F14191E23292E000121084601F014F932
:100C800029E00121022001F00FF924E001210420D4
:100C900001F00AF91FE00121082001F005F91AE02E
:100CA0000121102001F000F915E00121202001F0C0
:100CB000FBF810E00121402001F0F6F80BE009E01C
:100CC0000121802001F0F0F805E00121080201F087
:100CD000EBF800E000BF00BF5A464946204600F04E
:100CE000BBFD5A465146204600F0B6FD45EA0800D5
:100CF000099002208DF828008DF8290000208DF839
:100D00002A0001208DF82B0009A9204600F05CFD87
:100D1000304600F07FF800208DF81E008DF81F008F
:100D20008DF820008DF821008DF822008DF8230029
:100D30008DF81A008DF81B000B208DF81C00072081
:100D40008DF81D007D2F22D008DC0A2F0FD0142F24
:100D500011D0322F13D0642F29D114E0FA2F1AD0DA
:100D6000B7F5FA7F1BD0B7F57A7F20D11BE0C820FA
:100D7000ADF818001CE06420ADF8180018E0282039
:100D8000ADF8180014E01420ADF8180010E01020A1
:100D9000ADF818000CE00820ADF8180008E00420B9
:100DA000ADF8180004E00220ADF8180000E000BF24
:100DB00000BF06A9304600F0D6F800208DF81300D9
:100DC00001208DF814000020ADF80800ADF80A00ED
:100DD000ADF80C00ADF80E00ADF8100001208DF854
:100DE000150002A800F032F800208DF8050003205D
:100DF0008DF8060001208DF8070001A800F030FFF3
:100E000001220221304600F0A5F80BB0BDE8F08FBA
:100E1000009CFFBF10B504460B48844209D1012154
:100E2000480601F061F800214FF0007001F05CF815
:100E300008E00121880601F057F800214FF080609A
:100E400001F052F810BD00000064004010B5002110
:100E5000837A012202FA03F13D4A126842F001024C
:100E60003B4B1A603A4A1C3212688A43384B1C3397
:100E70001A60027BCAB9364A0C3212688A43344B74
:100E80000C331A604288C38842EA0343304A403236
:100E9000847A42F834300288838842EA03432C4A39
:100EA0004032847A02EBC4025360027B012A19D1DA
:100EB000274A0C3212680A43254B0C331A604288C9
:100EC000038842EA0343224A4032847A42F83430AB
:100ED000C288838842EA03431D4A4032847A02EB87
:100EE000C4025360C27A3AB9194A121D12688A4381
:100EF000174B1B1D1A6006E0154A121D12680A43A3
:100F0000134B1B1D1A60028932B9114A1432126840
:100F10008A430F4B14331A600289012A06D10C4A06
:100F2000143212680A430A4B14331A60427B012AB6
:100F300006D1074A1C3212680A43054B1C331A605B
:100F4000034A126822F00102014B1A6010BD000032
:100F5000006600401AB143690B43436102E04369F4
:100F60008B434361704730B502460020002314686C
:100F700024F002041460146844F00104146000E0DA
:100F80005B1C546804F001041CB94FF6FF74A342C3
:100F9000F6D1546804F001040CB900206CE08C799F
:100FA000012C04D1146844F08004146003E0146838
:100FB00024F080041460CC79012C04D1146844F02E
:100FC0004004146003E0146824F0400414600C7AB8
:100FD000012C04D1146844F02004146003E0146868
:100FE00024F0200414604C7A012C04D1146844F0DD
:100FF0001004146003E0146824F0100414608C7A68
:10100000012C04D1146844F00804146003E014684F
:1010100024F008041460CC7A012C04D1146844F044
:101020000404146003E0146824F0040414608C7851
:10103000A407CD7844EA05640D7944EA05444D7966
:1010400044EA05540D886D1E2C43D461146824F0C5
:1010500001041460002300E05B1C546804F00104E8
:101060001CB14FF6FF74A342F6D1546804F001049A
:101070000CB1002000E0012030BD0246002019B96B
:10108000D36803F0030006E0012903D1136903F0DC
:10109000030000E00020704710B500F5D87303EBA3
:1010A00001131B6803F004031372137A53B900F59C
:1010B000D87303EB01131B6840F2FF7404EA535327
:1010C000136009E000F5D87303EB01131B686FF0A0
:1010D000604404EAD303536000F5D87303EB0113B3
:1010E0001B6803F00203537200F5D87303EB01137E
:1010F0005B6803F00F03937200F5D87303EB0113E1
:101100005B681B0AD37400F5D87303EB01139B686B
:10111000D37200F5D87303EB01139B681C0A147398
:1011200000F5D87303EB01139B681C0C547300F596
:10113000D87303EB01139B681B0E937300F5D873F0
:1011400003EB0113DB68D37300F5D87303EB0113D2
:10115000DB681C0A147400F5D87303EB0113DB6819
:101160001C0C547400F5D87303EB0113DB681B0EE1
:10117000937421B9C36843F02003C36003E003699B
:1011800043F02003036110BD2DE9F04186B0804695
:101190000D4616461F46002400214046FFF76DFF0E
:1011A00018B9002006B0BDE8F08101AA0021404630
:1011B000FFF772FF002405E00DF10F00005D3055D0
:1011C000601CC4B2BC42F7DB019828600120E9E74B
:1011D00010B502460020936803F08063B3F1806F7E
:1011E00000D110E0936803F00063B3F1006F01D108
:1011F000012008E0936803F08053B3F1805F01D1D0
:10120000022000E00420042874D002F5C07303EB30
:1012100000131B6803F0010402F5C07303EB001315
:101220001C600B7A7BB94B7A0C8843EA445302F575
:10123000C07404EB00142468234302F5C07404EB6B
:101240000014236010E00B7A4C6843EAC4034C7A24
:10125000234302F5C07404EB00142468234302F511
:10126000C07404EB001423608B7A03F00F038B72BD
:1012700002F5C07303EB00135B6823F00F0402F563
:10128000C07303EB00135C6002F5C07303EB001343
:101290005B688C7A234302F5C07404EB001463602E
:1012A0008B7B1C064B7B44EA03440B7B44EA032301
:1012B000CC7A234302F5C07404EB0014A3608B7C4A
:1012C0001C064B7C44EA03440B7C44EA0323CC7B9E
:1012D000234302F5C07404EB0014E36002F5C0730D
:1012E00003EB00131B6843F0010402F5C07303EB2A
:1012F00000131C6010BD000010B50246002321B190
:10130000012907D002290FD109E090681D4C00EA9D
:1013100004030BE090681C4C00EA040306E09068AC
:101320001A4C00EA040301E0002300BF00BF184C80
:10133000181BA34216D007DC83B16FF080601844FD
:1013400070B1022818D111E0B0F5007F10D0114C17
:10135000204448B1B0F5003F0ED10BE002230DE070
:1013600000230BE0002309E0002307E0012305E050
:10137000012303E0012301E0002300BF00BFD8B236
:1013800010BD00000300000400030008000003106B
:10139000000100080001FFF72DE9F04385B0814608
:1013A0000D4690461E4600240095019500208DF8BC
:1013B00008008DF809008DF80A6000BF06E018F8F3
:1013C00004100DF10B000155601C84B2B442F6DB31
:1013D00069464846FFF7FCFE0746002400BF394631
:1013E0004846FFF789FF0128F9D105B0BDE8F08331
:1013F00010B588B004460121082000F055FD0121F8
:10140000480400F061FD07220521244800F024FA79
:1014100007220621214800F01FFA602006900220D2
:101420008DF81C008DF81D0000208DF81E00012095
:101430008DF81F0006A9194800F0C6F90294002093
:10144000ADF80C00ADF80E00ADF81000ADF81400CA
:101450000C20ADF8120002A9114801F071FC4021E6
:101460000F4801F093FB26208DF8040000208DF832
:10147000050002208DF8060001208DF8070001A864
:1014800000F0EEFB012240F22551054801F033FC4B
:101490000121034801F092FB08B010BD000C02408E
:1014A0000044004010B503F0A7FC1648D0ED0F0A29
:1014B000B4EE600AF1EE10FA16D103F0A3FC114865
:1014C000D0ED100AB4EE600AF1EE10FA0CD190EDF6
:1014D000110AB5EEC00AF1EE10FA05D00A4800680C
:1014E000401C0949086002E00020074908600648DE
:1014F0000068C82804DD002003490860012010BDF1
:101500000020FCE71C0200203000002010B52DED6B
:10151000048B3948806C3949086003F06DFC36480B
:10152000D0ED0F0A30EEC00A354880ED000A03F016
:1015300069FC3148D0ED100A30EEC00A314880ED28
:10154000000A2F48006804F055FB41EC190BB0EE7F
:10155000490AF0EE690A02F0ABFCB0EE408AF0EE08
:10156000608A9FED290B53EC102B51EC180B04F003
:10157000DBF826D22348006804F03CFB41EC190B51
:10158000B0EE490AF0EE690A02F092FCB0EE408A31
:10159000F0EE608A9FED1C0B53EC102B51EC180BF6
:1015A00004F0C2F80DD2144890ED110AB5EEC00A4D
:1015B000F1EE10FA05D016480068401C1449086086
:1015C00002E000201249086011480068C8280FDDB9
:1015D00003F012FC0F4880ED000A03F013FC0E48E4
:1015E00080ED000A0720044988640020084908604B
:1015F000BDEC048B10BD00001C0200207000002018
:10160000A0000020A4000020000000000000F03F27
:101610009C000020740000207800002010B52DED03
:10162000028BB0EE408AB0EE480A00F00FF8BDEE33
:10163000C00A10EE104A22460821034801F0D4FCEB
:10164000BDEC028B10BD000000640040F0EE400ACB
:101650009FED020A20EE800A7047000000008045DE
:1016600010B53D4890ED0F0ABDEEC00A10EE102AED
:101670003AA13B4801F0CEFB374890ED100ABDEE91
:10168000C00A10EE102A35A1354801F0C3FB3548D9
:1016900090ED000ABDEEC00A10EE102A2FA13048CE
:1016A00001F0B8FB304890ED000ABDEEC00A10EE24
:1016B000102A2AA12A4801F0ADFB2C4890ED000A1F
:1016C000BDEEC00A10EE102A24A1254801F0A2FBAD
:1016D000274890ED000ABDEEC00A10EE102A1FA1A7
:1016E0001F4801F097FB234890ED000ABDEEC00AA9
:1016F00010EE102A19A11A4801F08CFB1E4890ED3B
:10170000000ABDEEC00A10EE102A14A1144801F020
:1017100081FB1A4890ED000ABDEEC00A10EE102AB7
:101720000EA10F4801F076FB154890ED000ABDEEC2
:10173000C00A10EE102A09A1094801F06BFB064807
:1017400006A1826C064801F065FB0E4803A1026801
:10175000034801F05FFB10BD1C0200202564090056
:1017600000500040780100207C0100200C00002087
:1017700010000020280000201C0000202400002071
:10178000200000202C000020704700B5034604E034
:101790004FF47A7000F004F85B1E002BF8D100BD06
:1017A000A82141434FF0E02251610521116100BFA2
:1017B0004FF0E021096901F480310029F8D00421BB
:1017C0004FF0E02211617047F0B50A460021002376
:1017D000002400BF3DE0012505FA01F3156805EA84
:1017E00003049C4234D105684F000326BE40B54334
:1017F000056015794E00B5400668354305601579DA
:10180000012D02D01579022D16D185684F000326CF
:10181000BE40B543856055794E00B5408668354376
:101820008560456801268E40B543456045689679D8
:101830008E40B6B235434560C5684F000326BE40B2
:10184000B543C560D5794E00B540C6683543C5601F
:10185000491C1029BFD3F0BDF0B5002300244D076B
:10186000ED0E02FA05F3CE1000F1200555F82650D2
:101870004E07F70E0F26BE40B543CF1000F12006ED
:1018800046F82750CE1000F1200555F8265045EABD
:101890000304CE1000F1200545F82640F0BD0000FD
:1018A00010B504460723012221460848FEF7D4FD5F
:1018B0000648FEF72DFE00BF02210448FEF798FD02
:1018C0000028F9D00148FEF78FFD10BD002001402F
:1018D0002DE9F04107460C460025002605E0384674
:1018E000FFF7DEFF0544701CC6B2A642F7DBB5FB6E
:1018F000F4F080B2BDE8F08100BFFEE708B500203B
:1019000003465322632100904FF0804000F098FD81
:101910000120002340F2473240F2E73100901548A1
:1019200000F08EFD4FF400704310134A4FF4FA712B
:1019300000901248FFF796F8402020230E4A4FF4FB
:10194000FA7100900E48FFF78DF8FEF7E7FD00F002
:1019500001FF4FF4E13000F011FC4FF4E130FFF7EC
:1019600047FD4FF4E13000F02DFA4FF4E13000F084
:101970008BFE08BD000400400004024000640040EB
:101980000068004010B52DED0E8BF0EE408AB0EEF1
:10199000608AB0EE419A044603F0F4F80446642CE1
:1019A0000AD19FED860A864880ED000A9FED850AE0
:1019B000854880ED000A0BE0012C09D19FED830AD8
:1019C0007F4880ED000A9FED7F0A7F4880ED000A86
:1019D0007B4890ED000A38EEC00A20EE000A7A48F3
:1019E000D0ED000A78EE600A90ED001A38EE411A48
:1019F00000EE810AF1EEC00A7548C0ED000A9FEDC5
:101A0000730AB0EE001AF1EEC10A80EE201A90EDD2
:101A1000000A61EE000A90ED001A9FED6E0ADFEDFC
:101A20006E1A11EE810AB1EEC01A80EE810A6B487F
:101A300080ED000A006804F0DDF841EC1C0B9FED1E
:101A4000680B53EC102B03F0ABFE41EC1B0B9FED2E
:101A5000660B53EC102B03F0E3FF41EC1A0B03F081
:101A6000CBFB63490860564890ED000A30EE680AE7
:101A7000604880ED000A544890ED000A30EE480AB4
:101A80005D4880ED000A5B48006804F0B3F841EC63
:101A90001D0B5948006804F0ADF841EC1E0BB0EE88
:101AA0004D1AF0EE6D1AB0EE4E0AF0EE6E0A02F02C
:101AB000A3F8B0EE40CAF0EE60CA9FED500B53ECB5
:101AC000102B51EC1C0B03F07DFC41EC1B0B9FED2C
:101AD0004D0B53EC102B03F063FE41EC1A0B03F09B
:101AE0008BFB43494860084690ED010ADFED470A49
:101AF000B4EEE00AF1EE10FA11D890ED010ADFED34
:101B0000440AB4EEE00AF1EE10FA08DB90ED010AA7
:101B1000DFED400A30EE600A80ED010A1AE0344839
:101B200090ED010ADFED3A0AB4EEE00AF1EE10FAA8
:101B300010D290ED010ADFED380AB4EEE00AF1EEC2
:101B400010FA07DB90ED010ADFED340A30EE200ACF
:101B500080ED010A264890ED010A39EE400A80ED39
:101B6000010A90ED010ADFED290AB4EEE00AF1EE78
:101B700010FA08DD90ED010ADFED290A30EE600A67
:101B800080ED010A11E01A4890ED010ADFED220A0A
:101B9000B4EEE00AF1EE10FA07D290ED010ADFEDA3
:101BA000200A30EE200A80ED010A114890ED000A6B
:101BB000D0ED010ABDEC0E8B10BD0000000016C375
:101BC000CC00002000001645D00000200000164385
:101BD000C0000020CD4CD443B6F39D3FC800002088
:101BE000757632384A5E8D3FF2D24D6210581840F9
:101BF000B8000020D8000020DC00002000000060B9
:101C0000FB210940000000000080664000003443D2
:101C10000000B4C20000B442000034C30000874397
:101C20000000B4430B480068032805DA094800683F
:101C30004FF4AF714843704706480068032806DB3D
:101C400004480068C0EB4011C1EB0020F3E700BF7F
:101C5000F1E700002C00002000BFFEE700BFFEE718
:101C600070B5002100230F22C4781CB3174C2468E0
:101C700004F4E064C4F5E064C4F30721C1F1040492
:101C8000E3B20A4144789C40E1B284781440214395
:101C90000C07210E0E4C05786155047804F01F05E1
:101CA0000124AC4005786D11AD0005F1E025C5F8C3
:101CB000004109E0047804F01F050124AC40054D03
:101CC0000678761145F8264070BD00000CED00E066
:101CD00000E400E080E100E002490143024A1160B3
:101CE000704700000000FA050CED00E02DE9F0431C
:101CF00089B081460D46174698460024304B0FCBDD
:101D000005AE0FC605F540700090019000208DF8DB
:101D100008008DF8090008208DF80A001FB944F268
:101D20005010059002E045F250200590CDF8188043
:101D300000243FE005A810F834008DF80B0005A83A
:101D400030F83400010A8DF80C1005A850F8340062
:101D5000010C8DF80D1005A850F83400000E8DF818
:101D60000E0005A800EBC40001798DF80F1005A83E
:101D700000EBC4008088010A8DF8101005A800EB64
:101D8000C4004068010C8DF8111005A800EBC400D8
:101D90004068000E8DF8120069464846FFF718FAB1
:101DA000064600BF31464846FFF7A6FA0128F9D19A
:101DB000601CC4B2022CBDDB09B0BDE8F08300009A
:101DC000CC5D000810B588B004460121082000F061
:101DD0006BF80121880400F077F8072208212548D4
:101DE000FFF73AFD072209212248FFF735FD4FF49E
:101DF0004070069002208DF81C008DF81D00002018
:101E00008DF81E0001208DF81F0006A91948FFF764
:101E1000DBFC4FF4E13002900020ADF80C00ADF88F
:101E20000E00ADF81000ADF814000C20ADF8120053
:101E300002A9114800F084FF01210F4800F0BEFE06
:101E400040210D4800F0A2FE012240F225510A482F
:101E500000F051FF27208DF8040000208DF80500C8
:101E600001208DF806008DF8070001A8FFF7F8FEA5
:101E700008B010BD000C02400048004010B54FF4FF
:101E80007A63002206210248FFF730FF10BD0000F0
:101E90000064004010B50523002206210148FFF729
:101EA00025FF10BD0064004029B1064A12680243B4
:101EB000044B1A6004E0034A12688243014B1A6023
:101EC000704700003038024029B1064A12680243C8
:101ED000044B1A6004E0034A12688243014B1A6003
:101EE000704700004038024029B1064A1268024398
:101EF000044B1A6004E0034A12688243014B1A60E3
:101F0000704700002038024029B1064A1268024397
:101F1000044B1A6004E0034A12688243014B1A60C2
:101F2000704700004438024029B1064A1268024353
:101F3000044B1A6004E0034A12688243014B1A60A2
:101F40007047000024380240F0B500210022002430
:101F5000022500260223324F3F6807F00C0121B111
:101F6000042905D0082937D105E02E4F076036E057
:101F70002D4F076033E02A4F3F1F3F68C7F380565D
:101F8000274F3F1F3F6807F03F036EB1264FB7FB57
:101F9000F3F7DFF88CC0ACF1040CDCF800C0CCF334
:101FA000881C07FB0CF40CE01E4FB7FBF3F7DFF8BF
:101FB00070C0ACF1040CDCF800C0CCF3881C07FB4B
:101FC0000CF4174F3F1F3F68C7F301477F1C7D008C
:101FD000B4FBF5F7076002E0124F076000BF00BFD7
:101FE0000F4F3F6807F0F0010909104F7A5C07684E
:101FF000D74047600A4F3F6807F4E051890A0B4F0A
:102000007A5C4768D7408760054F3F6807F46041B6
:10201000490B064F7A5C4768D740C760F0BD0000A7
:10202000083802400024F40000127A000C0200205C
:10203000704700000CB50020019000903448006803
:1020400040F480303249086000BF3148006800F435
:10205000003000900198401C0190009818B9019838
:10206000B0F5A06FF1D12A48006800F4003010B13B
:102070000120009001E0002000900098012846D146
:1020800023484030006840F08050214940310860CA
:102090002048006840F480401E4908601C48083011
:1020A00000681B49083108600846006840F4004099
:1020B00008600846006840F4A05008601648091FF0
:1020C0000860081F006840F08070091F086000BFAA
:1020D0000F48006800F000700028F9D040F2056059
:1020E0000E4908600A480830006820F003000849DB
:1020F000083108600846006840F00200086000BF30
:1021000003480830006800F00C000828F8D10CBD26
:10211000003802400070004008544007003C024074
:1021200000B52DED028B81B0B0EE408AB0EE480ACA
:1021300003F044F8009041210F4800F0F3FE9DF8B1
:1021400000100D4800F0EEFE9DF801100A4800F066
:10215000E9FE9DF80210084800F0E4FE9DF8031027
:10216000054800F0DFFE4A21034800F0DBFE01B025
:10217000BDEC028B00BD00000010014010B588B01E
:10218000044601210846FFF78FFE01211020FFF7CA
:10219000BBFE072209212548FFF75EFB07220A2123
:1021A0002248FFF759FB4FF4C060069002208DF8DB
:1021B0001C008DF81D0000208DF81E0001208DF8F8
:1021C0001F0006A91948FFF7FFFA02940020ADF896
:1021D0000C00ADF80E00ADF81000ADF814000C20A6
:1021E000ADF8120002A9124800F0AAFD40211048E3
:1021F00000F0CCFC25208DF8040000208DF80500AF
:1022000002208DF8060001208DF8070001A8FFF7D5
:1022100027FD012240F22551054800F06CFD012107
:10222000034800F0CBFC08B010BD000000000240E5
:102230000010014010B51548006840F470001349C3
:1022400008601348006840F0010011490860002050
:102250000F49083108600E4800680E4908400C49D3
:1022600008600D48091D0860081F006820F48020E0
:10227000091F0860002006490C310860FFF7DAFEEC
:102280004FF0006001498039086010BD88ED00E022
:1022900000380240FFFFF6FE1030002410B5012187
:1022A000044800F0B2F8012803D10121014800F0F0
:1022B0009DF810BD0000014010B50121880700F015
:1022C000A4F801281AD10121800700F08FF80C48EA
:1022D0000088401C0A4908800846008800EE100A61
:1022E000B8EE400ADFED070AB4EEE00AF1EE10FAAC
:1022F00004DB0020088001200349087010BD0000A5
:10230000C80100200000C842CA01002010B5012108
:102310001C4800F07AF8012833D10121194800F057
:1023200065F819480068401C17490860174800689C
:10233000401C16490860084600684FF6FF7190FB84
:10234000F1F201FB1200114908600F49086800EB27
:10235000D0714910A0EB410199B102F055FC0C4835
:1023600080ED000A02F0CCFC0A4880ED000A084823
:1023700090ED000A02F016FF064890ED000A02F008
:1023800017FF10BD00040040D8010020CC01002040
:10239000D0010020D401002010B50121044800F034
:1023A00034F8012803D10121014800F01FF810BDC5
:1023B0000008004010B50121044800F026F801286B
:1023C00003D10121014800F011F810BD000C0040BC
:1023D00010B50121044800F018F8012803D10121AB
:1023E000014800F003F810BD00040140CA43028216
:1023F000704721B1028842F00102028004E00288A5
:102400004FF6FE731A400280704730B50246002036
:1024100000230024158A05EA0103958905EA0104D1
:1024200013B10CB1012000E0002030BD1AB1838946
:102430000B43838102E083898B43838170470000D3
:102440002DE9FF4104460D4616461F46DDF828805B
:102450006949601A8C4270D01ADC6849A4EB01000B
:102460008C426CD00ADCB4F1804F4ED064482044DA
:10247000002852D0B0F5806F71D156E0B0F5806F72
:1024800065D0B0F5006F6CD0B0F5406FF4D170E05E
:10249000B0F5923F21D009DCB0F5806F7AD0B0F56D
:1024A000644F0AD0B0F5684F7CD10EE0B0F5943F90
:1024B0001BD0B0F5963F75D11FE001210846FFF70C
:1024C00023FD19208DF800006DE001210220FFF7A7
:1024D0001BFD2C208DF8000065E001210804FFF7AA
:1024E00013FD18208DF800005DE001211920FFF791
:1024F0000BFD2C208DF8000055E001218804FFF72A
:1025000003FD1A208DF800004DE001210846FFF779
:10251000DBFC1C208DF8000045E001210220FFF7C4
:10252000D3FC1D208DF800003DE001210420FFF7C1
:10253000CBFC1E208DF8000035E023E0FFE70121F1
:102540000820FFF7C1FC32208DF800002BE00121AC
:102550001020FFF7B9FC36208DF8000023E021E0C1
:10256000FFE701212020FFF7AFFC37208DF80000A6
:1025700019E001214020FFF7A7FC2B208DF8000077
:1025800011E007E001218020FFF79EFC2C208DF850
:10259000000008E001210802FFF796FC2D208DF8CD
:1025A000000000E000BF00BF0295ADF8046000200D
:1025B000ADF80C00ADF8060001A9204600F022F8A5
:1025C00001212046FFF712FF012211462046FFF7A6
:1025D0002DFFF8B28DF8010008F0FF008DF8020021
:1025E00001208DF803006846FFF73AFB01212046E1
:1025F000FFF7FFFEBDE8FF81001C0040000C00401B
:1026000000FCFFBF00220288184B98420ED0184BE6
:1026100098420BD0B0F1804F08D0164B984205D0AD
:10262000154B984202D0154B984204D14FF68F7348
:102630001A404B881A43124B984207D0114B9842CC
:1026400004D04FF6FF431A400B891A4302804B68AF
:10265000C3620B880385054B984202D0044B984215
:1026600001D18B7A038601238382704700000140E9
:10267000000401400004004000080040000C00403D
:10268000001000400014004010B588B004460194CA
:102690000020ADF80800ADF80A00ADF80C00ADF868
:1026A00010000C20ADF80E000121FFF7FDFB012109
:1026B0000805FFF709FC244800F08CFA08220C21D9
:1026C0002248FFF7C9F8082202212148FFF7C4F881
:1026D00000208DF81A0001208DF81B0002208DF8D3
:1026E0001800C002059002208DF8190005A91748AE
:1026F000FFF76AF802208DF818000420059005A95C
:102700001348FFF761F801A90F4800F019FB3520C5
:102710008DF81C0001208DF81F008DF81D008DF82C
:102720001E004FF4A060FFF7D7FA07A8FFF798FA4A
:10273000012240F22551044800F0DDFA012102484F
:1027400000F03CFA08B010BD005000400008024004
:10275000000C02401CB501210846FFF7A5FB012033
:10276000009000208DF8040003208DF80500012062
:102770008DF8070069460B48FFF726F80121042071
:10278000FFF792FB0120009000208DF80400032049
:102790008DF8050001208DF8070069460248FFF713
:1027A00013F81CBD000002400008024010B50024D0
:1027B00008210D4800F068FA20B10B4800F0ADFB8D
:1027C000C4B20FE040F22551074800F06AFA012830
:1027D00008D140F22551044800F0E1F9024800F028
:1027E0009CFBC4B210BD00000050004038B500246E
:1027F0000821284800F048FA002834D0254800F085
:102800008CFBC4B2562C06D1002023490860234912
:102810000098086007E0522C05D100201E4908608E
:1028200001201F4908601C48006810B1012818D118
:1028300005E0412C02D101201749086012E0194936
:1028400009680DF8014017480068401C15490860E8
:1028500008460068042803DD002008600E4908606F
:1028600000E000BF0FE040F225510A4800F019FADD
:10287000012808D140F22551064800F090F905489A
:1028800000F04BFBC4B208A10948009A00F0C2FA5C
:1028900038BD000000100140AC0100208401002080
:1028A00080010020B001002025640D0A0000000016
:1028B0000050004010B540F225512E4800F0F1F9CB
:1028C000012855D140F225512A4800F068F92948DD
:1028D00000F023FB2849087008460078D5280FD15E
:1028E00000202649086026490860264800682649D5
:1028F00008600846006802F043FC00202149086097
:102900001E48006820B101280CD002282ED117E003
:1029100019480078D62804D118480068401C174987
:10292000086024E01448007841B21848144A12683C
:1029300000F8121011480068401C1049086016E0A9
:102940000D48017811480E4A126800EB42004170B0
:1029500001200A4908600A480068401C08490860CC
:1029600008480068401C0749086000E000BF00BF3D
:1029700010BD0000004400408C010020BC0100207C
:10298000C001002088010020B80100204002002082
:1029900010B540F22551744800F083F901287CD12C
:1029A00040F22551704800F0FAF86F4800F0B5FA8F
:1029B0006E4908706E48007805286FD2DFE800F095
:1029C0000311263D4B00694800780D2805D1684861
:1029D0000078401C6649087002E0002064490870D5
:1029E00088E0624800780A2808D100206149087010
:1029F0005F480078401C5E49087006E05B4800783C
:102A00000D2802D000205A49087073E0574800781A
:102A10005949584A1278885456480078401C5549FC
:102A2000087008460078182806DB00200870504817
:102A30000078401C4E4908705CE04C4800780A2839
:102A400005D14B480078401C4949087002E000203D
:102A5000474908704EE0454800780D2830D1464877
:102A600090ED000A454880ED000A434890ED010AC8
:102A700080ED010A90ED020A80ED020A90ED030A52
:102A80003F4880ED000A3C4890ED040A3D4880ED47
:102A9000000A394890ED050A01E02CE026E080EDBF
:102AA000050A374890ED000A02F070FB354890EDBA
:102AB000000A02F071FB314890ED000A02F0FCF9C7
:102AC00000202B4908702E4890ED000A2E4880ED1A
:102AD0000F0A2C4890ED000A2B4880ED100A274879
:102AE00090ED000A284880ED0E0A03E000202049FE
:102AF000087000BF37E028211B4800F050F840F272
:102B00002771194800F04BF840F22661164800F092
:102B100046F840F22531144800F041F840F22441D3
:102B2000114800F03CF840F646010F4800F037F835
:102B300040F66A110C4800F032F860210A4800F0B3
:102B40002EF84FF45871084800F029F84FF4187126
:102B5000054800F024F84FF4B071034800F01FF866
:102B6000014800F0DAF910BD00480040B40100202F
:102B7000B5010020B6010020680200207401002089
:102B8000780100207C0100201C02002001F400726A
:102B9000B2F5007F00D100BFCA430280704710B574
:102BA0000022002340F66A14A14200D100BF0A129D
:102BB00001249440A3B2DC43048010BD21B182897A
:102BC00042F40052828104E082894DF6FF731A407C
:102BD0008281704710B504462548844208D10121FE
:102BE0001020FFF7A1F900211020FFF79DF93EE02A
:102BF0002048844209D101214804FFF775F90021DA
:102C00004FF40030FFF770F931E01B48844209D1DE
:102C100001218804FFF768F900214FF48020FFF7B5
:102C200063F924E01548844209D10121C804FFF763
:102C30005BF900214FF40020FFF756F917E0104828
:102C4000844209D101210805FFF74EF900214FF414
:102C50008010FFF749F90AE00A48844207D10121B0
:102C60002020FFF761F900212020FFF75DF910BD5A
:102C7000001001400044004000480040004C00406B
:102C8000005000400014014002460020B1F5007FD2
:102C900000D100BF13880B400BB1012000E00020E1
:102CA000704770B50246002400230025002040F63E
:102CB0006A16B14200D100BFC1F3421501F01F03F3
:102CC000012606FA03F3012D02D19689334006E06E
:102CD000022D02D1168A334001E0968A33400C124D
:102CE000012606FA04F41688344013B10CB1012011
:102CF00000E0002070BDF0B503460024002600254A
:102D0000002040F66A17B94200D100BF1846C1F34F
:102D1000421401F01F06012707FA06F5012C01D124
:102D20000C3004E0022C01D1103000E014301AB154
:102D300007682F43076002E00768AF430760F0BDF4
:102D40002DE9FF4705460E460024A14600BFA046D8
:102D5000B08900B100BF2C8A24F44054F0880443A9
:102D60002C82AC8941F20C608443B08831890843DD
:102D7000718908430443AC81AC8A24F44074B0895F
:102D80000443AC826846FFF7DFF82048854202D052
:102D90001F48854202D1DDF80C9001E0DDF8089073
:102DA000A88900F4004040B109EBC90000EB09100C
:102DB00031684900B0FBF1F707E009EBC90000EB0F
:102DC000091031688900B0FBF1F76420B7FBF0F01F
:102DD00004012009642101FB1078A88900F4004057
:102DE00040B1322000EBC800B0FBF1F000F007006A
:102DF000044308E0322000EB08106421B0FBF1F03E
:102E000000F00F0004432C81BDE8FF870010014053
:102E1000001401400FB470B586B006460CA80190AE
:102E200073E00B9800785C281CD10B98401C0B9029
:102E300000786E2809D072280FD10D21304600F09D
:102E400071F80B98401C0B900BE00A21304600F003
:102E500069F80B98401C0B9003E00B98401C0B90FA
:102E600000BF4BE00B980078252840D10B98401C00
:102E70000B900078642818D0732833D1019810C8BB
:102E800001900BE02178304600F04CF800BF402163
:102E90003046FFF7F9FE0028F9D0641C207800289E
:102EA000F0D10B98401C0B9020E0019820C80190B5
:102EB0000A2202A9284601F0ABFF02AC0BE0217800
:102EC000304600F02FF800BF40213046FFF7DCFE0F
:102ED0000028F9D0641C20780028F0D10B98401C01
:102EE0000B9003E00B98401C0B9000BF06E00B9882
:102EF00010F8011B0B90304600F014F800BF402181
:102F00003046FFF7C1FE0028F9D00B980078002862
:102F100087D106B070BC5DF814FB01468888C0F309
:102F20000800704730B504460D4600BF802120469A
:102F3000FFF7AAFE0028F9D080212046FFF726FEE1
:102F400040212046FFF722FEC5F30800A08030BDD7
:102F500000BFFEE7014601290EDA1D4890ED000A88
:102F6000DFED1C0A80EE201A9FED1B0A21EE000AFD
:102F70001A4880ED110A22E0012910DB03290EDA3C
:102F8000174890ED000A9FED131AC0EE010A9FED5D
:102F9000120A20EE800A114880ED110A0FE0032981
:102FA0000DDB104890ED000A9FED0A1AC0EE010AF1
:102FB0009FED090A20EE800A084880ED110A0748B3
:102FC00090ED110ABDEEC00A10EE100A7047000025
:102FD000400000206766BC43000080451C020020C2
:102FE0003C000020380000202DE9F0418AB08046E6
:102FF0000D46174600242C4B0FCB06AE0FC605F529
:1030000040700190029000208DF80C008DF80D00AA
:1030100008208DF80E00079700BF3FE006A810F8C3
:1030200034008DF80F0006A830F83400010A8DF83E
:10303000101006A850F83400010C8DF8111006A8E5
:1030400050F83400000E8DF8120006A800EBC40002
:1030500001798DF8131006A800EBC4008088010ADE
:103060008DF8141006A800EBC4004068010C8DF820
:10307000151006A800EBC4004068000E8DF816007D
:1030800001A94046FEF7A4F8064600BF3146404677
:10309000FEF732F90128F9D1601CC4B2022CBDDB65
:1030A0000AB0BDE8F08100003C5D00082DE9F04366
:1030B00093B080460D4616461F46002438222E49FE
:1030C00005A8FDF7F1F805F540700090019000208B
:1030D0008DF808008DF8090008208DF80A000C967C
:1030E0000E97264910914942129100BF3FE005A872
:1030F00010F834008DF80B0005A830F83400010AF0
:103100008DF80C1005A850F83400010C8DF80D1046
:1031100005A850F83400000E8DF80E0005A800EB4D
:10312000C40001798DF80F1005A800EBC400808859
:10313000010A8DF8101005A800EBC4004068010CCE
:103140008DF8111005A800EBC4004068000E8DF842
:10315000120069464046FEF73BF8814600BF4946EB
:103160004046FEF7C9F80128F9D1601CC4B2072C0B
:10317000BDDB13B0BDE8F083045D0008C0E1E400EE
:1031800010B52DED048BFE4890ED0F0AFD4880ED43
:10319000000AFB4890ED100AFB4880ED000AF84851
:1031A00090ED0E0AF94880ED000AF9480068FFF733
:1031B000D1FE00EE100AB8EEC00AF14880ED110A07
:1031C000806C09287DD2DFE800F005C5FCFB7CFAA5
:1031D0007CF9F800FEF726FD00F5FA7000EE100A03
:1031E000B8EEC00AE848D0ED000A30EEC00AE9485F
:1031F00080ED000A9FEDE80AE84880ED000A90EDB6
:10320000000AE248D0ED000A30EE600AE44880EDA2
:10321000000AFEF707FDC0F5FA6000EE100AB8EEEE
:10322000C00AD848D0ED000A30EE600ADD4880EDD3
:10323000000A006802F0DEFC41EC190BB0EE490A0E
:10324000F0EE690A00F034FEB0EE408AF0EE608ADB
:103250009FEDD50B53EC102B51EC180B02F09EFB9D
:103260003BD2CC4890ED000A01F0EEFACC48D0ED0C
:10327000000A30EEC00AB0EE408AFDF715FAC048E9
:10328000D0ED110A30EE200ABDEEC00A10EE104A51
:1032900022460121C648FFF7A7FEBE4890ED000A6E
:1032A00001F0D2FABE48D0ED000A30EEC00AB0EE0E
:1032B000408AFDF7F9F9B248D0ED110AF1EE600A43
:1032C00000E0CFE230EE200ABDEEC00A10EE104A58
:1032D00022460221B648FFF787FEB248006802F096
:1032E00089FC41EC190BB0EE490AF0EE690A00F0D6
:1032F000DFFDB0EE408AF0EE608A9FEDAB0B53EC41
:10330000102B51EC180B02F00FFA07D29FEDA90A0F
:10331000A44880ED000A0120994988649D4890EDF9
:10332000000A01F091FA9E48D0ED000A30EEC00A82
:10333000B0EE408AFDF7B8F99F4880ED000A954845
:1033400090ED000A01F080FA9C4880ED000AFEF73B
:10335000DDF888E2FEF766FC40F26C71081A00EEB8
:10336000100AB8EEC00A8748D0ED000A30EEC00A55
:10337000884880ED000A9FED8F0A884880ED000A9A
:1033800090ED000A8148D0ED000A30EE600A8448D2
:1033900080ED000AFEF746FC41F23011081A00EEFB
:1033A000100AB8EEC00A7848D0ED000A30EE600A84
:1033B0007C4880ED000A006804E050E249E240E207
:1033C00071E18DE002F016FC41EC190BB0EE490AF8
:1033D000F0EE690A00F06CFDB0EE408AF0EE608A13
:1033E0009FED710B53EC102B51EC180B02F0D6FA39
:1033F00039D2684890ED000A01F026FA6848D0ED0D
:10340000000A30EE200AB0EE408AFDF74DF95C4824
:10341000D0ED110A30EE200ABDEEC00A10EE104ABF
:10342000224601216248FFF7DFFD5A4890ED000A6D
:1034300001F00AFA5A48D0ED000A30EE200AB0EE48
:10344000408AFDF731F94E48D0ED110AF1EE600ADD
:1034500030EE200ABDEEC00A10EE104A22460221CC
:103460005348FFF7C1FD4F48006802F0C3FB41EC31
:10347000190BB0EE490AF0EE690A00F019FDB0EE42
:10348000408AF0EE608A9FED480B53EC102B51EC14
:10349000180B02F049F907D29FED460A414880ED2A
:1034A000000A0220364988643A4890ED000A01F08B
:1034B000CBF93B48D0ED000A30EE200AB0EE408A4E
:1034C000FDF7F2F83C4880ED000A324890ED000A22
:1034D00001F0BAF9394880ED000AFEF717F8C2E1A9
:1034E000FEF7A0FB41F23011081A00EE100AB8EE08
:1034F000C00A2548D0ED000A30EEC00A254880ED0C
:10350000000A9FED2F0A254880ED000A90ED000A81
:103510001E48D0ED000A30EE600A214880ED000A16
:10352000FEF780FBA0F5FA6000EE100AB8EEC00AC4
:103530001448D0ED000A30EE600A1A4880ED000A07
:10354000006802F057FB41EC190BB0EE490AF0EEAF
:10355000690A00F0ADFCB0EE408AF0EE608A9FEDA3
:10356000120B53EC102B51EC180B02F017FA5DD232
:10357000084890ED000A01F067F9094822E00000D0
:103580001C02002004000020080000200C00002085
:103590002C0000201C0000200000B4C214000020F9
:1035A00010000020180000200000000000208C40C7
:1035B00000680040000000002000002024000020DF
:1035C0000000B442D0ED000A30EE200AB0EE408A8E
:1035D000FDF76AF8A648D0ED110A30EE200ABDEEDC
:1035E000C00A10EE104A22460121A248FFF7FCFC57
:1035F000A14890ED000A01F027F9A048D0ED000A9B
:1036000030EE200AB0EE408AFDF74EF89848D0ED33
:10361000110AF1EE600A30EE200ABDEEC00A10EE8B
:10362000104A224602219348FFF7DEFC94480068C6
:1036300002F0E0FA41EC190BB0EE490AF0EE690A2B
:1036400000F036FCB0EE408AF0EE608A1FED2A0BE7
:1036500053EC102B51EC180B02F066F807D21FED5B
:103660002B0A874880ED000A03208149886482483C
:1036700090ED000A01F0E8F88048D0ED000A30EE45
:10368000200AB0EE408AFDF70FF87E4880ED000A70
:10369000794890ED000A01F0D7F87B4880ED000AE8
:1036A000FDF734FFDFE0FEF7BDFAC0F5FA6000EE8B
:1036B000100AB8EEC00A7548D0ED000A30EE200AB4
:1036C0006D4880ED000A9FED720A724880ED000A95
:1036D00090ED000A7048D0ED000A30EE600A6748AD
:1036E00080ED000AFEF79EFA00F5FA7000EE100A6F
:1036F000B8EEC00A6948D0ED000A30EEC00A604852
:1037000080ED000A006802F075FA41EC190BB0EE8A
:10371000490AF0EE690A00F0CBFBB0EE408AF0EE09
:10372000608A1FED5F0B53EC102B51EC180B02F06D
:1037300035F939D2504890ED000A01F085F84F482C
:10374000D0ED000A30EEC00AB0EE408AFCF7ACFFC4
:103750004748D0ED110A30EE200ABDEEC00A10EE47
:10376000104A224601214348FFF73EFC424890EDB3
:10377000000A01F069F84148D0ED000A30EEC00AB5
:10378000B0EE408AFCF790FF3948D0ED110AF1EE17
:10379000600A30EE200ABDEEC00A10EE104A224642
:1037A00002213448FFF720FC3548006802F022FA75
:1037B00041EC190BB0EE490AF0EE690A00F078FB13
:1037C000B0EE408AF0EE608A1FED890B53EC102BAF
:1037D00051EC180B01F0A8FF17D21FED8A0A2848F8
:1037E00080ED000A0020224988642D4800680328E3
:1037F00004DA2B480068401C294908602848006802
:10380000032802D105201A498864FDF77FFE1A4873
:1038100090ED000A01F018F81848D0ED000A30EEDB
:10382000C00AB0EE408AFCF73FFF164880ED000A60
:10383000114890ED000A01F007F8134880ED000AE6
:1038400011E01548D0ED000A1FEDA60AFCF7AAFE0C
:1038500009E0114890ED000AFCF74EFF03E001F08B
:10386000A7F800E000BF00BFBDEC048B10BD000056
:103870001C020020006800401C00002010000020F6
:103880001800002020000020240000200400002058
:1038900000003443140000200C0000200800002029
:1038A0002C00002010B52DED028BB0EE408AB0EE5A
:1038B000480A00F00FF8BDEEC00A10EE104A234689
:1038C000002207210248FEF711FABDEC028B10BD61
:1038D00000640040F0EE400AB1EE000A20EE800ADB
:1038E0009FED021A20EE010A70470000610B36417D
:1038F00003B401984100009850EAC12018BF042089
:103900004A0D18BF40F0010040F2FF72B2EB515F68
:1039100008BF40F00200012808BF052002B0704730
:1039200070B59B482DED020B2DED068B079D25F004
:103930000044A04218DC9748844202DC0AD1069871
:1039400040B19DED060BBDEC068B02B0BDE87040AA
:1039500000F006BF002DCCBF9FED8F0B9FED900BAD
:10396000BDEC068B02B070BD8F48A04215DD8F48BC
:10397000A042D8BF4FF0FF3458DD9DED060B51EC4F
:10398000100BFFF7B5FF042808BF00F00DFF9DEDF9
:10399000060BBDEC068B02B070BD9DED060B51EC25
:1039A000100B00F0F9FFCDE9060181489FED828BF5
:1039B000A0423CDD8248A0421FDD00249FED82AB87
:1039C0009DED060B53EC1A2B51EC100B01F046FC4D
:1039D0009DED060B41EC190B53EC1A2B51EC100B1F
:1039E00001F0DEFE53EC182B02F01AF853EC192B01
:1039F00001F0E8FCCDE9060149E09DED060B01244C
:103A000053EC182B51EC100B01F028FC9DED060B2C
:103A100041EC190B53EC182B51EC100B02F000F891
:103A200053EC192B01F0CEFCCDE906012FE06848DC
:103A3000A0421FDD02249FED689B9DED060B53EC19
:103A4000192B51EC100B01F0ABFE53EC182B01F0CD
:103A500005FC9DED060B41EC180B53EC192B51ECBA
:103A6000100B01F0DDFF53EC182B01F0ABFCCDE99E
:103A700006010CE09DED060B032453EC102B9FED8B
:103A8000580B51EC100B01F09DFCCDE906019DEDAA
:103A9000060B53EC102B51EC100B01F081FE41ECA6
:103AA000180B53EC182B01F07BFE41EC190B4E4820
:103AB0000621B0EE490AF0EE690A784400F03CFDB8
:103AC00053EC182B51EC100B01F06AFE41EC180B73
:103AD0004648B0EE490AF0EE690A0521784400F044
:103AE0002BFD53EC192B51EC100B01F059FE41EC5E
:103AF000100B51EC180B53EC102B002C0EDA01F0CC
:103B0000ADFB9DED061B53EC112B01F049FE9DED25
:103B1000061B53EC112B01F077FF35E001F09EFB03
:103B20009DED061B53EC112B01F03AFE41EC100BFE
:103B30002F48784400EBC40090ED001B51EC100BB3
:103B400053EC112B01F06CFF9DED061B53EC112B78
:103B500001F066FF41EC100B2648784400EBC400EE
:103B600090ED001B51EC100B53EC112B01F04CFFAE
:103B700041EC100B002DA2BFBDEC068B02B070BD56
:103B800051EC100B01F02CFB41EC100B01E7000095
:103B9000000010440000F07F182D4454FB21F93F31
:103BA000182D4454FB21F9BF0000DC3F0000203EEB
:103BB0000000F33F00000000000000000000F03FA4
:103BC0000000E63F00000000000000000000004090
:103BD0000080034000000000000000000000F83FEB
:103BE000000000000000F0BFAA23000060230000D6
:103BF000EA220000A222000070B56B4E2DED040BEE
:103C00002DED028B82B0DDF81CC0DDE905235C429E
:103C10002CF000411C4341EAD474049D22F0004082
:103C2000B44205D86C422C4340EAD474B4420BD958
:103C30009DED061B9DED040B02B0BDEC028B04B0A4
:103C4000BDE8704000F096BDACF14054A4F17F6433
:103C50001C430BD0022404EAAC7444EAD27405433A
:103C60009FED538B9FED542B07D015E09DED040B7A
:103C700051EC100B00F0E0FD42E0002C11BF012CD4
:103C80009DED040B02B0BDEC028B04BF04B070BD0F
:103C9000022C38D0032C3BD00B439FED491B9FEDEA
:103CA0004A0B0AD0B14218D1B04209D121F080416B
:103CB00020F08040079105900FE0002A15DA10E00F
:103CC000434B7B44002C08BF93ED000B0DD0012C1F
:103CD00010D0022C17D0032C1AD0B0421DD1002ACC
:103CE00003DAB0EE410AF0EE610A02B0BDEC028BDD
:103CF00004B070BD93ED000B51EC100B01F070FAA5
:103D000041EC100BF1E7B0EE480AF0EE680AECE780
:103D1000B0EE420AF0EE620AE7E7401A00153C28CE
:103D2000C8BF8DED000B19DCBCF1000FBEBF10F158
:103D30003C0F9FED290B8DED000B0FDB9DED060B6E
:103D400053EC102B9DED040B51EC100B01F03AFBE2
:103D500000F022FE00F070FDCDE90001002C08BF4C
:103D60009DED000BC1D0012C10D0022C9FED1C0B3F
:103D700053EC102B9DED000B51EC100B0DD001F00E
:103D80004FFE53EC182B01F04BFEB9E7019880F081
:103D9000004001909DED000BA7E701F041FE53ECC0
:103DA000182B01F031FEABE70000F07F00000000AF
:103DB000182D4454FB210940182D4454FB2109C0FF
:103DC000182D4454FB21F9BF182D4454FB21F93F11
:103DD00002220000000000000000000000000000BF
:103DE000075C143326A6A13C10B52F499FED2C1B70
:103DF0002DED020B84B0059820F000408842D8BF1A
:103E00009DED040B2DDD2949884209D1049840B964
:103E10004FF00100FCF782FA00F0B6FC06B010BDCE
:103E200005DB9DED040B00F09BFC06B010BD684661
:103E30009DED040B00F0ACF810F0030004BF9DED05
:103E4000021B9DED000B0CD001280ED09DED021B36
:103E50009DED000B022817D0012000F0E9FB06B011
:103E600010BD00F0B1FA06B010BD9DED021B9DED36
:103E7000000B012000F0DCFB51EC100B01F0B0F95D
:103E800006B041EC100B10BD00F09EFA51EC100B87
:103E900001F0A6F906B041EC100B10BD00000000C7
:103EA0000000000000000000FB21E93F0000F07F5F
:103EB0002DED020B019820F0004001909DED000BCC
:103EC00002B070470000000010B52F499FED2C1B79
:103ED0002DED020B84B0059820F000408842DCBF35
:103EE00000209DED040B32DD2849884209D1049859
:103EF00040B94FF00100FCF711FA00F045FC06B0A4
:103F000010BD05DB9DED040B00F02AFC06B010BDD2
:103F100068469DED040B00F03BF810F0030011D053
:103F2000012818D09DED021B9DED000B02281AD030
:103F300000F04AFA51EC100B01F052F906B041ECD6
:103F4000100B10BD9DED021B9DED000B012000F03C
:103F50006FFB06B010BD9DED021B9DED000B00F048
:103F600033FA06B010BD012000F062FB51EC100BDB
:103F700001F036F906B041EC100B10BD0000000056
:103F80000000000000000000FB21E93F0000F07F7E
:103F90002DE9F14F04462DED020B2DED088B8AB073
:103FA0009FEDE70B80ED020B139EE74826F00045DE
:103FB00085420ADC9DED120B002084ED000B0AB057
:103FC000BDEC088B03B0BDE8F08FE0489FEDE0AB9F
:103FD0009FEDE1BBA84247DDE14F9FEDE39B9FEDE5
:103FE000E48B9DED120B53EC1A2B51EC100B002EB1
:103FF0001CDD01F015FD41EC100BBD4208D053EC67
:104000001B2B51EC100B01F00BFDC4E900010BE080
:1040100053EC192B51EC100B01F002FD53EC182B53
:1040200001F0FEFCC4E900010120C8E701F016F927
:1040300041EC100BBD4208D053EC1B2B51EC100B84
:1040400001F00CF9C4E900010BE053EC192B51EC21
:10405000100B01F003F953EC182B01F0FFF8C4E941
:1040600000014FF0FF30AAE7C348A84279DB9DED7D
:10407000120B51EC100B00F08FFC41EC180B9FED74
:10408000C00B53EC102B01F08BFB9FEDBF1B53ECCF
:10409000112B01F0E3F801F0EDFA074601F019FBEE
:1040A00041EC190B53EC1A2B01F07AFB53EC182B53
:1040B00001F0AAFC41EC180B53EC1B2B51EC190B33
:1040C00001F06EFBDFF8C8A241EC100B4FEA155867
:1040D0000125FA4453EC102B51EC180B01F0A0FC15
:1040E000032DC4E900013DD0C1F30A5005EB451191
:1040F000A8EB00001139814234DA0AEB051BB0EE5F
:1041000048AA9BED000BF0EE68AA53EC102B51EC83
:10411000190B01F045FB41EC1B0B51EC1A0B53EC56
:104120001B2B01F07DFC41EC180B51EC1A0B53ECEE
:10413000182B01F075FC53EC1B2B01F071FC9BED6F
:10414000020B41EC1A0B53EC102B51EC190B01F044
:1041500027FB53EC1A2B01F063FC41EC100B6D1C98
:10416000B8E70EE0002EA8BF3846BFF628AF94EDA2
:10417000000B51EC100B01F033F8C4E90001784258
:104180001DE7C6F3130040F4801EC6F30A50A0F2E8
:10419000F530471100F01F05C5F12000DDF848B0EB
:1041A00008900020069007900520EC467949002DE4
:1041B00007EB0002794408BF51F8221009D051F8EA
:1041C000223001EB8201AB404A68089922FA01F1E2
:1041D0001943A1FB0E26A1FB0B131A449A4234BFCC
:1041E0000123002303EB06080CEB8003D3E901A6AF
:1041F0000E448E4234BF0121002192448A4411B101
:10420000924502D903E0924501D2012100E000214C
:10421000C3E901A641444CF82010011EA0F10100A1
:10422000C4DC029800F10050850F0298DDE90367B5
:104230008000DDF8148001F04CFA41EC1A0B304696
:1042400001F05EFA9FED541B53EC112B01F0A8FA1C
:1042500041EC1B0B384601F053FA9FED511B53EC18
:10426000112B01F09DFA41EC180B404601F048FA81
:104270009FED4D1B53EC112B01F092FA41EC190B01
:1042800051EC180B53EC192B00F0E8FF53EC1B2BEF
:1042900000F0E4FF53EC1A2B00F0E0FFCDE9080139
:1042A000002008909DED080B53EC1A2B51EC100BDD
:1042B00001F0B6FB53EC1B2B01F0B2FB53EC182BB7
:1042C00001F0AEFB53EC192B01F09EFB9FED381B68
:1042D00053EC112B01F064FA9FED370B41EC180BF6
:1042E00053EC102B9DED080B51EC100B01F058FA1C
:1042F00053EC182B00F0B2FF9FED310B41EC180B83
:1043000053EC102B9DED080B51EC100B01F048FA0B
:1043100053EC182B00F0A2FF41EC100B139810F097
:10432000004F06D06D4251EC100B00F059FF41ECEC
:10433000100B284684ED000B41E600000000000051
:104340000000000000000000FB21E93F7CD9024092
:1043500000004054FB21F93F3163621A61B4D03D43
:10436000FB21F93F000000000000601A61B4D03D5D
:104370007370032E8A19A33BFB2139410000000012
:1043800083C8C96D305FE43F000000000000E03FDB
:10439000FA1D0000481D0000000000000000103E53
:1043A000000000000000103C000000000000103A77
:1043B000182D4454FB21F93D3326A611460B113C20
:1043C00000000054FB21F93D10B52DED040B2DED3F
:1043D000088B82B0B0EE419AF0EE619A0B9820F013
:1043E00000449FED4BABB4F1795F11DA9DED0A0B00
:1043F00051EC100B01F03EF9002801BFB0EE4A0A63
:10440000F0EE6A0A02B0BDEC088B04BF04B010BD28
:104410009DED0A0B53EC102B51EC100B01F0C0F981
:1044200041EC180B3C480621B0EE480AF0EE680A51
:10443000784400F081F853EC182B51EC100B01F08C
:10444000AFF99DED0A0B41EC1B0B53EC192B51EC12
:10445000100B01F0A5F941EC190B53EC1B2B51EC9F
:10446000180B01F09DF953EC192B01F0D9FA9FEDCF
:104470002C0B41EC190B53EC102B51EC180B01F0E9
:104480008FF941EC100B2848844210DA53EC192BB9
:1044900051EC100B01F0C4FA53EC1A2B01F0B4FAF2
:1044A00041EC100B02B0BDEC088B04B010BD1F48EE
:1044B000A042BCBF9FED1E1B8DED001B06DBA4F5CB
:1044C00000100190002000909DED001B51EC100B9E
:1044D00053EC112B01F0A4FA9DED000B41EC180BED
:1044E00053EC102B51EC1A0B01F09AFA41EC1A0B19
:1044F00053EC192B51EC180B01F092FA53EC1A2BD8
:1045000001F082FA41EC100BCCE700000000000043
:10451000000000000000F03F641A000000000000EE
:10452000000000000000E03F3333D33F0000E93FCC
:10453000000000000000D23F70B504462DED028B54
:104540004D1E00EBC500B0EE408AF0EE608A90EDA3
:10455000000B35F0060017D053EC182B51EC100B64
:1045600001F01EF941EC100B6D1E04EBC50090ED3F
:10457000001B51EC100B53EC112B00F06FFE41ECC3
:10458000100B35F00600E7D1022D36D0042D1CD0DB
:10459000062D1CBFBDEC028B70BD53EC182B51ECEB
:1045A000100B01F0FDF894ED0A1B53EC112B00F0F9
:1045B00055FE53EC182B01F0F3F894ED081B53EC67
:1045C000112B00F04BFE41EC100B53EC182B51EC6F
:1045D000100B01F0E5F894ED061B53EC112B00F0E5
:1045E0003DFE53EC182B01F0DBF894ED040B53EC7B
:1045F000102B00F033FE41EC100B53EC182B51EC58
:10460000100B01F0CDF894ED021B53EC112B00F0D0
:1046100025FE53EC182B01F0C3F894ED001B53EC6E
:10462000112B00F01BFEBDEC028B41EC100B70BD9A
:1046300031B504462DED040B2DED0A8BB0EE41BAD9
:10464000F0EE61BA0B989DED0A0B20F00040B0F13E
:10465000795F0DDA51EC100BFFF74AF9042808BF17
:1046600000F0A2F89DED0A0BBDEC0A8B05B030BD41
:1046700053EC102B51EC100B01F092F841EC180B9D
:104680009DED0A0B53EC182B51EC100B01F088F840
:1046900041EC190B2C48B0EE480AF0EE680A0521EF
:1046A0007844FFF749FF9FED2ACBB0EE40AAF0EE29
:1046B00060AA9CB353EC1C2B51EC190B01F070F861
:1046C00041EC1C0B53EC1A2B51EC190B01F068F860
:1046D0009FED210B41EC190B53EC102B51EC1B0BF4
:1046E00001F05EF853EC192B01F09AF953EC182BFA
:1046F00001F056F853EC1B2B01F092F953EC1C2BF4
:1047000001F08EF99DED0A1B53EC112B01F07CF9A1
:10471000BDEC0A8B05B041EC100B30BDFFE753EC4C
:104720001A2B51EC180B01F03BF853EC1C2B00F04A
:1047300095FD53EC192B01F033F89DED0A1B53EC5A
:10474000112B00F08BFDE3E7F418000000000000DF
:10475000495555555555C5BF000000000000E03FC4
:1047600010B553EC102B51EC100B00F077FD41EC21
:10477000100B10BD10B553EC112B51EC100B00F0C9
:104780006DFD41EC100B10BD9FED050B10B553EC0A
:10479000102B51EC100B00F015FE41EC100B10BD6E
:1047A00000000000000000009FED050B10B553EC69
:1047B000102B51EC100B00F0F3FF41EC100B10BD6F
:1047C0000000000000000010B0EE401A31EE600A58
:1047D000154880ED000A90ED000ADFED141AB4EEE2
:1047E000E10AF1EE10FA08DD90ED000ADFED101A93
:1047F00030EE610A80ED000A11E00B4890ED000AEE
:10480000DFED0C1AB4EEE10AF1EE10FA07D290EDEA
:10481000000ADFED071A30EE210A80ED000A024897
:1048200090ED000A7047000014010020000034439E
:104830000000B443000034C310B541EC100BFFF787
:104840006FF851EC100B10BDF0EE400A0E4890EDE1
:10485000000A20EE200A0D4890ED001AB8EEC11AA9
:1048600030EEC11A0A48D0ED001A01EE810A09485B
:1048700080ED000ABDEEE00A044880ED000A05481C
:1048800090ED000A704700003C0100203801002034
:10489000440100204801002010B5124800F06CF8D7
:1048A0000121104800F024F802210E4800F020F801
:1048B0009FED0D0AFCF7B2FE4CF250331A4601216F
:1048C0000848FEF7F3FB4CF250331A460221054824
:1048D000FEF7ECFB4CF250331A4608210348FEF772
:1048E000E5FB10BD0068004000002042006400406D
:1048F00070B588B005460C461E4903C9CDE90601CE
:1049000004F540700190029000208DF80C008DF8A5
:104910000D0008208DF80E000698C0B28DF80F002B
:104920000698010A8DF810100698010C8DF81110E8
:104930000698000E8DF812000798C1B28DF813107A
:104940000798010A8DF814100798010C8DF81510BE
:104950000798000E8DF8160001A92846FCF738FCD0
:10496000064600BF31462846FCF7C6FC0128F9D1AF
:1049700008B070BDF45C00081CB50446054903C9C5
:10498000CDE9000108236A4600212046FCF704FD1A
:104990001CBD0000EC5C000882B0CDE9000121F0F4
:1049A000004001909DED000B02B051EC100B7047E0
:1049B00010B52DED068B624890ED0F0A614880ED31
:1049C000000A5F4890ED100A5F4880ED000A5C48DD
:1049D00090ED0E0A5D4880ED000A00F0D3F85C49C6
:1049E000086008460068594991ED001A5649D1ED12
:1049F000000A544991ED000AFCF7C4FF554880EDC8
:104A0000000AC0ED010AD0ED010AB0EE600AFEF71F
:104A100049FF5148006830B94E48D0ED000AB0EE69
:104A2000600AFDF77DFB4B48D0ED000A4B4890ED46
:104A3000000AB8EEC00A30EE600A10EE101A0846FE
:104A400001F0D8F841EC1A0BB0EE4A0AF0EE6A0A0F
:104A5000FFF72EFAB0EE409AF0EE609A9FED400B11
:104A600053EC102B51EC190B00F09AFE41EC180B93
:104A70009FED3D0B53EC102B00F056FE02D20020B0
:104A8000354908603A480068401C394908600846C2
:104A90000068962801DCFDF7F1F935480068962892
:104AA00001DDFDF7F7F9324800684FF4967190FB8D
:104AB000F1F201FB12002E49086000F0A5F8BDEEEE
:104AC000C00A10EE104A22462AA12B48FEF7A2F98E
:104AD00000F016F9BDEEC00A10EE104A224625A1DC
:104AE0002548FEF797F9224822A102682248FEF7DE
:104AF00091F9164890ED000ABDEEC00A10EE102A9A
:104B00001CA11D48FEF786F9124890ED010ABDEE82
:104B1000C00A10EE102A17A11748FEF77BF90D48BE
:104B200090ED000ABDEEC00A10EE100A00EB400244
:104B300012A11148FEF76EF9BDEC068B10BD000006
:104B40001C020020E4000020E8000020EC0000200F
:104B5000F0000020F40000208001002084010020EB
:104B60000000000000002440000000000000F03FB2
:104B7000E000002025640900005000402564090D74
:104B80000A0000000148006870470000FC01002096
:104B900010B52DED068B0A210F20FCF799FE044677
:104BA00000F0AEFD41EC1A0B9FED0A0B53EC102BFD
:104BB00000F0F6FD41EC190B9FED080B53EC102BA8
:104BC00000F04CFB41EC180B00F054FDBDEC068BE3
:104BD00010BD0000A323B9FC87F4ED3FCDCCCCCCB5
:104BE000CCBC7A400148008870470000C801002012
:104BF0000448017821B10020024A1070012070475A
:104C00000020FCE7CA01002010B52DED108B3648BE
:104C1000006800F0EFFF41EC190B344890ED000AFA
:104C2000B1EE400ADFED320A20EE200ADFED310A54
:104C300080EE201A11EE104A204600F0DBFF41EC16
:104C40001F0BB0EE4F0AF0EE6F0AFFF73DF9B0EE22
:104C500040DAF0EE60DA2848006800F0CBFF41EC63
:104C60001E0B53EC1D2B00F09BFD41EC1B0B1F4852
:104C700090ED000AB1EE400ADFED1D0A20EE200A99
:104C8000DFED1C0A80EE201A11EE104A204600F0DB
:104C9000B1FF41EC1F0BB0EE4F0AF0EE6F0AFFF7C9
:104CA000A3F8B0EE40DAF0EE60DA1448006800F0E5
:104CB000A1FF41EC1E0B53EC1D2B00F071FD41ECEC
:104CC0001C0B53EC1B2B00F0ABFE41EC1A0B53EC0E
:104CD000192B00F0C3FA41EC180B00F08DFA00EE2E
:104CE000100ABDEC108B10BD0C0100200801002043
:104CF000DB0F494000003443040100200001002084
:104D000010B52DED108B3648006800F073FF41ECB4
:104D1000190B344890ED000AB1EE400ADFED320A7B
:104D200020EE200ADFED310A80EE201A11EE104A43
:104D3000204600F05FFF41EC1F0BB0EE4F0AF0EE93
:104D40006F0AFFF751F8B0EE40DAF0EE60DA28486B
:104D5000006800F04FFF41EC1E0B53EC1D2B00F0E0
:104D60001FFD41EC1B0B1F4890ED000AB1EE400AFD
:104D7000DFED1D0A20EE200ADFED1C0A80EE201A6E
:104D800011EE104A204600F035FF41EC1F0BB0EE4B
:104D90004F0AF0EE6F0AFFF797F8B0EE40DAF0EE48
:104DA00060DA1448006800F025FF41EC1E0B53EC5C
:104DB0001D2B00F0F5FC41EC1C0B53EC1B2B00F001
:104DC0004DFA41EC1A0B53EC192B00F047FA41EC69
:104DD000180B00F011FA00EE100ABDEC108B10BD9C
:104DE0001001002008010020DB0F4940000034437F
:104DF0000401002000010020014890ED000A7047E6
:104E0000EC010020014890ED000A7047F0010020FD
:104E1000F0B503460D461646002729460A2E03D054
:104E2000002008702846F0BD33B9302001F8010B8E
:104E3000002008702846F6E7002B03DA2D2001F841
:104E4000010B5B420A4A0DE0B3FBF2F404B937B13F
:104E500004F1300001F8010B04FB123301270A2092
:104E6000B2FBF0F2002AEFD1002008702846DAE702
:104E700000E1F50510B500F011F80CE007E0FEF7D1
:104E80007FF9FCF7EDFBFFF7ADFE03490860FFF784
:104E9000AFFE0028F3D1F1E70000002010B54FF479
:104EA000A060FCF719FFFCF729FDFFF7F5FC42F6BF
:104EB000E060FCF76AFC10BD014880ED000A704715
:104EC000FC0000200149086070470000FC01002040
:104ED00010B52DED048BB0EE409AB0EE608AF0EE86
:104EE000418AB0EE490A00F00BF8B0EE480A00F033
:104EF0002FF8B0EE680A00F0B7F8BDEC048B10BDD7
:104F000010B52DED028BB0EE408A0A4890ED000AF4
:104F100038EE400A084880ED000A90ED000ABDEE28
:104F2000C00A10EE102A05A10848FDF773FFBDEC7A
:104F3000028B10BDFC000020080100207365745333
:104F4000696E676C652025640D0A00000010014041
:104F500010B52DED0E8BB0EE408A384890ED000A6A
:104F6000B1EE400ADFED360A20EE200ADFED350A09
:104F700080EE201A11EE104A204600F03BFE41EC74
:104F80001E0BB0EE4E0AF0EE6E0AFEF79DFFB0EE7D
:104F900040CAF0EE60CA2C48006800F02BFE41ECDD
:104FA0001D0B53EC1C2B00F0FBFB41EC1A0B2348B0
:104FB00090ED000AB1EE400ADFED210A20EE200A52
:104FC000DFED200A80EE201A11EE104A204600F094
:104FD00011FE41EC1E0BB0EE4E0AF0EE6E0AFEF72B
:104FE00003FFB0EE40CAF0EE60CA1848006800F057
:104FF00001FE41EC1D0B53EC1C2B00F0D1FB41ECEE
:105000001B0B53EC1A2B00F00BFD41EC190B00F0BD
:10501000F3F808EE900A38EE680A0D4880ED000AB1
:1050200090ED000ABDEEC00A10EE102A09A10D484D
:10503000FDF7F0FEBDEC0E8B10BD00000801002056
:10504000DB0F494000003443040100200001002030
:105050000C010020736574457272582025640D0A96
:10506000000000000010014010B52DED0E8BB0EED9
:10507000408A384890ED000AB1EE400ADFED360A6A
:1050800020EE200ADFED350A80EE201A11EE104ADC
:10509000204600F0AFFD41EC1E0BB0EE4E0AF0EEE4
:1050A0006E0AFEF7A1FEB0EE40CAF0EE60CA2C48D0
:1050B000006800F09FFD41EC1D0B53EC1C2B00F031
:1050C0006FFB41EC1A0B234890ED000AB1EE400A49
:1050D000DFED210A20EE200ADFED200A80EE201A03
:1050E00011EE104A204600F085FD41EC1E0BB0EE9B
:1050F0004E0AF0EE6E0AFEF7E7FEB0EE40CAF0EEA2
:1051000060CA1848006800F075FD41EC1D0B53ECB7
:105110001C2B00F045FB41EC1B0B53EC1A2B00F051
:105120009DF841EC190B00F067F808EE900A38EE94
:10513000680A0D4880ED000A90ED000ABDEEC00A35
:1051400010EE102A09A10D48FDF764FEBDEC0E8B90
:1051500010BD000008010020DB0F4940000034436F
:105160000401002000010020100100207365744537
:105170007272592025640D0A0000000000100140E1
:105180000149086070470000F8010020014880EDE7
:10519000000A704700010020014880ED000A7047B6
:1051A00004010020014880ED000A7047EC01002056
:1051B000014880ED000A7047F0010020F1EE400A3E
:1051C000FDEEE00AF8EEE00A9FED041A60EE810AB7
:1051D000FDEEE00A10EE900A7047000000008045E6
:1051E00081F00041704780F00040704721F000419D
:1051F000704720F00040704721F00042A2F1605259
:10520000B2F5801F01F0004328BFD2F17F6C0BD9AB
:105210005FEA001C43EAC20242EB507018BF7047BD
:1052200028BF20F001007047B2F5801FBCBF1846B0
:1052300070474FEA410C1CF5001F02D2084600F0EF
:105240004FBD70B500F056FB00000089FFF7F6BFB8
:105250004FF00040A0F580007047000010B591EAC3
:10526000030F48BF83F0004300F1E283841A71EB1F
:10527000030C05D2121943EB0C03001B61EB0C016C
:10528000DFF824E14FEA1154A4EB135C1EEA430F4C
:1052900018BF9EEA445F73D023EA0E03DCF1200EB0
:1052A00021EA045143F4801332D322FA0CFE10EBAE
:1052B0000E0023FA0CFE41EB0E01CCF1200E03FA96
:1052C0000EFE10EB0E0051F10001B1F5801FCCF184
:1052D000200E32D201EB045112FA0EF2BDE810405A
:1052E00058BF7047401C38BF5FEA420218BF704782
:1052F000002814BF20F0010041F100014FEA4103F2
:1053000013F5001F38BF7047A1F1C04100F040BB4A
:10531000012A43EB0302ACF1200CDCF11F0E32BF7B
:105320004FF0000E23FA0CF310EB030041EB045195
:10533000B4EB115FD0D0A1EB045101F58011490805
:105340005FEA300001EB04510ED350F1000038BF8A
:1053500012FA0EFE08D1BDE81040C9E7401C38BF64
:105360005FEA4202CAD1C3E7BDE810404FEA4103F9
:1053700013F5001F38BF7047A1F1C04100F008BB12
:105380009EEA445F08D011EA5E0FBDE8104004BFFA
:1053900001F0004100207047BDE8104070B500F0FA
:1053A000A9FA00BF64FBBE3E0000E0FF491058BFF1
:1053B000C1F140415B1058BFC3F140438B42EFF352
:1053C000008070472DE9C04130B4DFF8A0C23CEA4C
:1053D000111418BF3CEA131400F0EC8081EA0305B5
:1053E0001CEA111444EAD57418BF1CEA131500F026
:1053F000C780A4EB05044FF0004545EAC12145EA0A
:10540000C32341EA505143EA525304F17F74994255
:1054100004F500344FEAC0204FEAC22208BF904290
:1054200000F09C804FEA13650FF24016765D4FEA5C
:10543000134506FB05F7C7F1807706FB07F74FEA30
:10544000D737A7FB03687642C8F58038A7FB06CE9E
:1054500038BFA8F1010807FB08E64FF0000EA6FBD5
:10546000028CE6FB03CEDCF1000CCEF1004E38BF1F
:10547000AEF1010EA6FB0C584FF000074FF00005EF
:10548000E6FB0E87A1FB08C6A0FB07CE16EB0E06B7
:1054900045F10005E1FB076515F1E04E7EBFA4F57F
:1054A00080345FEA46066D4116F1800745F100053C
:1054B0004FEA17274FEA066647EA0567A6F1DE4678
:1054C000B6F1805F4FEA15251FD9384624F0010C4C
:1054D00005EBC471BCF1FE6F01EB0C1102D8F0BCFE
:1054E000BDE8008124425CBF01F5801E9EEAC47FB6
:1054F00002D4F0BCBDE80081244238D4F0BCA1F154
:10550000C041BDE8004100F043BA4FEAD22242EA6E
:1055100043524FEAD323A7FB02864FEAD02040EA4A
:10552000415007FB03661EEA0E0F4FEAD12105FB2F
:10553000026658BFA6EB0056B6EB00564FEA520E75
:105540004EEAC37E18EB0E0E56EB530EBDD518EB8C
:1055500002085E417F1C55F10005B6E74FF4801547
:105560004FF000074FF000064FF00008ADE7F0BC29
:105570004FF0000001F1C04101F00041BDE80081A1
:1055800011EA0C1F0CEA131500D00CE013EA0C1FF3
:1055900000F025804FF00000F0BC81EA030101F02B
:1055A0000041BDE80081F0BCBDE8004181EA030193
:1055B00000F0EEB9F0BCBDE8004170B500F09AF91A
:1055C000097EFC3E00F007B881EA03014FF00000BD
:1055D00001F00041704781EA030100F0D9B9F0BC45
:1055E000BDE800414FF0000021497047FFFDFBF985
:1055F000F7F5F4F2F0EEEDEBE9E8E6E4E3E1E0DE06
:10560000DDDBDAD8D7D5D4D3D1D0CFCDCCCBCAC877
:10561000C7C6C5C4C2C1C0BFBEBDBCBBBAB9B8B79E
:10562000B6B5B4B3B2B1B0AFAEADACABAAA9A8A891
:10563000A7A6A5A4A3A3A2A1A09F9F9E9D9C9C9B5F
:105640009A9999989797969595949393929191900A
:105650008F8F8E8E8D8C8C8B8B8A8989888887879B
:105660008685858484838382828181800000FF0710
:105670000000F87F4FEA41034FEA5353A3F58063DC
:10568000D3F11E03C8BFD3F1210C0CDD4FF0004253
:1056900042EAC12242EA505232FA03FC8CEAE17C2F
:1056A000ACEBE1707047102BC4BF0020704703F5CE
:1056B000787CBCF1FF3F04D06FF0004282EA210009
:1056C000704770B500F016F94992248000207047A9
:1056D000F2E710F0004248BF4042B0FA80F310FAFF
:1056E00003F10AD0C3F11D0303F580634FEA415073
:1056F00002EB035202EBD12170474FF000007047DC
:10570000B0FA80F310FA03F10AD0C3F11D0303F5D8
:1057100080634FEA41504FEA035202EBD1217047B8
:105720004FF000007047000051EA030C17D41CF53D
:10573000801F58BFBCF5801F00F10680994218BF3A
:10574000704708BF9042704707D711F5801F58BFB8
:1057500013F5801F19D499427047894270471CF590
:10576000801F08D5BCF5801FF7D58B4218BF704746
:1057700008BF824270474FF4001C1CEB410F38BF3A
:105780001CEB430F01D28B42704770B500F0B2F8AA
:10579000922449004FF000514FF08053FFF706BEAE
:1057A000DFF848C170B51CEA111E1EBF1CEA1315B4
:1057B0009EEA0C0F95EA0C0F00F06F8081EA03045B
:1057C00023EA4C134EEAD47E21EA4C1141F48011B5
:1057D00043F48013AE44A1FB024CA0FB0365AEF181
:1057E0007F7E361955EB0C05A1FB034C4CF10003F1
:1057F000A0FB021C16EB0C06654153F100030942A5
:1058000018BF46F0010613F4007F0BD14FEA0331B5
:105810004FEA0530340341EA155140EA16506FF063
:1058200003020AE04FEAC3214FEAC520F40241EA2D
:10583000555140EA56506FF0020202EB2E4201EB46
:10584000025585EACE710AD05FEA440C18BF24F0F5
:10585000004450F1000041F1000120EAD47040F210
:10586000FE7C624500D270BDA84214BF4FF0804458
:105870004FF04044002E08BF0024BEF1806FA8BF47
:10588000A1F1C041BDE8704080F282804FF000007D
:1058900001F1C04101F0004170479EEA0C0F0CEA93
:1058A000131518BF95EA0C0F06D04FF0000081EADF
:1058B000030E0EF0004170BD00F01CF88900013E9F
:1058C00000F007B800F009B84FEA430C5FEA5C5CEF
:1058D00008D081EA030100F05BB84FEA410C5FEAAF
:1058E0005C5CF6D14FF00000014970470000FF07F3
:1058F0000000F87F0EF1020E2EF0030E5EF8046B2E
:10590000364205D4012A43EB030515F5001F12D8D2
:10591000012841EB010C1CF5001F0CD80ED14FEAF9
:10592000D17C15F5001F0CEB4C0C0CF1020C08BFE0
:105930004CEBD37C04E04FF0080C01E04FEAD37C41
:105940000CEB4C0526FA05F606F00706B6F1040C3A
:1059500006D20EEB860CBDE870404CF0010C60479F
:10596000DFE80CF0090B02024FF000414FF000009D
:10597000A1F5002170BD19461046012851EB010424
:1059800018BFD4F5001484BF002001F0004170BDA1
:105990000808A0F500114FEA3101704753EA010CE5
:1059A00017D41CF5801F58BFBCF5801F00F106807E
:1059B0008B4218BF704708BF8242704707D713F564
:1059C000801F58BF11F5801F19D48B4270479B422E
:1059D00070471CF5801F08D5BCF5801FF7D599428C
:1059E00018BF704708BF904270474FF4001C1CEB73
:1059F000430F38BF1CEB410F01D2994270470FB4DF
:105A00000CBC03BCFFF7C1BE91EA030F10B581F0D7
:105A100000413FF52BAC83F0004300F009B80000D3
:105A200010B591EA030F48BF83F000433FF51EAC69
:105A3000841A71EB030C07D212198CF0004C43EB63
:105A40000C03001B61EB0C01DFF8A4E14FEA1154D9
:105A5000A4EB135C1EEA430F18BF9EEA445F00F0FC
:105A6000B08023EA6E03524221EA0451C3EB6E0375
:105A700038BF5B1EDCF1200E25D322FA0CFE10EBA2
:105A80000E0043FA0CFE41EB0E01CCF1200E03FA9E
:105A90000EFE10EB0E0051F10001CCF1200E29D4C6
:105AA00012FA0EF201EB0451BDE8104058BF7047E6
:105AB000401C1CBFB2F1004F704700280CBF491CAE
:105AC00020F00100704712EB020E43EB030218BFF7
:105AD0004FF0010E4EEA4202ACF1200CDCF11E0E3A
