:020000040800F2
:10000000104A002049020008C92900086D2600088E
:10001000C52900089D08000871480008000000007C
:10002000000000000000000000000000653900082A
:1000300099210008000000005F020008610200082A
:1000400063020008630200086302000863020008FC
:1000500063020008630200086302000863020008EC
:1000600063020008630200086302000863020008DC
:1000700063020008630200086302000863020008CC
:1000800063020008630200086302000863020008BC
:10009000A108000863020008630200086302000868
:1000A00063020008D13B00086302000863020008F5
:1000B000ED3B0008413C0008CD3C0008630200080D
:1000C000630200086302000863020008630200087C
:1000D000630200080D410008D5410008B142000844
:1000E000630200086302000863020008630200085C
:1000F000053D00086302000863020008630200086F
:100100006302000863020008E93C0008630200087B
:1001100063020008E140000863020008630200086F
:10012000630200086302000863020008630200081B
:10013000630200086302000863020008630200080B
:100140004509000863020008630200086302000812
:1001500063020008630200086302000863020008EB
:1001600063020008630200086302000863020008DB
:1001700063020008630200086302000863020008CB
:10018000630200086302000800F002F800F04CF877
:100190000AA090E8000C82448344AAF10107DA45E2
:1001A00001D100F041F8AFF2090EBAE80F0013F0E8
:1001B000010F18BFFB1A43F0010318471C8A000007
:1001C0003C8A00000A4410F8014B14F00F0508BFE8
:1001D00010F8015B240908BF10F8014B6D1E05D013
:1001E00010F8013B6D1E01F8013BF9D1641E03D0EC
:1001F000641E01F8015BFBD19142E4D3704700001B
:100200000023002400250026103A28BF78C1FBD81F
:10021000520728BF30C148BF0B6070471FB508F0B8
:100220009AFA1FBD10B510BD00F076F81146FFF721
:10023000F5FF07F0BDF900F094F803B4FFF7F2FF03
:1002400003BC00F097F800000948804709480047C0
:10025000FEE7FEE7FEE7FEE7FEE7FEE7FEE7FEE776
:10026000FEE7FEE704480549054A064B70470000D3
:10027000693B00088901000810040020104A002092
:10028000104600201046002010B5203AC0F00B8028
:10029000B1E81850203AA0E81850B1E81850A0E88A
:1002A0001850BFF4F5AF5FEA027C24BFB1E81850E4
:1002B000A0E8185044BF18C918C0BDE810405FEA54
:1002C000827C24BF51F8043B40F8043B08BF7047D0
:1002D000D20728BF31F8023B48BF11F8012B28BFD5
:1002E00020F8023B48BF00F8012B70477047704769
:1002F000704710B500F008F8006810BD10B504464E
:1003000000F002F8046010BD00487047B003002000
:1003100000487047B00300207546FFF7F9FFAE466E
:1003200005006946534620F00700854618B020B501
:10033000FFF798FFBDE820404FF000064FF00007A0
:100340004FF000084FF0000B21F00701AC46ACE87D
:10035000C009ACE8C009ACE8C009ACE8C0098D46EA
:10036000704710B50446AFF300802046BDE810404A
:10037000FFF763BF01491820ABBEFEE7260002006D
:10038000704721B1826842F00102826003E0826816
:1003900022F00102826070470021084A1168084A71
:1003A0001140D0E900231A4383681A43C3681A43F3
:1003B0001143044AC2F804137047000004230140AB
:1003C000E030FCFF002001400146C86C80B270475D
:1003D0000246002013680B400BB1012000E0002012
:1003E0007047000030B50246002000235068104CD2
:1003F00020400D790C6844EA052420435060906841
:100400000C4C2040D1E903542C438D682C434D798A
:1004100044EA450420439060D06A20F470000C7DCB
:10042000641EE4B2234340EA0350D06230BD0000B2
:10043000FFFEFFFCFDF7FFC0F0B504460D460020AF
:100440000021092D11DDE068A5F10A0606EB46073B
:10045000072606FA07F18843A5F10A0606EB4606C9
:1004600003FA06F10843E0600CE0206905EB45075C
:10047000072606FA07F1884305EB450603FA06F15D
:1004800008432061072A0FDA606B561E06EB8607C9
:100490001F2606FA07F18843561E06EB860605FA64
:1004A00006F10843606322E00D2A0FDA206BD61FA5
:1004B00006EB86071F2606FA07F18843D61F06EBD0
:1004C000860605FA06F10843206310E0E06AA2F10F
:1004D0000D0606EB86071F2606FA07F18843A2F1F0
:1004E0000D0606EB860605FA06F10843E062F0BD4C
:1004F000816841F0804181607047000000B58DB097
:100500000121042003F026F90121080203F052F929
:1005100030200B9003208DF8300000208DF8330040
:100520000BA9164801F0CAFF0121080203F052F995
:1005300000214FF4807003F04DF9002007900A90DD
:1005400009904FF48030089007A8FFF725FF00209E
:1005500001908DF808008DF8090003900490059033
:1005600001208DF8180001A90548FFF73BFF012184
:100570000348FFF706FF0DB000BD00000008024071
:100580000020014010B52DED068BB0EE408AF0EE54
:10059000608AF0EE680AB0EE480A06F0E7FA2748EB
:1005A00080ED000A90ED000A00F054F8DFED240A17
:1005B00030EE200ABDEEC00A10EE104A224601219C
:1005C000204804F0A1F91D4890ED000A00F042F81F
:1005D000DFED1D0A30EE200ABDEEC00A10EE104A13
:1005E00022460221174804F08FF91448006808F0E9
:1005F00041F841EC1A0BB0EE4A0AF0EE6A0A04F038
:1006000013FEB0EE409AF0EE609A9FED100B53ECA3
:10061000102B51EC190B07F0FBFC0CD200F018FF6B
:1006200048B100220121074804F06EF9002202219E
:10063000044804F069F9BDEC068B10BD30000020C1
:1006400000409CC50068004000409C450000000040
:1006500000002040F0EE400A0E4890ED000A20EE27
:10066000200A0D4890ED001AB8EEC11A30EEC11AFA
:100670000A48D0ED001A01EE810A094880ED000A0F
:10068000BDEEE00A044880ED000A054890ED000A3E
:1006900070470000400200203C020020440200207D
:1006A0004802002010B52DED028BB0EE408A2E4896
:1006B00090ED0E0AB0EE408A2C4890ED000ADFED76
:1006C0002C0AB4EEE00AF1EE10FA20DD90ED000AFB
:1006D000DFED280AB4EEE00AF1EE10FA17D2264850
:1006E00090ED000ADFED250AB4EEE00AF1EE10FA13
:1006F0000DDD90ED000ADFED220AB4EEE00AF1EE26
:1007000010FA04D2B0EE480A00F03CF829E017488D
:1007100090ED000ADFED160AB4EEE00AF1EE10FAF1
:100720001BD390ED000ADFED130AB4EEE00AF1EE00
:1007300010FA12DC104890ED000ADFED100AB4EE5A
:10074000E00AF1EE10FA08D390ED000ADFED0C0A92
:10075000B4EEE00AF1EE10FA03DDB0EE480A00F064
:1007600011F8BDEC028B10BD2C030020700000209E
:100770000000AFC40000AF447400002000006144DA
:1007800000C0734510B52DED068BB0EE408A384899
:10079000006848B99FED370A38EE000A364880ED08
:1007A000000A012032490860F0EE480A324890ED14
:1007B000000A06F0DBF9314880ED000A3048006895
:1007C000401C2F4908600846006896280BDA2D4A1D
:1007D00001212D4804F098F841F2DB7202212A48E9
:1007E00004F092F841E02648006896283DDB234853
:1007F00090ED000AFFF72EFFBDEEC00A10EE104A82
:1008000022460121204804F07FF81C4890ED000AA0
:10081000FFF720FFBDEEC00A10EE104A224602216B
:10082000194804F071F81548006807F023FF41ECFF
:100830001A0BB0EE4A0AF0EE6A0A04F0F5FCB0EECC
:10084000409AF0EE609A9FED110B53EC102B51EC97
:10085000190B07F0DDFB08D20E4800680E498864CA
:1008600000200349086006490860BDEC068B10BDF6
:100870009000002000003442880000208C000020FE
:100880009400002025E8FFFF006800400000000001
:10089000000014406C0000202C03002000BFFEE785
:1008A00010B51E4803781E4A1E491F4800F042FC3E
:1008B0001C480068302803D11949087806F0E8FE82
:1008C0001A49194800F088F81849491C164800F0E0
:1008D00083F81649C91C144800F07EF814491248E0
:1008E00000F07AF81349104800F076F812490E48E3
:1008F00000F072F8104908310B4800F06DF80F490C
:10090000094800F069F80E49074800F065F80C49FD
:100910000831054800F060F810BD0000A502002075
:100920009D020020A8020020006400400100F01099
:100930007000F030030000120800003203000014C1
:100940000800003410B51A4803781A4A1A491B489F
:1009500000F0F0FB1A49194800F03EF81849491C0C
:10096000164800F039F81649C91C144800F034F84C
:100970001449124800F030F81349104800F02CF8E0
:1009800012490E4800F028F8104908310B4800F0D1
:1009900023F80F49094800F01FF80E49074800F0F6
:1009A0001BF80C490831054800F016F810BD00008E
:1009B000B8020020B0020020AC0200200068004015
:1009C0000100F0107000F030030000120800003247
:1009D000030000140800003400220C4B994202D19D
:1009E0000023836111E0C1F3130201F000730BB126
:1009F000C2600AE001F080630BB1026105E001F022
:100A000000630BB1826000E0426070477000F0301C
:100A10002DE9F04F8BB006460F4614461D46DDF813
:100A200050804FF00009CA46CB46B5F5807F43D0D1
:100A300012DC102D34D008DC012D25D0022D26D05B
:100A4000042D27D0082D4FD127E0202D2BD0402D6D
:100A50002CD0802D48D12CE0B5F5805F38D009DC52
:100A6000B5F5007F2BD0B5F5806F2BD0B5F5006FB5
:100A70003AD12AE0B5F5005F2DD0B5F5804F2DD0E5
:100A8000B5F5004F30D12CE04FF000092DE04FF0CC
:100A900001092AE04FF0020927E04FF0030924E0A2
:100AA0004FF0040921E04FF005091EE04FF0060960
:100AB0001BE04FF0070918E04FF0080915E04FF070
:100AC000090912E04FF00A090FE04FF00B090CE0A2
:100AD0004FF00C0909E04FF00D0906E04FF00E0948
:100AE00003E04FF00F0900E000BF00BFB8F5807FC2
:100AF0004BD01ADCB8F1100F3BD00CDCB8F1010F71
:100B00002BD0B8F1020F2BD0B8F1040F2BD0B8F1D5
:100B1000080F52D12AE0B8F1200F2DD0B8F1400FC4
:100B20002DD0B8F1800F48D12CE0B8F5805F38D0D7
:100B300009DCB8F5007F2BD0B8F5806F2BD0B8F565
:100B4000006F3AD12AE0B8F5005F2DD0B8F5804F9C
:100B50002DD0B8F5004F30D12CE04FF0000A2DE039
:100B60004FF0010A2AE04FF0020A27E04FF0030A93
:100B700024E04FF0040A21E04FF0050A1EE04FF098
:100B8000060A1BE04FF0070A18E04FF0080A15E0CC
:100B90004FF0090A12E04FF00A0A0FE04FF00B0A7B
:100BA0000CE04FF00C0A09E04FF00D0A06E04FF0A0
:100BB0000E0A03E04FF00F0A00E000BF00BF7F48BD
:100BC000304418B1B0F5806F1AD10CE04FF0090B2A
:100BD00000208DF8120014208DF804000121480631
:100BE00002F0C8FD0DE04FF0090B0E208DF8120049
:100BF00040208DF804000121000502F0BBFD00E05B
:100C000000BF00BFC4F3090078BBA012A0F580109C
:100C10008038092834D2DFE800F0050A0F14191EC5
:100C200023292E000121084602F094FD29E001212C
:100C3000022002F08FFD24E00121042002F08AFD51
:100C40001FE00121082002F085FD1AE0012110209B
:100C500002F080FD15E00121202002F07BFD10E074
:100C60000121402002F076FD0BE009E00121802007
:100C700002F070FD05E00121080202F06BFD00E0CA
:100C800000BF00BF5A464946204601F05FFC5A4665
:100C90005146204601F05AFC45EA0800099002201E
:100CA0008DF828008DF8290000208DF82A000120F9
:100CB0008DF82B0009A9204601F000FC304600F019
:100CC0007FF800208DF81E008DF81F008DF82000A1
:100CD0008DF821008DF822008DF823008DF81A0080
:100CE0008DF81B000B208DF81C0007208DF81D00CF
:100CF0007D2F22D008DC0A2F0FD0142F11D0322FD5
:100D000013D0642F29D114E0FA2F1AD0B7F5FA7F47
:100D10001BD0B7F57A7F20D11BE0C820ADF81800B2
:100D20001CE06420ADF8180018E02820ADF8180089
:100D300014E01420ADF8180010E01020ADF81800F1
:100D40000CE00820ADF8180008E00420ADF8180009
:100D500004E00220ADF8180000E000BF00BF06A9C3
:100D6000304600F0D6F800208DF8130001208DF8F1
:100D700014000020ADF80800ADF80A00ADF80C0032
:100D8000ADF80E00ADF8100001208DF8150002A896
:100D900000F032F800208DF8050003208DF80600E1
:100DA00001208DF8070001A801F010FE01220221A8
:100DB000304600F0A5F80BB0BDE8F08F009CFFBFF7
:100DC00010B504460B48844209D10121480602F0BF
:100DD000E1FC00214FF0007002F0DCFC08E0012192
:100DE000880602F0D7FC00214FF0806002F0D2FCB0
:100DF00010BD00000064004010B50021837A01227C
:100E000002FA03F13D4A126842F001023B4B1A60BC
:100E10003A4A1C3212688A43384B1C331A60027BF0
:100E2000CAB9364A0C3212688A43344B0C331A6002
:100E30004288C38842EA0343304A4032847A42F807
:100E400034300288838842EA03432C4A4032847A51
:100E500002EBC4025360027B012A19D1274A0C32EB
:100E600012680A43254B0C331A604288038842EA11
:100E70000343224A4032847A42F83430C28883885D
:100E800042EA03431D4A4032847A02EBC4025360B3
:100E9000C27A3AB9194A121D12688A43174B1B1DB0
:100EA0001A6006E0154A121D12680A43134B1B1DF7
:100EB0001A60028932B9114A143212688A430F4B00
:100EC00014331A600289012A06D10C4A14321268BE
:100ED0000A430A4B14331A60427B012A06D1074A9F
:100EE0001C3212680A43054B1C331A60034A12680D
:100EF00022F00102014B1A6010BD000000660040A4
:100F00001AB143690B43436102E043698B43436178
:100F1000704730B5024600200023146824F0020414
:100F20001460146844F00104146000E05B1C546811
:100F300004F001041CB94FF6FF74A342F6D15468C3
:100F400004F001040CB900206CE08C79012C04D170
:100F5000146844F08004146003E0146824F08004F2
:100F60001460CC79012C04D1146844F0400414605E
:100F700003E0146824F0400414600C7A012C04D1BE
:100F8000146844F02004146003E0146824F0200482
:100F900014604C7A012C04D1146844F010041460DD
:100FA00003E0146824F0100414608C7A012C04D13E
:100FB000146844F00804146003E0146824F0080482
:100FC0001460CC7A012C04D1146844F00404146039
:100FD00003E0146824F0040414608C78A407CD782E
:100FE00044EA05640D7944EA05444D7944EA055420
:100FF0000D886D1E2C43D461146824F00104146024
:10100000002300E05B1C546804F001041CB14FF69F
:10101000FF74A342F6D1546804F001040CB100201F
:1010200000E0012030BD0246002019B9D36803F06A
:10103000030006E0012903D1136903F0030000E077
:101040000020704710B500F5D87303EB01131B683F
:1010500003F004031372137A53B900F5D87303EB4A
:1010600001131B6840F2FF7404EA5353136009E054
:1010700000F5D87303EB01131B686FF0604404EABA
:10108000D303536000F5D87303EB01131B6803F01F
:101090000203537200F5D87303EB01135B6803F08E
:1010A0000F03937200F5D87303EB01135B681B0AFF
:1010B000D37400F5D87303EB01139B68D37200F56A
:1010C000D87303EB01139B681C0A147300F5D873E3
:1010D00003EB01139B681C0C547300F5D87303EBEE
:1010E00001139B681B0E937300F5D87303EB011378
:1010F000DB68D37300F5D87303EB0113DB681C0ABC
:10110000147400F5D87303EB0113DB681C0C5474E2
:1011100000F5D87303EB0113DB681B0E937421B940
:10112000C36843F02003C36003E0036943F0200376
:10113000036110BD2DE9F04186B080460D4616468C
:101140001F46002400214046FFF76DFF18B900201C
:1011500006B0BDE8F08101AA00214046FFF772FF0A
:10116000002405E00DF10F00005D3055601CC4B295
:10117000BC42F7DB019828600120E9E710B5024680
:101180000020936803F08063B3F1806F00D110E01A
:10119000936803F00063B3F1006F01D1012008E010
:1011A000936803F08053B3F1805F01D1022000E027
:1011B0000420042874D002F5C07303EB00131B68ED
:1011C00003F0010402F5C07303EB00131C600B7AFB
:1011D0007BB94B7A0C8843EA445302F5C07404EBA4
:1011E00000142468234302F5C07404EB0014236048
:1011F00010E00B7A4C6843EAC4034C7A234302F5AF
:10120000C07404EB00142468234302F5C07404EB9B
:10121000001423608B7A03F00F038B7202F5C07306
:1012200003EB00135B6823F00F0402F5C07303EBBC
:1012300000135C6002F5C07303EB00135B688C7AEB
:10124000234302F5C07404EB001463608B7B1C061F
:101250004B7B44EA03440B7B44EA0323CC7A2343CD
:1012600002F5C07404EB0014A3608B7C1C064B7C5D
:1012700044EA03440B7C44EA0323CC7B234302F57A
:10128000C07404EB0014E36002F5C07303EB0013B9
:101290001B6843F0010402F5C07303EB00131C60EC
:1012A00010BD000010B50246002321B1012907D06E
:1012B00002290FD109E090681D4C00EA04030BE0FD
:1012C00090681C4C00EA040306E090681A4C00EA9F
:1012D000040301E0002300BF00BF184C181BA34209
:1012E00016D007DC83B16FF08060184470B102281B
:1012F00018D111E0B0F5007F10D0114C204448B156
:10130000B0F5003F0ED10BE002230DE000230BE00F
:10131000002309E0002307E0012305E0012303E0A7
:10132000012301E0002300BF00BFD8B210BD0000C0
:10133000030000040003000800000310000100087F
:101340000001FFF72DE9F04385B081460D46904638
:101350001E4600240095019500208DF808008DF8A8
:1013600009008DF80A6000BF06E018F804100DF1BE
:101370000B000155601C84B2B442F6DB6946484656
:10138000FFF7FCFE0746002400BF39464846FFF73A
:1013900089FF0128F9D105B0BDE8F08310B588B008
:1013A00004460121082002F0D5F90121480402F089
:1013B000E1F907220521244801F0C8F80722062197
:1013C000214801F0C3F86020069002208DF81C002F
:1013D0008DF81D0000208DF81E0001208DF81F00E3
:1013E00006A9194801F06AF802940020ADF80C0033
:1013F000ADF80E00ADF81000ADF814000C20ADF8FB
:10140000120002A9114803F02BF940210F4803F004
:101410004DF826208DF8040000208DF805000220EC
:101420008DF8060001208DF8070001A801F0CEFA22
:10143000012240F22551054803F0EDF8012103484F
:1014400003F04CF808B010BD000C0240004400400E
:1014500010B52DED048B06F06DF82F48D0ED0F0A76
:1014600030EEC00A10EE104A204607F003F941ECB6
:10147000190BB0EE490AF0EE690A03F0D5FEB0EEA2
:10148000408AF0EE608A9FED250B53EC102B51EC57
:10149000180B06F0BDFD2ED206F052F81E48D0ED16
:1014A000100A30EEC00A10EE104A204607F0E2F8AB
:1014B00041EC190BB0EE490AF0EE690A03F0B4FEF4
:1014C000B0EE408AF0EE608A9FED140B53EC102BC7
:1014D00051EC180B06F09CFD0DD20F4890ED110A4F
:1014E000B5EEC00AF1EE10FA05D00E480068401CB7
:1014F0000C49086002E000200A49086009480068B9
:10150000C82806DD0020074908600120BDEC048BD7
:1015100010BD0020FAE700002C03002000000000AE
:101520000000F03F2C00002010B52DED048B394851
:10153000806C3949086005F0FDFF3648D0ED0F0A90
:1015400030EEC00A354880ED000A05F0F9FF314859
:10155000D0ED100A30EEC00A314880ED000A2F4865
:10156000006807F087F841EC190BB0EE490AF0EE7D
:10157000690A03F059FEB0EE408AF0EE608A9FEDF2
:10158000290B53EC102B51EC180B06F041FD26D221
:101590002348006807F06EF841EC190BB0EE490AD9
:1015A000F0EE690A03F040FEB0EE408AF0EE608A89
:1015B0009FED1C0B53EC102B51EC180B06F028FD83
:1015C0000DD2144890ED110AB5EEC00AF1EE10FAF2
:1015D00005D016480068401C1449086002E000204D
:1015E0001249086011480068C8280FDD05F0A2FF05
:1015F0000F4880ED000A05F0A3FF0E4880ED000AB9
:10160000072004498864002008490860BDEC048B69
:1016100010BD00002C0300206C0000209C00002066
:10162000A0000020000000000000F03F9800002013
:101630007000002074000020F0EE400A0E4890ED8B
:10164000000A20EE200A0D4890ED001AB8EEC11AEB
:1016500030EEC11A0A48D0ED001A01EE810A09489D
:1016600080ED000ABDEEE00A044880ED000A05485E
:1016700090ED000A70470000500100204C0100204E
:10168000540100205801002010B52DED068BFE48B6
:1016900090ED0F0AFD4880ED000AFB4890ED100A1E
:1016A000FB4880ED000AF84890ED0E0AF94880EDFD
:1016B000000AF948006803F0DDF800EE100AB8EE01
:1016C000C00AF14880ED110A806C0F287ED2DFE855
:1016D00000F008FDFCFB7DFA7DF9F87D7DF7F6F55D
:1016E000F400ED480068EB2148434FF4167101EB1C
:1016F000400000EE100AB8EEC00AE448D0ED000A3F
:1017000030EEC00AE54880ED000A9FEDE50AE548A5
:1017100080ED000ADF48D0ED000AE24890ED000AB3
:1017200005F024FAE04880ED000ADB480068AF21AC
:10173000484340F6485101EB400000EE100AB8EE75
:10174000C00AD348D0ED000A30EE600AD74880EDD9
:10175000000AD148006801287DDACF48006806F009
:101760008FF9044606F029FC41EC180BCF480068BD
:1017700006F080FF41EC1A0BB0EE4A0AF0EE6A0A5E
:1017800003F052FDB0EE409AF0EE609A53EC182B45
:1017900051EC190B06F076FD3CD2C04890ED000AE2
:1017A00005F01CFFC048D0ED000A30EE200AB0EE74
:1017B000408AFEF74FFFB448D0ED110A30EE200A00
:1017C000BDEEC00A10EE104A224600E0FBE3012104
:1017D000B74803F099F8B14890ED000A05F0FEFE15
:1017E000B148D0ED000A30EE200AB0EE408AFEF794
:1017F00031FFA548D0ED110AF1EE600A30EE200A63
:10180000BDEEC00A10EE104A22460221A84803F09D
:101810007BF8BDE0A048006806F032F9044606F007
:10182000CCFB41EC180BA148006806F023FF41EC0B
:101830001A0BB0EE4A0AF0EE6A0A03F0F5FCB0EEBD
:10184000409AF0EE609A53EC182B51EC190B06F00D
:10185000DFFB09D200E008E09FED910A934880ED9C
:10186000000A01208849886492E08B4800680128BA
:101870007EDB8948006806F003F9044606F09DFB0C
:1018800041EC180B8948006806F0F4FE41EC1A0B95
:10189000B0EE4A0AF0EE6A0A03F0C6FCB0EE409AD7
:1018A000F0EE609A53EC182B51EC190B06F0EAFCA1
:1018B00044D27A4890ED000A09E0C4E399E36EE36C
:1018C00056E352E34BE347E347E271E17CE005F086
:1018D0008DF97548D0ED000A30EE200AB0EE408A4E
:1018E000FEF7B8FE6848D0ED110A30EE200ABDEED2
:1018F000C00A10EE104A224601216D4803F004F898
:10190000664890ED000A05F071F96748D0ED000ACD
:1019100030EE200AB0EE408AFEF79CFE5A48D0ED29
:10192000110AF1EE600A30EE200ABDEEC00A10EE98
:10193000104A224602215E4802F0E6FF564800683F
:1019400006F09EF8044606F038FB41EC180B5748A9
:10195000006806F08FFE41EC1A0BB0EE4A0AF0EE7A
:101960006A0A03F061FCB0EE409AF0EE609A00E083
:101970000EE053EC182B51EC190B06F049FB07D283
:101980009FED470A494880ED000A01203E498864DE
:10199000FFF7CAFD414890ED000A05F027F94248DB
:1019A000D0ED000A30EE200AB0EE408AFEF752FE7B
:1019B000404880ED000A394890ED000A05F016F91C
:1019C0003D4880ED000A69E333480068AF21484391
:1019D00040F6485101EB400000EE100AB8EEC00A94
:1019E0002B48D0ED000A30EEC00A2C4880ED000AEA
:1019F0009FED320A2B4880ED000A2648D0ED000A00
:101A0000284890ED000A05F0B1F8274880ED000A5B
:101A100021480068EB2148434FF4167101EB400068
:101A2000404200EE100AB8EEC00A1848D0ED000A95
:101A300030EE600A1D4880ED000A1748006806F085
:101A40001FF8044606F0B9FA41EC180B1748006875
:101A500006F010FE41EC1A0BB0EE4A0AF0EE6A0AEC
:101A600003F0E2FBB0EE409AF0EE609A53EC182BD4
:101A700051EC190B06F006FC56D2084890ED000A0E
:101A800005F0B4F808481BE02C03002000000020FB
:101A9000040000200800002028000020180000207A
:101AA00000000000100000200C00002014000020A6
:101AB000006800401C000020200000200000B4420C
:101AC000D0ED000A30EE200AB0EE408AFEF7C2FDEB
:101AD000FE48D0ED110A30EE200ABDEEC00A10EE2D
:101AE000104A22460121FA4802F00EFFF94890ED13
:101AF000000A05F07BF8F848D0ED000A30EE200A25
:101B0000B0EE408AFEF7A6FDF048D0ED110AF1EEE6
:101B1000600A30EE200ABDEEC00A10EE104A2246DE
:101B20000221EB4802F0F0FEEC48006805F0A8FF47
:101B3000044606F042FA41EC180BE948006806F04A
:101B400099FD41EC1A0BB0EE4A0AF0EE6A0A03F076
:101B50006BFBB0EE409AF0EE609A53EC182B51EC10
:101B6000190B06F055FA07D21FED330ADC4880ED59
:101B7000000A0220D5498864FFF7D6FCD54890EDCD
:101B8000000A05F033F8D448D0ED000A30EE200A00
:101B9000B0EE408AFEF75EFDD24880ED000ACD48E7
:101BA00090ED000A05F022F8CF4880ED000A75E2BA
:101BB000CA480068EB2148434FF4167101EB40001E
:101BC00000EE100AB8EEC00AC848D0ED000A30EEA8
:101BD000200AC04880ED000A9FEDC50AC54880ED87
:101BE000000AC548D0ED000AC24890ED000A04F092
:101BF000BDFFB94880ED000AB8480068AF214843EE
:101C0000C900A1EB400000EE100AB8EEC00ABB48C4
:101C1000D0ED000A30EEC00AB14880ED000AAF48AE
:101C2000006805F02DFF044606F0C7F941EC180BDB
:101C3000AB48006806F01EFD41EC1A0BB0EE4A0AF4
:101C4000F0EE6A0A03F0F0FAB0EE409AF0EE609A15
:101C500053EC182B51EC190B06F014FB39D29D48AC
:101C600090ED000A04F0C2FF9B48D0ED000A30EE70
:101C7000C00AB0EE408AFEF7EDFC9448D0ED110AA0
:101C800030EE200ABDEEC00A10EE104A22460121B5
:101C90008F4802F039FE8F4890ED000A04F0A6FF4D
:101CA0008D48D0ED000A30EEC00AB0EE408AFEF753
:101CB000D1FC8648D0ED110AF1EE600A30EE200A20
:101CC000BDEEC00A10EE104A22460221804802F002
:101CD0001BFE8248006805F0D3FE044606F06DF94D
:101CE00041EC180B7E48006806F0C4FC41EC1A0B6E
:101CF000B0EE4A0AF0EE6A0A03F096FAB0EE409AA5
:101D0000F0EE609A53EC182B51EC190B06F080F9A9
:101D100007D21FED9D0A724880ED000A03206B492F
:101D20008864FFF701FC6B4890ED000A04F05EFF49
:101D30006948D0ED000A30EEC00AB0EE408AFEF7E6
:101D400089FC684880ED000A624890ED000A04F0C2
:101D50004DFF654880ED000AA0E160480068AF21B2
:101D60004843C900A1EB400000EE100AB8EEC00ADB
:101D70006248D0ED000A30EEC00A564880ED000AF5
:101D80009FED5F0A5B4880ED000A5B48D0ED000ADA
:101D9000584890ED000A04F0E9FE4F4880ED000A33
:101DA0004E480068EB2148434FF4167101EB4000A8
:101DB00000EE100AB8EEC00A4C48D0ED000A30EE32
:101DC000600A474880ED000A4448006805F058FE64
:101DD000044606F0F2F841EC180B4148006806F0A2
:101DE00049FC41EC1A0BB0EE4A0AF0EE6A0A03F025
:101DF0001BFAB0EE409AF0EE609A53EC182B51ECBF
:101E0000190B06F03FFA39D2324890ED000A04F07F
:101E1000EDFE3148D0ED000A30EEC00AB0EE408A47
:101E2000FEF718FC2948D0ED110A30EE200ABDEE6D
:101E3000C00A10EE104A22460121254802F064FD36
:101E4000244890ED000A04F0D1FE2348D0ED000AAA
:101E500030EEC00AB0EE408AFEF7FCFB1B48D0ED26
:101E6000110AF1EE600A30EE200ABDEEC00A10EE53
:101E7000104A22460221164802F046FD1748006823
:101E800005F0FEFD044606F098F841EC180B1448E6
:101E9000006806F0EFFB41EC1A0BB0EE4A0AF0EED8
:101EA0006A0A03F0C1F9B0EE409AF0EE609A53EC82
:101EB000182B51EC190B06F0ABF831D29FED110A3B
:101EC000074880ED000A054800681DE02C0300204B
:101ED00000680040180000200C00002028000020AE
:101EE000140000201C000020200000200000002022
:101EF00000003443100000200800002004000020EF
:101F00000000B4C200000000401C6649086008469A
:101F10000068012804D10020086005206249886417
:101F2000FFF702FB614890ED000A04F05FFE604895
:101F3000D0ED000A30EEC00AB0EE408AFEF78AFB10
:101F40005C4880ED000A594890ED000A04F04EFE0E
:101F5000594880ED000AA1E000F03EF99EE05748A4
:101F600090ED000AFEF79EFB98E004F0E5FE95E098
:101F70004D4890ED0F0ADFED520AB4EEE00AF1EEA3
:101F800010FA0BDD90ED0F0ADFED4E0AB4EEE00A19
:101F9000F1EE10FA02D20C20434988647EE04248F8
:101FA00090ED0F0ADFED480AB4EEE00AF1EE10FA08
:101FB00014DD90ED0F0AB5EEC00AF1EE10FA0DD265
:101FC00090ED100A00E068E0DFED400AB4EEE00AB0
:101FD000F1EE10FA02D20D2033498864DFED3C1A8D
:101FE0001FED381ADFED3B0A9FED3B0A00F034FD90
:101FF00054E02D4890ED0F0ADFED380AB4EEE00A08
:10200000F1EE10FA14DD90ED0F0ADFED2F0AB4EEB9
:10201000E00AF1EE10FA0BD290ED100ADFED2B0A78
:10202000B4EEE00AF1EE10FA02D20E201E498864E6
:10203000DFED271A1FED4D1ADFED290A9FED260A65
:1020400000F00AFD2AE0184890ED0F0ADFED250A9E
:10205000B4EEE00AF1EE10FA14DD90ED0F0ADFEDB8
:102060001F0AB4EEE00AF1EE10FA0BD290ED100A5E
:10207000DFED160AB4EEE00AF1EE10FA02D2052006
:1020800009498864DFED121A1FED621ADFED160AA6
:102090009FED110A00F0E0FC00E000BF00BFBDECC6
:1020A000068B10BD280000202C0300201800002003
:1020B0000C0000201C000020200000200800002050
:1020C00000007A4300009643000048C20080D444D8
:1020D00000001645008089440000E1440000C8C2A9
:1020E0000000C844000016C30040034510B52DEDA4
:1020F000028BB0EE408AB0EE480A00F00FF8BDEE59
:10210000C00A10EE104A22460821034802F0FCFBE8
:10211000BDEC028B10BD000000640040F0EE400AF0
:102120009FED020A20EE800A704700000000804503
:10213000024617484069B0F57A6F03DC14484069DD
:10214000282803DA0020134B186002E00120114B0D
:1021500018600F488069B0F57A6F03DC0C4880691D
:10216000282803DA00200B4B186002E00120094BFD
:102170001860501841F28E23984203DA0020054B74
:10218000186002E00120034B1860024800687047A5
:102190002C0300202C010020704700B5034604E00A
:1021A0004FF47A7000F004F85B1E002BF8D100BDEC
:1021B000A82141434FF0E02251610521116100BF88
:1021C0004FF0E021096901F480310029F8D00421A1
:1021D0004FF0E022116170477CB505F053F80546D9
:1021E00005F07AF8064631462846FFF7A1FF9E49DA
:1021F00008609E48007800F0010088B104F066FF96
:102200009B4908609948006820F0010097490860E0
:102210009748006805F016F8964880ED000A8AE0B5
:102220009248007800F0020000285ED08F480078C5
:1022300000F0080000287ED08F4890ED0E0AF0EEE6
:10224000400A8C4890ED000AFEF79CF9FFF700F970
:10225000002870D089A28DA18E4802F06BFA87A267
:102260008AA18C4802F066FA84A288A1894802F00B
:1022700061FA82A285A1874802F05CFA7A48006878
:1022800080B17B48006804F051FE0020824908605C
:1022900048608860C8600120804908600020734958
:1022A000086048E07248006804F0BAFE7C480068A4
:1022B000401C7B4908600020784908607848006825
:1022C000022804DB01200860002075490860002016
:1022D000664908600846006840F00100086008464A
:1022E000006840F00400086025E06048007800F0D5
:1022F000040000B35E48006800F078F98DED000A34
:10230000CDED010A9DED011AF0EE410A9DED001A96
:10231000B0EE410A00F072FE01280CD100205349B2
:1023200008600846006840F002000860084600683F
:1023300040F00800086059480068012802D10820D0
:102340004D498864554857A10268524802F0F2F995
:10235000464854A102684F4802F0ECF9424851A1A6
:1023600002684C4802F0E6F941484EA1026849482B
:1023700002F0E0F93F4890ED000ABDEEC00A10EE11
:10238000102A48A1434802F0D5F9474890ED000AC9
:10239000BDEEC00A10EE102A42A13E4802F0CAF972
:1023A000424890ED000ABDEEC00A10EE102A3DA191
:1023B000384802F0BFF93E4890ED000ABDEEC00A71
:1023C00010EE102A37A1334802F0B4F92A4890EDF4
:1023D0000F0ABDEEC00A10EE102A32A12D4802F0FD
:1023E000A9F9254890ED100ABDEEC00A10EE102A9A
:1023F0002CA1284802F09EF905F09CF8BDEEC00A19
:1024000010EE104A224627A1224802F093F905F067
:1024100097F8BDEEC00A10EE104A224621A11D48D1
:1024200002F088F9144890ED0E0ABDEEC00A10EED5
:10243000102A1CA1174802F07DF9194819A1026859
:10244000144802F077F92A4616A1124802F072F9F0
:10245000324614A10F4802F06DF9074815A1826CAD
:102460000C4802F067F97CBD440100201C010020EB
:1024700038010020400100202C03002068616861C1
:102480006861686168686135000000002573090DA6
:102490000A000000005000407803002018010020CE
:1024A00034010020256409000C01002010010020E7
:1024B000140100202564090D0A000000F0B50A4649
:1024C00000210023002400BF3DE0012505FA01F3AF
:1024D000156805EA03049C4234D105684F000326C1
:1024E000BE40B543056015794E00B54006683543DA
:1024F00005601579012D02D01579022D16D1856858
:102500004F000326BE40B543856055794E00B54067
:10251000866835438560456801268E40B543456031
:10252000456896798E40B6B235434560C5684F0020
:102530000326BE40B543C560D5794E00B540C66898
:102540003543C560491C1029BFD3F0BDF0B5002349
:1025500000244D07ED0E02FA05F3CE1000F1200520
:1025600055F826504E07F70E0F26BE40B543CF1044
:1025700000F1200646F82750CE1000F1200555F84E
:10258000265045EA0304CE1000F1200545F8264008
:10259000F0BD000010B5044607230122214608487B
:1025A000FDF74AFF0648FDF7A3FF00BF02210448DC
:1025B000FDF70EFF0028F9D00148FDF705FF10BD1B
:1025C000002001402DE9F04107460C460025002679
:1025D00005E03846FFF7DEFF0544701CC6B2A64290
:1025E000F7DBB5FBF4F080B2BDE8F0810CB530B19B
:1025F00001280DD0022814D0032824D11AE09FED21
:10260000150A8DED000A9FED140A8DED010A1AE0FE
:102610009FED120A8DED000A9FED0F0A8DED010A64
:1026200011E09FED0F0A8DED000A9FED0E0A8DED72
:10263000010A08E09FED0A0A8DED000A9FED0A0AE3
:102640008DED010A00BF00BF9DED000ADDED010A1E
:102650000CBD00000000E1C4000016450000E1448C
:1026600000000000004083450000164400BFFEE764
:1026700008B5002003465322632100904FF08040AC
:1026800001F078FB0120002340F2473240F2E731AD
:102690000090154801F06EFB4FF400704310134A90
:1026A0004FF4FA7100901248FEF7B2F9402020234F
:1026B0000E4A4FF4FA7100900E48FEF7A9F9FDF7A3
:1026C0001DFF01F0E1FC4FF4E13001F0F1F94FF4AE
:1026D000E130FEF763FE4FF4E13000F0C9FF4FF444
:1026E000E13001F06BFC08BD000400400004024032
:1026F000006400400068004010B52DED0E8BF0EE38
:10270000408AB0EE608AB0EE419A044604F094FD2F
:102710000446642C0AD19FED900A904880ED000A8F
:102720009FED8F0A8F4880ED000A0BE0012C09D144
:102730009FED8D0A894880ED000A9FED890A89483E
:1027400080ED000AB0EE490A03F006FC9FED871AFF
:10275000F0EE680A41EE400AF0EE608AB0EE490AF7
:1027600002F0BAFC9FED811AF0EE480A41EE000A31
:10277000B0EE608A794890ED000A38EEC00A20EE8B
:10278000000A7848D0ED000A78EE600A90ED001A51
:1027900038EE411A00EE810AF1EEC00A10EE901AEE
:1027A000084605F067FF41EC1B0B9FED710B53ECE6
:1027B000102B05F0BFF941EC1A0B05F089F96E49B1
:1027C00008609FED6E0AB0EE001AF1EEC10A80EECD
:1027D000201A084690ED000A61EE000A684890ED64
:1027E000000A084690ED001ADFED661A11EE810A24
:1027F000B1EEC01A80EE810A634880ED000AD0ED88
:10280000000A9FED620A9FED621A11EE200A6148EC
:1028100080ED000A514890ED000A30EE680A5E48EB
:1028200080ED000A4F4890ED000A30EE480A5B4800
:1028300080ED000A5848006805F01CFF41EC1D0BB4
:102840005648006805F016FF41EC1E0BB0EE4D1A1D
:10285000F0EE6D1AB0EE4E0AF0EE6E0A02F0E0FAFB
:10286000B0EE40CAF0EE60CA9FED4D0B53EC102B5A
:1028700051EC1C0B05F008FC41EC1B0B9FED4A0BC7
:1028800053EC102B05F012FA41EC1A0B05F020F96D
:1028900047490860084690ED000ADFED460A30EE31
:1028A000600A80ED000A90ED000ADFED430AB4EE05
:1028B000E00AF1EE10FA08DD90ED000ADFED3F0AC4
:1028C00030EE600A80ED000A11E0394890ED000A10
:1028D000DFED3B0AB4EEE00AF1EE10FA07D290ED1C
:1028E000000ADFED360A30EE200A80ED000A30489B
:1028F00090ED000A39EE400A264880ED010A90ED7D
:10290000010ADFED2D0AB4EEE00AF1EE10FA08DD5F
:1029100090ED010ADFED290A30EE600A80ED010A30
:1029200011E01C4890ED010ADFED250AB4EEE00A43
:10293000F1EE10FA07D290ED010ADFED200A30EE39
:10294000200A80ED010A134890ED000AD0ED010A3B
:10295000BDEC0E8B10BD0000008022C3C80000201B
:102960009AF51145CC0000200080224352B8EC4279
:10297000295C8FC2F5283540BC00002000001643BA
:10298000C0000020B6F39D3FC400002083C0C240B9
:1029900052F26A3CB4000020D0000020D400002095
:1029A000000000000080664000000060FB2109403C
:1029B000D80000200000B442000034430000B443BB
:1029C000000034C300BFFEE700BFFEE770B5002182
:1029D00000230F22C4781CB3174C246804F4E0646D
:1029E000C4F5E064C4F30721C1F10404E3B20A4171
:1029F00044789C40E1B28478144021430C07210EB6
:102A00000E4C05786155047804F01F050124AC4094
:102A100005786D11AD0005F1E025C5F8004109E02C
:102A2000047804F01F050124AC40054D06787611AA
:102A300045F8264070BD00000CED00E000E400E029
:102A400080E100E002490143024A11607047000042
:102A50000000FA050CED00E070B52DED108BF0EEE6
:102A600040AAB0EE608AB0EE41DAB0EE619A04F0AE
:102A700069FCFE4880ED000A04F0E0FCFC4880EDB3
:102A8000000A04F08DFBFB4880ED000AF74890ED4A
:102A9000000A30EE4D0A20EE000AF548D0ED000A9B
:102AA00070EEC90A90ED001A31EE491A00EE810A63
:102AB00010EE101A084605F0DDFD41EC1C0BB0EEDF
:102AC0004C0AF0EE6C0A03F00FFBB0EE40BAF0EEE9
:102AD00060BA51EC1B0B04F0FBFFE74908600846A5
:102AE00090ED000A30EE480AE44880ED000ADF4825
:102AF00090ED000A30EE4D0AE14880ED000ADC4816
:102B000090ED000A30EE490ADE4880ED000A90EDB3
:102B1000000ADB48D0ED000A80EE201ADA4880ED8A
:102B2000001A90ED000AFFEE000A80EE801A11EE06
:102B3000105A284605F09EFD41EC1E0BB0EE4E0AE1
:102B4000F0EE6E0A02F000F8B0EE40CAF0EE60CA95
:102B50009FEDCE0B53EC102B51EC1C0B05F094FAAF
:102B600041EC1F0B9FEDCB0B53EC102B05F09EF8A7
:102B700041EC1B0B04F0ACFFC8490860C148006879
:102B800005F078FD41EC1C0BB0EE4C0AF0EE6C0A3F
:102B900002F04AFBB0EE40BAF0EE60BA9FEDC00B17
:102BA00053EC102B51EC1B0B05F032FA1AD2B4483F
:102BB00090ED000AB5EEC00AF1EE10FA05DD9FEDCA
:102BC000BA0ABA4880ED000A0CE0AD4890ED000A60
:102BD000B5EEC00AF1EE10FA04D29FEDB50AB34883
:102BE00080ED000AA648006805F044FD41EC1C0B8E
:102BF000B0EE4C0AF0EE6C0A02F016FBB0EE40BAF2
:102C0000F0EE60BA9FEDA60B53EC102B51EC1B0BB2
:102C100005F0FEF91AD29B4890ED000AB5EEC00A05
:102C2000F1EE10FA05DD9FEDA30AA04880ED000A41
:102C30000CE0944890ED000AB5EEC00AF1EE10FAEF
:102C400004D29FED9D0A994880ED000A8C4890EDD2
:102C5000000AB5EEC00AF1EE10FA27DD894890EDC2
:102C6000000AB5EEC00AF1EE10FA0ADD8B4890EDCD
:102C7000000ADFED900A30EE200A8C4880ED000A51
:102C800043E0804890ED000AB5EEC00AF1EE10FA7C
:102C90003BD2824890ED000ADFED860A30EEC00A92
:102CA000B1EE400A814880ED000A2EE0744890EDB4
:102CB000000AB5EEC00AF1EE10FA26D2714890ED86
:102CC000000AB5EEC00AF1EE10FA0ADD734890ED85
:102CD000000ADFED780A30EE200A744880ED000A21
:102CE00013E0684890ED000AB5EEC00AF1EE10FA64
:102CF0000BD26A4890ED000ADFED6E0A30EEC00A92
:102D0000B1EE400A694880ED000A5A48D0ED000A49
:102D1000664890ED000A03F029FF684880ED000A3C
:102D20009FED670A78EE000A80EE880A20EE2A0AF4
:102D3000FDEEC09A9FED620A78EE400A80EE880AA6
:102D400020EE2A0ABDEEC0AAB8EEE90A9FED5D1A90
:102D5000C0EE010A9FED5C0A20EE800AFDEEC08AFB
:102D6000B8EECA0A9FED571AC0EE010A9FED560A47
:102D700020EE800ABDEEC00A10EE104A3F4890EDEA
:102D8000000A04F013FE4D48D0ED000A30EE200A90
:102D9000B0EE40BAFEF750FCF8EEE80A30EE200A3A
:102DA000BDEEC00A10EE105A2A460121474801F034
:102DB000ABFD324890ED000A04F0F8FD3F48D0ED3D
:102DC000000A30EE200AB0EE40BAFEF735FC604251
:102DD00000EE900AF8EEE00A30EE200ABDEEC00ADE
:102DE00010EE105A2A460221384801F08DFD234882
:102DF00090ED000A04F0DAFD3048D0ED000A30EE24
:102E0000200AB0EE40BAFEF717FCF8EEE80A30EE02
:102E1000200A2F4880ED000A184890ED000A04F0BF
:102E2000C5FD2648D0ED000A30EE200AB0EE40BACB
:102E3000FEF702FC604200EE900AF8EEE00A30EE87
:102E4000200A244880ED000A084890ED000ABDEEF3
:102E5000C00A10EE102A20A1204801F06BFC0448A3
:102E600090ED000ABDEEC00A3AE000005C010020CF
:102E70006001002064010020700100207801002022
:102E80008001002084010020740100200000000067
:102E90000080664000000060FB2109407C010020AA
:102EA000000000000000F03F00000000680100206A
:102EB000000034430000B4420000B4C26C010020A2
:102EC000000059436766BC4300008045006800402D
:102ED000880100208C01002025640900005000407A
:102EE00010EE102AAFF21001384801F023FC3848E8
:102EF00090ED000ABDEEC00A10EE102AAFF22801D4
:102F0000324801F017FC334890ED000ABDEEC00ACC
:102F100010EE102AAFF240012C4801F00BFC2E48B5
:102F200090ED000ABDEEC00A10EE102AAFF2580173
:102F3000264801F0FFFB294890ED000ABDEEC00ACB
:102F400010EE102AAFF27001204801F0F3FB244884
:102F500090ED000ABDEEC00A10EE102AAFF2880113
:102F60001A4801F0E7FB1F4890ED000ABDEEC00AC9
:102F700010EE102AAFF2A001144801F0DBFB1A4852
:102F800090ED000ABDEEC00A10EE102AAFF2B801B3
:102F90000E4801F0CFFB154890ED000ABDEEC00AC7
:102FA00010EE102AAFF2D001084801F0C3FB104820
:102FB00090ED000ABDEEC00A10EE102A0DA10348E4
:102FC00001F0B8FBBDEC108B70BD0000005000405C
:102FD00080010020840100207C0100206401002089
:102FE0006C01002078010020680100208801002089
:102FF0008C01002025640D0A0000000010B52DEDA5
:103000000C8BB0EE408AF0EE608AFE4890ED0F0A1D
:10301000FD4880ED000AFB4890ED100AFB4880ED6A
:10302000000AF84890ED0E0AF94880ED000AF748CA
:1030300090ED000A30EE680A10EE101A084605F00E
:1030400019FB41EC1D0B9FEDF31BB0EE4D0AF0EEAA
:103050006D0A02F0F5F8B0EE40BAF0EE60BAEA4858
:1030600090ED000A30EE480A10EE101A084605F0FE
:1030700001FB41EC1D0B9FEDE71BB0EE4D0AF0EE9E
:103080006D0A02F0DDF8B0EE40CAF0EE60CA53EC13
:103090001B2B51EC1C0B04F04DFD41EC1A0BB0EE58
:1030A0004A0AF0EE6A0A03F01FF8B0EE409AF0EE1A
:1030B000609A51EC190B04F00BFDD8490860D24816
:1030C00090ED000A30EE480AD54880ED000ACF485E
:1030D00090ED000A30EE680AD24880ED000A90EDCB
:1030E000000ACF48D0ED000A80EE201ACE4880EDCD
:1030F000001A006805F0BEFA41EC1C0BB0EE4C0A59
:10310000F0EE6C0A01F020FDB0EE40BAF0EE60BACD
:103110009FEDC60B53EC102B51EC1B0B04F0B4FFCE
:1031200041EC1A0B9FEDC30B53EC102B04F0BEFDCA
:1031300041EC190B04F0CCFCC0490860B84890ED94
:10314000000ADFEDBF0A20EE200AFFEE000AB4EE0F
:10315000E00AF1EE10FA27DB90ED000ADFEDB80A85
:1031600020EE200AF7EE000AB4EEE00AF1EE10FAC3
:103170001AD8AC4890ED000AB5EEC00AF1EE10FA8C
:1031800005DD9FEDB00AB04880ED000A0CE0A548CF
:1031900090ED000AB5EEC00AF1EE10FA04D29FEDF0
:1031A000AB0AA94880ED000A9D4890ED000AB5EEF3
:1031B000C00AF1EE10FA25DD9A4890ED000AB5EE4E
:1031C000C00AF1EE10FA0ADD9C4890ED000ADFED2E
:1031D000A00A30EE200A9C4880ED000A41E09148A8
:1031E00090ED000AB5EEC00AF1EE10FA39D293481C
:1031F00090ED000ADFED960A30EE200A924880ED4D
:10320000000A2EE0864890ED000AB5EEC00AF1EE05
:1032100010FA26D2834890ED000AB5EEC00AF1EE0E
:1032200010FA0ADD854890ED000ADFED890A30EEDC
:10323000600A854880ED000A13E07A4890ED000AA4
:10324000B5EEC00AF1EE10FA0BD27C4890ED000A00
:10325000DFED7F0A30EEC00AB1EE400A7A4880ED19
:10326000000A6B48D0ED000A774890ED000A03F0A1
:103270007DFC784880ED000A6848006805F0FAF99E
:1032800041EC1A0BB0EE4A0AF0EE6A0A01F0CCFFEC
:10329000B0EE409AF0EE609A9FED6F0B53EC102B5E
:1032A00051EC190B04F0EEFF23D26A4890ED000AAE
:1032B000FDF7D0F9DFED6A0A30EE200ABDEEC00A54
:1032C00010EE104A22460121664801F01DFB6148BC
:1032D00090ED000AFDF7BEF9DFED630A30EE200A3B
:1032E000BDEEC00A10EE104A224602215D4801F0F0
:1032F0000BFB4A48006805F0BDF941EC1A0BB0EE33
:103300004A0AF0EE6A0A01F08FFFB0EE409AF0EE42
:10331000609A9FED560B53EC102B51EC190B04F0F7
:10332000B1FF3CD23D48006805F0A4F941EC1A0B0E
:10333000B0EE4A0AF0EE6A0A01F076FFB0EE409A6B
:10334000F0EE609A9FED440B53EC102B51EC190BEF
:1033500004F05EFE23D23F4890ED000AFDF77AF9B3
:10336000DFED440A30EE200ABDEEC00A10EE104A2E
:10337000224601213B4801F0C7FA364890ED000A89
:10338000FDF768F9DFED3C0A30EE200ABDEEC00A19
:1033900010EE104A22460221324801F0B5FA1F48C9
:1033A000006805F067F941EC1A0BB0EE4A0AF0EE3E
:1033B0006A0A01F039FFB0EE409AF0EE609A9FED94
:1033C0002B0B53EC102B51EC190B04F021FE7FD288
:1033D0001248006805F04EF941EC1A0BB0EE4A0AAB
:1033E000F0EE6A0A01F020FFB0EE409AF0EE609A2B
:1033F0009FED220B53EC102B51EC190B04F042FF04
:1034000066D23FE02C03002044000020480000204A
:103410004C00002000000000000000405C00002084
:103420006400002068000020580000200000000018
:103430000080664000000060FB2109406000002021
:1034400000007A44000034C3500000200000000057
:103450000000B442540000200000000000406F4013
:103460000080BB45006800400080BBC50000000034
:103470000000694000007A4500007AC500000000A5
:1034800000C062403D4890ED000AFDF7E3F8DFED33
:103490003C0A30EE200ABDEEC00A10EE104A224669
:1034A0000121384801F030FA344890ED000AFDF768
:1034B000D1F8DFED350A30EE200ABDEEC00A10EE7D
:1034C000104A224602212F4800E001E001F01CFAD8
:1034D0002E48006805F0CEF841EC1A0BB0EE4A0A0F
:1034E000F0EE6A0A01F0A0FEB0EE409AF0EE609AAB
:1034F0009FED270B53EC102B51EC190B04F0C2FE7F
:103500003AD22248006805F0B5F841EC1A0BB0EE4B
:103510004A0AF0EE6A0A01F087FEB0EE409AF0EE39
:10352000609A1FED2A0B53EC102B51EC190B04F091
:103530006FFD21D2114890ED000AFDF78BF8BDEE2A
:10354000C00A10EE104A224601210E4801F0DCF9B3
:103550000A4890ED000AFDF77DF8B1EE400ABDEE95
:10356000C00A10EE104A22460221064801F0CCF9AA
:103570000120BDEC0C8B10BD0020FAE754000020A8
:103580000000FA44006800400000FAC45C0000201B
:1035900000000000000049402DE9F04389B0814659
:1035A0000D46174698460024304B0FCB05AE0FC68C
:1035B00005F540700090019000208DF808008DF80E
:1035C000090008208DF80A001FB944F25010059038
:1035D00002E045F250200590CDF8188000243FE02D
:1035E00005A810F834008DF80B0005A830F8340059
:1035F000010A8DF80C1005A850F83400010C8DF864
:103600000D1005A850F83400000E8DF80E0005A826
:1036100000EBC40001798DF80F1005A800EBC40081
:103620008088010A8DF8101005A800EBC4004068DE
:10363000010C8DF8111005A800EBC4004068000EC5
:103640008DF8120069464846FDF798FD064600BF12
:1036500031464846FDF726FE0128F9D1601CC4B268
:10366000022CBDDB09B0BDE8F08300003C890008F6
:1036700010B588B004460121082000F06BF8012144
:10368000880400F077F8072208212548FEF75EFF3E
:10369000072209212248FEF759FF4FF44070069097
:1036A00002208DF81C008DF81D0000208DF81E00F2
:1036B00001208DF81F0006A91948FEF7FFFE4FF400
:1036C000E13002900020ADF80C00ADF80E00ADF82E
:1036D0001000ADF814000C20ADF8120002A911483A
:1036E00000F0BEFF01210F4800F0F8FE40210D4818
:1036F00000F0DCFE012240F225510A4800F08BFF69
:1037000027208DF8040000208DF8050001208DF899
:1037100006008DF8070001A8FFF758F908B010BDA2
:10372000000C02400048004010B54FF47A630022BC
:1037300006210248FFF730FF10BD00000064004082
:1037400010B50523002206210148FFF725FF10BD13
:103750000064004029B1064A12680243044B1A6013
:1037600004E0034A12688243014B1A60704700006C
:103770003038024029B1064A12680243044B1A60ED
:1037800004E0034A12688243014B1A60704700004C
:103790004038024029B1064A12680243044B1A60BD
:1037A00004E0034A12688243014B1A60704700002C
:1037B0002038024029B1064A12680243044B1A60BD
:1037C00004E0034A12688243014B1A60704700000C
:1037D0004438024029B1064A12680243044B1A6079
:1037E00004E0034A12688243014B1A6070470000EC
:1037F00024380240F0B500210022002402250026D2
:103800000223324F3F6807F00C0121B1042905D093
:10381000082937D105E02E4F076036E02D4F0760AD
:1038200033E02A4F3F1F3F68C7F38056274F3F1FA3
:103830003F6807F03F036EB1264FB7FBF3F7DFF8A1
:103840008CC0ACF1040CDCF800C0CCF3881C07FB86
:103850000CF40CE01E4FB7FBF3F7DFF870C0ACF1CF
:10386000040CDCF800C0CCF3881C07FB0CF4174FE9
:103870003F1F3F68C7F301477F1C7D00B4FBF5F78E
:10388000076002E0124F076000BF00BF0F4F3F68A4
:1038900007F0F0010909104F7A5C0768D7404760CC
:1038A0000A4F3F6807F4E051890A0B4F7A5C47687A
:1038B000D7408760054F3F6807F46041490B064FCA
:1038C0007A5C4768D740C760F0BD00000838024006
:1038D0000024F40000127A001C03002070B588B0A8
:1038E00005460C461E4903C9CDE9060104F54070A2
:1038F0000190029000208DF80C008DF80D0008203A
:103900008DF80E000698C0B28DF80F000698010AD7
:103910008DF810100698010C8DF811100698000E05
:103920008DF812000798C1B28DF813100798010A9C
:103930008DF814100798010C8DF815100798000EDB
:103940008DF8160001A92846FDF718FC064600BFB1
:1039500031462846FDF7A6FC0128F9D108B070BD14
:1039600064890008704700000CB5002001900090A9
:103970003448006840F480303249086000BF314864
:10398000006800F4003000900198401C01900098FD
:1039900018B90198B0F5A06FF1D12A48006800F479
:1039A000003010B10120009001E00020009000984C
:1039B000012846D123484030006840F0805021491A
:1039C000403108602048006840F480401E4908608B
:1039D0001C48083000681B49083108600846006828
:1039E00040F4004008600846006840F4A0500860B9
:1039F0001648091F0860081F006840F08070091F02
:103A0000086000BF0F48006800F000700028F9D07F
:103A100040F205600E4908600A480830006820F04E
:103A200003000849083108600846006840F00200B9
:103A3000086000BF03480830006800F00C00082848
:103A4000F8D10CBD00380240007000400854400717
:103A5000003C024000B52DED028B81B0B0EE408AF3
:103A6000B0EE480A03F090FF009041210F4800F0AB
:103A7000E9FE9DF800100D4800F0E4FE9DF80110ED
:103A80000A4800F0DFFE9DF80210084800F0DAFE58
:103A90009DF80310054800F0D5FE4A21034800F0C8
:103AA000D1FE01B0BDEC028B00BD00000010014052
:103AB00010B588B0044601210846FFF74BFE0121EE
:103AC0001020FFF777FE072209212548FEF73EFD6B
:103AD00007220A212248FEF739FD4FF4C060069004
:103AE00002208DF81C008DF81D0000208DF81E00AE
:103AF00001208DF81F0006A91948FEF7DFFC02948B
:103B00000020ADF80C00ADF80E00ADF81000ADF8D7
:103B100014000C20ADF8120002A9124800F0A0FD1C
:103B20004021104800F0C2FC25208DF80400002040
:103B30008DF8050002208DF8060001208DF80700A1
:103B400001A8FEF743FF012240F22551054800F08D
:103B500062FD0121034800F0C1FC08B010BD000067
:103B6000000002400010014010B51548006840F404
:103B70007000134908601348006840F001001149C3
:103B8000086000200F49083108600E4800680E499F
:103B900008400C4908600D48091D0860081F0068AE
:103BA00020F48020091F0860002006490C310860BD
:103BB000FFF7DAFE4FF0006001498039086010BD60
:103BC00088ED00E000380240FFFFF6FE10300024D0
:103BD00010B50121044800F0B2F8012803D10121F9
:103BE000014800F09DF810BD0000014010B5012112
:103BF000880700F0A4F801281AD10121800700F0FD
:103C00008FF80C480088401C0A4908800846008844
:103C100000EE100AB8EE400ADFED070AB4EEE00A43
:103C2000F1EE10FA04DB002008800120034908703F
:103C300010BD0000D80200200000C842DA020020B7
:103C400010B501211C4800F07AF8012833D1012178
:103C5000194800F065F819480068401C17490860C9
:103C600017480068401C16490860084600684FF66F
:103C7000FF7190FBF1F201FB1200114908600F493E
:103C8000086800EBD0714910A0EB410199B103F035
:103C900059FB0C4880ED000A03F0D0FB0A4880ED88
:103CA000000A084890ED000A03F062FE064890ED15
:103CB000000A03F063FE10BD00040040E80200208B
:103CC000DC020020E0020020E402002010B5012107
:103CD000044800F034F8012803D10121014800F024
:103CE0001FF810BD0008004010B50121044800F085
:103CF00026F8012803D10121014800F011F810BD78
:103D0000000C004010B50121044800F018F801280B
:103D100003D10121014800F003F810BD0004014067
:103D2000CA430282704721B1028842F00102028038
:103D300004E002884FF6FE731A400280704730B5E7
:103D40000246002000230024158A05EA0103958914
:103D500005EA010413B10CB1012000E0002030BDE0
:103D60001AB183890B43838102E083898B4383816A
:103D7000704700002DE9FF4104460D4616461F46D8
:103D8000DDF828806949601A8C4270D01ADC6849D5
:103D9000A4EB01008C426CD00ADCB4F1804F4ED011
:103DA00064482044002852D0B0F5806F71D156E0AD
:103DB000B0F5806F65D0B0F5006F6CD0B0F5406F96
:103DC000F4D170E0B0F5923F21D009DCB0F5806FFE
:103DD0007AD0B0F5644F0AD0B0F5684F7CD10EE0D0
:103DE000B0F5943F1BD0B0F5963F75D11FE001218F
:103DF0000846FFF7DFFC19208DF800006DE0012177
:103E00000220FFF7D7FC2C208DF8000065E001218F
:103E10000804FFF7CFFC18208DF800005DE00121B9
:103E20001920FFF7C7FC2C208DF8000055E0012178
:103E30008804FFF7BFFC1A208DF800004DE0012137
:103E40000846FFF797FC1C208DF8000045E0012193
:103E50000220FFF78FFC1D208DF800003DE00121BE
:103E60000420FFF787FC1E208DF8000035E023E0DA
:103E7000FFE701210820FFF77DFC32208DF80000CC
:103E80002BE001211020FFF775FC36208DF8000093
:103E900023E021E0FFE701212020FFF76BFC372022
:103EA0008DF8000019E001214020FFF763FC2B2072
:103EB0008DF8000011E007E001218020FFF75AFC97
:103EC0002C208DF8000008E001210802FFF752FCC9
:103ED0002D208DF8000000E000BF00BF0295ADF876
:103EE00004600020ADF80C00ADF8060001A92046E2
:103EF00000F022F801212046FFF712FF01221146AF
:103F00002046FFF72DFFF8B28DF8010008F0FF0002
:103F10008DF8020001208DF803006846FEF756FD7B
:103F200001212046FFF7FFFEBDE8FF81001C004095
:103F3000000C004000FCFFBF00220288184B984292
:103F40000ED0184B98420BD0B0F1804F08D0164BD2
:103F5000984205D0154B984202D0154B984204D197
:103F60004FF68F731A404B881A43124B984207D072
:103F7000114B984204D04FF6FF431A400B891A4365
:103F800002804B68C3620B880385054B984202D0C0
:103F9000044B984201D18B7A0386012383827047B8
:103FA00000000140000401400004004000080040FF
:103FB000000C0040001000400014004010B588B014
:103FC000044601940020ADF80800ADF80A00ADF8F1
:103FD0000C00ADF810000C20ADF80E000121FFF729
:103FE000B9FB01210805FFF7C5FB244800F082FA60
:103FF00008220C212248FEF7A9FA082202212148B2
:10400000FEF7A4FA00208DF81A0001208DF81B009D
:1040100002208DF81800C002059002208DF81900CA
:1040200005A91748FEF74AFA02208DF81800042067
:10403000059005A91348FEF741FA01A90F4800F0C1
:104040000FFB35208DF81C0001208DF81F008DF826
:104050001D008DF81E004FF4A060FEF7F3FC07A8CA
:10406000FEF7B4FC012240F22551044800F0D3FAD7
:104070000121024800F032FA08B010BD00500040A3
:1040800000080240000C02401CB501210846FFF761
:1040900061FB0120009000208DF8040003208DF8C2
:1040A000050001208DF8070069460B48FEF706FA67
:1040B00001210420FFF74EFB0120009000208DF825
:1040C000040003208DF8050001208DF807006946E3
:1040D0000248FEF7F3F91CBD000002400008024050
:1040E00010B50821084800F05FFA58B940F2255190
:1040F000054800F066FA012804D140F22551024833
:1041000000F0DDF910BD00000050004038B500247B
:104110000821284800F048FA002834D0254800F04B
:104120008CFBC4B2562C06D10020234908602349D9
:104130000098086007E0522C05D100201E49086055
:1041400001201F4908601C48006810B1012818D1DF
:1041500005E0412C02D101201749086012E01949FD
:1041600009680DF8014017480068401C15490860AF
:1041700008460068042803DD002008600E49086036
:1041800000E000BF0FE040F225510A4800F019FAA4
:10419000012808D140F22551064800F090F9054861
:1041A00000F04BFBC4B208A10948009A00F0C2FA23
:1041B00038BD000000100140BC0200209402002025
:1041C00090020020C002002025640D0A00000000BB
:1041D0000050004010B540F225512E4800F0F1F992
:1041E000012855D140F225512A4800F068F92948A4
:1041F00000F023FB2849087008460078D5280FD125
:10420000002026490860264908602648006826499B
:1042100008600846006803F099FB00202149086007
:104220001E48006820B101280CD002282ED117E0CA
:1042300019480078D62804D118480068401C17494E
:10424000086024E01448007841B21848144A126803
:1042500000F8121011480068401C1049086016E070
:104260000D48017811480E4A126800EB4200417077
:1042700001200A4908600A480068401C0849086093
:1042800008480068401C0749086000E000BF00BF04
:1042900010BD0000004400409C020020CC02002021
:1042A000D002002098020020C80200205003002005
:1042B00010B540F22551744800F083F901287CD1F3
:1042C00040F22551704800F0FAF86F4800F0B5FA56
:1042D0006E4908706E48007805286FD2DFE800F05C
:1042E0000311263D4B00694800780D2805D1684828
:1042F0000078401C6649087002E00020644908709C
:1043000087E0624800780A2808D1002061490870D7
:104310005F480078401C5E49087006E05B48007802
:104320000D2802D000205A49087072E057480078E2
:104330005949584A1278885456480078401C5549C3
:10434000087008460078182806DB002008705048DE
:104350000078401C4E4908705BE04C4800780A2801
:1043600005D14B480078401C4949087002E0002004
:10437000474908704DE0454800780D2832D146483D
:1043800090ED000AB1EE400A444880ED000A424830
:1043900090ED010A80ED010A90ED020A80ED020A1B
:1043A00090ED030A3E4880ED000A3B4890ED040A78
:1043B0003C4880ED000A384801E02BE025E090ED14
:1043C000050A80ED050A364890ED000A03F0C4FAAC
:1043D000344890ED000A03F0C5FA304890ED000A29
:1043E00003F050F900202A49087002F0ABFF2E4874
:1043F00080ED0F0A03F022F82B4880ED100A02F03E
:10440000CFFE294880ED0E0A03E000202049087005
:1044100000BF37E028211C4800F051F840F2277116
:10442000194800F04CF840F22661174800F047F8B0
:1044300040F22531144800F042F840F2244112487D
:1044400000F03DF840F646010F4800F038F840F61D
:104450006A110D4800F033F860210B4800F02FF886
:104460004FF45871084800F02AF84FF418710648C4
:1044700000F025F84FF4B071034800F020F802482E
:1044800000F0DBF910BD000000480040C40200202D
:10449000C5020020C60200209803002084020020EC
:1044A000880200208C0200202C03002001F40072FE
:1044B000B2F5007F00D100BFCA430280704710B53B
:1044C0000022002340F66A14A14200D100BF0A1264
:1044D00001249440A3B2DC43048010BD21B1828941
:1044E00042F40052828104E082894DF6FF731A4043
:1044F0008281704710B504462548844208D10121C5
:104500001020FFF767F900211020FFF763F93EE064
:104510002048844209D101214804FFF73BF90021DA
:104520004FF40030FFF736F931E01B48844209D1DF
:1045300001218804FFF72EF900214FF48020FFF7B6
:1045400029F924E01548844209D10121C804FFF764
:1045500021F900214FF40020FFF71CF917E0104863
:10456000844209D101210805FFF714F900214FF415
:104570008010FFF70FF90AE00A48844207D10121B1
:104580002020FFF727F900212020FFF723F910BD95
:10459000001001400044004000480040004C004032
:1045A000005000400014014002460020B1F5007F99
:1045B00000D100BF13880B400BB1012000E00020A8
:1045C000704770B50246002400230025002040F605
:1045D0006A16B14200D100BFC1F3421501F01F03BA
:1045E000012606FA03F3012D02D19689334006E035
:1045F000022D02D1168A334001E0968A33400C1214
:10460000012606FA04F41688344013B10CB10120D7
:1046100000E0002070BDF0B5034600240026002510
:10462000002040F66A17B94200D100BF1846C1F316
:10463000421401F01F06012707FA06F5012C01D1EB
:104640000C3004E0022C01D1103000E014301AB11B
:1046500007682F43076002E00768AF430760F0BDBB
:104660002DE9FF4705460E460024A14600BFA0469F
:10467000B08900B100BF2C8A24F44054F088044370
:104680002C82AC8941F20C608443B08831890843A4
:10469000718908430443AC81AC8A24F44074B08926
:1046A0000443AC826846FFF7A5F82048854202D053
:1046B0001F48854202D1DDF80C9001E0DDF808903A
:1046C000A88900F4004040B109EBC90000EB0910D3
:1046D00031684900B0FBF1F707E009EBC90000EBD6
:1046E000091031688900B0FBF1F76420B7FBF0F0E6
:1046F00004012009642101FB1078A88900F400401E
:1047000040B1322000EBC800B0FBF1F000F0070030
:10471000044308E0322000EB08106421B0FBF1F004
:1047200000F00F0004432C81BDE8FF87001001401A
:10473000001401400FB470B586B006460CA8019075
:1047400073E00B9800785C281CD10B98401C0B90F0
:1047500000786E2809D072280FD10D21304600F064
:1047600071F80B98401C0B900BE00A21304600F0CA
:1047700069F80B98401C0B9003E00B98401C0B90C1
:1047800000BF4BE00B980078252840D10B98401CC7
:104790000B900078642818D0732833D1019810C882
:1047A00001900BE02178304600F04CF800BF40212A
:1047B0003046FFF7F9FE0028F9D0641C2078002865
:1047C000F0D10B98401C0B9020E0019820C801907C
:1047D0000A2202A9284602F0B9FE02AC0BE02178B9
:1047E000304600F02FF800BF40213046FFF7DCFED6
:1047F0000028F9D0641C20780028F0D10B98401CC8
:104800000B9003E00B98401C0B9000BF06E00B9848
:1048100010F8011B0B90304600F014F800BF402147
:104820003046FFF7C1FE0028F9D00B980078002829
:1048300087D106B070BC5DF814FB01468888C0F3D0
:104840000800704730B504460D4600BF8021204661
:10485000FFF7AAFE0028F9D080212046FFF726FEA8
:1048600040212046FFF722FEC5F30800A08030BD9E
:1048700000BFFEE7014601290EDA1D4890ED000A4F
:10488000DFED1C0A80EE201A9FED1B0A21EE000AC4
:104890001A4880ED110A22E0012910DB03290EDA03
:1048A000174890ED000A9FED131AC0EE010A9FED24
:1048B000120A20EE800A114880ED110A0FE0032948
:1048C0000DDB104890ED000A9FED0A1AC0EE010AB8
:1048D0009FED090A20EE800A084880ED110A07487A
:1048E00090ED110ABDEEC00A10EE100A70470000EC
:1048F0003C0000206766BC43000080452C0300207C
:1049000038000020340000202DE9F0418AB08046B4
:104910000D46174600242C4B0FCB06AE0FC605F5EF
:1049200040700190029000208DF80C008DF80D0071
:1049300008208DF80E00079700BF3FE006A810F88A
:1049400034008DF80F0006A830F83400010A8DF805
:10495000101006A850F83400010C8DF8111006A8AC
:1049600050F83400000E8DF8120006A800EBC400C9
:1049700001798DF8131006A800EBC4008088010AA5
:104980008DF8141006A800EBC4004068010C8DF8E7
:10499000151006A800EBC4004068000E8DF8160044
:1049A00001A94046FCF7EAFB064600BF31464046F7
:1049B000FCF778FC0128F9D1601CC4B2022CBDDBE5
:1049C0000AB0BDE8F0810000AC8800082DE9F04392
:1049D00093B080460D4616461F46002438222E49C5
:1049E00005A8FBF751FC05F54070009001900020F0
:1049F0008DF808008DF8090008208DF80A000C9643
:104A00000E97264910914942129100BF3FE005A838
:104A100010F834008DF80B0005A830F83400010AB6
:104A20008DF80C1005A850F83400010C8DF80D100D
:104A300005A850F83400000E8DF80E0005A800EB14
:104A4000C40001798DF80F1005A800EBC400808820
:104A5000010A8DF8101005A800EBC4004068010C95
:104A60008DF8111005A800EBC4004068000E8DF809
:104A7000120069464046FCF781FB814600BF49466B
:104A80004046FCF70FFC0128F9D1601CC4B2072C8A
:104A9000BDDB13B0BDE8F08374880008C0E1E4001A
:104AA00010B52DED028BB0EE408AB0EE480A00F052
:104AB0000FF8BDEEC00A10EE104A2346002207216F
:104AC0000248FEF769FDBDEC028B10BD006400409A
:104AD000F0EE400AB1EE000A20EE800A9FED021AC5
:104AE00020EE010A70470000610B364103B40198C3
:104AF0004100009850EAC12018BF04204A0D18BF99
:104B000040F0010040F2FF72B2EB515F08BF40F08D
:104B10000200012808BF052002B0704741000802CA
:104B200018BF04200A0E18BF40F001004FF07F426A
:104B300032EA010108BF40F00200012808BF052049
:104B4000704700000000000070B59B482DED020B7F
:104B50002DED068B079D25F00044A04218DC9748F8
:104B6000844202DC0AD1069840B19DED060BBDECF3
:104B7000068B02B0BDE8704001F0F6BE002DCCBF40
:104B80009FED8F0B9FED900BBDEC068B02B070BDBF
:104B90008F48A04215DD8F48A042D8BF4FF0FF34A8
:104BA00058DD9DED060B51EC100BFFF79FFF04281D
:104BB00008BF01F00DFF9DED060BBDEC068B02B0AA
:104BC00070BD9DED060B51EC100B02F0A9F8CDE97C
:104BD000060181489FED828BA0423CDD8248A042C5
:104BE0001FDD00249FED82AB9DED060B53EC1A2BCD
:104BF00051EC100B02F09EFF9DED060B41EC190BE2
:104C000053EC1A2B51EC100B03F03EFA53EC182B1B
:104C100003F046FC53EC192B03F048F8CDE90601EC
:104C200049E09DED060B012453EC182B51EC100BC1
:104C300002F080FF9DED060B41EC190B53EC182B95
:104C400051EC100B03F02CFC53EC192B03F02EF855
:104C5000CDE906012FE06848A0421FDD02249FED48
:104C6000689B9DED060B53EC192B51EC100B03F0D8
:104C70000BFA53EC182B02F05DFF9DED060B41EC97
:104C8000180B53EC192B51EC100B03F009FC53ECEF
:104C9000182B03F00BF8CDE906010CE09DED060B97
:104CA000032453EC102B9FED580B51EC100B02F02A
:104CB000FDFFCDE906019DED060B53EC102B51ECE9
:104CC000100B03F0E1F941EC180B53EC182B03F037
:104CD000DBF941EC190B4E480621B0EE490AF0EE23
:104CE000690A784401F014FD53EC182B51EC100BB9
:104CF00003F0CAF941EC180B4648B0EE490AF0EE51
:104D0000690A0521784401F003FD53EC192B51EC9D
:104D1000100B03F0B9F941EC100B51EC180B53ECEC
:104D2000102B002C0EDA02F005FF9DED061B53EC54
:104D3000112B03F0A9F99DED061B53EC112B03F089
:104D4000D7FA35E002F0F6FE9DED061B53EC112B71
:104D500003F09AF941EC100B2F48784400EBC400A3
:104D600090ED001B51EC100B53EC112B03F098FB52
:104D70009DED061B53EC112B03F092FB41EC100B45
:104D80002648784400EBC40090ED001B51EC100B5A
:104D900053EC112B03F0ACFA41EC100B002DA2BF29
:104DA000BDEC068B02B070BD51EC100B02F084FE1E
:104DB00041EC100B01E70000000010440000F07F00
:104DC000182D4454FB21F93F182D4454FB21F9BF01
:104DD0000000DC3F0000203E0000F33F0000000028
:104DE000000000000000F03F0000E63F000000006F
:104DF00000000000000000400080034000000000B0
:104E0000000000000000F83F000000000000F0BFBC
:104E1000F23C0000A83C0000323C0000EA3B0000ED
:104E200070B56B4E2DED040B2DED028B82B0DDF8CD
:104E30001CC0DDE905235C422CF000411C4341EA23
:104E4000D474049D22F00040B44205D86C422C4337
:104E500040EAD474B4420BD99DED061B9DED040BC2
:104E600002B0BDEC028B04B0BDE8704001F086BD1D
:104E7000ACF14054A4F17F641C430BD0022404EA3B
:104E8000AC7444EAD27405439FED538B9FED542BD1
:104E900007D015E09DED040B51EC100B01F09EFEC8
:104EA00042E0002C11BF012C9DED040B02B0BDECC3
:104EB000028B04BF04B070BD022C38D0032C3BD051
:104EC0000B439FED491B9FED4A0B0AD0B14218D10D
:104ED000B04209D121F0804120F080400791059037
:104EE0000FE0002A15DA10E0434B7B44002C08BF8A
:104EF00093ED000B0DD0012C10D0022C17D0032CF9
:104F00001AD0B0421DD1002A03DAB0EE410AF0EE09
:104F1000610A02B0BDEC028B04B070BD93ED000BD2
:104F200051EC100B02F0C8FD41EC100BF1E7B0EEB4
:104F3000480AF0EE680AECE7B0EE420AF0EE620AC8
:104F4000E7E7401A00153C28C8BF8DED000B19DCBF
:104F5000BCF1000FBEBF10F13C0F9FED290B8DED92
:104F6000000B0FDB9DED060B53EC102B9DED040B9E
:104F700051EC100B02F09AFE01F0D2FE01F02EFE71
:104F8000CDE90001002C08BF9DED000BC1D0012C24
:104F900010D0022C9FED1C0B53EC102B9DED000B41
:104FA00051EC100B0DD003F07BFA53EC182B03F0EF
:104FB00077FAB9E7019880F0004001909DED000B71
:104FC000A7E703F06DFA53EC182B03F091F9ABE768
:104FD0000000F07F00000000182D4454FB21094020
:104FE000182D4454FB2109C0182D4454FB21F9BF4E
:104FF000182D4454FB21F93FD23B00000000000073
:105000000000000000000000075C143326A6A13C4D
:1050100010B52F499FED2C1B2DED020B84B0059888
:1050200020F000408842D8BF9DED040B2DDD2949BA
:10503000884209D1049840B94FF00100FBF75EF9AE
:1050400001F0A6FC06B010BD05DB9DED040B01F0E0
:105050008BFC06B010BD68469DED040B01F084F892
:1050600010F0030004BF9DED021B9DED000B0CD062
:1050700001280ED09DED021B9DED000B022817D0DC
:10508000012001F0C1FB06B010BD01F089FA06B0A5
:1050900010BD9DED021B9DED000B012001F0B4FB46
:1050A00051EC100B02F008FD06B041EC100B10BDE6
:1050B00001F076FA51EC100B02F0FEFC06B041EC68
:1050C000100B10BD000000000000000000000000F8
:1050D000FB21E93F0000F07F10EE101A08B5444AAA
:1050E0006846B2EB410F28D94FF0E640B0EB410FD4
:1050F00094BF00204FF0FF3000900098002861DB43
:1051000060EE000A10F0010F45D010F0020FDFED45
:10511000391A9FED391A00EEE11ADFED381A40EE28
:10512000811A21EEA01AF0EE400A40EE010A08BFF3
:10513000F1EE600AB0EE600A08BD314B21F000428A
:1051400093423CD911F0004FDFED2E0A20EE201AD9
:10515000DFED2D0A19BF31EE601A71EE200A31EE33
:10516000201A71EE600ABDEEE01A11EE100A9FEDF2
:10517000271A00F0030000EEC10A9FED251A0090E7
:1051800000EEC10A9FED231A00EEC10A9FED221A1C
:1051900000EEC10AB1E79FED211A9FED210A10F040
:1051A000020F00EE810A9FED1F1A00EE801AB7EE83
:1051B000000A00EE810A18BFB1EE400A08BD01F0F6
:1051C0002BFC9AE710EE100A4000B0F17F4F3CBF75
:1051D000B7EE000A08BD07D14FF00100FBF78EF8CB
:1051E000BDE8084001F008BCBDE8084001F000BC83
:1051F000B61F927E336D4C39DA82083CA0AA2ABED3
:10520000490E494683F9223F0000004B0000C93F88
:1052100000A0FD390020A2331A61342CB93AB2BA89
:10522000CA9F2A3DDDFFFFBE2DED020B019820F045
:10523000004001909DED000B02B07047000000009F
:105240002DE9F04D2DED040B2DED0E8B96B0DDE923
:105250002550279CDDF890A025F0004624F000485A
:10526000BAF1000F14BF0121002101EB4502FC49F6
:1052700053184A1093422AD3002814BF0123002355
:1052800003EB44030B44F7498B4220D358EA000157
:105290009FEDF59B76D0DFF8D8B35D4503D1BAF129
:1052A000000F05D188E0BAF1000F08BF002100D03F
:1052B000012101EB450111F5001F08D8002814BF9A
:1052C0000121002101EB440111F5001F0BD99DEDD7
:1052D000261B9DED240B16B0BDEC0E8B04B0BDE873
:1052E000F04D01F04BBB0027002DBCBFE1498845C4
:1052F00021DAE1498845A8BF02271CDAC3451ADC38
:10530000DE4901EB2851142908DDC1F1340220FAED
:1053100002F101FA02F282420DD108E058B9C1F15E
:10532000140228FA02F101FA02F2424503D101F017
:105330000101C1F1020756EA0A0124D1002C22DA48
:10534000002D18BF022F01D0012F0AD00220FAF73A
:10535000D5FF16B0BDEC0E8B04B0BDE8F04D01F0EA
:10536000EBBA0220FAF7CAFF01F0E6FA51EC100B93
:1053700002F0A2FB41EC100B16B0BDEC0E8B04B09A
:10538000BDE8F08D18E09FEDBEAB9FEDBF8B002810
:1053900071D1B848804522D105F1804010F58010C8
:1053A00008BFBAF1000F07D0B3450ADC002CA8BF34
:1053B0009DED260BE0DA0DE0B0EE490AF0EE690A49
:1053C000DAE7002C06DA9DED260B51EC100B02F00B
:1053D00073FB6FE0AE48784490ED000BCCE7D84506
:1053E0004DD1002C48DA2EB186423AD1BAF1000FE5
:1053F00042D126E0BAF1000F13D00220FAF77EFF67
:1054000001F0D6FA8DED020B9DED240B8DED000B16
:1054100010EE900A039961F31E0003909DED020BBC
:10542000AAE78DED02AB9DED240B1AEE901A10EE5B
:10543000900A8DED000B61F31E0003909DED020BB1
:105440009AE78DED028B9DED240B18EE901A10EE6D
:10545000900A8DED000B61F31E0003909DED020B91
:105460008AE709DA9DED240B51EC190B53EC102B54
:1054700002F01CFC1EE020E09DED240B7CE7864240
:105480001BDAB4F1804F0DD0A4F10050B0F1FF5001
:1054900013D1002D11DB9DED240B51EC100B02F00C
:1054A000B7FA07E09DED240B53EC102B51EC100BD9
:1054B00000F0C2BC41EC100B5EE79DED240B51ECFB
:1054C000100B01F02DFCBAF1000FCDE90E0142D115
:1054D0009FED710B46B3A6F1E040B0F17F600CD0B8
:1054E0005E4538D1002D00DAA7B3022F0CBF012092
:1054F0004FF0FF3002F061FDDCE7002D01DD002CF4
:105500000DDA002D01DD002C1FDB002D16DA002C3A
:1055100014DB012F08BF9FED620B3FF42DAFB0EEFF
:105520004A0AF0EE6A0A27E7022F18BF002D0CD0B6
:10553000012F0AD1002DFFF61FAF06E0002DB8BFE6
:10554000002C08DA012F3FF417AFB0EE480AF0EE56
:10555000680A11E71BE0012000EBE57050EA070143
:1055600015D0791EB0EE498AF0EE698A084308BF6B
:105570009FED4D8B4E480025804570DD4D494E48CE
:10558000884514DDB0420DDB002C19DB2FE0012033
:10559000FAF7B4FE16B0BDEC0E8B04B0BDE8F04DCA
:1055A00001F0F6B9B34502DC002C09DC1FE08642AD
:1055B00002DA002C1BDA03E05E452BDD002C16DD41
:1055C0000220FAF79BFE01F0F3F98DED020B53EC8C
:1055D0001A2B51EC180B02F057FDCDE9000103998D
:1055E000019861F31E0003909DED020BC4E60220BA
:1055F000FAF784FE01F0ECF910EE901A18EE900A1A
:105600008DED020B8DED008B61F31E0003909DED7F
:10561000020BB1E69DED0E0B53EC192B51EC100B68
:1056200002F03EFF9FED260BCDE9080153EC102B55
:105630009DED080B51EC100B02F026FD9FED221B97
:1056400053EC112B02F054FE9DED081B53EC112B73
:1056500002F01AFD9FED1E1B53EC112B3CE08CE079
:10566000FFFF1F00FFFF0F00000000000000F03FE1
:105670000000F03F0000F07F0000404301FCFFFF0E
:10568000000000000000F07F0000000000000000AB
:10569000E63600000000000000000000000000806E
:1056A000000000000000F0FF000000000000F0BF5C
:1056B0000000E0410000F043FFFFEF3F000000006A
:1056C000000000000000D03F555555555555D53FB9
:1056D000000000000000E03F02F00AFE9DED080B14
:1056E00041EC1A0B53EC102B51EC100B02F0CCFCDC
:1056F00053EC1A2B02F0C8FC41EC1A0B9FEDFE0B89
:1057000053EC102B9DED080B51EC100B02F0BCFC80
:1057100041EC1B0B9FEDFA0B51EC1A0B53EC102BC9
:1057200002F0B2FC41EC1A0B9FEDF70B53EC102B7F
:105730009DED080B51EC100B02F0A6FC53EC1A2B5C
:1057400002F0AEFE41EC1A0B51EC1B0B53EC1A2B82
:1057500002F0F0F90690CDE906519DED060B53ECF1
:105760001B2B51EC100B02F09BFE53EC1A2B02F09A
:10577000BFFD41EC100B00F0A1B90020B6F5801F71
:105780000EDA9FEDE30B53EC102B9DED0E0B51EC5D
:10579000100B02F079FCCDE90E016FF034000E46DB
:1057A00000EB2650A0F2FF37C6F31300DA4940F0B1
:1057B0007F6646F040568842D8BF002408DDD749AE
:1057C0008142C8BF012403DC0024A6F580167F1C9B
:1057D000D348784400EBC4000F9690ED00CB9DEDCC
:1057E0000E0B53EC1C2B51EC100B02F059FE9DEDEF
:1057F0000E0B41EC1B0B53EC1C2B51EC100B02F06D
:1058000099F941EC100B51EC190B53EC102B02F0F1
:105810004DFA41EC1D0B51EC1B0B53EC1D2B02F010
:1058200033FC41EC1A0BBF488DED10AB784410955A
:1058300090ED000B4FF0005040EA660000EB844012
:105840008DED080B00F5002009909DED080B53EC41
:105850001C2B51EC100B02F023FE9DED0E1B53ECA4
:10586000112B02F045FD41EC100B53EC102B9DED7C
:10587000100B51EC100B02F007FC9DED080B41ECF6
:105880001C0B53EC102B9DED100B51EC100B02F088
:10589000FBFB53EC1B2B02F02BFD53EC1C2B02F0FB
:1058A000FFFD53EC1D2B02F0EFFB41EC1C0B53EC06
:1058B0001A2B51EC1A0B02F0E7FB41EC1B0B9A4838
:1058C0000621B0EE4B0AF0EE6B0A784400F020FFA0
:1058D000B0EE401AF0EE601AB0EE41DAF0EE61DAA6
:1058E00053EC1B2B51EC1B0B02F0CEFB53EC1D2B8E
:1058F00002F0CAFB9DED100B41EC1B0B53EC1A2B75
:1059000051EC100B02F016F953EC1C2B02F0BCFB0F
:1059100053EC1B2B02F00EF99DED100B41EC1B0B11
:1059200053EC102B51EC100B02F0AEFB41EC1D0BB5
:105930009FED7FEB53EC1E2B02F0FCF853EC1B2B7E
:1059400002F0F8F80890CDE908519DED080B53ECF2
:105950001E2B51EC100B02F0A3FD53EC1D2B02F09B
:105960009FFD53EC1B2B02F0C3FC9DED080B41EC9B
:105970001D0B53EC102B9DED100B51EC100B02F096
:1059800083FB41EC1B0B53EC1A2B51EC1D0B02F06B
:105990007BFB9DED080B41EC1A0B53EC102B51ECEB
:1059A0001C0B02F071FB53EC1A2B02F0C3F841EC14
:1059B0001A0B51EC1B0B53EC1A2B02F0BBF80C909A
:1059C000CDE90C519DED0C0B53EC1B2B51EC100B46
:1059D00002F066FD53EC1A2B02F08AFC41EC1B0B23
:1059E0009FED550B53EC102B9DED0C0B51EC100B58
:1059F00002F04AFB41EC1A0B9FED510B51EC1B0BD3
:105A000053EC102B02F040FB41EC1B0B9FED4E0BB7
:105A100053EC102B9DED0C0B51EC100B02F034FBF2
:105A200053EC1B2B02F086F841EC100B48487844ED
:105A300000EBC40090ED001B51EC100B53EC112B4C
:105A400002F078F841EC1B0B384602F0B6FACDE9CB
:105A5000080153EC1B2B51EC1A0B02F06BF841ECD4
:105A6000100B3C48784400EBC40090ED00CB51ECA7
:105A7000100B53EC1C2B02F05DF89DED081B53EC52
:105A8000112B02F057F80690CDE906519DED080B59
:105A900053EC102B9DED060B51EC100B02F000FDAA
:105AA00053EC1C2B02F0FCFC53EC1A2B02F0F8FC1C
:105AB00053EC1B2B02F01CFC41EC100B9DED261B44
:105AC00053EC102B8DED001B00959DED260B51EC3A
:105AD000100B02F0D9FA9DED000B41EC1A0B53ECC0
