:020000040800F2
:10000000B04A002085020008592C00088129000808
:10001000552C0008DD180008B5420008000000005B
:10002000000000000000000000000000C52F0008D4
:1000300035280008000000009B0200089D0200080F
:100040009F0200089F0200089F0200089F0200080C
:100050009F0200089F0200089F0200089F020008FC
:100060009F0200089F0200089F0200089F020008EC
:100070009F0200089F0200089F0200089F020008DC
:100080009F0200089F0200089F0200089F020008CC
:10009000E11800089F0200089F0200089F02000864
:1000A0009F020008FD3200089F0200089F0200081E
:1000B000193300086D330008113400089F0200084E
:1000C0009F0200089F0200089F0200089F0200088C
:1000D0009F020008513B00084D3C00083D3D0008D0
:1000E0009F0200089F0200089F0200089F0200086C
:1000F000593400089F0200089F0200085D2500088F
:100100009F0200089F0200083D3400089F0200087B
:100110009F020008353800089F0200089F0200086F
:100120009F0200089F0200089F0200089F0200082B
:100130009F0200089F0200089F0200089F0200081B
:10014000FD1900089F0200089F0200089F02000896
:100150009F0200089F0200089F0200089F020008FB
:100160009F0200089F0200089F0200089F020008EB
:100170009F0200089F0200089F0200089F020008DB
:100180009F0200089F02000800F002F800F06AF8E1
:100190000AA090E8000C82448344AAF10107DA45E2
:1001A00001D100F05FF8AFF2090EBAE80F0013F0CA
:1001B000010F18BFFB1A43F00103184778640000D1
:1001C000986400000A444FF0000C10F8013B13F053
:1001D000070408BF10F8014B1D1108BF10F8015BA0
:1001E000641E05D010F8016B641E01F8016BF9D193
:1001F00013F0080F1EBF10F8014BAD1C0C1B09D1EA
:100200006D1E58BF01F801CBFAD505E014F8016B5B
:1002100001F8016B6D1EF9D59142D6D370470000ED
:100220000023002400250026103A28BF78C1FBD8FF
:10023000520728BF30C148BF0B6070471FB506F09A
:100240000CF800F0D5F804000020002105F030FA89
:10025000401C60600020002105F014FAE0601FBD22
:1002600010B510BD00F065F91146FFF7E7FF05F086
:100270002FF900F0DDFB03B4FFF7F2FF03BC00F041
:1002800021FC00000948804709480047FEE7FEE7D7
:10029000FEE7FEE7FEE7FEE7FEE7FEE7FEE7FEE736
:1002A00004480549054A064B70470000953200088E
:1002B00089010008B0040020B04A0020B0460020A8
:1002C000B046002010B5203AC0F00B80B1E81850BD
:1002D000203AA0E81850B1E81850A0E81850BFF430
:1002E000F5AF5FEA027C24BFB1E81850A0E81850CF
:1002F00044BF18C918C0BDE810405FEA827C24BF23
:1003000051F8043B40F8043B08BF7047D20728BFB0
:1003100031F8023B48BF11F8012B28BF20F8023BFF
:1003200048BF00F8012B704770477047704710B501
:1003300000F062F8006810BD10B5044600F05CF8EB
:10034000046010BD0FB4002300B589B00CA9009162
:100350000B99CB60214B7B440693214B7B44079345
:1003600004236FF00042CDE901321E4A7A446B4605
:1003700008920246002005F0DAFF09B05DF814FB90
:1003800070B506464FF0FF3015460C46324686B033
:100390000091CDE9010169460020049004A8FFF70F
:1003A000D1FF02460498211825B108B1084600E0A3
:1003B00020462860049800280DD0002A02DD00980D
:1003C000884208D03246081B69460094CDE90104F2
:1003D00004A8FFF7B7FF06B070BD0000B900000029
:1003E000D100000091000000004870475004002038
:1003F00000487047700400200048704750040020F7
:1004000010B5044600F0BAF80068005D00F0010085
:1004100010BD426842B1016811F8013B23B1521E80
:10042000C0E90012184670470121C160881E70475C
:1004300042685AB1C368016843B983688B4205D0EA
:10044000491E521CC0E90012002070474FF0FF30D7
:10045000704700002DE9F047814616468AB03348C0
:1004600078440DC88DE80D0030487844801C03ACFA
:100470000DC884E80D0041F69B300844372190FBFD
:10048000F1F290FBF1F5A5F1800501FB12041B3C94
:1004900002D56442012000E00020DFF890A08046F1
:1004A0000027FA44AAF1BE0A0DE0E00709D032465F
:1004B000684607EB47010AEB810100F0A6FF8DE8D3
:1004C000070064107F1C002CEFD1184F7F44AC3F15
:1004D00018E0E80714D007EB04100DF1180A90E8B3
:1004E0000E008AE80E00C068F04201D19819089009
:1004F000324606A903A800F088FF03AB83E8070093
:100500006D10641C002DE4D132466946B8F1000F2D
:1005100003A802D000F051FF01E000F076FFC9E926
:100520000001C9F808200AB0BDE8F087B8610000F2
:1005300070477546FFF758FFAE46050069465346BB
:1005400020F00700854618B020B5FFF7A9FEBDE8EA
:1005500020404FF000064FF000074FF000084FF02A
:10056000000B21F00701AC46ACE8C009ACE8C009BB
:10057000ACE8C009ACE8C0098D46704710B5FFF77C
:1005800037FF001D10BD00BF295100002DE9FF4FAE
:10059000064689B00878FF2806D0491C2D2805D0CA
:1005A00000244FF0000908E000200CE00124F8E7E7
:1005B00009EB8903491C00EB43090878FF28F7D1B0
:1005C00014B1C9F100008146107800252C46AA46D6
:1005D00029462D2801D02B2804D1521C2D2813D0B8
:1005E000002082468B461078FF280FD04FF0000C79
:1005F0000A21521CA5FB017804FB018105FB0C11AB
:10060000C5194BEB0104EEE70120EAE7002108469B
:100610004FF00000BAF1000F02D000EB800040085C
:10062000C0F38158B8F1010F01DD4FF0FF380C988D
:1006300009EB000755EA040009D04FF0020917F54D
:10064000FA7F0BDA4FEACA70C6E900B012E04FEA4F
:10065000CA70C6E900B00DB0BDE8F08FB7F5FA7FFB
:100660000DDDF0487844D0E90010C6E9001040EAFA
:10067000CA707060FFF7C0FEC0F80090EBE7391E4B
:1006800002DAC8F1000200E0424600DA794206A828
:10069000FFF7E0FE06AB93E8070003AB83E8070033
:1006A00044F23E005BEA04010090584604D144F253
:1006B0001E012C465D460091210C0904014306D120
:1006C0000099240444EA15442D041039009104F0E3
:1006D0007F41014306D10099240244EA15642D02AA
:1006E0000839009104F07041014306D100992401BA
:1006F00044EA15742D01091F009104F040410143A3
:1007000006D10099A40044EA9574AD00891E0091B9
:1007100004F00041084304D100986D196441401E63
:10072000009042466846002FCDE9014503A902DD4D
:1007300000F07FFE01E000F054FEBAF1000F044625
:100740000D4601D084F0004440F2FF7724F00040D1
:10075000284303D0C4F30A50B84212D1FFF74CFE2D
:10076000C0F80090C4F30A50B8420AD1AE487844A9
:10077000D0E90010C6E9001004F0004108437060A1
:1007800069E7C6E9005466E72DE9FF4F1F464FF0C1
:10079000000A4FF0FF38454691B0D7E90146CDF841
:1007A0003CA0FFF725FEC0680168405C1090B96965
:1007B00012986D1C8847396A814688470028F6D10F
:1007C000B9F1FF3F0AD0002E24F4D06411DDB9F155
:1007D0002B0F08D0B9F12D0F0BD102E0404615B018
:1007E0003AE744F48064B96912986D1C8847761E14
:1007F0008146600504A901D52D2000E02B20002EA4
:1008000001F1010B0DF130088DF810003FDDB9F159
:10081000690F08D0B9F1490F05D0B9F16E0F02D0B8
:10082000B9F14E0F1CD13B4601A8009580E850025B
:10083000DDE912126FF0020005F07DFDC11CCED182
:100840000EE0B96912986D1C884781461398761E90
:1008500044F4007405600F98401C002E0F9016DDC4
:10086000B9F1300FEDD0B9F1780F02D0B9F1580FCE
:100870000DD10F9801280AD13B46CDE90054DDE99E
:100880001212001F029605F054FDC11CA7D1109949
:1008900089453ED144F0800406E01399681CAAF112
:1008A000010A44F400740860B9696D1C1298761E40
:1008B000884730288146F0D02BE01099894505D132
:1008C000200603D4761E44F0800418E0484604F065
:1008D00071FB08B3761E0DF123018B4544F40074BF
:1008E00008D2A9F130000BF8010B200607D5AAF1B8
:1008F000010003E0200602D40AF101008246A005AF
:1009000002D51399681C0860B96912986D1C884754
:100910008146002ED1DC53E0002E51DDB9F1650F88
:1009200002D0B9F1450F4BD1A00549D5B9696D1C6D
:100930001298761E24F440748847002E81460CDD00
:100940002B2804D0B9F12D0F07D144F48074B96974
:1009500012986D1C8847761E8146E00501D52D2131
:1009600000E02B2108F8011BCDF8008021E0761E65
:100970000DF13901884544F400740CD2A9F130001E
:1009800010F0FF0088F8000002D10099884509D9CD
:1009900008F1010806E0E00501D5244801E042F233
:1009A0000F708246B96912986D1C8847814613986A
:1009B0000560002E04DD484604F0FCFA0028D6D17C
:1009C000F96912988847FF2053468BF8000088F891
:1009D000000000200A900B9004AA0CA90AA8FFF7B7
:1009E000D5FDA00502D46FF00100F8E614F0240F45
:1009F0000AD0E00714D13868DDE90A12031D3B6014
:100A00000068C0E900120BE00AA9684604F06CFA1D
:100A1000E00705D13868009A011D3960006802605E
:100A20002846DCE6EC5F0000E25E0000F1D8FFFF44
:100A300010B50446AFF300802046BDE81040FFF734
:100A40001ABC00004FF0013C50F8042B51F8043B55
:100A50009A4221D1A2EB0C03934313EACC1317D192
:100A600050F8042B51F8043B9A4215D1A2EB0C0329
:100A7000934313EACC130BD150F8042B51F8043BE9
:100A80009A4209D1A2EB0C03934313EACC13DBD0B7
:100A90004FF00000704700BFD01A01BAB1FA81F1DF
:100AA00001F0180122FA01F0CB40C1F12001DBB2C4
:100AB000C0B2C01A2CFA01F3D11A914311EAC31142
:100AC000E6D1704701491820ABBEFEE726000200C0
:100AD0002DE9FF4F1F464FF03C0987B04FF0004211
:100AE000DDE9141001F10108DDF858A002EA4050D8
:100AF0000390002005908346054604460490B9699A
:100B0000461E08988847AAF1010A0290BAF1000F20
:100B10003BDD02982E2815D0102100F016FA00288F
:100B20002EDB4FF0010B0599014317D0B9F1000FEF
:100B30000BDB4A46C11700F0F5F905430C43A9F158
:100B4000040905E0012004900BE008B145F001051F
:100B500001200590049820B9361D02E0049800B1E8
:100B6000361FB969089808F101088847BBF1000FE2
:100B7000AAF1010A0290C9D00999C1F80080C5E71D
:100B80000298702808D0502806D0F969089888473C
:100B9000BBF1000F14D04FE0002002900120BBF108
:100BA000000F049009D0B969089808F10108884736
:100BB000AAF10109B9F1000F07DCF9690898884723
:100BC0006FF001000BB0BDE8F08F2B2804D02D286A
:100BD0000CD14FF0FF300490B969089808F1010872
:100BE0008847A9F10109B9F1000FE6DD411CE4D005
:100BF0000A2100F0AAF90028DFDB029908F10108B8
:100C000001EB810100EB41000290B9690898884727
:100C10000A2100F09AF9099AA9F10109B9F1000F26
:100C2000C2F8008001DD0028E7DAF96908988847F2
:100C30000499029800FB016655EA040004D004F010
:100C40004041090002D006E0039898E0A40044EA7D
:100C50009574AD00B61E04F00041080002D16D1974
:100C60006441761E159810F0240F03D04FF00B0945
:100C70005C4803E04FF028096FF07D00824656453E
:100C800007DAAAEB06018944B9F1410F01DD4FF003
:100C9000410901200021A9F1010200F043F90246B7
:100CA00028400B462140084301D0012100E00021EB
:100CB000501E029143F1FF3128402140084301D0EA
:100CC000012000E000200299834651EA0B014FD039
:100CD000002108464FF00000039900F4400039B1AC
:100CE00000EB80004FF4400100EBD07001EA60009F
:100CF0008015012802DD4FF0FF3000E013D0401CCA
:100D000036D0029860B3BBF1000F0CD14A460120E7
:100D1000002100F007F928402140084301D00120BC
:100D200000E00020E0B101204A46002100F0FAF87E
:100D3000034640190A4661412D1A8C4111D3B9F17D
:100D4000400F09DD159810F0240F02D0AAF13406E7
:100D500003E0AAF1170600E0761C00254FF00044DE
:100D600006E05B1E42F1FF3220EA030521EA02049D
:100D7000CAF10100B04206DA1B490398084301900A
:100D8000002000900EE0039AC4F3D321E80A0A433E
:100D9000164940EA44500A433146CDE9000268460C
:100DA00004F0FEF8159810F0240F0BD01598C0072A
:100DB00015D13868DDE90012031D3B600068C0E909
:100DC00000120CE002A8694604F08EF81598C007DE
:100DD00005D13868029A011D3960006802604046FA
:100DE000F0E6000002FCFFFF0000F07F0000F03F93
:100DF0002DE9FF4F92461D4685B04FF00041DDE9D9
:100E0000124BDDE914727F1E01EA4B50414940F05C
:100E1000FF4940EA0108002122F0200049280491FE
:100E200002D04E2828D04CE03BA0012607C88DE810
:100E30000700A9690698641C88477F1E014606D4EE
:100E40001DF8060018B121F0200181420BD0E9699C
:100E500006988847032E34D0082E32D06FF0010058
:100E600009B0BDE8F08F761C032E01D0082EE0D12A
:100E7000601CCAF80000DCE7A9690698641C884772
:100E80007F1E2AD420F02000412826D1A969069887
:100E9000641C88477F1E20D420F020004E281CD1DF
:100EA000A9690698641C88477F1E48F4002849F405
:100EB0008009CAF8004001D4282806D0E9690698BC
:100EC00088475FEACB7012D022E0A9690698641CBB
:100ED00088477F1E01D4002803DAE969069888470D
:100EE000BCE72928F1D1641CCAF80040E9E71BF0EF
:100EF000240F07D028680499031D2B600068C0E9FF
:100F0000001805E02868021D2A600068C0F80090FB
:100F10002046A5E70000F07F494E46494E49545906
:100F200000000000B2F120030AD5C2F1200301FA4B
:100F300002F120FA03F300FA02F041EA03017047DC
:100F400000FA03F14FF0000070473A2800D2303821
:100F500020F02002412A01D3A2F13700884201D3B8
:100F60004FF0FF30704720F07F4C80EA030023F001
:100F70007F47ACEB070303F57C5300F0004003F11F
:100F8000FF032DE980494FEA154B09B44FEA14439A
:100F900025EA0B4E24EA03480FF2042606EB13273A
:100FA00049083E785FEA320203FB0667C7F500078F
:100FB00007FB06F64FEA54374FEAD64606F102061B
:100FC00007FB066CCCF1005C4FEA1C472CEA074C8F
:100FD00007FB06F40CFB06F504EB15464FEA9616E4
:100FE00034BF00204FF000404FEAD13706FB07FC2A
:100FF0004FEA1C4C0CFB0BF7D21B03FB0CF761EB0D
:1010000007010CFB0EF7B0EB074072EB17420CFB2D
:1010100008F734BFA2EB0742B2EB074261EB17417E
:101020004FEA0C444FEA910706FB07FC4FEA1C4CC1
:101030000CFB0BF7B0EBC74072EB573203FB0CF71E
:1010400034BFA2EBC742B2EBC74261EB57310CFB96
:101050000EF7B0EBC70072EB57720CFB08F734BF0A
:10106000A2EBC702B2EBC70261EB5771039F4FEAD5
:10107000816141EA921104EBCC044FEAD1374FEA87
:10108000826206FB07FC42EA90124FEA80604FEA58
:101090001C4C0CFB0BF7D21B03FB0CF761EB07019D
:1010A0000CFB0EF7B0EB074072EB17420CFB08F796
:1010B00034BFA2EB0742B2EB074261EB17414FEAA4
:1010C0008C554FEA910704EB9C2406FB07FC4FEA82
:1010D0001C4C0CFB0BF7B0EBC74072EB573203FB19
:1010E0000CF734BFA2EBC742B2EBC74261EB5731FA
:1010F0000CFB0EF7B0EBC70072EB57720CFB08F756
:1011000034BFA2EBC702B2EBC70261EB577115EB1C
:101110004C254FEA816141EA92114FEA82624FEA1F
:10112000D13742EA901206FB07FC44F100044FEA73
:1011300080604FEA1C4C0CFB0BF7D21B03FB0CF737
:1011400061EB07010CFB0EF7B0EB074072EB1742A7
:101150000CFB08F734BFA2EB0742B2EB074261EB8E
:10116000174115EB1C154FEA813141EA92414FEAD4
:10117000823242EA90424FEA80304FEA0C7644F1E4
:10118000000448EA03434EEA0B484FF0000EB2EB6E
:10119000080C71EB030724BF624639464EEB0E0E76
:1011A0004FF0000B0018524149414BEB0B0BB2EBD7
:1011B000080C71EB03077BF1000B24BF6246394634
:1011C0004EEB0E0E4FF0000B0018524149414BEB15
:1011D0000B0BB2EB080C71EB03077BF1000B24BF88
:1011E000624639464EEB0E0E51EA020718BF46F032
:1011F000010616EB0E7655F1000254F1000103D5FD
:10120000BDE88901BDE80088BDE88901BDE8004866
:10121000B619524141EB0101A3F1010370478080EF
:101220007F7E7D7C7B7A7978777676757473727140
:1012300071706F6E6E6D6C6C6B6A6A6968686766F8
:1012400066656464636362616160605F5F5E5E5D8A
:101250005D5C5C5B5B5A5A595958585757565655FE
:1012600055555454535352525251515050504F4F60
:101270004F4E4E4D4D4D4C4C4C4B4B4B4A4A4A49B0
:1012800049494848484747474746464645454544F3
:1012900044444443434343424242424141410000AB
:1012A00046EA0646A3F570534FEA164646EA42560A
:1012B0004FEAD22242EA415210B54FEAD121A3F1BE
:1012C000010300F017F820F0004000F1010C00F0DD
:1012D000004701EB00501146BCF5006F40EA0700E3
:1012E00000D210BD02484FF0000140EA070010BDD7
:1012F0000000F07F002B26D4770021D01CB54FEAE8
:10130000370703B44FF010004FF010014FF000000A
:101310000FBCBDE810400BF1010BBBF1010F08BF82
:101320005FEA170722BF12F1010211F101014FF02C
:10133000004143F1000300F0004043EA0000704721
:10134000F9D35708DAE746EA064613F1400F4FEAA9
:1013500016461FDD13F1200FDFBF16430A4600219A
:1013600020335B42C8D0C3F1200746EA064602FAA2
:1013700007F74FEA164646EA0706C3F1200722FAA6
:1013800003F201FA07F721FA03F14FF0000342EAF2
:101390000702B1E746EA020646EA06464FEA164663
:1013A00046EA0106BCBF46EA0646360C4FF000038B
:1013B0004FF000024FF000019EE72DE9C048934630
:1013C00030B491E8380007C831EA400C48BF34EA2D
:1013D000430C03D5FFF7C7FDFFF78CFFF0BCBDE85A
:1013E00000882DE9C048934630B491E8380007C81A
:1013F00031EA400C48BF34EA430C03D5FFF7B3FD94
:10140000FFF74EFFF0BCBDE800882DE9C0489346C9
:1014100030B491E8380007C810F0804F08BF13F0CF
:10142000804F03D100F019F8FFF764FFF0BCBDE86E
:1014300000882DE9C048934630B491E8380007C8C9
:1014400010F0804F08BF13F0804F03D100F005F873
:10145000FFF726FFF0BCBDE8008820F07F4780EA58
:10146000030023F07F4C07EB0C03A3F57C5300F043
:101470000040A3F1FE0392F0000F00F0B38095F05E
:10148000000F00F077802DE901494FEA11404FEA43
:10149000144621EA004800FB06FC24EA064708FB44
:1014A00006F607FB08F800FB07F718EB06484CEBBD
:1014B000164C4FEA124B18EB07484FEA15464CEB17
:1014C000174022EA0B4E0BFB06FC25EA06470EFBF3
:1014D00006F607FB0EFE0BFB07F71EEB064E4CEB6A
:1014E000164C4FF000061EEB074E4CEB174B18EB5B
:1014F0000B0840F1000018EB0E0B58EB000840F110
:1015000000008F1A4FF000013CBFC943661B14BF97
:10151000B5EB040C00213CBFC943F61B4FEA17444E
:101520004EEA8E0E27EA04454FEA1C4704FB076289
:101530002CEA074C05FB07F70CFB05F604FB0CFC3B
:1015400016EB074642EB174216EB0C4642EB1C42E9
:101550001BEB060658EB0202414146EA9E0601D506
:10156000BDE80189B619524141EB0101A3F1010324
:10157000BDE801894FEA14454FEA114724EA0546C0
:1015800021EA074C05FB07F406FB07F70CFB06F105
:1015900005FB0CFC11EB074144EB17444FEA1247E3
:1015A00011EB0C4144EB1C4422EA074C05FB07F20B
:1015B00006FB07F70CFB06F605FB0CFC16EB0746D3
:1015C00042EB174216EB0C4642EB1C456A1854F1ED
:1015D000000148BF7047B619524141EB0101A3F128
:1015E0000103704795F0000F37D04FEA11424FEAE0
:1015F000144721EA024624EA074C02FB07F106FBE6
:1016000007F70CFB06F402FB0CFC14EB074441EB60
:1016100017414FEA154714EB0C4441EB1C4125EAF6
:10162000074C02FB07F506FB07F70CFB06F602FB6F
:101630000CFC16EB074645EB174516EB0C4645EB45
:101640001C42121951F1000148BF7047B6195241AE
:1016500041EB0101A3F1010370474FEA14454FEA42
:10166000114724EA054621EA074C05FB07F106FB72
:1016700007F70CFB06F24FF0000605FB0CFC12EB23
:10168000074241EB174112EB0C4251EB1C4148BFA2
:101690007047921841EB0101A3F10103704721B19A
:1016A000826842F00102826003E0826822F0010257
:1016B000826070470021084A1168084A1140D0E949
:1016C00000231A4383681A43C3681A431143044A28
:1016D000C2F804137047000004230140E030FCFF0F
:1016E000002001400146C86C80B2704702460020CD
:1016F00013680B400BB1012000E000207047000090
:1017000030B50246002000235068104C20400D796F
:101710000C6844EA05242043506090680C4C20403B
:10172000D1E903542C438D682C434D7944EA450498
:1017300020439060D06A20F470000C7D641EE4B2F7
:10174000234340EA0350D06230BD0000FFFEFFFC9F
:10175000FDF7FFC0F0B504460D4600200021092D1D
:1017600011DDE068A5F10A0606EB4607072606FA32
:1017700007F18843A5F10A0606EB460603FA06F1CF
:101780000843E0600CE0206905EB4507072606FAF0
:1017900007F1884305EB450603FA06F1084320618B
:1017A000072A0FDA606B561E06EB86071F2606FA1D
:1017B00007F18843561E06EB860605FA06F1084334
:1017C000606322E00D2A0FDA206BD61F06EB860736
:1017D0001F2606FA07F18843D61F06EB860605FA90
:1017E00006F10843206310E0E06AA2F10D0606EB63
:1017F00086071F2606FA07F18843A2F10D0606EBBD
:10180000860605FA06F10843E062F0BD816841F002
:10181000804181607047000000B58DB00121042037
:1018200001F00CFB0121080201F038FB30200B9085
:1018300003208DF8300000208DF833000BA91648E6
:1018400000F0F9FF0121080201F038FB00214FF4FC
:10185000807001F033FB002007900A9009904FF44C
:101860008030089007A8FFF725FF002001908DF831
:1018700008008DF8090003900490059001208DF870
:10188000180001A90548FFF73BFF01210348FFF7B6
:1018900006FF0DB000BD000000080240002001401E
:1018A0001CB50121102001F0C9FA80200090012010
:1018B0008DF8040000208DF8060003208DF8050047
:1018C00002208DF807006946034800F0B4FF80212C
:1018D000014801F024F81CBD0010024000BFFEE7E3
:1018E00010B53B4803783B4A3B493C4800F0A8FC14
:1018F00039480068302803D13649087803F08AFE59
:101900003548006840F2872188420DD1314800688F
:1019100045F65001884207D12E4890ED010AB8EEF5
:10192000C00A2F4880ED050A2B480068B0F5227FD9
:101930000DD12848006845F65601884207D1254850
:1019400090ED010AB8EEC00A254880ED580A2248F9
:10195000006840F2862188420DD11E48006845F695
:101960005001884207D11B4890ED010AB8EEC00A29
:101970001B4880ED090A1B49184800F0B3F81949C3
:10198000491C164800F0AEF81649C91C134800F06F
:10199000A9F81549114800F0A5F814490F4800F0BE
:1019A000A1F813490D4800F09DF8114908310B4882
:1019B00000F098F80F49094800F094F80E490748DC
:1019C00000F090F80C490831044800F08BF810BD85
:1019D000D0010020C8010020D40100200064004094
:1019E000740200200100F0107000F03003000012BB
:1019F0000800003203000014080000341CB52E4813
:101A000003786A462D492E4800F01AFC2B480068DE
:101A100040F2822188420BD145F656010098884257
:101A200006D19DED010AB8EEC00A264880ED110AE4
:101A30002248006840F28121884210D12248006883
:101A4000401C2149086045F656010098884206D19D
:101A50009DED010AB8EEC00A1A4880ED140A1B4930
:101A6000174800F03FF81949491C154800F03AF8AA
:101A70001649C91C124800F035F81549104800F005
:101A800031F814490E4800F02DF813490C4800F0C5
:101A900029F8114908310A4800F024F80F4908488C
:101AA00000F020F80E49064800F01CF80C490831F7
:101AB000034800F017F81CBDDC010020D80100200D
:101AC0000068004074020020A40100200100F01012
:101AD0007000F03003000012080000320300001410
:101AE0000800003400220C4B994202D1002383618C
:101AF00011E0C1F3130201F000730BB1C2600AE000
:101B000001F080630BB1026105E001F000630BB1ED
:101B1000826000E0426070477000F0302DE9F04FC5
:101B20008BB006460F4614461D46DDF850804FF038
:101B30000009CA46CB46B5F5807F43D012DC102D94
:101B400034D008DC012D25D0022D26D0042D27D03D
:101B5000082D4FD127E0202D2BD0402D2CD0802DCB
:101B600048D12CE0B5F5805F38D009DCB5F5007FB1
:101B70002BD0B5F5806F2BD0B5F5006F3AD12AE0A8
:101B8000B5F5005F2DD0B5F5804F2DD0B5F5004FE0
:101B900030D12CE04FF000092DE04FF001092AE090
:101BA0004FF0020927E04FF0030924E04FF0040949
:101BB00021E04FF005091EE04FF006091BE04FF051
:101BC000070918E04FF0080915E04FF0090912E085
:101BD0004FF00A090FE04FF00B090CE04FF00C0931
:101BE00009E04FF00D0906E04FF00E0903E04FF059
:101BF0000F0900E000BF00BFB8F5807F4BD01ADCB2
:101C0000B8F1100F3BD00CDCB8F1010F2BD0B8F1BC
:101C1000020F2BD0B8F1040F2BD0B8F1080F52D11E
:101C20002AE0B8F1200F2DD0B8F1400F2DD0B8F137
:101C3000800F48D12CE0B8F5805F38D009DCB8F5CA
:101C4000007F2BD0B8F5806F2BD0B8F5006F3AD15C
:101C50002AE0B8F5005F2DD0B8F5804F2DD0B8F54B
:101C6000004F30D12CE04FF0000A2DE04FF0010A78
:101C70002AE04FF0020A27E04FF0030A24E04FF079
:101C8000040A21E04FF0050A1EE04FF0060A1BE0AF
:101C90004FF0070A18E04FF0080A15E04FF0090A64
:101CA00012E04FF00A0A0FE04FF00B0A0CE04FF081
:101CB0000C0A09E04FF00D0A06E04FF00E0A03E0AF
:101CC0004FF00F0A00E000BF00BF7F48304418B15A
:101CD000B0F5806F1AD10CE04FF0090B00208DF8A1
:101CE000120014208DF804000121480601F0B6F816
:101CF0000DE04FF0090B0E208DF8120040208DF8FA
:101D000004000121000501F0A9F800E000BF00BFB8
:101D1000C4F3090078BBA012A0F580108038092810
:101D200034D2DFE800F0050A0F14191E23292E0013
:101D30000121084601F082F829E00121022001F08A
:101D40007DF824E00121042001F078F81FE0012152
:101D5000082001F073F81AE00121102001F06EF85C
:101D600015E00121202001F069F810E00121402058
:101D700001F064F80BE009E00121802001F05EF839
:101D800005E00121080201F059F800E000BF00BFA2
:101D90005A464946204600F096FD5A46514620468E
:101DA00000F091FD45EA0800099002208DF8280016
:101DB0008DF8290000208DF82A0001208DF82B00D5
:101DC00009A9204600F037FD304600F07FF80020DA
:101DD0008DF81E008DF81F008DF820008DF8210071
:101DE0008DF822008DF823008DF81A008DF81B0065
:101DF0000B208DF81C0007208DF81D007D2F22D0B0
:101E000008DC0A2F0FD0142F11D0322F13D0642FDB
:101E100029D114E0FA2F1AD0B7F5FA7F1BD0B7F505
:101E20007A7F20D11BE0C820ADF818001CE06420A8
:101E3000ADF8180018E02820ADF8180014E01420C0
:101E4000ADF8180010E01020ADF818000CE00820E4
:101E5000ADF8180008E00420ADF8180004E00220F6
:101E6000ADF8180000E000BF00BF06A9304600F042
:101E7000D6F800208DF8130001208DF81400002002
:101E8000ADF80800ADF80A00ADF80C00ADF80E0092
:101E9000ADF8100001208DF8150002A800F032F80E
:101EA00002208DF8050003208DF8060001208DF832
:101EB000070001A800F0D2FE01220221304600F006
:101EC000A5F80BB0BDE8F08F009CFFBF10B504462D
:101ED0000B48844209D10121480600F0CFFF0021C0
:101EE0004FF0007000F0CAFF08E00121880600F002
:101EF000C5FF00214FF0806000F0C0FF10BD000062
:101F00000064004010B50021837A012202FA03F137
:101F10003D4A126842F001023B4B1A603A4A1C32B9
:101F200012688A43384B1C331A60027BCAB9364A9E
:101F30000C3212688A43344B0C331A604288C388CF
:101F400042EA0343304A4032847A42F8343002880D
:101F5000838842EA03432C4A4032847A02EBC4026B
:101F60005360027B012A19D1274A0C3212680A43B6
:101F7000254B0C331A604288038842EA0343224A05
:101F80004032847A42F83430C288838842EA03437C
:101F90001D4A4032847A02EBC4025360C27A3AB9D5
:101FA000194A121D12688A43174B1B1D1A6006E05E
:101FB000154A121D12680A43134B1B1D1A60028931
:101FC00032B9114A143212688A430F4B14331A6023
:101FD0000289012A06D10C4A143212680A430A4BBC
:101FE00014331A60427B012A06D1074A1C32126858
:101FF0000A43054B1C331A60034A126822F001029F
:10200000014B1A6010BD0000006600401AB1436920
:102010000B43436102E043698B434361704730B532
:10202000024600200023146824F00204146014689F
:1020300044F00104146000E05B1C546804F00104E7
:102040001CB94FF6FF74A342F6D1546804F00104A2
:102050000CB900206CE08C79012C04D1146844F098
:102060008004146003E0146824F080041460CC79C8
:10207000012C04D1146844F04004146003E0146897
:1020800024F0400414600C7A012C04D1146844F04C
:102090002004146003E0146824F0200414604C7AD7
:1020A000012C04D1146844F01004146003E0146897
:1020B00024F0100414608C7A012C04D1146844F0CC
:1020C0000804146003E0146824F008041460CC7A57
:1020D000012C04D1146844F00404146003E0146873
:1020E00024F0040414608C78A407CD7844EA0564D5
:1020F0000D7944EA05444D7944EA05540D886D1E76
:102100002C43D461146824F001041460002300E01F
:102110005B1C546804F001041CB14FF6FF74A34229
:10212000F6D1546804F001040CB1002000E0012055
:1021300030BD0246002019B9D36803F0030006E061
:10214000012903D1136903F0030000E00020704768
:1021500010B500F5D87303EB01131B6803F00403FB
:102160001372137A53B900F5D87303EB01131B688C
:1021700040F2FF7404EA5353136009E000F5D8738A
:1021800003EB01131B686FF0604404EAD303536050
:1021900000F5D87303EB01131B6803F002035372BD
:1021A00000F5D87303EB01135B6803F00F03937220
:1021B00000F5D87303EB01135B681B0AD37400F5B9
:1021C000D87303EB01139B68D37200F5D87303EB4C
:1021D00001139B681C0A147300F5D87303EB0113F9
:1021E0009B681C0C547300F5D87303EB01139B68B8
:1021F0001B0E937300F5D87303EB0113DB68D373E5
:1022000000F5D87303EB0113DB681C0A147400F5A6
:10221000D87303EB0113DB681C0C547400F5D873FE
:1022200003EB0113DB681B0E937421B9C36843F001
:102230002003C36003E0036943F02003036110BD82
:102240002DE9F04186B080460D4616461F46002413
:1022500000214046FFF76DFF18B9002006B0BDE829
:10226000F08101AA00214046FFF772FF002405E03B
:102270000DF10F00005D3055601CC4B2BC42F7DBAD
:10228000019828600120E9E710B502460020936814
:1022900003F08063B3F1806F00D110E0936803F026
:1022A0000063B3F1006F01D1012008E0936803F0EF
:1022B0008053B3F1805F01D1022000E004200428A4
:1022C00074D002F5C07303EB00131B6803F0010424
:1022D00002F5C07303EB00131C600B7A7BB94B7AD9
:1022E0000C8843EA445302F5C07404EB00142468DC
:1022F000234302F5C07404EB0014236010E00B7A52
:102300004C6843EAC4034C7A234302F5C07404EBDF
:1023100000142468234302F5C07404EB0014236006
:102320008B7A03F00F038B7202F5C07303EB00137B
:102330005B6823F00F0402F5C07303EB00135C60CD
:1023400002F5C07303EB00135B688C7A234302F53C
:10235000C07404EB001463608B7B1C064B7B44EA67
:1023600003440B7B44EA0323CC7A234302F5C07475
:1023700004EB0014A3608B7C1C064B7C44EA0344F2
:102380000B7C44EA0323CC7B234302F5C07404EBAB
:102390000014E36002F5C07303EB00131B6843F005
:1023A000010402F5C07303EB00131C6010BD0000B4
:1023B00010B50246002321B1012907D002290FD10F
:1023C00009E090681D4C00EA04030BE090681C4C87
:1023D00000EA040306E090681A4C00EA040301E0F6
:1023E000002300BF00BF184C181BA34216D007DC07
:1023F00083B16FF08060184470B1022818D111E0E9
:10240000B0F5007F10D0114C204448B1B0F5003F2A
:102410000ED10BE002230DE000230BE0002309E0C6
:10242000002307E0012305E0012303E0012301E08D
:10243000002300BF00BFD8B210BD0000030000049D
:102440000003000800000310000100080001FFF76E
:102450002DE9F04385B081460D4690461E46002486
:102460000095019500208DF808008DF809008DF881
:102470000A6000BF06E018F804100DF10B000155CA
:10248000601C84B2B442F6DB69464846FFF7FCFEA6
:102490000746002400BF39464846FFF789FF012858
:1024A000F9D105B0BDE8F08310B588B0044601212C
:1024B000082000F0C3FC0121480400F0CFFC0722F3
:1024C0000521244800F0FFF907220621214800F0E9
:1024D000FAF96020069002208DF81C008DF81D008E
:1024E00000208DF81E0001208DF81F0006A9194854
:1024F00000F0A1F902940020ADF80C00ADF80E0038
:10250000ADF81000ADF814000C20ADF8120002A9CF
:10251000114801F0C7FD40210F4801F0DFFC2620E3
:102520008DF8040000208DF8050002208DF80600CB
:1025300001208DF8070001A800F090FB012240F275
:102540002551054801F089FD0121034801F0DEFC19
:1025500008B010BD000C02400044004010B507490F
:10256000074800F0EBF838B10021054800F024F8E6
:102570000249034800F006F810BD00000080002862
:10258000B86002400246094B9A4201D2084801E075
:102590000648103801F000531BB1064B0B40C360D6
:1025A00002E0044B0B40836070470000106402405F
:1025B000006002407D0F7D0F21B1026842F00102F0
:1025C000026003E0026822F001020260704700002E
:1025D000016821F00101016000210160416081601A
:1025E000C1600161212141614A49884204D13D21F4
:1025F000484A103A91608CE046491831884205D12A
:102600004FF47461434A103A916082E0414930319D
:10261000884205D14FF474113E4A103A916078E037
:102620003C494831884205D14FF07461394A103A2B
:1026300091606EE037496031884204D13649354AAD
:10264000103AD16065E033497831884204D133498A
:10265000304A103AD1605CE02E499031884204D172
:102660002F492C4A103AD16053E02A49A8318842B8
:1026700005D14FF03D51274A103AD16049E0294930
:10268000884204D13D21274A083A116041E025499A
:102690001831884205D14FF47461224A083A11601A
:1026A00037E020493031884205D14FF474111D4A7A
:1026B000083A11602DE01B494831884205D14FF09E
:1026C0007461184A083A116023E016496031884263
:1026D00004D11149134A121F11601AE011497831CF
:1026E000884204D10D490F4A121F116011E00D49B3
:1026F0009031884204D10A490A4A121F116008E049
:102700000849A831884204D14FF03D51054A121FB3
:1027100011607047106002403D000020400F002013
:1027200000003D2010640240014600200A6802F0CB
:1027300001020AB1012000E00020704770B5024696
:10274000002000240025124EB24201D2114B01E0BC
:102750000F4B103B104E0E4036B11E2606EAD12418
:10276000166806EA040502E0566906F0800501F0E5
:1027700000560EB15C6800E01C68084E344004EA64
:10278000010616B10DB1012000E0002070BD00006F
:1027900010640240006002403C0F3C0F7D0F7D0F33
:1027A00010B501F080034BB122B1436943F08003BF
:1027B000436103E0436923F08003436180290BD028
:1027C0002AB1036801F01E042343036004E0036898
:1027D00001F01E04A343036010BD000010B50022E9
:1027E0000268134B1A40CC680B6823434C6923439F
:1027F0008C692343CC6923430C6A23434C6A2343EB
:102800008C6A23434C6B23438C6B23431A43026033
:10281000426922F00702D1E90B3423431A43426193
:102820000B6943604B6883608B68C36010BD000018
:102830003F801CF07047F0B50A46002100230024B9
:1028400000BF3DE0012505FA01F3156805EA030420
:102850009C4234D105684F000326BE40B543056055
:1028600015794E00B5400668354305601579012D90
:1028700002D01579022D16D185684F000326BE407F
:10288000B543856055794E00B5408668354385600F
:10289000456801268E40B5434560456896798E406F
:1028A000B6B235434560C5684F000326BE40B54308
:1028B000C560D5794E00B540C6683543C560491C32
:1028C0001029BFD3F0BDF0B5002300244D07ED0E55
:1028D00002FA05F3CE1000F1200555F826504E07F8
:1028E000F70E0F26BE40B543CF1000F1200646F884
:1028F0002750CE1000F1200555F8265045EA030474
:10290000CE1000F1200545F82640F0BD024600201B
:1029100013690B400BB1012000E000207047418398
:10292000704701837047000010B504460723012259
:1029300021460848FEF70EFF0648FEF767FF00BF76
:1029400002210448FEF7D2FE0028F9D00148FEF724
:10295000C9FE10BD002001402DE9F04107460C469C
:102960000025002605E03846FFF7DEFF0544701C11
:10297000C6B2A642F7DBB5FBF4F080B2BDE8F08149
:1029800000BFFEE708B500200346532263210090F4
:102990004FF0804000F098FD0120002340F24732C4
:1029A00040F2E73100901D4800F08EFD0120002329
:1029B00040F2473263210090194800F085FD4FF442
:1029C00000704310174A4FF4FA7100901648FFF751
:1029D000A5F840202023134A4FF4FA7100901348C1
:1029E000FFF79CF8FEF718FFFEF75AFF00F07CF99E
:1029F00000F08EFE00F0ECF94FF4E13000F0EEFB59
:102A00004FF4E130FFF750FD4FF4E13000F084F96E
:102A10004FF4612000F0B8FE08BD00000004004043
:102A200000080040000402400064004000680040CC
:102A300010B52DED028B02F0EDFBB0EE408A02F0F6
:102A4000FDFBF0EE408A5C480068401C5A49086073
:102A50000846006805287CDB00200860574890ED98
:102A6000000A38EE400A60EE000AB1EEE00A54486F
:102A700080ED000A534890ED000A38EEC00A60EE7F
:102A8000000AB1EEE00A504880ED000AD0ED000ADD
:102A90009FED4E0A00F06EFE28B14D480068401CC4
:102AA0004B49086002E00020494908609FED490A4F
:102AB000B4EEC08AF1EE10FA0DD24148D0ED000A12
:102AC0009FED420A00F056FE28B143480068401CC2
:102AD0004149086002E000203F4908609FED3D0A3F
:102AE000F4EEC08AF1EE10FA0AD2394800680228E2
:102AF00006DB0020364908600120BDEC028B10BDCA
:102B000035480068022804DB0020334908600220B1
:102B1000F3E72A4880ED008A2A48C0ED008ABDEE1E
:102B2000C80A10EE102A2DA12F4801F025FBBDEE9A
:102B3000E80A10EE102A2DA12B4801F01DFB2148B8
:102B400090ED000ABDEEC00A10EE102A2AA1264818
:102B500000E02EE001F010FB184890ED000ABDEEF9
:102B6000C00A10EE102A28A11F4801F005FB1A48E0
:102B700028A102681C4801F0FFFA154829A1026843
:102B8000194801F0F9FA104890ED000ABDEEC00AAC
:102B900010EE102A27A1144801F0EEFA084890ED33
:102BA000000ABDEEC00A10EE102A26A10E4801F060
:102BB000E3FA0020A1E700009C000020A400002010
:102BC000B0000020A0000020B4000020000020423F
:102BD000A800002000C0A844AC0000204C6566742A
:102BE0003D256409000000000050004052696768FC
:102BF000743D2564090000006C6173745269676854
:102C0000743D2564090000006C6173744C65667442
:102C1000256409004572726F724C6566743D2564C7
:102C2000090000004572726F7252696768743D2531
:102C300064090000726967687465417665723D25B4
:102C4000640900006C656674417665723D2564090F
:102C50000D0A000000BFFEE700BFFEE770B50021CF
:102C600000230F22C4781CB3174C246804F4E064DA
:102C7000C4F5E064C4F30721C1F10404E3B20A41DE
:102C800044789C40E1B28478144021430C07210E23
:102C90000E4C05786155047804F01F050124AC4002
:102CA00005786D11AD0005F1E025C5F8004109E09A
:102CB000047804F01F050124AC40054D0678761118
:102CC00045F8264070BD00000CED00E000E400E097
:102CD00080E100E002490143024A116070470000B0
:102CE0000000FA050CED00E01CB50121102000F0F9
:102CF000A5F84FF48070009000208DF804000320A8
:102D00008DF8050001208DF8070069460148FFF79E
:102D100092FD1CBD0010024010B588B00446012190
:102D2000082000F08BF80121880400F097F80722B2
:102D300008212548FFF7C7FD072209212248FFF790
:102D4000C2FD4FF44070069002208DF81C008DF8F3
:102D50001D0000208DF81E0001208DF81F0006A91F
:102D60001948FFF768FD4FF4E13002900020ADF8FC
:102D70000C00ADF80E00ADF81000ADF814000C20FA
:102D8000ADF8120002A9114801F08CF901210F4899
:102D900001F0BCF840210D4801F0A0F8012240F2FA
:102DA00025510A4801F059F927208DF80400002028
:102DB0008DF8050001208DF806008DF8070001A8A8
:102DC000FFF74CFF08B010BD000C02400048004067
:102DD0001CB50121102000F031F850200090012096
:102DE0008DF8040000208DF8060003208DF8050002
:102DF00002208DF8070069460348FFF71CFD5021AB
:102E00000148FFF78EFD1CBD00100240F0EE400AA5
:102E10009FED071AB0EE410A9FED061A20EE811AC7
:102E2000DFED051A81EE212AB0EE420A704700005C
:102E300000000000DD7EBC430000804529B1064A49
:102E400012680243044B1A6004E0034A126882438A
:102E5000014B1A60704700003038024029B1064A21
:102E600012680243044B1A6004E0034A126882436A
:102E7000014B1A60704700004038024029B1064AF1
:102E800012680243044B1A6004E0034A126882434A
:102E9000014B1A60704700002038024029B1064AF1
:102EA00012680243044B1A6004E0034A126882432A
:102EB000014B1A60704700004438024029B1064AAD
:102EC00012680243044B1A6004E0034A126882430A
:102ED000014B1A607047000024380240F0B5002111
:102EE00000220024022500260223324F3F6807F00B
:102EF0000C0121B1042905D0082937D105E02E4F56
:102F0000076036E02D4F076033E02A4F3F1F3F68D0
:102F1000C7F38056274F3F1F3F6807F03F036EB14E
:102F2000264FB7FBF3F7DFF88CC0ACF1040CDCF8EC
:102F300000C0CCF3881C07FB0CF40CE01E4FB7FB61
:102F4000F3F7DFF870C0ACF1040CDCF800C0CCF390
:102F5000881C07FB0CF4174F3F1F3F68C7F301475E
:102F60007F1C7D00B4FBF5F7076002E0124F07609D
:102F700000BF00BF0F4F3F6807F0F0010909104F75
:102F80007A5C0768D74047600A4F3F6807F4E05112
:102F9000890A0B4F7A5C4768D7408760054F3F68C6
:102FA00007F46041490B064F7A5C4768D740C76019
:102FB000F0BD0000083802400024F40000127A003E
:102FC00064020020704700000CB5002001900090C2
:102FD0003448006840F480303249086000BF31480E
:102FE000006800F4003000900198401C01900098A7
:102FF00018B90198B0F5A06FF1D12A48006800F423
:10300000003010B10120009001E0002000900098F5
:10301000012846D123484030006840F080502149C3
:10302000403108602048006840F480401E49086034
:103030001C48083000681B490831086008460068D1
:1030400040F4004008600846006840F4A050086062
:103050001648091F0860081F006840F08070091FAB
:10306000086000BF0F48006800F000700028F9D029
:1030700040F205600E4908600A480830006820F0F8
:1030800003000849083108600846006840F0020063
:10309000086000BF03480830006800F00C000828F2
:1030A000F8D10CBD003802400070004008544007C1
:1030B000003C024010B52DED048B4348C06B58B95D
:1030C000414890ED180A414880ED000A3E4890EDD5
:1030D000190A3F4880ED000AFFF7AAFC02280ED12A
:1030E00008203949C1F870010846007840F02000F6
:1030F00008700846007820F04000087019E0FFF7DB
:1031000097FC01280ED109202F49C1F8700108460B
:10311000007840F0200008700846007820F0400059
:10312000087006E0FFF784FC18B900202649C1F8B2
:103130007001254890ED180A2448D0ED000A30EEC1
:10314000C00A10EE101A084603F016F841EC190BED
:10315000B0EE490AF0EE690A01F0CAF9B0EE408A11
:10316000F0EE608A9FED1B0B53EC102B51EC180B0B
:1031700002F0D6FE21D3144890ED190A1448D0ED80
:10318000000A30EEC00A10EE101A084602F0F4FFF2
:1031900041EC190BB0EE490AF0EE690A01F0A8F90A
:1031A000B0EE408AF0EE608A9FED0A0B53EC102BD4
:1031B00051EC180B02F0B4FE03D20A200249C1F808
:1031C0007001BDEC048B10BD74020020B80000201B
:1031D000BC000020000000000000344010B588B0A2
:1031E000044601210846FFF729FE01211020FFF7C0
:1031F00055FE072209212548FFF765FB07220A2112
:103200002248FFF760FB4FF4C060069002208DF863
:103210001C008DF81D0000208DF81E0001208DF887
:103220001F0006A91948FFF706FB02940020ADF81D
:103230000C00ADF80E00ADF81000ADF814000C2035
:10324000ADF8120002A9124800F02CFF40211048EE
:1032500000F044FE25208DF8040000208DF80500C4
:1032600002208DF8060001208DF8070001A8FFF765
:10327000F5FC012240F22551054800F0EEFE012147
:10328000034800F043FE08B010BD000000000240FB
:103290000010014010B51548006840F47000134953
:1032A00008601348006840F00100114908600020E0
:1032B0000F49083108600E4800680E4908400C4963
:1032C00008600D48091D0860081F006820F4802070
:1032D000091F0860002006490C310860FFF774FEE2
:1032E0004FF0006001498039086010BD88ED00E0B2
:1032F00000380240FFFFF6FE1030002410B5012117
:10330000044800F0C6F8012803D10121014800F06B
:10331000B1F810BD0000014010B50121880700F090
:10332000B8F801281AD10121800700F0A3F80C4851
:103330000088401C0A4908800846008800EE100AF0
:10334000B8EE400ADFED070AB4EEE00AF1EE10FA3B
:1033500004DB0020088001200349087010BD000034
:103360001C0200200000C8421E02002010B50121EE
:10337000214800F08EF801283CD101211E4800F0C0
:1033800079F81E480068401C1C490860084600681F
:103390004FF6FF7190FBF1F201FB12001749086034
:1033A00017480068401C16490860086800EBD07197
:1033B0004910A0EB4101A9B1124890ED180A12483A
:1033C00080ED000A0F4890ED190A104880ED000AC0
:1033D0000D4890ED000A02F035F90C4890ED000A16
:1033E00002F036F906480068B0F5C87F02DD00201B
:1033F0000349086010BD00000004004020020020C6
:103400002C02002074020020240200202802002048
:1034100010B50121074800F03CF8012808D101212E
:10342000044800F027F802F06BF80349C1F868017E
:1034300010BD0000000800407402002010B50121FA
:10344000044800F026F8012803D10121014800F0CA
:1034500011F810BD000C004010B50121044800F027
:1034600018F8012803D10121014800F003F810BD2C
:1034700000040140CA430282704721B1028842F031
:103480000102028004E002884FF6FE731A400280B7
:10349000704730B50246002000230024158A05EA53
:1034A0000103958905EA010413B10CB1012000E084
:1034B000002030BD1AB183890B43838102E08389E8
:1034C0008B438381704700002DE9FF4104460D4680
:1034D00016461F46DDF828806949601A8C4270D074
:1034E0001ADC6849A4EB01008C426CD00ADCB4F110
:1034F000804F4ED064482044002852D0B0F5806FF1
:1035000071D156E0B0F5806F65D0B0F5006F6CD02A
:10351000B0F5406FF4D170E0B0F5923F21D009DCF6
:10352000B0F5806F7AD0B0F5644F0AD0B0F5684F2F
:103530007CD10EE0B0F5943F1BD0B0F5963F75D12D
:103540001FE001210846FFF7A9FC19208DF80000B3
:103550006DE001210220FFF7A1FC2C208DF8000076
:1035600065E001210804FFF799FC18208DF80000A0
:103570005DE001211920FFF791FC2C208DF800005F
:1035800055E001218804FFF789FC1A208DF800001E
:103590004DE001210846FFF761FC1C208DF800007A
:1035A00045E001210220FFF759FC1D208DF80000A5
:1035B0003DE001210420FFF751FC1E208DF80000A2
:1035C00035E023E0FFE701210820FFF747FC322028
:1035D0008DF800002BE001211020FFF73FFC362082
:1035E0008DF8000023E021E0FFE701212020FFF714
:1035F00035FC37208DF8000019E001214020FFF74D
:103600002DFC2B208DF8000011E007E00121802027
:10361000FFF724FC2C208DF8000008E001210802AF
:10362000FFF71CFC2D208DF8000000E000BF00BF5C
:103630000295ADF804600020ADF80C00ADF806006E
:1036400001A9204600F022F801212046FFF712FFD1
:10365000012211462046FFF72DFFF8B28DF8010038
:1036600008F0FF008DF8020001208DF80300684685
:10367000FFF7F4FA01212046FFF7FFFEBDE8FF81C6
:10368000001C0040000C004000FCFFBF002202882C
:10369000184B98420ED0184B98420BD0B0F1804F87
:1036A00008D0164B984205D0154B984202D0154BC6
:1036B000984204D14FF68F731A404B881A43124B2D
:1036C000984207D0114B984204D04FF6FF431A405E
:1036D0000B891A4302804B68C3620B880385054B34
:1036E000984202D0044B984201D18B7A0386012381
:1036F0008382704700000140000401400004004044
:1037000000080040000C0040001000400014004081
:103710001CB501210420FFF791FB01211020FFF7C8
:103720008DFB0120009000208DF8040003208DF80F
:10373000050002208DF8070000208DF8060069467C
:103740000A48FFF778F80420009000208DF8040064
:1037500003208DF8050002208DF8070000208DF869
:10376000060069460248FFF766F81CBD00080240E3
:1037700000100240B4EEE00AF1EE10FA01DD002084
:1037800070470120FCE7000010B590B0044601210D
:103790004805FFF753FB204600F072F92248FEF778
:1037A00017FF00BF2048FEF7BFFF0028FAD14FF0F7
:1037B000006001901D4802901D4803904020049035
:1037C0000020059006904FF480600790002008903C
:1037D00009900A904FF400300B9000200C900120CB
:1037E0000D9000200E900F9001A90F48FEF7F6FFF4
:1037F000012280210D48001F00F094FB01221021BE
:103800000948FEF7CDFF2F208DF8000002208DF82B
:1038100001008DF8020001208DF803006846FFF7D3
:103820001DFA10B010BD0000B86002400450004006
:10383000E803002010B52DED028B0821864800F02A
:10384000D5FB48B140F22551834800F050FB834836
:1038500000F015FDC4B2FCE040F225517F4800F0B5
:10386000D2FB0128F7D140F225517C4800F03FFB04
:103870007A4800F004FDC4B279480068092871D282
:10388000DFE800F0051D3966717B859EB800732C5A
:1038900005D173480068401C714908600EE0612C36
:1038A00003D107206E49086008E0742C03D103207F
:1038B0006B49086002E0002069490860C8E0392CC3
:1038C00001DC302C01DA2E2C09D1664866490968E2
:1038D000445465480068401C634908600AE00D2CA8
:1038E00005D15F480068401C5D49086002E0002087
:1038F0005B490860ACE00020594908600A2C1BD1E4
:10390000584800F075FDB0EE408AF0EE608A51EC48
:10391000180B01F0EFFE5549C860084690ED030A08
:10392000DFED530A20EE200ABDEEC00A10EE102A89
:1039300050A14A4800F020FC002003E00021494A41
:103940001154401C0828F9D30020474908607FE043
:10395000652C03D104204249086002E00020404960
:10396000086075E073E0732C03D105203C490860C2
:1039700002E000203A4908606AE0742C03D1062076
:103980003749086002E000203549086060E0002007
:1039900033490860312C03D10120374908600EE01B
:1039A000322C03D102203449086008E0332C03D1C3
:1039B00003203149086002E000202F49086047E0F9
:1039C000392C01DC302C01DA2E2C09D12B48264968
:1039D0000968445424480068401C2349086008E0F2
:1039E0000D2C03D108201E49086002E000201C496C
:1039F00008602DE000201A4908600A2C1BD11F48DE
:103A000000F0F6FCB0EE408AF0EE608A51EC180B44
:103A100001F070FE15494860084690ED010ADFED9F
:103A2000140A20EE200ABDEEC00A10EE102A11A1E1
:103A30000A4800F0A1FB002003E000210F4A1154C6
:103A4000401C0828F9D300200749086000E000BFA7
:103A500000BFBDEC028B10BD0010014000500040C3
:103A6000E0010020E4010020F401002074020020A5
:103A700000007A4425640000A8010020EC01002029
:103A800010B588B0044601940020ADF80800ADF8E8
:103A90000A00ADF80C00ADF810000C20ADF80E00D7
:103AA0000121FFF7CBF901210805FFF7D7F92548D8
:103AB00000F042FA08220C212348FEF704FF0822F6
:103AC00002212248FEF7FFFE00208DF81A00012097
:103AD0008DF81B0002208DF81800C002059002200E
:103AE0008DF8190005A91848FEF7A5FE02208DF8EB
:103AF00018000420059005A91448FEF79CFE01A9B2
:103B0000104800F0CFFA35208DF81C0001208DF808
:103B10001F0000208DF81D0002208DF81E004FF4BC
:103B2000A060FFF7D7F807A8FFF798F8012240F246
:103B30002551044800F091FA0121024800F0E6F90D
:103B400008B010BD0050004000080240000C0240C8
:103B500010B50821374800F049FA50B140F225511C
:103B6000344800F0C4F9334800F089FB324908704A
:103B70005FE040F225512F4800F045FA012858D166
:103B800040F225512B4800F0B2F92A4800F077FBAB
:103B9000294908702948006820B1012810D002285E
:103BA00042D124E024480078412805D12348006808
:103BB000401C2249086002E000202049086037E0EC
:103BC0001D4800781E491F4A126888541D48006825
:103BD000401C1C49086008460068042806DB0020D9
:103BE000086016480068401C1449086020E012482C
:103BF0000078522803D101211348016110E00E48DA
:103C0000007856280CD10E490868C11700EB1151F5
:103C1000091300EE101AB8EEC00A0B4981ED070A2D
:103C200000200649086003E000200449086000BF46
:103C300000BF10BD0010014000020020F80100206C
:103C400004020020FC0100207402002010B50821AD
:103C5000334800F0CBF928B140F22551304800F04C
:103C600046F95CE040F225512D4800F0CCF90128DE
:103C700055D140F225512A4800F039F9284800F082
:103C8000FEFA2849087008460078C5280FD10020A0
:103C900025490860254908602548006825490860CD
:103CA0000846006801F0BCFC0020214908601E485D
:103CB000006820B101280CD002282ED117E0194845
:103CC0000078C62804D118480068401C16490860CE
:103CD00024E01448007841B21748144A126800F8EA
:103CE000121011480068401C0F49086016E00D488A
:103CF000017811480D4A126800EB42004170012022
:103D00000949086009480068401C084908600848DB
:103D10000068401C0649086000E000BF00BF10BDFD
:103D200000440040C40100201002002014020020C2
:103D3000BC0100200C0200205803002010B5012017
:103D40005C49C1F86C0140F225515B4800F05BF919
:103D500001287DD140F22551574800F0C8F8564857
:103D600000F08DFA55490870012055490860554802
:103D7000007805286DD2DFE800F00311263D4B00E6
:103D80004E4800780D2805D14E480078401C4D491A
:103D9000087002E000204B49087085E04748007831
:103DA0000A2808D100204849087046480078401C7D
:103DB0004449087006E0414800780D2802D00020F0
:103DC0004049087070E03D48007840493E4A12780A
:103DD00088543D480078401C3B49087008460078EC
:103DE000182806DB0020087036480078401C35494A
:103DF000087059E0314800780A2805D13148007828
:103E0000401C3049087002E000202E4908704BE049
:103E10002A4800780D283FD12C4890ED000A2C4804
:103E200080ED000A294890ED010A80ED010A90ED2D
:103E3000020A80ED020A90ED030A264880ED000A8E
:103E4000224890ED040A244880ED000A1F4801E052
:103E50002BE025E090ED050A80ED050A1D4890ED68
:103E6000000A01F0E3FB1C4890ED000A01F0E4FBBE
:103E7000174890ED000A01F0C7FB01F0FFF90D486B
:103E800080ED180A01F076FA0A4880ED190A01F06F
:103E900075F9084880ED170A00200A49087003E008
:103EA00000200849087000BF02E0034800F0E7F96D
:103EB00010BD0000740200200048004008020020ED
:103EC000B8010020090200200A0200203804002066
:103ED000AC010020B0010020B401002001F4007208
:103EE000B2F5007F00D100BFCA430280704710B511
:103EF0000022002340F66A14A14200D100BF0A123A
:103F000001249440A3B2DC43048010BD21B1828916
:103F100042F40052828104E082894DF6FF731A4018
:103F2000828170471AB1838A0B43838202E0838ABD
:103F30008B4383827047000010B5044625488442B5
:103F400008D101211020FEF7B9FF00211020FEF753
:103F5000B5FF3EE02048844209D101214804FEF724
:103F60008DFF00214FF40030FEF788FF31E01B4841
:103F7000844209D101218804FEF780FF00214FF41B
:103F80008020FEF77BFF24E01548844209D10121FF
:103F9000C804FEF773FF00214FF40020FEF76EFF08
:103FA00017E01048844209D101210805FEF766FF99
:103FB00000214FF48010FEF761FF0AE00A488442B6
:103FC00007D101212020FEF779FF00212020FEF7F4
:103FD00075FF10BD00100140004400400048004043
:103FE000004C0040005000400014014002460020F8
:103FF000B1F5007F00D100BF13880B400BB1012049
:1040000000E00020704770B5024600240023002520
:10401000002040F66A16B14200D100BFC1F342153C
:1040200001F01F03012606FA03F3012D02D1968940
:10403000334006E0022D02D1168A334001E0968A11
:1040400033400C12012606FA04F41688344013B1EA
:104050000CB1012000E0002070BDF0B50346002443
:1040600000260025002040F66A17B94200D100BFA3
:104070001846C1F3421401F01F06012707FA06F59E
:10408000012C01D10C3004E0022C01D1103000E0F1
:1040900014301AB107682F43076002E00768AF4386
:1040A0000760F0BD2DE9FF4705460E460024A146F6
:1040B00000BFA046B08900B100BF2C8A24F4405450
:1040C000F08804432C82AC8941F20C608443B088B0
:1040D00031890843718908430443AC81AC8A24F4D4
:1040E0004074B0890443AC826846FEF7F7FE20486E
:1040F000854202D01F48854202D1DDF80C9001E0D4
:10410000DDF80890A88900F4004040B109EBC9002F
:1041100000EB091031684900B0FBF1F707E009EB4B
:10412000C90000EB091031688900B0FBF1F7642089
:10413000B7FBF0F004012009642101FB1078A88985
:1041400000F4004040B1322000EBC800B0FBF1F0B9
:1041500000F00700044308E0322000EB081064215F
:10416000B0FBF1F000F00F0004432C81BDE8FF87A5
:1041700000100140001401400FB470B586B006462F
:104180000CA8019073E00B9800785C281CD10B9868
:10419000401C0B9000786E2809D072280FD10D2199
:1041A000304600F071F80B98401C0B900BE00A2190
:1041B000304600F069F80B98401C0B9003E00B9818
:1041C000401C0B9000BF4BE00B980078252840D195
:1041D0000B98401C0B900078642818D0732833D1BA
:1041E000019810C801900BE02178304600F04CF89F
:1041F00000BF40213046FFF7F9FE0028F9D0641CCB
:1042000020780028F0D10B98401C0B9020E00198FA
:1042100020C801900A2202A9284601F027F902AC21
:104220000BE02178304600F02FF800BF40213046E7
:10423000FFF7DCFE0028F9D0641C20780028F0D1BC
:104240000B98401C0B9003E00B98401C0B9000BF98
:1042500006E00B9810F8011B0B90304600F014F8A4
:1042600000BF40213046FFF7C1FE0028F9D00B986F
:104270000078002887D106B070BC5DF814FB0146B9
:104280008888C0F30800704730B504460D4600BF6B
:1042900080212046FFF7AAFE0028F9D08021204681
:1042A000FFF71CFE40212046FFF718FEC5F308006B
:1042B000A08030BD00BFFEE72DE9F04794B08146F5
:1042C0000D4616461F4600243822364906A8FBF73D
:1042D000F9FF05F540700190029000208DF80C0068
:1042E0008DF80D0008208DF80E000D960F972E49C1
:1042F00011914942139100BF4EE006A810F8340016
:104300008DF80F0006A830F83400010A8DF810105F
:1043100006A850F83400010C8DF8111006A850F8CA
:104320003400000E8DF8120006A800EBC4000179DD
:104330008DF8131006A800EBC4008088010A8DF8E0
:10434000141006A800EBC4004068010C8DF815108D
:1043500006A800EBC4004068000E8DF8160001A905
:104360004846FDF791FF82464FF000080BE008F148
:10437000010842F21070804505D103220BA10E48BE
:10438000FFF7FAFE05E051464846FEF711F801280E
:10439000EDD100BF601CC4B2072CAEDB14B0BDE889
:1043A000F087000084630008C0E1E4007374756363
:1043B0006B202564000000000050004003B4019809
:1043C0004100009850EAC12018BF04204A0D18BFD0
:1043D00040F0010040F2FF72B2EB515F08BF40F0C5
:1043E0000200012808BF052002B07047000000004D
:1043F00030B583B00446FBF79AFF9FED090B0546E5
:104400008DED000B002221466846FBF7B9FF2846D8
:10441000FBF792FF9DED000B03B030BD00000000E4
:10442000000000000000000010B52F499FED2C1B7C
:104430002DED020B84B0059820F000408842D8BFD3
:104440009DED040B2DDD2949884209D1049840B91E
:104450004FF00100FBF770FF00F016FD06B010BD35
:1044600005DB9DED040B00F003FD06B010BD6846B2
:104470009DED040B00F014F910F0030004BF9DED56
:10448000021B9DED000B0CD001280ED09DED021BF0
:104490009DED000B022817D0012000F051FC06B062
:1044A00010BD00F019FB06B010BD9DED021B9DED87
:1044B000000B012000F044FC51EC100B01F00EF950
:1044C00006B041EC100B10BD00F006FB51EC100BD8
:1044D00001F004F906B041EC100B10BD0000000023
:1044E0000000000000000000FB21E93F0000F07F19
:1044F0002DED020B019820F0004001909DED000B86
:1045000002B070470000000030B540F2FF742DED9E
:10451000048BF0EE608A18EE901A85B0B0EE408AF7
:104520009FED2B9B05468DED008B34EA115147D052
:1045300053EC192B51EC180B01F022FB40D02A460A
:1045400051EC180B01F0C5FE41EC180B18EE900A67
:104550008DED008B34EA10501CD053EC192B51EC2C
:10456000180B01F00DFB2BD10220FBF7E5FE00F04C
:10457000ABFC10EE901A18EE900A8DED020B8DED4B
:10458000008B61F31E0003909DED020B05B0BDECA6
:10459000048B30BD0220FBF7CFFE00F085FC10EE4F
:1045A000901A18EE900A8DED020B8DED008B61F3E1
:1045B0001E0003909DED020B05B0BDEC048B30BDD9
:1045C00005B0B0EE480AF0EE680ABDEC048B30BDD1
:1045D000000000000000000010B52F499FED2C1BCB
:1045E0002DED020B84B0059820F000408842DCBF1E
:1045F00000209DED040B32DD2849884209D1049842
:1046000040B94FF00100FBF797FE00F03DFC06B00B
:1046100010BD05DB9DED040B00F02AFC06B010BDBB
:1046200068469DED040B00F03BF810F0030011D03C
:10463000012818D09DED021B9DED000B02281AD019
:1046400000F04AFA51EC100B01F048F806B041ECCA
:10465000100B10BD9DED021B9DED000B012000F025
:104660006FFB06B010BD9DED021B9DED000B00F031
:1046700033FA06B010BD012000F062FB51EC100BC4
:1046800001F02CF806B041EC100B10BD000000004A
:104690000000000000000000FB21E93F0000F07F67
:1046A0002DE9F14F04462DED020B2DED088B8AB05C
:1046B0009FEDE70B80ED020B139EE74826F00045C7
:1046C00085420ADC9DED120B002084ED000B0AB040
:1046D000BDEC088B03B0BDE8F08FE0489FEDE0AB88
:1046E0009FEDE1BBA84247DDE14F9FEDE39B9FEDCE
:1046F000E48B9DED120B53EC1A2B51EC100B002E9A
:104700001CDD01F04FFC41EC100BBD4208D053EC16
:104710001B2B51EC100B01F045FCC4E900010BE030
:1047200053EC192B51EC100B01F03CFC53EC182B03
:1047300001F038FCC4E900010120C8E701F00CF8E1
:1047400041EC100BBD4208D053EC1B2B51EC100B6D
:1047500001F002F8C4E900010BE053EC192B51EC15
:10476000100B00F0F9FF53EC182B00F0F5FFC4E933
:1047700000014FF0FF30AAE7C348A84279DB9DED66
:10478000120B51EC100B00F0A5FC41EC180B9FED47
:10479000C00B53EC102B01F0C5FA9FEDBF1B53EC7F
:1047A000112B00F0D9FF01F027FA074601F053FA68
:1047B00041EC190B53EC1A2B01F0B4FA53EC182B03
:1047C00001F0E4FB41EC180B53EC1B2B51EC190BE3
:1047D00001F0A8FADFF8C8A241EC100B4FEA155817
:1047E0000125FA4453EC102B51EC180B01F0DAFBC5
:1047F000032DC4E900013DD0C1F30A5005EB45117A
:10480000A8EB00001139814234DA0AEB051BB0EE47
:1048100048AA9BED000BF0EE68AA53EC102B51EC6C
:10482000190B01F07FFA41EC1B0B51EC1A0B53EC06
:104830001B2B01F0B7FB41EC180B51EC1A0B53EC9E
:10484000182B01F0AFFB53EC1B2B01F0ABFB9BEDE6
:10485000020B41EC1A0B53EC102B51EC190B01F02D
:1048600061FA53EC1A2B01F09DFB41EC100B6D1C0F
:10487000B8E70EE0002EA8BF3846BFF628AF94ED8B
:10488000000B51EC100B00F029FFC4E90001784245
:104890001DE7C6F3130040F4801EC6F30A50A0F2D1
:1048A000F530471100F01F05C5F12000DDF848B0D4
:1048B00008900020069007900520EC467949002DCD
:1048C00007EB0002794408BF51F8221009D051F8D3
:1048D000223001EB8201AB404A68089922FA01F1CB
:1048E0001943A1FB0E26A1FB0B131A449A4234BFB5
:1048F0000123002303EB06080CEB8003D3E901A698
:104900000E448E4234BF0121002192448A4411B1E9
:10491000924502D903E0924501D2012100E0002135
:10492000C3E901A641444CF82010011EA0F101008A
:10493000C4DC029800F10050850F0298DDE903679E
:104940008000DDF8148001F086F941EC1A0B304646
:1049500001F098F99FED541B53EC112B01F0E2F993
:1049600041EC1B0B384601F08DF99FED511B53ECC8
:10497000112B01F0D7F941EC180B404601F082F9F8
:104980009FED4D1B53EC112B01F0CCF941EC190BB1
:1049900051EC180B53EC192B00F0DEFE53EC1B2BE3
:1049A00000F0DAFE53EC1A2B00F0D6FECDE9080138
:1049B000002008909DED080B53EC1A2B51EC100BC6
:1049C00001F0F0FA53EC1B2B01F0ECFA53EC182B2E
:1049D00001F0E8FA53EC192B01F0D8FA9FED381BDF
:1049E00053EC112B01F09EF99FED370B41EC180BA6
:1049F00053EC102B9DED080B51EC100B01F092F9CC
:104A000053EC182B00F0A8FE9FED310B41EC180B76
:104A100053EC102B9DED080B51EC100B01F082F9BB
:104A200053EC182B00F098FE41EC100B139810F08B
:104A3000004F06D06D4251EC100B00F04FFE41ECE0
:104A4000100B284684ED000B41E60000000000003A
:104A50000000000000000000FB21E93F7CD902407B
:104A600000004054FB21F93F3163621A61B4D03D2C
:104A7000FB21F93F000000000000601A61B4D03D46
:104A80007370032E8A19A33BFB21394100000000FB
:104A900083C8C96D305FE43F000000000000E03FC4
:104AA000CA1C0000181C0000000000000000103E9E
:104AB000000000000000103C000000000000103A60
:104AC000182D4454FB21F93D3326A611460B113C09
:104AD00000000054FB21F93D10B52DED040B2DED28
:104AE000088B82B0B0EE419AF0EE619A0B9820F0FC
:104AF00000449FED4BABB4F1795F11DA9DED0A0BE9
:104B000051EC100B01F078F8002801BFB0EE4A0A12
:104B1000F0EE6A0A02B0BDEC088B04BF04B010BD11
:104B20009DED0A0B53EC102B51EC100B01F0FAF831
:104B300041EC180B3C480621B0EE480AF0EE680A3A
:104B4000784400F081F853EC182B51EC100B01F075
:104B5000E9F89DED0A0B41EC1B0B53EC192B51ECC2
:104B6000100B01F0DFF841EC190B53EC1B2B51EC4F
:104B7000180B01F0D7F853EC192B01F013FA9FED45
:104B80002C0B41EC190B53EC102B51EC180B01F0D2
:104B9000C9F841EC100B2848844210DA53EC192B69
:104BA00051EC100B01F0FEF953EC1A2B01F0EEF969
:104BB00041EC100B02B0BDEC088B04B010BD1F48D7
:104BC000A042BCBF9FED1E1B8DED001B06DBA4F5B4
:104BD00000100190002000909DED001B51EC100B87
:104BE00053EC112B01F0DEF99DED000B41EC180B9D
:104BF00053EC102B51EC1A0B01F0D4F941EC1A0BC9
:104C000053EC192B51EC180B01F0CCF953EC1A2B87
:104C100001F0BCF941EC100BCCE7000000000000F3
:104C2000000000000000F03F3C1900000000000000
:104C3000000000000000E03F3333D33F0000E93FB5
:104C4000000000000000D23F70B504462DED028B3D
:104C50004D1E00EBC500B0EE408AF0EE608A90ED8C
:104C6000000B35F0060017D053EC182B51EC100B4D
:104C700001F058F841EC100B6D1E04EBC50090EDEF
:104C8000001B51EC100B53EC112B00F065FD41ECB7
:104C9000100B35F00600E7D1022D36D0042D1CD0C4
:104CA000062D1CBFBDEC028B70BD53EC182B51ECD4
:104CB000100B01F037F894ED0A1B53EC112B00F0A8
:104CC0004BFD53EC182B01F02DF894ED081B53EC21
:104CD000112B00F041FD41EC100B53EC182B51EC63
:104CE000100B01F01FF894ED061B53EC112B00F094
:104CF00033FD53EC182B01F015F894ED040B53EC35
:104D0000102B00F029FD41EC100B53EC182B51EC4B
:104D1000100B01F007F894ED021B53EC112B00F07F
:104D20001BFD53EC182B00F0FDFF94ED001B53EC22
:104D3000112B00F011FDBDEC028B41EC100B70BD8E
:104D400031B504462DED040B2DED0A8BB0EE41BAC2
:104D5000F0EE61BA0B989DED0A0B20F00040B0F127
:104D6000795F0DDA51EC100BFFF728FB042808BF20
:104D700000F0AAF89DED0A0BBDEC0A8B05B030BD22
:104D800053EC102B51EC100B00F0CCFF41EC180B46
:104D90009DED0A0B53EC182B51EC100B00F0C2FFE9
:104DA00041EC190B2C48B0EE480AF0EE680A0521D8
:104DB0007844FFF749FF9FED2ACBB0EE40AAF0EE12
:104DC00060AA9CB353EC1C2B51EC190B00F0AAFF0A
:104DD00041EC1C0B53EC1A2B51EC190B00F0A2FF09
:104DE0009FED210B41EC190B53EC102B51EC1B0BDD
:104DF00000F098FF53EC192B01F0D4F853EC182B6A
:104E000000F090FF53EC1B2B01F0CCF853EC1C2B63
:104E100001F0C8F89DED0A1B53EC112B01F0B6F818
:104E2000BDEC0A8B05B041EC100B30BDFFE753EC35
:104E30001A2B51EC180B00F075FF53EC1C2B00F0F3
:104E40008BFC53EC192B00F06DFF9DED0A1B53EC0E
:104E5000112B00F081FCE3E7C41700000000000004
:104E6000495555555555C5BF000000000000E03FAD
:104E700010B553EC102B51EC100B00F06DFC41EC15
:104E8000100B10BD000000009FED050B10B553EC9A
:104E9000102B51EC100B00F01BFD41EC100B10BD62
:104EA00000000000000000009FED050B10B553EC62
:104EB000102B51EC100B00F035FF41EC100B10BD26
:104EC00000000000000000709FED050B10B553ECD2
:104ED000102B51EC100B00F025FF41EC100B10BD16
:104EE000000000000000001030B504462DED048BDA
:104EF00081B06A4691ED008B51EC180B00F0F8F888
:104F000000989FED239B7E300090002821DC53EC1D
:104F1000192B51EC180B00F033FE1AD0002140F68B
:104F200008004FF00000054651EC180B00F0E2FBC2
:104F300008EE100A40F6080005EA00014FF00000F4
:104F4000B5EEC08AF1EE10FA04BF0220FBF7F4F9C7
:104F500017E00098FF280EDB0220FBF7EDF953EC79
:104F6000192B51EC180B00F0DBFF8CBF9FED0A8A68
:104F70009FED0A8A05E051EC180B00F0BBFB08EE30
:104F8000100A84ED008A01B0BDEC048B30BD000036
:104F90000000000000000000000080FF0000807F93
:104FA00010B5044690ED000B0846FFF7ADFA84ED0E
:104FB000000B10BD30380A2801D2012070470020B4
:104FC0007047000010B50D4800F074F801210B483F
:104FD00000F016F80221094800F012F84CF25033A4
:104FE0001A4601210548FFF767F94CF250331A467B
:104FF00002210248FFF760F910BD00000068004080
:10500000F0B587B006460C46254903C9CDE9050130
:1050100004F540700090019000208DF808008DF894
:10502000090008208DF80A000598C0B28DF80B0021
:105030000598010A8DF80C100598010C8DF80D10DB
:105040000598000E8DF80E000698C1B28DF80F106D
:105050000698010A8DF810100698010C8DF81110B1
:105060000698000E8DF8120069463046FDF70CF9DF
:10507000074600250AE06D1C42F21070854205D1FA
:10508000012208A10A48FFF777F805E039463046C3
:10509000FDF78EF90128EED100BF07B0F0BD00008A
:1050A00074630008737475636B202564000000004E
:1050B000005000401CB50446054903C9CDE9000174
:1050C00008236A4600212046FDF7C2F91CBD0000F6
:1050D0006C63000882B0CDE9000121F0004001902E
:1050E0009DED000B02B051EC100B7047000000006A
:1050F00010B582B01446CDE900010023009A236068
:10510000194B21F0004098422ADA024328D0B0F52A
:10511000801FA8BF226810DA9FED150B53EC102BEF
:105120009DED000B51EC100B00F0FCFDCDE90001F2
:105130006FF0350221F0004022600F4B6FF31E51DB
:1051400003EB20501044206041F0FF5040F000502D
:1051500001909DED000B00BF02B051EC100B10BD93
:105160009DED000BF8E700000000F07F000000005C
:10517000000000000000504302FCFFFF204890EDBB
:10518000000A2048D0ED000A30EE200ADFED1E0AAA
:10519000B4EEE00AF1EE10FA0CDD194890ED000AC9
:1051A0001848D0ED000A30EE200ADFED180A30EE84
:1051B000600A7047124890ED000A1248D0ED000ACC
:1051C00030EE200ADFED120AB4EEE00AF1EE10FA3A
:1051D0000CD20B4890ED000A0A48D0ED000A30EEE0
:1051E000200ADFED0A0A30EE200AE2E7044890EDDB
:1051F000000A0448D0ED000A30EE200AD9E700008A
:105200003C01002048010020000034430000B4436A
:10521000000034C310B5C8210F20FDF79DFB00EE40
:10522000100AF8EE400A9FED030A9FED031A01EE03
:10523000200A10BDCDCCCF432506713F10B5C82143
:105240000E20FDF789FB00EE100AF8EE400A9FEDF4
:10525000030A9FED031A01EE200A10BD66E6D34350
:105260001748703F0448017821B10020024A1070AD
:10527000012070470020FCE71E02002010B52DED34
:10528000108B3648006800F077FF41EC190B34486A
:1052900090ED000AB1EE400ADFED320A20EE200A5E
:1052A000DFED310A80EE201A11EE104A204600F0A0
:1052B00063FF41EC1F0BB0EE4F0AF0EE6F0AFFF7F1
:1052C0008BF9B0EE40DAF0EE60DA2848006800F0C2
:1052D00053FF41EC1E0B53EC1D2B00F023FD41EC62
:1052E0001B0B1F4890ED000AB1EE400ADFED1D0ACE
:1052F00020EE200ADFED1C0A80EE201A11EE104A83
:10530000204600F039FF41EC1F0BB0EE4F0AF0EEE3
:105310006F0AFFF789F8B0EE40DAF0EE60DA144871
:10532000006800F029FF41EC1E0B53EC1D2B00F030
:10533000F9FC41EC1C0B53EC1B2B00F033FE41EC51
:105340001A0B53EC192B00F007FA41EC180B00F084
:10535000D1F900EE100ABDEC108B10BD4C010020FD
:1053600048010020DB0F4940000034434401002085
:105370004001002010B52DED108B3648006800F07C
:10538000FBFE41EC190B344890ED000AB1EE400AE7
:10539000DFED320A20EE200ADFED310A80EE201A1E
:1053A00011EE104A204600F0E7FE41EC1F0BB0EE74
:1053B0004F0AF0EE6F0AFFF737F8B0EE40DAF0EE82
:1053C00060DA2848006800F0D7FE41EC1E0B53EC71
:1053D0001D2B00F0A7FC41EC1B0B1F4890ED000AB1
:1053E000B1EE400ADFED1D0A20EE200ADFED1C0AB7
:1053F00080EE201A11EE104A204600F0BDFE41EC6E
:105400001F0BB0EE4F0AF0EE6F0AFFF7E5F8B0EEB3
:1054100040DAF0EE60DA1448006800F0ADFE41ECCE
:105420001E0B53EC1D2B00F07DFC41EC1C0B53ECD0
:105430001B2B00F091F941EC1A0B53EC192B00F0E7
:105440008BF941EC180B00F055F900EE100ABDEC99
:10545000108B10BD5001002048010020DB0F494097
:10546000000034434401002040010020F0B5034611
:105470000D461646002729460A2E03D00020087044
:105480002846F0BD33B9302001F8010B0020087028
:105490002846F6E7002B03DA2D2001F8010B5B42CA
:1054A0000A4A0DE0B3FBF2F404B937B104F130005D
:1054B00001F8010B04FB123301270A20B2FBF0F2C2
:1054C000002AEFD1002008702846DAE700E1F50550
:1054D00010B500F08DF880210748FDF720FA09E0AB
:1054E00004E001210548C163FDF7E4FDFFF7BAFEC2
:1054F0000028F6D1F4E700000010024074020020FA
:1055000010B54FF480713248FDF700FA48B93148C0
:1055100090ED000AF7EE000A30EE200A80ED000A56
:105520004DE02C4890ED000AB5EEC00AF1EE10FAFD
:1055300040DD2948D0ED130A90ED101A70EE810A73
:10554000B0EE600AFDF762FC2248D0ED000A20EEC2
:10555000200AF6EE000A20EE200A9FED201AC0EE87
:10556000010A9FED1F0A30EE800A1E4880ED000AF6
:1055700090ED000AF1EE040AB4EEE00AF1EE10FA42
:105580000FD21948D0ED000A164890ED000ABDEE82
:10559000C00AB8EEC00A30EE800A134880ED000A57
:1055A00008E0114890ED000AF7EE000A30EE200AFC
:1055B00080ED000A9FED0D0A064880ED000A0A48BA
:1055C00090ED000ABDEEC00A10EE100A10BD0000FA
:1055D00000100240880100207402002000001842E0
:1055E0003333333F900100208C0100200000000085
:1055F00010B54FF4A060FDF76DFBFDF7C3F9FFF7A1
:10560000E1FC00F02BF810BD014880ED000A704766
:105610003C01002001490860704700005002002052
:1056200001490860704700004C020020014880EDED
:10563000000A704740010020014880ED000A7047D1
:1056400044010020014880ED000A7047400200201C
:10565000014880ED000A70474402002019200749E4
:10566000087000210548C0F89010491EC0F8841049
:105670009FED030A80ED280A7047000074020020A5
:105680000000000010B500290AD00878002807D0D3
:1056900005487844FBF7D6F9002801D0002010BD5A
:1056A0000248784410BD0000CA0F0000C20F00007D
:1056B00010B500290AD00878002807D0054878449A
:1056C000FBF7C0F9002801D0002010BD0248784443
:1056D00010BD0000BA0F0000B20F000081F00041C1
:1056E000704780F00040704721F00041704720F083
:1056F0000040704721F00042A2F16052B2F5801FD5
:1057000001F0004328BFD2F17F6C0BD95FEA001C87
:1057100043EAC20242EB507018BF704728BF20F026
:1057200001007047B2F5801FBCBF184670474FEAB2
:10573000410C1CF5001F02D2084600F093BD70B565
:1057400000F09AFB00000089FFF7F6BF4FF0004021
:10575000A0F580007047000010B591EA030F48BF24
:1057600083F0004300F12684841A71EB030C05D208
:10577000121943EB0C03001B61EB0C01DFF824E171
:105780004FEA1154A4EB135C1EEA430F18BF9EEAC4
:10579000445F73D023EA0E03DCF1200E21EA0451AA
:1057A00043F4801332D322FA0CFE10EB0E0023FADE
:1057B0000CFE41EB0E01CCF1200E03FA0EFE10EBB5
:1057C0000E0051F10001B1F5801FCCF1200E32D254
:1057D00001EB045112FA0EF2BDE8104058BF7047B9
:1057E000401C38BF5FEA420218BF7047002814BF50
:1057F00020F0010041F100014FEA410313F5001FC1
:1058000038BF7047A1F1C04100F084BB012A43EBCF
:105810000302ACF1200CDCF11F0E32BF4FF0000E82
:1058200023FA0CF310EB030041EB0451B4EB115FCE
:10583000D0D0A1EB045101F5801149085FEA300096
:1058400001EB04510ED350F1000038BF12FA0EFEE6
:1058500008D1BDE81040C9E7401C38BF5FEA4202EA
:10586000CAD1C3E7BDE810404FEA410313F5001F5A
:1058700038BF7047A1F1C04100F04CBB9EEA445FC5
:1058800008D011EA5E0FBDE8104004BF01F00041EE
:1058900000207047BDE8104070B500F0EDFA00BF81
:1058A00064FBBE3E0000E0FF02494FF0000000F044
:1058B000DEBC00BF0000F87F491058BFC1F1404175
:1058C0005B1058BFC3F140438B42EFF30080704739
:1058D0002DE9C04130B4DFF8A0C23CEA111418BF72
:1058E0003CEA131400F0EC8081EA03051CEA111471
:1058F00044EAD57418BF1CEA131500F0C780A4EB66
:1059000005044FF0004545EAC12145EAC32341EAB9
:10591000505143EA525304F17F74994204F5003424
:105920004FEAC0204FEAC22208BF904200F09C809C
:105930004FEA13650FF24016765D4FEA134506FBFA
:1059400005F7C7F1807706FB07F74FEAD737A7FBC4
:1059500003687642C8F58038A7FB06CE38BFA8F1A9
:10596000010807FB08E64FF0000EA6FB028CE6FBE1
:1059700003CEDCF1000CCEF1004E38BFAEF1010ECB
:10598000A6FB0C584FF000074FF00005E6FB0E8712
:10599000A1FB08C6A0FB07CE16EB0E0645F10005DD
:1059A000E1FB076515F1E04E7EBFA4F580345FEAA8
:1059B00046066D4116F1800745F100054FEA1727AD
:1059C0004FEA066647EA0567A6F1DE46B6F1805F54
:1059D0004FEA15251FD9384624F0010C05EBC47198
:1059E000BCF1FE6F01EB0C1102D8F0BCBDE80081E8
:1059F00024425CBF01F5801E9EEAC47F02D4F0BC45
:105A0000BDE80081244238D4F0BCA1F1C041BDE81A
:105A1000004100F07FBA4FEAD22242EA43524FEAF5
:105A2000D323A7FB02864FEAD02040EA415007FB70
:105A300003661EEA0E0F4FEAD12105FB026658BF2E
:105A4000A6EB0056B6EB00564FEA520E4EEAC37E66
:105A500018EB0E0E56EB530EBDD518EB02085E4147
:105A60007F1C55F10005B6E74FF480154FF0000795
:105A70004FF000064FF00008ADE7F0BC4FF000001B
:105A800001F1C04101F00041BDE8008111EA0C1FA5
:105A90000CEA131500D00CE013EA0C1F00F025806F
:105AA0004FF00000F0BC81EA030101F00041BDE8C5
:105AB0000081F0BCBDE8004181EA030100F02ABA90
:105AC000F0BCBDE8004170B500F0D6F9097EFC3E9F
:105AD00000F007B881EA03014FF0000001F0004137
