:020000040800F2
:10000000284B002065020008FD320008F92E000888
:10001000F9320008351D00083D4C000800000000C2
:100020000000000000000000000000009D3A0008F1
:10003000C92D0008000000007B0200087D020008B6
:100040007F0200087F0200087F0200087F0200088C
:100050007F0200087F0200087F0200087F0200087C
:100060007F0200087F0200087F0200087F0200086C
:100070007F0200087F0200087F0200087F0200085C
:100080007F0200087F0200087F0200087F0200084C
:10009000391D00087F0200087F0200087F02000867
:1000A0007F020008AD3C00087F0200087F020008C4
:1000B000C93C00081D3D0008C13D00087F02000842
:1000C0007F0200087F0200087F0200087F0200080C
:1000D0007F020008ED440008E9450008D946000801
:1000E0007F0200087F0200087F0200087F020008EC
:1000F000093E00087F0200087F020008F12A00087C
:100100007F0200087F020008ED3D00087F02000822
:100110007F020008D14100087F0200087F0200082A
:100120007F0200087F0200087F0200087F020008AB
:100130007F0200087F0200087F0200087F0200089B
:10014000551E00087F0200087F0200087F02000899
:100150007F0200087F0200087F0200087F0200087B
:100160007F0200087F0200087F0200087F0200086B
:100170007F0200087F0200087F0200087F0200085B
:100180007F0200087F02000800F002F800F05AF831
:100190000AA090E8000C82448344AAF10107DA45E2
:1001A00001D100F04FF8AFF2090EBAE80F0013F0DA
:1001B000010F18BFFB1A43F001031847F87700003E
:1001C000187800000A4410F8014B14F00F0508BF1E
:1001D00010F8015B240908BF10F8014B6D1E05D013
:1001E00010F8013B6D1E01F8013BF9D1641E03D0EC
:1001F000641E01F8015BFBD19142E4D3704700001B
:100200000023002400250026103A28BF78C1FBD81F
:10021000520728BF30C148BF0B6070471FB507F0B9
:1002200092F900F0D5F804000020002106F0EAFA67
:10023000401C60600020002106F0CEFAE0601FBD87
:1002400010B510BD00F065F91146FFF7E7FF06F0A5
:100250003FF900F0DDFB03B4FFF7F2FF03BC00F051
:1002600021FC00000948804709480047FEE7FEE7F7
:10027000FEE7FEE7FEE7FEE7FEE7FEE7FEE7FEE756
:1002800004480549054A064B70470000453C0008F4
:100290008901000828050020284B0020284700205D
:1002A0002847002010B5203AC0F00B80B1E8185064
:1002B000203AA0E81850B1E81850A0E81850BFF450
:1002C000F5AF5FEA027C24BFB1E81850A0E81850EF
:1002D00044BF18C918C0BDE810405FEA827C24BF43
:1002E00051F8043B40F8043B08BF7047D20728BFD1
:1002F00031F8023B48BF11F8012B28BF20F8023B20
:1003000048BF00F8012B704770477047704710B521
:1003100000F062F8006810BD10B5044600F05CF80B
:10032000046010BD0FB4002300B589B00CA9009182
:100330000B99CB60214B7B440693214B7B44079365
:1003400004236FF00042CDE901321E4A7A446B4625
:1003500008920246002007F060F909B05DF814FB2E
:1003600070B506464FF0FF3015460C46324686B053
:100370000091CDE9010169460020049004A8FFF72F
:10038000D1FF02460498211825B108B1084600E0C3
:1003900020462860049800280DD0002A02DD00982D
:1003A000884208D03246081B69460094CDE9010412
:1003B00004A8FFF7B7FF06B070BD0000B900000049
:1003C000D10000009100000000487047C4040020E4
:1003D00000487047E404002000487047C40400202F
:1003E00010B5044600F0BAF80068005D00F00100A6
:1003F00010BD426842B1016811F8013B23B1521EA1
:10040000C0E90012184670470121C160881E70477C
:1004100042685AB1C368016843B983688B4205D00A
:10042000491E521CC0E90012002070474FF0FF30F7
:10043000704700002DE9F047814616468AB03348E0
:1004400078440DC88DE80D0030487844801C03AC1A
:100450000DC884E80D0041F69B300844372190FB1D
:10046000F1F290FBF1F5A5F1800501FB12041B3CB4
:1004700002D56442012000E00020DFF890A0804611
:100480000027FA44AAF1BE0A0DE0E00709D032467F
:10049000684607EB47010AEB810100F0A6FF8DE8F3
:1004A000070064107F1C002CEFD1184F7F44AC3F35
:1004B00018E0E80714D007EB04100DF1180A90E8D3
:1004C0000E008AE80E00C068F04201D19819089029
:1004D000324606A903A800F088FF03AB83E80700B3
:1004E0006D10641C002DE4D132466946B8F1000F4E
:1004F00003A802D000F051FF01E000F076FFC9E947
:100500000001C9F808200AB0BDE8F087587500005E
:1005100070477546FFF758FFAE46050069465346DB
:1005200020F00700854618B020B5FFF7A9FEBDE80A
:1005300020404FF000064FF000074FF000084FF04A
:10054000000B21F00701AC46ACE8C009ACE8C009DB
:10055000ACE8C009ACE8C0098D46704710B5FFF79C
:1005600037FF001D10BD00BF9D6200002DE9FF4F49
:10057000064689B00878FF2806D0491C2D2805D0EA
:1005800000244FF0000908E000200CE00124F8E707
:1005900009EB8903491C00EB43090878FF28F7D1D0
:1005A00014B1C9F100008146107800252C46AA46F6
:1005B00029462D2801D02B2804D1521C2D2813D0D8
:1005C000002082468B461078FF280FD04FF0000C99
:1005D0000A21521CA5FB017804FB018105FB0C11CB
:1005E000C5194BEB0104EEE70120EAE700210846BC
:1005F0004FF00000BAF1000F02D000EB800040087D
:10060000C0F38158B8F1010F01DD4FF0FF380C98AD
:1006100009EB000755EA040009D04FF0020917F56D
:10062000FA7F0BDA4FEACA70C6E900B012E04FEA6F
:10063000CA70C6E900B00DB0BDE8F08FB7F5FA7F1B
:100640000DDDF0487844D0E90010C6E9001040EA1A
:10065000CA707060FFF7C0FEC0F80090EBE7391E6B
:1006600002DAC8F1000200E0424600DA794206A848
:10067000FFF7E0FE06AB93E8070003AB83E8070053
:1006800044F23E005BEA04010090584604D144F273
:100690001E012C465D460091210C0904014306D140
:1006A0000099240444EA15442D041039009104F003
:1006B0007F41014306D10099240244EA15642D02CA
:1006C0000839009104F07041014306D100992401DA
:1006D00044EA15742D01091F009104F040410143C3
:1006E00006D10099A40044EA9574AD00891E0091DA
:1006F00004F00041084304D100986D196441401E84
:10070000009042466846002FCDE9014503A902DD6D
:1007100000F07FFE01E000F054FEBAF1000F044645
:100720000D4601D084F0004440F2FF7724F00040F1
:10073000284303D0C4F30A50B84212D1FFF74CFE4D
:10074000C0F80090C4F30A50B8420AD1AE487844C9
:10075000D0E90010C6E9001004F0004108437060C1
:1007600069E7C6E9005466E72DE9FF4F1F464FF0E1
:10077000000A4FF0FF38454691B0D7E90146CDF861
:100780003CA0FFF725FEC0680168405C1090B96985
:1007900012986D1C8847396A814688470028F6D12F
:1007A000B9F1FF3F0AD0002E24F4D06411DDB9F175
:1007B0002B0F08D0B9F12D0F0BD102E0404615B038
:1007C0003AE744F48064B96912986D1C8847761E34
:1007D0008146600504A901D52D2000E02B20002EC4
:1007E00001F1010B0DF130088DF810003FDDB9F17A
:1007F000690F08D0B9F1490F05D0B9F16E0F02D0D9
:10080000B9F14E0F1CD13B4601A8009580E850027B
:10081000DDE912126FF0020006F003FFC11CCED119
:100820000EE0B96912986D1C884781461398761EB0
:1008300044F4007405600F98401C002E0F9016DDE4
:10084000B9F1300FEDD0B9F1780F02D0B9F1580FEE
:100850000DD10F9801280AD13B46CDE90054DDE9BE
:100860001212001F029606F0DAFEC11CA7D11099E1
:1008700089453ED144F0800406E01399681CAAF132
:10088000010A44F400740860B9696D1C1298761E60
:10089000884730288146F0D02BE01099894505D152
:1008A000200603D4761E44F0800418E0484605F084
:1008B000ADFA08B3761E0DF123018B4544F40074A4
:1008C00008D2A9F130000BF8010B200607D5AAF1D8
:1008D000010003E0200602D40AF101008246A005CF
:1008E00002D51399681C0860B96912986D1C884775
:1008F0008146002ED1DC53E0002E51DDB9F1650FA9
:1009000002D0B9F1450F4BD1A00549D5B9696D1C8D
:100910001298761E24F440748847002E81460CDD20
:100920002B2804D0B9F12D0F07D144F48074B96994
:1009300012986D1C8847761E8146E00501D52D2151
:1009400000E02B2108F8011BCDF8008021E0761E85
:100950000DF13901884544F400740CD2A9F130003E
:1009600010F0FF0088F8000002D10099884509D9ED
:1009700008F1010806E0E00501D5244801E042F253
:100980000F708246B96912986D1C8847814613988A
:100990000560002E04DD484605F038FA0028D6D15F
:1009A000F96912988847FF2053468BF8000088F8B1
:1009B000000000200A900B9004AA0CA90AA8FFF7D7
:1009C000D5FDA00502D46FF00100F8E614F0240F65
:1009D0000AD0E00714D13868DDE90A12031D3B6034
:1009E0000068C0E900120BE00AA9684605F0A8F902
:1009F000E00705D13868009A011D3960006802607F
:100A00002846DCE68C73000082720000F1D8FFFFFC
:100A100010B50446AFF300802046BDE81040FFF754
:100A20001ABC00004FF0013C50F8042B51F8043B75
:100A30009A4221D1A2EB0C03934313EACC1317D1B2
:100A400050F8042B51F8043B9A4215D1A2EB0C0349
:100A5000934313EACC130BD150F8042B51F8043B09
:100A60009A4209D1A2EB0C03934313EACC13DBD0D7
:100A70004FF00000704700BFD01A01BAB1FA81F1FF
:100A800001F0180122FA01F0CB40C1F12001DBB2E4
:100A9000C0B2C01A2CFA01F3D11A914311EAC31162
:100AA000E6D1704701491820ABBEFEE726000200E0
:100AB0002DE9FF4F1F464FF03C0987B04FF0004231
:100AC000DDE9141001F10108DDF858A002EA4050F8
:100AD0000390002005908346054604460490B969BA
:100AE000461E08988847AAF1010A0290BAF1000F41
:100AF0003BDD02982E2815D0102100F016FA0028B0
:100B00002EDB4FF0010B0599014317D0B9F1000F0F
:100B10000BDB4A46C11700F0F5F905430C43A9F178
:100B2000040905E0012004900BE008B145F001053F
:100B300001200590049820B9361D02E0049800B108
:100B4000361FB969089808F101088847BBF1000F02
:100B5000AAF1010A0290C9D00999C1F80080C5E73D
:100B60000298702808D0502806D0F969089888475C
:100B7000BBF1000F14D04FE0002002900120BBF128
:100B8000000F049009D0B969089808F10108884756
:100B9000AAF10109B9F1000F07DCF9690898884743
:100BA0006FF001000BB0BDE8F08F2B2804D02D288A
:100BB0000CD14FF0FF300490B969089808F1010892
:100BC0008847A9F10109B9F1000FE6DD411CE4D025
:100BD0000A2100F0AAF90028DFDB029908F10108D8
:100BE00001EB810100EB41000290B9690898884748
:100BF0000A2100F09AF9099AA9F10109B9F1000F47
:100C0000C2F8008001DD0028E7DAF9690898884712
:100C10000499029800FB016655EA040004D004F030
:100C20004041090002D006E0039898E0A40044EA9D
:100C30009574AD00B61E04F00041080002D16D1994
:100C40006441761E159810F0240F03D04FF00B0965
:100C50005C4803E04FF028096FF07D00824656455E
:100C600007DAAAEB06018944B9F1410F01DD4FF023
:100C7000410901200021A9F1010200F043F90246D7
:100C800028400B462140084301D0012100E000210B
:100C9000501E029143F1FF3128402140084301D00A
:100CA000012000E000200299834651EA0B014FD059
:100CB000002108464FF00000039900F4400039B1CC
:100CC00000EB80004FF4400100EBD07001EA6000BF
:100CD0008015012802DD4FF0FF3000E013D0401CEA
:100CE00036D0029860B3BBF1000F0CD14A46012008
:100CF000002100F007F928402140084301D00120DD
:100D000000E00020E0B101204A46002100F0FAF89E
:100D1000034640190A4661412D1A8C4111D3B9F19D
:100D2000400F09DD159810F0240F02D0AAF1340607
:100D300003E0AAF1170600E0761C00254FF00044FE
:100D400006E05B1E42F1FF3220EA030521EA0204BD
:100D5000CAF10100B04206DA1B490398084301902A
:100D6000002000900EE0039AC4F3D321E80A0A435E
:100D7000164940EA44500A433146CDE9000268462C
:100D800005F03AF8159810F0240F0BD01598C0070D
:100D900015D13868DDE90012031D3B600068C0E929
:100DA00000120CE002A8694604F0CAFF1598C007BB
:100DB00005D13868029A011D39600068026040461A
:100DC000F0E6000002FCFFFF0000F07F0000F03FB3
:100DD0002DE9FF4F92461D4685B04FF00041DDE9F9
:100DE000124BDDE914727F1E01EA4B50414940F07D
:100DF000FF4940EA0108002122F02000492804911F
:100E000002D04E2828D04CE03BA0012607C88DE830
:100E10000700A9690698641C88477F1E014606D40E
:100E20001DF8060018B121F0200181420BD0E969BC
:100E300006988847032E34D0082E32D06FF0010078
:100E400009B0BDE8F08F761C032E01D0082EE0D14A
:100E5000601CCAF80000DCE7A9690698641C884792
:100E60007F1E2AD420F02000412826D1A9690698A7
:100E7000641C88477F1E20D420F020004E281CD1FF
:100E8000A9690698641C88477F1E48F4002849F425
:100E90008009CAF8004001D4282806D0E9690698DC
:100EA00088475FEACB7012D022E0A9690698641CDB
:100EB00088477F1E01D4002803DAE969069888472D
:100EC000BCE72928F1D1641CCAF80040E9E71BF00F
:100ED000240F07D028680499031D2B600068C0E91F
:100EE000001805E02868021D2A600068C0F800901C
:100EF0002046A5E70000F07F494E46494E49545927
:100F000000000000B2F120030AD5C2F1200301FA6B
:100F100002F120FA03F300FA02F041EA03017047FC
:100F200000FA03F14FF0000070473A2800D2303841
:100F300020F02002412A01D3A2F13700884201D3D8
:100F40004FF0FF30704720F07F4C80EA030023F021
:100F50007F47ACEB070303F57C5300F0004003F13F
:100F6000FF032DE980494FEA154B09B44FEA1443BA
:100F700025EA0B4E24EA03480FF2042606EB13275A
:100F800049083E785FEA320203FB0667C7F50007AF
:100F900007FB06F64FEA54374FEAD64606F102063B
:100FA00007FB066CCCF1005C4FEA1C472CEA074CAF
:100FB00007FB06F40CFB06F504EB15464FEA961604
:100FC00034BF00204FF000404FEAD13706FB07FC4A
:100FD0004FEA1C4C0CFB0BF7D21B03FB0CF761EB2D
:100FE00007010CFB0EF7B0EB074072EB17420CFB4E
:100FF00008F734BFA2EB0742B2EB074261EB17419F
:101000004FEA0C444FEA910706FB07FC4FEA1C4CE1
:101010000CFB0BF7B0EBC74072EB573203FB0CF73E
:1010200034BFA2EBC742B2EBC74261EB57310CFBB6
:101030000EF7B0EBC70072EB57720CFB08F734BF2A
:10104000A2EBC702B2EBC70261EB5771039F4FEAF5
:10105000816141EA921104EBCC044FEAD1374FEAA7
:10106000826206FB07FC42EA90124FEA80604FEA78
:101070001C4C0CFB0BF7D21B03FB0CF761EB0701BD
:101080000CFB0EF7B0EB074072EB17420CFB08F7B6
:1010900034BFA2EB0742B2EB074261EB17414FEAC4
:1010A0008C554FEA910704EB9C2406FB07FC4FEAA2
:1010B0001C4C0CFB0BF7B0EBC74072EB573203FB39
:1010C0000CF734BFA2EBC742B2EBC74261EB57311A
:1010D0000CFB0EF7B0EBC70072EB57720CFB08F776
:1010E00034BFA2EBC702B2EBC70261EB577115EB3D
:1010F0004C254FEA816141EA92114FEA82624FEA40
:10110000D13742EA901206FB07FC44F100044FEA93
:1011100080604FEA1C4C0CFB0BF7D21B03FB0CF757
:1011200061EB07010CFB0EF7B0EB074072EB1742C7
:101130000CFB08F734BFA2EB0742B2EB074261EBAE
:10114000174115EB1C154FEA813141EA92414FEAF4
:10115000823242EA90424FEA80304FEA0C7644F104
:10116000000448EA03434EEA0B484FF0000EB2EB8E
:10117000080C71EB030724BF624639464EEB0E0E96
:101180004FF0000B0018524149414BEB0B0BB2EBF7
:10119000080C71EB03077BF1000B24BF6246394654
:1011A0004EEB0E0E4FF0000B0018524149414BEB35
:1011B0000B0BB2EB080C71EB03077BF1000B24BFA8
:1011C000624639464EEB0E0E51EA020718BF46F052
:1011D000010616EB0E7655F1000254F1000103D51D
:1011E000BDE88901BDE80088BDE88901BDE8004887
:1011F000B619524141EB0101A3F101037047808010
:101200007F7E7D7C7B7A7978777676757473727160
:1012100071706F6E6E6D6C6C6B6A6A696868676618
:1012200066656464636362616160605F5F5E5E5DAA
:101230005D5C5C5B5B5A5A5959585857575656551E
:1012400055555454535352525251515050504F4F80
:101250004F4E4E4D4D4D4C4C4C4B4B4B4A4A4A49D0
:101260004949484848474747474646464545454413
:1012700044444443434343424242424141410000CB
:1012800046EA0646A3F570534FEA164646EA42562A
:101290004FEAD22242EA415210B54FEAD121A3F1DE
:1012A000010300F017F820F0004000F1010C00F0FD
:1012B000004701EB00501146BCF5006F40EA070003
:1012C00000D210BD02484FF0000140EA070010BDF7
:1012D0000000F07F002B26D4770021D01CB54FEA08
:1012E000370703B44FF010004FF010014FF000002B
:1012F0000FBCBDE810400BF1010BBBF1010F08BFA3
:101300005FEA170722BF12F1010211F101014FF04C
:10131000004143F1000300F0004043EA0000704741
:10132000F9D35708DAE746EA064613F1400F4FEAC9
:1013300016461FDD13F1200FDFBF16430A460021BA
:1013400020335B42C8D0C3F1200746EA064602FAC2
:1013500007F74FEA164646EA0706C3F1200722FAC6
:1013600003F201FA07F721FA03F14FF0000342EA12
:101370000702B1E746EA020646EA06464FEA164683
:1013800046EA0106BCBF46EA0646360C4FF00003AB
:101390004FF000024FF000019EE72DE9C048934650
:1013A00030B491E8380007C831EA400C48BF34EA4D
:1013B000430C03D5FFF7C7FDFFF78CFFF0BCBDE87A
:1013C00000882DE9C048934630B491E8380007C83A
:1013D00031EA400C48BF34EA430C03D5FFF7B3FDB4
:1013E000FFF74EFFF0BCBDE800882DE9C0489346EA
:1013F00030B491E8380007C810F0804F08BF13F0F0
:10140000804F03D100F019F8FFF764FFF0BCBDE88E
:1014100000882DE9C048934630B491E8380007C8E9
:1014200010F0804F08BF13F0804F03D100F005F893
:10143000FFF726FFF0BCBDE8008820F07F4780EA78
:10144000030023F07F4C07EB0C03A3F57C5300F063
:101450000040A3F1FE0392F0000F00F0B38095F07E
:10146000000F00F077802DE901494FEA11404FEA63
:10147000144621EA004800FB06FC24EA064708FB64
:1014800006F607FB08F800FB07F718EB06484CEBDD
:10149000164C4FEA124B18EB07484FEA15464CEB37
:1014A000174022EA0B4E0BFB06FC25EA06470EFB13
:1014B00006F607FB0EFE0BFB07F71EEB064E4CEB8A
:1014C000164C4FF000061EEB074E4CEB174B18EB7B
:1014D0000B0840F1000018EB0E0B58EB000840F130
:1014E00000008F1A4FF000013CBFC943661B14BFB8
:1014F000B5EB040C00213CBFC943F61B4FEA17446F
:101500004EEA8E0E27EA04454FEA1C4704FB0762A9
:101510002CEA074C05FB07F70CFB05F604FB0CFC5B
:1015200016EB074642EB174216EB0C4642EB1C4209
:101530001BEB060658EB0202414146EA9E0601D526
:10154000BDE80189B619524141EB0101A3F1010344
:10155000BDE801894FEA14454FEA114724EA0546E0
:1015600021EA074C05FB07F406FB07F70CFB06F125
:1015700005FB0CFC11EB074144EB17444FEA124703
:1015800011EB0C4144EB1C4422EA074C05FB07F22B
:1015900006FB07F70CFB06F605FB0CFC16EB0746F3
:1015A00042EB174216EB0C4642EB1C456A1854F10D
:1015B000000148BF7047B619524141EB0101A3F148
:1015C0000103704795F0000F37D04FEA11424FEA00
:1015D000144721EA024624EA074C02FB07F106FB06
:1015E00007F70CFB06F402FB0CFC14EB074441EB81
:1015F00017414FEA154714EB0C4441EB1C4125EA17
:10160000074C02FB07F506FB07F70CFB06F602FB8F
:101610000CFC16EB074645EB174516EB0C4645EB65
:101620001C42121951F1000148BF7047B6195241CE
:1016300041EB0101A3F1010370474FEA14454FEA62
:10164000114724EA054621EA074C05FB07F106FB92
:1016500007F70CFB06F24FF0000605FB0CFC12EB43
:10166000074241EB174112EB0C4251EB1C4148BFC2
:101670007047921841EB0101A3F10103704721B1BA
:10168000826842F00102826003E0826822F0010277
:10169000826070470021084A1168084A1140D0E969
:1016A00000231A4383681A43C3681A431143044A48
:1016B000C2F804137047000004230140E030FCFF2F
:1016C0000020014030B50246002000235068104C35
:1016D00020400D790C6844EA05242043506090684E
:1016E0000C4C2040D1E903542C438D682C434D7998
:1016F00044EA450420439060D06A20F470000C7DD9
:10170000641EE4B2234340EA0350D06230BD0000BF
:10171000FFFEFFFCFDF7FFC000B58DB001210420E6
:1017200002F0F8F80121080202F024F930200B90B1
:1017300003208DF8300000208DF833000BA91648E7
:1017400001F062FB0121080202F024F900214FF4AC
:10175000807002F01FF9002007900A9009904FF462
:101760008030089007A8FFF795FF002001908DF8C2
:1017700008008DF8090003900490059001208DF871
:10178000180001A90548FFF79DFF01210348FFF755
:1017900076FF0DB000BD00000008024000200140AF
:1017A000F0EE400A0E4890ED000A20EE200A0D48A7
:1017B00090ED001AB8EEC11A30EEC11A0A48D0ED09
:1017C000001A01EE810A094880ED000ABDEEE00A28
:1017D000044880ED000A054890ED000A70470000BB
:1017E000A8010020A4010020AC010020B0010020CD
:1017F00010B52DED028BB0EE408A194890ED160A17
:10180000F0EE400AB0EE480A04F008FB154880EDFF
:10181000000A90ED000AFFF7C3FFDFED130A30EE78
:10182000200ABDEEC00A10EE104A224601210F48E0
:1018300003F042FA0B4890ED000AFFF7B1FFDFED2D
:101840000C0A30EE200ABDEEC00A10EE104A224605
:101850000221064803F030FABDEC028B10BD0000F7
:10186000F40200205000002000C0DA45006800406B
:1018700000C0DAC510B51048806F042802D00528D2
:1018800016D10AE0DFED0D1A9FED0D1ADFED0D0AFE
:101890009FED0D0A01F07AFD0BE0DFED081A9FEDD8
:1018A000081ADFED0A0A9FED080A01F06FFD00E05B
:1018B00000BF00BF012010BDF4020020000016454B
:1018C00000000000008089440000E1440000C8449A
:1018D00010B504F0DBFA2248D0F8840010B900F00B
:1018E00045F81CE01E48D0F88400012805D10421E9
:1018F0001B488167FFF7BEFF11E01948D0F884004C
:10190000022805D1052116488167FFF7B3FF06E0DD
:101910001348D0F88400032801D100F009F91048D9
:10192000D0F8840004281AD10D4890ED180ADFED94
:101930000D0AB4EEE00AF1EE10FA10DD90ED180A8F
:10194000DFED090AB4EEE00AF1EE10FA07D20078F2
:1019500020F001000249087000210148816710BD94
:10196000F40200200000FA440040034510B501F0E5
:1019700021F8634890ED170AD0ED270AB4EEE00A8B
:10198000F1EE10FA0BDD90ED180AD0ED280AB4EE56
:10199000E00AF1EE10FA02D20021816772E05848A5
:1019A00090ED170AD0ED290AB4EEE00AF1EE10FA34
:1019B0000BDD90ED180AD0ED280AB4EEE00AF1EE46
:1019C00010FA02DD012181675CE04D4890ED170AB5
:1019D000D0ED290AB4EEE00AF1EE10FA0BD290ED48
:1019E000180AD0ED2A0AB4EEE00AF1EE10FA02DD90
:1019F0000221816746E0424890ED170AD0ED270AA0
:101A0000B4EEE00AF1EE10FA0BD290ED180AD0ED28
:101A10002A0AB4EEE00AF1EE10FA02D2032181673D
:101A200030E0374890ED180ADFED360AB4EEE00AF0
:101A3000F1EE10FA04DD9FED340AFFF7D9FE21E044
:101A40002F4890ED180ADFED310AB4EEE00AF1EE0E
:101A500010FA04D29FED2E0AFFF7CAFE12E02848C2
:101A600090ED170ADFED2B0AB4EEE00AF1EE10FA62
:101A700004DD9FED290AFFF7BBFE03E09FED270A77
:101A8000FFF7B6FE1E48806F30B1012810D0022843
:101A90001AD0032830D123E00122114600209FED07
:101AA0001E1ADFED1F0A9FED1F0A01F07DFA24E0E8
:101AB0000122114610469FED141ADFED190A9FED21
:101AC0001A0A01F071FA18E00122911E00209FED20
:101AD000131ADFED160A9FED140A01F065FA0CE007
:101AE0000122911E10469FED0A1ADFED100A9FEDAC
:101AF0000D0A01F059FA00E000BF00BF012010BD3F
:101B0000F402002000803B450000B4420080D44431
:101B10000000B4C200008343000000000000344312
:101B20000080544500001644000016C40000AF4475
:101B300010B500F03FFF644890ED170AD0ED270A7A
:101B4000B4EEE00AF1EE10FA0BDD90ED180AD0EDDC
:101B5000280AB4EEE00AF1EE10FA02D206218167FB
:101B600072E0594890ED170AD0ED290AB4EEE00A68
:101B7000F1EE10FA0BDD90ED180AD0ED280AB4EE64
:101B8000E00AF1EE10FA02DD072181675CE04E48C1
:101B900090ED170AD0ED290AB4EEE00AF1EE10FA42
:101BA0000BD290ED180AD0ED2A0AB4EEE00AF1EE5D
:101BB00010FA02DD0821816746E0434890ED170ADC
:101BC000D0ED270AB4EEE00AF1EE10FA0BD290ED58
:101BD000180AD0ED2A0AB4EEE00AF1EE10FA02D2A9
:101BE0000921816730E0384890ED180ADFED370AA7
:101BF000B4EEE00AF1EE10FA04DD9FED350AFFF7CE
:101C0000F7FD21E0304890ED180ADFED320AB4EE1E
:101C1000E00AF1EE10FA04D29FED2F0AFFF7E8FD7B
:101C200012E0294890ED170ADFED2C0AB4EEE00A25
:101C3000F1EE10FA04DD9FED2A0AFFF7D9FD03E06B
:101C40009FED280AFFF7D4FD1F48806F062806D0B5
:101C5000072810D008281AD0092830D123E0042200
:101C6000012100209FED1F1ADFED1F0A9FED1F0AC3
:101C700001F09AF924E00422012108469FED161A8A
:101C8000DFED190A9FED1A0A01F08EF918E004221F
:101C9000511F00209FED121ADFED160A9FED140A66
:101CA00001F082F90CE00422511F01209FED081A77
:101CB000DFED100A9FED0D0A01F076F900E000BF9C
:101CC00000BF012010BD0000F402002000803B4551
:101CD0000000B4C20080D4440000B442000083433A
:101CE000000034430000000000805445000016440A
:101CF000000016C40000AF441CB50121102001F003
:101D000009FE8020009001208DF8040000208DF84D
:101D1000060003208DF8050002208DF807006946B3
:101D2000034801F071F88021014801F0E1F81CBD81
:101D30000010024000BFFEE710B53B4803783B4A65
:101D40003B493C4800F0A8FC39480068302803D1E2
:101D50003649087804F0DAFC3548006840F28721FB
:101D600088420DD13148006845F65001884207D1BC
:101D70002E4890ED010AB8EEC00A2F4880ED050A02
:101D80002B480068B0F5227F0DD12848006845F641
:101D90005601884207D1254890ED010AB8EEC00AE5
:101DA000254880ED560A2248006840F28621884284
:101DB0000DD11E48006845F65001884207D11B48E6
:101DC00090ED010AB8EEC00A1B4880ED090A1B49D4
:101DD000184800F0B3F81949491C164800F0AEF84D
:101DE0001649C91C134800F0A9F81549114800F01C
:101DF000A5F814490F4800F0A1F813490D4800F068
:101E00009DF8114908310B4800F098F80F4909482E
:101E100000F094F80E49074800F090F80C4908319A
:101E2000044800F08BF810BD50020020480200204A
:101E30005402002000640040F40200200100F01071
:101E40007000F0300300001208000032030000149C
:101E5000080000341CB52E4803786A462D492E48E8
:101E600000F01AFC2B48006840F2822188420BD116
:101E700045F656010098884206D19DED010AB8EE5C
:101E8000C00A264880ED100A2248006840F28121ED
:101E9000884210D122480068401C2149086045F65C
:101EA00056010098884206D19DED010AB8EEC00A9D
:101EB0001A4880ED130A1B49174800F03FF81949EA
:101EC000491C154800F03AF81649C91C124800F0A0
:101ED00035F81549104800F031F814490E4800F063
:101EE0002DF813490C4800F029F8114908310A4827
:101EF00000F024F80F49084800F020F80E49064881
:101F000000F01CF80C490831034800F017F81CBD1C
:101F10005C0200205802002000680040F40200200B
:101F2000280200200100F0107000F03003000012C1
:101F300008000032030000140800003400220C4B9B
:101F4000994202D10023836111E0C1F3130201F031
:101F500000730BB1C2600AE001F080630BB1026153
:101F600005E001F000630BB1826000E04260704761
:101F70007000F0302DE9F04F8BB006460F46144646
:101F80001D46DDF850804FF00009CA46CB46B5F536
:101F9000807F43D012DC102D34D008DC012D25D0F9
:101FA000022D26D0042D27D0082D4FD127E0202D3B
:101FB0002BD0402D2CD0802D48D12CE0B5F5805F62
:101FC00038D009DCB5F5007F2BD0B5F5806F2BD06C
:101FD000B5F5006F3AD12AE0B5F5005F2DD0B5F523
:101FE000804F2DD0B5F5004F30D12CE04FF00009D7
:101FF0002DE04FF001092AE04FF0020927E04FF0F1
:10200000030924E04FF0040921E04FF005091EE028
:102010004FF006091BE04FF0070918E04FF00809E0
:1020200015E04FF0090912E04FF00A090FE04FF0F8
:102030000B090CE04FF00C0909E04FF00D0906E028
:102040004FF00E0903E04FF00F0900E000BF00BFA2
:10205000B8F5807F4BD01ADCB8F1100F3BD00CDC08
:10206000B8F1010F2BD0B8F1020F2BD0B8F1040F4B
:102070002BD0B8F1080F52D12AE0B8F1200F2DD0A3
:10208000B8F1400F2DD0B8F1800F48D12CE0B8F551
:10209000805F38D009DCB8F5007F2BD0B8F5806FB1
:1020A0002BD0B8F5006F3AD12AE0B8F5005F2DD0FB
:1020B000B8F5804F2DD0B8F5004F30D12CE04FF05F
:1020C000000A2DE04FF0010A2AE04FF0020A27E053
:1020D0004FF0030A24E04FF0040A21E04FF0050A14
:1020E0001EE04FF0060A1BE04FF0070A18E04FF021
:1020F000080A15E04FF0090A12E04FF00A0A0FE053
:102100004FF00B0A0CE04FF00C0A09E04FF00D0AFB
:1021100006E04FF00E0A03E04FF00F0A00E000BFA8
:1021200000BF7F48304418B1B0F5806F1AD10CE081
:102130004FF0090B00208DF8120014208DF80400D8
:102140000121480601F0F6FB0DE04FF0090B0E20CF
:102150008DF8120040208DF804000121000501F0E7
:10216000E9FB00E000BF00BFC4F3090078BBA01288
:10217000A0F580108038092834D2DFE800F0050A85
:102180000F14191E23292E000121084601F0C2FB5D
:1021900029E00121022001F0BDFB24E001210420FF
:1021A00001F0B8FB1FE00121082001F0B3FB1AE0A9
:1021B0000121102001F0AEFB15E00121202001F0EB
:1021C000A9FB10E00121402001F0A4FB0BE009E095
:1021D0000121802001F09EFB05E00121080201F0B1
:1021E00099FB00E000BF00BF5A464946204600F078
:1021F00053FE5A465146204600F04EFE45EA08007E
:10220000099002208DF828008DF8290000208DF813
:102210002A0001208DF82B0009A9204600F0F4FDCA
:10222000304600F07FF800208DF81E008DF81F006A
:102230008DF820008DF821008DF822008DF8230004
:102240008DF81A008DF81B000B208DF81C0007205C
:102250008DF81D007D2F22D008DC0A2F0FD0142FFF
:1022600011D0322F13D0642F29D114E0FA2F1AD0B5
:10227000B7F5FA7F1BD0B7F57A7F20D11BE0C820D5
:10228000ADF818001CE06420ADF8180018E0282014
:10229000ADF8180014E01420ADF8180010E010207C
:1022A000ADF818000CE00820ADF8180008E0042094
:1022B000ADF8180004E00220ADF8180000E000BFFF
:1022C00000BF06A9304600F0D6F800208DF81300B4
:1022D00001208DF814000020ADF80800ADF80A00C8
:1022E000ADF80C00ADF80E00ADF8100001208DF82F
:1022F000150002A800F032F802208DF80500032036
:102300008DF8060001208DF8070001A800F0F8FF05
:1023100001220221304600F0A5F80BB0BDE8F08F95
:10232000009CFFBF10B504460B48844209D101212F
:10233000480601F00FFB00214FF0007001F00AFB8E
:1023400008E00121880601F005FB00214FF08060C4
:1023500001F000FB10BD00000064004010B500213A
:10236000837A012202FA03F13D4A126842F0010227
:102370003B4B1A603A4A1C3212688A43384B1C3372
:102380001A60027BCAB9364A0C3212688A43344B4F
:102390000C331A604288C38842EA0343304A403211
:1023A000847A42F834300288838842EA03432C4A14
:1023B0004032847A02EBC4025360027B012A19D1B5
:1023C000274A0C3212680A43254B0C331A604288A4
:1023D000038842EA0343224A4032847A42F8343086
:1023E000C288838842EA03431D4A4032847A02EB62
:1023F000C4025360C27A3AB9194A121D12688A435C
:10240000174B1B1D1A6006E0154A121D12680A437D
:10241000134B1B1D1A60028932B9114A143212681B
:102420008A430F4B14331A600289012A06D10C4AE1
:10243000143212680A430A4B14331A60427B012A91
:1024400006D1074A1C3212680A43054B1C331A6036
:10245000034A126822F00102014B1A6010BD00000D
:10246000006600401AB143690B43436102E04369CF
:102470008B434361704730B5024600200023146847
:1024800024F002041460146844F00104146000E0B5
:102490005B1C546804F001041CB94FF6FF74A3429E
:1024A000F6D1546804F001040CB900206CE08C797A
:1024B000012C04D1146844F08004146003E0146813
:1024C00024F080041460CC79012C04D1146844F009
:1024D0004004146003E0146824F0400414600C7A93
:1024E000012C04D1146844F02004146003E0146843
:1024F00024F0200414604C7A012C04D1146844F0B8
:102500001004146003E0146824F0100414608C7A42
:10251000012C04D1146844F00804146003E014682A
:1025200024F008041460CC7A012C04D1146844F01F
:102530000404146003E0146824F0040414608C782C
:10254000A407CD7844EA05640D7944EA05444D7941
:1025500044EA05540D886D1E2C43D461146824F0A0
:1025600001041460002300E05B1C546804F00104C3
:102570001CB14FF6FF74A342F6D1546804F0010475
:102580000CB1002000E0012030BD0246002019B946
:10259000D36803F0030006E0012903D1136903F0B7
:1025A000030000E00020704710B500F5D87303EB7E
:1025B00001131B6803F004031372137A53B900F577
:1025C000D87303EB01131B6840F2FF7404EA535302
:1025D000136009E000F5D87303EB01131B686FF07B
:1025E000604404EAD303536000F5D87303EB01138E
:1025F0001B6803F00203537200F5D87303EB011359
:102600005B6803F00F03937200F5D87303EB0113BB
:102610005B681B0AD37400F5D87303EB01139B6846
:10262000D37200F5D87303EB01139B681C0A147373
:1026300000F5D87303EB01139B681C0C547300F571
:10264000D87303EB01139B681B0E937300F5D873CB
:1026500003EB0113DB68D37300F5D87303EB0113AD
:10266000DB681C0A147400F5D87303EB0113DB68F4
:102670001C0C547400F5D87303EB0113DB681B0EBC
:10268000937421B9C36843F02003C36003E0036976
:1026900043F02003036110BD2DE9F04186B0804670
:1026A0000D4616461F46002400214046FFF76DFFE9
:1026B00018B9002006B0BDE8F08101AA002140460B
:1026C000FFF772FF002405E00DF10F00005D3055AB
:1026D000601CC4B2BC42F7DB019828600120E9E726
:1026E00010B502460020936803F08063B3F1806F59
:1026F00000D110E0936803F00063B3F1006F01D1E3
:10270000012008E0936803F08053B3F1805F01D1AA
:10271000022000E00420042874D002F5C07303EB0B
:1027200000131B6803F0010402F5C07303EB0013F0
:102730001C600B7A7BB94B7A0C8843EA445302F550
:10274000C07404EB00142468234302F5C07404EB46
:102750000014236010E00B7A4C6843EAC4034C7AFF
:10276000234302F5C07404EB00142468234302F5EC
:10277000C07404EB001423608B7A03F00F038B7298
:1027800002F5C07303EB00135B6823F00F0402F53E
:10279000C07303EB00135C6002F5C07303EB00131E
:1027A0005B688C7A234302F5C07404EB0014636009
:1027B0008B7B1C064B7B44EA03440B7B44EA0323DC
:1027C000CC7A234302F5C07404EB0014A3608B7C25
:1027D0001C064B7C44EA03440B7C44EA0323CC7B79
:1027E000234302F5C07404EB0014E36002F5C073E8
:1027F00003EB00131B6843F0010402F5C07303EB05
:1028000000131C6010BD000010B50246002321B16A
:10281000012907D002290FD109E090681D4C00EA78
:1028200004030BE090681C4C00EA040306E0906887
:102830001A4C00EA040301E0002300BF00BF184C5B
:10284000181BA34216D007DC83B16FF080601844D8
:1028500070B1022818D111E0B0F5007F10D0114CF2
:10286000204448B1B0F5003F0ED10BE002230DE04B
:1028700000230BE0002309E0002307E0012305E02B
:10288000012303E0012301E0002300BF00BFD8B211
:1028900010BD000003000004000300080000031046
:1028A000000100080001FFF72DE9F04385B08146E3
:1028B0000D4690461E4600240095019500208DF897
:1028C00008008DF809008DF80A6000BF06E018F8CE
:1028D00004100DF10B000155601C84B2B442F6DB0C
:1028E00069464846FFF7FCFE0746002400BF39460C
:1028F0004846FFF789FF0128F9D105B0BDE8F0830C
:1029000010B588B004460121082001F003F8012128
:10291000480401F00FF807220521244800F0BCFA12
:1029200007220621214800F0B7FA60200690022015
:102930008DF81C008DF81D0000208DF81E00012070
:102940008DF81F0006A9194800F05EFA02940020D5
:10295000ADF80C00ADF80E00ADF81000ADF81400A5
:102960000C20ADF8120002A9114802F05FF84021D6
:102970000F4801F077FF26208DF8040000208DF825
:10298000050002208DF8060001208DF8070001A83F
:1029900000F0B6FC012240F22551054802F021F872
:1029A0000121034801F076FF08B010BD000C024081
:1029B000004400403148D0F88C0060BB2F48D0F86C
:1029C000840088B99FED2E0A2C4880ED270A9FEDE0
:1029D0002D0A80ED280A9FED2C0A80ED290A9FED33
:1029E0002B0A80ED2A0A47E02448D0F88400032807
:1029F00042D19FED270A214880ED270A9FED250A45
:102A000080ED280A9FED240A80ED290A9FED230A14
:102A100080ED2A0A30E01948D0F88C0001282BD12B
:102A20001648D0F8840088B99FED170A134880ED46
:102A30002B0A9FED140A80ED2C0A9FED110A80ED00
:102A40002D0A9FED120A80ED2E0A15E00B48D0F8F2
:102A50008400032810D19FED100A084880ED2B0A4E
:102A60009FED0C0A80ED2C0A9FED090A80ED2D0ADE
:102A70009FED0A0A80ED2E0A70470000F402002044
:102A80000000C842004035450000C8C2000096441E
:102A900000C08A4400E05D4500C08AC400409C44F8
:102AA000F0EE400A0E4890ED000A20EE200A0D4894
:102AB00090ED001AB8EEC11A30EEC11A0A48D0EDF6
:102AC000001A01EE810A094880ED000ABDEEE00A15
:102AD000044880ED000A054890ED000A70470000A8
:102AE000A4000020A0000020A8000020AC000020CE
:102AF00010B50749074800F0EBF838B10021054848
:102B000000F024F80249034800F006F810BD000068
:102B100000800028B86002400246094B9A4201D268
:102B2000084801E00648103801F000531BB1064B7D
:102B30000B40C36002E0044B0B4083607047000011
:102B400010640240006002407D0F7D0F21B10268D9
:102B500042F00102026003E0026822F0010202601A
:102B600070470000016821F001010160002101604F
:102B700041608160C1600161212141614A4988420F
:102B800004D13D21484A103A91608CE04649183101
:102B9000884205D14FF47461434A103A916082E053
:102BA00041493031884205D14FF474113E4A103A00
:102BB000916078E03C494831884205D14FF074611A
:102BC000394A103A91606EE037496031884204D149
:102BD0003649354A103AD16065E033497831884248
:102BE00004D13349304A103AD1605CE02E4990312B
:102BF000884204D12F492C4A103AD16053E02A4927
:102C0000A831884205D14FF03D51274A103AD16092
:102C100049E02949884204D13D21274A083A1160F8
:102C200041E025491831884205D14FF47461224AA8
:102C3000083A116037E020493031884205D14FF41D
:102C400074111D4A083A11602DE01B494831884231
:102C500005D14FF07461184A083A116023E0164913
:102C60006031884204D11149134A121F11601AE0E1
:102C700011497831884204D10D490F4A121F116061
:102C800011E00D499031884204D10A490A4A121FC5
:102C9000116008E00849A831884204D14FF03D5145
:102CA000054A121F11607047106002403D0000206D
:102CB000400F002000003D2010640240014600202B
:102CC0000A6802F001020AB1012000E0002070470A
:102CD00070B50246002000240025124EB24201D2F7
:102CE000114B01E00F4B103B104E0E4036B11E262B
:102CF00006EAD124166806EA040502E0566906F0E1
:102D0000800501F000560EB15C6800E01C68084EBA
:102D1000344004EA010616B10DB1012000E00020A4
:102D200070BD000010640240006002403C0F3C0F88
:102D30007D0F7D0F10B501F080034BB122B14369C7
:102D400043F08003436103E0436923F08003436160
:102D500080290BD02AB1036801F01E0423430360CD
:102D600004E0036801F01E04A343036010BD0000EB
:102D700010B500220268134B1A40CC680B6823433D
:102D80004C6923438C692343CC6923430C6A234356
:102D90004C6A23438C6A23434C6B23438C6B234341
:102DA0001A430260426922F00702D1E90B3423433F
:102DB0001A4342610B6943604B6883608B68C36050
:102DC00010BD00003F801CF0704700B5034604E0D2
:102DD0004FF47A7000F004F85B1E002BF8D100BDB0
:102DE000A82141434FF0E02251610521116100BF4C
:102DF0004FF0E021096901F480310029F8D0042165
:102E00004FF0E02211617047F0B50A46002100231F
:102E1000002400BF3DE0012505FA01F3156805EA2D
:102E200003049C4234D105684F000326BE40B543DD
:102E3000056015794E00B540066835430560157983
:102E4000012D02D01579022D16D185684F00032679
:102E5000BE40B543856055794E00B5408668354320
:102E60008560456801268E40B54345604568967982
:102E70008E40B6B235434560C5684F000326BE405C
:102E8000B543C560D5794E00B540C6683543C560C9
:102E9000491C1029BFD3F0BDF0B5002300244D0715
:102EA000ED0E02FA05F3CE1000F1200555F826507C
:102EB0004E07F70E0F26BE40B543CF1000F1200697
:102EC00046F82750CE1000F1200555F8265045EA67
:102ED0000304CE1000F1200545F82640F0BD02465F
:102EE000002013690B400BB1012000E00020704767
:102EF000418370470183704700BFFEE708B500209B
:102F000003465322632100904FF0804000F0B4FF4D
:102F10000120002340F2473240F2E73100901D4883
:102F200000F0AAFF0120002340F247326321009005
:102F3000194800F0A1FF4FF400704310174A4FF4F6
:102F4000FA7100901648FFF715F840202023134A25
:102F50004FF4FA7100901348FFF70CF8FEF7DCFB12
:102F6000FEF7CAFE00F02CFC01F0AAF800F09CFC71
:102F70004FF4E13000F00AFE4FF4E130FFF7C0FCFF
:102F80004FF4E13000F034FC4FF4612001F0CAF856
:102F900008BD00000004004000080040000402409A
:102FA000006400400068004070B52DED048BF0EE29
:102FB000408AB0EE609AB0EE418A06460C4615464D
:102FC000C84890ED170AC84880ED000AC54890ED42
:102FD000180AC64880ED000AC24890ED160AC44897
:102FE00080ED000ABF4880ED518A80ED198A6D1E80
:102FF000002001F025FE16B1012E7DD1E8E004FB92
:1030000005F04FF4EB71484300EE100AB8EEC00A29
:1030100030EE280AB448D0ED000A30EEC00AB148BC
:1030200080ED1A0AB248D0ED000AB0EE480A02F06C
:10303000F5FEAC4880ED1B0A04FB05F04FF4AF71C0
:10304000484300EE100AB8EEC00A70EE090A00EE1E
:10305000104AB8EEC00A60EE800A00EE104AB8EEE0
:10306000C00AA24890ED001A40EE410A9D48C0ED0A
:103070001C0A012D55DAD0ED1A0AB0EE600A03F0F1
:10308000F9FAF0EE400A974890ED1B1A00EE104A4C
:10309000B8EEC00A00EE201AB0EE412AB0EE420AA5
:1030A000FEF77EFB8F48D0ED150A30EE200A80ED4A
:1030B000120AD0ED1A0AB0EE600A03F0DBFAF0EE65
:1030C000400A884890ED1B1A00EE104AB8EEC00A7C
:1030D00000EE201AB0EE412AB0EE420AFEF760FB85
:1030E0008048D0ED150AF1EE600A30EE200A80ED3E
:1030F0000F0A90ED120A00E0EEE0BDEEC00A10EEFD
:10310000102A01217B4801F0D7FD764890ED0F0A87
:10311000BDEEC00A10EE102A0221764801F0CCFD67
:1031200055E0012D53DB6F48D0ED1A0AB0EE600A6E
:1031300002F04AFFF0EE400A6A4890ED1B1A00EEDA
:10314000104AB8EEC00A00EE201AB0EE412AB0EEE6
:10315000420AFEF725FB6348D0ED150A30EE200A3F
:1031600080ED120AD0ED1A0AB0EE600A02F02CFFD0
:10317000F0EE400A5B4890ED1B1A00EE104AB8EEE4
:10318000C00A00EE201AB0EE412AB0EE420AFEF765
:1031900007FB5448D0ED150AF1EE600A30EE200A24
:1031A00080ED0F0A90ED120ABDEEC00A10EE102A53
:1031B0000121504801F080FD4A4890ED0F0ABDEE14
:1031C000C00A10EE102A02214A4801F075FD84E081
:1031D00004FB05F04FF4AF71484300EE100AB8EE5F
:1031E000C00A30EE090A4148D0ED000A30EEC00AAC
:1031F0003C4880ED1A0A3E48D0ED000AB0EE480A7D
:1032000002F00CFE374880ED1B0A04FB05F04FF47A
:10321000EB71484300EE100AB8EEC00A38EEC00A5F
:103220003148D0ED000A30EE600A2E4880ED1C0ACD
:10323000D0ED1A0AB0EE600A02F0C6FEF0EE400AC7
:10324000284890ED1B1A00EE104AB8EEC00A00EEB6
:10325000201AB0EE412AB0EE420AFEF7A1FA214848
:10326000D0ED150A30EE200A80ED120AD0ED1A0AD0
:10327000B0EE600A02F0A8FEF0EE400A194890EDA8
:103280001B1A00EE104AB8EEC00A00EE201AB0EE8B
:10329000412AB0EE420AFEF783FA1248D0ED150A31
:1032A000F1EE600A30EE200A80ED0F0A90ED120A6E
:1032B000BDEEC00A10EE102A01210E4801F0FCFC00
:1032C000084890ED0F0ABDEEC00A10EE102A022148
:1032D000084801F0F1FC00E000BF00BFBDEC048B2A
:1032E00070BD0000F4020020000200200402002053
:1032F000080200200068004000BFFEE700BFFEE7B4
:1033000070B5002100230F22C4781CB3174C246829
:1033100004F4E064C4F5E064C4F30721C1F10404DB
:10332000E3B20A4144789C40E1B2847814402143DE
:103330000C07210E0E4C05786155047804F01F052A
:103340000124AC4005786D11AD0005F1E025C5F80C
:10335000004109E0047804F01F050124AC40054D4C
:103360000678761145F8264070BD00000CED00E0AF
:1033700000E400E080E100E002490143024A1160FC
:10338000704700000000FA050CED00E010B52DEDCF
:103390000C8BB0EE409AB0EE608AF0EE419AF0EEFF
:1033A000618A02F06BFFEA4880ED000A02F0E2FF5A
:1033B000E84880ED000A02F009FFE74880ED000AC6
:1033C000E34890ED000A30EE690A20EE000AE14879
:1033D000D0ED000A70EEE80A90ED001A31EE681A9E
:1033E00000EE810A10EE101A084604F03BF841EC9A
:1033F0001B0BB0EE4B0AF0EE6B0A02F03DF8B0EE9C
:1034000040AAF0EE60AA51EC1A0B03F01DFAD34962
:103410000860084690ED000A30EE480AD04880ED7A
:10342000000ACB4890ED000A30EE690ACD4880EDE5
:10343000000AC84890ED000A30EE680ACA4880EDDC
:10344000000A90ED000AC748D0ED000A80EE201A6D
:10345000C64880ED001A90ED000AFFEE000A80EEEB
:10346000801A11EE104A204603F0FCFF41EC1D0BC0
:10347000B0EE4D0AF0EE6D0A01F03AFDB0EE40CA32
:10348000F0EE60CA9FEDBA0B53EC102B51EC1C0B05
:1034900003F0F2FC41EC1B0B9FEDB70B53EC102B30
:1034A00003F0C0FA41EC1A0B03F0CEF9B4490860FE
:1034B000AD48006803F0D6FF41EC1B0BB0EE4B0AA1
:1034C000F0EE6B0A01F000FFB0EE40AAF0EE60AA49
:1034D0009FEDAC0B53EC102B51EC1A0B03F090FC4E
:1034E0001AD2A04890ED000AB5EEC00AF1EE10FA2B
:1034F00005DD9FEDA60AA64880ED000A0CE099487C
:1035000090ED000AB5EEC00AF1EE10FA04D29FED7C
:10351000A10A9F4880ED000A9248006803F0A2FFCC
:1035200041EC1B0BB0EE4B0AF0EE6B0A01F0CCFE47
:10353000B0EE40AAF0EE60AA9FED920B53EC102B78
:1035400051EC1A0B03F05CFC1AD2874890ED000A8C
:10355000B5EEC00AF1EE10FA05DD9FED8F0A8C483A
:1035600080ED000A0CE0804890ED000AB5EEC00A3C
:10357000F1EE10FA04D29FED890A854880ED000A29
:10358000784890ED000AB5EEC00AF1EE10FA27DD9A
:10359000754890ED000AB5EEC00AF1EE10FA0ADDAA
:1035A000774890ED000ADFED7C0A30EE200A78487B
:1035B00080ED000A43E06C4890ED000AB5EEC00AC9
:1035C000F1EE10FA3BD26E4890ED000ADFED720A80
:1035D00030EEC00AB1EE400A6D4880ED000A2EE0E0
:1035E000604890ED000AB5EEC00AF1EE10FA26D25E
:1035F0005D4890ED000AB5EEC00AF1EE10FA0ADD62
:103600005F4890ED000ADFED640A30EE200A604862
:1036100080ED000A13E0544890ED000AB5EEC00AB0
:10362000F1EE10FA0BD2564890ED000ADFED5A0A7F
:1036300030EEC00AB1EE400A554880ED000A464817
:10364000D0ED000A524890ED000A02F0E7FB544822
:1036500080ED000A9FED530A78EE000A80EE880A9A
:1036600020EE090A504880ED000A9FED4E0A78EEE0
:10367000400A80EE880A20EE090A4C4880ED000AD4
:103680004948D0ED000A9FED4A1A80EE810ADFED2D
:10369000490A20EE200A484880ED150A4348D0ED3B
:1036A000000A9FED431A80EE810ADFED420A20EE08
:1036B000200A414880ED150A294890ED000A03F0E0
:1036C00049F83748D0ED000A30EE200AB0EE40AAA3
:1036D000FFF7E6F9384880ED140A214890ED000A1A
:1036E00003F038F82E48D0ED000A30EE200AB0EE94
:1036F00040AAFFF7D5F9304880ED110A90ED150A80
:10370000D0ED140A30EE200A80ED120A90ED150A71
:10371000B1EE400AD0ED110A30EE200A80ED0F0A1A
:1037200090ED120ABDEEC00A10EE102A01212348C6
:1037300001F0C2FA204890ED0F0ABDEEC00A10EE6B
:10374000102A02211D4801F0B7FABDEC0C8B10BD08
:10375000B8000020BC000020C0000020CC000020E9
:10376000D4000020DC000020E0000020D000002079
:10377000000000000080664000000060FB2109405E
:10378000D8000020000000000000F03F0000000012
:10379000C4000020000034430000B4420000B4C262
:1037A000C800002000005943B0000020B4000020F1
:1037B0006766BC4300008045F402002000680040BA
:1037C0001CB50121102000F0A5F84FF48070009086
:1037D00000208DF8040003208DF8050001208DF8ED
:1037E000070069460148FFF70FFB1CBD00100240AF
:1037F00010B588B004460121082000F08BF80121A3
:10380000880400F097F8072208212548FFF744FBB9
:10381000072209212248FFF73FFB4FF44070069032
:1038200002208DF81C008DF81D0000208DF81E0070
:1038300001208DF81F0006A91948FFF7E5FA4FF49B
:10384000E13002900020ADF80C00ADF80E00ADF8AC
:103850001000ADF814000C20ADF8120002A91148B8
:1038600001F0E4F801210F4801F014F840210D485F
:1038700000F0F8FF012240F225510A4801F0B1F8AA
:1038800027208DF8040000208DF8050001208DF818
:1038900006008DF8070001A8FFF732FD08B010BD43
:1038A000000C0240004800401CB50121102000F02F
:1038B00031F85020009001208DF8040000208DF890
:1038C000060003208DF8050002208DF807006946E8
:1038D0000348FFF799FA50210148FFF70BFB1CBD85
:1038E00000100240F0EE400A9FED071AB0EE410AC8
:1038F0009FED061A20EE811ADFED051A81EE212ACE
:10390000B0EE420A7047000000000000DD7EBC43BC
:103910000000804529B1064A12680243044B1A6030
:1039200004E0034A12688243014B1A6070470000AA
:103930003038024029B1064A12680243044B1A602B
:1039400004E0034A12688243014B1A60704700008A
:103950004038024029B1064A12680243044B1A60FB
:1039600004E0034A12688243014B1A60704700006A
:103970002038024029B1064A12680243044B1A60FB
:1039800004E0034A12688243014B1A60704700004A
:103990004438024029B1064A12680243044B1A60B7
:1039A00004E0034A12688243014B1A60704700002A
:1039B00024380240F0B50021002200240225002610
:1039C0000223324F3F6807F00C0121B1042905D0D2
:1039D000082937D105E02E4F076036E02D4F0760EC
:1039E00033E02A4F3F1F3F68C7F38056274F3F1FE2
:1039F0003F6807F03F036EB1264FB7FBF3F7DFF8E0
:103A00008CC0ACF1040CDCF800C0CCF3881C07FBC4
:103A10000CF40CE01E4FB7FBF3F7DFF870C0ACF10D
:103A2000040CDCF800C0CCF3881C07FB0CF4174F27
:103A30003F1F3F68C7F301477F1C7D00B4FBF5F7CC
:103A4000076002E0124F076000BF00BF0F4F3F68E2
:103A500007F0F0010909104F7A5C0768D74047600A
:103A60000A4F3F6807F4E051890A0B4F7A5C4768B8
:103A7000D7408760054F3F6807F46041490B064F08
:103A80007A5C4768D740C760F0BD00000838024044
:103A90000024F40000127A00E402002070470000C5
:103AA0000CB50020019000903448006840F480304C
:103AB0003249086000BF3148006800F400300090CF
:103AC0000198401C0190009818B90198B0F5A06FBA
:103AD000F1D12A48006800F4003010B101200090B4
:103AE00001E0002000900098012846D12348403092
:103AF000006840F08050214940310860204800684B
:103B000040F480401E4908601C48083000681B498A
:103B1000083108600846006840F400400860084624
:103B2000006840F4A05008601648091F0860081F8C
:103B3000006840F08070091F086000BF0F480068EF
:103B400000F000700028F9D040F205600E490860CE
:103B50000A480830006820F003000849083108606E
:103B60000846006840F00200086000BF03480830C3
:103B7000006800F00C000828F8D10CBD00380240A5
:103B80000070004008544007003C024010B588B067
:103B9000044601210846FFF7BDFE01211020FFF772
:103BA000E9FE072209212548FFF776F907220A21B5
:103BB0002248FFF771F94FF4C060069002208DF89B
:103BC0001C008DF81D0000208DF81E0001208DF8CE
:103BD0001F0006A91948FFF717F902940020ADF855
:103BE0000C00ADF80E00ADF81000ADF814000C207C
:103BF000ADF8120002A9124800F018FF4021104849
:103C000000F030FE25208DF8040000208DF805001E
:103C100002208DF8060001208DF8070001A8FFF7AB
:103C20006FFB012240F22551054800F0DAFE012128
:103C3000034800F02FFE08B010BD00000000024055
:103C40000010014010B51548006840F47000134999
:103C500008601348006840F0010011490860002026
:103C60000F49083108600E4800680E4908400C49A9
:103C700008600D48091D0860081F006820F48020B6
:103C8000091F0860002006490C310860FFF708FF93
:103C90004FF0006001498039086010BD88ED00E0F8
:103CA00000380240FFFFF6FE1030002410B501215D
:103CB000044800F0C6F8012803D10121014800F0B2
:103CC000B1F810BD0000014010B50121880700F0D7
:103CD000B8F801281AD10121800700F0A3F80C4898
:103CE0000088401C0A4908800846008800EE100A37
:103CF000B8EE400ADFED070AB4EEE00AF1EE10FA82
:103D000004DB0020088001200349087010BD00007A
:103D10009C0200200000C8429E02002010B5012134
:103D2000214800F08EF801283CD101211E4800F006
:103D300079F81E480068401C1C4908600846006865
:103D40004FF6FF7190FBF1F201FB1200174908607A
:103D500017480068401C16490860086800EBD071DD
:103D60004910A0EB4101A9B1124890ED170A124881
:103D700080ED000A0F4890ED180A104880ED000A07
:103D80000D4890ED000A02F0D9FC0C4890ED000AB5
:103D900002F0DAFC06480068B0F5C87F02DD0020BA
:103DA0000349086010BD000000040040A00200208C
:103DB000AC020020F4020020A4020020A80200208F
:103DC00010B50121074800F03CF8012808D1012175
:103DD000044800F027F802F0D5FB0349C1F8600160
:103DE00010BD000000080040F402002010B50121C1
:103DF000044800F026F8012803D10121014800F011
:103E000011F810BD000C004010B50121044800F06D
:103E100018F8012803D10121014800F003F810BD72
:103E200000040140CA430282704721B1028842F077
:103E30000102028004E002884FF6FE731A400280FD
:103E4000704730B50246002000230024158A05EA99
:103E50000103958905EA010413B10CB1012000E0CA
:103E6000002030BD1AB183890B43838102E083892E
:103E70008B438381704700002DE9FF4104460D46C6
:103E800016461F46DDF828806949601A8C4270D0BA
:103E90001ADC6849A4EB01008C426CD00ADCB4F156
:103EA000804F4ED064482044002852D0B0F5806F37
:103EB00071D156E0B0F5806F65D0B0F5006F6CD071
:103EC000B0F5406FF4D170E0B0F5923F21D009DC3D
:103ED000B0F5806F7AD0B0F5644F0AD0B0F5684F76
:103EE0007CD10EE0B0F5943F1BD0B0F5963F75D174
:103EF0001FE001210846FFF73DFD19208DF8000065
:103F00006DE001210220FFF735FD2C208DF8000027
:103F100065E001210804FFF72DFD18208DF8000051
:103F20005DE001211920FFF725FD2C208DF8000010
:103F300055E001218804FFF71DFD1A208DF80000CF
:103F40004DE001210846FFF7F5FC1C208DF800002C
:103F500045E001210220FFF7EDFC1D208DF8000057
:103F60003DE001210420FFF7E5FC1E208DF8000054
:103F700035E023E0FFE701210820FFF7DBFC3220DA
:103F80008DF800002BE001211020FFF7D3FC362034
:103F90008DF8000023E021E0FFE701212020FFF75A
:103FA000C9FC37208DF8000019E001214020FFF7FF
:103FB000C1FC2B208DF8000011E007E001218020DA
:103FC000FFF7B8FC2C208DF8000008E00121080262
:103FD000FFF7B0FC2D208DF8000000E000BF00BF0F
:103FE0000295ADF804600020ADF80C00ADF80600B5
:103FF00001A9204600F022F801212046FFF712FF18
:10400000012211462046FFF72DFFF8B28DF801007E
:1040100008F0FF008DF8020001208DF803006846CB
:10402000FFF76EF901212046FFF7FFFEBDE8FF8193
:10403000001C0040000C004000FCFFBF0022028872
:10404000184B98420ED0184B98420BD0B0F1804FCD
:1040500008D0164B984205D0154B984202D0154B0C
:10406000984204D14FF68F731A404B881A43124B73
:10407000984207D0114B984204D04FF6FF431A40A4
:104080000B891A4302804B68C3620B880385054B7A
:10409000984202D0044B984201D18B7A03860123C7
:1040A000838270470000014000040140000400408A
:1040B00000080040000C00400010004000140040C8
:1040C0001CB501210420FFF725FC01211020FFF77A
:1040D00021FC0120009000208DF8040003208DF8C1
:1040E000050002208DF8070000208DF806006946C3
:1040F0000A48FEF789FE0420009000208DF8040095
:1041000003208DF8050002208DF8070000208DF8AF
:10411000060069460248FEF777FE1CBD0008024013
:104120000010024010B590B0044601214805FFF789
:10413000F1FB204600F072F92248FEF713FD00BFA4
:104140002048FEF7BBFD0028FAD14FF00060019037
:104150001D4802901D4803904020049000200590C7
:1041600006904FF4806007900020089009900A9014
:104170004FF400300B9000200C9001200D90002097
:104180000E900F9001A90F48FEF7F2FD0122802149
:104190000D48001F00F08AFB012210210948FEF79C
:1041A000C9FD2F208DF8000002208DF801008DF848
:1041B000020001208DF803006846FFF7A1F810B057
:1041C00010BD0000B8600240045000405C040020B4
:1041D00010B52DED028B0821864800F0CBFB48B1CD
:1041E00040F22551834800F046FB834800F00BFD68
:1041F000C4B2FCE040F225517F4800F0C8FB012822
:10420000F7D140F225517C4800F035FB7A4800F0A8
:10421000FAFCC4B279480068092871D2DFE800F0DE
:10422000051D3966717B859EB800732C05D17348D6
:104230000068401C714908600EE0612C03D1072022
:104240006E49086008E0742C03D103206B490860B4
:1042500002E0002069490860C8E0392C01DC302CFC
:1042600001DA2E2C09D1664866490968445465482C
:104270000068401C634908600AE00D2C05D15F48C6
:104280000068401C5D49086002E000205B4908604E
:10429000ACE00020594908600A2C1BD1584800F0B6
:1042A00093FFB0EE408AF0EE608A51EC180B02F0FA
:1042B000CBFA5549C860084690ED030ADFED530A72
:1042C00020EE200ABDEEC00A10EE102A50A14A4886
:1042D00000F016FC002003E00021494A1154401C64
:1042E0000828F9D30020474908607FE0652C03D1F6
:1042F00004204249086002E000204049086075E05F
:1043000073E0732C03D105203C49086002E00020D3
:104310003A4908606AE0742C03D1062037490860E6
:1043200002E000203549086060E000203349086061
:10433000312C03D10120374908600EE0322C03D123
:1043400002203449086008E0332C03D103203149AE
:10435000086002E000202F49086047E0392C01DCAA
:10436000302C01DA2E2C09D12B48264909684454F7
:1043700024480068401C2349086008E00D2C03D144
:1043800008201E49086002E000201C4908602DE05A
:1043900000201A4908600A2C1BD11F4800F014FFA6
:1043A000B0EE408AF0EE608A51EC180B02F04CFA45
:1043B00015494860084690ED010ADFED140A20EE29
:1043C000200ABDEEC00A10EE102A11A10A4800F022
:1043D00097FB002003E000210F4A1154401C0828DD
:1043E000F9D300200749086000E000BF00BFBDEC22
:1043F000028B10BD00100140005000406002002000
:104400006402002074020020F402002000007A44BC
:10441000256400002C0200206C02002010B588B03A
:10442000044601940020ADF80800ADF80A00ADF88C
:104430000C00ADF810000C20ADF80E000121FFF7C4
:1044400069FA01210805FFF775FA254800F038FAE6
:1044500008220C212348FEF71FFD082202212248D2
:10446000FEF71AFD00208DF81A0001208DF81B00C0
:1044700002208DF81800C002059002208DF8190066
:1044800005A91848FEF7C0FC02208DF8180004208A
:10449000059005A91448FEF7B7FC01A9104800F0E3
:1044A000C5FA35208DF81C0001208DF81F00002072
:1044B0008DF81D0002208DF81E004FF4A060FEF75D
:1044C0005BFF07A8FEF71CFF012240F225510448BC
:1044D00000F087FA0121024800F0DCF908B010BDB5
:1044E0000050004000080240000C024010B50821B6
:1044F000374800F03FFA50B140F22551344800F0FF
:10450000BAF9334800F07FFB324908705FE040F2AF
:1045100025512F4800F03BFA012858D140F225518F
:104520002B4800F0A8F92A4800F06DFB29490870D3
:104530002948006820B1012810D0022842D124E087
:1045400024480078412805D123480068401C2249AE
:10455000086002E000202049086037E01D4800782C
:104560001E491F4A126888541D480068401C1C4997
:10457000086008460068042806DB0020086016482A
:104580000068401C1449086020E012480078522856
:1045900003D101211348016110E00E48007856282C
:1045A0000CD10E490868C11700EB1151091300EE38
:1045B000101AB8EEC00A0B4981ED070A002006491F
:1045C000086003E000200449086000BF00BF10BD80
:1045D00000100140800200207802002084020020A8
:1045E0007C020020F402002010B50821334800F0BE
:1045F000C1F928B140F22551304800F03CF95CE0A7
:1046000040F225512D4800F0C2F9012855D140F261
:1046100025512A4800F02FF9284800F0F4FA2849DB
:10462000087008460078C5280FD100202549086089
:104630002549086025480068254908600846006843
:1046400002F06AF80020214908601E48006820B185
:1046500001280CD002282ED117E019480078C6286E
:1046600004D118480068401C1649086024E014482A
:10467000007841B21748144A126800F81210114825
:104680000068401C0F49086016E00D480178114889
:104690000D4A126800EB4200417001200949086090
:1046A00009480068401C0849086008480068401C28
:1046B0000649086000E000BF00BF10BD0044004094
:1046C0004402002090020020940200203C020020BE
:1046D0008C020020D003002010B540F2255158482C
:1046E00000F055F901287CD140F22551544800F0E2
:1046F000C2F8534800F087FA5249087052480078CF
:1047000005286FD2DFE800F00311263D4B004D482D
:1047100000780D2805D14C480078401C4A490870A3
:1047200002E000204849087085E0464800780A28E1
:1047300008D100204549087043480078401C424990
:10474000087006E03F4800780D2802D000203E495E
:10475000087070E03B4800783D493C4A1278885424
:104760003A480078401C39490870084600781828F3
:1047700006DB0020087034480078401C324908707D
:1047800059E0304800780A2805D12F480078401CAD
:104790002D49087002E000202B4908704BE02948A1
:1047A00000780D283FD12A4890ED000A294880ED75
:1047B000000A274890ED010A80ED010A90ED020AF7
:1047C00080ED020A90ED030A234880ED000A20489C
:1047D00090ED040A214880ED000A1D4890ED050A7D
:1047E00001E029E023E080ED050A1B4890ED000A76
:1047F00001F098FF194890ED000A01F099FF154863
:1048000090ED000A01F07CFF01F038FD144880EDC6
:10481000170A01F0AFFD124880ED180A01F0D6FC2E
:104820000F4880ED160A00200749087003E00020B9
:104830000549087000BF02E0014800F0E4F910BD2E
:104840000048004088020020890200208A020020DF
:10485000AC04002030020020340200203802002086
:10486000F402002001F40072B2F5007F00D100BF15
:10487000CA430280704710B50022002340F66A1434
:10488000A14200D100BF0A1201249440A3B2DC432C
:10489000048010BD21B1828942F40052828104E07B
:1048A00082894DF6FF731A40828170471AB1838A5C
:1048B0000B43838202E0838A8B438382704700002C
:1048C00010B504462548844208D101211020FFF785
:1048D00061F800211020FFF75DF83EE02048844297
:1048E00009D101214804FFF735F800214FF40030C9
:1048F000FFF730F831E01B48844209D101218804D8
:10490000FFF728F800214FF48020FFF723F824E078
:104910001548844209D10121C804FFF71BF8002182
:104920004FF40020FFF716F817E01048844209D131
:1049300001210805FFF70EF800214FF48010FFF762
:1049400009F80AE00A48844207D101212020FFF734
:1049500021F800212020FFF71DF810BD00100140B4
:104960000044004000480040004C0040005000401F
:104970000014014002460020B1F5007F00D100BFC5
:1049800013880B400BB1012000E00020704770B588
:104990000246002400230025002040F66A16B1429A
:1049A00000D100BFC1F3421501F01F03012606FA32
:1049B00003F3012D02D19689334006E0022D02D186
:1049C000168A334001E0968A33400C12012606FA1B
:1049D00004F41688344013B10CB1012000E000202B
:1049E00070BDF0B50346002400260025002040F6E7
:1049F0006A17B94200D100BF1846C1F3421401F052
:104A00001F06012707FA06F5012C01D10C3004E03E
:104A1000022C01D1103000E014301AB107682F4386
:104A2000076002E00768AF430760F0BD2DE9FF476C
:104A300005460E460024A14600BFA046B08900B13D
:104A400000BF2C8A24F44054F08804432C82AC89A3
:104A500041F20C608443B08831890843718908436E
:104A60000443AC81AC8A24F44074B0890443AC8222
:104A70006846FEF79FFF2048854202D01F488542C6
:104A800002D1DDF80C9001E0DDF80890A88900F46F
:104A9000004040B109EBC90000EB09103168490042
:104AA000B0FBF1F707E009EBC90000EB0910316832
:104AB0008900B0FBF1F76420B7FBF0F00401200996
:104AC000642101FB1078A88900F4004040B1322035
:104AD00000EBC800B0FBF1F000F00700044308E071
:104AE000322000EB08106421B0FBF1F000F00F0061
:104AF00004432C81BDE8FF870010014000140140F1
:104B00000FB470B586B006460CA8019073E00B9800
:104B100000785C281CD10B98401C0B9000786E2804
:104B200009D072280FD10D21304600F071F80B9892
:104B3000401C0B900BE00A21304600F069F80B98FE
:104B4000401C0B9003E00B98401C0B9000BF4BE007
:104B50000B980078252840D10B98401C0B900078CA
:104B6000642818D0732833D1019810C801900BE045
:104B70002178304600F04CF800BF40213046FFF766
:104B8000F9FE0028F9D0641C20780028F0D10B9899
:104B9000401C0B9020E0019820C801900A2202A935
:104BA000284601F063FC02AC0BE02178304600F0AF
:104BB0002FF800BF40213046FFF7DCFE0028F9D077
:104BC000641C20780028F0D10B98401C0B9003E067
:104BD0000B98401C0B9000BF06E00B9810F8011BCF
:104BE0000B90304600F014F800BF40213046FFF72C
:104BF000C1FE0028F9D00B980078002887D106B0B4
:104C000070BC5DF814FB01468888C0F3080070474B
:104C100030B504460D4600BF80212046FFF7AAFEAE
:104C20000028F9D080212046FFF71CFE40212046B5
:104C3000FFF718FEC5F30800A08030BD00BFFEE7F7
:104C4000DFED181AB0EE610ADFED171AF0EE610A17
:104C5000DFED141AB0EE611A012805DADFED131A40
:104C60001349C1ED151A10E0012807DB032805DA06
:104C7000DFED101A0E49C1ED151A06E0032804DB1A
:104C8000DFED0A1A0A49C1ED151A0949D1F82411B4
:104C9000012906D10649D1ED151AF1EE611AC1EDCF
:104CA000151A70470080A2440000C84489CE5C46B3
:104CB000F402002090E187462DE9F04389B0814657
:104CC0000D4617460024364B0FCB05AE0FC605F533
:104CD00040700090019000208DF808008DF80900C8
:104CE00008208DF80A00069700BF4EE005A810F8CE
:104CF00034008DF80B0005A830F83400010A8DF857
:104D00000C1005A850F83400010C8DF80D1005A802
:104D100050F83400000E8DF80E0005A800EBC4001A
:104D200001798DF80F1005A800EBC4008088010AF6
:104D30008DF8101005A800EBC4004068010C8DF838
:104D4000111005A800EBC4004068000E8DF8120099
:104D500069464846FDF7C4FC06464FF000080BE0E4
:104D600008F1010842F21070804505D104220DA11E
:104D70000F48FFF7C5FE05E031464846FDF744FD04
:104D80000128EDD100BF601CC4B2022CAEDB3A4654
:104D900008A10748FFF7B4FE09B0BDE8F0830000A2
:104DA000A8760008737475636B202564000000000A
:104DB0000050004078782564090000002DE9F04794
:104DC00094B081460D4616461F46002438223649C7
:104DD00006A8FBF767FA05F54070019002900020E5
:104DE0008DF80C008DF80D0008208DF80E000D9642
:104DF0000F972E4911914942139100BF4EE006A82A
:104E000010F834008DF80F0006A830F83400010ABD
:104E10008DF8101006A850F83400010C8DF8111010
:104E200006A850F83400000E8DF8120006A800EB1A
:104E3000C40001798DF8131006A800EBC400808827
:104E4000010A8DF8141006A800EBC4004068010C9C
:104E50008DF8151006A800EBC4004068000E8DF810
:104E6000160001A94846FDF73BFC82464FF00008BA
:104E70000BE008F1010842F21070804505D10322D1
:104E80000BA10E48FFF73CFE05E051464846FDF7F2
:104E9000BBFC0128EDD100BF601CC4B2072CAEDB07
:104EA00014B0BDE8F087000070760008C0E1E400AF
:104EB000737475636B20256400000000005000408F
:104EC00003B401984100009850EAC12018BF0420A3
:104ED0004A0D18BF40F0010040F2FF72B2EB515F83
:104EE00008BF40F00200012808BF052002B070474B
:104EF00070B59B482DED020B2DED068B079D25F01F
:104F00000044A04218DC9748844202DC0AD106988B
:104F100040B19DED060BBDEC068B02B0BDE87040C4
:104F200000F0D2BE002DCCBF9FED8F0B9FED900BFC
:104F3000BDEC068B02B070BD8F48A04215DD8F48D6
:104F4000A042D8BF4FF0FF3458DD9DED060B51EC69
:104F5000100BFFF7B5FF042808BF00F0E1FE9DED40
:104F6000060BBDEC068B02B070BD9DED060B51EC3F
:104F7000100B01F0D9F8CDE9060181489FED828B35
:104F8000A0423CDD8248A0421FDD00249FED82ABA1
:104F90009DED060B53EC1A2B51EC100B01F086FC27
:104FA0009DED060B41EC190B53EC1A2B51EC100B39
:104FB00001F062FF53EC182B02F06AF953EC192B45
:104FC00001F030FDCDE9060149E09DED060B01241D
:104FD00053EC182B51EC100B01F068FC9DED060B07
:104FE00041EC190B53EC182B51EC100B02F050F95B
:104FF00053EC192B01F016FDCDE906012FE06848AE
:10500000A0421FDD02249FED689B9DED060B53EC33
:10501000192B51EC100B01F02FFF53EC182B01F062
:1050200045FC9DED060B41EC180B53EC192B51EC94
:10503000100B02F02DF953EC182B01F0F3FCCDE925
:1050400006010CE09DED060B032453EC102B9FEDA5
:10505000580B51EC100B01F0E5FCCDE906019DED7C
:10506000060B53EC102B51EC100B01F005FF41EC3B
:10507000180B53EC182B01F0FFFE41EC190B4E48B6
:105080000621B0EE490AF0EE690A784400F008FD06
:1050900053EC182B51EC100B01F0EEFE41EC180B09
:1050A0004648B0EE490AF0EE690A0521784400F05E
:1050B000F7FC53EC192B51EC100B01F0DDFE41EC29
:1050C000100B51EC180B53EC102B002C0EDA01F0E6
:1050D000EDFB9DED061B53EC112B01F0CDFE9DED7C
:1050E000061B53EC112B01F0FBFF35E001F0DEFB5A
:1050F0009DED061B53EC112B01F0BEFE41EC100B95
:105100002F48784400EBC40090ED001B51EC100BCD
:1051100053EC112B02F0BCF89DED061B53EC112B48
:1051200002F0B6F841EC100B2648784400EBC400BE
:1051300090ED001B51EC100B53EC112B01F0D0FF44
:1051400041EC100B002DA2BFBDEC068B02B070BD70
:1051500051EC100B01F06CFB41EC100B01E700006F
:10516000000010440000F07F182D4454FB21F93F4B
:10517000182D4454FB21F9BF0000DC3F0000203E05
:105180000000F33F00000000000000000000F03FBE
:105190000000E63F000000000000000000000040AA
:1051A0000080034000000000000000000000F83F05
:1051B000000000000000F0BF42270000F8260000B9
:1051C000822600003A26000030B583B00446FBF783
:1051D0009EF89FED090B05468DED000B0022214640
:1051E0006846FBF7BDF82846FBF796F89DED000BE7
:1051F00003B030BD0000000000000000000000000F
:1052000010B52F499FED2C1B2DED020B84B0059896
:1052100020F000408842D8BF9DED040B2DDD2949C8
:10522000884209D1049840B94FF00100FBF774F8A7
:1052300000F056FD06B010BD05DB9DED040B00F03F
:1052400043FD06B010BD68469DED040B00F054F917
:1052500010F0030004BF9DED021B9DED000B0CD070
:1052600001280ED09DED021B9DED000B022817D0EA
:10527000012000F091FC06B010BD00F059FB06B013
:1052800010BD9DED021B9DED000B012000F084FC84
:1052900051EC100B01F0CCFA06B041EC100B10BD34
:1052A00000F046FB51EC100B01F0C2FA06B041ECE5
:1052B000100B10BD00000000000000000000000006
:1052C000FB21E93F0000F07F2DED020B019820F05B
:1052D000004001909DED000B02B0704700000000FF
:1052E00030B540F2FF742DED048BF0EE608A18EEBD
:1052F000901A85B0B0EE408A9FED2B9B05468DED50
:10530000008B34EA115147D053EC192B51EC180B98
:1053100001F0E0FC40D02A4651EC180B02F04FF9A6
:1053200041EC180B18EE900A8DED008B34EA10500A
:105330001CD053EC192B51EC180B01F0CBFC2BD1EA
:105340000220FAF7E9FF00F0EBFC10EE901A18EEDD
:10535000900A8DED020B8DED008B61F31E00039022
:105360009DED020B05B0BDEC048B30BD0220FAF7B9
:10537000D3FF00F0C5FC10EE901A18EE900A8DEDE8
:10538000020B8DED008B61F31E0003909DED020B6F
:1053900005B0BDEC048B30BD05B0B0EE480AF0EEB0
:1053A000680ABDEC048B30BD000000000000000066
:1053B00010B52F499FED2C1B2DED020B84B00598E5
:1053C00020F000408842DCBF00209DED040B32DD60
:1053D0002849884209D1049840B94FF00100FAF7F2
:1053E0009BFF00F07DFC06B010BD05DB9DED040BBE
:1053F00000F06AFC06B010BD68469DED040B00F09D
:105400007BF810F0030011D0012818D09DED021B8D
:105410009DED000B02281AD000F08AFA51EC100B17
:1054200001F006FA06B041EC100B10BD9DED021B19
:105430009DED000B012000F0AFFB06B010BD9DED0F
:10544000021B9DED000B00F073FA06B010BD0120A9
:1054500000F0A2FB51EC100B01F0EAF906B041ECB0
:10546000100B10BD00000000000000000000000054
:10547000FB21E93F0000F07F00B52DED048BB0EE7D
:10548000409AF0EE609A83B051EC190B01F034FEB3
:1054900041EC180B18EE100A18EE901A8DED008BE7
:1054A000002818BF0120084320F00040C0F17F60B1
:1054B00000F1E040C00F14D019EE101A19EE900A56
:1054C0008DED009B002918BF0121084320F000400A
:1054D000C0F17F6000F1E040C00F04BF0120FAF787
:1054E0001BFFB0EE480A03B0F0EE680ABDEC048B77
:1054F00000BD0000000000002DE9F14F04462DED35
:10550000020B2DED088B8AB09FEDE70B80ED020BAF
:10551000139EE74826F0004585420ADC9DED120BFC
:10552000002084ED000B0AB0BDEC088B03B0BDE891
:10553000F08FE0489FEDE0AB9FEDE1BBA84247DD77
:10554000E14F9FEDE39B9FEDE48B9DED120B53EC40
:105550001A2B51EC100B002E1CDD01F099FE41ECD2
:10556000100BBD4208D053EC1B2B51EC100B01F07B
:105570008FFEC4E900010BE053EC192B51EC100B2A
:1055800001F086FE53EC182B01F082FEC4E9000105
:105590000120C8E701F08AF941EC100BBD4208D0A8
:1055A00053EC1B2B51EC100B01F080F9C4E9000106
:1055B0000BE053EC192B51EC100B01F077F953EC85
:1055C000182B01F073F9C4E900014FF0FF30AAE78E
:1055D000C348A84279DB9DED120B51EC100B00F093
:1055E000A3FD41EC180B9FEDC00B53EC102B01F009
:1055F00043FC9FEDBF1B53EC112B01F057F901F059
:10560000A5FB074601F0D1FB41EC190B53EC1A2B1B
:1056100001F032FC53EC182B01F062FD41EC180B49
:1056200053EC1B2B51EC190B01F026FCDFF8C8A240
:1056300041EC100B4FEA15580125FA4453EC102B9E
:1056400051EC180B01F024FE032DC4E900013DD0FC
:10565000C1F30A5005EB4511A8EB00001139814256
:1056600034DA0AEB051BB0EE48AA9BED000BF0EE16
:1056700068AA53EC102B51EC190B01F0FDFB41EC27
:105680001B0B51EC1A0B53EC1B2B01F001FE41ECF0
:10569000180B51EC1A0B53EC182B01F0F9FD53ECDD
:1056A0001B2B01F0F5FD9BED020B41EC1A0B53ECAB
:1056B000102B51EC190B01F0DFFB53EC1A2B01F00E
:1056C000E7FD41EC100B6D1CB8E70EE0002EA8BF03
:1056D0003846BFF628AF94ED000B51EC100B01F0EB
:1056E000A7F8C4E9000178421DE7C6F3130040F4AF
:1056F000801EC6F30A50A0F2F530471100F01F05D6
:10570000C5F12000DDF848B0089000200690079011
:105710000520EC467949002D07EB0002794408BFCB
:1057200051F8221009D051F8223001EB8201AB4030
:105730004A68089922FA01F11943A1FB0E26A1FB40
:105740000B131A449A4234BF0123002303EB0608CB
:105750000CEB8003D3E901A60E448E4234BF012135
:10576000002192448A4411B1924502D903E0924546
:1057700001D2012100E00021C3E901A641444CF817
:105780002010011EA0F10100C4DC029800F10050BD
:10579000850F0298DDE903678000DDF8148001F0D1
:1057A00004FB41EC1A0B304601F016FB9FED541B35
:1057B00053EC112B01F060FB41EC1B0B384601F060
:1057C0000BFB9FED511B53EC112B01F055FB41ECF2
:1057D000180B404601F000FB9FED4D1B53EC112BC5
:1057E00001F04AFB41EC190B51EC180B53EC192B4F
:1057F00001F05CF853EC1B2B01F058F853EC1A2B1A
:1058000001F054F8CDE90801002008909DED080B47
:1058100053EC1A2B51EC100B01F03AFD53EC1B2BFF
:1058200001F036FD53EC182B01F032FD53EC192B2F
:1058300001F056FC9FED381B53EC112B01F01CFBC3
:105840009FED370B41EC180B53EC102B9DED080B23
:1058500051EC100B01F010FB53EC182B01F026F863
:105860009FED310B41EC180B53EC102B9DED080B09
:1058700051EC100B01F000FB53EC182B01F016F863
:1058800041EC100B139810F0004F06D06D4251EC14
:10589000100B00F0CDFF41EC100B284684ED000BFF
:1058A00041E60000000000000000000000000000D1
:1058B000FB21E93F7CD9024000004054FB21F93F25
:1058C0003163621A61B4D03DFB21F93F0000000052
:1058D0000000601A61B4D03D7370032E8A19A33B97
:1058E000FB2139410000000083C8C96D305FE43FEF
:1058F000000000000000E03FF22100004021000015
:10590000000000000000103E000000000000103CFD
:10591000000000000000103A182D4454FB21F93D0E
:105920003326A611460B113C00000054FB21F93D23
:1059300010B52DED040B2DED088B82B0B0EE419A21
:10594000F0EE619A0B9820F000449FED4BABB4F160
:10595000795F11DA9DED0A0B51EC100B01F0F6F9AD
:10596000002801BFB0EE4A0AF0EE6A0A02B0BDECB0
:10597000088B04BF04B010BD9DED0A0B53EC102B37
:1059800051EC100B01F078FA41EC180B3C48062161
:10599000B0EE480AF0EE680A784400F081F853EC63
:1059A000182B51EC100B01F067FA9DED0A0B41EC3E
:1059B0001B0B53EC192B51EC100B01F05DFA41EC71
:1059C000190B53EC1B2B51EC180B01F055FA53EC4F
:1059D000192B01F05DFC9FED2C0B41EC190B53ECE6
:1059E000102B51EC180B01F047FA41EC100B284832
:1059F000844210DA53EC192B51EC100B01F048FCE7
:105A000053EC1A2B01F06CFB41EC100B02B0BDEC17
:105A1000088B04B010BD1F48A042BCBF9FED1E1BE9
:105A20008DED001B06DBA4F5001001900020009016
:105A30009DED001B51EC100B53EC112B01F028FCD9
:105A40009DED000B41EC180B53EC102B51EC1A0B95
:105A500001F01EFC41EC1A0B53EC192B51EC180B06
:105A600001F016FC53EC1A2B01F03AFB41EC100B41
:105A7000CCE7000000000000000000000000F03F44
:105A8000641E000000000000000000000000E03F75
:105A90003333D33F0000E93F000000000000D23F55
:105AA00070B504462DED028B4D1E00EBC500B0EE27
:105AB000408AF0EE608A90ED000B35F0060017D0BA
:105AC00053EC182B51EC100B01F0D6F941EC100BF4
:105AD0006D1E04EBC50090ED001B51EC100B53EC58
