:020000040800F2
:10000000D04D002085020008815E00083D530008A5
:10001000195E0008D9250008598C0008000000006E
:10002000000000000000000000000000656E0008F5
:100030001D4D0008000000009B0200089D02000802
:100040009F0200089F0200089F0200089F0200080C
:100050009F0200089F0200089F0200089F020008FC
:100060009F0200089F0200089F0200089F020008EC
:100070009F0200089F0200089F0200089F020008DC
:100080009F0200089F0200089F0200089F020008CC
:10009000DD2500089F0200089F0200089F0200085B
:1000A0009F020008A97900089F0200089F0200082B
:1000B000C5790008197A0008BD7A00089F02000877
:1000C0009F0200089F0200089F0200089F0200088C
:1000D0009F020008FD840008F9850008E9860008F1
:1000E0009F0200089F0200089F0200089F0200086C
:1000F000057B00089F0200089F020008454A00088F
:100100009F0200089F020008E97A00089F02000889
:100110009F020008E18100089F0200089F0200087A
:100120009F0200089F0200089F0200089F0200082B
:100130009F0200089F0200089F0200089F0200081B
:10014000F92600089F0200089F0200089F0200088D
:100150009F0200089F0200089F0200089F020008FB
:100160009F0200089F0200089F0200089F020008EB
:100170009F0200089F0200089F0200089F020008DB
:100180009F0200089F02000800F002F800F06AF8E1
:100190000AA090E8000C82448344AAF10107DA45E2
:1001A00001D100F05FF8AFF2090EBAE80F0013F0CA
:1001B000010F18BFFB1A43F00103184760DB000072
:1001C00080DB00000A444FF0000C10F8013B13F0F4
:1001D000070408BF10F8014B1D1108BF10F8015BA0
:1001E000641E05D010F8016B641E01F8016BF9D193
:1001F00013F0080F1EBF10F8014BAD1C0C1B09D1EA
:100200006D1E58BF01F801CBFAD505E014F8016B5B
:1002100001F8016B6D1EF9D59142D6D370470000ED
:100220000023002400250026103A28BF78C1FBD8FF
:10023000520728BF30C148BF0B6070471FB50DF093
:10024000DCFA00F0FDF80400002000210CF034FC82
:10025000401C6060002000210CF018FCE0601FBD15
:1002600010B510BD00F08DF91146FFF7E7FF0CF057
:10027000BDF800F005FC03B4FFF7F2FF03BC00F08B
:1002800049FC00000948804709480047FEE7FEE7AF
:10029000FEE7FEE7FEE7FEE7FEE7FEE7FEE7FEE736
:1002A00004480549054A064B70470000417900089B
:1002B00089010008D0070020D04D0020D04900203F
:1002C000D049002010B5203AC0F00B80B1E818509A
:1002D000203AA0E81850B1E81850A0E81850BFF430
:1002E000F5AF5FEA027C24BFB1E81850A0E81850CF
:1002F00044BF18C918C0BDE810405FEA827C24BF23
:1003000051F8043B40F8043B08BF7047D20728BFB0
:1003100031F8023B48BF11F8012B28BF20F8023BFF
:1003200048BF00F8012B70474FF0000200B513469C
:1003300094469646203922BFA0E80C50A0E80C5005
:10034000B1F12001BFF4F7AF090728BFA0E80C50B6
:1003500048BF0CC05DF804EB890028BF40F8042BAF
:1003600008BF704748BF20F8022B11F0804F18BF1C
:1003700000F8012B704770477047704710B500F0C8
:1003800063F8006810BD10B5044600F05DF8046025
:1003900010BD00000FB4002300B589B00CA9009176
:1003A0000B99CB60214B7B440693214B7B440793F5
:1003B00004236FF00042CDE901321E4A7A446B46B5
:1003C0000892024600200DF082FA09B05DF814FB95
:1003D00070B506464FF0FF3015460C46324686B0E3
:1003E0000091CDE9010169460020049004A8FFF7BF
:1003F000D1FF02460498211825B108B1084600E053
:1004000020462860049800280DD0002A02DD0098BC
:10041000884208D03246081B69460094CDE90104A1
:1004200004A8FFF7B7FF06B070BD0000B9000000D8
:10043000D100000091000000004870476C070020C8
:10044000004870478C070020004870476C07002068
:1004500010B5044600F0BAF80068005D00F0010035
:1004600010BD426842B1016811F8013B23B1521E30
:10047000C0E90012184670470121C160881E70470C
:1004800042685AB1C368016843B983688B4205D09A
:10049000491E521CC0E90012002070474FF0FF3087
:1004A000704700002DE9F047814616468AB0334870
:1004B00078440DC88DE80D0030487844801C03ACAA
:1004C0000DC884E80D0041F69B300844372190FBAD
:1004D000F1F290FBF1F5A5F1800501FB12041B3C44
:1004E00002D56442012000E00020DFF890A08046A1
:1004F0000027FA44AAF1BE0A0DE0E00709D032460F
:10050000684607EB47010AEB810100F0A6FF8DE882
:10051000070064107F1C002CEFD1184F7F44AC3FC4
:1005200018E0E80714D007EB04100DF1180A90E862
:100530000E008AE80E00C068F04201D198190890B8
:10054000324606A903A800F088FF03AB83E8070042
:100550006D10641C002DE4D132466946B8F1000FDD
:1005600003A802D000F051FF01E000F076FFC9E9D6
:100570000001C9F808200AB0BDE8F08750D8000093
:1005800070477546FFF758FFAE460500694653466B
:1005900020F00700854618B020B5FFF781FEBDE8C2
:1005A00020404FF000064FF000074FF000084FF0DA
:1005B000000B21F00701AC46ACE8C009ACE8C0096B
:1005C000ACE8C009ACE8C0098D46704710B5FFF72C
:1005D00037FF001D10BD00BFE1C400002DE9FF4F33
:1005E000064689B00878FF2806D0491C2D2805D07A
:1005F00000244FF0000908E000200CE00124F8E797
:1006000009EB8903491C00EB43090878FF28F7D15F
:1006100014B1C9F100008146107800252C46AA4685
:1006200029462D2801D02B2804D1521C2D2813D067
:10063000002082468B461078FF280FD04FF0000C28
:100640000A21521CA5FB017804FB018105FB0C115A
:10065000C5194BEB0104EEE70120EAE7002108464B
:100660004FF00000BAF1000F02D000EB800040080C
:10067000C0F38158B8F1010F01DD4FF0FF380C983D
:1006800009EB000755EA040009D04FF0020917F5FD
:10069000FA7F0BDA4FEACA70C6E900B012E04FEAFF
:1006A000CA70C6E900B00DB0BDE8F08FB7F5FA7FAB
:1006B0000DDDF0487844D0E90010C6E9001040EAAA
:1006C000CA707060FFF7C0FEC0F80090EBE7391EFB
:1006D00002DAC8F1000200E0424600DA794206A8D8
:1006E000FFF7E0FE06AB93E8070003AB83E80700E3
:1006F00044F23E005BEA04010090584604D144F203
:100700001E012C465D460091210C0904014306D1CF
:100710000099240444EA15442D041039009104F092
:100720007F41014306D10099240244EA15642D0259
:100730000839009104F07041014306D10099240169
:1007400044EA15742D01091F009104F04041014352
:1007500006D10099A40044EA9574AD00891E009169
:1007600004F00041084304D100986D196441401E13
:10077000009042466846002FCDE9014503A902DDFD
:1007800000F07FFE01E000F054FEBAF1000F0446D5
:100790000D4601D084F0004440F2FF7724F0004081
:1007A000284303D0C4F30A50B84212D1FFF74CFEDD
:1007B000C0F80090C4F30A50B8420AD1AE48784459
:1007C000D0E90010C6E9001004F000410843706051
:1007D00069E7C6E9005466E72DE9FF4F1F464FF071
:1007E000000A4FF0FF38454691B0D7E90146CDF8F1
:1007F0003CA0FFF725FEC0680168405C1090B96915
:1008000012986D1C8847396A814688470028F6D1BE
:10081000B9F1FF3F0AD0002E24F4D06411DDB9F104
:100820002B0F08D0B9F12D0F0BD102E0404615B0C7
:100830003AE744F48064B96912986D1C8847761EC3
:100840008146600504A901D52D2000E02B20002E53
:1008500001F1010B0DF130088DF810003FDDB9F109
:10086000690F08D0B9F1490F05D0B9F16E0F02D068
:10087000B9F14E0F1CD13B4601A8009580E850020B
:10088000DDE912126FF002000DF025F8C11CCED187
:100890000EE0B96912986D1C884781461398761E40
:1008A00044F4007405600F98401C002E0F9016DD74
:1008B000B9F1300FEDD0B9F1780F02D0B9F1580F7E
:1008C0000DD10F9801280AD13B46CDE90054DDE94E
:1008D0001212001F02960CF0FCFFC11CA7D1109948
:1008E00089453ED144F0800406E01399681CAAF1C2
:1008F000010A44F400740860B9696D1C1298761EF0
:10090000884730288146F0D02BE01099894505D1E1
:10091000200603D4761E44F0800418E048460AF00E
:10092000CBFD08B3761E0DF123018B4544F4007412
:1009300008D2A9F130000BF8010B200607D5AAF167
:10094000010003E0200602D40AF101008246A0055E
:1009500002D51399681C0860B96912986D1C884704
:100960008146002ED1DC53E0002E51DDB9F1650F38
:1009700002D0B9F1450F4BD1A00549D5B9696D1C1D
:100980001298761E24F440748847002E81460CDDB0
:100990002B2804D0B9F12D0F07D144F48074B96924
:1009A00012986D1C8847761E8146E00501D52D21E1
:1009B00000E02B2108F8011BCDF8008021E0761E15
:1009C0000DF13901884544F400740CD2A9F13000CE
:1009D00010F0FF0088F8000002D10099884509D97D
:1009E00008F1010806E0E00501D5244801E042F2E3
:1009F0000F708246B96912986D1C8847814613981A
:100A00000560002E04DD48460AF056FD0028D6D1C8
:100A1000F96912988847FF2053468BF8000088F840
:100A2000000000200A900B9004AA0CA90AA8FFF766
:100A3000D5FDA00502D46FF00100F8E614F0240FF4
:100A40000AD0E00714D13868DDE90A12031D3B60C3
:100A50000068C0E900120BE00AA968460AF01CFC15
:100A6000E00705D13868009A011D3960006802600E
:100A70002846DCE684D600007AD50000F1D8FFFFD6
:100A800010B50446AFF300802046BDE81040FFF7E4
:100A9000F2BB00004FF0013C50F8042B51F8043B2E
:100AA0009A4221D1A2EB0C03934313EACC1317D142
:100AB00050F8042B51F8043B9A4215D1A2EB0C03D9
:100AC000934313EACC130BD150F8042B51F8043B99
:100AD0009A4209D1A2EB0C03934313EACC13DBD067
:100AE0004FF00000704700BFD01A01BAB1FA81F18F
:100AF00001F0180122FA01F0CB40C1F12001DBB274
:100B0000C0B2C01A2CFA01F3D11A914311EAC311F1
:100B1000E6D1704701491820ABBEFEE7260002006F
:100B20002DE9FF4F1F464FF03C0987B04FF00042C0
:100B3000DDE9141001F10108DDF858A002EA405087
:100B40000390002005908346054604460490B96949
:100B5000461E08988847AAF1010A0290BAF1000FD0
:100B60003BDD02982E2815D0102100F016FA00283F
:100B70002EDB4FF0010B0599014317D0B9F1000F9F
:100B80000BDB4A46C11700F0F5F905430C43A9F108
:100B9000040905E0012004900BE008B145F00105CF
:100BA00001200590049820B9361D02E0049800B198
:100BB000361FB969089808F101088847BBF1000F92
:100BC000AAF1010A0290C9D00999C1F80080C5E7CD
:100BD0000298702808D0502806D0F96908988847EC
:100BE000BBF1000F14D04FE0002002900120BBF1B8
:100BF000000F049009D0B969089808F101088847E6
:100C0000AAF10109B9F1000F07DCF96908988847D2
:100C10006FF001000BB0BDE8F08F2B2804D02D2819
:100C20000CD14FF0FF300490B969089808F1010821
:100C30008847A9F10109B9F1000FE6DD411CE4D0B4
:100C40000A2100F0AAF90028DFDB029908F1010867
:100C500001EB810100EB41000290B96908988847D7
:100C60000A2100F09AF9099AA9F10109B9F1000FD6
:100C7000C2F8008001DD0028E7DAF96908988847A2
:100C80000499029800FB016655EA040004D004F0C0
:100C90004041090002D006E0039898E0A40044EA2D
:100CA0009574AD00B61E04F00041080002D16D1924
:100CB0006441761E159810F0240F03D04FF00B09F5
:100CC0005C4803E04FF028096FF07D0082465645EE
:100CD00007DAAAEB06018944B9F1410F01DD4FF0B3
:100CE000410901200021A9F1010200F043F9024667
:100CF00028400B462140084301D0012100E000219B
:100D0000501E029143F1FF3128402140084301D099
:100D1000012000E000200299834651EA0B014FD0E8
:100D2000002108464FF00000039900F4400039B15B
:100D300000EB80004FF4400100EBD07001EA60004E
:100D40008015012802DD4FF0FF3000E013D0401C79
:100D500036D0029860B3BBF1000F0CD14A46012097
:100D6000002100F007F928402140084301D001206C
:100D700000E00020E0B101204A46002100F0FAF82E
:100D8000034640190A4661412D1A8C4111D3B9F12D
:100D9000400F09DD159810F0240F02D0AAF1340697
:100DA00003E0AAF1170600E0761C00254FF000448E
:100DB00006E05B1E42F1FF3220EA030521EA02044D
:100DC000CAF10100B04206DA1B49039808430190BA
:100DD000002000900EE0039AC4F3D321E80A0A43EE
:100DE000164940EA44500A433146CDE900026846BC
:100DF0000AF058FB159810F0240F0BD01598C00777
:100E000015D13868DDE90012031D3B600068C0E9B8
:100E100000120CE002A869460AF03EFA1598C007D5
:100E200005D13868029A011D3960006802604046A9
:100E3000F0E6000002FCFFFF0000F07F0000F03F42
:100E40002DE9FF4F92461D4685B04FF00041DDE988
:100E5000124BDDE914727F1E01EA4B50414940F00C
:100E6000FF4940EA0108002122F0200049280491AE
:100E700002D04E2828D04CE03BA0012607C88DE8C0
:100E80000700A9690698641C88477F1E014606D49E
:100E90001DF8060018B121F0200181420BD0E9694C
:100EA00006988847032E34D0082E32D06FF0010008
:100EB00009B0BDE8F08F761C032E01D0082EE0D1DA
:100EC000601CCAF80000DCE7A9690698641C884722
:100ED0007F1E2AD420F02000412826D1A969069837
:100EE000641C88477F1E20D420F020004E281CD18F
:100EF000A9690698641C88477F1E48F4002849F4B5
:100F00008009CAF8004001D4282806D0E96906986B
:100F100088475FEACB7012D022E0A9690698641C6A
:100F200088477F1E01D4002803DAE96906988847BC
:100F3000BCE72928F1D1641CCAF80040E9E71BF09E
:100F4000240F07D028680499031D2B600068C0E9AE
:100F5000001805E02868021D2A600068C0F80090AB
:100F60002046A5E70000F07F494E46494E495459B6
:100F700000000000B2F120030AD5C2F1200301FAFB
:100F800002F120FA03F300FA02F041EA030170478C
:100F900000FA03F14FF0000070473A2800D23038D1
:100FA00020F02002412A01D3A2F13700884201D368
:100FB0004FF0FF30704720F07F4C80EA030023F0B1
:100FC0007F47ACEB070303F57C5300F0004003F1CF
:100FD000FF032DE980494FEA154B09B44FEA14434A
:100FE00025EA0B4E24EA03480FF2042606EB1327EA
:100FF00049083E785FEA320203FB0667C7F500073F
:1010000007FB06F64FEA54374FEAD64606F10206CA
:1010100007FB066CCCF1005C4FEA1C472CEA074C3E
:1010200007FB06F40CFB06F504EB15464FEA961693
:1010300034BF00204FF000404FEAD13706FB07FCD9
:101040004FEA1C4C0CFB0BF7D21B03FB0CF761EBBC
:1010500007010CFB0EF7B0EB074072EB17420CFBDD
:1010600008F734BFA2EB0742B2EB074261EB17412E
:101070004FEA0C444FEA910706FB07FC4FEA1C4C71
:101080000CFB0BF7B0EBC74072EB573203FB0CF7CE
:1010900034BFA2EBC742B2EBC74261EB57310CFB46
:1010A0000EF7B0EBC70072EB57720CFB08F734BFBA
:1010B000A2EBC702B2EBC70261EB5771039F4FEA85
:1010C000816141EA921104EBCC044FEAD1374FEA37
:1010D000826206FB07FC42EA90124FEA80604FEA08
:1010E0001C4C0CFB0BF7D21B03FB0CF761EB07014D
:1010F0000CFB0EF7B0EB074072EB17420CFB08F746
:1011000034BFA2EB0742B2EB074261EB17414FEA53
:101110008C554FEA910704EB9C2406FB07FC4FEA31
:101120001C4C0CFB0BF7B0EBC74072EB573203FBC8
:101130000CF734BFA2EBC742B2EBC74261EB5731A9
:101140000CFB0EF7B0EBC70072EB57720CFB08F705
:1011500034BFA2EBC702B2EBC70261EB577115EBCC
:101160004C254FEA816141EA92114FEA82624FEACF
:10117000D13742EA901206FB07FC44F100044FEA23
:1011800080604FEA1C4C0CFB0BF7D21B03FB0CF7E7
:1011900061EB07010CFB0EF7B0EB074072EB174257
:1011A0000CFB08F734BFA2EB0742B2EB074261EB3E
:1011B000174115EB1C154FEA813141EA92414FEA84
:1011C000823242EA90424FEA80304FEA0C7644F194
:1011D000000448EA03434EEA0B484FF0000EB2EB1E
:1011E000080C71EB030724BF624639464EEB0E0E26
:1011F0004FF0000B0018524149414BEB0B0BB2EB87
:10120000080C71EB03077BF1000B24BF62463946E3
:101210004EEB0E0E4FF0000B0018524149414BEBC4
:101220000B0BB2EB080C71EB03077BF1000B24BF37
:10123000624639464EEB0E0E51EA020718BF46F0E1
:10124000010616EB0E7655F1000254F1000103D5AC
:10125000BDE88901BDE80088BDE88901BDE8004816
:10126000B619524141EB0101A3F10103704780809F
:101270007F7E7D7C7B7A79787776767574737271F0
:1012800071706F6E6E6D6C6C6B6A6A6968686766A8
:1012900066656464636362616160605F5F5E5E5D3A
:1012A0005D5C5C5B5B5A5A595958585757565655AE
:1012B00055555454535352525251515050504F4F10
:1012C0004F4E4E4D4D4D4C4C4C4B4B4B4A4A4A4960
:1012D00049494848484747474746464645454544A3
:1012E000444444434343434242424241414100005B
:1012F00046EA0646A3F570534FEA164646EA4256BA
:101300004FEAD22242EA415210B54FEAD121A3F16D
:10131000010300F017F820F0004000F1010C00F08C
:10132000004701EB00501146BCF5006F40EA070092
:1013300000D210BD02484FF0000140EA070010BD86
:101340000000F07F002B26D4770021D01CB54FEA97
:10135000370703B44FF010004FF010014FF00000BA
:101360000FBCBDE810400BF1010BBBF1010F08BF32
:101370005FEA170722BF12F1010211F101014FF0DC
:10138000004143F1000300F0004043EA00007047D1
:10139000F9D35708DAE746EA064613F1400F4FEA59
:1013A00016461FDD13F1200FDFBF16430A4600214A
:1013B00020335B42C8D0C3F1200746EA064602FA52
:1013C00007F74FEA164646EA0706C3F1200722FA56
:1013D00003F201FA07F721FA03F14FF0000342EAA2
:1013E0000702B1E746EA020646EA06464FEA164613
:1013F00046EA0106BCBF46EA0646360C4FF000033B
:101400004FF000024FF000019EE72DE9C0489346DF
:1014100030B491E8380007C831EA400C48BF34EADC
:10142000430C03D5FFF7C7FDFFF78CFFF0BCBDE809
:1014300000882DE9C048934630B491E8380007C8C9
:1014400031EA400C48BF34EA430C03D5FFF7B3FD43
:10145000FFF74EFFF0BCBDE800882DE9C048934679
:1014600030B491E8380007C810F0804F08BF13F07F
:10147000804F03D100F019F8FFF764FFF0BCBDE81E
:1014800000882DE9C048934630B491E8380007C879
:1014900010F0804F08BF13F0804F03D100F005F823
:1014A000FFF726FFF0BCBDE8008820F07F4780EA08
:1014B000030023F07F4C07EB0C03A3F57C5300F0F3
:1014C0000040A3F1FE0392F0000F00F0B38095F00E
:1014D000000F00F077802DE901494FEA11404FEAF3
:1014E000144621EA004800FB06FC24EA064708FBF4
:1014F00006F607FB08F800FB07F718EB06484CEB6D
:10150000164C4FEA124B18EB07484FEA15464CEBC6
:10151000174022EA0B4E0BFB06FC25EA06470EFBA2
:1015200006F607FB0EFE0BFB07F71EEB064E4CEB19
:10153000164C4FF000061EEB074E4CEB174B18EB0A
:101540000B0840F1000018EB0E0B58EB000840F1BF
:1015500000008F1A4FF000013CBFC943661B14BF47
:10156000B5EB040C00213CBFC943F61B4FEA1744FE
:101570004EEA8E0E27EA04454FEA1C4704FB076239
:101580002CEA074C05FB07F70CFB05F604FB0CFCEB
:1015900016EB074642EB174216EB0C4642EB1C4299
:1015A0001BEB060658EB0202414146EA9E0601D5B6
:1015B000BDE80189B619524141EB0101A3F10103D4
:1015C000BDE801894FEA14454FEA114724EA054670
:1015D00021EA074C05FB07F406FB07F70CFB06F1B5
:1015E00005FB0CFC11EB074144EB17444FEA124793
:1015F00011EB0C4144EB1C4422EA074C05FB07F2BB
:1016000006FB07F70CFB06F605FB0CFC16EB074682
:1016100042EB174216EB0C4642EB1C456A1854F19C
:10162000000148BF7047B619524141EB0101A3F1D7
:101630000103704795F0000F37D04FEA11424FEA8F
:10164000144721EA024624EA074C02FB07F106FB95
:1016500007F70CFB06F402FB0CFC14EB074441EB10
:1016600017414FEA154714EB0C4441EB1C4125EAA6
:10167000074C02FB07F506FB07F70CFB06F602FB1F
:101680000CFC16EB074645EB174516EB0C4645EBF5
:101690001C42121951F1000148BF7047B61952415E
:1016A00041EB0101A3F1010370474FEA14454FEAF2
:1016B000114724EA054621EA074C05FB07F106FB22
:1016C00007F70CFB06F24FF0000605FB0CFC12EBD3
:1016D000074241EB174112EB0C4251EB1C4148BF52
:1016E0007047921841EB0101A3F10103704721B14A
:1016F000826842F00102826003E0826822F0010207
:10170000826070470021084A1168084A1140D0E9F8
:1017100000231A4383681A43C3681A431143044AD7
:10172000C2F804137047000004230140E030FCFFBE
:10173000002001400146C86C80B27047024600207C
:1017400013680B400BB1012000E00020704700003F
:1017500030B50246002000235068104C20400D791F
:101760000C6844EA05242043506090680C4C2040EB
:10177000D1E903542C438D682C434D7944EA450448
:1017800020439060D06A20F470000C7D641EE4B2A7
:10179000234340EA0350D06230BD0000FFFEFFFC4F
:1017A000FDF7FFC0F0B504460D4600200021092DCD
:1017B00011DDE068A5F10A0606EB4607072606FAE2
:1017C00007F18843A5F10A0606EB460603FA06F17F
:1017D0000843E0600CE0206905EB4507072606FAA0
:1017E00007F1884305EB450603FA06F1084320613B
:1017F000072A0FDA606B561E06EB86071F2606FACD
:1018000007F18843561E06EB860605FA06F10843E3
:10181000606322E00D2A0FDA206BD61F06EB8607E5
:101820001F2606FA07F18843D61F06EB860605FA3F
:1018300006F10843206310E0E06AA2F10D0606EB12
:1018400086071F2606FA07F18843A2F10D0606EB6C
:10185000860605FA06F10843E062F0BD816841F0B2
:10186000804181607047000010B50A48007800F0A0
:10187000010010B106F024F80AE00648007800F0F4
:10188000100028B90348007800F0080000B900BF34
:1018900010BD0000B004002010B51048007800F022
:1018A000010010B106F034F816E00C48007800F0A2
:1018B000100010B103F0E0FA0EE00848007800F0E4
:1018C000080010B105F074FB06E00448007800F051
:1018D000020008B101F066FC10BD0000B004002059
:1018E00000B58DB00121042005F028F9012108027E
:1018F00005F054F930200B9003208DF830000020C3
:101900008DF833000BA9164803F034FC01210802BE
:1019100005F054F900214FF4807005F04FF90020D4
:1019200007900A9009904FF48030089007A8FFF7BD
:10193000E9FE002001908DF808008DF80900039061
:101940000490059001208DF8180001A90548FFF7C3
:10195000FFFE01210348FFF7CAFE0DB000BD0000E5
:10196000000802400020014010B52DED048BF0EE80
:10197000408AB0EE609AB0EE418AF0EE490AB0EECD
:10198000680A09F0A1FD1C4880ED1B0AD0ED1B0A76
:10199000B0EE600A00F06AF8DFED180A70EE209AE7
:1019A000B0EE480A00F030F839EEC00ABDEEC00AC9
:1019B00010EE104A22460121114807F08BF90E481B
:1019C000D0ED1B0AB0EE600A00F050F8DFED0D0A12
:1019D00070EE209AB0EE480A00F016F839EE800A50
:1019E000BDEEC00A10EE104A22460221044807F05C
:1019F00071F9BDEC048B10BDB004002000409CC503
:101A00000068004000409C45F0EE400A114890ED0F
:101A1000000A20EE200A104890ED001AB8EEC11A14
:101A200030EEC11A0D48D0ED001A01EE810A0C48C3
:101A300090ED001ADFED0B1A01EE210A0A4880ED45
:101A4000000ABDEEE00A044880ED000A064890ED69
:101A5000000A7047A8030020A4030020B003002060
:101A6000AC03002000000000B4030020F0EE400AA8
:101A70000E4890ED000A20EE200A0D4890ED001A65
:101A8000B8EEC11A30EEC11A0A48D0ED001A01EEC4
:101A9000810A094880ED000ABDEEE00A044880EDA5
:101AA000000A054890ED000A70470000600300201E
:101AB0005C030020640300206803002010B52DEDB6
:101AC000028BB0EE408A194890ED160AF0EE400AFB
:101AD000B0EE480A09F0F8FC154880ED000A90EDD8
:101AE000000AFFF7C3FFDFED130A30EE200ABDEE58
:101AF000C00A10EE104A224601210F4807F0EAF80A
:101B00000B4890ED000AFFF7B1FFDFED0C0A30EE55
:101B1000200ABDEEC00A10EE104A224602210648F5
:101B200007F0D8F8BDEC028B10BD0000B004002017
:101B30005800002000C0DA450068004000C0DAC547
:101B400010B51048806F042802D0052816D10AE08D
:101B5000DFED0D1A9FED0D1ADFED0D0A9FED0D0A59
:101B600004F0D6F90BE0DFED081A9FED081ADFED5F
:101B70000A0A9FED080A04F0CBF900E000BF00BF9D
:101B8000012010BDB0040020000016450000000038
:101B9000008089440000E1440000AF4410B509F022
:101BA000D3FC2848D0F8840010B900F051F81CE0AC
:101BB0002448D0F88400012805D1042121488167F8
:101BC000FFF7BEFF11E01F48D0F88400022805D1BE
:101BD00005211C488167FFF7B3FF06E01948D0F8DC
:101BE0008400032801DB00F017F91648816FC06FED
:101BF000814205DA1348D0F88010491EC0F88010E1
:101C00001048D0F8840004281AD10E4890ED180A24
:101C1000DFED0D0AB4EEE00AF1EE10FA10DD90ED02
:101C2000180ADFED0A0AB4EEE00AF1EE10FA07D264
:101C3000007820F001000349087000210148816705
:101C400010BD0000B00400200000FA44004003452D
:101C500010B501F0B9FF634890ED170AD0ED270ADF
:101C6000B4EEE00AF1EE10FA0BDD90ED180AD0EDBB
:101C7000280AB4EEE00AF1EE10FA02D200218167E0
:101C800072E0584890ED170AD0ED290AB4EEE00A48
:101C9000F1EE10FA0BDD90ED180AD0ED280AB4EE43
:101CA000E00AF1EE10FA02DD012181675CE04D48A7
:101CB00090ED170AD0ED290AB4EEE00AF1EE10FA21
:101CC0000BD290ED180AD0ED2A0AB4EEE00AF1EE3C
:101CD00010FA02DD0221816746E0424890ED170AC2
:101CE000D0ED270AB4EEE00AF1EE10FA0BD290ED37
:101CF000180AD0ED2A0AB4EEE00AF1EE10FA02D288
:101D00000321816730E0374890ED180ADFED360A8D
:101D1000B4EEE00AF1EE10FA04DD9FED340AFFF7AD
:101D2000CDFE21E02F4890ED180ADFED310AB4EE28
:101D3000E00AF1EE10FA04D29FED2E0AFFF7BEFE84
:101D400012E0284890ED170ADFED2B0AB4EEE00A06
:101D5000F1EE10FA04DD9FED290AFFF7AFFE03E074
:101D60009FED270AFFF7AAFE1E48806F30B10128B9
:101D700010D002281AD0032830D123E001221146C6
:101D800000209FED1E1ADFED1F0A9FED1F0A03F0D2
:101D900085FE24E00122114610469FED141ADFED66
:101DA000190A9FED1A0A03F079FE18E00122911E2C
:101DB00000209FED131ADFED160A9FED160A03F0BF
:101DC0006DFE0CE00122911E10469FED0A1ADFED18
:101DD000100A9FED0D0A03F061FE00E000BF00BF96
:101DE000012010BDB004002000803B450000B4423B
:101DF0000080D4440000B4C200008343000000000F
:101E00000000344300404E45000016440000FAC371
:101E10000000AF44000016C410B501F0D5FE6448C0
:101E200090ED170AD0ED2B0AB4EEE00AF1EE10FAAD
:101E30000BDD90ED180AD0ED2C0AB4EEE00AF1EEBD
:101E400010FA02D20621816772E0594890ED170A14
:101E5000D0ED2D0AB4EEE00AF1EE10FA0BDD90EDB4
:101E6000180AD0ED2C0AB4EEE00AF1EE10FA02DD09
:101E7000072181675CE04E4890ED170AD0ED2D0AEE
:101E8000B4EEE00AF1EE10FA0BD290ED180AD0EDA4
:101E90002E0AB4EEE00AF1EE10FA02DD08218167A5
:101EA00046E0434890ED170AD0ED2B0AB4EEE00A65
:101EB000F1EE10FA0BD290ED180AD0ED2E0AB4EE26
:101EC000E00AF1EE10FA02D20921816730E03848C9
:101ED00090ED180ADFED370AB4EEE00AF1EE10FAE1
:101EE00004DD9FED350AFFF7E9FD21E0304890ED74
:101EF000180ADFED320AB4EEE00AF1EE10FA04D26D
:101F00009FED2F0AFFF7DAFD12E0294890ED170A3E
:101F1000DFED2C0AB4EEE00AF1EE10FA04DD9FEDDD
:101F20002A0AFFF7CBFD03E09FED280AFFF7C6FD65
:101F30001F48806F062806D0072810D008281AD01E
:101F4000092830D123E00122114600209FED1E1AFE
:101F5000DFED1F0A9FED1F0A03F0A0FD24E0012220
:101F6000114610469FED141ADFED1B0A9FED1B0A68
:101F700003F094FD18E00122911E00209FED131A3A
:101F8000DFED170A9FED170A03F088FD0CE0012230
:101F9000911E10469FED0A1ADFED130A9FED130AFA
:101FA00003F07CFD00E000BF00BF012010BD000079
:101FB000B004002000803B450000B4420080D444BF
:101FC0000000B4C20000834300000000000034435E
:101FD000008054450040FB4400108B45000016C4AF
:101FE0000000AF440040FBC40000AF4300001644B3
:101FF00010B52DED028BCC48D0F8280180B9CA4825
:1020000090ED170AC94880ED000AC74890ED180AFC
:10201000C74880ED000AC448806FC64908603FE0A9
:10202000C148D0F8280101283AD1BF48806F30B1AB
:10203000012810D002281AD0032830D123E0012231
:10204000114600209FEDBC1ADFEDBC0A9FEDBC0AD3
:1020500003F024FD23E00122114610469FEDB91A3A
:10206000DFEDB90A9FEDB90A03F018FD17E0012270
:10207000911E00209FEDB61ADFEDB60A9FEDB60A5D
:1020800003F00CFD0BE00122911E10469FEDB31AE8
:10209000DFEDB30A9FEDB30A03F000FD00BF00BF00
:1020A0000121A148C0F8281190ED180AF0EE401A5D
:1020B00090ED170AB0EE401A9D48D0ED000A9B48FB
:1020C00090ED000A02F04AFEB0EE408AF0EE608A1F
:1020D0009FEDA50B53EC102B51EC180B0BF024F9D2
:1020E00005D2A348006810B90120A1490860A048A2
:1020F0000068012809D100218B48C0F82811D0EDD3
:10210000190AB0EE600AFFF7D9FC8748D0F88400BE
:10211000F0BB854890ED170AD0ED270AB4EEE00A2F
:10212000F1EE10FA0BDD90ED180AD0ED280AB4EEAE
:10213000E00AF1EE10FA02D2002181679EE07A48AF
:1021400090ED170AD0ED290AB4EEE00AF1EE10FA8C
:102150000BDD90ED180AD0ED280AB4EEE00AF1EE9E
:1021600010FA02DD0121816788E06F4890ED170ABF
:10217000D0ED290AB4EEE00AF1EE10FA0DD290ED9E
:10218000180AD0ED2A0AB4EEE00AF1EE10FA00E0E7
:1021900019E002DD0221816770E0634890ED170AC3
:1021A000D0ED270AB4EEE00AF1EE10FA66D290ED17
:1021B000180AD0ED2A0AB4EEE00AF1EE10FA5DD268
:1021C000032181675AE05848D0F8840050B356483C
:1021D00090ED170AD0ED2B0AB4EEE00AF1EE10FAFA
:1021E0000BDD90ED180AD0ED2C0AB4EEE00AF1EE0A
:1021F00010FA02D20621816740E04B4890ED170AA1
:10220000D0ED2D0AB4EEE00AF1EE10FA0BDD90ED00
:10221000180AD0ED2C0AB4EEE00AF1EE10FA02DD55
:10222000072181672AE0404890ED170AD0ED2D0A7A
:10223000B4EEE00AF1EE10FA0BD290ED180AD0EDF0
:102240002E0AB4EEE00AF1EE10FA02DD08218167F1
:1022500014E0354890ED170AD0ED2B0AB4EEE00AF1
:10226000F1EE10FA0AD290ED180AD0ED2E0AB4EE73
:10227000E00AF1EE10FA01D2092181672A48806F45
:102280002C490968884211D02748007840F0400066
:10229000254908700846007820F0200008700020CA
:1022A0003349086000212048C0F82811304831A186
:1022B0000268324806F032FC1B4890ED180AF0EE36
:1022C000401A90ED170AB0EE401A1948D0ED000AF6
:1022D000164890ED000A02F041FDB0EE408AF0EEA3
:1022E000608A51EC180B0AF08BFE0446224624A1AA
:1022F000224806F013FC0D4890ED000ABDEEC00A1E
:1023000010EE102A1EA11D4806F008FC084890EDAA
:10231000000ABDEEC00A10EE102A1AA1174806F0F6
:10232000FDFBBDEC028B10BDB00400201C010020A1
:1023300020010020280100200000000000805445FA
:102340000080A2440000B44200208045000016C472
:10235000000034430000AF440080A2C40000B4C2B7
:1023600000002F44000016440000000000C072402E
:1023700024010020412564090000000000500040B5
:102380002564090025640D0A0000000010B53748D7
:10239000006870B9364890ED170A364880ED000A9B
:1023A000334890ED180A344880ED000A01202F4987
:1023B0000860304890ED000ADFED300AB4EEE00A24
:1023C000F1EE10FA23DD90ED000ADFED2D0AB4EEF8
:1023D000E00AF1EE10FA1AD2274890ED000ADFED7C
:1023E000290AB4EEE00AF1EE10FA10DD90ED000AD1
:1023F000DFED250AB4EEE00AF1EE10FA07D21C4830
:10240000D0ED160AB0EE600A00F040F82CE0194852
:1024100090ED000ADFED190AB4EEE00AF1EE10FAD1
:102420001BD390ED000ADFED160AB4EEE00AF1EEE0
:1024300010FA12DC104890ED000ADFED120AB4EE3B
:10244000E00AF1EE10FA08D390ED000ADFED0E0A73
:10245000B4EEE00AF1EE10FA06DD0548D0ED160AFA
:10246000B0EE600A00F012F810BD0000E00000209D
:10247000B0040020E4000020E80000200000AFC409
:102480000000AF440000614400C0734510B52DED5D
:10249000068BB0EE408A3748006848B99FED360A8F
:1024A00038EE000A354880ED000A01203149086005
:1024B000F0EE480A314890ED000A09F005F830487E
:1024C00080ED000A2F480068401C2E49086008462D
:1024D000006896280BDA2C4A01212C4806F0FAFBFA
:1024E00041F2DB720221294806F0F4FB3FE0254867
:1024F000006896283BDB224890ED000AFFF7B6FA09
:10250000BDEEC00A10EE104A224601211F4806F017
:10251000E1FB1B4890ED000AFFF7A8FABDEEC00AE8
:1025200010EE104A22460221184806F0D3FB144848
:1025300000680BF0F1F841EC1A0BB0EE4A0AF0EE2D
:102540006A0A07F049FAB0EE409AF0EE609A9FED01
:10255000100B53EC102B51EC190B0AF0ABFD06D20B
:10256000002004490860074908600B490860BDEC79
:10257000068B10BDD800002000003442D00000209F
:10258000D4000020DC00002025E8FFFF00680040A8
:102590000000000000001440A40000201CB5012130
:1025A000102004F0CBFA8020009001208DF8040068
:1025B00000208DF8060003208DF8050002208DF81C
:1025C00007006946034802F0D5FD8021014802F06A
:1025D00045FE1CBD0010024000BFFEE710B53B48A1
:1025E00003783B4A3B493C4800F0A8FC3948006866
:1025F000302803D1364908780AF07EF8354800685B
:1026000040F2872188420DD13148006845F65001DB
:10261000884207D12E4890ED010AB8EEC00A2F4833
:1026200080ED050A2B480068B0F5227F0DD12848BF
:10263000006845F65601884207D1254890ED010A09
:10264000B8EEC00A254880ED570A2248006840F2DB
:10265000862188420DD11E48006845F65001884207
:1026600007D11B4890ED010AB8EEC00A1B4880ED67
:10267000090A1B49184800F0B3F81949491C1648C3
:1026800000F0AEF81649C91C134800F0A9F8154926
:10269000114800F0A5F814490F4800F0A1F81349BB
:1026A0000D4800F09DF8114908310B4800F098F8EA
:1026B0000F49094800F094F80E49074800F090F8D7
:1026C0000C490831044800F08BF810BD0C040020C0
:1026D000040400201004002000640040B004002026
:1026E0000100F0107000F03003000012080000320A
:1026F00003000014080000341CB52E4803786A4615
:102700002D492E4800F01AFC2B48006840F2822127
:1027100088420BD145F656010098884206D19DEDBE
:10272000010AB8EEC00A264880ED100A2248006867
:1027300040F28121884210D122480068401C214982
:10274000086045F656010098884206D19DED010AC1
:10275000B8EEC00A1A4880ED130A1B49174800F06A
:102760003FF81949491C154800F03AF81649C91CA8
:10277000124800F035F81549104800F031F81449B6
:102780000E4800F02DF813490C4800F029F81149C3
:1027900008310A4800F024F80F49084800F020F8F2
:1027A0000E49064800F01CF80C490831034800F0B7
:1027B00017F81CBD18040020140400200068004015
:1027C000B0040020E00300200100F0107000F030A1
:1027D0000300001208000032030000140800003457
:1027E00000220C4B994202D10023836111E0C1F316
:1027F000130201F000730BB1C2600AE001F08063C4
:102800000BB1026105E001F000630BB1826000E0F2
:10281000426070477000F0302DE9F04F8BB00646F3
:102820000F4614461D46DDF850804FF00009CA4699
:10283000CB46B5F5807F43D012DC102D34D008DCB8
:10284000012D25D0022D26D0042D27D0082D4FD1C3
:1028500027E0202D2BD0402D2CD0802D48D12CE0EE
:10286000B5F5805F38D009DCB5F5007F2BD0B5F524
:10287000806F2BD0B5F5006F3AD12AE0B5F5005F37
:102880002DD0B5F5804F2DD0B5F5004F30D12CE0CF
:102890004FF000092DE04FF001092AE04FF0020946
:1028A00027E04FF0030924E04FF0040921E04FF046
:1028B00005091EE04FF006091BE04FF0070918E07C
:1028C0004FF0080915E04FF0090912E04FF00A092E
:1028D0000FE04FF00B090CE04FF00C0909E04FF04E
:1028E0000D0906E04FF00E0903E04FF00F0900E07C
:1028F00000BF00BFB8F5807F4BD01ADCB8F1100FD5
:102900003BD00CDCB8F1010F2BD0B8F1020F2BD06B
:10291000B8F1040F2BD0B8F1080F52D12AE0B8F16A
:10292000200F2DD0B8F1400F2DD0B8F1800F48D135
:102930002CE0B8F5805F38D009DCB8F5007F2BD0EB
:10294000B8F5806F2BD0B8F5006F3AD12AE0B8F512
:10295000005F2DD0B8F5804F2DD0B8F5004F30D1A5
:102960002CE04FF0000A2DE04FF0010A2AE04FF072
:10297000020A27E04FF0030A24E04FF0040A21E0A6
:102980004FF0050A1EE04FF0060A1BE04FF0070A61
:1029900018E04FF0080A15E04FF0090A12E04FF076
:1029A0000A0A0FE04FF00B0A0CE04FF00C0A09E0A6
:1029B0004FF00D0A06E04FF00E0A03E04FF00F0A49
:1029C00000E000BF00BF7F48304418B1B0F5806F11
:1029D0001AD10CE04FF0090B00208DF812001420E2
:1029E0008DF804000121480604F0B8F80DE04FF01E
:1029F000090B0E208DF8120040208DF804000121F3
:102A0000000504F0ABF800E000BF00BFC4F309000C
:102A100078BBA012A0F580108038092834D2DFE8F6
:102A200000F0050A0F14191E23292E000121084663
:102A300004F084F829E00121022004F07FF824E06A
:102A40000121042004F07AF81FE00121082004F09D
:102A500075F81AE00121102004F070F815E001214A
:102A6000202004F06BF810E00121402004F066F80B
:102A70000BE009E00121802004F060F805E001216D
:102A8000080204F05BF800E000BF00BF5A46494668
:102A9000204602F0B7FB5A465146204602F0B2FBF0
:102AA00045EA0800099002208DF828008DF82900D9
:102AB00000208DF82A0001208DF82B0009A920465E
:102AC00002F058FB304600F07FF800208DF81E0021
:102AD0008DF81F008DF820008DF821008DF8220060
:102AE0008DF823008DF81A008DF81B000B208DF84F
:102AF0001C0007208DF81D007D2F22D008DC0A2F36
:102B00000FD0142F11D0322F13D0642F29D114E0FD
:102B1000FA2F1AD0B7F5FA7F1BD0B7F57A7F20D1FC
:102B20001BE0C820ADF818001CE06420ADF81800C8
:102B300018E02820ADF8180014E01420ADF81800B3
:102B400010E01020ADF818000CE00820ADF81800D7
:102B500008E00420ADF8180004E00220ADF81800E9
:102B600000E000BF00BF06A9304600F0D6F8002004
:102B70008DF8130001208DF814000020ADF8080036
:102B8000ADF80A00ADF80C00ADF80E00ADF810007D
:102B900001208DF8150002A800F032F802208DF80F
:102BA000050003208DF8060001208DF8070001A81C
:102BB00003F068F901220221304600F0A5F80BB0BD
:102BC000BDE8F08F009CFFBF10B504460B4884425F
:102BD00009D10121480603F0D1FF00214FF0007018
:102BE00003F0CCFF08E00121880603F0C7FF0021B5
:102BF0004FF0806003F0C2FF10BD00000064004091
:102C000010B50021837A012202FA03F13D4A1268CD
:102C100042F001023B4B1A603A4A1C3212688A4366
:102C2000384B1C331A60027BCAB9364A0C32126820
:102C30008A43344B0C331A604288C38842EA034308
:102C4000304A4032847A42F834300288838842EA3B
:102C500003432C4A4032847A02EBC4025360027B65
:102C6000012A19D1274A0C3212680A43254B0C332A
:102C70001A604288038842EA0343224A4032847A37
:102C800042F83430C288838842EA03431D4A403206
:102C9000847A02EBC4025360C27A3AB9194A121D0F
:102CA00012688A43174B1B1D1A6006E0154A121D55
:102CB00012680A43134B1B1D1A60028932B9114A6C
:102CC000143212688A430F4B14331A600289012AA6
:102CD00006D10C4A143212680A430A4B14331A60A4
:102CE000427B012A06D1074A1C3212680A43054B6F
:102CF0001C331A60034A126822F00102014B1A6069
:102D000010BD0000006600401AB143690B434361E7
:102D100002E043698B434361704730B502460020AF
:102D20000023146824F002041460146844F00104C1
:102D3000146000E05B1C546804F001041CB94FF6F9
:102D4000FF74A342F6D1546804F001040CB90020CA
:102D50006CE08C79012C04D1146844F08004146078
:102D600003E0146824F080041460CC79012C04D1B1
:102D7000146844F04004146003E0146824F0400434
:102D800014600C7A012C04D1146844F020041460FF
:102D900003E0146824F0200414604C7A012C04D160
:102DA000146844F01004146003E0146824F0100464
:102DB00014608C7A012C04D1146844F00804146067
:102DC00003E0146824F008041460CC7A012C04D1C8
:102DD000146844F00404146003E0146824F004044C
:102DE00014608C78A407CD7844EA05640D7944EA30
:102DF00005444D7944EA05540D886D1E2C43D46179
:102E0000146824F001041460002300E05B1C546883
:102E100004F001041CB14FF6FF74A342F6D15468CC
:102E200004F001040CB1002000E0012030BD024696
:102E3000002019B9D36803F0030006E0012903D18B
:102E4000136903F0030000E00020704710B500F59F
:102E5000D87303EB01131B6803F004031372137A96
:102E600053B900F5D87303EB01131B6840F2FF74EC
:102E700004EA5353136009E000F5D87303EB011320
:102E80001B686FF0604404EAD303536000F5D87305
:102E900003EB01131B6803F00203537200F5D873B0
:102EA00003EB01135B6803F00F03937200F5D87313
:102EB00003EB01135B681B0AD37400F5D87303EBB3
:102EC00001139B68D37200F5D87303EB01139B6861
:102ED0001C0A147300F5D87303EB01139B681C0CD8
:102EE000547300F5D87303EB01139B681B0E9373A7
:102EF00000F5D87303EB0113DB68D37300F5D873C7
:102F000003EB0113DB681C0A147400F5D87303EBA0
:102F10000113DB681C0C547400F5D87303EB011328
:102F2000DB681B0E937421B9C36843F02003C360B0
:102F300003E0036943F02003036110BD2DE9F04174
:102F400086B080460D4616461F46002400214046A6
:102F5000FFF76DFF18B9002006B0BDE8F08101AAA7
:102F600000214046FFF772FF002405E00DF10F003D
:102F7000005D3055601CC4B2BC42F7DB019828608C
:102F80000120E9E710B502460020936803F0806352
:102F9000B3F1806F00D110E0936803F00063B3F1E8
:102FA000006F01D1012008E0936803F08053B3F172
:102FB000805F01D1022000E00420042874D002F5D3
:102FC000C07303EB00131B6803F0010402F5C07328
:102FD00003EB00131C600B7A7BB94B7A0C8843EA35
:102FE000445302F5C07404EB00142468234302F533
:102FF000C07404EB0014236010E00B7A4C6843EAC1
:10300000C4034C7A234302F5C07404EB0014246813
:10301000234302F5C07404EB001423608B7A03F0A1
:103020000F038B7202F5C07303EB00135B6823F090
:103030000F0402F5C07303EB00135C6002F5C0736C
:1030400003EB00135B688C7A234302F5C07404EB36
:10305000001463608B7B1C064B7B44EA03440B7BB0
:1030600044EA0323CC7A234302F5C07404EB001432
:10307000A3608B7C1C064B7C44EA03440B7C44EA33
:103080000323CC7B234302F5C07404EB0014E360FC
:1030900002F5C07303EB00131B6843F0010402F553
:1030A000C07303EB00131C6010BD000010B5024696
:1030B000002321B1012907D002290FD109E090682E
:1030C0001D4C00EA04030BE090681C4C00EA04036A
:1030D00006E090681A4C00EA040301E0002300BFF8
:1030E00000BF184C181BA34216D007DC83B16FF049
:1030F0008060184470B1022818D111E0B0F5007F4B
:1031000010D0114C204448B1B0F5003F0ED10BE077
:1031100002230DE000230BE0002309E0002307E079
:10312000012305E0012303E0012301E0002300BFA8
:1031300000BFD8B210BD0000030000040003000867
:1031400000000310000100080001FFF72DE9F04323
:1031500085B081460D4690461E4600240095019597
:1031600000208DF808008DF809008DF80A6000BF76
:1031700006E018F804100DF10B000155601C84B234
:10318000B442F6DB69464846FFF7FCFE07460024DA
:1031900000BF39464846FFF789FF0128F9D105B03D
:1031A000BDE8F08310B502F049F901280ED101F015
:1031B000EFF80749C1F868010846007820F04000A0
:1031C00008700846007840F02000087010BD00002C
:1031D000B004002010B52DED028B9FEDFE0AFE48D5
:1031E00080ED150A9FEDFB0A80ED150A90ED170A98
:1031F000FA4880ED000AF84890ED180AF84880ED8A
:10320000000AF54890ED160AF64880ED000A08F02D
:103210009BF9F14890ED130ADFEDF30AB4EEE00AF2
:10322000F1EE10FA03DD0120EB49C1F82401EF486B
:103230000068EB49D1ED000AE84991ED000A00F081
:1032400021FEEA4908600846006800EB4001C1EB36
:10325000C010FA2101EB800000EE100AB8EEC00A9F
:10326000DE48D0ED000AB4EEE00AF1EE10FA18DD07
:10327000DE48006800EB801040F2A461A1EB800002
:1032800000EE100AB8EEC00AD548D0ED000AB4EE40
:10329000E00AF1EE10FA04DD0021CF48C0F8F81082
:1032A0008AE0D248006800EB4001C1EBC010FA216F
:1032B00001EB800000EE100AB8EEC00AC748D0ED5E
:1032C000000AB4EEE00AF1EE10FA18D2C74800681E
:1032D00000EB801040F61C4101EB800000EE100A6C
:1032E000B8EEC00ABE48D0ED000AB4EEE00AF1EE36
:1032F00010FA04DD0121B848C0F8F8105CE0BB48C2
:10330000006800EB4001C1EBC0106FF0F901A1EBC8
:10331000800000EE100AB8EEC00AB048D0ED000AF6
:10332000B4EEE00AF1EE10FA18D2B048006800EBF3
:10333000801040F61C4101EB800000EE100AB8EE50
:10334000C00AA748D0ED000AB4EEE00AF1EE10FA88
:1033500004D20221A048C0F8F8102DE0A34800686C
:1033600000EB4001C1EBC0106FF0F901A1EB800050
:1033700000EE100AB8EEC00A9848D0ED000AB4EE8C
:10338000E00AF1EE10FA17DD9848006800EB8010B3
:1033900040F2A461A1EB800000EE100AB8EEC00A72
:1033A0008F48D0ED000AB4EEE00AF1EE10FA03D235
:1033B00003218948C0F8F8108748D0F8F80030B1E8
:1033C00001287DD0022879D0032878D177E101F057
:1033D0000FFD8648006800EB4001C1EBC01040F2D1
:1033E0001451A1EB800000EE900AF8EEE00A30EEF6
:1033F000200A7B48D0ED000A30EEC00A764880ED06
:10340000450A9FED7B0A80ED440AD0ED440AB0EEF8
:10341000600A7448D0ED000A08F056F86E4880ED56
:10342000460AD0ED450AB0EE600A09F013F96A4881
:10343000D0ED460A30EEC00AB0EE408AFEF716FB29
:10344000654880ED140AD0ED450AB0EE600A09F037
:1034500001F96148D0ED460A30EEC00AB0EE408A6C
:10346000FEF704FB5C4880ED110A90ED150AD0EDE3
:10347000140A30EE200A80ED120A90ED150AB1EE22
:10348000400AD0ED110A30EE200A80ED0F0A90EDCF
:10349000120ABDEEC00A10EE102A0121554805F0AF
:1034A00019FC4D4890ED0F0ABDEEC00A10EE102A2F
:1034B0000221504805F00EFC76E101E074E072E173
:1034C00001F096FC49480068AF2148434FF416715B
:1034D00001EB800000EE900AF8EEE00A30EEC00A40
:1034E0003E48D0ED000A30EEC00A3B4880ED450A68
:1034F0009FED410A80ED440AD0ED440AB0EE600A27
:103500003848D0ED000A07F0DFFF334880ED460A67
:10351000D0ED450AB0EE600A09F09CF82E48D0EDD7
:10352000460A30EE200AB0EE408AFEF79FFA2A489B
:1035300080ED140AD0ED450AB0EE600A09F08AF871
:103540002548D0ED460A30EE200AB0EE408AFEF75C
:103550008DFA214880ED110A90ED150AD0ED140A7C
:1035600030EE200A80ED120A90ED150AB1EE400A05
:10357000D0ED110A30EE200A80ED0F0A90ED120A0C
:10358000BDEEC00A10EE102A01211A4805F0A2FB78
:10359000114890ED0F0ABDEEC00A10EE102A02216C
:1035A000144805F097FBFFE001F022FC0F4800688B
:1035B00000EB4001C1EBC01040F6AC5101EB8000C4
:1035C00000EE900AF8EEE00A30EEC00A0448D0EDB2
:1035D000000A13E000D83E46B00400207801002025
:1035E0007C0100208001002000D8BE45840100201D
:1035F0000000B4C2006800400000000030EEC00AC5
:103600009F4880ED450A9FED9F0A80ED440AD0ED6A
:10361000440AB0EE600A9C48D0ED000A07F054FF5F
:10362000974880ED460AD0ED450AB0EE600A09F0F1
:1036300011F89348D0ED460A30EE200AB0EE408AE9
:10364000FEF714FA8E4880ED140AD0ED450AB0EE6C
:10365000600A08F0FFFF8A48D0ED460A30EE200AE3
:10366000B0EE408AFEF702FA854880ED110A90ED2F
:10367000150AD0ED140A30EE200A80ED120A90ED02
:10368000150AB1EE400AD0ED110A30EE200A80EDA5
:103690000F0A90ED120ABDEEC00A10EE102A0121A9
:1036A0007A4805F017FB764890ED0F0ABDEEC00A88
:1036B00010EE102A0221754805F00CFB74E001F0B1
:1036C00097FB73480068AF2148434FF4167101EB34
:1036D000800000EE900AF8EEE00A30EEC00A6D4875
:1036E000D0ED000A30EE200A654880ED450A9FEDD6
:1036F0006A0A80ED440AD0ED440AB0EE600A6248DE
:10370000D0ED000A07F0E0FE5D4880ED460AD0EDFE
:10371000450AB0EE600A08F09DFF5948D0ED460A10
:1037200030EEC00AB0EE408AFEF7A0F9544880EDB2
:10373000140AD0ED450AB0EE600A08F08BFF50483D
:10374000D0ED460A30EEC00AB0EE408AFEF78EF9A0
:103750004B4880ED110A90ED150AD0ED140A30EEB9
:10376000200A80ED120A90ED150AB1EE400AD0ED64
:10377000110A30EE200A80ED0F0A90ED120ABDEE1C
:10378000C00A10EE102A0121404805F0A3FA3C4877
:1037900090ED0F0ABDEEC00A10EE102A02213B4840
:1037A00005F098FA00E000BF00BF3548D0F80401EA
:1037B000032802DD182032490870334890ED000AD2
:1037C000BDEEC00A10EE102A34A1354805F0A6F966
:1037D0002B4890ED170ABDEEC00A10EE102A2FA15B
:1037E0002F4805F09BF9264890ED180ABDEEC00A57
:1037F00010EE102A29A12A4805F090F9294827A19E
:103800000268274805F08AF9214824A10268244863
:1038100005F084F91A4890ED460ABDEEC00A10EE94
:10382000102A1EA11E4805F079F9154890ED450AA9
:10383000BDEEC00A10EE102A18A1194805F06EF965
:103840000F4890ED130ABDEEC00A10EE102A13A126
:10385000134805F063F90A4890ED120ABDEEC00A5C
:1038600010EE102A0DA10E4805F058F904480EA1DB
:10387000D0F8F8200A4805F051F9BDEC028B10BDD4
:10388000B00400200000B442800100200068004025
:1038900084010020780100200000344325640900E1
:1038A000005000403C0100202564090D0A00000082
:1038B00010B588B004460121082003F03FF901212A
:1038C000480403F04BF907220521244801F09AFC33
:1038D00007220621214801F095FC60200690022075
:1038E0008DF81C008DF81D0000208DF81E000120B1
:1038F0008DF81F0006A9194801F03CFC0294002035
:10390000ADF80C00ADF80E00ADF81000ADF81400E5
:103910000C20ADF8120002A9114805F095F84021DD
:103920000F4804F0ADFF26208DF8040000208DF82C
:10393000050002208DF8060001208DF8070001A87F
:1039400002F0A0FA012240F22551054805F057F88F
:103950000121034804F0ACFF08B010BD000C024088
:103960000044004070B52DED0C8BB0EE409AF0EEA7
:10397000609AB0EE41AA04468C4890ED000A60EED1
:10398000000AB1EE001A80EE810A8948D0ED000AE3
:1039900090ED001A00EE810A10EE105A284609F048
:1039A000BBFE41EC1C0BB0EE4C0AF0EE6C0A06F0CC
:1039B000DBFFB0EE40BAF0EE60BA51EC1B0B09F041
:1039C0009DF80AEE900ADFED7B0A8AEE200ADFED11
:1039D0007A0A20EE200AB0EE40DA9FED780A3AEE3D
:1039E000000AB0EE408A9FED750A3AEE000AF0EE4A
:1039F000408A9FED700AB4EEC08AF1EE10FA06DB41
:103A00009FED6F0A38EE400AB0EE408A0CE09FED61
:103A10006D0AB4EEC08AF1EE10FA05D89FED680A7F
:103A200038EE000AB0EE408A9FED620AF4EEC08ADA
:103A3000F1EE10FA06DB9FED620A38EEC00AF0EEF6
:103A4000408A0CE09FED5F0AF4EEC08AF1EE10FAB6
:103A500005D89FED5B0A38EE800AF0EE408A5348A5
:103A6000D0ED000AB0EE001A80EE810A5048D0ED89
:103A7000000A80EE201AB0EE41BAB0EE4B0A05F013
:103A8000D3FD9FED4C1AC8EE010A9FED4B1A10EEC4
:103A9000810AB0EE408A4548D0ED000AB0EE001A27
:103AA00080EE810A4248D0ED000A80EE201AB0EE86
:103AB00041BAB0EE4B0A05F0B7FD9FED3E1AC8EED5
:103AC000810A9FED3D1A00EE810AF0EE408A3748E8
:103AD00090ED000AF0EE000A80EE20BAB0EE4D0A3A
:103AE00005F0D2FEF0EE490A4BEE400AC4ED020AA0
:103AF0002E4890ED000AF0EE000A80EE20BAB0EEFB
:103B00004D0A06F069FEF0EE690A4BEE400AC4ED7C
:103B1000030A264890ED000AF0EE000A80EE20BA73
:103B2000B0EE4D0A05F0B0FEF0EE490A4BEE000A89
:103B3000C4ED040A1D4890ED000AF0EE000A80EE84
:103B400020BAB0EE4D0A06F047FEF0EE690A4BEEE1
:103B5000000AC4ED050AB0EE680A05F095FEF0EE25
:103B6000490A4AEE800AC4ED000AB0EE680A06F07F
:103B700033FEF0EE690A4AEE800AC4ED010AB0EEA7
:103B8000480A05F081FEF0EE490A4AEE800AC4EDCB
:103B9000060AB0EE480A06F01FFEF0EE690A4AEE89
:103BA000800AC4ED070ABDEC0C8B70BD100100202B
:103BB0000C01002000003443DB0F49400000B442F8
:103BC0000000B443000034C33048D0F88C0058BB28
:103BD0002E48D0F8840088B99FED2D0A2B4880ED3F
:103BE000270A9FED2C0A80ED280A9FED2B0A80ED15
:103BF000290A9FED2A0A80ED2A0A46E02348D0F8D8
:103C0000840058B39FED260A204880ED2B0A9FEDD3
:103C1000250A80ED2C0A9FED240A80ED2D0A9FEDE8
:103C2000230A80ED2E0A30E01848D0F88C000128D5
:103C30002BD11648D0F8840088B99FED170A134895
:103C400080ED270A9FED130A80ED280A9FED100AE8
:103C500080ED290A9FED110A80ED2A0A15E00B4834
:103C6000D0F88400032810D19FED0F0A074880ED9B
:103C70002B0A9FED0C0A80ED2C0A9FED090A80EDBE
:103C80002D0A9FED0A0A80ED2E0A7047B00400202D
:103C90000000C842004035450000C8C200009644FC
:103CA00000C08A4400E05D4500C08AC400409C44D6
:103CB00010B52DED048B08F05BFB6B48D0ED170AB7
:103CC00030EEC00A10EE104A204609F025FD41EC06
:103CD000190BB0EE490AF0EE690A05F07DFEB0EE70
:103CE000408AF0EE608A9FED610B53EC102B51EC93
:103CF000180B09F0DFF93BD208F040FB5A48D0ED31
:103D0000180A30EEC00A10EE104A204609F004FDF1
:103D100041EC190BB0EE490AF0EE690A05F05CFEC1
:103D2000B0EE408AF0EE608A9FED500B53EC102B02
:103D300051EC180B09F0BEF91AD24B4890ED150A58
:103D4000B5EEC00AF1EE10FA12D00421494801F094
:103D50007CFA20B10421474801F077FA40B946487F
:103D60000068401C4449086000204449086002E0A3
:103D700000204149086008F0FBFA3B48D0ED170AE3
:103D800030EEC00A10EE104A204609F0C5FC41ECA6
:103D9000190BB0EE490AF0EE690A05F01DFEB0EE0F
:103DA000408AF0EE608A9FED310B53EC102B51EC02
:103DB000180B09F07FF93DD208F0E0FA2A48D0ED5F
:103DC000180A30EEC00A10EE104A204609F0A4FC92
:103DD00041EC190BB0EE490AF0EE690A05F0FCFD62
:103DE000B0EE408AF0EE608A9FED200B53EC102B72
:103DF00051EC180B09F05EF91CD21B4890ED150A26
:103E0000B5EEC00AF1EE10FA14D00421194801F001
:103E10001CFA01280ED10121194801F016FA0128D7
:103E200008D116480068401C144908600020124957
:103E3000086002E0002011490860104800681E2850
:103E400006DD00200D4908600120BDEC048B10BD8B
:103E500009480068962804DD002007490860022010
:103E6000F3E70020F1E70000B004002000000000AC
:103E70000000084000100240100000200C0000204C
:103E800000080240F0B52DED068B83B0B0EE408AFD
:103E9000F0EE608A04460025002600200090019084
:103EA00002909FEDF60AB4EEC08AF1EE10FA3FDB05
:103EB0009FEDF30AF4EEC08AF1EE10FA38D89FEDC8
:103EC000EF0A38EE400ADFEDEF0A80EE201A11EE1D
:103ED000107A384609F020FC41EC1A0BB0EE4A0A81
:103EE000F0EE6A0A05F078FDB0EE409AF0EE609AC6
:103EF00051EC190B09F084F805469FEDE30AC8EE72
:103F0000800A10EE907A384609F006FC41EC1A0B54
:103F1000B0EE4A0AF0EE6A0A05F05EFDB0EE409A95
:103F2000F0EE609A51EC190B09F06AF80646DBE0F6
:103F30009FEDD60AB4EEC08AF1EE10FA43DB9FED96
:103F4000D00AF4EEC08AF1EE10FA3CDB9FEDCB0A0A
:103F500038EE000ADFEDCE0A80EE201A11EE107A5C
:103F6000384609F0D9FB41EC1A0BB0EE4A0AF0EEE4
:103F70006A0A05F031FDB0EE409AF0EE609A51EC1D
:103F8000190B09F03DF805469FEDBD0A38EEC00A51
:103F9000DFEDC00A80EE201A11EE107A384609F0E3
:103FA000BBFB41EC1A0BB0EE4A0AF0EE6A0A05F0D0
:103FB00013FDB0EE409AF0EE609A51EC190B09F047
:103FC0001FF8064690E09FEDB10AB4EEC08AF1EE0C
:103FD00010FA43D29FEDB00AF4EEC08AF1EE10FA67
:103FE0003CDD9FEDA60A38EE000ADFEDA60A80EE62
:103FF000201A11EE107A384609F08EFB41EC1A0BAC
:10400000B0EE4A0AF0EE6A0A05F0E6FCB0EE409A1D
:10401000F0EE609A51EC190B08F0F2FF05469FEDA7
:104020009E0A38EEC00ADFED980A80EE201A11EEE3
:10403000107A384609F070FB41EC1A0BB0EE4A0AD0
:10404000F0EE6A0A05F0C8FCB0EE409AF0EE609A15
:1040500051EC190B08F0D4FF064645E09FED870AA6
:10406000B4EEC08AF1EE10FA3ED29FED8B0AF4EE68
:10407000C08AF1EE10FA37D29FED800A38EE400A7E
:10408000DFED830A80EE201A11EE107A384609F02F
:1040900043FB41EC1A0BB0EE4A0AF0EE6A0A05F057
:1040A0009BFCB0EE409AF0EE609A51EC190B08F0D0
:1040B000A7FF05469FED770AC8EE800A10EE907ABA
:1040C000384609F029FB41EC1A0BB0EE4A0AF0EE33
:1040D0006A0A05F081FCB0EE409AF0EE609A51EC6D
:1040E000190B08F08DFF0646032D00DB0225032E79
:1040F00000DB022669480068694908609FED5F0A95
:10410000B4EEC08AF1EE10FA0DDB9FED5D0AF4EE1D
:10411000C08AF1EE10FA06D800206049086001203C
:10412000604908603DE09FED590AB4EEC08AF1EEA7
:1041300010FA0DDB9FED520AF4EEC08AF1EE10FA90
:1041400006DB01205549086002205649086028E036
:104150009FED4E0AB4EEC08AF1EE10FA0DD29FED3B
:104160004E0AF4EEC08AF1EE10FA06DD02204B4949
:10417000086001204B49086013E09FED400AB4EE4F
:10418000C08AF1EE10FA0CD29FED430AF4EEC08A19
:10419000F1EE10FA05D2032040490860022041499F
:1041A00008603F4800683D490968884202D0012004
:1041B0003D4908603C48006800285ED039480068E6
:1041C000012802D0022876D12BE0022017E02146F8
:1041D00012E0324A126802EBC202344B03EB820255
:1041E00001EB410302EB830252F820205DF82030FE
:1041F0001A444DF82020491E0029EADA401E002802
:10420000E5DA02200AE02A4A12685DF822105DF819
:104210002020914201DD26490860401E0028F2DA84
:104220004AE0022017E0214612E01C4A126802EB25
:10423000C2021E4B03EB820201EB410302EB83023D
:1042400052F820205DF820301A444DF82020491EF5
:104250000029EADA401E0028E5DA02200AE0144AC2
:1042600012685DF822105DF82020914201DD1049AE
:104270000860401E0028F2DA1EE021E000007A43C8
:1042800000C0414500002F4400007A4400007AC37A
:104290000000614400000C440080D44490010020E0
:1042A000940100209C010020980100203406002089
:1042B0008C010020FFE700BF00BF002029490860F3
:1042C00001202949096801EBC101284A02EB81015B
:1042D00006EB460201EB820141F82500BDEEC80A5B
:1042E00010EE102A22A1234804F018FCBDEEE80AC3
:1042F00010EE102A1EA11F4804F010FC1E481CA13D
:1043000002681C4804F00AFC1C4819A102681948FC
:1043100004F004FC1A4816A10268164804F0FEFBDB
:10432000184813A10268134804F0F8FB0E4810A1C6
:104330000268104804F0F2FB2A460DA10D4804F073
:10434000EDFB32460AA10B4804F0E8FB05480EA13C
:104350000268084804F0E2FB0948006803B0BDECBD
:10436000068BF0BD9801002090010020340600204B
:1043700025640900005000403C010020400100205D
:104380008C0100209C0100202564090D0A0000001A
:104390002DE9F0432DED048B91B0954890ED170A6F
:1043A000B0EE408A90ED180AF0EE408A90ED160AC1
:1043B000B0EE409A202109A8FBF7B6FF0020059037
:1043C00006900790089001900290039004900024BA
:1043D000002609A8B0EE491AF0EE680AB0EE480AC5
:1043E000FFF7C0FA00274FF003082CE000254FF03C
:1043F000030924E0DFF8FCC10CEBC9000CEBC5019C
:104400000DF1240C0CEBC8020CEBC703D0ED013A04
:1044100090ED003AD1ED012A91ED002AD2ED011A7A
:1044200092ED001AD3ED010A93ED000A00F002F9B3
:1044300018B1012005A941F82500A9466D1C032DDE
:10444000D8DDB8467F1C032FD0DD00274FF00308CE
:104450002CE000254FF0030924E0DFF89CC10CEBB1
:10446000C9000CEBC5010DF1240C0CEBC8020CEBE0
:10447000C703D0ED013A90ED003AD1ED012A91ED5C
:10448000002AD2ED011A92ED001AD3ED010A93ED44
:10449000000A00F0CFF818B1012001A941F8250069
:1044A000A9466D1C032DD8DDB8467F1C032FD0DD37
:1044B0000598012808D00698012805D007980128FA
:1044C00002D00898012801D1022400E00024022C27
:1044D0000ED00198012808D00298012805D0039831
:1044E000012802D00498012801D1012400E0002411
:1044F000022C20D1DDE905010844079908440899F8
:10450000084402283BD1DDE90501084402280ED009
:10451000DDE906010844022809D0DDE90701084465
:10452000022804D0059908980844022801D10226DF
:1045300025E0002623E0012C20D1DDE9010108441B
:104540000399084404990844022818D1DDE90101BF
:10455000084402280ED0DDE902010844022809D0EF
:10456000DDE903010844022804D0019904980844B5
:10457000022801D1012602E0002600E00026022CDC
:1045800003D102201D49086009E0012C03D101205C
:104590001A49086003E014B903201849086026B9D5
:1045A00016480068154908600AE0012E03D104206E
:1045B0001249086004E0022E02D105200F4908606C
:1045C00032460FA1124804F0A9FA224611A1104860
:1045D00004F0A4FA094813A102680D4804F09EFAF9
:1045E0000648006811B0BDEC048BBDE8F083000004
:1045F000B00400207C0000205C000020A00000200F
:10460000737469636B436F726E6F723D256409004A
:1046100000500040696E746572736563743D256473
:1046200009000000737469636B5374617475733DA2
:104630002564090010B52DED080B2DED048B9DEDC3
:104640000A0ADDED060A30EE600ADDED050A9DED91
:10465000071A70EEC10A20EE200ADDED040A9DED76
:10466000061A70EEC10A9DED0B1ADDED071A31EE48
:10467000611A00EEC10ADDED080A9DED061A70EE22
:10468000C10A9DED051ADDED071A31EE611A60EEE3
:10469000810A9DED041ADDED061A31EE611ADDED99
:1046A000091A9DED072A71EEC21A41EE610A20EE49
:1046B000200AB0EE408A9DED040ADDED0A0A30EED4
:1046C000600ADDED090A9DED0B1A70EEC10A20EEBD
:1046D000200ADDED080A9DED0A1A70EEC10A9DED73
:1046E000051ADDED0B1A31EE611A00EEC10ADDED9F
:1046F000060A9DED0A1A70EEC10A9DED091ADDED5C
:104700000B1A31EE611A60EE810A9DED081ADDED9B
:104710000A1A31EE611ADDED071A9DED0B2A71EED2
:10472000C21A41EE610A20EE200AF0EE408A9DEDA9
:10473000061AF0EE410A9DED041AB0EE410A01F0AE
:1047400055FBB0EE409A9DED0A1AF0EE410A9DED40
:10475000081AB0EE410A01F061FBB4EEC09AF1EE26
:1047600010FA5FDB9DED0A1AF0EE410A9DED081A82
:10477000B0EE410A01F03AFBB0EE409A9DED061A08
:10478000F0EE410A9DED041AB0EE410A01F046FB3D
:10479000B4EEC09AF1EE10FA44DB9DED071AF0EE8C
:1047A000410A9DED051AB0EE410A01F01FFBB0EE83
:1047B000409A9DED0B1AF0EE410A9DED091AB0EEFC
:1047C000410A01F02BFBB4EEC09AF1EE10FA29DB9E
:1047D0009DED0B1AF0EE410A9DED091AB0EE410A6B
:1047E00001F004FBB0EE409A9DED071AF0EE410A8D
:1047F0009DED051AB0EE410A01F010FBB4EEC09A2F
:10480000F1EE10FA0EDBB5EEC08AF1EE10FA09D81F
:10481000F5EEC08AF1EE10FA04D80120BDEC048B4D
:1048200008B010BD0020F9E710B51048806F0428CB
:1048300002D0052816D10AE0DFED0D1A9FED0D1A02
:10484000DFED0D0A9FED0D0A02F038FC0BE0DFED05
:10485000081A9FED081ADFED0A0A9FED080A02F018
:104860002DFC00E000BF00BF012010BDB0040020FF
:104870000000164500000000008089440000E1446B
:104880000000C844F0EE400A0E4890ED000A20EE09
:10489000200A0D4890ED001AB8EEC11A30EEC11A88
:1048A0000A48D0ED001A01EE810A094880ED000A9D
:1048B000BDEEE00A044880ED000A054890ED000ACC
:1048C000704700005C0200205802002060020020B7
:1048D0006402002010B5FDF759FD10BD10B506F0BB
:1048E00033FE2248D0F8840010B902F0FFFD1CE02E
:1048F0001E48D0F88400012805D104211B48816797
:10490000FFF792FF11E01948D0F88400022805D182
:10491000052116488167FFF787FF06E01348D0F8A6
:104920008400032801D102F0C3FE1048D0F88400AF
:1049300004281AD10D4890ED180ADFED0D0AB4EEE7
:10494000E00AF1EE10FA10DD90ED180ADFED090A29
:10495000B4EEE00AF1EE10FA07D2007820F0010080
:104960000249087000210148816710BDB004002091
:104970000000FA440040034510B52DED028BB0EE67
:10498000408AB0EE480A00F00FF8BDEEC00A10EE03
:10499000104A22460821034804F09CF9BDEC028B22
:1049A00010BD000000640040F0EE400A9FED020AD6
:1049B00020EE800A7047000000008045024600EEAD
:1049C000102AB8EEC00ADFED1C0AB4EEE00AF1EEE0
:1049D00010FA0ADC00EE102AB8EEC00ADFED170A62
:1049E000B4EEE00AF1EE10FA03D20020144B186086
:1049F00002E00120124B186000EE101AB8EEC00A57
:104A0000DFED0D0AB4EEE00AF1EE10FA0ADC00EE7A
:104A1000101AB8EEC00ADFED090AB4EEE00AF1EEB2
:104A200010FA03D20020064B186002E00120044B6C
:104A3000186003480068704700A8874500808E43CF
:104A40003402002010B50749074800F0EBF838B1F0
:104A50000021054800F024F80249034800F006F858
:104A600010BD000000800028B86002400246094BDB
:104A70009A4201D2084801E00648103801F000537C
:104A80001BB1064B0B40C36002E0044B0B4083603C
:104A90007047000010640240006002407D0F7D0FEF
:104AA00021B1026842F00102026003E0026822F0D4
:104AB0000102026070470000016821F001010160FD
:104AC0000021016041608160C1600161212141617B
:104AD0004A49884204D13D21484A103A91608CE00D
:104AE00046491831884205D14FF47461434A103A5F
:104AF000916082E041493031884205D14FF4741110
:104B00003E4A103A916078E03C494831884205D1EC
:104B10004FF07461394A103A91606EE03749603164
:104B2000884204D13649354A103AD16065E03349AC
:104B30007831884204D13349304A103AD1605CE080
:104B40002E499031884204D12F492C4A103AD16025
:104B500053E02A49A831884205D14FF03D51274AF8
:104B6000103AD16049E02949884204D13D21274AC1
:104B7000083A116041E025491831884205D14FF4C7
:104B80007461224A083A116037E020493031884286
:104B900005D14FF474111D4A083A11602DE01B49EC
:104BA0004831884205D14FF07461184A083A1160C3
:104BB00023E016496031884204D11149134A121F7B
:104BC00011601AE011497831884204D10D490F4A29
:104BD000121F116011E00D499031884204D10A4939
:104BE0000A4A121F116008E00849A831884204D11E
:104BF0004FF03D51054A121F11607047106002408E
:104C00003D000020400F002000003D2010640240C5
:104C1000014600200A6802F001020AB1012000E00A
:104C20000020704770B50246002000240025124E77
:104C3000B24201D2114B01E00F4B103B104E0E401F
:104C400036B11E2606EAD124166806EA040502E0FB
:104C5000566906F0800501F000560EB15C6800E070
:104C60001C68084E344004EA010616B10DB101205B
:104C700000E0002070BD00001064024000600240AF
:104C80003C0F3C0F7D0F7D0F10B501F080034BB141
:104C900022B1436943F08003436103E0436923F099
:104CA0008003436180290BD02AB1036801F01E0400
:104CB0002343036004E0036801F01E04A343036080
:104CC00010BD000010B500220268134B1A40CC68DA
:104CD0000B6823434C6923438C692343CC692343EA
:104CE0000C6A23434C6A23438C6A23434C6B234353
:104CF0008C6B23431A430260426922F00702D1E918
:104D00000B3423431A4342610B6943604B68836051
:104D10008B68C36010BD00003F801CF0704700B579
:104D2000034604E04FF47A7000F004F85B1E002B99
:104D3000F8D100BDA82141434FF0E0225161052187
:104D4000116100BF4FF0E021096901F480310029B1
:104D5000F8D004214FF0E0221161704710B52DED1D
:104D60000C8BB0EE408AF0EE608AB0EE419AF0EE25
:104D7000619A38EEE90A10EE101A084608F0CCFCE9
:104D800041EC1D0B9FED181BB0EE4D0AF0EE6D0AC5
:104D900004F096FEB0EE40BAF0EE60BA38EE490A82
:104DA00010EE101A084608F0B7FC41EC1D0B9FED01
:104DB0000E1BB0EE4D0AF0EE6D0A04F081FEB0EE6F
:104DC00040CAF0EE60CA53EC1B2B51EC1C0B07F0F1
:104DD000C7FE41EC1A0BB0EE4A0AF0EE6A0A05F083
:104DE000C3FDBDEC0C8B10BD0000000000000040B6
:104DF00010B51D48D0F8F8001C490968884205D054
:104E0000B7EE000A1A4880ED000A04E01648D0F810
:104E1000F8001649086007F025F9F1EE040AB4EE2F
:104E2000E00AF1EE10FA09DD114890ED000ADFED1D
:104E3000110A30EE200A80ED000A11E007F012F9A5
:104E4000F9EE040AB4EEE00AF1EE10FA08D20848CE
:104E500090ED000ADFED070A30EE600A80ED000AEF
:104E6000034890ED000A10BDB00400204403002068
:104E700040030020CDCCCC3D704700007FB5002022
:104E80000290039007F048F9BDEEC00A10EE104AF8
:104E900007F056F9BDEEC00A10EE105A9FEDA40AB5
:104EA00002F058F80020A349C1F824012946204601
:104EB000FFF784FDA0490860A048007800F00100D9
:104EC00050B107F01BF89E4908609C48006820F02C
:104ED00001009A49086099E09848007800F00200C3
:104EE00000286DD09548007800F008000028F2D026
:104EF0009348006807F0C0F88DED020ACDED030A73
:104F0000DDED031AB0EE611A8A48D0ED161AF0EE04
:104F1000610ADDED021AB0EE610AFCF725FDFEF72D
:104F2000C7FE01283AD100220121864803F0D2FEB3
:104F300000220221834803F0CDFE7F48006850B173
:104F40007F48006806F080FD01207F49086000204E
:104F50007A4908605AE07A48006806F02FFF7B48DB
:104F60000068401C7949086000207749086077484C
:104F70000068022804DB01200860002073490860F3
:104F800000206E4908600846006840F00100086093
:104F90000846006840F00400086037E0FEF788FE2D
:104FA000022833D10020654908600846006840F0B7
:104FB000010008600846006840F00400086025E031
:104FC0005E48007800F0040000B35D48006800F01F
:104FD00075F98DED000ACDED010A9DED011AF0EE97
:104FE000410A9DED001AB0EE410A01F0C3F9012813
:104FF0000CD10020514908600846006840F00200CA
:1050000008600846006840F0080008604E480068E4
:10501000012817D14748007820F010004549087052
:10502000474801684348C0F8DC100B20434908603A
:1050300000204549086045490860454908604860C6
:105040008860C860404843A10268444803F066FD98
:105050003A4841A10268414803F060FD36483EA14C
:1050600002683E4803F05AFD35483BA102683B48C0
:1050700003F054FD9DED020ABDEEC00A10EE102AA9
:1050800035A1364803F04AFD354890ED000ABDEEE3
:10509000C00A10EE102A30A1304803F03FFD31481D
:1050A00090ED000ABDEEC00A10EE102A2AA12B488E
:1050B00003F034FD2C4890ED000ABDEEC00A10EE5E
:1050C000102A25A1254803F029FD1A4890ED170A5A
:1050D000BDEEC00A10EE102A1FA1204803F01EFDED
:1050E000144890ED180ABDEEC00A10EE102A1AA15D
:1050F0001A4803F013FD0F4890ED160ABDEEC00AE2
:1051000010EE102A14A1154803F008FD0F4812A153
:105110000268124803F002FD22460FA10F4803F077
:10512000FDFC2A4611A10D4803F0F8FC7FBD0000EC
:1051300000007042B004002050020020280200202D
:105140004C02002000680040240200204802002099
:10515000E40600206669783D25640900005000409F
:10516000180200201C020020200200202564090DE6
:105170000A000000F0B50A4600210023002400BF09
:105180003DE0012505FA01F3156805EA03049C4298
:1051900034D105684F000326BE40B543056015793C
:1051A0004E00B5400668354305601579012D02D0E3
:1051B0001579022D16D185684F000326BE40B543F0
:1051C000856055794E00B5408668354385604568F1
:1051D00001268E40B5434560456896798E40B6B24B
:1051E00035434560C5684F000326BE40B543C560E2
:1051F000D5794E00B540C6683543C560491C1029B5
:10520000BFD3F0BDF0B5002300244D07ED0E02FA28
:1052100005F3CE1000F1200555F826504E07F70E85
:105220000F26BE40B543CF1000F1200646F82750A8
:10523000CE1000F1200555F8265045EA0304CE10A3
:1052400000F1200545F82640F0BD02460020136914
:105250000B400BB1012000E00020704741837047F4
:105260000183704710B504460723012221460848F0
:10527000FCF798FA0648FCF7F1FA00BF022104484F
:10528000FCF75CFA0028F9D00148FCF753FA10BD8E
:10529000002001402DE9F04107460C46002500267C
:1052A00005E03846FFF7DEFF0544701CC6B2A64293
:1052B000F7DBB5FBF4F080B2BDE8F0810CB530B19E
:1052C00001280DD0022814D0032824D11AE09FED24
:1052D000150A8DED000A9FED140A8DED010A1AE002
:1052E0009FED120A8DED000A9FED110A8DED010A66
:1052F00011E09FED100A8DED000A9FED0B0A8DED78
:10530000010A08E09FED090A8DED000A9FED0A0AE7
:105310008DED010A00BF00BF9DED000ADDED010A21
:105320000CBD00000000E1C40000164500000000B4
:10533000000016440000E1440040834500BFFEE742
:1053400008B5002003465322632100904FF08040AF
:1053500002F010FC0120002340F2473240F2E73116
:1053600000901D4802F006FC0120002340F2473265
:1053700063210090194802F0FDFB4FF400704310C8
:10538000174A4FF4FA7100901648FDF745FA40208D
:105390002023134A4FF4FA7100901348FDF73CFAAA
:1053A000FCF79EFAFDF7FAF800F0CCFF02F086FE5B
:1053B00001F078FB4FF4E13001F024FE4FF4E130CE
:1053C000FEF776FA4FF4E13001F010FB4FF4612064
:1053D00002F0B0FE08BD00000004004000080040DC
:1053E00000040240006400400068004070B50546BB
:1053F0000C4600F00DF814B1012C06D102E0FFF7C5
:105400006DFA03E0FCF7CAFB00E000BF00BF70BD0F
:10541000084890ED130ADFED080AB4EEE00AF1EE59
:1054200010FA06DDD0F8280118B901200149C1F8A9
:1054300024017047B004002000D8BE4510B575485F
:105440000068401C7349086008460068052873D14D
:1054500000200860704890ED170A7048D0ED000AEF
:1054600070EE600AB1EE041A80EE810ADFED6C0A7C
:1054700020EE200A6B4880ED000A674890ED180A7C
:105480006948D0ED000A30EE600AF1EE040A80EEC1
:10549000201A9FED630A21EE000A644880ED000A9D
:1054A0005D48D0ED150AB0EE600A01F019FB6048C6
:1054B00080ED000A5B4890ED000A20EE000A5B4890
:1054C000D0ED000A90ED001A00EE810AF1EEC00A5C
:1054D0005148C0ED330A564890ED001ADFED551AD9
:1054E00021EE211AF0EE410A4B4890ED331AB0EE4E
:1054F000410A02F015FE28B14F480068401C4E4991
:10550000086002E000204C4908604B48006805280C
:1055100013D10020484908603F48007820F040003F
:105520003D4908700846007840F0200008700020CF
:10553000C1F82401012010BD6AE0374890ED170A38
:10554000364880ED000A344890ED180A364880ED60
:10555000000A344890ED000ABDEEC00A10EE102A91
:1055600036A1374803F0DAFA304890ED000ABDEE74
:10557000C00A10EE102A31A1314803F0CFFA2C48AE
:1055800090ED000ABDEEC00A10EE102A2BA12C48A7
:1055900003F0C4FA234890ED000A20EE000A2348E5
:1055A000D0ED000A90ED001A00EE810AF1EEC00A7B
:1055B000BDEEE00A10EE102A20A1214803F0AEFA59
:1055C000154890ED170ABDEEC00A10EE102A1BA177
:1055D0001B4803F0A3FA104890ED180ABDEEC00A6C
:1055E00010EE102A15A1164803F098FA124813A1DC
:1055F0000268134803F092FA074802780FA1104896
:1056000003F08CFA04480FA1826F0D4803F086FA6C
:10561000002090E7F0000020B004002000010020EE
:105620000000C842F400002004010020F80000201F
:10563000FC000020CDCC4C3E080100202564090070
:105640000050004025640D0A0000000010B52DED4B
:10565000028B06F061FDDFED620A30EE600AB0EE0B
:10566000408A06F06DFDDFED5E0A30EE600AF0EE76
:10567000408A00249FED5B0AB4EEC08AF1EE10FA76
:105680000ADB9FED580AF4EEC08AF1EE10FA03DB54
:105690000120BDEC028B10BD9FED530AB4EEC08A11
:1056A000F1EE10FA25D29FED510AB4EEC08AF1EE68
:1056B00010FA05D24E480068401C4D49086018E0B9
:1056C0009FED4A0AB4EEC08AF1EE10FA0CDB9FEDB2
:1056D000450AB4EEC08AF1EE10FA05D84448406895
:1056E000401C4349486004E041488068401C4049F0
:1056F00088609FED3D0AF4EEC08AF1EE10FA25D2E3
:105700009FED3A0AF4EEC08AF1EE10FA05D238485D
:10571000C068401C3649C86018E09FED340AF4EEBA
:10572000C08AF1EE10FA0CDB9FED2E0AF4EEC08A6F
:10573000F1EE10FA05D82E480069401C2C4908618A
:1057400004E02B484069401C29494861002006E0DC
:10575000274951F82010322900D9441C401C052843
:10576000F6DB072C3AD2DFE804F004060F182129F3
:10577000310001208DE701211E48C0F8981000215A
:10578000C0F88C10002084E701211A48C0F8981056
:105790000021C0F88C1000207BE701211548C0F8DB
:1057A00098100021C0F88C10002072E701211148E8
:1057B000C0F89810C0F88C1000206AE701210D484D
:1057C000C0F89810C0F88C10002062E70121094849
:1057D000C0F89810C0F88C1000205AE7012058E754
:1057E0000000754300001644000061440000964329
:1057F0001C060020B004002070B52DED0E8B054670
:10580000F0EE408AB0EE608AB0EE419A0C4606F0A7
:1058100023FC0446642C0AD19FED870A874880ED5B
:10582000000A9FED870A874880ED000A0BE0012CF3
:1058300009D19FED850A814880ED000A9FED800A1D
:10584000804880ED000AB0EE490A04F0C5FF9FEDE4
:105850007F1AF0EE680A41EE400AF0EE608AB0EE80
:10586000490A04F011F89FED791AF0EE480A41EE6A
:10587000000AB0EE608A714890ED000A38EEC00A66
:1058800020EE000A6F48D0ED000A78EE600A90ED35
:10589000001A38EE411A00EE810AF1EEC00A6C4897
:1058A000C0ED000A90ED000ADFED6A0A20EE200A42
:1058B000D0ED000A60EE200A674890ED000A6448C7
:1058C00090ED001ADFED651A11EE210A80EE801AC4
:1058D000B1EEC10A624880ED000AD0ED000A9FEDEA
:1058E000610A9FED611A11EE200AF1EE000A30EE16
:1058F000200A5E4880ED020A504890ED000A30EE22
:10590000680A5B4880ED000A4E4890ED000A30EED0
:10591000480A584880ED000A5548006807F0FCFE28
:1059200041EC1D0B5348006807F0F6FE41EC1E0BDE
:10593000B0EE4D1AF0EE6D1AB0EE4E0AF0EE6E0AB1
:1059400003F07AFDB0EE40CAF0EE60CA9FED4A0B5C
:1059500053EC102B51EC1C0B07F0E8FB41EC1B0B3C
:105960009FED470B53EC102B07F0B6F941EC1A0BE7
:1059700007F0C4F844490860084690ED000ADFEDDE
:10598000430A30EE600A80ED000A90ED000ADFED78
:10599000400AB4EEE00AF1EE10FA08DD90ED000ADC
:1059A000DFED3C0A30EE600A80ED000A11E0364877
:1059B00090ED000ADFED380AB4EEE00AF1EE10FADD
:1059C00007D290ED000ADFED330A30EE200A80EDB9
:1059D000000A2D4890ED000A39EE400A234880ED78
:1059E000000A90ED000ADFED2A0AB4EEE00AF1EEBB
:1059F00010FA08DD90ED000ADFED260A30EE600AAD
:105A000080ED000A11E0194890ED000ADFED220A4E
:105A1000B4EEE00AF1EE10FA07D290ED000ADFEDE5
:105A20001D0A30EE200A80ED000A104B0FCB85E8EE
:105A30000F00BDEC0E8B70BD008022C3C0010020A2
:105A40009AF51145C4010020008022436666C242D7
:105A5000B40100206E514146B801002034119E3F30
:105A6000BC0100207B148041CD01823CC406002093
:105A7000C8010020CC01002000000000008066402A
:105A800000000060FB210940D00100200000B4426A
:105A9000000034430000B443000034C370B52DED62
:105AA000048BF0EE408AB0EE609AB0EE418A064672
:105AB0000C461546C84890ED170AC84880ED000A04
:105AC000C54890ED180AC64880ED000AC24890ED1E
:105AD000160AC44880ED000ABF4880ED528A80ED66
