:020000040800F2
:10000000C84A002049020008852C00087524000811
:10001000812C0008B9090008B14E0008000000005A
:10002000000000000000000000000000753A000819
:10003000791F0008000000005F020008610200084C
:1000400063020008630200086302000863020008FC
:1000500063020008630200086302000863020008EC
:1000600063020008630200086302000863020008DC
:1000700063020008630200086302000863020008CC
:1000800063020008630200086302000863020008BC
:10009000BD0900086302000863020008630200084B
:1000A00063020008D54000086302000863020008EC
:1000B000F140000845410008D141000863020008F2
:1000C000630200086302000863020008630200087C
:1000D00063020008B547000865480008DD480008CD
:1000E000630200086302000863020008630200085C
:1000F000094200086302000863020008A11C00080E
:100100006302000863020008ED4100086302000872
:1001100063020008A14500086302000863020008AA
:10012000630200086302000863020008630200081B
:10013000630200086302000863020008630200080B
:10014000610A0008630200086302000863020008F5
:1001500063020008630200086302000863020008EB
:1001600063020008630200086302000863020008DB
:1001700063020008630200086302000863020008CB
:10018000630200086302000800F002F800F04CF877
:100190000AA090E8000C82448344AAF10107DA45E2
:1001A00001D100F041F8AFF2090EBAE80F0013F0E8
:1001B000010F18BFFB1A43F001031847CC91000050
:1001C000EC9100000A4410F8014B14F00F0508BF31
:1001D00010F8015B240908BF10F8014B6D1E05D013
:1001E00010F8013B6D1E01F8013BF9D1641E03D0EC
:1001F000641E01F8015BFBD19142E4D3704700001B
:100200000023002400250026103A28BF78C1FBD81F
:10021000520728BF30C148BF0B6070471FB508F0B8
:1002200072FE1FBD10B510BD00F077F81146FFF744
:10023000F5FF07F0D5FD00F095F803B4FFF7F2FFE6
:1002400003BC00F099F800000948804709480047BE
:10025000FEE7FEE7FEE7FEE7FEE7FEE7FEE7FEE776
:10026000FEE7FEE704480549054A064B70470000D3
:100270006D40000889010008C8040020C84A002019
:10028000C8460020C846002010B5203AC0F00B80B8
:10029000B1E81850203AA0E81850B1E81850A0E88A
:1002A0001850BFF4F5AF5FEA027C24BFB1E81850E4
:1002B000A0E8185044BF18C918C0BDE810405FEA54
:1002C000827C24BF51F8043B40F8043B08BF7047D0
:1002D000D20728BF31F8023B48BF11F8012B28BFD5
:1002E00020F8023B48BF00F8012B70477047704769
:1002F000704710B500F00CF8006810BD10B504464A
:1003000000F006F8046010BD004870476404002047
:10031000004870476404002070477546FFF7F4FFFB
:10032000AE4605006946534620F00700854618B0E2
:1003300020B5FFF797FFBDE820404FF000064FF0D3
:1003400000074FF000084FF0000B21F00701AC460A
:10035000ACE8C009ACE8C009ACE8C009ACE8C00929
:100360008D46704710B50446AFF300802046BDE8C7
:100370001040FFF762BF000001491820ABBEFEE746
:100380002600020021B1826842F00102826003E08F
:10039000826822F001028260704700000021084A52
:1003A0001168084A1140D0E900231A4383681A43B0
:1003B000C3681A431143044AC2F80413704700008B
:1003C00004230140E030FCFF002001400146C86CDE
:1003D00080B270470246002013680B400BB1012029
:1003E00000E000207047000030B5024600200023E6
:1003F0005068104C20400D790C6844EA05242043D5
:10040000506090680C4C2040D1E903542C438D6817
:100410002C434D7944EA450420439060D06A20F48F
:1004200070000C7D641EE4B2234340EA0350D062A6
:1004300030BD0000FFFEFFFCFDF7FFC0F0B5044635
:100440000D4600200021092D11DDE068A5F10A0606
:1004500006EB4607072606FA07F18843A5F10A06C8
:1004600006EB460603FA06F10843E0600CE020695B
:1004700005EB4507072606FA07F1884305EB450615
:1004800003FA06F108432061072A0FDA606B561E53
:1004900006EB86071F2606FA07F18843561E06EB71
:1004A000860605FA06F10843606322E00D2A0FDA9A
:1004B000206BD61F06EB86071F2606FA07F1884336
:1004C000D61F06EB860605FA06F10843206310E006
:1004D000E06AA2F10D0606EB86071F2606FA07F171
:1004E0008843A2F10D0606EB860605FA06F10843DD
:1004F000E062F0BD816841F080418160704700009A
:1005000000B58DB00121042003F0F0F901210802AB
:1005100003F01CFA30200B9003208DF830000020EF
:100520008DF833000BA9164801F0C0FE0121080226
:1005300003F01CFA00214FF4807003F017FA00203A
:1005400007900A9009904FF48030089007A8FFF7B1
:1005500025FF002001908DF808008DF80900039018
:100560000490059001208DF8180001A90548FFF7B7
:100570003BFF01210348FFF705FF0DB000BD000060
:10058000000802400020014010B52DED068BB0EEB2
:10059000408AF0EE608AF0EE680AB0EE480A06F093
:1005A000F5FD274880ED000A90ED000A00F054F8B0
:1005B000DFED240A30EE200ABDEEC00A10EE104A2C
:1005C00022460121204804F0B1FC1D4890ED000AAC
:1005D00000F042F8DFED1D0A30EE200ABDEEC00A41
:1005E00010EE104A22460221174804F09FFC1448DE
:1005F000006808F017FC41EC1A0BB0EE4A0AF0EE66
:100600006A0A05F021F9B0EE409AF0EE609A9FED8B
:10061000100B53EC102B51EC190B08F0D1F80CD245
:1006200000F0A4FF48B100220121074804F07EFC3D
:1006300000220221044804F079FCBDEC068B10BDB9
:100640003C00002000409CC50068004000409C45E4
:100650000000000000002040F0EE400A0E4890ED3F
:10066000000A20EE200A0D4890ED001AB8EEC11ADB
:1006700030EEC11A0A48D0ED001A01EE810A09488D
:1006800080ED000ABDEEE00A044880ED000A05484E
:1006900090ED000A70470000600200205C0200201C
:1006A000640200206802002010B52DED028BB0EE30
:1006B000408A2E4890ED0E0AB0EE408A2C4890ED0C
:1006C000000ADFED2C0AB4EEE00AF1EE10FA20DDAC
:1006D00090ED000ADFED280AB4EEE00AF1EE10FA20
:1006E00017D2264890ED000ADFED250AB4EEE00AA5
:1006F000F1EE10FA0DDD90ED000ADFED220AB4EE06
:10070000E00AF1EE10FA04D2B0EE480A00F03CF82C
:1007100029E0174890ED000ADFED160AB4EEE00A72
:10072000F1EE10FA1BD390ED000ADFED130AB4EEE0
:10073000E00AF1EE10FA12DC104890ED000ADFED4D
:10074000100AB4EEE00AF1EE10FA08D390ED000AB8
:10075000DFED0C0AB4EEE00AF1EE10FA03DDB0EEC4
:10076000480A00F09DF8BDEC028B10BD8803002004
:10077000740000200000AFC40000AF4478000020E7
:100780000000614400C0734510B52DED068BB0EE3E
:10079000408A3848006848B99FED370A38EE400A69
:1007A000364880ED000A012032490860F0EE480A20
:1007B000324890ED000A06F0E9FC314880ED000A6D
:1007C00030480068401C2F49086008460068962899
:1007D0000BDA2D4A01212D4804F0A8FB41F2DB720F
:1007E00002212A4804F0A2FB41E02648006896282E
:1007F0003DDB234890ED000AFFF72EFFBDEEC00A57
:1008000010EE104A22460121204804F08FFB1C48BC
:1008100090ED000AFFF720FFBDEEC00A10EE104A6F
:1008200022460221194804F081FB1548006808F0AF
:10083000F9FA41EC1A0BB0EE4A0AF0EE6A0A05F03A
:1008400003F8B0EE409AF0EE609A9FED110B53EC76
:10085000102B51EC190B07F0B3FF08D20E480068BB
:100860000E49886400200349086006490860BDEC11
:10087000068B10BD84000020000034427C00002064
:10088000800000208800002025E8FFFF006800406D
:1008900000000000000014407000002088030020C9
:1008A00010B52DED068BB0EE408A3848006848B987
:1008B0009FED370A38EE000A364880ED000A012025
:1008C00032490860F0EE480A324890ED000A06F01E
:1008D0005DFC314880ED000A30480068401C2F491B
:1008E00008600846006896280BDA2D4A01212D4839
:1008F00004F01CFB41F2DB7202212A4804F016FBD3
:1009000041E02648006896283DDB234890ED000A28
:10091000FFF7A2FEBDEEC00A10EE104A22460121EA
:10092000204804F003FB1C4890ED000AFFF794FEFA
:10093000BDEEC00A10EE104A22460221194804F00A
:10094000F5FA1548006808F06DFA41EC1A0BB0EEA4
:100950004A0AF0EE6A0A04F077FFB0EE409AF0EE31
:10096000609A9FED110B53EC102B51EC190B07F013
:1009700027FF08D20E4800680E498864002003490A
:10098000086006490860BDEC068B10BD940000208D
:10099000000034428C0000209000002098000020CD
:1009A00025E8FFFF00680040000000000000144040
:1009B000700000208803002000BFFEE710B51E482D
:1009C00003781E4A1E491F4800F042FC1C4800687C
:1009D000302803D11949087807F07EFA1A491948D6
:1009E00000F088F81849491C164800F083F81649A9
:1009F000C91C144800F07EF81449124800F07AF837
:100A00001349104800F076F812490E4800F072F8C9
:100A1000104908310B4800F06DF80F49094800F003
:100A200069F80E49074800F065F80C490831054897
:100A300000F060F810BD0000F4020020EC0200207D
:100A4000F8020020006400400100F0107000F03057
:100A500003000012080000320300001408000034F4
:100A600010B51A4803781A4A1A491B4800F0F0FBDF
:100A70001A49194800F03EF81849491C164800F078
:100A800039F81649C91C144800F034F814491248C2
:100A900000F030F81349104800F02CF812490E48C5
:100AA00000F028F8104908310B4800F023F80F49EE
:100AB000094800F01FF80E49074800F01BF80C49E0
:100AC0000831054800F016F810BD000008030020AA
:100AD00000030020FC020020006800400100F0102C
:100AE0007000F03003000012080000320300001410
:100AF0000800003400220C4B994202D1002383618C
:100B000011E0C1F3130201F000730BB1C2600AE0FF
:100B100001F080630BB1026105E001F000630BB1ED
:100B2000826000E0426070477000F0302DE9F04FC5
:100B30008BB006460F4614461D46DDF850804FF038
:100B40000009CA46CB46B5F5807F43D012DC102D94
:100B500034D008DC012D25D0022D26D0042D27D03D
:100B6000082D4FD127E0202D2BD0402D2CD0802DCB
:100B700048D12CE0B5F5805F38D009DCB5F5007FB1
:100B80002BD0B5F5806F2BD0B5F5006F3AD12AE0A8
:100B9000B5F5005F2DD0B5F5804F2DD0B5F5004FE0
:100BA00030D12CE04FF000092DE04FF001092AE090
:100BB0004FF0020927E04FF0030924E04FF0040949
:100BC00021E04FF005091EE04FF006091BE04FF051
:100BD000070918E04FF0080915E04FF0090912E085
:100BE0004FF00A090FE04FF00B090CE04FF00C0931
:100BF00009E04FF00D0906E04FF00E0903E04FF059
:100C00000F0900E000BF00BFB8F5807F4BD01ADCB1
:100C1000B8F1100F3BD00CDCB8F1010F2BD0B8F1BC
:100C2000020F2BD0B8F1040F2BD0B8F1080F52D11E
:100C30002AE0B8F1200F2DD0B8F1400F2DD0B8F137
:100C4000800F48D12CE0B8F5805F38D009DCB8F5CA
:100C5000007F2BD0B8F5806F2BD0B8F5006F3AD15C
:100C60002AE0B8F5005F2DD0B8F5804F2DD0B8F54B
:100C7000004F30D12CE04FF0000A2DE04FF0010A78
:100C80002AE04FF0020A27E04FF0030A24E04FF079
:100C9000040A21E04FF0050A1EE04FF0060A1BE0AF
:100CA0004FF0070A18E04FF0080A15E04FF0090A64
:100CB00012E04FF00A0A0FE04FF00B0A0CE04FF081
:100CC0000C0A09E04FF00D0A06E04FF00E0A03E0AF
:100CD0004FF00F0A00E000BF00BF7F48304418B15A
:100CE000B0F5806F1AD10CE04FF0090B00208DF8A1
:100CF000120014208DF804000121480602F006FEBF
:100D00000DE04FF0090B0E208DF8120040208DF8F9
:100D100004000121000502F0F9FD00E000BF00BF62
:100D2000C4F3090078BBA012A0F580108038092810
:100D300034D2DFE800F0050A0F14191E23292E0013
:100D40000121084602F0D2FD29E00121022002F033
:100D5000CDFD24E00121042002F0C8FD1FE00121A7
:100D6000082002F0C3FD1AE00121102002F0BEFDB0
:100D700015E00121202002F0B9FD10E00121402002
:100D800002F0B4FD0BE009E00121802002F0AEFD8D
:100D900005E00121080202F0A9FD00E000BF00BF4C
:100DA0005A464946204601F0C9FA5A46514620465D
:100DB00001F0C4FA45EA0800099002208DF82800E5
:100DC0008DF8290000208DF82A0001208DF82B00D5
:100DD00009A9204601F06AFA304600F07FF80020A9
:100DE0008DF81E008DF81F008DF820008DF8210071
:100DF0008DF822008DF823008DF81A008DF81B0065
:100E00000B208DF81C0007208DF81D007D2F22D0AF
:100E100008DC0A2F0FD0142F11D0322F13D0642FDB
:100E200029D114E0FA2F1AD0B7F5FA7F1BD0B7F505
:100E30007A7F20D11BE0C820ADF818001CE06420A8
:100E4000ADF8180018E02820ADF8180014E01420C0
:100E5000ADF8180010E01020ADF818000CE00820E4
:100E6000ADF8180008E00420ADF8180004E00220F6
:100E7000ADF8180000E000BF00BF06A9304600F042
:100E8000D6F800208DF8130001208DF81400002002
:100E9000ADF80800ADF80A00ADF80C00ADF80E0092
:100EA000ADF8100001208DF8150002A800F032F80E
:100EB00000208DF8050003208DF8060001208DF834
:100EC000070001A801F0E0FE01220221304600F0F7
:100ED000A5F80BB0BDE8F08F009CFFBF10B504462D
:100EE0000B48844209D10121480602F01FFD002170
:100EF0004FF0007002F01AFD08E00121880602F0B0
:100F000015FD00214FF0806002F010FD10BD0000C3
:100F10000064004010B50021837A012202FA03F137
:100F20003D4A126842F001023B4B1A603A4A1C32B9
:100F300012688A43384B1C331A60027BCAB9364A9E
:100F40000C3212688A43344B0C331A604288C388CF
:100F500042EA0343304A4032847A42F8343002880D
:100F6000838842EA03432C4A4032847A02EBC4026B
:100F70005360027B012A19D1274A0C3212680A43B6
:100F8000254B0C331A604288038842EA0343224A05
:100F90004032847A42F83430C288838842EA03437C
:100FA0001D4A4032847A02EBC4025360C27A3AB9D5
:100FB000194A121D12688A43174B1B1D1A6006E05E
:100FC000154A121D12680A43134B1B1D1A60028931
:100FD00032B9114A143212688A430F4B14331A6023
:100FE0000289012A06D10C4A143212680A430A4BBC
:100FF00014331A60427B012A06D1074A1C32126858
:101000000A43054B1C331A60034A126822F001029E
:10101000014B1A6010BD0000006600401AB1436920
:101020000B43436102E043698B434361704730B532
:10103000024600200023146824F00204146014689F
:1010400044F00104146000E05B1C546804F00104E7
:101050001CB94FF6FF74A342F6D1546804F00104A2
:101060000CB900206CE08C79012C04D1146844F098
:101070008004146003E0146824F080041460CC79C8
:10108000012C04D1146844F04004146003E0146897
:1010900024F0400414600C7A012C04D1146844F04C
:1010A0002004146003E0146824F0200414604C7AD7
:1010B000012C04D1146844F01004146003E0146897
:1010C00024F0100414608C7A012C04D1146844F0CC
:1010D0000804146003E0146824F008041460CC7A57
:1010E000012C04D1146844F00404146003E0146873
:1010F00024F0040414608C78A407CD7844EA0564D5
:101100000D7944EA05444D7944EA05540D886D1E75
:101110002C43D461146824F001041460002300E01F
:101120005B1C546804F001041CB14FF6FF74A34229
:10113000F6D1546804F001040CB1002000E0012055
:1011400030BD0246002019B9D36803F0030006E061
:10115000012903D1136903F0030000E00020704768
:1011600010B500F5D87303EB01131B6803F00403FB
:101170001372137A53B900F5D87303EB01131B688C
:1011800040F2FF7404EA5353136009E000F5D8738A
:1011900003EB01131B686FF0604404EAD303536050
:1011A00000F5D87303EB01131B6803F002035372BD
:1011B00000F5D87303EB01135B6803F00F03937220
:1011C00000F5D87303EB01135B681B0AD37400F5B9
:1011D000D87303EB01139B68D37200F5D87303EB4C
:1011E00001139B681C0A147300F5D87303EB0113F9
:1011F0009B681C0C547300F5D87303EB01139B68B8
:101200001B0E937300F5D87303EB0113DB68D373E4
:1012100000F5D87303EB0113DB681C0A147400F5A6
:10122000D87303EB0113DB681C0C547400F5D873FE
:1012300003EB0113DB681B0E937421B9C36843F001
:101240002003C36003E0036943F02003036110BD82
:101250002DE9F04186B080460D4616461F46002413
:1012600000214046FFF76DFF18B9002006B0BDE829
:10127000F08101AA00214046FFF772FF002405E03B
:101280000DF10F00005D3055601CC4B2BC42F7DBAD
:10129000019828600120E9E710B502460020936814
:1012A00003F08063B3F1806F00D110E0936803F026
:1012B0000063B3F1006F01D1012008E0936803F0EF
:1012C0008053B3F1805F01D1022000E004200428A4
:1012D00074D002F5C07303EB00131B6803F0010424
:1012E00002F5C07303EB00131C600B7A7BB94B7AD9
:1012F0000C8843EA445302F5C07404EB00142468DC
:10130000234302F5C07404EB0014236010E00B7A51
:101310004C6843EAC4034C7A234302F5C07404EBDF
:1013200000142468234302F5C07404EB0014236006
:101330008B7A03F00F038B7202F5C07303EB00137B
:101340005B6823F00F0402F5C07303EB00135C60CD
:1013500002F5C07303EB00135B688C7A234302F53C
:10136000C07404EB001463608B7B1C064B7B44EA67
:1013700003440B7B44EA0323CC7A234302F5C07475
:1013800004EB0014A3608B7C1C064B7C44EA0344F2
:101390000B7C44EA0323CC7B234302F5C07404EBAB
:1013A0000014E36002F5C07303EB00131B6843F005
:1013B000010402F5C07303EB00131C6010BD0000B4
:1013C00010B50246002321B1012907D002290FD10F
:1013D00009E090681D4C00EA04030BE090681C4C87
:1013E00000EA040306E090681A4C00EA040301E0F6
:1013F000002300BF00BF184C181BA34216D007DC07
:1014000083B16FF08060184470B1022818D111E0E8
:10141000B0F5007F10D0114C204448B1B0F5003F2A
:101420000ED10BE002230DE000230BE0002309E0C6
:10143000002307E0012305E0012303E0012301E08D
:10144000002300BF00BFD8B210BD0000030000049D
:101450000003000800000310000100080001FFF76E
:101460002DE9F04385B081460D4690461E46002486
:101470000095019500208DF808008DF809008DF881
:101480000A6000BF06E018F804100DF10B000155CA
:10149000601C84B2B442F6DB69464846FFF7FCFEA6
:1014A0000746002400BF39464846FFF789FF012858
:1014B000F9D105B0BDE8F08310B588B0044601212C
:1014C000082002F013FA0121480402F01FFA072253
:1014D0000521244800F032FF07220621214800F0B0
:1014E0002DFF6020069002208DF81C008DF81D0055
:1014F00000208DF81E0001208DF81F0006A9194854
:1015000000F0D4FE02940020ADF80C00ADF80E00FF
:10151000ADF81000ADF814000C20ADF8120002A9CF
:10152000114803F0BDFB40210F4803F0D5FA2620F7
:101530008DF8040000208DF8050002208DF80600CB
:1015400001208DF8070001A801F09EFB012240F266
:101550002551054803F07FFB0121034803F0D4FA2D
:1015600008B010BD000C02400044004010B52DED45
:10157000048B06F0F7FB2F48D0ED0F0A30EEC00ABF
:1015800010EE104A204607F04DFC41EC190BB0EE6E
:10159000490AF0EE690A04F057F9B0EE408AF0EE1D
:1015A000608A9FED250B53EC102B51EC180B07F0C4
:1015B00007F92ED206F0DCFB1E48D0ED100A30EE03
:1015C000C00A10EE104A204607F02CFC41EC190B23
:1015D000B0EE490AF0EE690A04F036F9B0EE408A3E
:1015E000F0EE608A9FED140B53EC102B51EC180BAE
:1015F00007F0E6F80DD20F4890ED110AB5EEC00ADB
:10160000F1EE10FA05D00E480068401C0C49086045
:1016100002E000200A49086009480068822806DDC7
:101620000020074908600120BDEC048B10BD00209C
:10163000FAE7000088030020000000000000F03FEF
:101640003800002010B52DED048B3948806C3949E5
:10165000086006F087FB3648D0ED0F0A30EEC00A6E
:10166000354880ED000A06F083FB3148D0ED100AC2
:1016700030EEC00A314880ED000A2F48006807F0BC
:10168000D1FB41EC190BB0EE490AF0EE690A04F007
:10169000DBF8B0EE408AF0EE608A9FED290B53EC48
:1016A000102B51EC180B07F08BF826D2234800685A
:1016B00007F0B8FB41EC190BB0EE490AF0EE690AED
:1016C00004F0C2F8B0EE408AF0EE608A9FED1C0B89
:1016D00053EC102B51EC180B07F072F80DD2144894
:1016E00090ED110AB5EEC00AF1EE10FA05D01648D9
:1016F0000068401C1449086002E00020124908609C
:101700001148006882280FDD06F02CFB0F4880EDA1
:10171000000A06F02DFB0E4880ED000A0720044960
:101720008864002008490860BDEC048B10BD0000EF
:101730008803002070000020A0000020A4000020EA
:10174000000000000000F03F9C000020740000201A
:1017500078000020F0EE400A0E4890ED000A20EEDE
:10176000200A0D4890ED001AB8EEC11A30EEC11AE9
:101770000A48D0ED001A01EE810A094880ED000AFE
:10178000BDEEE00A044880ED000A054890ED000A2D
:10179000704700006C0100206801002070010020EB
:1017A0007401002010B5EB4890ED0F0AEA4880ED77
:1017B000000AE84890ED100AE84880ED000AE54884
:1017C00090ED0E0AE64880ED000AE648006803F056
:1017D00071FB00EE100AB8EEC00ADE4880ED110A77
:1017E000806C13287DD2DFE800F00A15202C7C38AD
:1017F0007C3F7C7C45657DA7D3FCFBFAF900012189
:1018000000209FEDD91ADFEDD90A9FEDD90A00F02B
:10181000E9FF9DE1012108469FEDD61ADFEDD30ACD
:101820009FEDD50A00F0DEFF92E14FF0FF3100207E
:101830009FEDD21ADFEDD20A9FEDCF0A00F0D2FF62
:1018400086E14FF0FF3101209FEDCE1ADFEDCC0A8B
:101850009FEDC70A00F0C6FF7AE100F0ADFB9FEDF7
:10186000CA0A02F07FF973E1BD4890ED000AFEF765
:101870001BFF6DE105F070FDC4480068401CC349C2
:1018800008600846006840F6AC51884211DD0F2020
:10189000B04988640020BD4908609FEDBD0A00F092
:1018A00099F94FF4FA6000F068FB9FEDB90A00F077
:1018B00091F94DE1A74890ED0F0ADFEDB60AB4EEBD
:1018C000E00AF1EE10FA0BDD90ED0F0ADFEDB20A3F
:1018D000B4EEE00AF1EE10FA02D20C209D498864C1
:1018E00036E134E19B4890ED0F0ADFEDAC0AB4EE2F
:1018F000E00AF1EE10FA12DD90ED0F0AB5EEC00A23
:10190000F1EE10FA0BD290ED100ADFEDA50AB4EE5D
:10191000E00AF1EE10FA02D20D208E498864DFED64
:10192000A11A9FED911ADFEDA00A9FEDA00A01F028
:10193000F1F9FFF787FE0BE1864890ED0F0ADFED26
:101940009C0AB4EEE00AF1EE10FA14DD90ED0F0AF5
:10195000DFED920AB4EEE00AF1EE10FA0BD290ED50
:10196000100ADFED8F0AB4EEE00AF1EE10FA02D2AF
:101970000E2078498864DFED8B1A9FED7B1ADFED2E
:101980008D0A9FED8A0A01F0C5F9FFF75BFEDFE0E3
:10199000704890ED100ADFED880AB4EEE00AF1EE2F
:1019A00010FA14DD90ED100ADFED840AB4EEE00ABF
:1019B000F1EE10FA0BD290ED0F0ADFED810AB4EED2
:1019C000E00AF1EE10FA02DD052062498864DFEDDD
:1019D000751A9FED651ADFED790A03E08BE05EE092
:1019E00031E006E09FED710A01F094F9FFF72AFE5D
:1019F000AEE0584890ED0F0ADFED720AB4EEE00A4F
:101A0000F1EE10FA12DD90ED0F0AB5EEC00AF1EE1C
:101A100010FA0BD290ED100ADFED610AB4EEE00A85
:101A2000F1EE10FA02DD10204A498864DFED5D1AFC
:101A30009FED4D1ADFED600A9FED5C0A02F01CF984
:101A4000FFF700FE84E0434890ED0F0ADFED530AF4
:101A5000B4EEE00AF1EE10FA14DD90ED0F0ADFEDBE
:101A6000590AB4EEE00AF1EE10FA0BD290ED100A2A
:101A7000DFED4B0AB4EEE00AF1EE10FA02DD1120C0
:101A800034498864DFED471A9FED371ADFED490AC4
:101A90009FED460A02F0F0F8FFF7D4FD58E02D481C
:101AA00090ED0F0ADFED480AB4EEE00AF1EE10FA0D
:101AB00014DD90ED0F0ADFED390AB4EEE00AF1EE25
:101AC00010FA0BD290ED100ADFED350AB4EEE00A01
:101AD000F1EE10FA02DD12201E498864DFED311AA2
:101AE0009FED211ADFED300A9FED300A02F0C4F8B5
:101AF000FFF7A8FD2CE0174890ED0F0ADFED300A44
:101B0000B4EEE00AF1EE10FA14DD90ED100ADFED0C
:101B10002F0AB4EEE00AF1EE10FA0BDD90ED100A98
:101B2000DFED2B0AB4EEE00AF1EE10FA02D2052046
:101B300008498864DFED1B1A9FED0B1ADFED1F0AC1
:101B40009FED1A0A02F098F8FFF77CFD00E000BF55
:101B500000BF10BD88030020080000200C000020FA
:101B600010000020300000200000000000805445DC
:101B7000000016440000B442000016C400003443C4
:101B80000000AF440000B4C20000704268000020B2
:101B90000000484200004843000096430000C8C2CD
:101BA0000080D44400001645008089440000E144D0
:101BB000000048C30000C8440000FA440040034548
:101BC0000080ED44000048C2000016C300C0284554
:101BD00000002F4510B52DED028BB0EE408AB0EE1F
:101BE000480A00F00FF8BDEEC00A10EE104A224677
:101BF0000821034803F09AF9BDEC028B10BD0000E8
:101C000000640040F0EE400A9FED020A20EE800AD8
:101C10007047000000008045024600EE102AB8EE32
:101C2000C00ADFED1C0AB4EEE00AF1EE10FA0ADC9D
:101C300000EE102AB8EEC00ADFED170AB4EEE00A93
:101C4000F1EE10FA03D20020144B186002E00120DC
:101C5000124B186000EE101AB8EEC00ADFED0D0A44
:101C6000B4EEE00AF1EE10FA0ADC00EE101AB8EE5B
:101C7000C00ADFED090AB4EEE00AF1EE10FA03D271
:101C80000020064B186002E00120044B1860034856
:101C90000068704700A8874500808E4340010020FF
:101CA00010B50749074800F0EBF838B100210548A6
:101CB00000F024F80249034800F006F810BD0000C7
:101CC00000800028B86002400246094B9A4201D2C7
:101CD000084801E00648103801F000531BB1064BDC
:101CE0000B40C36002E0044B0B4083607047000070
:101CF00010640240006002407D0F7D0F21B1026838
:101D000042F00102026003E0026822F00102026078
:101D100070470000016821F00101016000210160AD
:101D200041608160C1600161212141614A4988426D
:101D300004D13D21484A103A91608CE0464918315F
:101D4000884205D14FF47461434A103A916082E0B1
:101D500041493031884205D14FF474113E4A103A5E
:101D6000916078E03C494831884205D14FF0746178
:101D7000394A103A91606EE037496031884204D1A7
:101D80003649354A103AD16065E0334978318842A6
:101D900004D13349304A103AD1605CE02E49903189
:101DA000884204D12F492C4A103AD16053E02A4985
:101DB000A831884205D14FF03D51274A103AD160F1
:101DC00049E02949884204D13D21274A083A116057
:101DD00041E025491831884205D14FF47461224A07
:101DE000083A116037E020493031884205D14FF47C
:101DF00074111D4A083A11602DE01B494831884290
:101E000005D14FF07461184A083A116023E0164971
:101E10006031884204D11149134A121F11601AE03F
:101E200011497831884204D10D490F4A121F1160BF
:101E300011E00D499031884204D10A490A4A121F23
:101E4000116008E00849A831884204D14FF03D51A3
:101E5000054A121F11607047106002403D000020CB
:101E6000400F002000003D20106402400146002089
:101E70000A6802F001020AB1012000E00020704768
:101E800070B50246002000240025124EB24201D255
:101E9000114B01E00F4B103B104E0E4036B11E2689
:101EA00006EAD124166806EA040502E0566906F03F
:101EB000800501F000560EB15C6800E01C68084E19
:101EC000344004EA010616B10DB1012000E0002003
:101ED00070BD000010640240006002403C0F3C0FE7
:101EE0007D0F7D0F10B501F080034BB122B1436926
:101EF00043F08003436103E0436923F080034361BF
:101F000080290BD02AB1036801F01E04234303602B
:101F100004E0036801F01E04A343036010BD000049
:101F200010B500220268134B1A40CC680B6823439B
:101F30004C6923438C692343CC6923430C6A2343B4
:101F40004C6A23438C6A23434C6B23438C6B23439F
:101F50001A430260426922F00702D1E90B3423439D
:101F60001A4342610B6943604B6883608B68C360AE
:101F700010BD00003F801CF0704700B5034604E030
:101F80004FF47A7000F004F85B1E002BF8D100BD0E
:101F9000A82141434FF0E02251610521116100BFAA
:101FA0004FF0E021096901F480310029F8D00421C3
:101FB0004FF0E022116170477CB505F07BFD0546CE
:101FC00005F0A2FD064631462846FFF725FEA24948
:101FD0000860A248007800F0010088B105F096FC86
:101FE0009F4908609D48006820F001009B490860F7
:101FF0009B48006805F03EFD9A4880ED000A84E0A9
:102000009648007800F00200002858D093480078E5
:1020100000F00800002878D0934890ED0E0AF0EE0A
:10202000400A904890ED000AFEF7AEFAFFF79EFADC
:1020300000286AD08DA291A1924802F09BFE8BA24B
:102040008EA1904802F096FE88A28CA18D4802F0E5
:1020500091FE86A289A18B4802F08CFE7E48006822
:1020600050B17F48006805F019FA012086490860E0
:1020700000207A49086048E07948006805F0F0FBE4
:1020800082480068401C8149086000207E49086041
:102090007E480068022804DB0120086000207B499C
:1020A000086000206D4908600846006840F00100A3
:1020B00008600846006840F00400086025E06748B2
:1020C000007800F0040000B36548006800F092F961
:1020D0008DED000ACDED010A9DED011AF0EE410AE9
:1020E0009DED001AB0EE410A01F046F801280CD12E
:1020F00000205A4908600846006840F00200086065
:102100000846006840F0080008605F480068012841
:1021100010D10B205149086000205B4908600A205B
:10212000514988640020594908605949086048604D
:102130008860C860544857A10268524802F01AFEED
:10214000464854A102684F4802F014FE424851A18B
:1021500002684C4802F00EFE41484EA10268494810
:1021600002F008FE3F4890ED000ABDEEC00A10EEF6
:10217000102A48A1434802F0FDFD474890ED000AAF
:10218000BDEEC00A10EE102A42A13E4802F0F2FD58
:10219000424890ED000ABDEEC00A10EE102A3DA1A3
:1021A000384802F0E7FD3E4890ED000ABDEEC00A57
:1021B00010EE102A37A1334802F0DCFD2A4890EDDA
:1021C0000F0ABDEEC00A10EE102A32A12D4802F00F
:1021D000D1FD254890ED100ABDEEC00A10EE102A80
:1021E0002CA1284802F0C6FD05F0BCFDBDEEC00ADA
:1021F00010EE104A224627A1224802F0BBFD05F04E
:10220000B7FDBDEEC00A10EE104A224621A11D48BE
:1022100002F0B0FD144890ED0E0ABDEEC00A10EEBB
:10222000102A1CA1174802F0A5FD184819A1026840
:10223000144802F09FFD2A4616A1124802F09AFDAA
:10224000324614A10F4802F095FD074815A1826C93
:102250000C4802F08FFD7CBD60010020340100209D
:10226000540100205C01002088030020686168613F
:102270006861686168686135000000002573090DB8
:102280000A000000005000403001002050010020F2
:10229000DC0300202564090024010020280100201F
:1022A0002C0100202564090D0A000000F0B50A4643
:1022B00000210023002400BF3DE0012505FA01F3C1
:1022C000156805EA03049C4234D105684F000326D3
:1022D000BE40B543056015794E00B54006683543EC
:1022E00005601579012D02D01579022D16D185686A
:1022F0004F000326BE40B543856055794E00B5407A
:10230000866835438560456801268E40B543456043
:10231000456896798E40B6B235434560C5684F0032
:102320000326BE40B543C560D5794E00B540C668AA
:102330003543C560491C1029BFD3F0BDF0B500235B
:1023400000244D07ED0E02FA05F3CE1000F1200532
:1023500055F826504E07F70E0F26BE40B543CF1056
:1023600000F1200646F82750CE1000F1200555F860
:10237000265045EA0304CE1000F1200545F826401A
:10238000F0BD0246002013690B400BB1012000E0B4
:1023900000207047418370470183704710B50446A1
:1023A0000723012221460848FEF748F80648FEF7B1
:1023B000A1F800BF02210448FEF70CF80028F9D06C
:1023C0000148FEF703F810BD002001402DE9F0415F
:1023D00007460C460025002605E03846FFF7DEFFDD
:1023E0000544701CC6B2A642F7DBB5FBF4F080B220
:1023F000BDE8F0810CB530B101280DD0022814D011
:10240000032824D11AE09FED150A8DED000A9FEDF7
:10241000140A8DED010A1AE09FED120A8DED000AF3
:102420009FED0F0A8DED010A11E09FED0F0A8DED72
:10243000000A9FED0E0A8DED010A08E09FED0A0AE1
:102440008DED000A9FED0A0A8DED010A00BF00BF65
:102450009DED000ADDED010A0CBD00000000E1C4A5
:10246000000016450000E1440000000000408345E4
:102470000000164400BFFEE708B5002003465322C3
:10248000632100904FF0804001F0F6FE0120002310
:1024900040F2473240F2E7310090164801F0ECFE7E
:1024A0004FF400704310144A4FF4FA71009013482F
:1024B000FEF73CFB402020230F4A4FF4FA710090B6
:1024C0000F48FEF733FBFEF71BF801F0F9FF01F0B0
:1024D000D5F94FF4E13001F073FB4FF4E130FEF732
:1024E000EBFF4FF4E13001F06DF94FF4E13002F011
:1024F00001F808BD000400400004024000640040F0
:102500000068004010B52DED0E8BF0EE408AB0EE65
:10251000608AB0EE419A044605F0A6FA0446642C9F
:102520000AD19FED930A934880ED000A9FED920A2D
:10253000924880ED000A0BE0012C09D19FED900A32
:102540008C4880ED000A9FED8C0A8C4880ED000AD3
:10255000B0EE490A04F010F89FED8A1AF0EE680A0E
:1025600041EE400AF0EE608AB0EE490A03F0C4F88A
:102570009FED841AF0EE480A41EE000AB0EE608A40
:102580007C4890ED000A38EEC00A20EE000A7B4835
:10259000D0ED000A78EE600A90ED001A38EE411A8C
:1025A00000EE810AF1EEC00A9FED770A30EE800A54
:1025B000764880ED000A9FED760AB0EE001AF1EE43
:1025C000C10A80EE201A90ED000A61EE000A7148FF
:1025D00090ED000A6D4890ED001ADFED6F1A11EED4
:1025E000810AB1EEC01A80EE810A6C4880ED000AC3
:1025F000D0ED000A9FED6A0A9FED6A1A11EE200ADB
:10260000DFED690A20EE200A684880ED000A90EDAF
:10261000000A6748D0ED000AF8EEE00A654890ED40
:10262000001A00EE810A614880ED000A514890EDE1
:10263000000A30EE680A604880ED000A4F4890EDCD
:10264000000A30EE480A5D4880ED000A5A480068EA
:1026500006F0E8FB41EC1D0B5848006806F0E2FB71
:1026600041EC1E0BB0EE4D1AF0EE6D1AB0EE4E0AB4
:10267000F0EE6E0A02F0E4FEB0EE40CAF0EE60CA80
:102680009FED4F0B53EC102B51EC1C0B06F0D4F8C4
:1026900041EC1B0B9FED4C0B53EC102B05F0DEFEB9
:1026A00041EC1A0B05F0ECFD49490860084690ED35
:1026B000000ADFED480A30EE600A80ED000A90ED76
:1026C000000ADFED450AB4EEE00AF1EE10FA08DD8B
:1026D00090ED000ADFED410A30EE600A80ED000A5D
:1026E00011E03B4890ED000ADFED3D0AB4EEE00A50
:1026F000F1EE10FA07D290ED000ADFED380A30EE65
:10270000200A80ED000A324890ED000A39EE400AB6
:10271000264880ED010A90ED010ADFED2F0AB4EEA4
:10272000E00AF1EE10FA08DD90ED010ADFED2B0A68
:1027300030EE600A80ED010A11E01C4890ED010ABC
:10274000DFED270AB4EEE00AF1EE10FA07D290EDC1
:10275000010ADFED220A30EE200A80ED010A13485B
:1027600090ED000AD0ED010ABDEC0E8B10BD00000B
:10277000008022C3E80000209AF51145EC000020FB
:102780000080224352B8EC42AE47A941DC00002051
:1027900000001D43E0000020B6F39D3FE400002050
:1027A00083C0C24052F26A3C48E17A3FD400002024
:1027B000CC020020B8000020F0000020F40000202F
:1027C000000000000080664000000060FB2109401E
:1027D000F80000200000B442000034430000B4437D
:1027E000000034C370B52DED0A8BB0EE408AF0EED8
:1027F000608AB0EE419A05460C46FE4890ED0F0AFD
:10280000FD4880ED000AFB4890ED100AFB4880ED82
:10281000000AF84890ED0E0AF94880ED000A15B15B
:10282000012D7CD12AE1F749096804FB01F04FF43E
:10283000EB71484300EE100AB8EEC00A30EE080A09
:10284000ED48D0ED000A30EEC00AEF4880ED000AF6
:10285000EB48D0ED000AB0EE490A04F097FCEB48D3
:1028600080ED000AE749096804FB01F04FF4AF71FD
:10287000484300EE100AB8EEC00A70EE280A00EED7
:10288000104AB8EEC00A60EE800A00EE104AB8EEB8
:10289000C00ADA4890ED001A40EE410ADC48C0ED6B
:1028A000000AD848006805F0CCFC064605F05DFF3C
:1028B00041EC1A0BD648006806F0B4FA41EC1C0B48
:1028C000B0EE4C0AF0EE6C0A02F0BEFFB0EE40BA79
:1028D000F0EE60BA53EC1A2B51EC1B0B06F0AAF881
:1028E0007ED2C848006801284CDAC74890ED000A3B
:1028F00005F094FAF0EE400AC44890ED001A00EE9C
:10290000104AB8EEC00A00EE201AB0EE412AB0EE2E
:10291000420AFDF7A1FEB748D0ED110A00E08BE1B5
:1029200030EE200ABDEEC00A10EE106A32460121D8
:10293000B84802F0FBFAB44890ED000A05F06EFAD0
:10294000F0EE400AB14890ED001A00EE104AB8EEE1
:10295000C00A00EE201AB0EE412AB0EE420AFDF79E
:102960007BFEA448D0ED110AF1EE600A30EE200A99
:10297000BDEEC00A10EE106A32460221A54802F0F0
:10298000D5FA7AE09F480068012876DB9E4890EDF2
:10299000000A04F03BFCF0EE400A9C4890ED001A5F
:1029A00000EE104AB8EEC00A00EE201AB0EE412A3E
:1029B000B0EE420AFDF750FE8E48D0ED110A30EE1F
:1029C000200ABDEEC00A10EE106A3246012191487D
:1029D00002F0ACFA8C4890ED000A04F017FC00E01D
:1029E00021E0F0EE400A894890ED001A00EE104A0E
:1029F000B8EEC00A00EE201AB0EE412AB0EE420A4C
:102A0000FDF72AFE7B48D0ED110AF1EE600A30EEA8
:102A1000200ABDEEC00A10EE106A324602217D483F
:102A200002F084FA29E07748006805F00AFC0646BF
:102A300005F09BFE41EC1A0B7548006806F0F2F9B0
:102A400041EC1C0BB0EE4C0AF0EE6C0A02F0FCFEFE
:102A5000B0EE40BAF0EE60BA53EC1A2B51EC1B0BFF
:102A600005F0AEFE09D29FED6C0A694880ED000AC0
:102A70006048806C401C5F498864DEE061490968F9
:102A800004FB01F04FF4AF71484300EE100AB8EEBA
:102A9000C00A30EE280A5948D0ED000A30EEC00ACC
:102AA000594880ED000A5648D0ED000AB0EE490AB8
:102AB00004F06CFB554880ED000A5249096804FB9C
:102AC00001F04FF4EB71484300EE100AB8EEC00A73
:102AD00038EE400A4848D0ED000A30EE600A4C4813
:102AE00080ED000A4748006805F0ABFB064605F09C
:102AF0003CFE41EC1A0B4648006806F093F941ECA5
:102B00001C0BB0EE4C0AF0EE6C0A02F09DFEB0EE2B
:102B100040BAF0EE60BA53EC1A2B51EC1B0B05F0E7
:102B200089FF49D2384890ED000A04F06FFBF0EEBF
:102B3000400A364890ED001A00EE104AB8EEC00A7E
:102B400000EE201AB0EE412AB0EE420AFDF784FDF5
:102B50002848D0ED110A30EE200ABDEEC00A10EE72
:102B6000106A324601212B4802F0E0F9264890ED28
:102B7000000A04F04BFBF0EE400A244890ED001AE6
:102B800000EE104AB8EEC00A00EE201AB0EE412A5C
:102B9000B0EE420AFDF760FD1648D0ED110AF1EEE5
:102BA000600A30EE200ABDEEC00A10EE106A32460E
:102BB0000221184802F0BAF91248006805F041FBFA
:102BC000064605F0D2FD41EC1A0B1148006806F0EC
:102BD00029F941EC1C0BB0EE4C0AF0EE6C0A02F045
:102BE00033FEB0EE40BAF0EE60BA53EC1A2B51EC63
:102BF0001B0B13E088030020A4020020A802002081
:102C0000AC020020BC020020B8020020B00200206C
:102C1000B4020020006800400000000005F0D0FD74
:102C200009D21FED030A134880ED000A1248806C98
:102C3000401C1149886400E000BF00BF0E48806C52
:102C4000042807D10D480068401C0C4908600B207F
:102C50000949886409480068032805D1002007490C
:102C600008600B2004498864FEF7ECFCBDEC0A8B7D
:102C700070BD0000B402002088030020BC020020C8
:102C800000BFFEE700BFFEE770B5002100230F2262
:102C9000C4781CB3174C246804F4E064C4F5E06401
:102CA000C4F30721C1F10404E3B20A4144789C4013
:102CB000E1B28478144021430C07210E0E4C0578B4
:102CC0006155047804F01F050124AC4005786D11AE
:102CD000AD0005F1E025C5F8004109E0047804F0F5
:102CE0001F050124AC40054D0678761145F82640B5
:102CF00070BD00000CED00E000E400E080E100E0C9
:102D000002490143024A1160704700000000FA05C1
:102D10000CED00E070B52DED108BF0EE40AAB0EE9A
:102D2000608AB0EE41DAB0EE619A04F023FFF74812
:102D300080ED000A04F09AFFF54880ED000A04F0E7
:102D400047FEF44880ED000AF04890ED000A30EEAE
:102D50004D0A20EE000AEE48D0ED000A70EEC90AD6
:102D600090ED001A31EE491A00EE810A10EE101AA9
:102D7000084606F057F841EC1C0BB0EE4C0AF0EE9A
:102D80006C0A03F0C1FCB0EE40BAF0EE60BA51EC50
:102D90001B0B05F075FAE0490860084690ED000A43
:102DA00030EE480ADD4880ED000AD84890ED000A70
:102DB00030EE4D0ADA4880ED000AD54890ED000A61
:102DC00030EE490AD74880ED000A90ED000AD44859
:102DD000D0ED000A80EE201AD34880ED001A90ED65
:102DE000000AFFEE000A80EE801A11EE105A284603
:102DF00006F018F841EC1E0BB0EE4E0AF0EE6E0A2B
:102E000002F0B2F9B0EE40CAF0EE60CA9FEDC70B17
:102E100053EC102B51EC1C0B05F00EFD41EC1F0B7D
:102E20009FEDC40B53EC102B05F018FB41EC1B0B72
:102E300005F026FAC1490860BA48006805F0F2FFBB
:102E400041EC1C0BB0EE4C0AF0EE6C0A02F0FCFCFC
:102E5000B0EE40BAF0EE60BA9FEDB90B53EC102B18
:102E600051EC1B0B05F0ACFC1AD2AD4890ED000AFA
:102E7000B5EEC00AF1EE10FA05DD9FEDB30AB348D6
:102E800080ED000A0CE0A64890ED000AB5EEC00AFD
:102E9000F1EE10FA04D29FEDAE0AAC4880ED000AC4
:102EA0009F48006805F0BEFF41EC1C0BB0EE4C0AD9
:102EB000F0EE6C0A02F0C8FCB0EE40BAF0EE60BA78
:102EC0009FED9F0B53EC102B51EC1B0B05F078FC86
:102ED0001AD2944890ED000AB5EEC00AF1EE10FA4D
:102EE00005DD9FED9C0A994880ED000A0CE08D48B5
:102EF00090ED000AB5EEC00AF1EE10FA04D29FED93
:102F0000960A924880ED000A854890ED000AB5EED9
:102F1000C00AF1EE10FA27DD824890ED000AB5EE06
:102F2000C00AF1EE10FA0ADD844890ED000ADFEDE8
:102F3000890A30EE200A854880ED000A43E079488E
:102F400090ED000AB5EEC00AF1EE10FA3BD27B48D4
:102F500090ED000ADFED7F0A30EEC00AB1EE400AC4
:102F60007A4880ED000A2EE06D4890ED000AB5EE3B
:102F7000C00AF1EE10FA26D26A4890ED000AB5EECA
:102F8000C00AF1EE10FA0ADD6C4890ED000ADFEDA0
:102F9000710A30EE200A6D4880ED000A13E06148A6
:102FA00090ED000AB5EEC00AF1EE10FA0BD26348BC
:102FB00090ED000ADFED670A30EEC00AB1EE400A7C
:102FC000624880ED000A5348D0ED000A5F4890ED5A
:102FD000000A04F0DBF8614880ED000A9FED600A0A
:102FE00078EE000A80EE880A20EE2A0AFDEEC09AEA
:102FF0009FED5B0A78EE400A80EE880A20EE2A0AEE
:10300000BDEEC0AAB8EEE90A9FED561AC0EE010A5D
:103010009FED550A20EE800AFDEEC08AF8EECA0A3E
:103020009FED501A80EE810ADFED4F0A20EE200A54
:10303000BDEEC00A10EE104A384890ED000A05F0C7
:1030400097F84648D0ED000A30EE200AB0EE40BABC
:10305000FEF780FBF8EEE80A30EE200ABDEEC00A6B
:1030600010EE105A2A460121404801F05FFF2B481C
:1030700090ED000A05F07CF83848D0ED000A30EEFB
:10308000200AB0EE40BAFEF765FB604200EE900AFF
:10309000F8EEE00A30EE200ABDEEC00A10EE105A3B
:1030A0002A460221314801F041FF1C4890ED000AF8
:1030B00005F05EF82948D0ED000A30EE200AB0EEA7
:1030C00040BAFEF747FBF8EEE80A30EE200A28483F
:1030D00080ED000A114890ED000A05F049F81F48FC
:1030E000D0ED000A30EE200AB0EE40BAFEF732FB17
:1030F000604200EE900AF8EEE00A30EE200A1D4829
:1031000080ED000ABDEC108B70BD0000780100203E
:103110007C010020800100208C010020940100200F
:103120009C010020A0010020900100200000000070
:103130000080664000000060FB21094098010020EB
:10314000000000000000F03F0000000084010020AB
:10315000000034430000B4420000B4C288010020E3
:10316000000059436766BC4300008045006800408A
:10317000A4010020A801002010B52DED0C8BB0EEAD
:10318000408AF0EE608AFE4890ED0F0AFD4880ED1F
:10319000000AFB4890ED100AFB4880ED000AF84851
:1031A00090ED0E0AF94880ED000AF74890ED000A0C
:1031B00030EE680A10EE101A084605F033FE41ECB6
:1031C0001D0B9FEDF31BB0EE4D0AF0EE6D0A02F001
:1031D00047FBB0EE40BAF0EE60BAEA4890ED000A64
:1031E00030EE480A10EE101A084605F01BFE41ECBE
:1031F0001D0B9FEDE71BB0EE4D0AF0EE6D0A02F0DD
:103200002FFBB0EE40CAF0EE60CA53EC1B2B51EC22
:103210001C0B05F067F841EC1A0BB0EE4A0AF0EE11
:103220006A0A03F071FAB0EE409AF0EE609A51EC3F
:10323000190B05F025F8D8490860D24890ED000A2E
:1032400030EE480AD54880ED000ACF4890ED000ADC
:1032500030EE680AD24880ED000A90ED000ACF48AF
:10326000D0ED000A80EE201ACE4880ED001A0068EA
:1032700005F0D8FD41EC1C0BB0EE4C0AF0EE6C0AE8
:1032800001F072FFB0EE40BAF0EE60BA9FEDC60BEF
:1032900053EC102B51EC1B0B05F0CEFA41EC1A0B42
:1032A0009FEDC30B53EC102B05F0D8F841EC190B34
:1032B00004F0E6FFC0490860B84890ED000ADFED71
:1032C000BF0A20EE200AFFEE000AB4EEE00AF1EE9B
:1032D00010FA27DB90ED000ADFEDB80A20EE200A95
:1032E000F7EE000AB4EEE00AF1EE10FA1AD8AC4894
:1032F00090ED000AB5EEC00AF1EE10FA05DD9FED83
:10330000B00AB04880ED000A0CE0A54890ED000A34
:10331000B5EEC00AF1EE10FA04D29FEDAB0AA9484F
:1033200080ED000A9D4890ED000AB5EEC00AF1EE6E
:1033300010FA25DD9A4890ED000AB5EEC00AF1EECC
:1033400010FA0ADD9C4890ED000ADFEDA00A30EE8D
:10335000200A9C4880ED000A41E0914890ED000A67
:10336000B5EEC00AF1EE10FA39D2934890ED000A9A
:10337000DFED960A30EE200A924880ED000A2EE03A
:10338000864890ED000AB5EEC00AF1EE10FA26D29A
:10339000834890ED000AB5EEC00AF1EE10FA0ADD9E
:1033A000854890ED000ADFED890A30EE600A854815
:1033B00080ED000A13E07A4890ED000AB5EEC00AED
:1033C000F1EE10FA0BD27C4890ED000ADFED7F0A97
:1033D00030EEC00AB1EE400A7A4880ED000A6B4830
:1033E000D0ED000A774890ED000A03F0CFFE784850
:1033F00080ED000A6848006805F014FD41EC1A0BE6
:10340000B0EE4A0AF0EE6A0A02F01EFAB0EE409AF6
:10341000F0EE609A9FED6F0B53EC102B51EC190BF3
:1034200005F008FB23D26A4890ED000AFDF714F975
:10343000DFED6A0A30EE200ABDEEC00A10EE104A37
:1034400022460121664801F071FD614890ED000AB5
:10345000FDF702F9DFED630A30EE200ABDEEC00A87
:1034600010EE104A224602215D4801F05FFD4A48F5
:10347000006805F0D7FC41EC1A0BB0EE4A0AF0EEFA
:103480006A0A02F0E1F9B0EE409AF0EE609A9FED20
:10349000560B53EC102B51EC190B05F0CBFA3CD228
:1034A0003D48006805F0BEFC41EC1A0BB0EE4A0A3C
:1034B000F0EE6A0A02F0C8F9B0EE409AF0EE609AB7
:1034C0009FED440B53EC102B51EC190B05F078F9E0
:1034D00023D23F4890ED000AFDF7BEF8DFED440A25
:1034E00030EE200ABDEEC00A10EE104A224601213D
:1034F0003B4801F01BFD364890ED000AFDF7ACF8A3
:10350000DFED3C0A30EE200ABDEEC00A10EE104A94
:1035100022460221324801F009FD1F48006805F0EB
:1035200081FC41EC1A0BB0EE4A0AF0EE6A0A02F096
:103530008BF9B0EE409AF0EE609A9FED2B0B53ECB6
:10354000102B51EC190B05F03BF97FD212480068A3
:1035500005F068FC41EC1A0BB0EE4A0AF0EE6A0A7C
:1035600002F072F9B0EE409AF0EE609A9FED220BF5
:1035700053EC102B51EC190B05F05CFA66D23FE0CE
:103580008803002040000020440000204800002064
:1035900000000000000000405800002060000020F3
:1035A00064000020540000200000000000806640FD
:1035B00000000060FB2109405C00002000007A440C
:1035C000000034C34C000020000000000000B442A2
:1035D000500000200000000000406F400080BB450C
:1035E000006800400080BBC500000000000069408A
:1035F00000007A4500007AC5000000000000544039
:10360000334890ED000AFDF727F8DFED320A30EE7F
:10361000200ABDEEC00A10EE104A224601212E48B3
:1036200001F084FC2A4890ED000AFDF715F8DFED63
:103630002B0A30EE200ABDEEC00A10EE104A2246D8
:103640000221254800E001E001F070FC24480068F8
:1036500005F0E8FB41EC1A0BB0EE4A0AF0EE6A0AFC
:1036600002F0F2F8B0EE409AF0EE609A9FED1D0B7A
:1036700053EC102B51EC190B05F0DCF926D218484D
:10368000006805F0CFFB41EC1A0BB0EE4A0AF0EEF1
:103690006A0A02F0D9F8B0EE409AF0EE609A1FED97
:1036A0002A0B53EC102B51EC190B05F089F80DD2B5
:1036B00000220121084801F039FC002202210648BD
:1036C00001F034FC0120BDEC0C8B10BD0020FAE7AA
:1036D000500000200000FA44006800400000FAC4D6
:1036E0005800002000000000000000002DE9F04319
:1036F00089B081460D46174698460024304B0FCBC3
:1037000005AE0FC605F540700090019000208DF8C1
:1037100008008DF8090008208DF80A001FB944F24E
:103720005010059002E045F250200590CDF8188029
:1037300000243FE005A810F834008DF80B0005A820
:1037400030F83400010A8DF80C1005A850F8340048
:10375000010C8DF80D1005A850F83400000E8DF8FE
:103760000E0005A800EBC40001798DF80F1005A824
:1037700000EBC4008088010A8DF8101005A800EB4A
:10378000C4004068010C8DF8111005A800EBC400BE
:103790004068000E8DF8120069464846FDF77CFD32
:1037A000064600BF31464846FDF70AFE0128F9D11A
:1037B000601CC4B2022CBDDB09B0BDE8F083000080
:1037C000EC90000810B588B004460121082000F0F4
:1037D0008DF80121880400F099F807220821254876
:1037E000FEF7ACFD072209212248FEF7A7FD4FF4A2
:1037F0004070069002208DF81C008DF81D000020FE
:103800008DF81E0001208DF81F0006A91948FEF74B
:103810004DFD4FF4E13002900020ADF80C00ADF802
:103820000E00ADF81000ADF814000C20ADF8120039
:1038300002A9114801F034FA01210F4801F064F99E
:1038400040210D4801F048F9012240F225510A4873
:1038500001F001FA27208DF8040000208DF8050002
:1038600001208DF806008DF8070001A8FFF70CFA7B
:1038700008B010BD000C0240004800401CB50121FA
:10388000102000F033F85020009001208DF8040043
:1038900000208DF8060003208DF8050002208DF829
:1038A000070069460548FEF701FD10210348FEF7B1
:1038B00073FD40210148FEF76DFD1CBD0010024064
:1038C00010B54FF47A63002206210248FFF70EFF7D
:1038D00010BD00000064004010B505230022062141
:1038E0000148FFF703FF10BD0064004029B1064AFC
:1038F00012680243044B1A6004E0034A12688243D0
:10390000014B1A60704700003038024029B1064A66
:1039100012680243044B1A6004E0034A12688243AF
:10392000014B1A60704700004038024029B1064A36
:1039300012680243044B1A6004E0034A126882438F
:10394000014B1A60704700002038024029B1064A36
:1039500012680243044B1A6004E0034A126882436F
:10396000014B1A60704700004438024029B1064AF2
:1039700012680243044B1A6004E0034A126882434F
:10398000014B1A607047000024380240F0B5002156
:1039900000220024022500260223324F3F6807F050
:1039A0000C0121B1042905D0082937D105E02E4F9B
:1039B000076036E02D4F076033E02A4F3F1F3F6816
:1039C000C7F38056274F3F1F3F6807F03F036EB194
:1039D000264FB7FBF3F7DFF88CC0ACF1040CDCF832
:1039E00000C0CCF3881C07FB0CF40CE01E4FB7FBA7
:1039F000F3F7DFF870C0ACF1040CDCF800C0CCF3D6
:103A0000881C07FB0CF4174F3F1F3F68C7F30147A3
:103A10007F1C7D00B4FBF5F7076002E0124F0760E2
:103A200000BF00BF0F4F3F6807F0F0010909104FBA
:103A30007A5C0768D74047600A4F3F6807F4E05157
:103A4000890A0B4F7A5C4768D7408760054F3F680B
:103A500007F46041490B064F7A5C4768D740C7605E
:103A6000F0BD0000083802400024F40000127A0083
:103A700078030020704700000CB5002001900090F2
:103A80003448006840F480303249086000BF314853
:103A9000006800F4003000900198401C01900098EC
:103AA00018B90198B0F5A06FF1D12A48006800F468
:103AB000003010B10120009001E00020009000983B
:103AC000012846D123484030006840F08050214909
:103AD000403108602048006840F480401E4908607A
:103AE0001C48083000681B49083108600846006817
:103AF00040F4004008600846006840F4A0500860A8
:103B00001648091F0860081F006840F08070091FF0
:103B1000086000BF0F48006800F000700028F9D06E
:103B200040F205600E4908600A480830006820F03D
:103B300003000849083108600846006840F00200A8
:103B4000086000BF03480830006800F00C00082837
:103B5000F8D10CBD00380240007000400854400706
:103B6000003C024000B52DED028B81B0B0EE408AE2
:103B7000B0EE480A04F0EAFA009041210F4801F043
:103B800081F99DF800100D4801F07CF99DF80110B5
:103B90000A4801F077F99DF80210084801F072F91F
:103BA0009DF80310054801F06DF94A21034801F022
:103BB00069F901B0BDEC028B00BD000000100140AE
:103BC00010B588B0044601210846FFF78FFE012199
:103BD0001020FFF7BBFE072209212548FEF7AEFBA8
:103BE00007220A212248FEF7A9FB4FF4C060069085
:103BF00002208DF81C008DF81D0000208DF81E009D
:103C000001208DF81F0006A91948FEF74FFB02940A
:103C10000020ADF80C00ADF80E00ADF81000ADF8C6
:103C200014000C20ADF8120002A9124801F038F877
:103C30004021104800F050FF25208DF8040000209E
:103C40008DF8050002208DF8060001208DF8070090
:103C500001A8FFF719F8012240F22551054800F0AC
:103C6000FAFF0121034800F04FFF08B010BD00002B
:103C7000000002400010014010B52DED108BB0EE99
:103C800040DAB0EE608AF0EE41DAF0EE618A03F0DD
:103C900071FFDD4880ED000A03F0E8FFDB4880EDAE
:103CA000000A03F095FEDA4880ED000AD64890ED50
:103CB000000A30EE6D0A20EE000AD448D0ED000A6A
:103CC00070EEE80A90ED001A31EE681A00EE810AF3
:103CD00010EE101A084605F0A5F841EC1C0BB0EEEA
:103CE0004C0AF0EE6C0A02F00FFDB0EE40BAF0EEB6
:103CF00060BA51EC1B0B04F0C3FAC64908600846D1
:103D000090ED000A30EE480AC34880ED000ABE4834
:103D100090ED000A30EE6D0AC04880ED000ABB4805
:103D200090ED000A30EE680ABD4880ED000A90ED83
:103D3000000ABA48D0ED000A80EE201AB94880ED9A
:103D4000001A90ED000AFFEE000A80EE801A11EED4
:103D5000104A204605F066F841EC1E0BB0EE4E0A04
:103D6000F0EE6E0A01F000FAB0EE40CAF0EE60CA62
:103D70009FEDAD0B53EC102B51EC1C0B04F05CFDD4
:103D800041EC1F0B9FEDAA0B53EC102B04F066FBCC
:103D900041EC1B0B04F074FAA7490860A0480068C6
:103DA00005F040F841EC1B0BB0EE4B0AF0EE6B0A4D
:103DB00001F04AFDB0EE40CAF0EE60CA9FED9F0BE5
:103DC00053EC102B51EC1C0B04F0FAFC1BD2934863
:103DD00090ED000AB5EEC00AF1EE10FA05DD9FED98
:103DE000990A994880ED000A41E08C4890ED000A5C
:103DF000B5EEC00AF1EE10FA39D29FED940A92485E
:103E000080ED000A33E08548006805F00BF841ECCE
:103E10001C0BB0EE4C0AF0EE6C0A01F015FDB0EE92
:103E200040BAF0EE60BA9FED850B53EC102B51ECCD
:103E30001B0B04F0C5FC1AD2794890ED000AB5EED0
:103E4000C00AF1EE10FA05DD9FED810A7E4880ED93
:103E5000000A0CE0724890ED000AB5EEC00AF1EEDF
:103E600010FA04D29FED7B0A774880ED000A6B4878
:103E700090ED000AB5EEC00AF1EE10FA25DD6848B3
:103E800090ED000AB5EEC00AF1EE10FA0ADD6A48BC
:103E900090ED000ADFED6F0A30EE600A6A4880EDAF
:103EA000000A3FE05E4890ED000AB5EEC00AF1EE70
:103EB00010FA37D2604890ED000ADFED660A30EE66
:103EC000200A614880ED000A2CE0544890ED000A79
:103ED000B5EEC00AF1EE10FA24D2514890ED000A76
:103EE000B5EEC00AF1EE10FA0ADD534890ED000A73
:103EF000DFED580A30EE600A534880ED000A11E009
:103F0000474890ED000AB5EEC00AF1EE10FA09D26A
:103F1000494890ED000ADFED4F0A30EE200A4A488A
:103F200080ED000A3A48D0ED000A474890ED000ABB
:103F300003F02CF9484880ED000A9FED480A78EE1E
:103F4000000A80EE880A20EE0D0ABDEEC0AA9FEDA1
:103F5000430A78EE400A80EE880A20EE0D0AFDEE54
:103F6000C0AAB8EECA0ADFED3E0A80EE201A9FED25
:103F70003D0A21EE000ABDEEC09AB8EEEA0A9FEDB6
:103F8000381AC0EE010A9FED370A20EE800AFDEED6
:103F9000C09A214890ED000A04F0EAF82E48D0EDCE
:103FA000000A30EEC00AB0EE40BAFDF7D3FBF8EEDF
:103FB000E90A30EE200ABDEEC00A10EE104A224691
:103FC0000121294800F0B2FF134890ED000A04F0E7
:103FD000CFF82148D0ED000A30EEC00AB0EE40BA6A
:103FE000FDF7B8FBF8EEC90A30EEC00AB1EE400AA0
:103FF000BDEEC00A10EE104A224602211A4800F017
:1040000095FFBDEC108B10BDAC010020B00100206D
:10401000B4010020C0010020C8010020D001002010
:10402000D4010020C4010020000000000080664090
:1040300000000060FB210940CC0100202D431CEB57
:10404000E2361A3F000034C3B8010020000000002F
:104050000000B4C20000B442BC010020000059437B
:104060006766BC43000080450068004010B51548F5
:10407000006840F47000134908601348006840F07D
:1040800001001149086000200F49083108600E48FE
:1040900000680E4908400C4908600D48091D086079
:1040A000081F006820F48020091F086000200649CE
:1040B0000C310860FFF7E0FC4FF0006001498039E7
:1040C000086010BD88ED00E000380240FFFFF6FEFA
:1040D0001030002410B50121044800F0B2F8012886
:1040E00003D10121014800F09DF810BD00000140FE
:1040F00010B50121880700F0A4F801281AD1012188
:10410000800700F08FF80C480088401C0A4908809E
:104110000846008800EE100AB8EE400ADFED070AF4
:10412000B4EEE00AF1EE10FA04DB00200880012072
:104130000349087010BD0000300300200000C84291
:104140003203002010B501211C4800F07AF8012844
:1041500033D10121194800F065F819480068401C66
:104160001749086017480068401C1649086008464F
:1041700000684FF6FF7190FBF1F201FB120011494C
:1041800008600F49086800EBD0714910A0EB4101AD
:1041900099B103F0EFFC0C4880ED000A03F066FDD6
:1041A0000A4880ED000A084890ED000A03F0C2FFBB
:1041B000064890ED000A03F0C3FF10BD0004004064
:1041C0004003002034030020380300203C0300207B
:1041D00010B50121044800F034F8012803D1012171
:1041E000014800F01FF810BD0008004010B5012183
:1041F000044800F026F8012803D10121014800F00D
:1042000011F810BD000C004010B50121044800F069
:1042100018F8012803D10121014800F003F810BD6E
:1042200000040140CA430282704721B1028842F073
:104230000102028004E002884FF6FE731A400280F9
:10424000704730B50246002000230024158A05EA95
:104250000103958905EA010413B10CB1012000E0C6
:10426000002030BD1AB183890B43838102E083892A
:104270008B438381704700002DE9FF4104460D46C2
:1042800016461F46DDF828806949601A8C4270D0B6
:104290001ADC6849A4EB01008C426CD00ADCB4F152
:1042A000804F4ED064482044002852D0B0F5806F33
:1042B00071D156E0B0F5806F65D0B0F5006F6CD06D
:1042C000B0F5406FF4D170E0B0F5923F21D009DC39
:1042D000B0F5806F7AD0B0F5644F0AD0B0F5684F72
:1042E0007CD10EE0B0F5943F1BD0B0F5963F75D170
:1042F0001FE001210846FFF729FB19208DF8000077
:104300006DE001210220FFF721FB2C208DF8000039
:1043100065E001210804FFF719FB18208DF8000063
:104320005DE001211920FFF711FB2C208DF8000022
:1043300055E001218804FFF709FB1A208DF80000E1
:104340004DE001210846FFF7E1FA1C208DF800003E
:1043500045E001210220FFF7D9FA1D208DF8000069
:104360003DE001210420FFF7D1FA1E208DF8000066
:1043700035E023E0FFE701210820FFF7C7FA3220EC
:104380008DF800002BE001211020FFF7BFFA362046
:104390008DF8000023E021E0FFE701212020FFF756
:1043A000B5FA37208DF8000019E001214020FFF711
:1043B000ADFA2B208DF8000011E007E001218020EC
:1043C000FFF7A4FA2C208DF8000008E00121080274
:1043D000FFF79CFA2D208DF8000000E000BF00BF21
:1043E0000295ADF804600020ADF80C00ADF80600B1
:1043F00001A9204600F022F801212046FFF712FF14
:10440000012211462046FFF72DFFF8B28DF801007A
:1044100008F0FF008DF8020001208DF803006846C7
:10442000FEF732FC01212046FFF7FFFEBDE8FF81C9
:10443000001C0040000C004000FCFFBF002202886E
:10444000184B98420ED0184B98420BD0B0F1804FC9
:1044500008D0164B984205D0154B984202D0154B08
:10446000984204D14FF68F731A404B881A43124B6F
:10447000984207D0114B984204D04FF6FF431A40A0
:104480000B891A4302804B68C3620B880385054B76
:10449000984202D0044B984201D18B7A03860123C3
:1044A0008382704700000140000401400004004086
:1044B00000080040000C00400010004000140040C4
:1044C0001CB501210420FFF711FA052000900020FF
:1044D0008DF8040003208DF8050002208DF80700F8
:1044E00000208DF8060069460148FDF7DFFE1CBD7F
:1044F0000008024010B590B0044601214805FFF7BE
:10450000F5F9204600F0EEF82248FDF703FC00BF65
:104510002048FDF7ABFC0028FAD14FF00060019075
:104520001D4802901D4803904020049000200590F3
:1045300006904FF4806007900020089009900A9040
:104540004FF400300B9000200C9001200D900020C3
:104550000E900F9001A90F48FDF7E2FC0122802187
:104560000D48001F00F0DCFA012210210948FDF778
:10457000B9FC2F208DF8000002208DF801008DF885
:10458000020001208DF803006846FEF77DFB10B0A5
:1045900010BD0000B860024004500040FC03002041
:1045A00010B540F22551494800F02BFB012873D18A
:1045B00040F22551454800F098FA444800F05DFC6F
:1045C000434908704348006808287CD2DFE800F0BF
:1045D000044049525B656C743D480078772803D1EC
:1045E00007203C49086032E039480078622803D14E
:1045F0000620384908602AE035480078632803D14E
:1046000005203449086022E0314800786D2803D144
:104610000120304908601AE02D480078762803D13F
:1046200003202C49086012E0294800786E2803D145
:104630000220284908600AE025480078612803D153
:1046400004202449086002E00020224908603BE081
:1046500021480068401C2049086000201D4908606E
:1046600032E01E480068401C1C49086000201949BF
:10467000086029E018480068401E174908600020BB
:104680001449086020E015480068401E134908607E
:1046900000201049086017E017E001201049086069
:1046A00000200C4908600FE0012003F015FC0020F9
:1046B0000849086008E006E0642003F00DFC0020D3
:1046C0000449086000E000BF00BF10BD005000407A
:1046D000100300200C030020CC020020D002002098
:1046E000D402002010B588B0044601940020ADF833
:1046F0000800ADF80A00ADF80C00ADF810000C2071
:10470000ADF80E000121FFF7F1F801210805FFF7D0
:10471000FDF8254800F00EFA08220C212348FDF789
:104720000DFE082202212248FDF708FE00208DF828
:104730001A0001208DF81B0002208DF81800C0021D
:10474000059002208DF8190005A91848FDF7AEFD67
:1047500002208DF818000420059005A91448FDF7E3
:10476000A5FD01A9104800F09BFA35208DF81C002A
:1047700001208DF81F0000208DF81D0002208DF80B
:104780001E004FF4A060FEF7BBFA07A8FEF77CFA04
:10479000012240F22551044800F05DFA012102484F
:1047A00000F0B2F908B010BD00500040000802400F
:1047B000000C024038B500240821254800F014FA06
:1047C000002834D0224800F058FBC4B2562C06D141
:1047D00000202049086020490098086007E0522C1A
:1047E00005D100201B49086001201C4908601948B8
:1047F000006810B1012818D105E0412C02D1012038
:104800001449086012E0164909680DF8014014487F
:104810000068401C1249086008460068042803DD4F
:10482000002008600B49086000E000BF0FE040F284
:104830002551074800F0E5F9012808D140F225513B
:10484000034800F052F9024800F017FBC4B238BD2B
:104850000010014014030020DC020020D8020020D8
:104860001803002010B540F22551174800F0C9F98F
:10487000012827D140F22551134800F036F912489B
:1048800000F0FBFA1149087008460078DA2802D0D7
:104890000F48006880B10E480068401C0C49086051
:1048A00008460068022807D10848007840B203F0A3
:1048B00019FB002006490860002006490860012015
:1048C0000549086010BD000000440040E8020020D7
:1048D0002C03002034000020E402002010B540F238
:1048E0002551744800F08DF901287CD140F2255102
:1048F000704800F0FAF86F4800F0BFFA6E4908708F
:104900006E48007805286FD2DFE800F00311263DDD
:104910004B00694800780D2805D168480078401C94
:104920006649087002E000206449087087E0624828
:1049300000780A2808D10020614908705F48007893
:10494000401C5E49087006E05B4800780D2802D0E4
:1049500000205A49087072E0574800785949584A6F
:104960001278885456480078401C5549087008460B
:104970000078182806DB0020087050480078401C9A
:104980004E4908705BE04C4800780A2805D14B4836
:104990000078401C4949087002E00020474908702F
:1049A0004DE0454800780D2841D1464890ED000A79
:1049B000B1EE400A444880ED000A424890ED010AF9
:1049C00080ED010A90ED020A80ED020A90ED030AE3
:1049D0003E4880ED000A3B4890ED040A3C4880EDDB
:1049E000000A384801E02BE025E090ED050A80ED53
:1049F000050A364890ED000A03F090FB344890ED2C
:104A0000000A03F091FB304890ED000A03F05EFAD3
:104A100003F0B0F82F4880ED0F0A03F027F92D4876
:104A200080ED100A02F0D4FF2A4880ED0E0A002023
:104A30002249087003E000202049087000BF37E0D9
:104A400028211C4800F051F840F22771194800F065
:104A50004CF840F22661174800F047F840F2253143
:104A6000144800F042F840F22441124800F03DF8AA
:104A700040F646010F4800F038F840F66A110D483C
:104A800000F033F860210B4800F02FF84FF4587114
:104A9000084800F02AF84FF41871064800F025F88D
:104AA0004FF4B071034800F020F8024800F0E5F937
:104AB00010BD0000004800401C0300201D03002022
:104AC0001E0300204C040020C0020020C40200206D
:104AD000C80200208803002001F40072B2F5007FB4
:104AE00000D100BFCA430280704710B500220023E6
:104AF00040F66A14A14200D100BF0A12012494407A
:104B0000A3B2DC43048010BD21B1828942F400527B
:104B1000828104E082894DF6FF731A4082817047DA
:104B20001AB1838A0B43838202E0838A8B43838298
:104B30007047000010B504462548844208D1012181
:104B40001020FEF713FF00211020FEF70FFF3EE0BC
:104B50002048844209D101214804FEF7E7FE0021E4
:104B60004FF40030FEF7E2FE31E01B48844209D1E9
:104B700001218804FEF7DAFE00214FF48020FEF7C1
:104B8000D5FE24E01548844209D10121C804FEF76E
:104B9000CDFE00214FF40020FEF7C8FE17E01048BC
:104BA000844209D101210805FEF7C0FE00214FF41F
:104BB0008010FEF7BBFE0AE00A48844207D10121BB
:104BC0002020FEF7D3FE00212020FEF7CFFE10BDEF
:104BD000001001400044004000480040004C0040EC
:104BE000005000400014014002460020B1F5007F53
:104BF00000D100BF13880B400BB1012000E0002062
:104C0000704770B50246002400230025002040F6BE
:104C10006A16B14200D100BFC1F3421501F01F0373
:104C2000012606FA03F3012D02D19689334006E0EE
:104C3000022D02D1168A334001E0968A33400C12CD
:104C4000012606FA04F41688344013B10CB1012091
:104C500000E0002070BDF0B50346002400260025CA
:104C6000002040F66A17B94200D100BF1846C1F3D0
:104C7000421401F01F06012707FA06F5012C01D1A5
:104C80000C3004E0022C01D1103000E014301AB1D5
:104C900007682F43076002E00768AF430760F0BD75
:104CA0002DE9FF4705460E460024A14600BFA04659
:104CB000B08900B100BF2C8A24F44054F08804432A
:104CC0002C82AC8941F20C608443B088318908435E
:104CD000718908430443AC81AC8A24F44074B089E0
:104CE0000443AC826846FEF751FE2048854202D05C
:104CF0001F48854202D1DDF80C9001E0DDF80890F4
:104D0000A88900F4004040B109EBC90000EB09108C
:104D100031684900B0FBF1F707E009EBC90000EB8F
:104D2000091031688900B0FBF1F76420B7FBF0F09F
:104D300004012009642101FB1078A88900F40040D7
:104D400040B1322000EBC800B0FBF1F000F00700EA
:104D5000044308E0322000EB08106421B0FBF1F0BE
:104D600000F00F0004432C81BDE8FF8700100140D4
:104D7000001401400FB470B586B006460CA801902F
:104D800073E00B9800785C281CD10B98401C0B90AA
:104D900000786E2809D072280FD10D21304600F01E
:104DA00071F80B98401C0B900BE00A21304600F084
:104DB00069F80B98401C0B9003E00B98401C0B907B
:104DC00000BF4BE00B980078252840D10B98401C81
:104DD0000B900078642818D0732833D1019810C83C
:104DE00001900BE02178304600F04CF800BF4021E4
:104DF0003046FFF7F9FE0028F9D0641C207800281F
:104E0000F0D10B98401C0B9020E0019820C8019035
:104E10000A2202A9284602F0B1FF02AC0BE0217879
:104E2000304600F02FF800BF40213046FFF7DCFE8F
:104E30000028F9D0641C20780028F0D10B98401C81
:104E40000B9003E00B98401C0B9000BF06E00B9802
:104E500010F8011B0B90304600F014F800BF402101
:104E60003046FFF7C1FE0028F9D00B9800780028E3
:104E700087D106B070BC5DF814FB01468888C0F38A
:104E80000800704730B504460D4600BF802120461B
:104E9000FFF7AAFE0028F9D080212046FFF71CFE6C
:104EA00040212046FFF718FEC5F30800A08030BD62
:104EB00000BFFEE70146DFED161AB0EE610ADFED36
:104EC000151AF0EE610ADFED141AB0EE611A01292D
:104ED00005DADFED121A1248C0ED111A10E00129AF
:104EE00007DB032905DADFED0F1A0D48C0ED111AB3
:104EF00006E0032904DBDFED0C1A0948C0ED111AA6
:104F00000748D0ED111AFDEEE11A11EE900A704734
:104F10000080A2440000C8440080894425D63A4657
:104F20008803002090E1874689CE5C462DE9F04158
:104F30008AB080460D46174600242C4B0FCB06AE98
:104F40000FC605F540700190029000208DF80C000E
:104F50008DF80D0008208DF80E00079700BF3FE088
:104F600006A810F834008DF80F0006A830F83400B9
:104F7000010A8DF8101006A850F83400010C8DF8C5
:104F8000111006A850F83400000E8DF8120006A883
:104F900000EBC40001798DF8131006A800EBC400E3
:104FA0008088010A8DF8141006A800EBC400406840
:104FB000010C8DF8151006A800EBC4004068000E27
:104FC0008DF8160001A94046FCF766F9064600BFB9
:104FD00031464046FCF7F4F90128F9D1601CC4B20F
:104FE000022CBDDB0AB0BDE8F08100005C90000837
:104FF0002DE9F04393B080460D4616461F46002427
:1050000038222E4905A8FBF73FF905F540700090BE
:10501000019000208DF808008DF8090008208DF817
:105020000A000C960E97264910914942129100BF32
:105030003FE005A810F834008DF80B0005A830F803
:105040003400010A8DF80C1005A850F83400010C4A
:105050008DF80D1005A850F83400000E8DF80E00E4
:1050600005A800EBC40001798DF80F1005A800EB2E
:10507000C4008088010A8DF8101005A800EBC40058
:105080004068010C8DF8111005A800EBC4004068C1
:10509000000E8DF8120069464046FCF7FDF8814687
:1050A00000BF49464046FCF78BF90128F9D1601C46
:1050B000C4B2072CBDDB13B0BDE8F0832490000818
:1050C000C0E1E40010B52DED028BB0EE408AB0EEE9
:1050D000480A00F00FF8BDEEC00A10EE104A234651
:1050E000002207210248FEF701FBBDEC028B10BD38
:1050F00000640040F0EE400AB1EE000A20EE800AA3
:105100009FED021A20EE010A70470000610B364144
:1051100003B401984100009850EAC12018BF042050
:105120004A0D18BF40F0010040F2FF72B2EB515F30
:1051300008BF40F00200012808BF052002B07047F8
:105140004100080218BF04200A0E18BF40F00100F9
:105150004FF07F4232EA010108BF40F0020001280F
:1051600008BF05207047000070B59B482DED020B6D
:105170002DED068B079D25F00044A04218DC9748D2
:10518000844202DC0AD1069840B19DED060BBDECCD
:10519000068B02B0BDE8704001F0F6BE002DCCBF1A
:1051A0009FED8F0B9FED900BBDEC068B02B070BD99
:1051B0008F48A04215DD8F48A042D8BF4FF0FF3482
:1051C00058DD9DED060B51EC100BFFF7A1FF0428F5
:1051D00008BF01F00DFF9DED060BBDEC068B02B084
:1051E00070BD9DED060B51EC100B02F0A9F8CDE956
:1051F000060181489FED828BA0423CDD8248A0429F
:105200001FDD00249FED82AB9DED060B53EC1A2BA6
:1052100051EC100B03F066F89DED060B41EC190BF9
:1052200053EC1A2B51EC100B03F006FB53EC182B2C
:1052300003F00EFD53EC192B03F010F9CDE9060134
:1052400049E09DED060B012453EC182B51EC100B9B
:1052500003F048F89DED060B41EC190B53EC182BAD
:1052600051EC100B03F0F4FC53EC192B03F0F6F89F
:10527000CDE906012FE06848A0421FDD02249FED22
:10528000689B9DED060B53EC192B51EC100B03F0B2
:10529000D3FA53EC182B03F025F89DED060B41ECE7
:1052A000180B53EC192B51EC100B03F0D1FC53EC01
:1052B000182B03F0D3F8CDE906010CE09DED060BA9
:1052C000032453EC102B9FED580B51EC100B03F003
:1052D000C5F8CDE906019DED060B53EC102B51EC02
:1052E000100B03F0A9FA41EC180B53EC182B03F048
:1052F000A3FA41EC190B4E480621B0EE490AF0EE34
:10530000690A784401F014FD53EC182B51EC100B92
:1053100003F092FA41EC180B4648B0EE490AF0EE61
:10532000690A0521784401F003FD53EC192B51EC77
:10533000100B03F081FA41EC100B51EC180B53ECFD
:10534000102B002C0EDA02F0CDFF9DED061B53EC66
:10535000112B03F071FA9DED061B53EC112B03F09A
:105360009FFB35E002F0BEFF9DED061B53EC112BB9
:1053700003F062FA41EC100B2F48784400EBC400B4
:1053800090ED001B51EC100B53EC112B03F060FC63
:105390009DED061B53EC112B03F05AFC41EC100B56
:1053A0002648784400EBC40090ED001B51EC100B34
:1053B00053EC112B03F074FB41EC100B002DA2BF3A
:1053C000BDEC068B02B070BD51EC100B02F04CFF2F
:1053D00041EC100B01E70000000010440000F07FDA
:1053E000182D4454FB21F93F182D4454FB21F9BFDB
:1053F0000000DC3F0000203E0000F33F0000000002
:10540000000000000000F03F0000E63F0000000048
:105410000000000000000040008003400000000089
:10542000000000000000F83F000000000000F0BF96
:10543000823E0000383E0000C23D00007A3D000080
:1054400070B56B4E2DED040B2DED028B82B0DDF8A7
:105450001CC0DDE905235C422CF000411C4341EAFD
:10546000D474049D22F00040B44205D86C422C4311
:1054700040EAD474B4420BD99DED061B9DED040B9C
:1054800002B0BDEC028B04B0BDE8704001F086BDF7
:10549000ACF14054A4F17F641C430BD0022404EA15
:1054A000AC7444EAD27405439FED538B9FED542BAB
:1054B00007D015E09DED040B51EC100B01F09EFEA2
:1054C00042E0002C11BF012C9DED040B02B0BDEC9D
:1054D000028B04BF04B070BD022C38D0032C3BD02B
:1054E0000B439FED491B9FED4A0B0AD0B14218D1E7
:1054F000B04209D121F0804120F080400791059011
:105500000FE0002A15DA10E0434B7B44002C08BF63
:1055100093ED000B0DD0012C10D0022C17D0032CD2
:105520001AD0B0421DD1002A03DAB0EE410AF0EEE3
:10553000610A02B0BDEC028B04B070BD93ED000BAC
:1055400051EC100B02F090FE41EC100BF1E7B0EEC5
:10555000480AF0EE680AECE7B0EE420AF0EE620AA2
:10556000E7E7401A00153C28C8BF8DED000B19DC99
:10557000BCF1000FBEBF10F13C0F9FED290B8DED6C
:10558000000B0FDB9DED060B53EC102B9DED040B78
:1055900051EC100B02F062FF01F0D2FE01F02EFE82
:1055A000CDE90001002C08BF9DED000BC1D0012CFE
:1055B00010D0022C9FED1C0B53EC102B9DED000B1B
:1055C00051EC100B0DD003F043FB53EC182B03F000
:1055D0003FFBB9E7019880F0004001909DED000B82
:1055E000A7E703F035FB53EC182B03F059FAABE7B0
:1055F0000000F07F00000000182D4454FB210940FA
:10560000182D4454FB2109C0182D4454FB21F9BF27
:10561000182D4454FB21F93F623D000000000000BA
:105620000000000000000000075C143326A6A13C27
:1056300010B52F499FED2C1B2DED020B84B0059862
:1056400020F000408842D8BF9DED040B2DDD294994
:10565000884209D1049840B94FF00100FAF74EFE94
:1056600001F0A6FC06B010BD05DB9DED040B01F0BA
:105670008BFC06B010BD68469DED040B01F084F86C
:1056800010F0030004BF9DED021B9DED000B0CD03C
:1056900001280ED09DED021B9DED000B022817D0B6
:1056A000012001F0C1FB06B010BD01F089FA06B07F
:1056B00010BD9DED021B9DED000B012001F0B4FB20
:1056C00051EC100B02F0D0FD06B041EC100B10BDF8
:1056D00001F076FA51EC100B02F0C6FD06B041EC79
:1056E000100B10BD000000000000000000000000D2
:1056F000FB21E93F0000F07F10EE101A08B5444A84
:105700006846B2EB410F28D94FF0E640B0EB410FAD
:1057100094BF00204FF0FF3000900098002861DB1C
:1057200060EE000A10F0010F45D010F0020FDFED1F
:10573000391A9FED391A00EEE11ADFED381A40EE02
:10574000811A21EEA01AF0EE400A40EE010A08BFCD
:10575000F1EE600AB0EE600A08BD314B21F0004264
:1057600093423CD911F0004FDFED2E0A20EE201AB3
:10577000DFED2D0A19BF31EE601A71EE200A31EE0D
:10578000201A71EE600ABDEEE01A11EE100A9FEDCC
:10579000271A00F0030000EEC10A9FED251A0090C1
:1057A00000EEC10A9FED231A00EEC10A9FED221AF6
:1057B00000EEC10AB1E79FED211A9FED210A10F01A
:1057C000020F00EE810A9FED1F1A00EE801AB7EE5D
:1057D000000A00EE810A18BFB1EE400A08BD01F0D0
:1057E0002BFC9AE710EE100A4000B0F17F4F3CBF4F
:1057F000B7EE000A08BD07D14FF00100FAF77EFDB1
:10580000BDE8084001F008BCBDE8084001F000BC5C
:10581000B61F927E336D4C39DA82083CA0AA2ABEAC
:10582000490E494683F9223F0000004B0000C93F62
:1058300000A0FD390020A2331A61342CB93AB2BA63
:10584000CA9F2A3DDDFFFFBE2DED020B019820F01F
:10585000004001909DED000B02B070470000000079
:105860002DE9F04D2DED040B2DED0E8B96B0DDE9FD
:105870002550279CDDF890A025F0004624F0004834
:10588000BAF1000F14BF0121002101EB4502FC49D0
:1058900053184A1093422AD3002814BF012300232F
:1058A00003EB44030B44F7498B4220D358EA000131
:1058B0009FEDF59B76D0DFF8D8B35D4503D1BAF103
:1058C000000F05D188E0BAF1000F08BF002100D019
:1058D000012101EB450111F5001F08D8002814BF74
:1058E0000121002101EB440111F5001F0BD99DEDB1
:1058F000261B9DED240B16B0BDEC0E8B04B0BDE84D
:10590000F04D01F04BBB0027002DBCBFE14988459D
:1059100021DAE1498845A8BF02271CDAC3451ADC11
:10592000DE4901EB2851142908DDC1F1340220FAC7
:1059300002F101FA02F282420DD108E058B9C1F138
:10594000140228FA02F101FA02F2424503D101F0F1
:105950000101C1F1020756EA0A0124D1002C22DA22
:10596000002D18BF022F01D0012F0AD00220FAF714
:10597000C5FC16B0BDEC0E8B04B0BDE8F04D01F0D7
:10598000EBBA0220FAF7BAFC01F0E6FA51EC100B80
:1059900002F06AFC41EC100B16B0BDEC0E8B04B0AB
:1059A000BDE8F08D18E09FEDBEAB9FEDBF8B0028EA
:1059B00071D1B848804522D105F1804010F58010A2
:1059C00008BFBAF1000F07D0B3450ADC002CA8BF0E
:1059D0009DED260BE0DA0DE0B0EE490AF0EE690A23
:1059E000DAE7002C06DA9DED260B51EC100B02F0E5
:1059F0003BFC6FE0AE48784490ED000BCCE7D84517
:105A00004DD1002C48DA2EB186423AD1BAF1000FBE
:105A100042D126E0BAF1000F13D00220FAF76EFC53
:105A200001F0D6FA8DED020B9DED240B8DED000BF0
:105A300010EE900A039961F31E0003909DED020B96
:105A4000AAE78DED02AB9DED240B1AEE901A10EE35
:105A5000900A8DED000B61F31E0003909DED020B8B
:105A60009AE78DED028B9DED240B18EE901A10EE47
:105A7000900A8DED000B61F31E0003909DED020B6B
:105A80008AE709DA9DED240B51EC190B53EC102B2E
:105A900002F0E4FC1EE020E09DED240B7CE7864252
:105AA0001BDAB4F1804F0DD0A4F10050B0F1FF50DB
:105AB00013D1002D11DB9DED240B51EC100B02F0E6
:105AC00089FB07E09DED240B53EC102B51EC100BE0
:105AD00000F0C2BC41EC100B5EE79DED240B51ECD5
